{
	"data": {
		"bytecode": {
			"linkReferences": {},
			"object": "608060405234801561000f575f80fd5b50335f60016101000a81548173ffffffffffffffffffffffffffffffffffffffff021916908373ffffffffffffffffffffffffffffffffffffffff16021790555060015f806101000a81548160ff0219169083151502179055507f6d41258e44d7ee79f697248fbce67e06508f6c2a56396009d98f28c105d43e955f60019054906101000a900473ffffffffffffffffffffffffffffffffffffffff166040516100b99190610105565b60405180910390a161011e565b5f73ffffffffffffffffffffffffffffffffffffffff82169050919050565b5f6100ef826100c6565b9050919050565b6100ff816100e5565b82525050565b5f6020820190506101185f8301846100f6565b92915050565b610e4e8061012b5f395ff3fe608060405234801561000f575f80fd5b5060043610610055575f3560e01c80632aebcbb6146100595780632e6997fe14610063578063462e91ec14610081578063b13c744b1461009d578063ec859db5146100ce575b5f80fd5b6100616100ea565b005b61006b610163565b604051610078919061072e565b60405180910390f35b61009b6004803603810190610096919061088b565b610258565b005b6100b760048036038101906100b291906108fc565b610374565b6040516100c592919061097e565b60405180910390f35b6100e860048036038101906100e391906108fc565b610429565b005b600115155f8054906101000a900460ff16151514610106575f80fd5b5f805f6101000a81548160ff0219169083151502179055507f52a1f86df561bcdc915e07aafb957e1253d4464fc7fae3d6700815e71f063ffc5f8054906101000a900460ff1660405161015991906109c6565b60405180910390a1565b60606001805480602002602001604051908101604052809291908181526020015f905b8282101561024f578382905f5260205f2090600202016040518060400160405290815f820180546101b690610a0c565b80601f01602080910402602001604051908101604052809291908181526020018280546101e290610a0c565b801561022d5780601f106102045761010080835404028352916020019161022d565b820191905f5260205f20905b81548152906001019060200180831161021057829003601f168201915b5050505050815260200160018201548152505081526020019060010190610186565b50505050905090565b5f60019054906101000a900473ffffffffffffffffffffffffffffffffffffffff1673ffffffffffffffffffffffffffffffffffffffff163373ffffffffffffffffffffffffffffffffffffffff16146102b0575f80fd5b600115155f8054906101000a900460ff161515146102cc575f80fd5b6005600180549050106102dd575f80fd5b600160405180604001604052808381526020015f815250908060018154018082558091505060019003905f5260205f2090600202015f909190919091505f820151815f01908161032d9190610bd9565b506020820151816001015550507f7e54b8e26d30b775858f75176d98873186bb2078a39aec1f769f4de0aeb43b1a816040516103699190610ca8565b60405180910390a150565b60018181548110610383575f80fd5b905f5260205f2090600202015f91509050805f0180546103a290610a0c565b80601f01602080910402602001604051908101604052809291908181526020018280546103ce90610a0c565b80156104195780601f106103f057610100808354040283529160200191610419565b820191905f5260205f20905b8154815290600101906020018083116103fc57829003601f168201915b5050505050908060010154905082565b600115155f8054906101000a900460ff16151514610445575f80fd5b6001805490508110610455575f80fd5b5f151560025f3373ffffffffffffffffffffffffffffffffffffffff1673ffffffffffffffffffffffffffffffffffffffff1681526020019081526020015f205f9054906101000a900460ff161515146104ad575f80fd5b600181815481106104c1576104c0610cc8565b5b905f5260205f2090600202016001015f8154809291906104e090610d22565b91905055506001151560025f3373ffffffffffffffffffffffffffffffffffffffff1673ffffffffffffffffffffffffffffffffffffffff1681526020019081526020015f205f9054906101000a905050507e8e3b27e09daa83ef4d239b211c458358c74c8ab4a844aa4ce24f2a4e211eeb6001828154811061056657610565610cc8565b5b905f5260205f2090600202015f016001838154811061058857610587610cc8565b5b905f5260205f209060020201600101546040516105a6929190610dea565b60405180910390a150565b5f81519050919050565b5f82825260208201905092915050565b5f819050602082019050919050565b5f81519050919050565b5f82825260208201905092915050565b8281835e5f83830152505050565b5f601f19601f8301169050919050565b5f61061c826105da565b61062681856105e4565b93506106368185602086016105f4565b61063f81610602565b840191505092915050565b5f819050919050565b61065c8161064a565b82525050565b5f604083015f8301518482035f86015261067c8282610612565b91505060208301516106916020860182610653565b508091505092915050565b5f6106a78383610662565b905092915050565b5f602082019050919050565b5f6106c5826105b1565b6106cf81856105bb565b9350836020820285016106e1856105cb565b805f5b8581101561071c57848403895281516106fd858261069c565b9450610708836106af565b925060208a019950506001810190506106e4565b50829750879550505050505092915050565b5f6020820190508181035f83015261074681846106bb565b905092915050565b5f604051905090565b5f80fd5b5f80fd5b5f80fd5b5f80fd5b7f4e487b71000000000000000000000000000000000000000000000000000000005f52604160045260245ffd5b61079d82610602565b810181811067ffffffffffffffff821117156107bc576107bb610767565b5b80604052505050565b5f6107ce61074e565b90506107da8282610794565b919050565b5f67ffffffffffffffff8211156107f9576107f8610767565b5b61080282610602565b9050602081019050919050565b828183375f83830152505050565b5f61082f61082a846107df565b6107c5565b90508281526020810184848401111561084b5761084a610763565b5b61085684828561080f565b509392505050565b5f82601f8301126108725761087161075f565b5b813561088284826020860161081d565b91505092915050565b5f602082840312156108a05761089f610757565b5b5f82013567ffffffffffffffff8111156108bd576108bc61075b565b5b6108c98482850161085e565b91505092915050565b6108db8161064a565b81146108e5575f80fd5b50565b5f813590506108f6816108d2565b92915050565b5f6020828403121561091157610910610757565b5b5f61091e848285016108e8565b91505092915050565b5f82825260208201905092915050565b5f610941826105da565b61094b8185610927565b935061095b8185602086016105f4565b61096481610602565b840191505092915050565b6109788161064a565b82525050565b5f6040820190508181035f8301526109968185610937565b90506109a5602083018461096f565b9392505050565b5f8115159050919050565b6109c0816109ac565b82525050565b5f6020820190506109d95f8301846109b7565b92915050565b7f4e487b71000000000000000000000000000000000000000000000000000000005f52602260045260245ffd5b5f6002820490506001821680610a2357607f821691505b602082108103610a3657610a356109df565b5b50919050565b5f819050815f5260205f209050919050565b5f6020601f8301049050919050565b5f82821b905092915050565b5f60088302610a987fffffffffffffffffffffffffffffffffffffffffffffffffffffffffffffffff82610a5d565b610aa28683610a5d565b95508019841693508086168417925050509392505050565b5f819050919050565b5f610add610ad8610ad38461064a565b610aba565b61064a565b9050919050565b5f819050919050565b610af683610ac3565b610b0a610b0282610ae4565b848454610a69565b825550505050565b5f90565b610b1e610b12565b610b29818484610aed565b505050565b5b81811015610b4c57610b415f82610b16565b600181019050610b2f565b5050565b601f821115610b9157610b6281610a3c565b610b6b84610a4e565b81016020851015610b7a578190505b610b8e610b8685610a4e565b830182610b2e565b50505b505050565b5f82821c905092915050565b5f610bb15f1984600802610b96565b1980831691505092915050565b5f610bc98383610ba2565b9150826002028217905092915050565b610be2826105da565b67ffffffffffffffff811115610bfb57610bfa610767565b5b610c058254610a0c565b610c10828285610b50565b5f60209050601f831160018114610c41575f8415610c2f578287015190505b610c398582610bbe565b865550610ca0565b601f198416610c4f86610a3c565b5f5b82811015610c7657848901518255600182019150602085019450602081019050610c51565b86831015610c935784890151610c8f601f891682610ba2565b8355505b6001600288020188555050505b505050505050565b5f6020820190508181035f830152610cc08184610937565b905092915050565b7f4e487b71000000000000000000000000000000000000000000000000000000005f52603260045260245ffd5b7f4e487b71000000000000000000000000000000000000000000000000000000005f52601160045260245ffd5b5f610d2c8261064a565b91507fffffffffffffffffffffffffffffffffffffffffffffffffffffffffffffffff8203610d5e57610d5d610cf5565b5b600182019050919050565b5f8154610d7581610a0c565b610d7f8186610927565b9450600182165f8114610d995760018114610daf57610de1565b60ff198316865281151560200286019350610de1565b610db885610a3c565b5f5b83811015610dd957815481890152600182019150602081019050610dba565b808801955050505b50505092915050565b5f6040820190508181035f830152610e028185610d69565b9050610e11602083018461096f565b939250505056fea2646970667358221220f3886fb8ab29eee4889af14efd7b2e2df7be430d9afb65340d370be39efba32164736f6c634300081a0033",
			"opcodes": "PUSH1 0x80 PUSH1 0x40 MSTORE CALLVALUE DUP1 ISZERO PUSH2 0xF JUMPI PUSH0 DUP1 REVERT JUMPDEST POP CALLER PUSH0 PUSH1 0x1 PUSH2 0x100 EXP DUP2 SLOAD DUP2 PUSH20 0xFFFFFFFFFFFFFFFFFFFFFFFFFFFFFFFFFFFFFFFF MUL NOT AND SWAP1 DUP4 PUSH20 0xFFFFFFFFFFFFFFFFFFFFFFFFFFFFFFFFFFFFFFFF AND MUL OR SWAP1 SSTORE POP PUSH1 0x1 PUSH0 DUP1 PUSH2 0x100 EXP DUP2 SLOAD DUP2 PUSH1 0xFF MUL NOT AND SWAP1 DUP4 ISZERO ISZERO MUL OR SWAP1 SSTORE POP PUSH32 0x6D41258E44D7EE79F697248FBCE67E06508F6C2A56396009D98F28C105D43E95 PUSH0 PUSH1 0x1 SWAP1 SLOAD SWAP1 PUSH2 0x100 EXP SWAP1 DIV PUSH20 0xFFFFFFFFFFFFFFFFFFFFFFFFFFFFFFFFFFFFFFFF AND PUSH1 0x40 MLOAD PUSH2 0xB9 SWAP2 SWAP1 PUSH2 0x105 JUMP JUMPDEST PUSH1 0x40 MLOAD DUP1 SWAP2 SUB SWAP1 LOG1 PUSH2 0x11E JUMP JUMPDEST PUSH0 PUSH20 0xFFFFFFFFFFFFFFFFFFFFFFFFFFFFFFFFFFFFFFFF DUP3 AND SWAP1 POP SWAP2 SWAP1 POP JUMP JUMPDEST PUSH0 PUSH2 0xEF DUP3 PUSH2 0xC6 JUMP JUMPDEST SWAP1 POP SWAP2 SWAP1 POP JUMP JUMPDEST PUSH2 0xFF DUP2 PUSH2 0xE5 JUMP JUMPDEST DUP3 MSTORE POP POP JUMP JUMPDEST PUSH0 PUSH1 0x20 DUP3 ADD SWAP1 POP PUSH2 0x118 PUSH0 DUP4 ADD DUP5 PUSH2 0xF6 JUMP JUMPDEST SWAP3 SWAP2 POP POP JUMP JUMPDEST PUSH2 0xE4E DUP1 PUSH2 0x12B PUSH0 CODECOPY PUSH0 RETURN INVALID PUSH1 0x80 PUSH1 0x40 MSTORE CALLVALUE DUP1 ISZERO PUSH2 0xF JUMPI PUSH0 DUP1 REVERT JUMPDEST POP PUSH1 0x4 CALLDATASIZE LT PUSH2 0x55 JUMPI PUSH0 CALLDATALOAD PUSH1 0xE0 SHR DUP1 PUSH4 0x2AEBCBB6 EQ PUSH2 0x59 JUMPI DUP1 PUSH4 0x2E6997FE EQ PUSH2 0x63 JUMPI DUP1 PUSH4 0x462E91EC EQ PUSH2 0x81 JUMPI DUP1 PUSH4 0xB13C744B EQ PUSH2 0x9D JUMPI DUP1 PUSH4 0xEC859DB5 EQ PUSH2 0xCE JUMPI JUMPDEST PUSH0 DUP1 REVERT JUMPDEST PUSH2 0x61 PUSH2 0xEA JUMP JUMPDEST STOP JUMPDEST PUSH2 0x6B PUSH2 0x163 JUMP JUMPDEST PUSH1 0x40 MLOAD PUSH2 0x78 SWAP2 SWAP1 PUSH2 0x72E JUMP JUMPDEST PUSH1 0x40 MLOAD DUP1 SWAP2 SUB SWAP1 RETURN JUMPDEST PUSH2 0x9B PUSH1 0x4 DUP1 CALLDATASIZE SUB DUP2 ADD SWAP1 PUSH2 0x96 SWAP2 SWAP1 PUSH2 0x88B JUMP JUMPDEST PUSH2 0x258 JUMP JUMPDEST STOP JUMPDEST PUSH2 0xB7 PUSH1 0x4 DUP1 CALLDATASIZE SUB DUP2 ADD SWAP1 PUSH2 0xB2 SWAP2 SWAP1 PUSH2 0x8FC JUMP JUMPDEST PUSH2 0x374 JUMP JUMPDEST PUSH1 0x40 MLOAD PUSH2 0xC5 SWAP3 SWAP2 SWAP1 PUSH2 0x97E JUMP JUMPDEST PUSH1 0x40 MLOAD DUP1 SWAP2 SUB SWAP1 RETURN JUMPDEST PUSH2 0xE8 PUSH1 0x4 DUP1 CALLDATASIZE SUB DUP2 ADD SWAP1 PUSH2 0xE3 SWAP2 SWAP1 PUSH2 0x8FC JUMP JUMPDEST PUSH2 0x429 JUMP JUMPDEST STOP JUMPDEST PUSH1 0x1 ISZERO ISZERO PUSH0 DUP1 SLOAD SWAP1 PUSH2 0x100 EXP SWAP1 DIV PUSH1 0xFF AND ISZERO ISZERO EQ PUSH2 0x106 JUMPI PUSH0 DUP1 REVERT JUMPDEST PUSH0 DUP1 PUSH0 PUSH2 0x100 EXP DUP2 SLOAD DUP2 PUSH1 0xFF MUL NOT AND SWAP1 DUP4 ISZERO ISZERO MUL OR SWAP1 SSTORE POP PUSH32 0x52A1F86DF561BCDC915E07AAFB957E1253D4464FC7FAE3D6700815E71F063FFC PUSH0 DUP1 SLOAD SWAP1 PUSH2 0x100 EXP SWAP1 DIV PUSH1 0xFF AND PUSH1 0x40 MLOAD PUSH2 0x159 SWAP2 SWAP1 PUSH2 0x9C6 JUMP JUMPDEST PUSH1 0x40 MLOAD DUP1 SWAP2 SUB SWAP1 LOG1 JUMP JUMPDEST PUSH1 0x60 PUSH1 0x1 DUP1 SLOAD DUP1 PUSH1 0x20 MUL PUSH1 0x20 ADD PUSH1 0x40 MLOAD SWAP1 DUP2 ADD PUSH1 0x40 MSTORE DUP1 SWAP3 SWAP2 SWAP1 DUP2 DUP2 MSTORE PUSH1 0x20 ADD PUSH0 SWAP1 JUMPDEST DUP3 DUP3 LT ISZERO PUSH2 0x24F JUMPI DUP4 DUP3 SWAP1 PUSH0 MSTORE PUSH1 0x20 PUSH0 KECCAK256 SWAP1 PUSH1 0x2 MUL ADD PUSH1 0x40 MLOAD DUP1 PUSH1 0x40 ADD PUSH1 0x40 MSTORE SWAP1 DUP2 PUSH0 DUP3 ADD DUP1 SLOAD PUSH2 0x1B6 SWAP1 PUSH2 0xA0C JUMP JUMPDEST DUP1 PUSH1 0x1F ADD PUSH1 0x20 DUP1 SWAP2 DIV MUL PUSH1 0x20 ADD PUSH1 0x40 MLOAD SWAP1 DUP2 ADD PUSH1 0x40 MSTORE DUP1 SWAP3 SWAP2 SWAP1 DUP2 DUP2 MSTORE PUSH1 0x20 ADD DUP3 DUP1 SLOAD PUSH2 0x1E2 SWAP1 PUSH2 0xA0C JUMP JUMPDEST DUP1 ISZERO PUSH2 0x22D JUMPI DUP1 PUSH1 0x1F LT PUSH2 0x204 JUMPI PUSH2 0x100 DUP1 DUP4 SLOAD DIV MUL DUP4 MSTORE SWAP2 PUSH1 0x20 ADD SWAP2 PUSH2 0x22D JUMP JUMPDEST DUP3 ADD SWAP2 SWAP1 PUSH0 MSTORE PUSH1 0x20 PUSH0 KECCAK256 SWAP1 JUMPDEST DUP2 SLOAD DUP2 MSTORE SWAP1 PUSH1 0x1 ADD SWAP1 PUSH1 0x20 ADD DUP1 DUP4 GT PUSH2 0x210 JUMPI DUP3 SWAP1 SUB PUSH1 0x1F AND DUP3 ADD SWAP2 JUMPDEST POP POP POP POP POP DUP2 MSTORE PUSH1 0x20 ADD PUSH1 0x1 DUP3 ADD SLOAD DUP2 MSTORE POP POP DUP2 MSTORE PUSH1 0x20 ADD SWAP1 PUSH1 0x1 ADD SWAP1 PUSH2 0x186 JUMP JUMPDEST POP POP POP POP SWAP1 POP SWAP1 JUMP JUMPDEST PUSH0 PUSH1 0x1 SWAP1 SLOAD SWAP1 PUSH2 0x100 EXP SWAP1 DIV PUSH20 0xFFFFFFFFFFFFFFFFFFFFFFFFFFFFFFFFFFFFFFFF AND PUSH20 0xFFFFFFFFFFFFFFFFFFFFFFFFFFFFFFFFFFFFFFFF AND CALLER PUSH20 0xFFFFFFFFFFFFFFFFFFFFFFFFFFFFFFFFFFFFFFFF AND EQ PUSH2 0x2B0 JUMPI PUSH0 DUP1 REVERT JUMPDEST PUSH1 0x1 ISZERO ISZERO PUSH0 DUP1 SLOAD SWAP1 PUSH2 0x100 EXP SWAP1 DIV PUSH1 0xFF AND ISZERO ISZERO EQ PUSH2 0x2CC JUMPI PUSH0 DUP1 REVERT JUMPDEST PUSH1 0x5 PUSH1 0x1 DUP1 SLOAD SWAP1 POP LT PUSH2 0x2DD JUMPI PUSH0 DUP1 REVERT JUMPDEST PUSH1 0x1 PUSH1 0x40 MLOAD DUP1 PUSH1 0x40 ADD PUSH1 0x40 MSTORE DUP1 DUP4 DUP2 MSTORE PUSH1 0x20 ADD PUSH0 DUP2 MSTORE POP SWAP1 DUP1 PUSH1 0x1 DUP2 SLOAD ADD DUP1 DUP3 SSTORE DUP1 SWAP2 POP POP PUSH1 0x1 SWAP1 SUB SWAP1 PUSH0 MSTORE PUSH1 0x20 PUSH0 KECCAK256 SWAP1 PUSH1 0x2 MUL ADD PUSH0 SWAP1 SWAP2 SWAP1 SWAP2 SWAP1 SWAP2 POP PUSH0 DUP3 ADD MLOAD DUP2 PUSH0 ADD SWAP1 DUP2 PUSH2 0x32D SWAP2 SWAP1 PUSH2 0xBD9 JUMP JUMPDEST POP PUSH1 0x20 DUP3 ADD MLOAD DUP2 PUSH1 0x1 ADD SSTORE POP POP PUSH32 0x7E54B8E26D30B775858F75176D98873186BB2078A39AEC1F769F4DE0AEB43B1A DUP2 PUSH1 0x40 MLOAD PUSH2 0x369 SWAP2 SWAP1 PUSH2 0xCA8 JUMP JUMPDEST PUSH1 0x40 MLOAD DUP1 SWAP2 SUB SWAP1 LOG1 POP JUMP JUMPDEST PUSH1 0x1 DUP2 DUP2 SLOAD DUP2 LT PUSH2 0x383 JUMPI PUSH0 DUP1 REVERT JUMPDEST SWAP1 PUSH0 MSTORE PUSH1 0x20 PUSH0 KECCAK256 SWAP1 PUSH1 0x2 MUL ADD PUSH0 SWAP2 POP SWAP1 POP DUP1 PUSH0 ADD DUP1 SLOAD PUSH2 0x3A2 SWAP1 PUSH2 0xA0C JUMP JUMPDEST DUP1 PUSH1 0x1F ADD PUSH1 0x20 DUP1 SWAP2 DIV MUL PUSH1 0x20 ADD PUSH1 0x40 MLOAD SWAP1 DUP2 ADD PUSH1 0x40 MSTORE DUP1 SWAP3 SWAP2 SWAP1 DUP2 DUP2 MSTORE PUSH1 0x20 ADD DUP3 DUP1 SLOAD PUSH2 0x3CE SWAP1 PUSH2 0xA0C JUMP JUMPDEST DUP1 ISZERO PUSH2 0x419 JUMPI DUP1 PUSH1 0x1F LT PUSH2 0x3F0 JUMPI PUSH2 0x100 DUP1 DUP4 SLOAD DIV MUL DUP4 MSTORE SWAP2 PUSH1 0x20 ADD SWAP2 PUSH2 0x419 JUMP JUMPDEST DUP3 ADD SWAP2 SWAP1 PUSH0 MSTORE PUSH1 0x20 PUSH0 KECCAK256 SWAP1 JUMPDEST DUP2 SLOAD DUP2 MSTORE SWAP1 PUSH1 0x1 ADD SWAP1 PUSH1 0x20 ADD DUP1 DUP4 GT PUSH2 0x3FC JUMPI DUP3 SWAP1 SUB PUSH1 0x1F AND DUP3 ADD SWAP2 JUMPDEST POP POP POP POP POP SWAP1 DUP1 PUSH1 0x1 ADD SLOAD SWAP1 POP DUP3 JUMP JUMPDEST PUSH1 0x1 ISZERO ISZERO PUSH0 DUP1 SLOAD SWAP1 PUSH2 0x100 EXP SWAP1 DIV PUSH1 0xFF AND ISZERO ISZERO EQ PUSH2 0x445 JUMPI PUSH0 DUP1 REVERT JUMPDEST PUSH1 0x1 DUP1 SLOAD SWAP1 POP DUP2 LT PUSH2 0x455 JUMPI PUSH0 DUP1 REVERT JUMPDEST PUSH0 ISZERO ISZERO PUSH1 0x2 PUSH0 CALLER PUSH20 0xFFFFFFFFFFFFFFFFFFFFFFFFFFFFFFFFFFFFFFFF AND PUSH20 0xFFFFFFFFFFFFFFFFFFFFFFFFFFFFFFFFFFFFFFFF AND DUP2 MSTORE PUSH1 0x20 ADD SWAP1 DUP2 MSTORE PUSH1 0x20 ADD PUSH0 KECCAK256 PUSH0 SWAP1 SLOAD SWAP1 PUSH2 0x100 EXP SWAP1 DIV PUSH1 0xFF AND ISZERO ISZERO EQ PUSH2 0x4AD JUMPI PUSH0 DUP1 REVERT JUMPDEST PUSH1 0x1 DUP2 DUP2 SLOAD DUP2 LT PUSH2 0x4C1 JUMPI PUSH2 0x4C0 PUSH2 0xCC8 JUMP JUMPDEST JUMPDEST SWAP1 PUSH0 MSTORE PUSH1 0x20 PUSH0 KECCAK256 SWAP1 PUSH1 0x2 MUL ADD PUSH1 0x1 ADD PUSH0 DUP2 SLOAD DUP1 SWAP3 SWAP2 SWAP1 PUSH2 0x4E0 SWAP1 PUSH2 0xD22 JUMP JUMPDEST SWAP2 SWAP1 POP SSTORE POP PUSH1 0x1 ISZERO ISZERO PUSH1 0x2 PUSH0 CALLER PUSH20 0xFFFFFFFFFFFFFFFFFFFFFFFFFFFFFFFFFFFFFFFF AND PUSH20 0xFFFFFFFFFFFFFFFFFFFFFFFFFFFFFFFFFFFFFFFF AND DUP2 MSTORE PUSH1 0x20 ADD SWAP1 DUP2 MSTORE PUSH1 0x20 ADD PUSH0 KECCAK256 PUSH0 SWAP1 SLOAD SWAP1 PUSH2 0x100 EXP SWAP1 POP POP POP PUSH31 0x8E3B27E09DAA83EF4D239B211C458358C74C8AB4A844AA4CE24F2A4E211EEB PUSH1 0x1 DUP3 DUP2 SLOAD DUP2 LT PUSH2 0x566 JUMPI PUSH2 0x565 PUSH2 0xCC8 JUMP JUMPDEST JUMPDEST SWAP1 PUSH0 MSTORE PUSH1 0x20 PUSH0 KECCAK256 SWAP1 PUSH1 0x2 MUL ADD PUSH0 ADD PUSH1 0x1 DUP4 DUP2 SLOAD DUP2 LT PUSH2 0x588 JUMPI PUSH2 0x587 PUSH2 0xCC8 JUMP JUMPDEST JUMPDEST SWAP1 PUSH0 MSTORE PUSH1 0x20 PUSH0 KECCAK256 SWAP1 PUSH1 0x2 MUL ADD PUSH1 0x1 ADD SLOAD PUSH1 0x40 MLOAD PUSH2 0x5A6 SWAP3 SWAP2 SWAP1 PUSH2 0xDEA JUMP JUMPDEST PUSH1 0x40 MLOAD DUP1 SWAP2 SUB SWAP1 LOG1 POP JUMP JUMPDEST PUSH0 DUP2 MLOAD SWAP1 POP SWAP2 SWAP1 POP JUMP JUMPDEST PUSH0 DUP3 DUP3 MSTORE PUSH1 0x20 DUP3 ADD SWAP1 POP SWAP3 SWAP2 POP POP JUMP JUMPDEST PUSH0 DUP2 SWAP1 POP PUSH1 0x20 DUP3 ADD SWAP1 POP SWAP2 SWAP1 POP JUMP JUMPDEST PUSH0 DUP2 MLOAD SWAP1 POP SWAP2 SWAP1 POP JUMP JUMPDEST PUSH0 DUP3 DUP3 MSTORE PUSH1 0x20 DUP3 ADD SWAP1 POP SWAP3 SWAP2 POP POP JUMP JUMPDEST DUP3 DUP2 DUP4 MCOPY PUSH0 DUP4 DUP4 ADD MSTORE POP POP POP JUMP JUMPDEST PUSH0 PUSH1 0x1F NOT PUSH1 0x1F DUP4 ADD AND SWAP1 POP SWAP2 SWAP1 POP JUMP JUMPDEST PUSH0 PUSH2 0x61C DUP3 PUSH2 0x5DA JUMP JUMPDEST PUSH2 0x626 DUP2 DUP6 PUSH2 0x5E4 JUMP JUMPDEST SWAP4 POP PUSH2 0x636 DUP2 DUP6 PUSH1 0x20 DUP7 ADD PUSH2 0x5F4 JUMP JUMPDEST PUSH2 0x63F DUP2 PUSH2 0x602 JUMP JUMPDEST DUP5 ADD SWAP2 POP POP SWAP3 SWAP2 POP POP JUMP JUMPDEST PUSH0 DUP2 SWAP1 POP SWAP2 SWAP1 POP JUMP JUMPDEST PUSH2 0x65C DUP2 PUSH2 0x64A JUMP JUMPDEST DUP3 MSTORE POP POP JUMP JUMPDEST PUSH0 PUSH1 0x40 DUP4 ADD PUSH0 DUP4 ADD MLOAD DUP5 DUP3 SUB PUSH0 DUP7 ADD MSTORE PUSH2 0x67C DUP3 DUP3 PUSH2 0x612 JUMP JUMPDEST SWAP2 POP POP PUSH1 0x20 DUP4 ADD MLOAD PUSH2 0x691 PUSH1 0x20 DUP7 ADD DUP3 PUSH2 0x653 JUMP JUMPDEST POP DUP1 SWAP2 POP POP SWAP3 SWAP2 POP POP JUMP JUMPDEST PUSH0 PUSH2 0x6A7 DUP4 DUP4 PUSH2 0x662 JUMP JUMPDEST SWAP1 POP SWAP3 SWAP2 POP POP JUMP JUMPDEST PUSH0 PUSH1 0x20 DUP3 ADD SWAP1 POP SWAP2 SWAP1 POP JUMP JUMPDEST PUSH0 PUSH2 0x6C5 DUP3 PUSH2 0x5B1 JUMP JUMPDEST PUSH2 0x6CF DUP2 DUP6 PUSH2 0x5BB JUMP JUMPDEST SWAP4 POP DUP4 PUSH1 0x20 DUP3 MUL DUP6 ADD PUSH2 0x6E1 DUP6 PUSH2 0x5CB JUMP JUMPDEST DUP1 PUSH0 JUMPDEST DUP6 DUP2 LT ISZERO PUSH2 0x71C JUMPI DUP5 DUP5 SUB DUP10 MSTORE DUP2 MLOAD PUSH2 0x6FD DUP6 DUP3 PUSH2 0x69C JUMP JUMPDEST SWAP5 POP PUSH2 0x708 DUP4 PUSH2 0x6AF JUMP JUMPDEST SWAP3 POP PUSH1 0x20 DUP11 ADD SWAP10 POP POP PUSH1 0x1 DUP2 ADD SWAP1 POP PUSH2 0x6E4 JUMP JUMPDEST POP DUP3 SWAP8 POP DUP8 SWAP6 POP POP POP POP POP POP SWAP3 SWAP2 POP POP JUMP JUMPDEST PUSH0 PUSH1 0x20 DUP3 ADD SWAP1 POP DUP2 DUP2 SUB PUSH0 DUP4 ADD MSTORE PUSH2 0x746 DUP2 DUP5 PUSH2 0x6BB JUMP JUMPDEST SWAP1 POP SWAP3 SWAP2 POP POP JUMP JUMPDEST PUSH0 PUSH1 0x40 MLOAD SWAP1 POP SWAP1 JUMP JUMPDEST PUSH0 DUP1 REVERT JUMPDEST PUSH0 DUP1 REVERT JUMPDEST PUSH0 DUP1 REVERT JUMPDEST PUSH0 DUP1 REVERT JUMPDEST PUSH32 0x4E487B7100000000000000000000000000000000000000000000000000000000 PUSH0 MSTORE PUSH1 0x41 PUSH1 0x4 MSTORE PUSH1 0x24 PUSH0 REVERT JUMPDEST PUSH2 0x79D DUP3 PUSH2 0x602 JUMP JUMPDEST DUP2 ADD DUP2 DUP2 LT PUSH8 0xFFFFFFFFFFFFFFFF DUP3 GT OR ISZERO PUSH2 0x7BC JUMPI PUSH2 0x7BB PUSH2 0x767 JUMP JUMPDEST JUMPDEST DUP1 PUSH1 0x40 MSTORE POP POP POP JUMP JUMPDEST PUSH0 PUSH2 0x7CE PUSH2 0x74E JUMP JUMPDEST SWAP1 POP PUSH2 0x7DA DUP3 DUP3 PUSH2 0x794 JUMP JUMPDEST SWAP2 SWAP1 POP JUMP JUMPDEST PUSH0 PUSH8 0xFFFFFFFFFFFFFFFF DUP3 GT ISZERO PUSH2 0x7F9 JUMPI PUSH2 0x7F8 PUSH2 0x767 JUMP JUMPDEST JUMPDEST PUSH2 0x802 DUP3 PUSH2 0x602 JUMP JUMPDEST SWAP1 POP PUSH1 0x20 DUP2 ADD SWAP1 POP SWAP2 SWAP1 POP JUMP JUMPDEST DUP3 DUP2 DUP4 CALLDATACOPY PUSH0 DUP4 DUP4 ADD MSTORE POP POP POP JUMP JUMPDEST PUSH0 PUSH2 0x82F PUSH2 0x82A DUP5 PUSH2 0x7DF JUMP JUMPDEST PUSH2 0x7C5 JUMP JUMPDEST SWAP1 POP DUP3 DUP2 MSTORE PUSH1 0x20 DUP2 ADD DUP5 DUP5 DUP5 ADD GT ISZERO PUSH2 0x84B JUMPI PUSH2 0x84A PUSH2 0x763 JUMP JUMPDEST JUMPDEST PUSH2 0x856 DUP5 DUP3 DUP6 PUSH2 0x80F JUMP JUMPDEST POP SWAP4 SWAP3 POP POP POP JUMP JUMPDEST PUSH0 DUP3 PUSH1 0x1F DUP4 ADD SLT PUSH2 0x872 JUMPI PUSH2 0x871 PUSH2 0x75F JUMP JUMPDEST JUMPDEST DUP2 CALLDATALOAD PUSH2 0x882 DUP5 DUP3 PUSH1 0x20 DUP7 ADD PUSH2 0x81D JUMP JUMPDEST SWAP2 POP POP SWAP3 SWAP2 POP POP JUMP JUMPDEST PUSH0 PUSH1 0x20 DUP3 DUP5 SUB SLT ISZERO PUSH2 0x8A0 JUMPI PUSH2 0x89F PUSH2 0x757 JUMP JUMPDEST JUMPDEST PUSH0 DUP3 ADD CALLDATALOAD PUSH8 0xFFFFFFFFFFFFFFFF DUP2 GT ISZERO PUSH2 0x8BD JUMPI PUSH2 0x8BC PUSH2 0x75B JUMP JUMPDEST JUMPDEST PUSH2 0x8C9 DUP5 DUP3 DUP6 ADD PUSH2 0x85E JUMP JUMPDEST SWAP2 POP POP SWAP3 SWAP2 POP POP JUMP JUMPDEST PUSH2 0x8DB DUP2 PUSH2 0x64A JUMP JUMPDEST DUP2 EQ PUSH2 0x8E5 JUMPI PUSH0 DUP1 REVERT JUMPDEST POP JUMP JUMPDEST PUSH0 DUP2 CALLDATALOAD SWAP1 POP PUSH2 0x8F6 DUP2 PUSH2 0x8D2 JUMP JUMPDEST SWAP3 SWAP2 POP POP JUMP JUMPDEST PUSH0 PUSH1 0x20 DUP3 DUP5 SUB SLT ISZERO PUSH2 0x911 JUMPI PUSH2 0x910 PUSH2 0x757 JUMP JUMPDEST JUMPDEST PUSH0 PUSH2 0x91E DUP5 DUP3 DUP6 ADD PUSH2 0x8E8 JUMP JUMPDEST SWAP2 POP POP SWAP3 SWAP2 POP POP JUMP JUMPDEST PUSH0 DUP3 DUP3 MSTORE PUSH1 0x20 DUP3 ADD SWAP1 POP SWAP3 SWAP2 POP POP JUMP JUMPDEST PUSH0 PUSH2 0x941 DUP3 PUSH2 0x5DA JUMP JUMPDEST PUSH2 0x94B DUP2 DUP6 PUSH2 0x927 JUMP JUMPDEST SWAP4 POP PUSH2 0x95B DUP2 DUP6 PUSH1 0x20 DUP7 ADD PUSH2 0x5F4 JUMP JUMPDEST PUSH2 0x964 DUP2 PUSH2 0x602 JUMP JUMPDEST DUP5 ADD SWAP2 POP POP SWAP3 SWAP2 POP POP JUMP JUMPDEST PUSH2 0x978 DUP2 PUSH2 0x64A JUMP JUMPDEST DUP3 MSTORE POP POP JUMP JUMPDEST PUSH0 PUSH1 0x40 DUP3 ADD SWAP1 POP DUP2 DUP2 SUB PUSH0 DUP4 ADD MSTORE PUSH2 0x996 DUP2 DUP6 PUSH2 0x937 JUMP JUMPDEST SWAP1 POP PUSH2 0x9A5 PUSH1 0x20 DUP4 ADD DUP5 PUSH2 0x96F JUMP JUMPDEST SWAP4 SWAP3 POP POP POP JUMP JUMPDEST PUSH0 DUP2 ISZERO ISZERO SWAP1 POP SWAP2 SWAP1 POP JUMP JUMPDEST PUSH2 0x9C0 DUP2 PUSH2 0x9AC JUMP JUMPDEST DUP3 MSTORE POP POP JUMP JUMPDEST PUSH0 PUSH1 0x20 DUP3 ADD SWAP1 POP PUSH2 0x9D9 PUSH0 DUP4 ADD DUP5 PUSH2 0x9B7 JUMP JUMPDEST SWAP3 SWAP2 POP POP JUMP JUMPDEST PUSH32 0x4E487B7100000000000000000000000000000000000000000000000000000000 PUSH0 MSTORE PUSH1 0x22 PUSH1 0x4 MSTORE PUSH1 0x24 PUSH0 REVERT JUMPDEST PUSH0 PUSH1 0x2 DUP3 DIV SWAP1 POP PUSH1 0x1 DUP3 AND DUP1 PUSH2 0xA23 JUMPI PUSH1 0x7F DUP3 AND SWAP2 POP JUMPDEST PUSH1 0x20 DUP3 LT DUP2 SUB PUSH2 0xA36 JUMPI PUSH2 0xA35 PUSH2 0x9DF JUMP JUMPDEST JUMPDEST POP SWAP2 SWAP1 POP JUMP JUMPDEST PUSH0 DUP2 SWAP1 POP DUP2 PUSH0 MSTORE PUSH1 0x20 PUSH0 KECCAK256 SWAP1 POP SWAP2 SWAP1 POP JUMP JUMPDEST PUSH0 PUSH1 0x20 PUSH1 0x1F DUP4 ADD DIV SWAP1 POP SWAP2 SWAP1 POP JUMP JUMPDEST PUSH0 DUP3 DUP3 SHL SWAP1 POP SWAP3 SWAP2 POP POP JUMP JUMPDEST PUSH0 PUSH1 0x8 DUP4 MUL PUSH2 0xA98 PUSH32 0xFFFFFFFFFFFFFFFFFFFFFFFFFFFFFFFFFFFFFFFFFFFFFFFFFFFFFFFFFFFFFFFF DUP3 PUSH2 0xA5D JUMP JUMPDEST PUSH2 0xAA2 DUP7 DUP4 PUSH2 0xA5D JUMP JUMPDEST SWAP6 POP DUP1 NOT DUP5 AND SWAP4 POP DUP1 DUP7 AND DUP5 OR SWAP3 POP POP POP SWAP4 SWAP3 POP POP POP JUMP JUMPDEST PUSH0 DUP2 SWAP1 POP SWAP2 SWAP1 POP JUMP JUMPDEST PUSH0 PUSH2 0xADD PUSH2 0xAD8 PUSH2 0xAD3 DUP5 PUSH2 0x64A JUMP JUMPDEST PUSH2 0xABA JUMP JUMPDEST PUSH2 0x64A JUMP JUMPDEST SWAP1 POP SWAP2 SWAP1 POP JUMP JUMPDEST PUSH0 DUP2 SWAP1 POP SWAP2 SWAP1 POP JUMP JUMPDEST PUSH2 0xAF6 DUP4 PUSH2 0xAC3 JUMP JUMPDEST PUSH2 0xB0A PUSH2 0xB02 DUP3 PUSH2 0xAE4 JUMP JUMPDEST DUP5 DUP5 SLOAD PUSH2 0xA69 JUMP JUMPDEST DUP3 SSTORE POP POP POP POP JUMP JUMPDEST PUSH0 SWAP1 JUMP JUMPDEST PUSH2 0xB1E PUSH2 0xB12 JUMP JUMPDEST PUSH2 0xB29 DUP2 DUP5 DUP5 PUSH2 0xAED JUMP JUMPDEST POP POP POP JUMP JUMPDEST JUMPDEST DUP2 DUP2 LT ISZERO PUSH2 0xB4C JUMPI PUSH2 0xB41 PUSH0 DUP3 PUSH2 0xB16 JUMP JUMPDEST PUSH1 0x1 DUP2 ADD SWAP1 POP PUSH2 0xB2F JUMP JUMPDEST POP POP JUMP JUMPDEST PUSH1 0x1F DUP3 GT ISZERO PUSH2 0xB91 JUMPI PUSH2 0xB62 DUP2 PUSH2 0xA3C JUMP JUMPDEST PUSH2 0xB6B DUP5 PUSH2 0xA4E JUMP JUMPDEST DUP2 ADD PUSH1 0x20 DUP6 LT ISZERO PUSH2 0xB7A JUMPI DUP2 SWAP1 POP JUMPDEST PUSH2 0xB8E PUSH2 0xB86 DUP6 PUSH2 0xA4E JUMP JUMPDEST DUP4 ADD DUP3 PUSH2 0xB2E JUMP JUMPDEST POP POP JUMPDEST POP POP POP JUMP JUMPDEST PUSH0 DUP3 DUP3 SHR SWAP1 POP SWAP3 SWAP2 POP POP JUMP JUMPDEST PUSH0 PUSH2 0xBB1 PUSH0 NOT DUP5 PUSH1 0x8 MUL PUSH2 0xB96 JUMP JUMPDEST NOT DUP1 DUP4 AND SWAP2 POP POP SWAP3 SWAP2 POP POP JUMP JUMPDEST PUSH0 PUSH2 0xBC9 DUP4 DUP4 PUSH2 0xBA2 JUMP JUMPDEST SWAP2 POP DUP3 PUSH1 0x2 MUL DUP3 OR SWAP1 POP SWAP3 SWAP2 POP POP JUMP JUMPDEST PUSH2 0xBE2 DUP3 PUSH2 0x5DA JUMP JUMPDEST PUSH8 0xFFFFFFFFFFFFFFFF DUP2 GT ISZERO PUSH2 0xBFB JUMPI PUSH2 0xBFA PUSH2 0x767 JUMP JUMPDEST JUMPDEST PUSH2 0xC05 DUP3 SLOAD PUSH2 0xA0C JUMP JUMPDEST PUSH2 0xC10 DUP3 DUP3 DUP6 PUSH2 0xB50 JUMP JUMPDEST PUSH0 PUSH1 0x20 SWAP1 POP PUSH1 0x1F DUP4 GT PUSH1 0x1 DUP2 EQ PUSH2 0xC41 JUMPI PUSH0 DUP5 ISZERO PUSH2 0xC2F JUMPI DUP3 DUP8 ADD MLOAD SWAP1 POP JUMPDEST PUSH2 0xC39 DUP6 DUP3 PUSH2 0xBBE JUMP JUMPDEST DUP7 SSTORE POP PUSH2 0xCA0 JUMP JUMPDEST PUSH1 0x1F NOT DUP5 AND PUSH2 0xC4F DUP7 PUSH2 0xA3C JUMP JUMPDEST PUSH0 JUMPDEST DUP3 DUP2 LT ISZERO PUSH2 0xC76 JUMPI DUP5 DUP10 ADD MLOAD DUP3 SSTORE PUSH1 0x1 DUP3 ADD SWAP2 POP PUSH1 0x20 DUP6 ADD SWAP5 POP PUSH1 0x20 DUP2 ADD SWAP1 POP PUSH2 0xC51 JUMP JUMPDEST DUP7 DUP4 LT ISZERO PUSH2 0xC93 JUMPI DUP5 DUP10 ADD MLOAD PUSH2 0xC8F PUSH1 0x1F DUP10 AND DUP3 PUSH2 0xBA2 JUMP JUMPDEST DUP4 SSTORE POP JUMPDEST PUSH1 0x1 PUSH1 0x2 DUP9 MUL ADD DUP9 SSTORE POP POP POP JUMPDEST POP POP POP POP POP POP JUMP JUMPDEST PUSH0 PUSH1 0x20 DUP3 ADD SWAP1 POP DUP2 DUP2 SUB PUSH0 DUP4 ADD MSTORE PUSH2 0xCC0 DUP2 DUP5 PUSH2 0x937 JUMP JUMPDEST SWAP1 POP SWAP3 SWAP2 POP POP JUMP JUMPDEST PUSH32 0x4E487B7100000000000000000000000000000000000000000000000000000000 PUSH0 MSTORE PUSH1 0x32 PUSH1 0x4 MSTORE PUSH1 0x24 PUSH0 REVERT JUMPDEST PUSH32 0x4E487B7100000000000000000000000000000000000000000000000000000000 PUSH0 MSTORE PUSH1 0x11 PUSH1 0x4 MSTORE PUSH1 0x24 PUSH0 REVERT JUMPDEST PUSH0 PUSH2 0xD2C DUP3 PUSH2 0x64A JUMP JUMPDEST SWAP2 POP PUSH32 0xFFFFFFFFFFFFFFFFFFFFFFFFFFFFFFFFFFFFFFFFFFFFFFFFFFFFFFFFFFFFFFFF DUP3 SUB PUSH2 0xD5E JUMPI PUSH2 0xD5D PUSH2 0xCF5 JUMP JUMPDEST JUMPDEST PUSH1 0x1 DUP3 ADD SWAP1 POP SWAP2 SWAP1 POP JUMP JUMPDEST PUSH0 DUP2 SLOAD PUSH2 0xD75 DUP2 PUSH2 0xA0C JUMP JUMPDEST PUSH2 0xD7F DUP2 DUP7 PUSH2 0x927 JUMP JUMPDEST SWAP5 POP PUSH1 0x1 DUP3 AND PUSH0 DUP2 EQ PUSH2 0xD99 JUMPI PUSH1 0x1 DUP2 EQ PUSH2 0xDAF JUMPI PUSH2 0xDE1 JUMP JUMPDEST PUSH1 0xFF NOT DUP4 AND DUP7 MSTORE DUP2 ISZERO ISZERO PUSH1 0x20 MUL DUP7 ADD SWAP4 POP PUSH2 0xDE1 JUMP JUMPDEST PUSH2 0xDB8 DUP6 PUSH2 0xA3C JUMP JUMPDEST PUSH0 JUMPDEST DUP4 DUP2 LT ISZERO PUSH2 0xDD9 JUMPI DUP2 SLOAD DUP2 DUP10 ADD MSTORE PUSH1 0x1 DUP3 ADD SWAP2 POP PUSH1 0x20 DUP2 ADD SWAP1 POP PUSH2 0xDBA JUMP JUMPDEST DUP1 DUP9 ADD SWAP6 POP POP POP JUMPDEST POP POP POP SWAP3 SWAP2 POP POP JUMP JUMPDEST PUSH0 PUSH1 0x40 DUP3 ADD SWAP1 POP DUP2 DUP2 SUB PUSH0 DUP4 ADD MSTORE PUSH2 0xE02 DUP2 DUP6 PUSH2 0xD69 JUMP JUMPDEST SWAP1 POP PUSH2 0xE11 PUSH1 0x20 DUP4 ADD DUP5 PUSH2 0x96F JUMP JUMPDEST SWAP4 SWAP3 POP POP POP JUMP INVALID LOG2 PUSH5 0x6970667358 0x22 SLT KECCAK256 RETURN DUP9 PUSH16 0xB8AB29EEE4889AF14EFD7B2E2DF7BE43 0xD SWAP11 0xFB PUSH6 0x340D370BE39E 0xFB LOG3 0x21 PUSH5 0x736F6C6343 STOP ADDMOD BYTE STOP CALLER "
		},
		"gasEstimates": {
			"creation": {
				"codeDepositCost": "732400",
				"executionCost": "52772",
				"totalCost": "785172"
			},
			"external": {
				"addCandidate(string)": "infinite",
				"candidateList(uint256)": "infinite",
				"finishVote()": "29879",
				"getAllCandidates()": "infinite",
				"upVote(uint256)": "infinite"
			}
		},
		"methodIdentifiers": {
			"addCandidate(string)": "462e91ec",
			"candidateList(uint256)": "b13c744b",
			"finishVote()": "2aebcbb6",
			"getAllCandidates()": "2e6997fe",
			"upVote(uint256)": "ec859db5"
		}
	},
	"abi": [
		{
			"inputs": [],
			"stateMutability": "nonpayable",
			"type": "constructor"
		},
		{
			"anonymous": false,
			"inputs": [
				{
					"indexed": false,
					"internalType": "string",
					"name": "name",
					"type": "string"
				}
			],
			"name": "AddCandidate",
			"type": "event"
		},
		{
			"anonymous": false,
			"inputs": [
				{
					"indexed": false,
					"internalType": "bool",
					"name": "live",
					"type": "bool"
				}
			],
			"name": "FinishVote",
			"type": "event"
		},
		{
			"anonymous": false,
			"inputs": [
				{
					"indexed": false,
					"internalType": "string",
					"name": "candidate",
					"type": "string"
				},
				{
					"indexed": false,
					"internalType": "uint256",
					"name": "upVote",
					"type": "uint256"
				}
			],
			"name": "UpVote",
			"type": "event"
		},
		{
			"anonymous": false,
			"inputs": [
				{
					"indexed": false,
					"internalType": "address",
					"name": "owner",
					"type": "address"
				}
			],
			"name": "Voting",
			"type": "event"
		},
		{
			"inputs": [
				{
					"internalType": "string",
					"name": "_name",
					"type": "string"
				}
			],
			"name": "addCandidate",
			"outputs": [],
			"stateMutability": "nonpayable",
			"type": "function"
		},
		{
			"inputs": [
				{
					"internalType": "uint256",
					"name": "",
					"type": "uint256"
				}
			],
			"name": "candidateList",
			"outputs": [
				{
					"internalType": "string",
					"name": "name",
					"type": "string"
				},
				{
					"internalType": "uint256",
					"name": "upVote",
					"type": "uint256"
				}
			],
			"stateMutability": "view",
			"type": "function"
		},
		{
			"inputs": [],
			"name": "finishVote",
			"outputs": [],
			"stateMutability": "nonpayable",
			"type": "function"
		},
		{
			"inputs": [],
			"name": "getAllCandidates",
			"outputs": [
				{
					"components": [
						{
							"internalType": "string",
							"name": "name",
							"type": "string"
						},
						{
							"internalType": "uint256",
							"name": "upVote",
							"type": "uint256"
						}
					],
					"internalType": "struct Vote.candidate[]",
					"name": "",
					"type": "tuple[]"
				}
			],
			"stateMutability": "view",
			"type": "function"
		},
		{
			"inputs": [
				{
					"internalType": "uint256",
					"name": "_indexOfCandidate",
					"type": "uint256"
				}
			],
			"name": "upVote",
			"outputs": [],
			"stateMutability": "nonpayable",
			"type": "function"
		}
	]
}