{
	"data": {
		"bytecode": {
			"linkReferences": {},
			"object": "608060405234801561000f575f80fd5b50335f60016101000a81548173ffffffffffffffffffffffffffffffffffffffff021916908373ffffffffffffffffffffffffffffffffffffffff16021790555060015f806101000a81548160ff0219169083151502179055507f6d41258e44d7ee79f697248fbce67e06508f6c2a56396009d98f28c105d43e955f60019054906101000a900473ffffffffffffffffffffffffffffffffffffffff166040516100b99190610105565b60405180910390a161011e565b5f73ffffffffffffffffffffffffffffffffffffffff82169050919050565b5f6100ef826100c6565b9050919050565b6100ff816100e5565b82525050565b5f6020820190506101185f8301846100f6565b92915050565b6114b48061012b5f395ff3fe608060405234801561000f575f80fd5b5060043610610086575f3560e01c80638f32d59b116100595780638f32d59b146100ea5780639a0e7d6614610108578063b13c744b14610126578063ec859db51461015857610086565b80631e620cd41461008a57806326541b56146100a65780632aebcbb6146100c25780632e6997fe146100cc575b5f80fd5b6100a4600480360381019061009f9190610a57565b610174565b005b6100c060048036038101906100bb9190610bbe565b610303565b005b6100ca61043c565b005b6100d46104b5565b6040516100e19190610db2565b60405180910390f35b6100f261063a565b6040516100ff9190610dec565b60405180910390f35b610110610690565b60405161011d9190610e14565b60405180910390f35b610140600480360381019061013b9190610a57565b6106ea565b60405161014f93929190610e75565b60405180910390f35b610172600480360381019061016d9190610a57565b61082b565b005b5f60019054906101000a900473ffffffffffffffffffffffffffffffffffffffff1673ffffffffffffffffffffffffffffffffffffffff163373ffffffffffffffffffffffffffffffffffffffff16146101cc575f80fd5b600115155f8054906101000a900460ff161515146101e8575f80fd5b60018054905081106101f8575f80fd5b600180808054905061020a9190610ee5565b8154811061021b5761021a610f18565b5b905f5260205f2090600302016001828154811061023b5761023a610f18565b5b905f5260205f2090600302015f8201815f0190816102599190611154565b506001820181600101908161026e9190611154565b5060028201548160020155905050600180548061028e5761028d611239565b5b600190038181905f5260205f2090600302015f8082015f6102af91906109bb565b600182015f6102be91906109bb565b600282015f9055505090557f29ab6fac06eb32ebcc3a011f02383a9d57c946d0676bf8ccaed3f20e88410d45816040516102f89190610e14565b60405180910390a150565b5f60019054906101000a900473ffffffffffffffffffffffffffffffffffffffff1673ffffffffffffffffffffffffffffffffffffffff163373ffffffffffffffffffffffffffffffffffffffff161461035b575f80fd5b600115155f8054906101000a900460ff16151514610377575f80fd5b600560018054905010610388575f80fd5b600160405180606001604052808481526020018381526020015f815250908060018154018082558091505060019003905f5260205f2090600302015f909190919091505f820151815f0190816103de9190611266565b5060208201518160010190816103f49190611266565b506040820151816002015550507f7e54b8e26d30b775858f75176d98873186bb2078a39aec1f769f4de0aeb43b1a826040516104309190611335565b60405180910390a15050565b600115155f8054906101000a900460ff16151514610458575f80fd5b5f805f6101000a81548160ff0219169083151502179055507f52a1f86df561bcdc915e07aafb957e1253d4464fc7fae3d6700815e71f063ffc5f8054906101000a900460ff166040516104ab9190610dec565b60405180910390a1565b60606001805480602002602001604051908101604052809291908181526020015f905b82821015610631578382905f5260205f2090600302016040518060600160405290815f8201805461050890610f72565b80601f016020809104026020016040519081016040528092919081815260200182805461053490610f72565b801561057f5780601f106105565761010080835404028352916020019161057f565b820191905f5260205f20905b81548152906001019060200180831161056257829003601f168201915b5050505050815260200160018201805461059890610f72565b80601f01602080910402602001604051908101604052809291908181526020018280546105c490610f72565b801561060f5780601f106105e65761010080835404028352916020019161060f565b820191905f5260205f20905b8154815290600101906020018083116105f257829003601f168201915b50505050508152602001600282015481525050815260200190600101906104d8565b50505050905090565b5f8060019054906101000a900473ffffffffffffffffffffffffffffffffffffffff1673ffffffffffffffffffffffffffffffffffffffff163373ffffffffffffffffffffffffffffffffffffffff1614905090565b5f805f90505f5b6001805490508110156106e257600181815481106106b8576106b7610f18565b5b905f5260205f20906003020160020154826106d39190611355565b91508080600101915050610697565b508091505090565b600181815481106106f9575f80fd5b905f5260205f2090600302015f91509050805f01805461071890610f72565b80601f016020809104026020016040519081016040528092919081815260200182805461074490610f72565b801561078f5780601f106107665761010080835404028352916020019161078f565b820191905f5260205f20905b81548152906001019060200180831161077257829003601f168201915b5050505050908060010180546107a490610f72565b80601f01602080910402602001604051908101604052809291908181526020018280546107d090610f72565b801561081b5780601f106107f25761010080835404028352916020019161081b565b820191905f5260205f20905b8154815290600101906020018083116107fe57829003601f168201915b5050505050908060020154905083565b600115155f8054906101000a900460ff16151514610847575f80fd5b6001805490508110610857575f80fd5b5f151560025f3373ffffffffffffffffffffffffffffffffffffffff1673ffffffffffffffffffffffffffffffffffffffff1681526020019081526020015f205f9054906101000a900460ff161515146108af575f80fd5b600181815481106108c3576108c2610f18565b5b905f5260205f2090600302016002015f8154809291906108e290611388565b9190505550600160025f3373ffffffffffffffffffffffffffffffffffffffff1673ffffffffffffffffffffffffffffffffffffffff1681526020019081526020015f205f6101000a81548160ff0219169083151502179055507e8e3b27e09daa83ef4d239b211c458358c74c8ab4a844aa4ce24f2a4e211eeb600182815481106109705761096f610f18565b5b905f5260205f2090600302015f016001838154811061099257610991610f18565b5b905f5260205f209060030201600201546040516109b0929190611450565b60405180910390a150565b5080546109c790610f72565b5f825580601f106109d857506109f5565b601f0160209004905f5260205f20908101906109f491906109f8565b5b50565b5b80821115610a0f575f815f9055506001016109f9565b5090565b5f604051905090565b5f80fd5b5f80fd5b5f819050919050565b610a3681610a24565b8114610a40575f80fd5b50565b5f81359050610a5181610a2d565b92915050565b5f60208284031215610a6c57610a6b610a1c565b5b5f610a7984828501610a43565b91505092915050565b5f80fd5b5f80fd5b5f601f19601f8301169050919050565b7f4e487b71000000000000000000000000000000000000000000000000000000005f52604160045260245ffd5b610ad082610a8a565b810181811067ffffffffffffffff82111715610aef57610aee610a9a565b5b80604052505050565b5f610b01610a13565b9050610b0d8282610ac7565b919050565b5f67ffffffffffffffff821115610b2c57610b2b610a9a565b5b610b3582610a8a565b9050602081019050919050565b828183375f83830152505050565b5f610b62610b5d84610b12565b610af8565b905082815260208101848484011115610b7e57610b7d610a86565b5b610b89848285610b42565b509392505050565b5f82601f830112610ba557610ba4610a82565b5b8135610bb5848260208601610b50565b91505092915050565b5f8060408385031215610bd457610bd3610a1c565b5b5f83013567ffffffffffffffff811115610bf157610bf0610a20565b5b610bfd85828601610b91565b925050602083013567ffffffffffffffff811115610c1e57610c1d610a20565b5b610c2a85828601610b91565b9150509250929050565b5f81519050919050565b5f82825260208201905092915050565b5f819050602082019050919050565b5f81519050919050565b5f82825260208201905092915050565b8281835e5f83830152505050565b5f610c8f82610c5d565b610c998185610c67565b9350610ca9818560208601610c77565b610cb281610a8a565b840191505092915050565b610cc681610a24565b82525050565b5f606083015f8301518482035f860152610ce68282610c85565b91505060208301518482036020860152610d008282610c85565b9150506040830151610d156040860182610cbd565b508091505092915050565b5f610d2b8383610ccc565b905092915050565b5f602082019050919050565b5f610d4982610c34565b610d538185610c3e565b935083602082028501610d6585610c4e565b805f5b85811015610da05784840389528151610d818582610d20565b9450610d8c83610d33565b925060208a01995050600181019050610d68565b50829750879550505050505092915050565b5f6020820190508181035f830152610dca8184610d3f565b905092915050565b5f8115159050919050565b610de681610dd2565b82525050565b5f602082019050610dff5f830184610ddd565b92915050565b610e0e81610a24565b82525050565b5f602082019050610e275f830184610e05565b92915050565b5f82825260208201905092915050565b5f610e4782610c5d565b610e518185610e2d565b9350610e61818560208601610c77565b610e6a81610a8a565b840191505092915050565b5f6060820190508181035f830152610e8d8186610e3d565b90508181036020830152610ea18185610e3d565b9050610eb06040830184610e05565b949350505050565b7f4e487b71000000000000000000000000000000000000000000000000000000005f52601160045260245ffd5b5f610eef82610a24565b9150610efa83610a24565b9250828203905081811115610f1257610f11610eb8565b5b92915050565b7f4e487b71000000000000000000000000000000000000000000000000000000005f52603260045260245ffd5b7f4e487b71000000000000000000000000000000000000000000000000000000005f52602260045260245ffd5b5f6002820490506001821680610f8957607f821691505b602082108103610f9c57610f9b610f45565b5b50919050565b5f81549050610fb081610f72565b9050919050565b5f819050815f5260205f209050919050565b5f6020601f8301049050919050565b5f82821b905092915050565b5f600883026110137fffffffffffffffffffffffffffffffffffffffffffffffffffffffffffffffff82610fd8565b61101d8683610fd8565b95508019841693508086168417925050509392505050565b5f819050919050565b5f61105861105361104e84610a24565b611035565b610a24565b9050919050565b5f819050919050565b6110718361103e565b61108561107d8261105f565b848454610fe4565b825550505050565b5f90565b61109961108d565b6110a4818484611068565b505050565b5b818110156110c7576110bc5f82611091565b6001810190506110aa565b5050565b601f82111561110c576110dd81610fb7565b6110e684610fc9565b810160208510156110f5578190505b61110961110185610fc9565b8301826110a9565b50505b505050565b5f82821c905092915050565b5f61112c5f1984600802611111565b1980831691505092915050565b5f611144838361111d565b9150826002028217905092915050565b818103611162575050611237565b61116b82610fa2565b67ffffffffffffffff81111561118457611183610a9a565b5b61118e8254610f72565b6111998282856110cb565b5f601f8311600181146111c6575f84156111b4578287015490505b6111be8582611139565b865550611230565b601f1984166111d487610fb7565b96506111df86610fb7565b5f5b82811015611206578489015482556001820191506001850194506020810190506111e1565b86831015611223578489015461121f601f89168261111d565b8355505b6001600288020188555050505b5050505050505b565b7f4e487b71000000000000000000000000000000000000000000000000000000005f52603160045260245ffd5b61126f82610c5d565b67ffffffffffffffff81111561128857611287610a9a565b5b6112928254610f72565b61129d8282856110cb565b5f60209050601f8311600181146112ce575f84156112bc578287015190505b6112c68582611139565b86555061132d565b601f1984166112dc86610fb7565b5f5b82811015611303578489015182556001820191506020850194506020810190506112de565b86831015611320578489015161131c601f89168261111d565b8355505b6001600288020188555050505b505050505050565b5f6020820190508181035f83015261134d8184610e3d565b905092915050565b5f61135f82610a24565b915061136a83610a24565b925082820190508082111561138257611381610eb8565b5b92915050565b5f61139282610a24565b91507fffffffffffffffffffffffffffffffffffffffffffffffffffffffffffffffff82036113c4576113c3610eb8565b5b600182019050919050565b5f81546113db81610f72565b6113e58186610e2d565b9450600182165f81146113ff576001811461141557611447565b60ff198316865281151560200286019350611447565b61141e85610fb7565b5f5b8381101561143f57815481890152600182019150602081019050611420565b808801955050505b50505092915050565b5f6040820190508181035f83015261146881856113cf565b90506114776020830184610e05565b939250505056fea2646970667358221220d604eb99a15c9eea02277f816a6aef02b82f8021e91e67186c5a60983cd1421564736f6c634300081a0033",
			"opcodes": "PUSH1 0x80 PUSH1 0x40 MSTORE CALLVALUE DUP1 ISZERO PUSH2 0xF JUMPI PUSH0 DUP1 REVERT JUMPDEST POP CALLER PUSH0 PUSH1 0x1 PUSH2 0x100 EXP DUP2 SLOAD DUP2 PUSH20 0xFFFFFFFFFFFFFFFFFFFFFFFFFFFFFFFFFFFFFFFF MUL NOT AND SWAP1 DUP4 PUSH20 0xFFFFFFFFFFFFFFFFFFFFFFFFFFFFFFFFFFFFFFFF AND MUL OR SWAP1 SSTORE POP PUSH1 0x1 PUSH0 DUP1 PUSH2 0x100 EXP DUP2 SLOAD DUP2 PUSH1 0xFF MUL NOT AND SWAP1 DUP4 ISZERO ISZERO MUL OR SWAP1 SSTORE POP PUSH32 0x6D41258E44D7EE79F697248FBCE67E06508F6C2A56396009D98F28C105D43E95 PUSH0 PUSH1 0x1 SWAP1 SLOAD SWAP1 PUSH2 0x100 EXP SWAP1 DIV PUSH20 0xFFFFFFFFFFFFFFFFFFFFFFFFFFFFFFFFFFFFFFFF AND PUSH1 0x40 MLOAD PUSH2 0xB9 SWAP2 SWAP1 PUSH2 0x105 JUMP JUMPDEST PUSH1 0x40 MLOAD DUP1 SWAP2 SUB SWAP1 LOG1 PUSH2 0x11E JUMP JUMPDEST PUSH0 PUSH20 0xFFFFFFFFFFFFFFFFFFFFFFFFFFFFFFFFFFFFFFFF DUP3 AND SWAP1 POP SWAP2 SWAP1 POP JUMP JUMPDEST PUSH0 PUSH2 0xEF DUP3 PUSH2 0xC6 JUMP JUMPDEST SWAP1 POP SWAP2 SWAP1 POP JUMP JUMPDEST PUSH2 0xFF DUP2 PUSH2 0xE5 JUMP JUMPDEST DUP3 MSTORE POP POP JUMP JUMPDEST PUSH0 PUSH1 0x20 DUP3 ADD SWAP1 POP PUSH2 0x118 PUSH0 DUP4 ADD DUP5 PUSH2 0xF6 JUMP JUMPDEST SWAP3 SWAP2 POP POP JUMP JUMPDEST PUSH2 0x14B4 DUP1 PUSH2 0x12B PUSH0 CODECOPY PUSH0 RETURN INVALID PUSH1 0x80 PUSH1 0x40 MSTORE CALLVALUE DUP1 ISZERO PUSH2 0xF JUMPI PUSH0 DUP1 REVERT JUMPDEST POP PUSH1 0x4 CALLDATASIZE LT PUSH2 0x86 JUMPI PUSH0 CALLDATALOAD PUSH1 0xE0 SHR DUP1 PUSH4 0x8F32D59B GT PUSH2 0x59 JUMPI DUP1 PUSH4 0x8F32D59B EQ PUSH2 0xEA JUMPI DUP1 PUSH4 0x9A0E7D66 EQ PUSH2 0x108 JUMPI DUP1 PUSH4 0xB13C744B EQ PUSH2 0x126 JUMPI DUP1 PUSH4 0xEC859DB5 EQ PUSH2 0x158 JUMPI PUSH2 0x86 JUMP JUMPDEST DUP1 PUSH4 0x1E620CD4 EQ PUSH2 0x8A JUMPI DUP1 PUSH4 0x26541B56 EQ PUSH2 0xA6 JUMPI DUP1 PUSH4 0x2AEBCBB6 EQ PUSH2 0xC2 JUMPI DUP1 PUSH4 0x2E6997FE EQ PUSH2 0xCC JUMPI JUMPDEST PUSH0 DUP1 REVERT JUMPDEST PUSH2 0xA4 PUSH1 0x4 DUP1 CALLDATASIZE SUB DUP2 ADD SWAP1 PUSH2 0x9F SWAP2 SWAP1 PUSH2 0xA57 JUMP JUMPDEST PUSH2 0x174 JUMP JUMPDEST STOP JUMPDEST PUSH2 0xC0 PUSH1 0x4 DUP1 CALLDATASIZE SUB DUP2 ADD SWAP1 PUSH2 0xBB SWAP2 SWAP1 PUSH2 0xBBE JUMP JUMPDEST PUSH2 0x303 JUMP JUMPDEST STOP JUMPDEST PUSH2 0xCA PUSH2 0x43C JUMP JUMPDEST STOP JUMPDEST PUSH2 0xD4 PUSH2 0x4B5 JUMP JUMPDEST PUSH1 0x40 MLOAD PUSH2 0xE1 SWAP2 SWAP1 PUSH2 0xDB2 JUMP JUMPDEST PUSH1 0x40 MLOAD DUP1 SWAP2 SUB SWAP1 RETURN JUMPDEST PUSH2 0xF2 PUSH2 0x63A JUMP JUMPDEST PUSH1 0x40 MLOAD PUSH2 0xFF SWAP2 SWAP1 PUSH2 0xDEC JUMP JUMPDEST PUSH1 0x40 MLOAD DUP1 SWAP2 SUB SWAP1 RETURN JUMPDEST PUSH2 0x110 PUSH2 0x690 JUMP JUMPDEST PUSH1 0x40 MLOAD PUSH2 0x11D SWAP2 SWAP1 PUSH2 0xE14 JUMP JUMPDEST PUSH1 0x40 MLOAD DUP1 SWAP2 SUB SWAP1 RETURN JUMPDEST PUSH2 0x140 PUSH1 0x4 DUP1 CALLDATASIZE SUB DUP2 ADD SWAP1 PUSH2 0x13B SWAP2 SWAP1 PUSH2 0xA57 JUMP JUMPDEST PUSH2 0x6EA JUMP JUMPDEST PUSH1 0x40 MLOAD PUSH2 0x14F SWAP4 SWAP3 SWAP2 SWAP1 PUSH2 0xE75 JUMP JUMPDEST PUSH1 0x40 MLOAD DUP1 SWAP2 SUB SWAP1 RETURN JUMPDEST PUSH2 0x172 PUSH1 0x4 DUP1 CALLDATASIZE SUB DUP2 ADD SWAP1 PUSH2 0x16D SWAP2 SWAP1 PUSH2 0xA57 JUMP JUMPDEST PUSH2 0x82B JUMP JUMPDEST STOP JUMPDEST PUSH0 PUSH1 0x1 SWAP1 SLOAD SWAP1 PUSH2 0x100 EXP SWAP1 DIV PUSH20 0xFFFFFFFFFFFFFFFFFFFFFFFFFFFFFFFFFFFFFFFF AND PUSH20 0xFFFFFFFFFFFFFFFFFFFFFFFFFFFFFFFFFFFFFFFF AND CALLER PUSH20 0xFFFFFFFFFFFFFFFFFFFFFFFFFFFFFFFFFFFFFFFF AND EQ PUSH2 0x1CC JUMPI PUSH0 DUP1 REVERT JUMPDEST PUSH1 0x1 ISZERO ISZERO PUSH0 DUP1 SLOAD SWAP1 PUSH2 0x100 EXP SWAP1 DIV PUSH1 0xFF AND ISZERO ISZERO EQ PUSH2 0x1E8 JUMPI PUSH0 DUP1 REVERT JUMPDEST PUSH1 0x1 DUP1 SLOAD SWAP1 POP DUP2 LT PUSH2 0x1F8 JUMPI PUSH0 DUP1 REVERT JUMPDEST PUSH1 0x1 DUP1 DUP1 DUP1 SLOAD SWAP1 POP PUSH2 0x20A SWAP2 SWAP1 PUSH2 0xEE5 JUMP JUMPDEST DUP2 SLOAD DUP2 LT PUSH2 0x21B JUMPI PUSH2 0x21A PUSH2 0xF18 JUMP JUMPDEST JUMPDEST SWAP1 PUSH0 MSTORE PUSH1 0x20 PUSH0 KECCAK256 SWAP1 PUSH1 0x3 MUL ADD PUSH1 0x1 DUP3 DUP2 SLOAD DUP2 LT PUSH2 0x23B JUMPI PUSH2 0x23A PUSH2 0xF18 JUMP JUMPDEST JUMPDEST SWAP1 PUSH0 MSTORE PUSH1 0x20 PUSH0 KECCAK256 SWAP1 PUSH1 0x3 MUL ADD PUSH0 DUP3 ADD DUP2 PUSH0 ADD SWAP1 DUP2 PUSH2 0x259 SWAP2 SWAP1 PUSH2 0x1154 JUMP JUMPDEST POP PUSH1 0x1 DUP3 ADD DUP2 PUSH1 0x1 ADD SWAP1 DUP2 PUSH2 0x26E SWAP2 SWAP1 PUSH2 0x1154 JUMP JUMPDEST POP PUSH1 0x2 DUP3 ADD SLOAD DUP2 PUSH1 0x2 ADD SSTORE SWAP1 POP POP PUSH1 0x1 DUP1 SLOAD DUP1 PUSH2 0x28E JUMPI PUSH2 0x28D PUSH2 0x1239 JUMP JUMPDEST JUMPDEST PUSH1 0x1 SWAP1 SUB DUP2 DUP2 SWAP1 PUSH0 MSTORE PUSH1 0x20 PUSH0 KECCAK256 SWAP1 PUSH1 0x3 MUL ADD PUSH0 DUP1 DUP3 ADD PUSH0 PUSH2 0x2AF SWAP2 SWAP1 PUSH2 0x9BB JUMP JUMPDEST PUSH1 0x1 DUP3 ADD PUSH0 PUSH2 0x2BE SWAP2 SWAP1 PUSH2 0x9BB JUMP JUMPDEST PUSH1 0x2 DUP3 ADD PUSH0 SWAP1 SSTORE POP POP SWAP1 SSTORE PUSH32 0x29AB6FAC06EB32EBCC3A011F02383A9D57C946D0676BF8CCAED3F20E88410D45 DUP2 PUSH1 0x40 MLOAD PUSH2 0x2F8 SWAP2 SWAP1 PUSH2 0xE14 JUMP JUMPDEST PUSH1 0x40 MLOAD DUP1 SWAP2 SUB SWAP1 LOG1 POP JUMP JUMPDEST PUSH0 PUSH1 0x1 SWAP1 SLOAD SWAP1 PUSH2 0x100 EXP SWAP1 DIV PUSH20 0xFFFFFFFFFFFFFFFFFFFFFFFFFFFFFFFFFFFFFFFF AND PUSH20 0xFFFFFFFFFFFFFFFFFFFFFFFFFFFFFFFFFFFFFFFF AND CALLER PUSH20 0xFFFFFFFFFFFFFFFFFFFFFFFFFFFFFFFFFFFFFFFF AND EQ PUSH2 0x35B JUMPI PUSH0 DUP1 REVERT JUMPDEST PUSH1 0x1 ISZERO ISZERO PUSH0 DUP1 SLOAD SWAP1 PUSH2 0x100 EXP SWAP1 DIV PUSH1 0xFF AND ISZERO ISZERO EQ PUSH2 0x377 JUMPI PUSH0 DUP1 REVERT JUMPDEST PUSH1 0x5 PUSH1 0x1 DUP1 SLOAD SWAP1 POP LT PUSH2 0x388 JUMPI PUSH0 DUP1 REVERT JUMPDEST PUSH1 0x1 PUSH1 0x40 MLOAD DUP1 PUSH1 0x60 ADD PUSH1 0x40 MSTORE DUP1 DUP5 DUP2 MSTORE PUSH1 0x20 ADD DUP4 DUP2 MSTORE PUSH1 0x20 ADD PUSH0 DUP2 MSTORE POP SWAP1 DUP1 PUSH1 0x1 DUP2 SLOAD ADD DUP1 DUP3 SSTORE DUP1 SWAP2 POP POP PUSH1 0x1 SWAP1 SUB SWAP1 PUSH0 MSTORE PUSH1 0x20 PUSH0 KECCAK256 SWAP1 PUSH1 0x3 MUL ADD PUSH0 SWAP1 SWAP2 SWAP1 SWAP2 SWAP1 SWAP2 POP PUSH0 DUP3 ADD MLOAD DUP2 PUSH0 ADD SWAP1 DUP2 PUSH2 0x3DE SWAP2 SWAP1 PUSH2 0x1266 JUMP JUMPDEST POP PUSH1 0x20 DUP3 ADD MLOAD DUP2 PUSH1 0x1 ADD SWAP1 DUP2 PUSH2 0x3F4 SWAP2 SWAP1 PUSH2 0x1266 JUMP JUMPDEST POP PUSH1 0x40 DUP3 ADD MLOAD DUP2 PUSH1 0x2 ADD SSTORE POP POP PUSH32 0x7E54B8E26D30B775858F75176D98873186BB2078A39AEC1F769F4DE0AEB43B1A DUP3 PUSH1 0x40 MLOAD PUSH2 0x430 SWAP2 SWAP1 PUSH2 0x1335 JUMP JUMPDEST PUSH1 0x40 MLOAD DUP1 SWAP2 SUB SWAP1 LOG1 POP POP JUMP JUMPDEST PUSH1 0x1 ISZERO ISZERO PUSH0 DUP1 SLOAD SWAP1 PUSH2 0x100 EXP SWAP1 DIV PUSH1 0xFF AND ISZERO ISZERO EQ PUSH2 0x458 JUMPI PUSH0 DUP1 REVERT JUMPDEST PUSH0 DUP1 PUSH0 PUSH2 0x100 EXP DUP2 SLOAD DUP2 PUSH1 0xFF MUL NOT AND SWAP1 DUP4 ISZERO ISZERO MUL OR SWAP1 SSTORE POP PUSH32 0x52A1F86DF561BCDC915E07AAFB957E1253D4464FC7FAE3D6700815E71F063FFC PUSH0 DUP1 SLOAD SWAP1 PUSH2 0x100 EXP SWAP1 DIV PUSH1 0xFF AND PUSH1 0x40 MLOAD PUSH2 0x4AB SWAP2 SWAP1 PUSH2 0xDEC JUMP JUMPDEST PUSH1 0x40 MLOAD DUP1 SWAP2 SUB SWAP1 LOG1 JUMP JUMPDEST PUSH1 0x60 PUSH1 0x1 DUP1 SLOAD DUP1 PUSH1 0x20 MUL PUSH1 0x20 ADD PUSH1 0x40 MLOAD SWAP1 DUP2 ADD PUSH1 0x40 MSTORE DUP1 SWAP3 SWAP2 SWAP1 DUP2 DUP2 MSTORE PUSH1 0x20 ADD PUSH0 SWAP1 JUMPDEST DUP3 DUP3 LT ISZERO PUSH2 0x631 JUMPI DUP4 DUP3 SWAP1 PUSH0 MSTORE PUSH1 0x20 PUSH0 KECCAK256 SWAP1 PUSH1 0x3 MUL ADD PUSH1 0x40 MLOAD DUP1 PUSH1 0x60 ADD PUSH1 0x40 MSTORE SWAP1 DUP2 PUSH0 DUP3 ADD DUP1 SLOAD PUSH2 0x508 SWAP1 PUSH2 0xF72 JUMP JUMPDEST DUP1 PUSH1 0x1F ADD PUSH1 0x20 DUP1 SWAP2 DIV MUL PUSH1 0x20 ADD PUSH1 0x40 MLOAD SWAP1 DUP2 ADD PUSH1 0x40 MSTORE DUP1 SWAP3 SWAP2 SWAP1 DUP2 DUP2 MSTORE PUSH1 0x20 ADD DUP3 DUP1 SLOAD PUSH2 0x534 SWAP1 PUSH2 0xF72 JUMP JUMPDEST DUP1 ISZERO PUSH2 0x57F JUMPI DUP1 PUSH1 0x1F LT PUSH2 0x556 JUMPI PUSH2 0x100 DUP1 DUP4 SLOAD DIV MUL DUP4 MSTORE SWAP2 PUSH1 0x20 ADD SWAP2 PUSH2 0x57F JUMP JUMPDEST DUP3 ADD SWAP2 SWAP1 PUSH0 MSTORE PUSH1 0x20 PUSH0 KECCAK256 SWAP1 JUMPDEST DUP2 SLOAD DUP2 MSTORE SWAP1 PUSH1 0x1 ADD SWAP1 PUSH1 0x20 ADD DUP1 DUP4 GT PUSH2 0x562 JUMPI DUP3 SWAP1 SUB PUSH1 0x1F AND DUP3 ADD SWAP2 JUMPDEST POP POP POP POP POP DUP2 MSTORE PUSH1 0x20 ADD PUSH1 0x1 DUP3 ADD DUP1 SLOAD PUSH2 0x598 SWAP1 PUSH2 0xF72 JUMP JUMPDEST DUP1 PUSH1 0x1F ADD PUSH1 0x20 DUP1 SWAP2 DIV MUL PUSH1 0x20 ADD PUSH1 0x40 MLOAD SWAP1 DUP2 ADD PUSH1 0x40 MSTORE DUP1 SWAP3 SWAP2 SWAP1 DUP2 DUP2 MSTORE PUSH1 0x20 ADD DUP3 DUP1 SLOAD PUSH2 0x5C4 SWAP1 PUSH2 0xF72 JUMP JUMPDEST DUP1 ISZERO PUSH2 0x60F JUMPI DUP1 PUSH1 0x1F LT PUSH2 0x5E6 JUMPI PUSH2 0x100 DUP1 DUP4 SLOAD DIV MUL DUP4 MSTORE SWAP2 PUSH1 0x20 ADD SWAP2 PUSH2 0x60F JUMP JUMPDEST DUP3 ADD SWAP2 SWAP1 PUSH0 MSTORE PUSH1 0x20 PUSH0 KECCAK256 SWAP1 JUMPDEST DUP2 SLOAD DUP2 MSTORE SWAP1 PUSH1 0x1 ADD SWAP1 PUSH1 0x20 ADD DUP1 DUP4 GT PUSH2 0x5F2 JUMPI DUP3 SWAP1 SUB PUSH1 0x1F AND DUP3 ADD SWAP2 JUMPDEST POP POP POP POP POP DUP2 MSTORE PUSH1 0x20 ADD PUSH1 0x2 DUP3 ADD SLOAD DUP2 MSTORE POP POP DUP2 MSTORE PUSH1 0x20 ADD SWAP1 PUSH1 0x1 ADD SWAP1 PUSH2 0x4D8 JUMP JUMPDEST POP POP POP POP SWAP1 POP SWAP1 JUMP JUMPDEST PUSH0 DUP1 PUSH1 0x1 SWAP1 SLOAD SWAP1 PUSH2 0x100 EXP SWAP1 DIV PUSH20 0xFFFFFFFFFFFFFFFFFFFFFFFFFFFFFFFFFFFFFFFF AND PUSH20 0xFFFFFFFFFFFFFFFFFFFFFFFFFFFFFFFFFFFFFFFF AND CALLER PUSH20 0xFFFFFFFFFFFFFFFFFFFFFFFFFFFFFFFFFFFFFFFF AND EQ SWAP1 POP SWAP1 JUMP JUMPDEST PUSH0 DUP1 PUSH0 SWAP1 POP PUSH0 JUMPDEST PUSH1 0x1 DUP1 SLOAD SWAP1 POP DUP2 LT ISZERO PUSH2 0x6E2 JUMPI PUSH1 0x1 DUP2 DUP2 SLOAD DUP2 LT PUSH2 0x6B8 JUMPI PUSH2 0x6B7 PUSH2 0xF18 JUMP JUMPDEST JUMPDEST SWAP1 PUSH0 MSTORE PUSH1 0x20 PUSH0 KECCAK256 SWAP1 PUSH1 0x3 MUL ADD PUSH1 0x2 ADD SLOAD DUP3 PUSH2 0x6D3 SWAP2 SWAP1 PUSH2 0x1355 JUMP JUMPDEST SWAP2 POP DUP1 DUP1 PUSH1 0x1 ADD SWAP2 POP POP PUSH2 0x697 JUMP JUMPDEST POP DUP1 SWAP2 POP POP SWAP1 JUMP JUMPDEST PUSH1 0x1 DUP2 DUP2 SLOAD DUP2 LT PUSH2 0x6F9 JUMPI PUSH0 DUP1 REVERT JUMPDEST SWAP1 PUSH0 MSTORE PUSH1 0x20 PUSH0 KECCAK256 SWAP1 PUSH1 0x3 MUL ADD PUSH0 SWAP2 POP SWAP1 POP DUP1 PUSH0 ADD DUP1 SLOAD PUSH2 0x718 SWAP1 PUSH2 0xF72 JUMP JUMPDEST DUP1 PUSH1 0x1F ADD PUSH1 0x20 DUP1 SWAP2 DIV MUL PUSH1 0x20 ADD PUSH1 0x40 MLOAD SWAP1 DUP2 ADD PUSH1 0x40 MSTORE DUP1 SWAP3 SWAP2 SWAP1 DUP2 DUP2 MSTORE PUSH1 0x20 ADD DUP3 DUP1 SLOAD PUSH2 0x744 SWAP1 PUSH2 0xF72 JUMP JUMPDEST DUP1 ISZERO PUSH2 0x78F JUMPI DUP1 PUSH1 0x1F LT PUSH2 0x766 JUMPI PUSH2 0x100 DUP1 DUP4 SLOAD DIV MUL DUP4 MSTORE SWAP2 PUSH1 0x20 ADD SWAP2 PUSH2 0x78F JUMP JUMPDEST DUP3 ADD SWAP2 SWAP1 PUSH0 MSTORE PUSH1 0x20 PUSH0 KECCAK256 SWAP1 JUMPDEST DUP2 SLOAD DUP2 MSTORE SWAP1 PUSH1 0x1 ADD SWAP1 PUSH1 0x20 ADD DUP1 DUP4 GT PUSH2 0x772 JUMPI DUP3 SWAP1 SUB PUSH1 0x1F AND DUP3 ADD SWAP2 JUMPDEST POP POP POP POP POP SWAP1 DUP1 PUSH1 0x1 ADD DUP1 SLOAD PUSH2 0x7A4 SWAP1 PUSH2 0xF72 JUMP JUMPDEST DUP1 PUSH1 0x1F ADD PUSH1 0x20 DUP1 SWAP2 DIV MUL PUSH1 0x20 ADD PUSH1 0x40 MLOAD SWAP1 DUP2 ADD PUSH1 0x40 MSTORE DUP1 SWAP3 SWAP2 SWAP1 DUP2 DUP2 MSTORE PUSH1 0x20 ADD DUP3 DUP1 SLOAD PUSH2 0x7D0 SWAP1 PUSH2 0xF72 JUMP JUMPDEST DUP1 ISZERO PUSH2 0x81B JUMPI DUP1 PUSH1 0x1F LT PUSH2 0x7F2 JUMPI PUSH2 0x100 DUP1 DUP4 SLOAD DIV MUL DUP4 MSTORE SWAP2 PUSH1 0x20 ADD SWAP2 PUSH2 0x81B JUMP JUMPDEST DUP3 ADD SWAP2 SWAP1 PUSH0 MSTORE PUSH1 0x20 PUSH0 KECCAK256 SWAP1 JUMPDEST DUP2 SLOAD DUP2 MSTORE SWAP1 PUSH1 0x1 ADD SWAP1 PUSH1 0x20 ADD DUP1 DUP4 GT PUSH2 0x7FE JUMPI DUP3 SWAP1 SUB PUSH1 0x1F AND DUP3 ADD SWAP2 JUMPDEST POP POP POP POP POP SWAP1 DUP1 PUSH1 0x2 ADD SLOAD SWAP1 POP DUP4 JUMP JUMPDEST PUSH1 0x1 ISZERO ISZERO PUSH0 DUP1 SLOAD SWAP1 PUSH2 0x100 EXP SWAP1 DIV PUSH1 0xFF AND ISZERO ISZERO EQ PUSH2 0x847 JUMPI PUSH0 DUP1 REVERT JUMPDEST PUSH1 0x1 DUP1 SLOAD SWAP1 POP DUP2 LT PUSH2 0x857 JUMPI PUSH0 DUP1 REVERT JUMPDEST PUSH0 ISZERO ISZERO PUSH1 0x2 PUSH0 CALLER PUSH20 0xFFFFFFFFFFFFFFFFFFFFFFFFFFFFFFFFFFFFFFFF AND PUSH20 0xFFFFFFFFFFFFFFFFFFFFFFFFFFFFFFFFFFFFFFFF AND DUP2 MSTORE PUSH1 0x20 ADD SWAP1 DUP2 MSTORE PUSH1 0x20 ADD PUSH0 KECCAK256 PUSH0 SWAP1 SLOAD SWAP1 PUSH2 0x100 EXP SWAP1 DIV PUSH1 0xFF AND ISZERO ISZERO EQ PUSH2 0x8AF JUMPI PUSH0 DUP1 REVERT JUMPDEST PUSH1 0x1 DUP2 DUP2 SLOAD DUP2 LT PUSH2 0x8C3 JUMPI PUSH2 0x8C2 PUSH2 0xF18 JUMP JUMPDEST JUMPDEST SWAP1 PUSH0 MSTORE PUSH1 0x20 PUSH0 KECCAK256 SWAP1 PUSH1 0x3 MUL ADD PUSH1 0x2 ADD PUSH0 DUP2 SLOAD DUP1 SWAP3 SWAP2 SWAP1 PUSH2 0x8E2 SWAP1 PUSH2 0x1388 JUMP JUMPDEST SWAP2 SWAP1 POP SSTORE POP PUSH1 0x1 PUSH1 0x2 PUSH0 CALLER PUSH20 0xFFFFFFFFFFFFFFFFFFFFFFFFFFFFFFFFFFFFFFFF AND PUSH20 0xFFFFFFFFFFFFFFFFFFFFFFFFFFFFFFFFFFFFFFFF AND DUP2 MSTORE PUSH1 0x20 ADD SWAP1 DUP2 MSTORE PUSH1 0x20 ADD PUSH0 KECCAK256 PUSH0 PUSH2 0x100 EXP DUP2 SLOAD DUP2 PUSH1 0xFF MUL NOT AND SWAP1 DUP4 ISZERO ISZERO MUL OR SWAP1 SSTORE POP PUSH31 0x8E3B27E09DAA83EF4D239B211C458358C74C8AB4A844AA4CE24F2A4E211EEB PUSH1 0x1 DUP3 DUP2 SLOAD DUP2 LT PUSH2 0x970 JUMPI PUSH2 0x96F PUSH2 0xF18 JUMP JUMPDEST JUMPDEST SWAP1 PUSH0 MSTORE PUSH1 0x20 PUSH0 KECCAK256 SWAP1 PUSH1 0x3 MUL ADD PUSH0 ADD PUSH1 0x1 DUP4 DUP2 SLOAD DUP2 LT PUSH2 0x992 JUMPI PUSH2 0x991 PUSH2 0xF18 JUMP JUMPDEST JUMPDEST SWAP1 PUSH0 MSTORE PUSH1 0x20 PUSH0 KECCAK256 SWAP1 PUSH1 0x3 MUL ADD PUSH1 0x2 ADD SLOAD PUSH1 0x40 MLOAD PUSH2 0x9B0 SWAP3 SWAP2 SWAP1 PUSH2 0x1450 JUMP JUMPDEST PUSH1 0x40 MLOAD DUP1 SWAP2 SUB SWAP1 LOG1 POP JUMP JUMPDEST POP DUP1 SLOAD PUSH2 0x9C7 SWAP1 PUSH2 0xF72 JUMP JUMPDEST PUSH0 DUP3 SSTORE DUP1 PUSH1 0x1F LT PUSH2 0x9D8 JUMPI POP PUSH2 0x9F5 JUMP JUMPDEST PUSH1 0x1F ADD PUSH1 0x20 SWAP1 DIV SWAP1 PUSH0 MSTORE PUSH1 0x20 PUSH0 KECCAK256 SWAP1 DUP2 ADD SWAP1 PUSH2 0x9F4 SWAP2 SWAP1 PUSH2 0x9F8 JUMP JUMPDEST JUMPDEST POP JUMP JUMPDEST JUMPDEST DUP1 DUP3 GT ISZERO PUSH2 0xA0F JUMPI PUSH0 DUP2 PUSH0 SWAP1 SSTORE POP PUSH1 0x1 ADD PUSH2 0x9F9 JUMP JUMPDEST POP SWAP1 JUMP JUMPDEST PUSH0 PUSH1 0x40 MLOAD SWAP1 POP SWAP1 JUMP JUMPDEST PUSH0 DUP1 REVERT JUMPDEST PUSH0 DUP1 REVERT JUMPDEST PUSH0 DUP2 SWAP1 POP SWAP2 SWAP1 POP JUMP JUMPDEST PUSH2 0xA36 DUP2 PUSH2 0xA24 JUMP JUMPDEST DUP2 EQ PUSH2 0xA40 JUMPI PUSH0 DUP1 REVERT JUMPDEST POP JUMP JUMPDEST PUSH0 DUP2 CALLDATALOAD SWAP1 POP PUSH2 0xA51 DUP2 PUSH2 0xA2D JUMP JUMPDEST SWAP3 SWAP2 POP POP JUMP JUMPDEST PUSH0 PUSH1 0x20 DUP3 DUP5 SUB SLT ISZERO PUSH2 0xA6C JUMPI PUSH2 0xA6B PUSH2 0xA1C JUMP JUMPDEST JUMPDEST PUSH0 PUSH2 0xA79 DUP5 DUP3 DUP6 ADD PUSH2 0xA43 JUMP JUMPDEST SWAP2 POP POP SWAP3 SWAP2 POP POP JUMP JUMPDEST PUSH0 DUP1 REVERT JUMPDEST PUSH0 DUP1 REVERT JUMPDEST PUSH0 PUSH1 0x1F NOT PUSH1 0x1F DUP4 ADD AND SWAP1 POP SWAP2 SWAP1 POP JUMP JUMPDEST PUSH32 0x4E487B7100000000000000000000000000000000000000000000000000000000 PUSH0 MSTORE PUSH1 0x41 PUSH1 0x4 MSTORE PUSH1 0x24 PUSH0 REVERT JUMPDEST PUSH2 0xAD0 DUP3 PUSH2 0xA8A JUMP JUMPDEST DUP2 ADD DUP2 DUP2 LT PUSH8 0xFFFFFFFFFFFFFFFF DUP3 GT OR ISZERO PUSH2 0xAEF JUMPI PUSH2 0xAEE PUSH2 0xA9A JUMP JUMPDEST JUMPDEST DUP1 PUSH1 0x40 MSTORE POP POP POP JUMP JUMPDEST PUSH0 PUSH2 0xB01 PUSH2 0xA13 JUMP JUMPDEST SWAP1 POP PUSH2 0xB0D DUP3 DUP3 PUSH2 0xAC7 JUMP JUMPDEST SWAP2 SWAP1 POP JUMP JUMPDEST PUSH0 PUSH8 0xFFFFFFFFFFFFFFFF DUP3 GT ISZERO PUSH2 0xB2C JUMPI PUSH2 0xB2B PUSH2 0xA9A JUMP JUMPDEST JUMPDEST PUSH2 0xB35 DUP3 PUSH2 0xA8A JUMP JUMPDEST SWAP1 POP PUSH1 0x20 DUP2 ADD SWAP1 POP SWAP2 SWAP1 POP JUMP JUMPDEST DUP3 DUP2 DUP4 CALLDATACOPY PUSH0 DUP4 DUP4 ADD MSTORE POP POP POP JUMP JUMPDEST PUSH0 PUSH2 0xB62 PUSH2 0xB5D DUP5 PUSH2 0xB12 JUMP JUMPDEST PUSH2 0xAF8 JUMP JUMPDEST SWAP1 POP DUP3 DUP2 MSTORE PUSH1 0x20 DUP2 ADD DUP5 DUP5 DUP5 ADD GT ISZERO PUSH2 0xB7E JUMPI PUSH2 0xB7D PUSH2 0xA86 JUMP JUMPDEST JUMPDEST PUSH2 0xB89 DUP5 DUP3 DUP6 PUSH2 0xB42 JUMP JUMPDEST POP SWAP4 SWAP3 POP POP POP JUMP JUMPDEST PUSH0 DUP3 PUSH1 0x1F DUP4 ADD SLT PUSH2 0xBA5 JUMPI PUSH2 0xBA4 PUSH2 0xA82 JUMP JUMPDEST JUMPDEST DUP2 CALLDATALOAD PUSH2 0xBB5 DUP5 DUP3 PUSH1 0x20 DUP7 ADD PUSH2 0xB50 JUMP JUMPDEST SWAP2 POP POP SWAP3 SWAP2 POP POP JUMP JUMPDEST PUSH0 DUP1 PUSH1 0x40 DUP4 DUP6 SUB SLT ISZERO PUSH2 0xBD4 JUMPI PUSH2 0xBD3 PUSH2 0xA1C JUMP JUMPDEST JUMPDEST PUSH0 DUP4 ADD CALLDATALOAD PUSH8 0xFFFFFFFFFFFFFFFF DUP2 GT ISZERO PUSH2 0xBF1 JUMPI PUSH2 0xBF0 PUSH2 0xA20 JUMP JUMPDEST JUMPDEST PUSH2 0xBFD DUP6 DUP3 DUP7 ADD PUSH2 0xB91 JUMP JUMPDEST SWAP3 POP POP PUSH1 0x20 DUP4 ADD CALLDATALOAD PUSH8 0xFFFFFFFFFFFFFFFF DUP2 GT ISZERO PUSH2 0xC1E JUMPI PUSH2 0xC1D PUSH2 0xA20 JUMP JUMPDEST JUMPDEST PUSH2 0xC2A DUP6 DUP3 DUP7 ADD PUSH2 0xB91 JUMP JUMPDEST SWAP2 POP POP SWAP3 POP SWAP3 SWAP1 POP JUMP JUMPDEST PUSH0 DUP2 MLOAD SWAP1 POP SWAP2 SWAP1 POP JUMP JUMPDEST PUSH0 DUP3 DUP3 MSTORE PUSH1 0x20 DUP3 ADD SWAP1 POP SWAP3 SWAP2 POP POP JUMP JUMPDEST PUSH0 DUP2 SWAP1 POP PUSH1 0x20 DUP3 ADD SWAP1 POP SWAP2 SWAP1 POP JUMP JUMPDEST PUSH0 DUP2 MLOAD SWAP1 POP SWAP2 SWAP1 POP JUMP JUMPDEST PUSH0 DUP3 DUP3 MSTORE PUSH1 0x20 DUP3 ADD SWAP1 POP SWAP3 SWAP2 POP POP JUMP JUMPDEST DUP3 DUP2 DUP4 MCOPY PUSH0 DUP4 DUP4 ADD MSTORE POP POP POP JUMP JUMPDEST PUSH0 PUSH2 0xC8F DUP3 PUSH2 0xC5D JUMP JUMPDEST PUSH2 0xC99 DUP2 DUP6 PUSH2 0xC67 JUMP JUMPDEST SWAP4 POP PUSH2 0xCA9 DUP2 DUP6 PUSH1 0x20 DUP7 ADD PUSH2 0xC77 JUMP JUMPDEST PUSH2 0xCB2 DUP2 PUSH2 0xA8A JUMP JUMPDEST DUP5 ADD SWAP2 POP POP SWAP3 SWAP2 POP POP JUMP JUMPDEST PUSH2 0xCC6 DUP2 PUSH2 0xA24 JUMP JUMPDEST DUP3 MSTORE POP POP JUMP JUMPDEST PUSH0 PUSH1 0x60 DUP4 ADD PUSH0 DUP4 ADD MLOAD DUP5 DUP3 SUB PUSH0 DUP7 ADD MSTORE PUSH2 0xCE6 DUP3 DUP3 PUSH2 0xC85 JUMP JUMPDEST SWAP2 POP POP PUSH1 0x20 DUP4 ADD MLOAD DUP5 DUP3 SUB PUSH1 0x20 DUP7 ADD MSTORE PUSH2 0xD00 DUP3 DUP3 PUSH2 0xC85 JUMP JUMPDEST SWAP2 POP POP PUSH1 0x40 DUP4 ADD MLOAD PUSH2 0xD15 PUSH1 0x40 DUP7 ADD DUP3 PUSH2 0xCBD JUMP JUMPDEST POP DUP1 SWAP2 POP POP SWAP3 SWAP2 POP POP JUMP JUMPDEST PUSH0 PUSH2 0xD2B DUP4 DUP4 PUSH2 0xCCC JUMP JUMPDEST SWAP1 POP SWAP3 SWAP2 POP POP JUMP JUMPDEST PUSH0 PUSH1 0x20 DUP3 ADD SWAP1 POP SWAP2 SWAP1 POP JUMP JUMPDEST PUSH0 PUSH2 0xD49 DUP3 PUSH2 0xC34 JUMP JUMPDEST PUSH2 0xD53 DUP2 DUP6 PUSH2 0xC3E JUMP JUMPDEST SWAP4 POP DUP4 PUSH1 0x20 DUP3 MUL DUP6 ADD PUSH2 0xD65 DUP6 PUSH2 0xC4E JUMP JUMPDEST DUP1 PUSH0 JUMPDEST DUP6 DUP2 LT ISZERO PUSH2 0xDA0 JUMPI DUP5 DUP5 SUB DUP10 MSTORE DUP2 MLOAD PUSH2 0xD81 DUP6 DUP3 PUSH2 0xD20 JUMP JUMPDEST SWAP5 POP PUSH2 0xD8C DUP4 PUSH2 0xD33 JUMP JUMPDEST SWAP3 POP PUSH1 0x20 DUP11 ADD SWAP10 POP POP PUSH1 0x1 DUP2 ADD SWAP1 POP PUSH2 0xD68 JUMP JUMPDEST POP DUP3 SWAP8 POP DUP8 SWAP6 POP POP POP POP POP POP SWAP3 SWAP2 POP POP JUMP JUMPDEST PUSH0 PUSH1 0x20 DUP3 ADD SWAP1 POP DUP2 DUP2 SUB PUSH0 DUP4 ADD MSTORE PUSH2 0xDCA DUP2 DUP5 PUSH2 0xD3F JUMP JUMPDEST SWAP1 POP SWAP3 SWAP2 POP POP JUMP JUMPDEST PUSH0 DUP2 ISZERO ISZERO SWAP1 POP SWAP2 SWAP1 POP JUMP JUMPDEST PUSH2 0xDE6 DUP2 PUSH2 0xDD2 JUMP JUMPDEST DUP3 MSTORE POP POP JUMP JUMPDEST PUSH0 PUSH1 0x20 DUP3 ADD SWAP1 POP PUSH2 0xDFF PUSH0 DUP4 ADD DUP5 PUSH2 0xDDD JUMP JUMPDEST SWAP3 SWAP2 POP POP JUMP JUMPDEST PUSH2 0xE0E DUP2 PUSH2 0xA24 JUMP JUMPDEST DUP3 MSTORE POP POP JUMP JUMPDEST PUSH0 PUSH1 0x20 DUP3 ADD SWAP1 POP PUSH2 0xE27 PUSH0 DUP4 ADD DUP5 PUSH2 0xE05 JUMP JUMPDEST SWAP3 SWAP2 POP POP JUMP JUMPDEST PUSH0 DUP3 DUP3 MSTORE PUSH1 0x20 DUP3 ADD SWAP1 POP SWAP3 SWAP2 POP POP JUMP JUMPDEST PUSH0 PUSH2 0xE47 DUP3 PUSH2 0xC5D JUMP JUMPDEST PUSH2 0xE51 DUP2 DUP6 PUSH2 0xE2D JUMP JUMPDEST SWAP4 POP PUSH2 0xE61 DUP2 DUP6 PUSH1 0x20 DUP7 ADD PUSH2 0xC77 JUMP JUMPDEST PUSH2 0xE6A DUP2 PUSH2 0xA8A JUMP JUMPDEST DUP5 ADD SWAP2 POP POP SWAP3 SWAP2 POP POP JUMP JUMPDEST PUSH0 PUSH1 0x60 DUP3 ADD SWAP1 POP DUP2 DUP2 SUB PUSH0 DUP4 ADD MSTORE PUSH2 0xE8D DUP2 DUP7 PUSH2 0xE3D JUMP JUMPDEST SWAP1 POP DUP2 DUP2 SUB PUSH1 0x20 DUP4 ADD MSTORE PUSH2 0xEA1 DUP2 DUP6 PUSH2 0xE3D JUMP JUMPDEST SWAP1 POP PUSH2 0xEB0 PUSH1 0x40 DUP4 ADD DUP5 PUSH2 0xE05 JUMP JUMPDEST SWAP5 SWAP4 POP POP POP POP JUMP JUMPDEST PUSH32 0x4E487B7100000000000000000000000000000000000000000000000000000000 PUSH0 MSTORE PUSH1 0x11 PUSH1 0x4 MSTORE PUSH1 0x24 PUSH0 REVERT JUMPDEST PUSH0 PUSH2 0xEEF DUP3 PUSH2 0xA24 JUMP JUMPDEST SWAP2 POP PUSH2 0xEFA DUP4 PUSH2 0xA24 JUMP JUMPDEST SWAP3 POP DUP3 DUP3 SUB SWAP1 POP DUP2 DUP2 GT ISZERO PUSH2 0xF12 JUMPI PUSH2 0xF11 PUSH2 0xEB8 JUMP JUMPDEST JUMPDEST SWAP3 SWAP2 POP POP JUMP JUMPDEST PUSH32 0x4E487B7100000000000000000000000000000000000000000000000000000000 PUSH0 MSTORE PUSH1 0x32 PUSH1 0x4 MSTORE PUSH1 0x24 PUSH0 REVERT JUMPDEST PUSH32 0x4E487B7100000000000000000000000000000000000000000000000000000000 PUSH0 MSTORE PUSH1 0x22 PUSH1 0x4 MSTORE PUSH1 0x24 PUSH0 REVERT JUMPDEST PUSH0 PUSH1 0x2 DUP3 DIV SWAP1 POP PUSH1 0x1 DUP3 AND DUP1 PUSH2 0xF89 JUMPI PUSH1 0x7F DUP3 AND SWAP2 POP JUMPDEST PUSH1 0x20 DUP3 LT DUP2 SUB PUSH2 0xF9C JUMPI PUSH2 0xF9B PUSH2 0xF45 JUMP JUMPDEST JUMPDEST POP SWAP2 SWAP1 POP JUMP JUMPDEST PUSH0 DUP2 SLOAD SWAP1 POP PUSH2 0xFB0 DUP2 PUSH2 0xF72 JUMP JUMPDEST SWAP1 POP SWAP2 SWAP1 POP JUMP JUMPDEST PUSH0 DUP2 SWAP1 POP DUP2 PUSH0 MSTORE PUSH1 0x20 PUSH0 KECCAK256 SWAP1 POP SWAP2 SWAP1 POP JUMP JUMPDEST PUSH0 PUSH1 0x20 PUSH1 0x1F DUP4 ADD DIV SWAP1 POP SWAP2 SWAP1 POP JUMP JUMPDEST PUSH0 DUP3 DUP3 SHL SWAP1 POP SWAP3 SWAP2 POP POP JUMP JUMPDEST PUSH0 PUSH1 0x8 DUP4 MUL PUSH2 0x1013 PUSH32 0xFFFFFFFFFFFFFFFFFFFFFFFFFFFFFFFFFFFFFFFFFFFFFFFFFFFFFFFFFFFFFFFF DUP3 PUSH2 0xFD8 JUMP JUMPDEST PUSH2 0x101D DUP7 DUP4 PUSH2 0xFD8 JUMP JUMPDEST SWAP6 POP DUP1 NOT DUP5 AND SWAP4 POP DUP1 DUP7 AND DUP5 OR SWAP3 POP POP POP SWAP4 SWAP3 POP POP POP JUMP JUMPDEST PUSH0 DUP2 SWAP1 POP SWAP2 SWAP1 POP JUMP JUMPDEST PUSH0 PUSH2 0x1058 PUSH2 0x1053 PUSH2 0x104E DUP5 PUSH2 0xA24 JUMP JUMPDEST PUSH2 0x1035 JUMP JUMPDEST PUSH2 0xA24 JUMP JUMPDEST SWAP1 POP SWAP2 SWAP1 POP JUMP JUMPDEST PUSH0 DUP2 SWAP1 POP SWAP2 SWAP1 POP JUMP JUMPDEST PUSH2 0x1071 DUP4 PUSH2 0x103E JUMP JUMPDEST PUSH2 0x1085 PUSH2 0x107D DUP3 PUSH2 0x105F JUMP JUMPDEST DUP5 DUP5 SLOAD PUSH2 0xFE4 JUMP JUMPDEST DUP3 SSTORE POP POP POP POP JUMP JUMPDEST PUSH0 SWAP1 JUMP JUMPDEST PUSH2 0x1099 PUSH2 0x108D JUMP JUMPDEST PUSH2 0x10A4 DUP2 DUP5 DUP5 PUSH2 0x1068 JUMP JUMPDEST POP POP POP JUMP JUMPDEST JUMPDEST DUP2 DUP2 LT ISZERO PUSH2 0x10C7 JUMPI PUSH2 0x10BC PUSH0 DUP3 PUSH2 0x1091 JUMP JUMPDEST PUSH1 0x1 DUP2 ADD SWAP1 POP PUSH2 0x10AA JUMP JUMPDEST POP POP JUMP JUMPDEST PUSH1 0x1F DUP3 GT ISZERO PUSH2 0x110C JUMPI PUSH2 0x10DD DUP2 PUSH2 0xFB7 JUMP JUMPDEST PUSH2 0x10E6 DUP5 PUSH2 0xFC9 JUMP JUMPDEST DUP2 ADD PUSH1 0x20 DUP6 LT ISZERO PUSH2 0x10F5 JUMPI DUP2 SWAP1 POP JUMPDEST PUSH2 0x1109 PUSH2 0x1101 DUP6 PUSH2 0xFC9 JUMP JUMPDEST DUP4 ADD DUP3 PUSH2 0x10A9 JUMP JUMPDEST POP POP JUMPDEST POP POP POP JUMP JUMPDEST PUSH0 DUP3 DUP3 SHR SWAP1 POP SWAP3 SWAP2 POP POP JUMP JUMPDEST PUSH0 PUSH2 0x112C PUSH0 NOT DUP5 PUSH1 0x8 MUL PUSH2 0x1111 JUMP JUMPDEST NOT DUP1 DUP4 AND SWAP2 POP POP SWAP3 SWAP2 POP POP JUMP JUMPDEST PUSH0 PUSH2 0x1144 DUP4 DUP4 PUSH2 0x111D JUMP JUMPDEST SWAP2 POP DUP3 PUSH1 0x2 MUL DUP3 OR SWAP1 POP SWAP3 SWAP2 POP POP JUMP JUMPDEST DUP2 DUP2 SUB PUSH2 0x1162 JUMPI POP POP PUSH2 0x1237 JUMP JUMPDEST PUSH2 0x116B DUP3 PUSH2 0xFA2 JUMP JUMPDEST PUSH8 0xFFFFFFFFFFFFFFFF DUP2 GT ISZERO PUSH2 0x1184 JUMPI PUSH2 0x1183 PUSH2 0xA9A JUMP JUMPDEST JUMPDEST PUSH2 0x118E DUP3 SLOAD PUSH2 0xF72 JUMP JUMPDEST PUSH2 0x1199 DUP3 DUP3 DUP6 PUSH2 0x10CB JUMP JUMPDEST PUSH0 PUSH1 0x1F DUP4 GT PUSH1 0x1 DUP2 EQ PUSH2 0x11C6 JUMPI PUSH0 DUP5 ISZERO PUSH2 0x11B4 JUMPI DUP3 DUP8 ADD SLOAD SWAP1 POP JUMPDEST PUSH2 0x11BE DUP6 DUP3 PUSH2 0x1139 JUMP JUMPDEST DUP7 SSTORE POP PUSH2 0x1230 JUMP JUMPDEST PUSH1 0x1F NOT DUP5 AND PUSH2 0x11D4 DUP8 PUSH2 0xFB7 JUMP JUMPDEST SWAP7 POP PUSH2 0x11DF DUP7 PUSH2 0xFB7 JUMP JUMPDEST PUSH0 JUMPDEST DUP3 DUP2 LT ISZERO PUSH2 0x1206 JUMPI DUP5 DUP10 ADD SLOAD DUP3 SSTORE PUSH1 0x1 DUP3 ADD SWAP2 POP PUSH1 0x1 DUP6 ADD SWAP5 POP PUSH1 0x20 DUP2 ADD SWAP1 POP PUSH2 0x11E1 JUMP JUMPDEST DUP7 DUP4 LT ISZERO PUSH2 0x1223 JUMPI DUP5 DUP10 ADD SLOAD PUSH2 0x121F PUSH1 0x1F DUP10 AND DUP3 PUSH2 0x111D JUMP JUMPDEST DUP4 SSTORE POP JUMPDEST PUSH1 0x1 PUSH1 0x2 DUP9 MUL ADD DUP9 SSTORE POP POP POP JUMPDEST POP POP POP POP POP POP JUMPDEST JUMP JUMPDEST PUSH32 0x4E487B7100000000000000000000000000000000000000000000000000000000 PUSH0 MSTORE PUSH1 0x31 PUSH1 0x4 MSTORE PUSH1 0x24 PUSH0 REVERT JUMPDEST PUSH2 0x126F DUP3 PUSH2 0xC5D JUMP JUMPDEST PUSH8 0xFFFFFFFFFFFFFFFF DUP2 GT ISZERO PUSH2 0x1288 JUMPI PUSH2 0x1287 PUSH2 0xA9A JUMP JUMPDEST JUMPDEST PUSH2 0x1292 DUP3 SLOAD PUSH2 0xF72 JUMP JUMPDEST PUSH2 0x129D DUP3 DUP3 DUP6 PUSH2 0x10CB JUMP JUMPDEST PUSH0 PUSH1 0x20 SWAP1 POP PUSH1 0x1F DUP4 GT PUSH1 0x1 DUP2 EQ PUSH2 0x12CE JUMPI PUSH0 DUP5 ISZERO PUSH2 0x12BC JUMPI DUP3 DUP8 ADD MLOAD SWAP1 POP JUMPDEST PUSH2 0x12C6 DUP6 DUP3 PUSH2 0x1139 JUMP JUMPDEST DUP7 SSTORE POP PUSH2 0x132D JUMP JUMPDEST PUSH1 0x1F NOT DUP5 AND PUSH2 0x12DC DUP7 PUSH2 0xFB7 JUMP JUMPDEST PUSH0 JUMPDEST DUP3 DUP2 LT ISZERO PUSH2 0x1303 JUMPI DUP5 DUP10 ADD MLOAD DUP3 SSTORE PUSH1 0x1 DUP3 ADD SWAP2 POP PUSH1 0x20 DUP6 ADD SWAP5 POP PUSH1 0x20 DUP2 ADD SWAP1 POP PUSH2 0x12DE JUMP JUMPDEST DUP7 DUP4 LT ISZERO PUSH2 0x1320 JUMPI DUP5 DUP10 ADD MLOAD PUSH2 0x131C PUSH1 0x1F DUP10 AND DUP3 PUSH2 0x111D JUMP JUMPDEST DUP4 SSTORE POP JUMPDEST PUSH1 0x1 PUSH1 0x2 DUP9 MUL ADD DUP9 SSTORE POP POP POP JUMPDEST POP POP POP POP POP POP JUMP JUMPDEST PUSH0 PUSH1 0x20 DUP3 ADD SWAP1 POP DUP2 DUP2 SUB PUSH0 DUP4 ADD MSTORE PUSH2 0x134D DUP2 DUP5 PUSH2 0xE3D JUMP JUMPDEST SWAP1 POP SWAP3 SWAP2 POP POP JUMP JUMPDEST PUSH0 PUSH2 0x135F DUP3 PUSH2 0xA24 JUMP JUMPDEST SWAP2 POP PUSH2 0x136A DUP4 PUSH2 0xA24 JUMP JUMPDEST SWAP3 POP DUP3 DUP3 ADD SWAP1 POP DUP1 DUP3 GT ISZERO PUSH2 0x1382 JUMPI PUSH2 0x1381 PUSH2 0xEB8 JUMP JUMPDEST JUMPDEST SWAP3 SWAP2 POP POP JUMP JUMPDEST PUSH0 PUSH2 0x1392 DUP3 PUSH2 0xA24 JUMP JUMPDEST SWAP2 POP PUSH32 0xFFFFFFFFFFFFFFFFFFFFFFFFFFFFFFFFFFFFFFFFFFFFFFFFFFFFFFFFFFFFFFFF DUP3 SUB PUSH2 0x13C4 JUMPI PUSH2 0x13C3 PUSH2 0xEB8 JUMP JUMPDEST JUMPDEST PUSH1 0x1 DUP3 ADD SWAP1 POP SWAP2 SWAP1 POP JUMP JUMPDEST PUSH0 DUP2 SLOAD PUSH2 0x13DB DUP2 PUSH2 0xF72 JUMP JUMPDEST PUSH2 0x13E5 DUP2 DUP7 PUSH2 0xE2D JUMP JUMPDEST SWAP5 POP PUSH1 0x1 DUP3 AND PUSH0 DUP2 EQ PUSH2 0x13FF JUMPI PUSH1 0x1 DUP2 EQ PUSH2 0x1415 JUMPI PUSH2 0x1447 JUMP JUMPDEST PUSH1 0xFF NOT DUP4 AND DUP7 MSTORE DUP2 ISZERO ISZERO PUSH1 0x20 MUL DUP7 ADD SWAP4 POP PUSH2 0x1447 JUMP JUMPDEST PUSH2 0x141E DUP6 PUSH2 0xFB7 JUMP JUMPDEST PUSH0 JUMPDEST DUP4 DUP2 LT ISZERO PUSH2 0x143F JUMPI DUP2 SLOAD DUP2 DUP10 ADD MSTORE PUSH1 0x1 DUP3 ADD SWAP2 POP PUSH1 0x20 DUP2 ADD SWAP1 POP PUSH2 0x1420 JUMP JUMPDEST DUP1 DUP9 ADD SWAP6 POP POP POP JUMPDEST POP POP POP SWAP3 SWAP2 POP POP JUMP JUMPDEST PUSH0 PUSH1 0x40 DUP3 ADD SWAP1 POP DUP2 DUP2 SUB PUSH0 DUP4 ADD MSTORE PUSH2 0x1468 DUP2 DUP6 PUSH2 0x13CF JUMP JUMPDEST SWAP1 POP PUSH2 0x1477 PUSH1 0x20 DUP4 ADD DUP5 PUSH2 0xE05 JUMP JUMPDEST SWAP4 SWAP3 POP POP POP JUMP INVALID LOG2 PUSH5 0x6970667358 0x22 SLT KECCAK256 0xD6 DIV 0xEB SWAP10 LOG1 TLOAD SWAP15 0xEA MUL 0x27 PUSH32 0x816A6AEF02B82F8021E91E67186C5A60983CD1421564736F6C634300081A0033 "
		},
		"gasEstimates": {
			"creation": {
				"codeDepositCost": "1060000",
				"executionCost": "53106",
				"totalCost": "1113106"
			},
			"external": {
				"addCandidate(string,string)": "infinite",
				"candidateList(uint256)": "infinite",
				"deleteCandidate(uint256)": "infinite",
				"finishVote()": "29946",
				"getAllCandidates()": "infinite",
				"getTotalVotes()": "infinite",
				"isOwner()": "2541",
				"upVote(uint256)": "infinite"
			}
		},
		"methodIdentifiers": {
			"addCandidate(string,string)": "26541b56",
			"candidateList(uint256)": "b13c744b",
			"deleteCandidate(uint256)": "1e620cd4",
			"finishVote()": "2aebcbb6",
			"getAllCandidates()": "2e6997fe",
			"getTotalVotes()": "9a0e7d66",
			"isOwner()": "8f32d59b",
			"upVote(uint256)": "ec859db5"
		}
	},
	"abi": [
		{
			"inputs": [],
			"stateMutability": "nonpayable",
			"type": "constructor"
		},
		{
			"anonymous": false,
			"inputs": [
				{
					"indexed": false,
					"internalType": "string",
					"name": "name",
					"type": "string"
				}
			],
			"name": "AddCandidate",
			"type": "event"
		},
		{
			"anonymous": false,
			"inputs": [
				{
					"indexed": false,
					"internalType": "uint256",
					"name": "index",
					"type": "uint256"
				}
			],
			"name": "DeleteCandidate",
			"type": "event"
		},
		{
			"anonymous": false,
			"inputs": [
				{
					"indexed": false,
					"internalType": "bool",
					"name": "live",
					"type": "bool"
				}
			],
			"name": "FinishVote",
			"type": "event"
		},
		{
			"anonymous": false,
			"inputs": [
				{
					"indexed": false,
					"internalType": "string",
					"name": "candidate",
					"type": "string"
				},
				{
					"indexed": false,
					"internalType": "uint256",
					"name": "upVote",
					"type": "uint256"
				}
			],
			"name": "UpVote",
			"type": "event"
		},
		{
			"anonymous": false,
			"inputs": [
				{
					"indexed": false,
					"internalType": "address",
					"name": "owner",
					"type": "address"
				}
			],
			"name": "Voting",
			"type": "event"
		},
		{
			"inputs": [
				{
					"internalType": "string",
					"name": "_name",
					"type": "string"
				},
				{
					"internalType": "string",
					"name": "_imageHash",
					"type": "string"
				}
			],
			"name": "addCandidate",
			"outputs": [],
			"stateMutability": "nonpayable",
			"type": "function"
		},
		{
			"inputs": [
				{
					"internalType": "uint256",
					"name": "",
					"type": "uint256"
				}
			],
			"name": "candidateList",
			"outputs": [
				{
					"internalType": "string",
					"name": "name",
					"type": "string"
				},
				{
					"internalType": "string",
					"name": "imageHash",
					"type": "string"
				},
				{
					"internalType": "uint256",
					"name": "upVote",
					"type": "uint256"
				}
			],
			"stateMutability": "view",
			"type": "function"
		},
		{
			"inputs": [
				{
					"internalType": "uint256",
					"name": "_index",
					"type": "uint256"
				}
			],
			"name": "deleteCandidate",
			"outputs": [],
			"stateMutability": "nonpayable",
			"type": "function"
		},
		{
			"inputs": [],
			"name": "finishVote",
			"outputs": [],
			"stateMutability": "nonpayable",
			"type": "function"
		},
		{
			"inputs": [],
			"name": "getAllCandidates",
			"outputs": [
				{
					"components": [
						{
							"internalType": "string",
							"name": "name",
							"type": "string"
						},
						{
							"internalType": "string",
							"name": "imageHash",
							"type": "string"
						},
						{
							"internalType": "uint256",
							"name": "upVote",
							"type": "uint256"
						}
					],
					"internalType": "struct Vote.candidate[]",
					"name": "",
					"type": "tuple[]"
				}
			],
			"stateMutability": "view",
			"type": "function"
		},
		{
			"inputs": [],
			"name": "getTotalVotes",
			"outputs": [
				{
					"internalType": "uint256",
					"name": "",
					"type": "uint256"
				}
			],
			"stateMutability": "view",
			"type": "function"
		},
		{
			"inputs": [],
			"name": "isOwner",
			"outputs": [
				{
					"internalType": "bool",
					"name": "",
					"type": "bool"
				}
			],
			"stateMutability": "view",
			"type": "function"
		},
		{
			"inputs": [
				{
					"internalType": "uint256",
					"name": "_index",
					"type": "uint256"
				}
			],
			"name": "upVote",
			"outputs": [],
			"stateMutability": "nonpayable",
			"type": "function"
		}
	]
}