{
	"data": {
		"bytecode": {
			"linkReferences": {},
			"object": "6080604052348015600e575f80fd5b5061144b8061001c5f395ff3fe608060405234801561000f575f80fd5b506004361061007b575f3560e01c806374a9ced91161005957806374a9ced9146100ea5780637b70e36014610106578063ac2f007414610136578063b384abef146101685761007b565b806311a527461461007f5780631750a3d01461009d57806333b4097b146100b9575b5f80fd5b610087610184565b60405161009491906108df565b60405180910390f35b6100b760048036038101906100b29190610a6f565b61018f565b005b6100d360048036038101906100ce9190610ac9565b6102a6565b6040516100e1929190610cc6565b60405180910390f35b61010460048036038101906100ff9190610cfb565b6104a7565b005b610120600480360381019061011b9190610ac9565b610586565b60405161012d9190610d5c565b60405180910390f35b610150600480360381019061014b9190610ac9565b6105ff565b60405161015f93929190610dfc565b60405180910390f35b610182600480360381019061017d9190610e38565b6106e5565b005b5f8080549050905090565b5f8083815481106101a3576101a2610e76565b5b905f5260205f2090600402019050806003015f9054906101000a900473ffffffffffffffffffffffffffffffffffffffff1673ffffffffffffffffffffffffffffffffffffffff163373ffffffffffffffffffffffffffffffffffffffff1614610242576040517f08c379a000000000000000000000000000000000000000000000000000000000815260040161023990610f13565b60405180910390fd5b8060010160405180604001604052808481526020015f815250908060018154018082558091505060019003905f5260205f2090600202015f909190919091505f820151815f019081610294919061112b565b50602082015181600101555050505050565b6060805f8084815481106102bd576102bc610e76565b5b905f5260205f2090600402019050806001018054905067ffffffffffffffff8111156102ec576102eb61094b565b5b60405190808252806020026020018201604052801561031f57816020015b606081526020019060019003908161030a5790505b509250806001018054905067ffffffffffffffff8111156103435761034261094b565b5b6040519080825280602002602001820160405280156103715781602001602082028036833780820191505090505b5091505f5b81600101805490508110156104a05781600101818154811061039b5761039a610e76565b5b905f5260205f2090600202015f0180546103b490610f5e565b80601f01602080910402602001604051908101604052809291908181526020018280546103e090610f5e565b801561042b5780601f106104025761010080835404028352916020019161042b565b820191905f5260205f20905b81548152906001019060200180831161040e57829003601f168201915b505050505084828151811061044357610442610e76565b5b602002602001018190525081600101818154811061046457610463610e76565b5b905f5260205f2090600202016001015483828151811061048757610486610e76565b5b6020026020010181815250508080600101915050610376565b5050915091565b5f8060018160018154018082558091505003905f5260205f209060040201905081815f0190816104d7919061112b565b5033816003015f6101000a81548173ffffffffffffffffffffffffffffffffffffffff021916908373ffffffffffffffffffffffffffffffffffffffff16021790555060018160030160146101000a81548160ff0219169083151502179055507fdcf7bcca1f330627a2b8cf6826aa79cefcda862ee183dabacd90516b6cd1844360015f805490506105699190611227565b833360405161057a9392919061125a565b60405180910390a15050565b5f805f838154811061059b5761059a610e76565b5b905f5260205f2090600402019050806002015f3373ffffffffffffffffffffffffffffffffffffffff1673ffffffffffffffffffffffffffffffffffffffff1681526020019081526020015f205f015f9054906101000a900460ff16915050919050565b5f818154811061060d575f80fd5b905f5260205f2090600402015f91509050805f01805461062c90610f5e565b80601f016020809104026020016040519081016040528092919081815260200182805461065890610f5e565b80156106a35780601f1061067a576101008083540402835291602001916106a3565b820191905f5260205f20905b81548152906001019060200180831161068657829003601f168201915b505050505090806003015f9054906101000a900473ffffffffffffffffffffffffffffffffffffffff16908060030160149054906101000a900460ff16905083565b5f8083815481106106f9576106f8610e76565b5b905f5260205f20906004020190508060030160149054906101000a900460ff16610758576040517f08c379a000000000000000000000000000000000000000000000000000000000815260040161074f906112e0565b60405180910390fd5b806002015f3373ffffffffffffffffffffffffffffffffffffffff1673ffffffffffffffffffffffffffffffffffffffff1681526020019081526020015f205f015f9054906101000a900460ff16156107e6576040517f08c379a00000000000000000000000000000000000000000000000000000000081526004016107dd90611348565b60405180910390fd5b8060010180549050821061082f576040517f08c379a0000000000000000000000000000000000000000000000000000000008152600401610826906113b0565b60405180910390fd5b6001816002015f3373ffffffffffffffffffffffffffffffffffffffff1673ffffffffffffffffffffffffffffffffffffffff1681526020019081526020015f205f015f6101000a81548160ff02191690831515021790555080600101828154811061089e5761089d610e76565b5b905f5260205f2090600202016001015f8154809291906108bd906113ce565b9190505550505050565b5f819050919050565b6108d9816108c7565b82525050565b5f6020820190506108f25f8301846108d0565b92915050565b5f604051905090565b5f80fd5b5f80fd5b610912816108c7565b811461091c575f80fd5b50565b5f8135905061092d81610909565b92915050565b5f80fd5b5f80fd5b5f601f19601f8301169050919050565b7f4e487b71000000000000000000000000000000000000000000000000000000005f52604160045260245ffd5b6109818261093b565b810181811067ffffffffffffffff821117156109a05761099f61094b565b5b80604052505050565b5f6109b26108f8565b90506109be8282610978565b919050565b5f67ffffffffffffffff8211156109dd576109dc61094b565b5b6109e68261093b565b9050602081019050919050565b828183375f83830152505050565b5f610a13610a0e846109c3565b6109a9565b905082815260208101848484011115610a2f57610a2e610937565b5b610a3a8482856109f3565b509392505050565b5f82601f830112610a5657610a55610933565b5b8135610a66848260208601610a01565b91505092915050565b5f8060408385031215610a8557610a84610901565b5b5f610a928582860161091f565b925050602083013567ffffffffffffffff811115610ab357610ab2610905565b5b610abf85828601610a42565b9150509250929050565b5f60208284031215610ade57610add610901565b5b5f610aeb8482850161091f565b91505092915050565b5f81519050919050565b5f82825260208201905092915050565b5f819050602082019050919050565b5f81519050919050565b5f82825260208201905092915050565b8281835e5f83830152505050565b5f610b4f82610b1d565b610b598185610b27565b9350610b69818560208601610b37565b610b728161093b565b840191505092915050565b5f610b888383610b45565b905092915050565b5f602082019050919050565b5f610ba682610af4565b610bb08185610afe565b935083602082028501610bc285610b0e565b805f5b85811015610bfd5784840389528151610bde8582610b7d565b9450610be983610b90565b925060208a01995050600181019050610bc5565b50829750879550505050505092915050565b5f81519050919050565b5f82825260208201905092915050565b5f819050602082019050919050565b610c41816108c7565b82525050565b5f610c528383610c38565b60208301905092915050565b5f602082019050919050565b5f610c7482610c0f565b610c7e8185610c19565b9350610c8983610c29565b805f5b83811015610cb9578151610ca08882610c47565b9750610cab83610c5e565b925050600181019050610c8c565b5085935050505092915050565b5f6040820190508181035f830152610cde8185610b9c565b90508181036020830152610cf28184610c6a565b90509392505050565b5f60208284031215610d1057610d0f610901565b5b5f82013567ffffffffffffffff811115610d2d57610d2c610905565b5b610d3984828501610a42565b91505092915050565b5f8115159050919050565b610d5681610d42565b82525050565b5f602082019050610d6f5f830184610d4d565b92915050565b5f82825260208201905092915050565b5f610d8f82610b1d565b610d998185610d75565b9350610da9818560208601610b37565b610db28161093b565b840191505092915050565b5f73ffffffffffffffffffffffffffffffffffffffff82169050919050565b5f610de682610dbd565b9050919050565b610df681610ddc565b82525050565b5f6060820190508181035f830152610e148186610d85565b9050610e236020830185610ded565b610e306040830184610d4d565b949350505050565b5f8060408385031215610e4e57610e4d610901565b5b5f610e5b8582860161091f565b9250506020610e6c8582860161091f565b9150509250929050565b7f4e487b71000000000000000000000000000000000000000000000000000000005f52603260045260245ffd5b7f4f6e6c7920746865206f776e65722063616e206164642063616e6469646174655f8201527f7300000000000000000000000000000000000000000000000000000000000000602082015250565b5f610efd602183610d75565b9150610f0882610ea3565b604082019050919050565b5f6020820190508181035f830152610f2a81610ef1565b9050919050565b7f4e487b71000000000000000000000000000000000000000000000000000000005f52602260045260245ffd5b5f6002820490506001821680610f7557607f821691505b602082108103610f8857610f87610f31565b5b50919050565b5f819050815f5260205f209050919050565b5f6020601f8301049050919050565b5f82821b905092915050565b5f60088302610fea7fffffffffffffffffffffffffffffffffffffffffffffffffffffffffffffffff82610faf565b610ff48683610faf565b95508019841693508086168417925050509392505050565b5f819050919050565b5f61102f61102a611025846108c7565b61100c565b6108c7565b9050919050565b5f819050919050565b61104883611015565b61105c61105482611036565b848454610fbb565b825550505050565b5f90565b611070611064565b61107b81848461103f565b505050565b5b8181101561109e576110935f82611068565b600181019050611081565b5050565b601f8211156110e3576110b481610f8e565b6110bd84610fa0565b810160208510156110cc578190505b6110e06110d885610fa0565b830182611080565b50505b505050565b5f82821c905092915050565b5f6111035f19846008026110e8565b1980831691505092915050565b5f61111b83836110f4565b9150826002028217905092915050565b61113482610b1d565b67ffffffffffffffff81111561114d5761114c61094b565b5b6111578254610f5e565b6111628282856110a2565b5f60209050601f831160018114611193575f8415611181578287015190505b61118b8582611110565b8655506111f2565b601f1984166111a186610f8e565b5f5b828110156111c8578489015182556001820191506020850194506020810190506111a3565b868310156111e557848901516111e1601f8916826110f4565b8355505b6001600288020188555050505b505050505050565b7f4e487b71000000000000000000000000000000000000000000000000000000005f52601160045260245ffd5b5f611231826108c7565b915061123c836108c7565b9250828203905081811115611254576112536111fa565b5b92915050565b5f60608201905061126d5f8301866108d0565b818103602083015261127f8185610d85565b905061128e6040830184610ded565b949350505050565b7f506f6c6c206973206e6f742061637469766500000000000000000000000000005f82015250565b5f6112ca601283610d75565b91506112d582611296565b602082019050919050565b5f6020820190508181035f8301526112f7816112be565b9050919050565b7f596f75206861766520616c726561647920766f746564000000000000000000005f82015250565b5f611332601683610d75565b915061133d826112fe565b602082019050919050565b5f6020820190508181035f83015261135f81611326565b9050919050565b7f496e76616c69642063616e64696461746520696e6465780000000000000000005f82015250565b5f61139a601783610d75565b91506113a582611366565b602082019050919050565b5f6020820190508181035f8301526113c78161138e565b9050919050565b5f6113d8826108c7565b91507fffffffffffffffffffffffffffffffffffffffffffffffffffffffffffffffff820361140a576114096111fa565b5b60018201905091905056fea264697066735822122015183f6c1f7ce4656d1fe4c14e63105663344e7c4618fb81db3b4e4ab5b74b0964736f6c634300081a0033",
			"opcodes": "PUSH1 0x80 PUSH1 0x40 MSTORE CALLVALUE DUP1 ISZERO PUSH1 0xE JUMPI PUSH0 DUP1 REVERT JUMPDEST POP PUSH2 0x144B DUP1 PUSH2 0x1C PUSH0 CODECOPY PUSH0 RETURN INVALID PUSH1 0x80 PUSH1 0x40 MSTORE CALLVALUE DUP1 ISZERO PUSH2 0xF JUMPI PUSH0 DUP1 REVERT JUMPDEST POP PUSH1 0x4 CALLDATASIZE LT PUSH2 0x7B JUMPI PUSH0 CALLDATALOAD PUSH1 0xE0 SHR DUP1 PUSH4 0x74A9CED9 GT PUSH2 0x59 JUMPI DUP1 PUSH4 0x74A9CED9 EQ PUSH2 0xEA JUMPI DUP1 PUSH4 0x7B70E360 EQ PUSH2 0x106 JUMPI DUP1 PUSH4 0xAC2F0074 EQ PUSH2 0x136 JUMPI DUP1 PUSH4 0xB384ABEF EQ PUSH2 0x168 JUMPI PUSH2 0x7B JUMP JUMPDEST DUP1 PUSH4 0x11A52746 EQ PUSH2 0x7F JUMPI DUP1 PUSH4 0x1750A3D0 EQ PUSH2 0x9D JUMPI DUP1 PUSH4 0x33B4097B EQ PUSH2 0xB9 JUMPI JUMPDEST PUSH0 DUP1 REVERT JUMPDEST PUSH2 0x87 PUSH2 0x184 JUMP JUMPDEST PUSH1 0x40 MLOAD PUSH2 0x94 SWAP2 SWAP1 PUSH2 0x8DF JUMP JUMPDEST PUSH1 0x40 MLOAD DUP1 SWAP2 SUB SWAP1 RETURN JUMPDEST PUSH2 0xB7 PUSH1 0x4 DUP1 CALLDATASIZE SUB DUP2 ADD SWAP1 PUSH2 0xB2 SWAP2 SWAP1 PUSH2 0xA6F JUMP JUMPDEST PUSH2 0x18F JUMP JUMPDEST STOP JUMPDEST PUSH2 0xD3 PUSH1 0x4 DUP1 CALLDATASIZE SUB DUP2 ADD SWAP1 PUSH2 0xCE SWAP2 SWAP1 PUSH2 0xAC9 JUMP JUMPDEST PUSH2 0x2A6 JUMP JUMPDEST PUSH1 0x40 MLOAD PUSH2 0xE1 SWAP3 SWAP2 SWAP1 PUSH2 0xCC6 JUMP JUMPDEST PUSH1 0x40 MLOAD DUP1 SWAP2 SUB SWAP1 RETURN JUMPDEST PUSH2 0x104 PUSH1 0x4 DUP1 CALLDATASIZE SUB DUP2 ADD SWAP1 PUSH2 0xFF SWAP2 SWAP1 PUSH2 0xCFB JUMP JUMPDEST PUSH2 0x4A7 JUMP JUMPDEST STOP JUMPDEST PUSH2 0x120 PUSH1 0x4 DUP1 CALLDATASIZE SUB DUP2 ADD SWAP1 PUSH2 0x11B SWAP2 SWAP1 PUSH2 0xAC9 JUMP JUMPDEST PUSH2 0x586 JUMP JUMPDEST PUSH1 0x40 MLOAD PUSH2 0x12D SWAP2 SWAP1 PUSH2 0xD5C JUMP JUMPDEST PUSH1 0x40 MLOAD DUP1 SWAP2 SUB SWAP1 RETURN JUMPDEST PUSH2 0x150 PUSH1 0x4 DUP1 CALLDATASIZE SUB DUP2 ADD SWAP1 PUSH2 0x14B SWAP2 SWAP1 PUSH2 0xAC9 JUMP JUMPDEST PUSH2 0x5FF JUMP JUMPDEST PUSH1 0x40 MLOAD PUSH2 0x15F SWAP4 SWAP3 SWAP2 SWAP1 PUSH2 0xDFC JUMP JUMPDEST PUSH1 0x40 MLOAD DUP1 SWAP2 SUB SWAP1 RETURN JUMPDEST PUSH2 0x182 PUSH1 0x4 DUP1 CALLDATASIZE SUB DUP2 ADD SWAP1 PUSH2 0x17D SWAP2 SWAP1 PUSH2 0xE38 JUMP JUMPDEST PUSH2 0x6E5 JUMP JUMPDEST STOP JUMPDEST PUSH0 DUP1 DUP1 SLOAD SWAP1 POP SWAP1 POP SWAP1 JUMP JUMPDEST PUSH0 DUP1 DUP4 DUP2 SLOAD DUP2 LT PUSH2 0x1A3 JUMPI PUSH2 0x1A2 PUSH2 0xE76 JUMP JUMPDEST JUMPDEST SWAP1 PUSH0 MSTORE PUSH1 0x20 PUSH0 KECCAK256 SWAP1 PUSH1 0x4 MUL ADD SWAP1 POP DUP1 PUSH1 0x3 ADD PUSH0 SWAP1 SLOAD SWAP1 PUSH2 0x100 EXP SWAP1 DIV PUSH20 0xFFFFFFFFFFFFFFFFFFFFFFFFFFFFFFFFFFFFFFFF AND PUSH20 0xFFFFFFFFFFFFFFFFFFFFFFFFFFFFFFFFFFFFFFFF AND CALLER PUSH20 0xFFFFFFFFFFFFFFFFFFFFFFFFFFFFFFFFFFFFFFFF AND EQ PUSH2 0x242 JUMPI PUSH1 0x40 MLOAD PUSH32 0x8C379A000000000000000000000000000000000000000000000000000000000 DUP2 MSTORE PUSH1 0x4 ADD PUSH2 0x239 SWAP1 PUSH2 0xF13 JUMP JUMPDEST PUSH1 0x40 MLOAD DUP1 SWAP2 SUB SWAP1 REVERT JUMPDEST DUP1 PUSH1 0x1 ADD PUSH1 0x40 MLOAD DUP1 PUSH1 0x40 ADD PUSH1 0x40 MSTORE DUP1 DUP5 DUP2 MSTORE PUSH1 0x20 ADD PUSH0 DUP2 MSTORE POP SWAP1 DUP1 PUSH1 0x1 DUP2 SLOAD ADD DUP1 DUP3 SSTORE DUP1 SWAP2 POP POP PUSH1 0x1 SWAP1 SUB SWAP1 PUSH0 MSTORE PUSH1 0x20 PUSH0 KECCAK256 SWAP1 PUSH1 0x2 MUL ADD PUSH0 SWAP1 SWAP2 SWAP1 SWAP2 SWAP1 SWAP2 POP PUSH0 DUP3 ADD MLOAD DUP2 PUSH0 ADD SWAP1 DUP2 PUSH2 0x294 SWAP2 SWAP1 PUSH2 0x112B JUMP JUMPDEST POP PUSH1 0x20 DUP3 ADD MLOAD DUP2 PUSH1 0x1 ADD SSTORE POP POP POP POP POP JUMP JUMPDEST PUSH1 0x60 DUP1 PUSH0 DUP1 DUP5 DUP2 SLOAD DUP2 LT PUSH2 0x2BD JUMPI PUSH2 0x2BC PUSH2 0xE76 JUMP JUMPDEST JUMPDEST SWAP1 PUSH0 MSTORE PUSH1 0x20 PUSH0 KECCAK256 SWAP1 PUSH1 0x4 MUL ADD SWAP1 POP DUP1 PUSH1 0x1 ADD DUP1 SLOAD SWAP1 POP PUSH8 0xFFFFFFFFFFFFFFFF DUP2 GT ISZERO PUSH2 0x2EC JUMPI PUSH2 0x2EB PUSH2 0x94B JUMP JUMPDEST JUMPDEST PUSH1 0x40 MLOAD SWAP1 DUP1 DUP3 MSTORE DUP1 PUSH1 0x20 MUL PUSH1 0x20 ADD DUP3 ADD PUSH1 0x40 MSTORE DUP1 ISZERO PUSH2 0x31F JUMPI DUP2 PUSH1 0x20 ADD JUMPDEST PUSH1 0x60 DUP2 MSTORE PUSH1 0x20 ADD SWAP1 PUSH1 0x1 SWAP1 SUB SWAP1 DUP2 PUSH2 0x30A JUMPI SWAP1 POP JUMPDEST POP SWAP3 POP DUP1 PUSH1 0x1 ADD DUP1 SLOAD SWAP1 POP PUSH8 0xFFFFFFFFFFFFFFFF DUP2 GT ISZERO PUSH2 0x343 JUMPI PUSH2 0x342 PUSH2 0x94B JUMP JUMPDEST JUMPDEST PUSH1 0x40 MLOAD SWAP1 DUP1 DUP3 MSTORE DUP1 PUSH1 0x20 MUL PUSH1 0x20 ADD DUP3 ADD PUSH1 0x40 MSTORE DUP1 ISZERO PUSH2 0x371 JUMPI DUP2 PUSH1 0x20 ADD PUSH1 0x20 DUP3 MUL DUP1 CALLDATASIZE DUP4 CALLDATACOPY DUP1 DUP3 ADD SWAP2 POP POP SWAP1 POP JUMPDEST POP SWAP2 POP PUSH0 JUMPDEST DUP2 PUSH1 0x1 ADD DUP1 SLOAD SWAP1 POP DUP2 LT ISZERO PUSH2 0x4A0 JUMPI DUP2 PUSH1 0x1 ADD DUP2 DUP2 SLOAD DUP2 LT PUSH2 0x39B JUMPI PUSH2 0x39A PUSH2 0xE76 JUMP JUMPDEST JUMPDEST SWAP1 PUSH0 MSTORE PUSH1 0x20 PUSH0 KECCAK256 SWAP1 PUSH1 0x2 MUL ADD PUSH0 ADD DUP1 SLOAD PUSH2 0x3B4 SWAP1 PUSH2 0xF5E JUMP JUMPDEST DUP1 PUSH1 0x1F ADD PUSH1 0x20 DUP1 SWAP2 DIV MUL PUSH1 0x20 ADD PUSH1 0x40 MLOAD SWAP1 DUP2 ADD PUSH1 0x40 MSTORE DUP1 SWAP3 SWAP2 SWAP1 DUP2 DUP2 MSTORE PUSH1 0x20 ADD DUP3 DUP1 SLOAD PUSH2 0x3E0 SWAP1 PUSH2 0xF5E JUMP JUMPDEST DUP1 ISZERO PUSH2 0x42B JUMPI DUP1 PUSH1 0x1F LT PUSH2 0x402 JUMPI PUSH2 0x100 DUP1 DUP4 SLOAD DIV MUL DUP4 MSTORE SWAP2 PUSH1 0x20 ADD SWAP2 PUSH2 0x42B JUMP JUMPDEST DUP3 ADD SWAP2 SWAP1 PUSH0 MSTORE PUSH1 0x20 PUSH0 KECCAK256 SWAP1 JUMPDEST DUP2 SLOAD DUP2 MSTORE SWAP1 PUSH1 0x1 ADD SWAP1 PUSH1 0x20 ADD DUP1 DUP4 GT PUSH2 0x40E JUMPI DUP3 SWAP1 SUB PUSH1 0x1F AND DUP3 ADD SWAP2 JUMPDEST POP POP POP POP POP DUP5 DUP3 DUP2 MLOAD DUP2 LT PUSH2 0x443 JUMPI PUSH2 0x442 PUSH2 0xE76 JUMP JUMPDEST JUMPDEST PUSH1 0x20 MUL PUSH1 0x20 ADD ADD DUP2 SWAP1 MSTORE POP DUP2 PUSH1 0x1 ADD DUP2 DUP2 SLOAD DUP2 LT PUSH2 0x464 JUMPI PUSH2 0x463 PUSH2 0xE76 JUMP JUMPDEST JUMPDEST SWAP1 PUSH0 MSTORE PUSH1 0x20 PUSH0 KECCAK256 SWAP1 PUSH1 0x2 MUL ADD PUSH1 0x1 ADD SLOAD DUP4 DUP3 DUP2 MLOAD DUP2 LT PUSH2 0x487 JUMPI PUSH2 0x486 PUSH2 0xE76 JUMP JUMPDEST JUMPDEST PUSH1 0x20 MUL PUSH1 0x20 ADD ADD DUP2 DUP2 MSTORE POP POP DUP1 DUP1 PUSH1 0x1 ADD SWAP2 POP POP PUSH2 0x376 JUMP JUMPDEST POP POP SWAP2 POP SWAP2 JUMP JUMPDEST PUSH0 DUP1 PUSH1 0x1 DUP2 PUSH1 0x1 DUP2 SLOAD ADD DUP1 DUP3 SSTORE DUP1 SWAP2 POP POP SUB SWAP1 PUSH0 MSTORE PUSH1 0x20 PUSH0 KECCAK256 SWAP1 PUSH1 0x4 MUL ADD SWAP1 POP DUP2 DUP2 PUSH0 ADD SWAP1 DUP2 PUSH2 0x4D7 SWAP2 SWAP1 PUSH2 0x112B JUMP JUMPDEST POP CALLER DUP2 PUSH1 0x3 ADD PUSH0 PUSH2 0x100 EXP DUP2 SLOAD DUP2 PUSH20 0xFFFFFFFFFFFFFFFFFFFFFFFFFFFFFFFFFFFFFFFF MUL NOT AND SWAP1 DUP4 PUSH20 0xFFFFFFFFFFFFFFFFFFFFFFFFFFFFFFFFFFFFFFFF AND MUL OR SWAP1 SSTORE POP PUSH1 0x1 DUP2 PUSH1 0x3 ADD PUSH1 0x14 PUSH2 0x100 EXP DUP2 SLOAD DUP2 PUSH1 0xFF MUL NOT AND SWAP1 DUP4 ISZERO ISZERO MUL OR SWAP1 SSTORE POP PUSH32 0xDCF7BCCA1F330627A2B8CF6826AA79CEFCDA862EE183DABACD90516B6CD18443 PUSH1 0x1 PUSH0 DUP1 SLOAD SWAP1 POP PUSH2 0x569 SWAP2 SWAP1 PUSH2 0x1227 JUMP JUMPDEST DUP4 CALLER PUSH1 0x40 MLOAD PUSH2 0x57A SWAP4 SWAP3 SWAP2 SWAP1 PUSH2 0x125A JUMP JUMPDEST PUSH1 0x40 MLOAD DUP1 SWAP2 SUB SWAP1 LOG1 POP POP JUMP JUMPDEST PUSH0 DUP1 PUSH0 DUP4 DUP2 SLOAD DUP2 LT PUSH2 0x59B JUMPI PUSH2 0x59A PUSH2 0xE76 JUMP JUMPDEST JUMPDEST SWAP1 PUSH0 MSTORE PUSH1 0x20 PUSH0 KECCAK256 SWAP1 PUSH1 0x4 MUL ADD SWAP1 POP DUP1 PUSH1 0x2 ADD PUSH0 CALLER PUSH20 0xFFFFFFFFFFFFFFFFFFFFFFFFFFFFFFFFFFFFFFFF AND PUSH20 0xFFFFFFFFFFFFFFFFFFFFFFFFFFFFFFFFFFFFFFFF AND DUP2 MSTORE PUSH1 0x20 ADD SWAP1 DUP2 MSTORE PUSH1 0x20 ADD PUSH0 KECCAK256 PUSH0 ADD PUSH0 SWAP1 SLOAD SWAP1 PUSH2 0x100 EXP SWAP1 DIV PUSH1 0xFF AND SWAP2 POP POP SWAP2 SWAP1 POP JUMP JUMPDEST PUSH0 DUP2 DUP2 SLOAD DUP2 LT PUSH2 0x60D JUMPI PUSH0 DUP1 REVERT JUMPDEST SWAP1 PUSH0 MSTORE PUSH1 0x20 PUSH0 KECCAK256 SWAP1 PUSH1 0x4 MUL ADD PUSH0 SWAP2 POP SWAP1 POP DUP1 PUSH0 ADD DUP1 SLOAD PUSH2 0x62C SWAP1 PUSH2 0xF5E JUMP JUMPDEST DUP1 PUSH1 0x1F ADD PUSH1 0x20 DUP1 SWAP2 DIV MUL PUSH1 0x20 ADD PUSH1 0x40 MLOAD SWAP1 DUP2 ADD PUSH1 0x40 MSTORE DUP1 SWAP3 SWAP2 SWAP1 DUP2 DUP2 MSTORE PUSH1 0x20 ADD DUP3 DUP1 SLOAD PUSH2 0x658 SWAP1 PUSH2 0xF5E JUMP JUMPDEST DUP1 ISZERO PUSH2 0x6A3 JUMPI DUP1 PUSH1 0x1F LT PUSH2 0x67A JUMPI PUSH2 0x100 DUP1 DUP4 SLOAD DIV MUL DUP4 MSTORE SWAP2 PUSH1 0x20 ADD SWAP2 PUSH2 0x6A3 JUMP JUMPDEST DUP3 ADD SWAP2 SWAP1 PUSH0 MSTORE PUSH1 0x20 PUSH0 KECCAK256 SWAP1 JUMPDEST DUP2 SLOAD DUP2 MSTORE SWAP1 PUSH1 0x1 ADD SWAP1 PUSH1 0x20 ADD DUP1 DUP4 GT PUSH2 0x686 JUMPI DUP3 SWAP1 SUB PUSH1 0x1F AND DUP3 ADD SWAP2 JUMPDEST POP POP POP POP POP SWAP1 DUP1 PUSH1 0x3 ADD PUSH0 SWAP1 SLOAD SWAP1 PUSH2 0x100 EXP SWAP1 DIV PUSH20 0xFFFFFFFFFFFFFFFFFFFFFFFFFFFFFFFFFFFFFFFF AND SWAP1 DUP1 PUSH1 0x3 ADD PUSH1 0x14 SWAP1 SLOAD SWAP1 PUSH2 0x100 EXP SWAP1 DIV PUSH1 0xFF AND SWAP1 POP DUP4 JUMP JUMPDEST PUSH0 DUP1 DUP4 DUP2 SLOAD DUP2 LT PUSH2 0x6F9 JUMPI PUSH2 0x6F8 PUSH2 0xE76 JUMP JUMPDEST JUMPDEST SWAP1 PUSH0 MSTORE PUSH1 0x20 PUSH0 KECCAK256 SWAP1 PUSH1 0x4 MUL ADD SWAP1 POP DUP1 PUSH1 0x3 ADD PUSH1 0x14 SWAP1 SLOAD SWAP1 PUSH2 0x100 EXP SWAP1 DIV PUSH1 0xFF AND PUSH2 0x758 JUMPI PUSH1 0x40 MLOAD PUSH32 0x8C379A000000000000000000000000000000000000000000000000000000000 DUP2 MSTORE PUSH1 0x4 ADD PUSH2 0x74F SWAP1 PUSH2 0x12E0 JUMP JUMPDEST PUSH1 0x40 MLOAD DUP1 SWAP2 SUB SWAP1 REVERT JUMPDEST DUP1 PUSH1 0x2 ADD PUSH0 CALLER PUSH20 0xFFFFFFFFFFFFFFFFFFFFFFFFFFFFFFFFFFFFFFFF AND PUSH20 0xFFFFFFFFFFFFFFFFFFFFFFFFFFFFFFFFFFFFFFFF AND DUP2 MSTORE PUSH1 0x20 ADD SWAP1 DUP2 MSTORE PUSH1 0x20 ADD PUSH0 KECCAK256 PUSH0 ADD PUSH0 SWAP1 SLOAD SWAP1 PUSH2 0x100 EXP SWAP1 DIV PUSH1 0xFF AND ISZERO PUSH2 0x7E6 JUMPI PUSH1 0x40 MLOAD PUSH32 0x8C379A000000000000000000000000000000000000000000000000000000000 DUP2 MSTORE PUSH1 0x4 ADD PUSH2 0x7DD SWAP1 PUSH2 0x1348 JUMP JUMPDEST PUSH1 0x40 MLOAD DUP1 SWAP2 SUB SWAP1 REVERT JUMPDEST DUP1 PUSH1 0x1 ADD DUP1 SLOAD SWAP1 POP DUP3 LT PUSH2 0x82F JUMPI PUSH1 0x40 MLOAD PUSH32 0x8C379A000000000000000000000000000000000000000000000000000000000 DUP2 MSTORE PUSH1 0x4 ADD PUSH2 0x826 SWAP1 PUSH2 0x13B0 JUMP JUMPDEST PUSH1 0x40 MLOAD DUP1 SWAP2 SUB SWAP1 REVERT JUMPDEST PUSH1 0x1 DUP2 PUSH1 0x2 ADD PUSH0 CALLER PUSH20 0xFFFFFFFFFFFFFFFFFFFFFFFFFFFFFFFFFFFFFFFF AND PUSH20 0xFFFFFFFFFFFFFFFFFFFFFFFFFFFFFFFFFFFFFFFF AND DUP2 MSTORE PUSH1 0x20 ADD SWAP1 DUP2 MSTORE PUSH1 0x20 ADD PUSH0 KECCAK256 PUSH0 ADD PUSH0 PUSH2 0x100 EXP DUP2 SLOAD DUP2 PUSH1 0xFF MUL NOT AND SWAP1 DUP4 ISZERO ISZERO MUL OR SWAP1 SSTORE POP DUP1 PUSH1 0x1 ADD DUP3 DUP2 SLOAD DUP2 LT PUSH2 0x89E JUMPI PUSH2 0x89D PUSH2 0xE76 JUMP JUMPDEST JUMPDEST SWAP1 PUSH0 MSTORE PUSH1 0x20 PUSH0 KECCAK256 SWAP1 PUSH1 0x2 MUL ADD PUSH1 0x1 ADD PUSH0 DUP2 SLOAD DUP1 SWAP3 SWAP2 SWAP1 PUSH2 0x8BD SWAP1 PUSH2 0x13CE JUMP JUMPDEST SWAP2 SWAP1 POP SSTORE POP POP POP POP JUMP JUMPDEST PUSH0 DUP2 SWAP1 POP SWAP2 SWAP1 POP JUMP JUMPDEST PUSH2 0x8D9 DUP2 PUSH2 0x8C7 JUMP JUMPDEST DUP3 MSTORE POP POP JUMP JUMPDEST PUSH0 PUSH1 0x20 DUP3 ADD SWAP1 POP PUSH2 0x8F2 PUSH0 DUP4 ADD DUP5 PUSH2 0x8D0 JUMP JUMPDEST SWAP3 SWAP2 POP POP JUMP JUMPDEST PUSH0 PUSH1 0x40 MLOAD SWAP1 POP SWAP1 JUMP JUMPDEST PUSH0 DUP1 REVERT JUMPDEST PUSH0 DUP1 REVERT JUMPDEST PUSH2 0x912 DUP2 PUSH2 0x8C7 JUMP JUMPDEST DUP2 EQ PUSH2 0x91C JUMPI PUSH0 DUP1 REVERT JUMPDEST POP JUMP JUMPDEST PUSH0 DUP2 CALLDATALOAD SWAP1 POP PUSH2 0x92D DUP2 PUSH2 0x909 JUMP JUMPDEST SWAP3 SWAP2 POP POP JUMP JUMPDEST PUSH0 DUP1 REVERT JUMPDEST PUSH0 DUP1 REVERT JUMPDEST PUSH0 PUSH1 0x1F NOT PUSH1 0x1F DUP4 ADD AND SWAP1 POP SWAP2 SWAP1 POP JUMP JUMPDEST PUSH32 0x4E487B7100000000000000000000000000000000000000000000000000000000 PUSH0 MSTORE PUSH1 0x41 PUSH1 0x4 MSTORE PUSH1 0x24 PUSH0 REVERT JUMPDEST PUSH2 0x981 DUP3 PUSH2 0x93B JUMP JUMPDEST DUP2 ADD DUP2 DUP2 LT PUSH8 0xFFFFFFFFFFFFFFFF DUP3 GT OR ISZERO PUSH2 0x9A0 JUMPI PUSH2 0x99F PUSH2 0x94B JUMP JUMPDEST JUMPDEST DUP1 PUSH1 0x40 MSTORE POP POP POP JUMP JUMPDEST PUSH0 PUSH2 0x9B2 PUSH2 0x8F8 JUMP JUMPDEST SWAP1 POP PUSH2 0x9BE DUP3 DUP3 PUSH2 0x978 JUMP JUMPDEST SWAP2 SWAP1 POP JUMP JUMPDEST PUSH0 PUSH8 0xFFFFFFFFFFFFFFFF DUP3 GT ISZERO PUSH2 0x9DD JUMPI PUSH2 0x9DC PUSH2 0x94B JUMP JUMPDEST JUMPDEST PUSH2 0x9E6 DUP3 PUSH2 0x93B JUMP JUMPDEST SWAP1 POP PUSH1 0x20 DUP2 ADD SWAP1 POP SWAP2 SWAP1 POP JUMP JUMPDEST DUP3 DUP2 DUP4 CALLDATACOPY PUSH0 DUP4 DUP4 ADD MSTORE POP POP POP JUMP JUMPDEST PUSH0 PUSH2 0xA13 PUSH2 0xA0E DUP5 PUSH2 0x9C3 JUMP JUMPDEST PUSH2 0x9A9 JUMP JUMPDEST SWAP1 POP DUP3 DUP2 MSTORE PUSH1 0x20 DUP2 ADD DUP5 DUP5 DUP5 ADD GT ISZERO PUSH2 0xA2F JUMPI PUSH2 0xA2E PUSH2 0x937 JUMP JUMPDEST JUMPDEST PUSH2 0xA3A DUP5 DUP3 DUP6 PUSH2 0x9F3 JUMP JUMPDEST POP SWAP4 SWAP3 POP POP POP JUMP JUMPDEST PUSH0 DUP3 PUSH1 0x1F DUP4 ADD SLT PUSH2 0xA56 JUMPI PUSH2 0xA55 PUSH2 0x933 JUMP JUMPDEST JUMPDEST DUP2 CALLDATALOAD PUSH2 0xA66 DUP5 DUP3 PUSH1 0x20 DUP7 ADD PUSH2 0xA01 JUMP JUMPDEST SWAP2 POP POP SWAP3 SWAP2 POP POP JUMP JUMPDEST PUSH0 DUP1 PUSH1 0x40 DUP4 DUP6 SUB SLT ISZERO PUSH2 0xA85 JUMPI PUSH2 0xA84 PUSH2 0x901 JUMP JUMPDEST JUMPDEST PUSH0 PUSH2 0xA92 DUP6 DUP3 DUP7 ADD PUSH2 0x91F JUMP JUMPDEST SWAP3 POP POP PUSH1 0x20 DUP4 ADD CALLDATALOAD PUSH8 0xFFFFFFFFFFFFFFFF DUP2 GT ISZERO PUSH2 0xAB3 JUMPI PUSH2 0xAB2 PUSH2 0x905 JUMP JUMPDEST JUMPDEST PUSH2 0xABF DUP6 DUP3 DUP7 ADD PUSH2 0xA42 JUMP JUMPDEST SWAP2 POP POP SWAP3 POP SWAP3 SWAP1 POP JUMP JUMPDEST PUSH0 PUSH1 0x20 DUP3 DUP5 SUB SLT ISZERO PUSH2 0xADE JUMPI PUSH2 0xADD PUSH2 0x901 JUMP JUMPDEST JUMPDEST PUSH0 PUSH2 0xAEB DUP5 DUP3 DUP6 ADD PUSH2 0x91F JUMP JUMPDEST SWAP2 POP POP SWAP3 SWAP2 POP POP JUMP JUMPDEST PUSH0 DUP2 MLOAD SWAP1 POP SWAP2 SWAP1 POP JUMP JUMPDEST PUSH0 DUP3 DUP3 MSTORE PUSH1 0x20 DUP3 ADD SWAP1 POP SWAP3 SWAP2 POP POP JUMP JUMPDEST PUSH0 DUP2 SWAP1 POP PUSH1 0x20 DUP3 ADD SWAP1 POP SWAP2 SWAP1 POP JUMP JUMPDEST PUSH0 DUP2 MLOAD SWAP1 POP SWAP2 SWAP1 POP JUMP JUMPDEST PUSH0 DUP3 DUP3 MSTORE PUSH1 0x20 DUP3 ADD SWAP1 POP SWAP3 SWAP2 POP POP JUMP JUMPDEST DUP3 DUP2 DUP4 MCOPY PUSH0 DUP4 DUP4 ADD MSTORE POP POP POP JUMP JUMPDEST PUSH0 PUSH2 0xB4F DUP3 PUSH2 0xB1D JUMP JUMPDEST PUSH2 0xB59 DUP2 DUP6 PUSH2 0xB27 JUMP JUMPDEST SWAP4 POP PUSH2 0xB69 DUP2 DUP6 PUSH1 0x20 DUP7 ADD PUSH2 0xB37 JUMP JUMPDEST PUSH2 0xB72 DUP2 PUSH2 0x93B JUMP JUMPDEST DUP5 ADD SWAP2 POP POP SWAP3 SWAP2 POP POP JUMP JUMPDEST PUSH0 PUSH2 0xB88 DUP4 DUP4 PUSH2 0xB45 JUMP JUMPDEST SWAP1 POP SWAP3 SWAP2 POP POP JUMP JUMPDEST PUSH0 PUSH1 0x20 DUP3 ADD SWAP1 POP SWAP2 SWAP1 POP JUMP JUMPDEST PUSH0 PUSH2 0xBA6 DUP3 PUSH2 0xAF4 JUMP JUMPDEST PUSH2 0xBB0 DUP2 DUP6 PUSH2 0xAFE JUMP JUMPDEST SWAP4 POP DUP4 PUSH1 0x20 DUP3 MUL DUP6 ADD PUSH2 0xBC2 DUP6 PUSH2 0xB0E JUMP JUMPDEST DUP1 PUSH0 JUMPDEST DUP6 DUP2 LT ISZERO PUSH2 0xBFD JUMPI DUP5 DUP5 SUB DUP10 MSTORE DUP2 MLOAD PUSH2 0xBDE DUP6 DUP3 PUSH2 0xB7D JUMP JUMPDEST SWAP5 POP PUSH2 0xBE9 DUP4 PUSH2 0xB90 JUMP JUMPDEST SWAP3 POP PUSH1 0x20 DUP11 ADD SWAP10 POP POP PUSH1 0x1 DUP2 ADD SWAP1 POP PUSH2 0xBC5 JUMP JUMPDEST POP DUP3 SWAP8 POP DUP8 SWAP6 POP POP POP POP POP POP SWAP3 SWAP2 POP POP JUMP JUMPDEST PUSH0 DUP2 MLOAD SWAP1 POP SWAP2 SWAP1 POP JUMP JUMPDEST PUSH0 DUP3 DUP3 MSTORE PUSH1 0x20 DUP3 ADD SWAP1 POP SWAP3 SWAP2 POP POP JUMP JUMPDEST PUSH0 DUP2 SWAP1 POP PUSH1 0x20 DUP3 ADD SWAP1 POP SWAP2 SWAP1 POP JUMP JUMPDEST PUSH2 0xC41 DUP2 PUSH2 0x8C7 JUMP JUMPDEST DUP3 MSTORE POP POP JUMP JUMPDEST PUSH0 PUSH2 0xC52 DUP4 DUP4 PUSH2 0xC38 JUMP JUMPDEST PUSH1 0x20 DUP4 ADD SWAP1 POP SWAP3 SWAP2 POP POP JUMP JUMPDEST PUSH0 PUSH1 0x20 DUP3 ADD SWAP1 POP SWAP2 SWAP1 POP JUMP JUMPDEST PUSH0 PUSH2 0xC74 DUP3 PUSH2 0xC0F JUMP JUMPDEST PUSH2 0xC7E DUP2 DUP6 PUSH2 0xC19 JUMP JUMPDEST SWAP4 POP PUSH2 0xC89 DUP4 PUSH2 0xC29 JUMP JUMPDEST DUP1 PUSH0 JUMPDEST DUP4 DUP2 LT ISZERO PUSH2 0xCB9 JUMPI DUP2 MLOAD PUSH2 0xCA0 DUP9 DUP3 PUSH2 0xC47 JUMP JUMPDEST SWAP8 POP PUSH2 0xCAB DUP4 PUSH2 0xC5E JUMP JUMPDEST SWAP3 POP POP PUSH1 0x1 DUP2 ADD SWAP1 POP PUSH2 0xC8C JUMP JUMPDEST POP DUP6 SWAP4 POP POP POP POP SWAP3 SWAP2 POP POP JUMP JUMPDEST PUSH0 PUSH1 0x40 DUP3 ADD SWAP1 POP DUP2 DUP2 SUB PUSH0 DUP4 ADD MSTORE PUSH2 0xCDE DUP2 DUP6 PUSH2 0xB9C JUMP JUMPDEST SWAP1 POP DUP2 DUP2 SUB PUSH1 0x20 DUP4 ADD MSTORE PUSH2 0xCF2 DUP2 DUP5 PUSH2 0xC6A JUMP JUMPDEST SWAP1 POP SWAP4 SWAP3 POP POP POP JUMP JUMPDEST PUSH0 PUSH1 0x20 DUP3 DUP5 SUB SLT ISZERO PUSH2 0xD10 JUMPI PUSH2 0xD0F PUSH2 0x901 JUMP JUMPDEST JUMPDEST PUSH0 DUP3 ADD CALLDATALOAD PUSH8 0xFFFFFFFFFFFFFFFF DUP2 GT ISZERO PUSH2 0xD2D JUMPI PUSH2 0xD2C PUSH2 0x905 JUMP JUMPDEST JUMPDEST PUSH2 0xD39 DUP5 DUP3 DUP6 ADD PUSH2 0xA42 JUMP JUMPDEST SWAP2 POP POP SWAP3 SWAP2 POP POP JUMP JUMPDEST PUSH0 DUP2 ISZERO ISZERO SWAP1 POP SWAP2 SWAP1 POP JUMP JUMPDEST PUSH2 0xD56 DUP2 PUSH2 0xD42 JUMP JUMPDEST DUP3 MSTORE POP POP JUMP JUMPDEST PUSH0 PUSH1 0x20 DUP3 ADD SWAP1 POP PUSH2 0xD6F PUSH0 DUP4 ADD DUP5 PUSH2 0xD4D JUMP JUMPDEST SWAP3 SWAP2 POP POP JUMP JUMPDEST PUSH0 DUP3 DUP3 MSTORE PUSH1 0x20 DUP3 ADD SWAP1 POP SWAP3 SWAP2 POP POP JUMP JUMPDEST PUSH0 PUSH2 0xD8F DUP3 PUSH2 0xB1D JUMP JUMPDEST PUSH2 0xD99 DUP2 DUP6 PUSH2 0xD75 JUMP JUMPDEST SWAP4 POP PUSH2 0xDA9 DUP2 DUP6 PUSH1 0x20 DUP7 ADD PUSH2 0xB37 JUMP JUMPDEST PUSH2 0xDB2 DUP2 PUSH2 0x93B JUMP JUMPDEST DUP5 ADD SWAP2 POP POP SWAP3 SWAP2 POP POP JUMP JUMPDEST PUSH0 PUSH20 0xFFFFFFFFFFFFFFFFFFFFFFFFFFFFFFFFFFFFFFFF DUP3 AND SWAP1 POP SWAP2 SWAP1 POP JUMP JUMPDEST PUSH0 PUSH2 0xDE6 DUP3 PUSH2 0xDBD JUMP JUMPDEST SWAP1 POP SWAP2 SWAP1 POP JUMP JUMPDEST PUSH2 0xDF6 DUP2 PUSH2 0xDDC JUMP JUMPDEST DUP3 MSTORE POP POP JUMP JUMPDEST PUSH0 PUSH1 0x60 DUP3 ADD SWAP1 POP DUP2 DUP2 SUB PUSH0 DUP4 ADD MSTORE PUSH2 0xE14 DUP2 DUP7 PUSH2 0xD85 JUMP JUMPDEST SWAP1 POP PUSH2 0xE23 PUSH1 0x20 DUP4 ADD DUP6 PUSH2 0xDED JUMP JUMPDEST PUSH2 0xE30 PUSH1 0x40 DUP4 ADD DUP5 PUSH2 0xD4D JUMP JUMPDEST SWAP5 SWAP4 POP POP POP POP JUMP JUMPDEST PUSH0 DUP1 PUSH1 0x40 DUP4 DUP6 SUB SLT ISZERO PUSH2 0xE4E JUMPI PUSH2 0xE4D PUSH2 0x901 JUMP JUMPDEST JUMPDEST PUSH0 PUSH2 0xE5B DUP6 DUP3 DUP7 ADD PUSH2 0x91F JUMP JUMPDEST SWAP3 POP POP PUSH1 0x20 PUSH2 0xE6C DUP6 DUP3 DUP7 ADD PUSH2 0x91F JUMP JUMPDEST SWAP2 POP POP SWAP3 POP SWAP3 SWAP1 POP JUMP JUMPDEST PUSH32 0x4E487B7100000000000000000000000000000000000000000000000000000000 PUSH0 MSTORE PUSH1 0x32 PUSH1 0x4 MSTORE PUSH1 0x24 PUSH0 REVERT JUMPDEST PUSH32 0x4F6E6C7920746865206F776E65722063616E206164642063616E646964617465 PUSH0 DUP3 ADD MSTORE PUSH32 0x7300000000000000000000000000000000000000000000000000000000000000 PUSH1 0x20 DUP3 ADD MSTORE POP JUMP JUMPDEST PUSH0 PUSH2 0xEFD PUSH1 0x21 DUP4 PUSH2 0xD75 JUMP JUMPDEST SWAP2 POP PUSH2 0xF08 DUP3 PUSH2 0xEA3 JUMP JUMPDEST PUSH1 0x40 DUP3 ADD SWAP1 POP SWAP2 SWAP1 POP JUMP JUMPDEST PUSH0 PUSH1 0x20 DUP3 ADD SWAP1 POP DUP2 DUP2 SUB PUSH0 DUP4 ADD MSTORE PUSH2 0xF2A DUP2 PUSH2 0xEF1 JUMP JUMPDEST SWAP1 POP SWAP2 SWAP1 POP JUMP JUMPDEST PUSH32 0x4E487B7100000000000000000000000000000000000000000000000000000000 PUSH0 MSTORE PUSH1 0x22 PUSH1 0x4 MSTORE PUSH1 0x24 PUSH0 REVERT JUMPDEST PUSH0 PUSH1 0x2 DUP3 DIV SWAP1 POP PUSH1 0x1 DUP3 AND DUP1 PUSH2 0xF75 JUMPI PUSH1 0x7F DUP3 AND SWAP2 POP JUMPDEST PUSH1 0x20 DUP3 LT DUP2 SUB PUSH2 0xF88 JUMPI PUSH2 0xF87 PUSH2 0xF31 JUMP JUMPDEST JUMPDEST POP SWAP2 SWAP1 POP JUMP JUMPDEST PUSH0 DUP2 SWAP1 POP DUP2 PUSH0 MSTORE PUSH1 0x20 PUSH0 KECCAK256 SWAP1 POP SWAP2 SWAP1 POP JUMP JUMPDEST PUSH0 PUSH1 0x20 PUSH1 0x1F DUP4 ADD DIV SWAP1 POP SWAP2 SWAP1 POP JUMP JUMPDEST PUSH0 DUP3 DUP3 SHL SWAP1 POP SWAP3 SWAP2 POP POP JUMP JUMPDEST PUSH0 PUSH1 0x8 DUP4 MUL PUSH2 0xFEA PUSH32 0xFFFFFFFFFFFFFFFFFFFFFFFFFFFFFFFFFFFFFFFFFFFFFFFFFFFFFFFFFFFFFFFF DUP3 PUSH2 0xFAF JUMP JUMPDEST PUSH2 0xFF4 DUP7 DUP4 PUSH2 0xFAF JUMP JUMPDEST SWAP6 POP DUP1 NOT DUP5 AND SWAP4 POP DUP1 DUP7 AND DUP5 OR SWAP3 POP POP POP SWAP4 SWAP3 POP POP POP JUMP JUMPDEST PUSH0 DUP2 SWAP1 POP SWAP2 SWAP1 POP JUMP JUMPDEST PUSH0 PUSH2 0x102F PUSH2 0x102A PUSH2 0x1025 DUP5 PUSH2 0x8C7 JUMP JUMPDEST PUSH2 0x100C JUMP JUMPDEST PUSH2 0x8C7 JUMP JUMPDEST SWAP1 POP SWAP2 SWAP1 POP JUMP JUMPDEST PUSH0 DUP2 SWAP1 POP SWAP2 SWAP1 POP JUMP JUMPDEST PUSH2 0x1048 DUP4 PUSH2 0x1015 JUMP JUMPDEST PUSH2 0x105C PUSH2 0x1054 DUP3 PUSH2 0x1036 JUMP JUMPDEST DUP5 DUP5 SLOAD PUSH2 0xFBB JUMP JUMPDEST DUP3 SSTORE POP POP POP POP JUMP JUMPDEST PUSH0 SWAP1 JUMP JUMPDEST PUSH2 0x1070 PUSH2 0x1064 JUMP JUMPDEST PUSH2 0x107B DUP2 DUP5 DUP5 PUSH2 0x103F JUMP JUMPDEST POP POP POP JUMP JUMPDEST JUMPDEST DUP2 DUP2 LT ISZERO PUSH2 0x109E JUMPI PUSH2 0x1093 PUSH0 DUP3 PUSH2 0x1068 JUMP JUMPDEST PUSH1 0x1 DUP2 ADD SWAP1 POP PUSH2 0x1081 JUMP JUMPDEST POP POP JUMP JUMPDEST PUSH1 0x1F DUP3 GT ISZERO PUSH2 0x10E3 JUMPI PUSH2 0x10B4 DUP2 PUSH2 0xF8E JUMP JUMPDEST PUSH2 0x10BD DUP5 PUSH2 0xFA0 JUMP JUMPDEST DUP2 ADD PUSH1 0x20 DUP6 LT ISZERO PUSH2 0x10CC JUMPI DUP2 SWAP1 POP JUMPDEST PUSH2 0x10E0 PUSH2 0x10D8 DUP6 PUSH2 0xFA0 JUMP JUMPDEST DUP4 ADD DUP3 PUSH2 0x1080 JUMP JUMPDEST POP POP JUMPDEST POP POP POP JUMP JUMPDEST PUSH0 DUP3 DUP3 SHR SWAP1 POP SWAP3 SWAP2 POP POP JUMP JUMPDEST PUSH0 PUSH2 0x1103 PUSH0 NOT DUP5 PUSH1 0x8 MUL PUSH2 0x10E8 JUMP JUMPDEST NOT DUP1 DUP4 AND SWAP2 POP POP SWAP3 SWAP2 POP POP JUMP JUMPDEST PUSH0 PUSH2 0x111B DUP4 DUP4 PUSH2 0x10F4 JUMP JUMPDEST SWAP2 POP DUP3 PUSH1 0x2 MUL DUP3 OR SWAP1 POP SWAP3 SWAP2 POP POP JUMP JUMPDEST PUSH2 0x1134 DUP3 PUSH2 0xB1D JUMP JUMPDEST PUSH8 0xFFFFFFFFFFFFFFFF DUP2 GT ISZERO PUSH2 0x114D JUMPI PUSH2 0x114C PUSH2 0x94B JUMP JUMPDEST JUMPDEST PUSH2 0x1157 DUP3 SLOAD PUSH2 0xF5E JUMP JUMPDEST PUSH2 0x1162 DUP3 DUP3 DUP6 PUSH2 0x10A2 JUMP JUMPDEST PUSH0 PUSH1 0x20 SWAP1 POP PUSH1 0x1F DUP4 GT PUSH1 0x1 DUP2 EQ PUSH2 0x1193 JUMPI PUSH0 DUP5 ISZERO PUSH2 0x1181 JUMPI DUP3 DUP8 ADD MLOAD SWAP1 POP JUMPDEST PUSH2 0x118B DUP6 DUP3 PUSH2 0x1110 JUMP JUMPDEST DUP7 SSTORE POP PUSH2 0x11F2 JUMP JUMPDEST PUSH1 0x1F NOT DUP5 AND PUSH2 0x11A1 DUP7 PUSH2 0xF8E JUMP JUMPDEST PUSH0 JUMPDEST DUP3 DUP2 LT ISZERO PUSH2 0x11C8 JUMPI DUP5 DUP10 ADD MLOAD DUP3 SSTORE PUSH1 0x1 DUP3 ADD SWAP2 POP PUSH1 0x20 DUP6 ADD SWAP5 POP PUSH1 0x20 DUP2 ADD SWAP1 POP PUSH2 0x11A3 JUMP JUMPDEST DUP7 DUP4 LT ISZERO PUSH2 0x11E5 JUMPI DUP5 DUP10 ADD MLOAD PUSH2 0x11E1 PUSH1 0x1F DUP10 AND DUP3 PUSH2 0x10F4 JUMP JUMPDEST DUP4 SSTORE POP JUMPDEST PUSH1 0x1 PUSH1 0x2 DUP9 MUL ADD DUP9 SSTORE POP POP POP JUMPDEST POP POP POP POP POP POP JUMP JUMPDEST PUSH32 0x4E487B7100000000000000000000000000000000000000000000000000000000 PUSH0 MSTORE PUSH1 0x11 PUSH1 0x4 MSTORE PUSH1 0x24 PUSH0 REVERT JUMPDEST PUSH0 PUSH2 0x1231 DUP3 PUSH2 0x8C7 JUMP JUMPDEST SWAP2 POP PUSH2 0x123C DUP4 PUSH2 0x8C7 JUMP JUMPDEST SWAP3 POP DUP3 DUP3 SUB SWAP1 POP DUP2 DUP2 GT ISZERO PUSH2 0x1254 JUMPI PUSH2 0x1253 PUSH2 0x11FA JUMP JUMPDEST JUMPDEST SWAP3 SWAP2 POP POP JUMP JUMPDEST PUSH0 PUSH1 0x60 DUP3 ADD SWAP1 POP PUSH2 0x126D PUSH0 DUP4 ADD DUP7 PUSH2 0x8D0 JUMP JUMPDEST DUP2 DUP2 SUB PUSH1 0x20 DUP4 ADD MSTORE PUSH2 0x127F DUP2 DUP6 PUSH2 0xD85 JUMP JUMPDEST SWAP1 POP PUSH2 0x128E PUSH1 0x40 DUP4 ADD DUP5 PUSH2 0xDED JUMP JUMPDEST SWAP5 SWAP4 POP POP POP POP JUMP JUMPDEST PUSH32 0x506F6C6C206973206E6F74206163746976650000000000000000000000000000 PUSH0 DUP3 ADD MSTORE POP JUMP JUMPDEST PUSH0 PUSH2 0x12CA PUSH1 0x12 DUP4 PUSH2 0xD75 JUMP JUMPDEST SWAP2 POP PUSH2 0x12D5 DUP3 PUSH2 0x1296 JUMP JUMPDEST PUSH1 0x20 DUP3 ADD SWAP1 POP SWAP2 SWAP1 POP JUMP JUMPDEST PUSH0 PUSH1 0x20 DUP3 ADD SWAP1 POP DUP2 DUP2 SUB PUSH0 DUP4 ADD MSTORE PUSH2 0x12F7 DUP2 PUSH2 0x12BE JUMP JUMPDEST SWAP1 POP SWAP2 SWAP1 POP JUMP JUMPDEST PUSH32 0x596F75206861766520616C726561647920766F74656400000000000000000000 PUSH0 DUP3 ADD MSTORE POP JUMP JUMPDEST PUSH0 PUSH2 0x1332 PUSH1 0x16 DUP4 PUSH2 0xD75 JUMP JUMPDEST SWAP2 POP PUSH2 0x133D DUP3 PUSH2 0x12FE JUMP JUMPDEST PUSH1 0x20 DUP3 ADD SWAP1 POP SWAP2 SWAP1 POP JUMP JUMPDEST PUSH0 PUSH1 0x20 DUP3 ADD SWAP1 POP DUP2 DUP2 SUB PUSH0 DUP4 ADD MSTORE PUSH2 0x135F DUP2 PUSH2 0x1326 JUMP JUMPDEST SWAP1 POP SWAP2 SWAP1 POP JUMP JUMPDEST PUSH32 0x496E76616C69642063616E64696461746520696E646578000000000000000000 PUSH0 DUP3 ADD MSTORE POP JUMP JUMPDEST PUSH0 PUSH2 0x139A PUSH1 0x17 DUP4 PUSH2 0xD75 JUMP JUMPDEST SWAP2 POP PUSH2 0x13A5 DUP3 PUSH2 0x1366 JUMP JUMPDEST PUSH1 0x20 DUP3 ADD SWAP1 POP SWAP2 SWAP1 POP JUMP JUMPDEST PUSH0 PUSH1 0x20 DUP3 ADD SWAP1 POP DUP2 DUP2 SUB PUSH0 DUP4 ADD MSTORE PUSH2 0x13C7 DUP2 PUSH2 0x138E JUMP JUMPDEST SWAP1 POP SWAP2 SWAP1 POP JUMP JUMPDEST PUSH0 PUSH2 0x13D8 DUP3 PUSH2 0x8C7 JUMP JUMPDEST SWAP2 POP PUSH32 0xFFFFFFFFFFFFFFFFFFFFFFFFFFFFFFFFFFFFFFFFFFFFFFFFFFFFFFFFFFFFFFFF DUP3 SUB PUSH2 0x140A JUMPI PUSH2 0x1409 PUSH2 0x11FA JUMP JUMPDEST JUMPDEST PUSH1 0x1 DUP3 ADD SWAP1 POP SWAP2 SWAP1 POP JUMP INVALID LOG2 PUSH5 0x6970667358 0x22 SLT KECCAK256 ISZERO XOR EXTCODEHASH PUSH13 0x1F7CE4656D1FE4C14E63105663 CALLVALUE 0x4E PUSH29 0x4618FB81DB3B4E4AB5B74B0964736F6C634300081A0033000000000000 "
		},
		"gasEstimates": {
			"creation": {
				"codeDepositCost": "1039000",
				"executionCost": "1078",
				"totalCost": "1040078"
			},
			"external": {
				"addCandidate(uint256,string)": "infinite",
				"createPoll(string)": "infinite",
				"getHasVoted(uint256)": "5055",
				"getPollCount()": "2441",
				"getPollResults(uint256)": "infinite",
				"polls(uint256)": "infinite",
				"vote(uint256,uint256)": "infinite"
			}
		},
		"methodIdentifiers": {
			"addCandidate(uint256,string)": "1750a3d0",
			"createPoll(string)": "74a9ced9",
			"getHasVoted(uint256)": "7b70e360",
			"getPollCount()": "11a52746",
			"getPollResults(uint256)": "33b4097b",
			"polls(uint256)": "ac2f0074",
			"vote(uint256,uint256)": "b384abef"
		}
	},
	"abi": [
		{
			"anonymous": false,
			"inputs": [
				{
					"indexed": false,
					"internalType": "uint256",
					"name": "pollId",
					"type": "uint256"
				},
				{
					"indexed": false,
					"internalType": "string",
					"name": "question",
					"type": "string"
				},
				{
					"indexed": false,
					"internalType": "address",
					"name": "owner",
					"type": "address"
				}
			],
			"name": "CreatePoll",
			"type": "event"
		},
		{
			"inputs": [
				{
					"internalType": "uint256",
					"name": "_pollId",
					"type": "uint256"
				},
				{
					"internalType": "string",
					"name": "_name",
					"type": "string"
				}
			],
			"name": "addCandidate",
			"outputs": [],
			"stateMutability": "nonpayable",
			"type": "function"
		},
		{
			"inputs": [
				{
					"internalType": "string",
					"name": "_question",
					"type": "string"
				}
			],
			"name": "createPoll",
			"outputs": [],
			"stateMutability": "nonpayable",
			"type": "function"
		},
		{
			"inputs": [
				{
					"internalType": "uint256",
					"name": "_pollId",
					"type": "uint256"
				}
			],
			"name": "getHasVoted",
			"outputs": [
				{
					"internalType": "bool",
					"name": "",
					"type": "bool"
				}
			],
			"stateMutability": "view",
			"type": "function"
		},
		{
			"inputs": [],
			"name": "getPollCount",
			"outputs": [
				{
					"internalType": "uint256",
					"name": "",
					"type": "uint256"
				}
			],
			"stateMutability": "view",
			"type": "function"
		},
		{
			"inputs": [
				{
					"internalType": "uint256",
					"name": "_pollId",
					"type": "uint256"
				}
			],
			"name": "getPollResults",
			"outputs": [
				{
					"internalType": "string[]",
					"name": "names",
					"type": "string[]"
				},
				{
					"internalType": "uint256[]",
					"name": "votes",
					"type": "uint256[]"
				}
			],
			"stateMutability": "view",
			"type": "function"
		},
		{
			"inputs": [
				{
					"internalType": "uint256",
					"name": "",
					"type": "uint256"
				}
			],
			"name": "polls",
			"outputs": [
				{
					"internalType": "string",
					"name": "question",
					"type": "string"
				},
				{
					"internalType": "address",
					"name": "owner",
					"type": "address"
				},
				{
					"internalType": "bool",
					"name": "isActive",
					"type": "bool"
				}
			],
			"stateMutability": "view",
			"type": "function"
		},
		{
			"inputs": [
				{
					"internalType": "uint256",
					"name": "_pollId",
					"type": "uint256"
				},
				{
					"internalType": "uint256",
					"name": "_candidateIndex",
					"type": "uint256"
				}
			],
			"name": "vote",
			"outputs": [],
			"stateMutability": "nonpayable",
			"type": "function"
		}
	]
}