{
	"blockchain/practice/vote-app.sol": {
		"Vote": {
			"abi": [
				{
					"inputs": [],
					"stateMutability": "nonpayable",
					"type": "constructor"
				},
				{
					"anonymous": false,
					"inputs": [
						{
							"indexed": false,
							"internalType": "string",
							"name": "name",
							"type": "string"
						}
					],
					"name": "AddCandidate",
					"type": "event"
				},
				{
					"anonymous": false,
					"inputs": [
						{
							"indexed": false,
							"internalType": "uint256",
							"name": "index",
							"type": "uint256"
						}
					],
					"name": "DeleteCandidate",
					"type": "event"
				},
				{
					"anonymous": false,
					"inputs": [
						{
							"indexed": false,
							"internalType": "bool",
							"name": "live",
							"type": "bool"
						}
					],
					"name": "FinishVote",
					"type": "event"
				},
				{
					"anonymous": false,
					"inputs": [
						{
							"indexed": false,
							"internalType": "string",
							"name": "candidate",
							"type": "string"
						},
						{
							"indexed": false,
							"internalType": "uint256",
							"name": "upVote",
							"type": "uint256"
						}
					],
					"name": "UpVote",
					"type": "event"
				},
				{
					"anonymous": false,
					"inputs": [
						{
							"indexed": false,
							"internalType": "address",
							"name": "owner",
							"type": "address"
						}
					],
					"name": "Voting",
					"type": "event"
				},
				{
					"inputs": [
						{
							"internalType": "string",
							"name": "_name",
							"type": "string"
						}
					],
					"name": "addCandidate",
					"outputs": [],
					"stateMutability": "nonpayable",
					"type": "function"
				},
				{
					"inputs": [
						{
							"internalType": "uint256",
							"name": "",
							"type": "uint256"
						}
					],
					"name": "candidateList",
					"outputs": [
						{
							"internalType": "string",
							"name": "name",
							"type": "string"
						},
						{
							"internalType": "uint256",
							"name": "upVote",
							"type": "uint256"
						}
					],
					"stateMutability": "view",
					"type": "function"
				},
				{
					"inputs": [
						{
							"internalType": "uint256",
							"name": "_index",
							"type": "uint256"
						}
					],
					"name": "deleteCandidate",
					"outputs": [],
					"stateMutability": "nonpayable",
					"type": "function"
				},
				{
					"inputs": [],
					"name": "finishVote",
					"outputs": [],
					"stateMutability": "nonpayable",
					"type": "function"
				},
				{
					"inputs": [],
					"name": "getAllCandidates",
					"outputs": [
						{
							"components": [
								{
									"internalType": "string",
									"name": "name",
									"type": "string"
								},
								{
									"internalType": "uint256",
									"name": "upVote",
									"type": "uint256"
								}
							],
							"internalType": "struct Vote.candidate[]",
							"name": "",
							"type": "tuple[]"
						}
					],
					"stateMutability": "view",
					"type": "function"
				},
				{
					"inputs": [],
					"name": "getTotalVotes",
					"outputs": [
						{
							"internalType": "uint256",
							"name": "",
							"type": "uint256"
						}
					],
					"stateMutability": "view",
					"type": "function"
				},
				{
					"inputs": [],
					"name": "isOwner",
					"outputs": [
						{
							"internalType": "bool",
							"name": "",
							"type": "bool"
						}
					],
					"stateMutability": "view",
					"type": "function"
				},
				{
					"inputs": [],
					"name": "live",
					"outputs": [
						{
							"internalType": "bool",
							"name": "",
							"type": "bool"
						}
					],
					"stateMutability": "view",
					"type": "function"
				},
				{
					"inputs": [],
					"name": "owner",
					"outputs": [
						{
							"internalType": "address",
							"name": "",
							"type": "address"
						}
					],
					"stateMutability": "view",
					"type": "function"
				},
				{
					"inputs": [
						{
							"internalType": "uint256",
							"name": "_index",
							"type": "uint256"
						}
					],
					"name": "upVote",
					"outputs": [],
					"stateMutability": "nonpayable",
					"type": "function"
				},
				{
					"inputs": [
						{
							"internalType": "address",
							"name": "",
							"type": "address"
						}
					],
					"name": "voters",
					"outputs": [
						{
							"internalType": "bool",
							"name": "isVoted",
							"type": "bool"
						},
						{
							"internalType": "uint256",
							"name": "votedCandidateIndex",
							"type": "uint256"
						}
					],
					"stateMutability": "view",
					"type": "function"
				}
			],
			"devdoc": {
				"kind": "dev",
				"methods": {},
				"version": 1
			},
			"evm": {
				"assembly": "    /* \"blockchain/practice/vote-app.sol\":72:3285  contract Vote {... */\n  mstore(0x40, 0x80)\n    /* \"blockchain/practice/vote-app.sol\":921:1020  constructor() {... */\n  callvalue\n  dup1\n  iszero\n  tag_1\n  jumpi\n  0x00\n  dup1\n  revert\ntag_1:\n  pop\n    /* \"blockchain/practice/vote-app.sol\":953:963  msg.sender */\n  caller\n    /* \"blockchain/practice/vote-app.sol\":945:950  owner */\n  0x00\n  0x01\n    /* \"blockchain/practice/vote-app.sol\":945:963  owner = msg.sender */\n  0x0100\n  exp\n  dup2\n  sload\n  dup2\n  0xffffffffffffffffffffffffffffffffffffffff\n  mul\n  not\n  and\n  swap1\n  dup4\n  0xffffffffffffffffffffffffffffffffffffffff\n  and\n  mul\n  or\n  swap1\n  sstore\n  pop\n    /* \"blockchain/practice/vote-app.sol\":980:984  true */\n  0x01\n    /* \"blockchain/practice/vote-app.sol\":973:977  live */\n  0x00\n  dup1\n    /* \"blockchain/practice/vote-app.sol\":973:984  live = true */\n  0x0100\n  exp\n  dup2\n  sload\n  dup2\n  0xff\n  mul\n  not\n  and\n  swap1\n  dup4\n  iszero\n  iszero\n  mul\n  or\n  swap1\n  sstore\n  pop\n    /* \"blockchain/practice/vote-app.sol\":1000:1013  Voting(owner) */\n  0x6d41258e44d7ee79f697248fbce67e06508f6c2a56396009d98f28c105d43e95\n    /* \"blockchain/practice/vote-app.sol\":1007:1012  owner */\n  0x00\n  0x01\n  swap1\n  sload\n  swap1\n  0x0100\n  exp\n  swap1\n  div\n  0xffffffffffffffffffffffffffffffffffffffff\n  and\n    /* \"blockchain/practice/vote-app.sol\":1000:1013  Voting(owner) */\n  mload(0x40)\n  tag_4\n  swap2\n  swap1\n  tag_5\n  jump\t// in\ntag_4:\n  mload(0x40)\n  dup1\n  swap2\n  sub\n  swap1\n  log1\n    /* \"blockchain/practice/vote-app.sol\":72:3285  contract Vote {... */\n  jump(tag_6)\n    /* \"#utility.yul\":7:133   */\ntag_7:\n    /* \"#utility.yul\":44:51   */\n  0x00\n    /* \"#utility.yul\":84:126   */\n  0xffffffffffffffffffffffffffffffffffffffff\n    /* \"#utility.yul\":77:82   */\n  dup3\n    /* \"#utility.yul\":73:127   */\n  and\n    /* \"#utility.yul\":62:127   */\n  swap1\n  pop\n    /* \"#utility.yul\":7:133   */\n  swap2\n  swap1\n  pop\n  jump\t// out\n    /* \"#utility.yul\":139:235   */\ntag_8:\n    /* \"#utility.yul\":176:183   */\n  0x00\n    /* \"#utility.yul\":205:229   */\n  tag_13\n    /* \"#utility.yul\":223:228   */\n  dup3\n    /* \"#utility.yul\":205:229   */\n  tag_7\n  jump\t// in\ntag_13:\n    /* \"#utility.yul\":194:229   */\n  swap1\n  pop\n    /* \"#utility.yul\":139:235   */\n  swap2\n  swap1\n  pop\n  jump\t// out\n    /* \"#utility.yul\":241:359   */\ntag_9:\n    /* \"#utility.yul\":328:352   */\n  tag_15\n    /* \"#utility.yul\":346:351   */\n  dup2\n    /* \"#utility.yul\":328:352   */\n  tag_8\n  jump\t// in\ntag_15:\n    /* \"#utility.yul\":323:326   */\n  dup3\n    /* \"#utility.yul\":316:353   */\n  mstore\n    /* \"#utility.yul\":241:359   */\n  pop\n  pop\n  jump\t// out\n    /* \"#utility.yul\":365:587   */\ntag_5:\n    /* \"#utility.yul\":458:462   */\n  0x00\n    /* \"#utility.yul\":496:498   */\n  0x20\n    /* \"#utility.yul\":485:494   */\n  dup3\n    /* \"#utility.yul\":481:499   */\n  add\n    /* \"#utility.yul\":473:499   */\n  swap1\n  pop\n    /* \"#utility.yul\":509:580   */\n  tag_17\n    /* \"#utility.yul\":577:578   */\n  0x00\n    /* \"#utility.yul\":566:575   */\n  dup4\n    /* \"#utility.yul\":562:579   */\n  add\n    /* \"#utility.yul\":553:559   */\n  dup5\n    /* \"#utility.yul\":509:580   */\n  tag_9\n  jump\t// in\ntag_17:\n    /* \"#utility.yul\":365:587   */\n  swap3\n  swap2\n  pop\n  pop\n  jump\t// out\n    /* \"blockchain/practice/vote-app.sol\":72:3285  contract Vote {... */\ntag_6:\n  dataSize(sub_0)\n  dup1\n  dataOffset(sub_0)\n  0x00\n  codecopy\n  0x00\n  return\nstop\n\nsub_0: assembly {\n        /* \"blockchain/practice/vote-app.sol\":72:3285  contract Vote {... */\n      mstore(0x40, 0x80)\n      callvalue\n      dup1\n      iszero\n      tag_1\n      jumpi\n      0x00\n      dup1\n      revert\n    tag_1:\n      pop\n      jumpi(tag_2, lt(calldatasize, 0x04))\n      shr(0xe0, calldataload(0x00))\n      dup1\n      0x8f32d59b\n      gt\n      tag_14\n      jumpi\n      dup1\n      0x8f32d59b\n      eq\n      tag_8\n      jumpi\n      dup1\n      0x957aa58c\n      eq\n      tag_9\n      jumpi\n      dup1\n      0x9a0e7d66\n      eq\n      tag_10\n      jumpi\n      dup1\n      0xa3ec138d\n      eq\n      tag_11\n      jumpi\n      dup1\n      0xb13c744b\n      eq\n      tag_12\n      jumpi\n      dup1\n      0xec859db5\n      eq\n      tag_13\n      jumpi\n      jump(tag_2)\n    tag_14:\n      dup1\n      0x1e620cd4\n      eq\n      tag_3\n      jumpi\n      dup1\n      0x2aebcbb6\n      eq\n      tag_4\n      jumpi\n      dup1\n      0x2e6997fe\n      eq\n      tag_5\n      jumpi\n      dup1\n      0x462e91ec\n      eq\n      tag_6\n      jumpi\n      dup1\n      0x8da5cb5b\n      eq\n      tag_7\n      jumpi\n    tag_2:\n      0x00\n      dup1\n      revert\n        /* \"blockchain/practice/vote-app.sol\":1635:2035  function deleteCandidate(uint _index) public onlyOwner {... */\n    tag_3:\n      tag_15\n      0x04\n      dup1\n      calldatasize\n      sub\n      dup2\n      add\n      swap1\n      tag_16\n      swap2\n      swap1\n      tag_17\n      jump\t// in\n    tag_16:\n      tag_18\n      jump\t// in\n    tag_15:\n      stop\n        /* \"blockchain/practice/vote-app.sol\":3128:3282  function finishVote() public {... */\n    tag_4:\n      tag_19\n      tag_20\n      jump\t// in\n    tag_19:\n      stop\n        /* \"blockchain/practice/vote-app.sol\":2535:2682  function getAllCandidates() public view returns (candidate[] memory) {... */\n    tag_5:\n      tag_21\n      tag_22\n      jump\t// in\n    tag_21:\n      mload(0x40)\n      tag_23\n      swap2\n      swap1\n      tag_24\n      jump\t// in\n    tag_23:\n      mload(0x40)\n      dup1\n      swap2\n      sub\n      swap1\n      return\n        /* \"blockchain/practice/vote-app.sol\":1122:1625  function addCandidate(string memory _name) public onlyOwner{... */\n    tag_6:\n      tag_25\n      0x04\n      dup1\n      calldatasize\n      sub\n      dup2\n      add\n      swap1\n      tag_26\n      swap2\n      swap1\n      tag_27\n      jump\t// in\n    tag_26:\n      tag_28\n      jump\t// in\n    tag_25:\n      stop\n        /* \"blockchain/practice/vote-app.sol\":337:357  address public owner */\n    tag_7:\n      tag_29\n      tag_30\n      jump\t// in\n    tag_29:\n      mload(0x40)\n      tag_31\n      swap2\n      swap1\n      tag_32\n      jump\t// in\n    tag_31:\n      mload(0x40)\n      dup1\n      swap2\n      sub\n      swap1\n      return\n        /* \"blockchain/practice/vote-app.sol\":1026:1116  function isOwner() public view returns (bool) {... */\n    tag_8:\n      tag_33\n      tag_34\n      jump\t// in\n    tag_33:\n      mload(0x40)\n      tag_35\n      swap2\n      swap1\n      tag_36\n      jump\t// in\n    tag_35:\n      mload(0x40)\n      dup1\n      swap2\n      sub\n      swap1\n      return\n        /* \"blockchain/practice/vote-app.sol\":314:330  bool public live */\n    tag_9:\n      tag_37\n      tag_38\n      jump\t// in\n    tag_37:\n      mload(0x40)\n      tag_39\n      swap2\n      swap1\n      tag_36\n      jump\t// in\n    tag_39:\n      mload(0x40)\n      dup1\n      swap2\n      sub\n      swap1\n      return\n        /* \"blockchain/practice/vote-app.sol\":2748:3095  function getTotalVotes() public view returns (uint256) {... */\n    tag_10:\n      tag_40\n      tag_41\n      jump\t// in\n    tag_40:\n      mload(0x40)\n      tag_42\n      swap2\n      swap1\n      tag_43\n      jump\t// in\n    tag_42:\n      mload(0x40)\n      dup1\n      swap2\n      sub\n      swap1\n      return\n        /* \"blockchain/practice/vote-app.sol\":479:519  mapping (address => voter) public voters */\n    tag_11:\n      tag_44\n      0x04\n      dup1\n      calldatasize\n      sub\n      dup2\n      add\n      swap1\n      tag_45\n      swap2\n      swap1\n      tag_46\n      jump\t// in\n    tag_45:\n      tag_47\n      jump\t// in\n    tag_44:\n      mload(0x40)\n      tag_48\n      swap3\n      swap2\n      swap1\n      tag_49\n      jump\t// in\n    tag_48:\n      mload(0x40)\n      dup1\n      swap2\n      sub\n      swap1\n      return\n        /* \"blockchain/practice/vote-app.sol\":363:395  candidate[] public candidateList */\n    tag_12:\n      tag_50\n      0x04\n      dup1\n      calldatasize\n      sub\n      dup2\n      add\n      swap1\n      tag_51\n      swap2\n      swap1\n      tag_17\n      jump\t// in\n    tag_51:\n      tag_52\n      jump\t// in\n    tag_50:\n      mload(0x40)\n      tag_53\n      swap3\n      swap2\n      swap1\n      tag_54\n      jump\t// in\n    tag_53:\n      mload(0x40)\n      dup1\n      swap2\n      sub\n      swap1\n      return\n        /* \"blockchain/practice/vote-app.sol\":2055:2452  function upVote(uint _index) public {... */\n    tag_13:\n      tag_55\n      0x04\n      dup1\n      calldatasize\n      sub\n      dup2\n      add\n      swap1\n      tag_56\n      swap2\n      swap1\n      tag_17\n      jump\t// in\n    tag_56:\n      tag_57\n      jump\t// in\n    tag_55:\n      stop\n        /* \"blockchain/practice/vote-app.sol\":1635:2035  function deleteCandidate(uint _index) public onlyOwner {... */\n    tag_18:\n        /* \"blockchain/practice/vote-app.sol\":872:877  owner */\n      0x00\n      0x01\n      swap1\n      sload\n      swap1\n      0x0100\n      exp\n      swap1\n      div\n      0xffffffffffffffffffffffffffffffffffffffff\n      and\n        /* \"blockchain/practice/vote-app.sol\":858:877  msg.sender == owner */\n      0xffffffffffffffffffffffffffffffffffffffff\n      and\n        /* \"blockchain/practice/vote-app.sol\":858:868  msg.sender */\n      caller\n        /* \"blockchain/practice/vote-app.sol\":858:877  msg.sender == owner */\n      0xffffffffffffffffffffffffffffffffffffffff\n      and\n      eq\n        /* \"blockchain/practice/vote-app.sol\":850:878  require(msg.sender == owner) */\n      tag_59\n      jumpi\n      0x00\n      dup1\n      revert\n    tag_59:\n        /* \"blockchain/practice/vote-app.sol\":1716:1720  true */\n      0x01\n        /* \"blockchain/practice/vote-app.sol\":1708:1720  live == true */\n      iszero\n      iszero\n        /* \"blockchain/practice/vote-app.sol\":1708:1712  live */\n      0x00\n      dup1\n      sload\n      swap1\n      0x0100\n      exp\n      swap1\n      div\n      0xff\n      and\n        /* \"blockchain/practice/vote-app.sol\":1708:1720  live == true */\n      iszero\n      iszero\n      eq\n        /* \"blockchain/practice/vote-app.sol\":1700:1721  require(live == true) */\n      tag_61\n      jumpi\n      0x00\n      dup1\n      revert\n    tag_61:\n        /* \"blockchain/practice/vote-app.sol\":1748:1761  candidateList */\n      0x01\n        /* \"blockchain/practice/vote-app.sol\":1748:1768  candidateList.length */\n      dup1\n      sload\n      swap1\n      pop\n        /* \"blockchain/practice/vote-app.sol\":1739:1745  _index */\n      dup2\n        /* \"blockchain/practice/vote-app.sol\":1739:1768  _index < candidateList.length */\n      lt\n        /* \"blockchain/practice/vote-app.sol\":1731:1769  require(_index < candidateList.length) */\n      tag_62\n      jumpi\n      0x00\n      dup1\n      revert\n    tag_62:\n        /* \"blockchain/practice/vote-app.sol\":1848:1861  candidateList */\n      0x01\n        /* \"blockchain/practice/vote-app.sol\":1885:1886  1 */\n      dup1\n        /* \"blockchain/practice/vote-app.sol\":1862:1875  candidateList */\n      dup1\n        /* \"blockchain/practice/vote-app.sol\":1862:1882  candidateList.length */\n      dup1\n      sload\n      swap1\n      pop\n        /* \"blockchain/practice/vote-app.sol\":1862:1886  candidateList.length - 1 */\n      tag_63\n      swap2\n      swap1\n      tag_64\n      jump\t// in\n    tag_63:\n        /* \"blockchain/practice/vote-app.sol\":1848:1887  candidateList[candidateList.length - 1] */\n      dup2\n      sload\n      dup2\n      lt\n      tag_65\n      jumpi\n      tag_66\n      tag_67\n      jump\t// in\n    tag_66:\n    tag_65:\n      swap1\n      0x00\n      mstore\n      keccak256(0x00, 0x20)\n      swap1\n      0x02\n      mul\n      add\n        /* \"blockchain/practice/vote-app.sol\":1824:1837  candidateList */\n      0x01\n        /* \"blockchain/practice/vote-app.sol\":1838:1844  _index */\n      dup3\n        /* \"blockchain/practice/vote-app.sol\":1824:1845  candidateList[_index] */\n      dup2\n      sload\n      dup2\n      lt\n      tag_69\n      jumpi\n      tag_70\n      tag_67\n      jump\t// in\n    tag_70:\n    tag_69:\n      swap1\n      0x00\n      mstore\n      keccak256(0x00, 0x20)\n      swap1\n      0x02\n      mul\n      add\n        /* \"blockchain/practice/vote-app.sol\":1824:1887  candidateList[_index] = candidateList[candidateList.length - 1] */\n      0x00\n      dup3\n      add\n      dup2\n      0x00\n      add\n      swap1\n      dup2\n      tag_72\n      swap2\n      swap1\n      tag_73\n      jump\t// in\n    tag_72:\n      pop\n      0x01\n      dup3\n      add\n      sload\n      dup2\n      0x01\n      add\n      sstore\n      swap1\n      pop\n      pop\n        /* \"blockchain/practice/vote-app.sol\":1897:1910  candidateList */\n      0x01\n        /* \"blockchain/practice/vote-app.sol\":1897:1916  candidateList.pop() */\n      dup1\n      sload\n      dup1\n      tag_74\n      jumpi\n      tag_75\n      tag_76\n      jump\t// in\n    tag_75:\n    tag_74:\n      0x01\n      swap1\n      sub\n      dup2\n      dup2\n      swap1\n      0x00\n      mstore\n      keccak256(0x00, 0x20)\n      swap1\n      0x02\n      mul\n      add\n      0x00\n      dup1\n      dup3\n      add\n      0x00\n      tag_78\n      swap2\n      swap1\n      tag_79\n      jump\t// in\n    tag_78:\n      0x01\n      dup3\n      add\n      0x00\n      swap1\n      sstore\n      pop\n      pop\n      swap1\n      sstore\n        /* \"blockchain/practice/vote-app.sol\":1959:1982  DeleteCandidate(_index) */\n      0x29ab6fac06eb32ebcc3a011f02383a9d57c946d0676bf8ccaed3f20e88410d45\n        /* \"blockchain/practice/vote-app.sol\":1975:1981  _index */\n      dup2\n        /* \"blockchain/practice/vote-app.sol\":1959:1982  DeleteCandidate(_index) */\n      mload(0x40)\n      tag_80\n      swap2\n      swap1\n      tag_43\n      jump\t// in\n    tag_80:\n      mload(0x40)\n      dup1\n      swap2\n      sub\n      swap1\n      log1\n        /* \"blockchain/practice/vote-app.sol\":1635:2035  function deleteCandidate(uint _index) public onlyOwner {... */\n      pop\n      jump\t// out\n        /* \"blockchain/practice/vote-app.sol\":3128:3282  function finishVote() public {... */\n    tag_20:\n        /* \"blockchain/practice/vote-app.sol\":3185:3189  true */\n      0x01\n        /* \"blockchain/practice/vote-app.sol\":3176:3189  live  == true */\n      iszero\n      iszero\n        /* \"blockchain/practice/vote-app.sol\":3176:3180  live */\n      0x00\n      dup1\n      sload\n      swap1\n      0x0100\n      exp\n      swap1\n      div\n      0xff\n      and\n        /* \"blockchain/practice/vote-app.sol\":3176:3189  live  == true */\n      iszero\n      iszero\n      eq\n        /* \"blockchain/practice/vote-app.sol\":3167:3191  require (live  == true ) */\n      tag_82\n      jumpi\n      0x00\n      dup1\n      revert\n    tag_82:\n        /* \"blockchain/practice/vote-app.sol\":3238:3243  false */\n      0x00\n        /* \"blockchain/practice/vote-app.sol\":3231:3235  live */\n      dup1\n      0x00\n        /* \"blockchain/practice/vote-app.sol\":3231:3243  live = false */\n      0x0100\n      exp\n      dup2\n      sload\n      dup2\n      0xff\n      mul\n      not\n      and\n      swap1\n      dup4\n      iszero\n      iszero\n      mul\n      or\n      swap1\n      sstore\n      pop\n        /* \"blockchain/practice/vote-app.sol\":3259:3275  FinishVote(live) */\n      0x52a1f86df561bcdc915e07aafb957e1253d4464fc7fae3d6700815e71f063ffc\n        /* \"blockchain/practice/vote-app.sol\":3270:3274  live */\n      0x00\n      dup1\n      sload\n      swap1\n      0x0100\n      exp\n      swap1\n      div\n      0xff\n      and\n        /* \"blockchain/practice/vote-app.sol\":3259:3275  FinishVote(live) */\n      mload(0x40)\n      tag_83\n      swap2\n      swap1\n      tag_36\n      jump\t// in\n    tag_83:\n      mload(0x40)\n      dup1\n      swap2\n      sub\n      swap1\n      log1\n        /* \"blockchain/practice/vote-app.sol\":3128:3282  function finishVote() public {... */\n      jump\t// out\n        /* \"blockchain/practice/vote-app.sol\":2535:2682  function getAllCandidates() public view returns (candidate[] memory) {... */\n    tag_22:\n        /* \"blockchain/practice/vote-app.sol\":2584:2602  candidate[] memory */\n      0x60\n        /* \"blockchain/practice/vote-app.sol\":2625:2638  candidateList */\n      0x01\n        /* \"blockchain/practice/vote-app.sol\":2618:2638  return candidateList */\n      dup1\n      sload\n      dup1\n      0x20\n      mul\n      0x20\n      add\n      mload(0x40)\n      swap1\n      dup2\n      add\n      0x40\n      mstore\n      dup1\n      swap3\n      swap2\n      swap1\n      dup2\n      dup2\n      mstore\n      0x20\n      add\n      0x00\n      swap1\n    tag_85:\n      dup3\n      dup3\n      lt\n      iszero\n      tag_86\n      jumpi\n      dup4\n      dup3\n      swap1\n      0x00\n      mstore\n      keccak256(0x00, 0x20)\n      swap1\n      0x02\n      mul\n      add\n      mload(0x40)\n      dup1\n      0x40\n      add\n      0x40\n      mstore\n      swap1\n      dup2\n      0x00\n      dup3\n      add\n      dup1\n      sload\n      tag_88\n      swap1\n      tag_89\n      jump\t// in\n    tag_88:\n      dup1\n      0x1f\n      add\n      0x20\n      dup1\n      swap2\n      div\n      mul\n      0x20\n      add\n      mload(0x40)\n      swap1\n      dup2\n      add\n      0x40\n      mstore\n      dup1\n      swap3\n      swap2\n      swap1\n      dup2\n      dup2\n      mstore\n      0x20\n      add\n      dup3\n      dup1\n      sload\n      tag_90\n      swap1\n      tag_89\n      jump\t// in\n    tag_90:\n      dup1\n      iszero\n      tag_91\n      jumpi\n      dup1\n      0x1f\n      lt\n      tag_92\n      jumpi\n      0x0100\n      dup1\n      dup4\n      sload\n      div\n      mul\n      dup4\n      mstore\n      swap2\n      0x20\n      add\n      swap2\n      jump(tag_91)\n    tag_92:\n      dup3\n      add\n      swap2\n      swap1\n      0x00\n      mstore\n      keccak256(0x00, 0x20)\n      swap1\n    tag_93:\n      dup2\n      sload\n      dup2\n      mstore\n      swap1\n      0x01\n      add\n      swap1\n      0x20\n      add\n      dup1\n      dup4\n      gt\n      tag_93\n      jumpi\n      dup3\n      swap1\n      sub\n      0x1f\n      and\n      dup3\n      add\n      swap2\n    tag_91:\n      pop\n      pop\n      pop\n      pop\n      pop\n      dup2\n      mstore\n      0x20\n      add\n      0x01\n      dup3\n      add\n      sload\n      dup2\n      mstore\n      pop\n      pop\n      dup2\n      mstore\n      0x20\n      add\n      swap1\n      0x01\n      add\n      swap1\n      jump(tag_85)\n    tag_86:\n      pop\n      pop\n      pop\n      pop\n      swap1\n      pop\n        /* \"blockchain/practice/vote-app.sol\":2535:2682  function getAllCandidates() public view returns (candidate[] memory) {... */\n      swap1\n      jump\t// out\n        /* \"blockchain/practice/vote-app.sol\":1122:1625  function addCandidate(string memory _name) public onlyOwner{... */\n    tag_28:\n        /* \"blockchain/practice/vote-app.sol\":872:877  owner */\n      0x00\n      0x01\n      swap1\n      sload\n      swap1\n      0x0100\n      exp\n      swap1\n      div\n      0xffffffffffffffffffffffffffffffffffffffff\n      and\n        /* \"blockchain/practice/vote-app.sol\":858:877  msg.sender == owner */\n      0xffffffffffffffffffffffffffffffffffffffff\n      and\n        /* \"blockchain/practice/vote-app.sol\":858:868  msg.sender */\n      caller\n        /* \"blockchain/practice/vote-app.sol\":858:877  msg.sender == owner */\n      0xffffffffffffffffffffffffffffffffffffffff\n      and\n      eq\n        /* \"blockchain/practice/vote-app.sol\":850:878  require(msg.sender == owner) */\n      tag_95\n      jumpi\n      0x00\n      dup1\n      revert\n    tag_95:\n        /* \"blockchain/practice/vote-app.sol\":1209:1213  true */\n      0x01\n        /* \"blockchain/practice/vote-app.sol\":1200:1213  live  == true */\n      iszero\n      iszero\n        /* \"blockchain/practice/vote-app.sol\":1200:1204  live */\n      0x00\n      dup1\n      sload\n      swap1\n      0x0100\n      exp\n      swap1\n      div\n      0xff\n      and\n        /* \"blockchain/practice/vote-app.sol\":1200:1213  live  == true */\n      iszero\n      iszero\n      eq\n        /* \"blockchain/practice/vote-app.sol\":1191:1215  require (live  == true ) */\n      tag_97\n      jumpi\n      0x00\n      dup1\n      revert\n    tag_97:\n        /* \"blockchain/practice/vote-app.sol\":1297:1298  5 */\n      0x05\n        /* \"blockchain/practice/vote-app.sol\":1274:1287  candidateList */\n      0x01\n        /* \"blockchain/practice/vote-app.sol\":1274:1294  candidateList.length */\n      dup1\n      sload\n      swap1\n      pop\n        /* \"blockchain/practice/vote-app.sol\":1274:1298  candidateList.length < 5 */\n      lt\n        /* \"blockchain/practice/vote-app.sol\":1265:1299  require (candidateList.length < 5) */\n      tag_98\n      jumpi\n      0x00\n      dup1\n      revert\n    tag_98:\n        /* \"blockchain/practice/vote-app.sol\":1353:1366  candidateList */\n      0x01\n        /* \"blockchain/practice/vote-app.sol\":1372:1391  candidate(_name, 0) */\n      mload(0x40)\n      dup1\n      0x40\n      add\n      0x40\n      mstore\n      dup1\n        /* \"blockchain/practice/vote-app.sol\":1382:1387  _name */\n      dup4\n        /* \"blockchain/practice/vote-app.sol\":1372:1391  candidate(_name, 0) */\n      dup2\n      mstore\n      0x20\n      add\n        /* \"blockchain/practice/vote-app.sol\":1389:1390  0 */\n      0x00\n        /* \"blockchain/practice/vote-app.sol\":1372:1391  candidate(_name, 0) */\n      dup2\n      mstore\n      pop\n        /* \"blockchain/practice/vote-app.sol\":1353:1392  candidateList.push(candidate(_name, 0)) */\n      swap1\n      dup1\n      0x01\n      dup2\n      sload\n      add\n      dup1\n      dup3\n      sstore\n      dup1\n      swap2\n      pop\n      pop\n      0x01\n      swap1\n      sub\n      swap1\n      0x00\n      mstore\n      keccak256(0x00, 0x20)\n      swap1\n      0x02\n      mul\n      add\n      0x00\n      swap1\n      swap2\n      swap1\n      swap2\n      swap1\n      swap2\n      pop\n      0x00\n      dup3\n      add\n      mload\n      dup2\n      0x00\n      add\n      swap1\n      dup2\n      tag_100\n      swap2\n      swap1\n      tag_101\n      jump\t// in\n    tag_100:\n      pop\n      0x20\n      dup3\n      add\n      mload\n      dup2\n      0x01\n      add\n      sstore\n      pop\n      pop\n        /* \"blockchain/practice/vote-app.sol\":1553:1572  AddCandidate(_name) */\n      0x7e54b8e26d30b775858f75176d98873186bb2078a39aec1f769f4de0aeb43b1a\n        /* \"blockchain/practice/vote-app.sol\":1566:1571  _name */\n      dup2\n        /* \"blockchain/practice/vote-app.sol\":1553:1572  AddCandidate(_name) */\n      mload(0x40)\n      tag_102\n      swap2\n      swap1\n      tag_103\n      jump\t// in\n    tag_102:\n      mload(0x40)\n      dup1\n      swap2\n      sub\n      swap1\n      log1\n        /* \"blockchain/practice/vote-app.sol\":1122:1625  function addCandidate(string memory _name) public onlyOwner{... */\n      pop\n      jump\t// out\n        /* \"blockchain/practice/vote-app.sol\":337:357  address public owner */\n    tag_30:\n      0x00\n      0x01\n      swap1\n      sload\n      swap1\n      0x0100\n      exp\n      swap1\n      div\n      0xffffffffffffffffffffffffffffffffffffffff\n      and\n      dup2\n      jump\t// out\n        /* \"blockchain/practice/vote-app.sol\":1026:1116  function isOwner() public view returns (bool) {... */\n    tag_34:\n        /* \"blockchain/practice/vote-app.sol\":1066:1070  bool */\n      0x00\n        /* \"blockchain/practice/vote-app.sol\":1103:1108  owner */\n      dup1\n      0x01\n      swap1\n      sload\n      swap1\n      0x0100\n      exp\n      swap1\n      div\n      0xffffffffffffffffffffffffffffffffffffffff\n      and\n        /* \"blockchain/practice/vote-app.sol\":1089:1108  msg.sender == owner */\n      0xffffffffffffffffffffffffffffffffffffffff\n      and\n        /* \"blockchain/practice/vote-app.sol\":1089:1099  msg.sender */\n      caller\n        /* \"blockchain/practice/vote-app.sol\":1089:1108  msg.sender == owner */\n      0xffffffffffffffffffffffffffffffffffffffff\n      and\n      eq\n        /* \"blockchain/practice/vote-app.sol\":1082:1108  return msg.sender == owner */\n      swap1\n      pop\n        /* \"blockchain/practice/vote-app.sol\":1026:1116  function isOwner() public view returns (bool) {... */\n      swap1\n      jump\t// out\n        /* \"blockchain/practice/vote-app.sol\":314:330  bool public live */\n    tag_38:\n      0x00\n      dup1\n      sload\n      swap1\n      0x0100\n      exp\n      swap1\n      div\n      0xff\n      and\n      dup2\n      jump\t// out\n        /* \"blockchain/practice/vote-app.sol\":2748:3095  function getTotalVotes() public view returns (uint256) {... */\n    tag_41:\n        /* \"blockchain/practice/vote-app.sol\":2794:2801  uint256 */\n      0x00\n        /* \"blockchain/practice/vote-app.sol\":2817:2835  uint256 totalVotes */\n      dup1\n        /* \"blockchain/practice/vote-app.sol\":2838:2839  0 */\n      0x00\n        /* \"blockchain/practice/vote-app.sol\":2817:2839  uint256 totalVotes = 0 */\n      swap1\n      pop\n        /* \"blockchain/practice/vote-app.sol\":2912:2921  uint256 i */\n      0x00\n        /* \"blockchain/practice/vote-app.sol\":2907:3028  for (uint256 i = 0; i < candidateList.length; i++) {... */\n    tag_106:\n        /* \"blockchain/practice/vote-app.sol\":2931:2944  candidateList */\n      0x01\n        /* \"blockchain/practice/vote-app.sol\":2931:2951  candidateList.length */\n      dup1\n      sload\n      swap1\n      pop\n        /* \"blockchain/practice/vote-app.sol\":2927:2928  i */\n      dup2\n        /* \"blockchain/practice/vote-app.sol\":2927:2951  i < candidateList.length */\n      lt\n        /* \"blockchain/practice/vote-app.sol\":2907:3028  for (uint256 i = 0; i < candidateList.length; i++) {... */\n      iszero\n      tag_107\n      jumpi\n        /* \"blockchain/practice/vote-app.sol\":2990:3003  candidateList */\n      0x01\n        /* \"blockchain/practice/vote-app.sol\":3004:3005  i */\n      dup2\n        /* \"blockchain/practice/vote-app.sol\":2990:3006  candidateList[i] */\n      dup2\n      sload\n      dup2\n      lt\n      tag_109\n      jumpi\n      tag_110\n      tag_67\n      jump\t// in\n    tag_110:\n    tag_109:\n      swap1\n      0x00\n      mstore\n      keccak256(0x00, 0x20)\n      swap1\n      0x02\n      mul\n      add\n        /* \"blockchain/practice/vote-app.sol\":2990:3013  candidateList[i].upVote */\n      0x01\n      add\n      sload\n        /* \"blockchain/practice/vote-app.sol\":2976:3013  totalVotes += candidateList[i].upVote */\n      dup3\n      tag_112\n      swap2\n      swap1\n      tag_113\n      jump\t// in\n    tag_112:\n      swap2\n      pop\n        /* \"blockchain/practice/vote-app.sol\":2953:2956  i++ */\n      dup1\n      dup1\n      0x01\n      add\n      swap2\n      pop\n      pop\n        /* \"blockchain/practice/vote-app.sol\":2907:3028  for (uint256 i = 0; i < candidateList.length; i++) {... */\n      jump(tag_106)\n    tag_107:\n      pop\n        /* \"blockchain/practice/vote-app.sol\":3049:3059  totalVotes */\n      dup1\n        /* \"blockchain/practice/vote-app.sol\":3042:3059  return totalVotes */\n      swap2\n      pop\n      pop\n        /* \"blockchain/practice/vote-app.sol\":2748:3095  function getTotalVotes() public view returns (uint256) {... */\n      swap1\n      jump\t// out\n        /* \"blockchain/practice/vote-app.sol\":479:519  mapping (address => voter) public voters */\n    tag_47:\n      mstore(0x20, 0x03)\n      dup1\n      0x00\n      mstore\n      keccak256(0x00, 0x40)\n      0x00\n      swap2\n      pop\n      swap1\n      pop\n      dup1\n      0x00\n      add\n      0x00\n      swap1\n      sload\n      swap1\n      0x0100\n      exp\n      swap1\n      div\n      0xff\n      and\n      swap1\n      dup1\n      0x01\n      add\n      sload\n      swap1\n      pop\n      dup3\n      jump\t// out\n        /* \"blockchain/practice/vote-app.sol\":363:395  candidate[] public candidateList */\n    tag_52:\n      0x01\n      dup2\n      dup2\n      sload\n      dup2\n      lt\n      tag_114\n      jumpi\n      0x00\n      dup1\n      revert\n    tag_114:\n      swap1\n      0x00\n      mstore\n      keccak256(0x00, 0x20)\n      swap1\n      0x02\n      mul\n      add\n      0x00\n      swap2\n      pop\n      swap1\n      pop\n      dup1\n      0x00\n      add\n      dup1\n      sload\n      tag_116\n      swap1\n      tag_89\n      jump\t// in\n    tag_116:\n      dup1\n      0x1f\n      add\n      0x20\n      dup1\n      swap2\n      div\n      mul\n      0x20\n      add\n      mload(0x40)\n      swap1\n      dup2\n      add\n      0x40\n      mstore\n      dup1\n      swap3\n      swap2\n      swap1\n      dup2\n      dup2\n      mstore\n      0x20\n      add\n      dup3\n      dup1\n      sload\n      tag_117\n      swap1\n      tag_89\n      jump\t// in\n    tag_117:\n      dup1\n      iszero\n      tag_118\n      jumpi\n      dup1\n      0x1f\n      lt\n      tag_119\n      jumpi\n      0x0100\n      dup1\n      dup4\n      sload\n      div\n      mul\n      dup4\n      mstore\n      swap2\n      0x20\n      add\n      swap2\n      jump(tag_118)\n    tag_119:\n      dup3\n      add\n      swap2\n      swap1\n      0x00\n      mstore\n      keccak256(0x00, 0x20)\n      swap1\n    tag_120:\n      dup2\n      sload\n      dup2\n      mstore\n      swap1\n      0x01\n      add\n      swap1\n      0x20\n      add\n      dup1\n      dup4\n      gt\n      tag_120\n      jumpi\n      dup3\n      swap1\n      sub\n      0x1f\n      and\n      dup3\n      add\n      swap2\n    tag_118:\n      pop\n      pop\n      pop\n      pop\n      pop\n      swap1\n      dup1\n      0x01\n      add\n      sload\n      swap1\n      pop\n      dup3\n      jump\t// out\n        /* \"blockchain/practice/vote-app.sol\":2055:2452  function upVote(uint _index) public {... */\n    tag_57:\n        /* \"blockchain/practice/vote-app.sol\":2117:2121  true */\n      0x01\n        /* \"blockchain/practice/vote-app.sol\":2109:2121  live == true */\n      iszero\n      iszero\n        /* \"blockchain/practice/vote-app.sol\":2109:2113  live */\n      0x00\n      dup1\n      sload\n      swap1\n      0x0100\n      exp\n      swap1\n      div\n      0xff\n      and\n        /* \"blockchain/practice/vote-app.sol\":2109:2121  live == true */\n      iszero\n      iszero\n      eq\n        /* \"blockchain/practice/vote-app.sol\":2101:2122  require(live == true) */\n      tag_122\n      jumpi\n      0x00\n      dup1\n      revert\n    tag_122:\n        /* \"blockchain/practice/vote-app.sol\":2149:2162  candidateList */\n      0x01\n        /* \"blockchain/practice/vote-app.sol\":2149:2169  candidateList.length */\n      dup1\n      sload\n      swap1\n      pop\n        /* \"blockchain/practice/vote-app.sol\":2140:2146  _index */\n      dup2\n        /* \"blockchain/practice/vote-app.sol\":2140:2169  _index < candidateList.length */\n      lt\n        /* \"blockchain/practice/vote-app.sol\":2132:2170  require(_index < candidateList.length) */\n      tag_123\n      jumpi\n      0x00\n      dup1\n      revert\n    tag_123:\n        /* \"blockchain/practice/vote-app.sol\":2189:2195  voters */\n      0x03\n        /* \"blockchain/practice/vote-app.sol\":2189:2207  voters[msg.sender] */\n      0x00\n        /* \"blockchain/practice/vote-app.sol\":2196:2206  msg.sender */\n      caller\n        /* \"blockchain/practice/vote-app.sol\":2189:2207  voters[msg.sender] */\n      0xffffffffffffffffffffffffffffffffffffffff\n      and\n      0xffffffffffffffffffffffffffffffffffffffff\n      and\n      dup2\n      mstore\n      0x20\n      add\n      swap1\n      dup2\n      mstore\n      0x20\n      add\n      0x00\n      keccak256\n        /* \"blockchain/practice/vote-app.sol\":2189:2215  voters[msg.sender].isVoted */\n      0x00\n      add\n      0x00\n      swap1\n      sload\n      swap1\n      0x0100\n      exp\n      swap1\n      div\n      0xff\n      and\n        /* \"blockchain/practice/vote-app.sol\":2188:2215  !voters[msg.sender].isVoted */\n      iszero\n        /* \"blockchain/practice/vote-app.sol\":2180:2216  require(!voters[msg.sender].isVoted) */\n      tag_124\n      jumpi\n      0x00\n      dup1\n      revert\n    tag_124:\n        /* \"blockchain/practice/vote-app.sol\":2256:2260  true */\n      0x01\n        /* \"blockchain/practice/vote-app.sol\":2227:2233  voters */\n      0x03\n        /* \"blockchain/practice/vote-app.sol\":2227:2245  voters[msg.sender] */\n      0x00\n        /* \"blockchain/practice/vote-app.sol\":2234:2244  msg.sender */\n      caller\n        /* \"blockchain/practice/vote-app.sol\":2227:2245  voters[msg.sender] */\n      0xffffffffffffffffffffffffffffffffffffffff\n      and\n      0xffffffffffffffffffffffffffffffffffffffff\n      and\n      dup2\n      mstore\n      0x20\n      add\n      swap1\n      dup2\n      mstore\n      0x20\n      add\n      0x00\n      keccak256\n        /* \"blockchain/practice/vote-app.sol\":2227:2253  voters[msg.sender].isVoted */\n      0x00\n      add\n      0x00\n        /* \"blockchain/practice/vote-app.sol\":2227:2260  voters[msg.sender].isVoted = true */\n      0x0100\n      exp\n      dup2\n      sload\n      dup2\n      0xff\n      mul\n      not\n      and\n      swap1\n      dup4\n      iszero\n      iszero\n      mul\n      or\n      swap1\n      sstore\n      pop\n        /* \"blockchain/practice/vote-app.sol\":2311:2317  _index */\n      dup1\n        /* \"blockchain/practice/vote-app.sol\":2270:2276  voters */\n      0x03\n        /* \"blockchain/practice/vote-app.sol\":2270:2288  voters[msg.sender] */\n      0x00\n        /* \"blockchain/practice/vote-app.sol\":2277:2287  msg.sender */\n      caller\n        /* \"blockchain/practice/vote-app.sol\":2270:2288  voters[msg.sender] */\n      0xffffffffffffffffffffffffffffffffffffffff\n      and\n      0xffffffffffffffffffffffffffffffffffffffff\n      and\n      dup2\n      mstore\n      0x20\n      add\n      swap1\n      dup2\n      mstore\n      0x20\n      add\n      0x00\n      keccak256\n        /* \"blockchain/practice/vote-app.sol\":2270:2308  voters[msg.sender].votedCandidateIndex */\n      0x01\n      add\n        /* \"blockchain/practice/vote-app.sol\":2270:2317  voters[msg.sender].votedCandidateIndex = _index */\n      dup2\n      swap1\n      sstore\n      pop\n        /* \"blockchain/practice/vote-app.sol\":2327:2340  candidateList */\n      0x01\n        /* \"blockchain/practice/vote-app.sol\":2341:2347  _index */\n      dup2\n        /* \"blockchain/practice/vote-app.sol\":2327:2348  candidateList[_index] */\n      dup2\n      sload\n      dup2\n      lt\n      tag_125\n      jumpi\n      tag_126\n      tag_67\n      jump\t// in\n    tag_126:\n    tag_125:\n      swap1\n      0x00\n      mstore\n      keccak256(0x00, 0x20)\n      swap1\n      0x02\n      mul\n      add\n        /* \"blockchain/practice/vote-app.sol\":2327:2355  candidateList[_index].upVote */\n      0x01\n      add\n      0x00\n        /* \"blockchain/practice/vote-app.sol\":2327:2357  candidateList[_index].upVote++ */\n      dup2\n      sload\n      dup1\n      swap3\n      swap2\n      swap1\n      tag_128\n      swap1\n      tag_129\n      jump\t// in\n    tag_128:\n      swap2\n      swap1\n      pop\n      sstore\n      pop\n        /* \"blockchain/practice/vote-app.sol\":2381:2445  UpVote(candidateList[_index].name, candidateList[_index].upVote) */\n      0x8e3b27e09daa83ef4d239b211c458358c74c8ab4a844aa4ce24f2a4e211eeb\n        /* \"blockchain/practice/vote-app.sol\":2388:2401  candidateList */\n      0x01\n        /* \"blockchain/practice/vote-app.sol\":2402:2408  _index */\n      dup3\n        /* \"blockchain/practice/vote-app.sol\":2388:2409  candidateList[_index] */\n      dup2\n      sload\n      dup2\n      lt\n      tag_130\n      jumpi\n      tag_131\n      tag_67\n      jump\t// in\n    tag_131:\n    tag_130:\n      swap1\n      0x00\n      mstore\n      keccak256(0x00, 0x20)\n      swap1\n      0x02\n      mul\n      add\n        /* \"blockchain/practice/vote-app.sol\":2388:2414  candidateList[_index].name */\n      0x00\n      add\n        /* \"blockchain/practice/vote-app.sol\":2416:2429  candidateList */\n      0x01\n        /* \"blockchain/practice/vote-app.sol\":2430:2436  _index */\n      dup4\n        /* \"blockchain/practice/vote-app.sol\":2416:2437  candidateList[_index] */\n      dup2\n      sload\n      dup2\n      lt\n      tag_133\n      jumpi\n      tag_134\n      tag_67\n      jump\t// in\n    tag_134:\n    tag_133:\n      swap1\n      0x00\n      mstore\n      keccak256(0x00, 0x20)\n      swap1\n      0x02\n      mul\n      add\n        /* \"blockchain/practice/vote-app.sol\":2416:2444  candidateList[_index].upVote */\n      0x01\n      add\n      sload\n        /* \"blockchain/practice/vote-app.sol\":2381:2445  UpVote(candidateList[_index].name, candidateList[_index].upVote) */\n      mload(0x40)\n      tag_136\n      swap3\n      swap2\n      swap1\n      tag_137\n      jump\t// in\n    tag_136:\n      mload(0x40)\n      dup1\n      swap2\n      sub\n      swap1\n      log1\n        /* \"blockchain/practice/vote-app.sol\":2055:2452  function upVote(uint _index) public {... */\n      pop\n      jump\t// out\n    tag_79:\n      pop\n      dup1\n      sload\n      tag_138\n      swap1\n      tag_89\n      jump\t// in\n    tag_138:\n      0x00\n      dup3\n      sstore\n      dup1\n      0x1f\n      lt\n      tag_140\n      jumpi\n      pop\n      jump(tag_139)\n    tag_140:\n      0x1f\n      add\n      0x20\n      swap1\n      div\n      swap1\n      0x00\n      mstore\n      keccak256(0x00, 0x20)\n      swap1\n      dup2\n      add\n      swap1\n      tag_141\n      swap2\n      swap1\n      tag_142\n      jump\t// in\n    tag_141:\n    tag_139:\n      pop\n      jump\t// out\n    tag_142:\n    tag_143:\n      dup1\n      dup3\n      gt\n      iszero\n      tag_144\n      jumpi\n      0x00\n      dup2\n      0x00\n      swap1\n      sstore\n      pop\n      0x01\n      add\n      jump(tag_143)\n    tag_144:\n      pop\n      swap1\n      jump\t// out\n        /* \"#utility.yul\":7:82   */\n    tag_145:\n        /* \"#utility.yul\":40:46   */\n      0x00\n        /* \"#utility.yul\":73:75   */\n      0x40\n        /* \"#utility.yul\":67:76   */\n      mload\n        /* \"#utility.yul\":57:76   */\n      swap1\n      pop\n        /* \"#utility.yul\":7:82   */\n      swap1\n      jump\t// out\n        /* \"#utility.yul\":88:205   */\n    tag_146:\n        /* \"#utility.yul\":197:198   */\n      0x00\n        /* \"#utility.yul\":194:195   */\n      dup1\n        /* \"#utility.yul\":187:199   */\n      revert\n        /* \"#utility.yul\":211:328   */\n    tag_147:\n        /* \"#utility.yul\":320:321   */\n      0x00\n        /* \"#utility.yul\":317:318   */\n      dup1\n        /* \"#utility.yul\":310:322   */\n      revert\n        /* \"#utility.yul\":334:411   */\n    tag_148:\n        /* \"#utility.yul\":371:378   */\n      0x00\n        /* \"#utility.yul\":400:405   */\n      dup2\n        /* \"#utility.yul\":389:405   */\n      swap1\n      pop\n        /* \"#utility.yul\":334:411   */\n      swap2\n      swap1\n      pop\n      jump\t// out\n        /* \"#utility.yul\":417:539   */\n    tag_149:\n        /* \"#utility.yul\":490:514   */\n      tag_208\n        /* \"#utility.yul\":508:513   */\n      dup2\n        /* \"#utility.yul\":490:514   */\n      tag_148\n      jump\t// in\n    tag_208:\n        /* \"#utility.yul\":483:488   */\n      dup2\n        /* \"#utility.yul\":480:515   */\n      eq\n        /* \"#utility.yul\":470:533   */\n      tag_209\n      jumpi\n        /* \"#utility.yul\":529:530   */\n      0x00\n        /* \"#utility.yul\":526:527   */\n      dup1\n        /* \"#utility.yul\":519:531   */\n      revert\n        /* \"#utility.yul\":470:533   */\n    tag_209:\n        /* \"#utility.yul\":417:539   */\n      pop\n      jump\t// out\n        /* \"#utility.yul\":545:684   */\n    tag_150:\n        /* \"#utility.yul\":591:596   */\n      0x00\n        /* \"#utility.yul\":629:635   */\n      dup2\n        /* \"#utility.yul\":616:636   */\n      calldataload\n        /* \"#utility.yul\":607:636   */\n      swap1\n      pop\n        /* \"#utility.yul\":645:678   */\n      tag_211\n        /* \"#utility.yul\":672:677   */\n      dup2\n        /* \"#utility.yul\":645:678   */\n      tag_149\n      jump\t// in\n    tag_211:\n        /* \"#utility.yul\":545:684   */\n      swap3\n      swap2\n      pop\n      pop\n      jump\t// out\n        /* \"#utility.yul\":690:1019   */\n    tag_17:\n        /* \"#utility.yul\":749:755   */\n      0x00\n        /* \"#utility.yul\":798:800   */\n      0x20\n        /* \"#utility.yul\":786:795   */\n      dup3\n        /* \"#utility.yul\":777:784   */\n      dup5\n        /* \"#utility.yul\":773:796   */\n      sub\n        /* \"#utility.yul\":769:801   */\n      slt\n        /* \"#utility.yul\":766:885   */\n      iszero\n      tag_213\n      jumpi\n        /* \"#utility.yul\":804:883   */\n      tag_214\n      tag_146\n      jump\t// in\n    tag_214:\n        /* \"#utility.yul\":766:885   */\n    tag_213:\n        /* \"#utility.yul\":924:925   */\n      0x00\n        /* \"#utility.yul\":949:1002   */\n      tag_215\n        /* \"#utility.yul\":994:1001   */\n      dup5\n        /* \"#utility.yul\":985:991   */\n      dup3\n        /* \"#utility.yul\":974:983   */\n      dup6\n        /* \"#utility.yul\":970:992   */\n      add\n        /* \"#utility.yul\":949:1002   */\n      tag_150\n      jump\t// in\n    tag_215:\n        /* \"#utility.yul\":939:1002   */\n      swap2\n      pop\n        /* \"#utility.yul\":895:1012   */\n      pop\n        /* \"#utility.yul\":690:1019   */\n      swap3\n      swap2\n      pop\n      pop\n      jump\t// out\n        /* \"#utility.yul\":1025:1163   */\n    tag_151:\n        /* \"#utility.yul\":1116:1122   */\n      0x00\n        /* \"#utility.yul\":1150:1155   */\n      dup2\n        /* \"#utility.yul\":1144:1156   */\n      mload\n        /* \"#utility.yul\":1134:1156   */\n      swap1\n      pop\n        /* \"#utility.yul\":1025:1163   */\n      swap2\n      swap1\n      pop\n      jump\t// out\n        /* \"#utility.yul\":1169:1377   */\n    tag_152:\n        /* \"#utility.yul\":1292:1303   */\n      0x00\n        /* \"#utility.yul\":1326:1332   */\n      dup3\n        /* \"#utility.yul\":1321:1324   */\n      dup3\n        /* \"#utility.yul\":1314:1333   */\n      mstore\n        /* \"#utility.yul\":1366:1370   */\n      0x20\n        /* \"#utility.yul\":1361:1364   */\n      dup3\n        /* \"#utility.yul\":1357:1371   */\n      add\n        /* \"#utility.yul\":1342:1371   */\n      swap1\n      pop\n        /* \"#utility.yul\":1169:1377   */\n      swap3\n      swap2\n      pop\n      pop\n      jump\t// out\n        /* \"#utility.yul\":1383:1539   */\n    tag_153:\n        /* \"#utility.yul\":1474:1478   */\n      0x00\n        /* \"#utility.yul\":1497:1500   */\n      dup2\n        /* \"#utility.yul\":1489:1500   */\n      swap1\n      pop\n        /* \"#utility.yul\":1527:1531   */\n      0x20\n        /* \"#utility.yul\":1522:1525   */\n      dup3\n        /* \"#utility.yul\":1518:1532   */\n      add\n        /* \"#utility.yul\":1510:1532   */\n      swap1\n      pop\n        /* \"#utility.yul\":1383:1539   */\n      swap2\n      swap1\n      pop\n      jump\t// out\n        /* \"#utility.yul\":1545:1644   */\n    tag_154:\n        /* \"#utility.yul\":1597:1603   */\n      0x00\n        /* \"#utility.yul\":1631:1636   */\n      dup2\n        /* \"#utility.yul\":1625:1637   */\n      mload\n        /* \"#utility.yul\":1615:1637   */\n      swap1\n      pop\n        /* \"#utility.yul\":1545:1644   */\n      swap2\n      swap1\n      pop\n      jump\t// out\n        /* \"#utility.yul\":1650:1809   */\n    tag_155:\n        /* \"#utility.yul\":1724:1735   */\n      0x00\n        /* \"#utility.yul\":1758:1764   */\n      dup3\n        /* \"#utility.yul\":1753:1756   */\n      dup3\n        /* \"#utility.yul\":1746:1765   */\n      mstore\n        /* \"#utility.yul\":1798:1802   */\n      0x20\n        /* \"#utility.yul\":1793:1796   */\n      dup3\n        /* \"#utility.yul\":1789:1803   */\n      add\n        /* \"#utility.yul\":1774:1803   */\n      swap1\n      pop\n        /* \"#utility.yul\":1650:1809   */\n      swap3\n      swap2\n      pop\n      pop\n      jump\t// out\n        /* \"#utility.yul\":1815:1954   */\n    tag_156:\n        /* \"#utility.yul\":1904:1910   */\n      dup3\n        /* \"#utility.yul\":1899:1902   */\n      dup2\n        /* \"#utility.yul\":1894:1897   */\n      dup4\n        /* \"#utility.yul\":1888:1911   */\n      mcopy\n        /* \"#utility.yul\":1945:1946   */\n      0x00\n        /* \"#utility.yul\":1936:1942   */\n      dup4\n        /* \"#utility.yul\":1931:1934   */\n      dup4\n        /* \"#utility.yul\":1927:1943   */\n      add\n        /* \"#utility.yul\":1920:1947   */\n      mstore\n        /* \"#utility.yul\":1815:1954   */\n      pop\n      pop\n      pop\n      jump\t// out\n        /* \"#utility.yul\":1960:2062   */\n    tag_157:\n        /* \"#utility.yul\":2001:2007   */\n      0x00\n        /* \"#utility.yul\":2052:2054   */\n      0x1f\n        /* \"#utility.yul\":2048:2055   */\n      not\n        /* \"#utility.yul\":2043:2045   */\n      0x1f\n        /* \"#utility.yul\":2036:2041   */\n      dup4\n        /* \"#utility.yul\":2032:2046   */\n      add\n        /* \"#utility.yul\":2028:2056   */\n      and\n        /* \"#utility.yul\":2018:2056   */\n      swap1\n      pop\n        /* \"#utility.yul\":1960:2062   */\n      swap2\n      swap1\n      pop\n      jump\t// out\n        /* \"#utility.yul\":2068:2425   */\n    tag_158:\n        /* \"#utility.yul\":2146:2149   */\n      0x00\n        /* \"#utility.yul\":2174:2213   */\n      tag_224\n        /* \"#utility.yul\":2207:2212   */\n      dup3\n        /* \"#utility.yul\":2174:2213   */\n      tag_154\n      jump\t// in\n    tag_224:\n        /* \"#utility.yul\":2229:2290   */\n      tag_225\n        /* \"#utility.yul\":2283:2289   */\n      dup2\n        /* \"#utility.yul\":2278:2281   */\n      dup6\n        /* \"#utility.yul\":2229:2290   */\n      tag_155\n      jump\t// in\n    tag_225:\n        /* \"#utility.yul\":2222:2290   */\n      swap4\n      pop\n        /* \"#utility.yul\":2299:2364   */\n      tag_226\n        /* \"#utility.yul\":2357:2363   */\n      dup2\n        /* \"#utility.yul\":2352:2355   */\n      dup6\n        /* \"#utility.yul\":2345:2349   */\n      0x20\n        /* \"#utility.yul\":2338:2343   */\n      dup7\n        /* \"#utility.yul\":2334:2350   */\n      add\n        /* \"#utility.yul\":2299:2364   */\n      tag_156\n      jump\t// in\n    tag_226:\n        /* \"#utility.yul\":2389:2418   */\n      tag_227\n        /* \"#utility.yul\":2411:2417   */\n      dup2\n        /* \"#utility.yul\":2389:2418   */\n      tag_157\n      jump\t// in\n    tag_227:\n        /* \"#utility.yul\":2384:2387   */\n      dup5\n        /* \"#utility.yul\":2380:2419   */\n      add\n        /* \"#utility.yul\":2373:2419   */\n      swap2\n      pop\n        /* \"#utility.yul\":2150:2425   */\n      pop\n        /* \"#utility.yul\":2068:2425   */\n      swap3\n      swap2\n      pop\n      pop\n      jump\t// out\n        /* \"#utility.yul\":2431:2539   */\n    tag_159:\n        /* \"#utility.yul\":2508:2532   */\n      tag_229\n        /* \"#utility.yul\":2526:2531   */\n      dup2\n        /* \"#utility.yul\":2508:2532   */\n      tag_148\n      jump\t// in\n    tag_229:\n        /* \"#utility.yul\":2503:2506   */\n      dup3\n        /* \"#utility.yul\":2496:2533   */\n      mstore\n        /* \"#utility.yul\":2431:2539   */\n      pop\n      pop\n      jump\t// out\n        /* \"#utility.yul\":2599:3195   */\n    tag_160:\n        /* \"#utility.yul\":2706:2709   */\n      0x00\n        /* \"#utility.yul\":2742:2746   */\n      0x40\n        /* \"#utility.yul\":2737:2740   */\n      dup4\n        /* \"#utility.yul\":2733:2747   */\n      add\n        /* \"#utility.yul\":2829:2833   */\n      0x00\n        /* \"#utility.yul\":2822:2827   */\n      dup4\n        /* \"#utility.yul\":2818:2834   */\n      add\n        /* \"#utility.yul\":2812:2835   */\n      mload\n        /* \"#utility.yul\":2882:2885   */\n      dup5\n        /* \"#utility.yul\":2876:2880   */\n      dup3\n        /* \"#utility.yul\":2872:2886   */\n      sub\n        /* \"#utility.yul\":2865:2869   */\n      0x00\n        /* \"#utility.yul\":2860:2863   */\n      dup7\n        /* \"#utility.yul\":2856:2870   */\n      add\n        /* \"#utility.yul\":2849:2887   */\n      mstore\n        /* \"#utility.yul\":2908:2981   */\n      tag_231\n        /* \"#utility.yul\":2976:2980   */\n      dup3\n        /* \"#utility.yul\":2962:2974   */\n      dup3\n        /* \"#utility.yul\":2908:2981   */\n      tag_158\n      jump\t// in\n    tag_231:\n        /* \"#utility.yul\":2900:2981   */\n      swap2\n      pop\n        /* \"#utility.yul\":2757:2992   */\n      pop\n        /* \"#utility.yul\":3076:3080   */\n      0x20\n        /* \"#utility.yul\":3069:3074   */\n      dup4\n        /* \"#utility.yul\":3065:3081   */\n      add\n        /* \"#utility.yul\":3059:3082   */\n      mload\n        /* \"#utility.yul\":3095:3158   */\n      tag_232\n        /* \"#utility.yul\":3152:3156   */\n      0x20\n        /* \"#utility.yul\":3147:3150   */\n      dup7\n        /* \"#utility.yul\":3143:3157   */\n      add\n        /* \"#utility.yul\":3129:3141   */\n      dup3\n        /* \"#utility.yul\":3095:3158   */\n      tag_159\n      jump\t// in\n    tag_232:\n        /* \"#utility.yul\":3002:3168   */\n      pop\n        /* \"#utility.yul\":3185:3189   */\n      dup1\n        /* \"#utility.yul\":3178:3189   */\n      swap2\n      pop\n        /* \"#utility.yul\":2711:3195   */\n      pop\n        /* \"#utility.yul\":2599:3195   */\n      swap3\n      swap2\n      pop\n      pop\n      jump\t// out\n        /* \"#utility.yul\":3201:3453   */\n    tag_161:\n        /* \"#utility.yul\":3318:3328   */\n      0x00\n        /* \"#utility.yul\":3353:3447   */\n      tag_234\n        /* \"#utility.yul\":3443:3446   */\n      dup4\n        /* \"#utility.yul\":3435:3441   */\n      dup4\n        /* \"#utility.yul\":3353:3447   */\n      tag_160\n      jump\t// in\n    tag_234:\n        /* \"#utility.yul\":3339:3447   */\n      swap1\n      pop\n        /* \"#utility.yul\":3201:3453   */\n      swap3\n      swap2\n      pop\n      pop\n      jump\t// out\n        /* \"#utility.yul\":3459:3596   */\n    tag_162:\n        /* \"#utility.yul\":3553:3557   */\n      0x00\n        /* \"#utility.yul\":3585:3589   */\n      0x20\n        /* \"#utility.yul\":3580:3583   */\n      dup3\n        /* \"#utility.yul\":3576:3590   */\n      add\n        /* \"#utility.yul\":3568:3590   */\n      swap1\n      pop\n        /* \"#utility.yul\":3459:3596   */\n      swap2\n      swap1\n      pop\n      jump\t// out\n        /* \"#utility.yul\":3660:4763   */\n    tag_163:\n        /* \"#utility.yul\":3827:3830   */\n      0x00\n        /* \"#utility.yul\":3856:3934   */\n      tag_237\n        /* \"#utility.yul\":3928:3933   */\n      dup3\n        /* \"#utility.yul\":3856:3934   */\n      tag_151\n      jump\t// in\n    tag_237:\n        /* \"#utility.yul\":3950:4060   */\n      tag_238\n        /* \"#utility.yul\":4053:4059   */\n      dup2\n        /* \"#utility.yul\":4048:4051   */\n      dup6\n        /* \"#utility.yul\":3950:4060   */\n      tag_152\n      jump\t// in\n    tag_238:\n        /* \"#utility.yul\":3943:4060   */\n      swap4\n      pop\n        /* \"#utility.yul\":4086:4089   */\n      dup4\n        /* \"#utility.yul\":4131:4135   */\n      0x20\n        /* \"#utility.yul\":4123:4129   */\n      dup3\n        /* \"#utility.yul\":4119:4136   */\n      mul\n        /* \"#utility.yul\":4114:4117   */\n      dup6\n        /* \"#utility.yul\":4110:4137   */\n      add\n        /* \"#utility.yul\":4161:4241   */\n      tag_239\n        /* \"#utility.yul\":4235:4240   */\n      dup6\n        /* \"#utility.yul\":4161:4241   */\n      tag_153\n      jump\t// in\n    tag_239:\n        /* \"#utility.yul\":4264:4271   */\n      dup1\n        /* \"#utility.yul\":4295:4296   */\n      0x00\n        /* \"#utility.yul\":4280:4718   */\n    tag_240:\n        /* \"#utility.yul\":4305:4311   */\n      dup6\n        /* \"#utility.yul\":4302:4303   */\n      dup2\n        /* \"#utility.yul\":4299:4312   */\n      lt\n        /* \"#utility.yul\":4280:4718   */\n      iszero\n      tag_242\n      jumpi\n        /* \"#utility.yul\":4376:4385   */\n      dup5\n        /* \"#utility.yul\":4370:4374   */\n      dup5\n        /* \"#utility.yul\":4366:4386   */\n      sub\n        /* \"#utility.yul\":4361:4364   */\n      dup10\n        /* \"#utility.yul\":4354:4387   */\n      mstore\n        /* \"#utility.yul\":4427:4433   */\n      dup2\n        /* \"#utility.yul\":4421:4434   */\n      mload\n        /* \"#utility.yul\":4455:4567   */\n      tag_243\n        /* \"#utility.yul\":4562:4566   */\n      dup6\n        /* \"#utility.yul\":4547:4560   */\n      dup3\n        /* \"#utility.yul\":4455:4567   */\n      tag_161\n      jump\t// in\n    tag_243:\n        /* \"#utility.yul\":4447:4567   */\n      swap5\n      pop\n        /* \"#utility.yul\":4590:4674   */\n      tag_244\n        /* \"#utility.yul\":4667:4673   */\n      dup4\n        /* \"#utility.yul\":4590:4674   */\n      tag_162\n      jump\t// in\n    tag_244:\n        /* \"#utility.yul\":4580:4674   */\n      swap3\n      pop\n        /* \"#utility.yul\":4703:4707   */\n      0x20\n        /* \"#utility.yul\":4698:4701   */\n      dup11\n        /* \"#utility.yul\":4694:4708   */\n      add\n        /* \"#utility.yul\":4687:4708   */\n      swap10\n      pop\n        /* \"#utility.yul\":4340:4718   */\n      pop\n        /* \"#utility.yul\":4327:4328   */\n      0x01\n        /* \"#utility.yul\":4324:4325   */\n      dup2\n        /* \"#utility.yul\":4320:4329   */\n      add\n        /* \"#utility.yul\":4315:4329   */\n      swap1\n      pop\n        /* \"#utility.yul\":4280:4718   */\n      jump(tag_240)\n    tag_242:\n        /* \"#utility.yul\":4284:4298   */\n      pop\n        /* \"#utility.yul\":4734:4738   */\n      dup3\n        /* \"#utility.yul\":4727:4738   */\n      swap8\n      pop\n        /* \"#utility.yul\":4754:4757   */\n      dup8\n        /* \"#utility.yul\":4747:4757   */\n      swap6\n      pop\n        /* \"#utility.yul\":3832:4763   */\n      pop\n      pop\n      pop\n      pop\n      pop\n        /* \"#utility.yul\":3660:4763   */\n      swap3\n      swap2\n      pop\n      pop\n      jump\t// out\n        /* \"#utility.yul\":4769:5238   */\n    tag_24:\n        /* \"#utility.yul\":4960:4964   */\n      0x00\n        /* \"#utility.yul\":4998:5000   */\n      0x20\n        /* \"#utility.yul\":4987:4996   */\n      dup3\n        /* \"#utility.yul\":4983:5001   */\n      add\n        /* \"#utility.yul\":4975:5001   */\n      swap1\n      pop\n        /* \"#utility.yul\":5047:5056   */\n      dup2\n        /* \"#utility.yul\":5041:5045   */\n      dup2\n        /* \"#utility.yul\":5037:5057   */\n      sub\n        /* \"#utility.yul\":5033:5034   */\n      0x00\n        /* \"#utility.yul\":5022:5031   */\n      dup4\n        /* \"#utility.yul\":5018:5035   */\n      add\n        /* \"#utility.yul\":5011:5058   */\n      mstore\n        /* \"#utility.yul\":5075:5231   */\n      tag_246\n        /* \"#utility.yul\":5226:5230   */\n      dup2\n        /* \"#utility.yul\":5217:5223   */\n      dup5\n        /* \"#utility.yul\":5075:5231   */\n      tag_163\n      jump\t// in\n    tag_246:\n        /* \"#utility.yul\":5067:5231   */\n      swap1\n      pop\n        /* \"#utility.yul\":4769:5238   */\n      swap3\n      swap2\n      pop\n      pop\n      jump\t// out\n        /* \"#utility.yul\":5244:5361   */\n    tag_164:\n        /* \"#utility.yul\":5353:5354   */\n      0x00\n        /* \"#utility.yul\":5350:5351   */\n      dup1\n        /* \"#utility.yul\":5343:5355   */\n      revert\n        /* \"#utility.yul\":5367:5484   */\n    tag_165:\n        /* \"#utility.yul\":5476:5477   */\n      0x00\n        /* \"#utility.yul\":5473:5474   */\n      dup1\n        /* \"#utility.yul\":5466:5478   */\n      revert\n        /* \"#utility.yul\":5490:5670   */\n    tag_166:\n        /* \"#utility.yul\":5538:5615   */\n      0x4e487b7100000000000000000000000000000000000000000000000000000000\n        /* \"#utility.yul\":5535:5536   */\n      0x00\n        /* \"#utility.yul\":5528:5616   */\n      mstore\n        /* \"#utility.yul\":5635:5639   */\n      0x41\n        /* \"#utility.yul\":5632:5633   */\n      0x04\n        /* \"#utility.yul\":5625:5640   */\n      mstore\n        /* \"#utility.yul\":5659:5663   */\n      0x24\n        /* \"#utility.yul\":5656:5657   */\n      0x00\n        /* \"#utility.yul\":5649:5664   */\n      revert\n        /* \"#utility.yul\":5676:5957   */\n    tag_167:\n        /* \"#utility.yul\":5759:5786   */\n      tag_251\n        /* \"#utility.yul\":5781:5785   */\n      dup3\n        /* \"#utility.yul\":5759:5786   */\n      tag_157\n      jump\t// in\n    tag_251:\n        /* \"#utility.yul\":5751:5757   */\n      dup2\n        /* \"#utility.yul\":5747:5787   */\n      add\n        /* \"#utility.yul\":5889:5895   */\n      dup2\n        /* \"#utility.yul\":5877:5887   */\n      dup2\n        /* \"#utility.yul\":5874:5896   */\n      lt\n        /* \"#utility.yul\":5853:5871   */\n      0xffffffffffffffff\n        /* \"#utility.yul\":5841:5851   */\n      dup3\n        /* \"#utility.yul\":5838:5872   */\n      gt\n        /* \"#utility.yul\":5835:5897   */\n      or\n        /* \"#utility.yul\":5832:5920   */\n      iszero\n      tag_252\n      jumpi\n        /* \"#utility.yul\":5900:5918   */\n      tag_253\n      tag_166\n      jump\t// in\n    tag_253:\n        /* \"#utility.yul\":5832:5920   */\n    tag_252:\n        /* \"#utility.yul\":5940:5950   */\n      dup1\n        /* \"#utility.yul\":5936:5938   */\n      0x40\n        /* \"#utility.yul\":5929:5951   */\n      mstore\n        /* \"#utility.yul\":5719:5957   */\n      pop\n        /* \"#utility.yul\":5676:5957   */\n      pop\n      pop\n      jump\t// out\n        /* \"#utility.yul\":5963:6092   */\n    tag_168:\n        /* \"#utility.yul\":5997:6003   */\n      0x00\n        /* \"#utility.yul\":6024:6044   */\n      tag_255\n      tag_145\n      jump\t// in\n    tag_255:\n        /* \"#utility.yul\":6014:6044   */\n      swap1\n      pop\n        /* \"#utility.yul\":6053:6086   */\n      tag_256\n        /* \"#utility.yul\":6081:6085   */\n      dup3\n        /* \"#utility.yul\":6073:6079   */\n      dup3\n        /* \"#utility.yul\":6053:6086   */\n      tag_167\n      jump\t// in\n    tag_256:\n        /* \"#utility.yul\":5963:6092   */\n      swap2\n      swap1\n      pop\n      jump\t// out\n        /* \"#utility.yul\":6098:6406   */\n    tag_169:\n        /* \"#utility.yul\":6160:6164   */\n      0x00\n        /* \"#utility.yul\":6250:6268   */\n      0xffffffffffffffff\n        /* \"#utility.yul\":6242:6248   */\n      dup3\n        /* \"#utility.yul\":6239:6269   */\n      gt\n        /* \"#utility.yul\":6236:6292   */\n      iszero\n      tag_258\n      jumpi\n        /* \"#utility.yul\":6272:6290   */\n      tag_259\n      tag_166\n      jump\t// in\n    tag_259:\n        /* \"#utility.yul\":6236:6292   */\n    tag_258:\n        /* \"#utility.yul\":6310:6339   */\n      tag_260\n        /* \"#utility.yul\":6332:6338   */\n      dup3\n        /* \"#utility.yul\":6310:6339   */\n      tag_157\n      jump\t// in\n    tag_260:\n        /* \"#utility.yul\":6302:6339   */\n      swap1\n      pop\n        /* \"#utility.yul\":6394:6398   */\n      0x20\n        /* \"#utility.yul\":6388:6392   */\n      dup2\n        /* \"#utility.yul\":6384:6399   */\n      add\n        /* \"#utility.yul\":6376:6399   */\n      swap1\n      pop\n        /* \"#utility.yul\":6098:6406   */\n      swap2\n      swap1\n      pop\n      jump\t// out\n        /* \"#utility.yul\":6412:6560   */\n    tag_170:\n        /* \"#utility.yul\":6510:6516   */\n      dup3\n        /* \"#utility.yul\":6505:6508   */\n      dup2\n        /* \"#utility.yul\":6500:6503   */\n      dup4\n        /* \"#utility.yul\":6487:6517   */\n      calldatacopy\n        /* \"#utility.yul\":6551:6552   */\n      0x00\n        /* \"#utility.yul\":6542:6548   */\n      dup4\n        /* \"#utility.yul\":6537:6540   */\n      dup4\n        /* \"#utility.yul\":6533:6549   */\n      add\n        /* \"#utility.yul\":6526:6553   */\n      mstore\n        /* \"#utility.yul\":6412:6560   */\n      pop\n      pop\n      pop\n      jump\t// out\n        /* \"#utility.yul\":6566:6991   */\n    tag_171:\n        /* \"#utility.yul\":6644:6649   */\n      0x00\n        /* \"#utility.yul\":6669:6735   */\n      tag_263\n        /* \"#utility.yul\":6685:6734   */\n      tag_264\n        /* \"#utility.yul\":6727:6733   */\n      dup5\n        /* \"#utility.yul\":6685:6734   */\n      tag_169\n      jump\t// in\n    tag_264:\n        /* \"#utility.yul\":6669:6735   */\n      tag_168\n      jump\t// in\n    tag_263:\n        /* \"#utility.yul\":6660:6735   */\n      swap1\n      pop\n        /* \"#utility.yul\":6758:6764   */\n      dup3\n        /* \"#utility.yul\":6751:6756   */\n      dup2\n        /* \"#utility.yul\":6744:6765   */\n      mstore\n        /* \"#utility.yul\":6796:6800   */\n      0x20\n        /* \"#utility.yul\":6789:6794   */\n      dup2\n        /* \"#utility.yul\":6785:6801   */\n      add\n        /* \"#utility.yul\":6834:6837   */\n      dup5\n        /* \"#utility.yul\":6825:6831   */\n      dup5\n        /* \"#utility.yul\":6820:6823   */\n      dup5\n        /* \"#utility.yul\":6816:6832   */\n      add\n        /* \"#utility.yul\":6813:6838   */\n      gt\n        /* \"#utility.yul\":6810:6922   */\n      iszero\n      tag_265\n      jumpi\n        /* \"#utility.yul\":6841:6920   */\n      tag_266\n      tag_165\n      jump\t// in\n    tag_266:\n        /* \"#utility.yul\":6810:6922   */\n    tag_265:\n        /* \"#utility.yul\":6931:6985   */\n      tag_267\n        /* \"#utility.yul\":6978:6984   */\n      dup5\n        /* \"#utility.yul\":6973:6976   */\n      dup3\n        /* \"#utility.yul\":6968:6971   */\n      dup6\n        /* \"#utility.yul\":6931:6985   */\n      tag_170\n      jump\t// in\n    tag_267:\n        /* \"#utility.yul\":6650:6991   */\n      pop\n        /* \"#utility.yul\":6566:6991   */\n      swap4\n      swap3\n      pop\n      pop\n      pop\n      jump\t// out\n        /* \"#utility.yul\":7011:7351   */\n    tag_172:\n        /* \"#utility.yul\":7067:7072   */\n      0x00\n        /* \"#utility.yul\":7116:7119   */\n      dup3\n        /* \"#utility.yul\":7109:7113   */\n      0x1f\n        /* \"#utility.yul\":7101:7107   */\n      dup4\n        /* \"#utility.yul\":7097:7114   */\n      add\n        /* \"#utility.yul\":7093:7120   */\n      slt\n        /* \"#utility.yul\":7083:7205   */\n      tag_269\n      jumpi\n        /* \"#utility.yul\":7124:7203   */\n      tag_270\n      tag_164\n      jump\t// in\n    tag_270:\n        /* \"#utility.yul\":7083:7205   */\n    tag_269:\n        /* \"#utility.yul\":7241:7247   */\n      dup2\n        /* \"#utility.yul\":7228:7248   */\n      calldataload\n        /* \"#utility.yul\":7266:7345   */\n      tag_271\n        /* \"#utility.yul\":7341:7344   */\n      dup5\n        /* \"#utility.yul\":7333:7339   */\n      dup3\n        /* \"#utility.yul\":7326:7330   */\n      0x20\n        /* \"#utility.yul\":7318:7324   */\n      dup7\n        /* \"#utility.yul\":7314:7331   */\n      add\n        /* \"#utility.yul\":7266:7345   */\n      tag_171\n      jump\t// in\n    tag_271:\n        /* \"#utility.yul\":7257:7345   */\n      swap2\n      pop\n        /* \"#utility.yul\":7073:7351   */\n      pop\n        /* \"#utility.yul\":7011:7351   */\n      swap3\n      swap2\n      pop\n      pop\n      jump\t// out\n        /* \"#utility.yul\":7357:7866   */\n    tag_27:\n        /* \"#utility.yul\":7426:7432   */\n      0x00\n        /* \"#utility.yul\":7475:7477   */\n      0x20\n        /* \"#utility.yul\":7463:7472   */\n      dup3\n        /* \"#utility.yul\":7454:7461   */\n      dup5\n        /* \"#utility.yul\":7450:7473   */\n      sub\n        /* \"#utility.yul\":7446:7478   */\n      slt\n        /* \"#utility.yul\":7443:7562   */\n      iszero\n      tag_273\n      jumpi\n        /* \"#utility.yul\":7481:7560   */\n      tag_274\n      tag_146\n      jump\t// in\n    tag_274:\n        /* \"#utility.yul\":7443:7562   */\n    tag_273:\n        /* \"#utility.yul\":7629:7630   */\n      0x00\n        /* \"#utility.yul\":7618:7627   */\n      dup3\n        /* \"#utility.yul\":7614:7631   */\n      add\n        /* \"#utility.yul\":7601:7632   */\n      calldataload\n        /* \"#utility.yul\":7659:7677   */\n      0xffffffffffffffff\n        /* \"#utility.yul\":7651:7657   */\n      dup2\n        /* \"#utility.yul\":7648:7678   */\n      gt\n        /* \"#utility.yul\":7645:7762   */\n      iszero\n      tag_275\n      jumpi\n        /* \"#utility.yul\":7681:7760   */\n      tag_276\n      tag_147\n      jump\t// in\n    tag_276:\n        /* \"#utility.yul\":7645:7762   */\n    tag_275:\n        /* \"#utility.yul\":7786:7849   */\n      tag_277\n        /* \"#utility.yul\":7841:7848   */\n      dup5\n        /* \"#utility.yul\":7832:7838   */\n      dup3\n        /* \"#utility.yul\":7821:7830   */\n      dup6\n        /* \"#utility.yul\":7817:7839   */\n      add\n        /* \"#utility.yul\":7786:7849   */\n      tag_172\n      jump\t// in\n    tag_277:\n        /* \"#utility.yul\":7776:7849   */\n      swap2\n      pop\n        /* \"#utility.yul\":7572:7859   */\n      pop\n        /* \"#utility.yul\":7357:7866   */\n      swap3\n      swap2\n      pop\n      pop\n      jump\t// out\n        /* \"#utility.yul\":7872:7998   */\n    tag_173:\n        /* \"#utility.yul\":7909:7916   */\n      0x00\n        /* \"#utility.yul\":7949:7991   */\n      0xffffffffffffffffffffffffffffffffffffffff\n        /* \"#utility.yul\":7942:7947   */\n      dup3\n        /* \"#utility.yul\":7938:7992   */\n      and\n        /* \"#utility.yul\":7927:7992   */\n      swap1\n      pop\n        /* \"#utility.yul\":7872:7998   */\n      swap2\n      swap1\n      pop\n      jump\t// out\n        /* \"#utility.yul\":8004:8100   */\n    tag_174:\n        /* \"#utility.yul\":8041:8048   */\n      0x00\n        /* \"#utility.yul\":8070:8094   */\n      tag_280\n        /* \"#utility.yul\":8088:8093   */\n      dup3\n        /* \"#utility.yul\":8070:8094   */\n      tag_173\n      jump\t// in\n    tag_280:\n        /* \"#utility.yul\":8059:8094   */\n      swap1\n      pop\n        /* \"#utility.yul\":8004:8100   */\n      swap2\n      swap1\n      pop\n      jump\t// out\n        /* \"#utility.yul\":8106:8224   */\n    tag_175:\n        /* \"#utility.yul\":8193:8217   */\n      tag_282\n        /* \"#utility.yul\":8211:8216   */\n      dup2\n        /* \"#utility.yul\":8193:8217   */\n      tag_174\n      jump\t// in\n    tag_282:\n        /* \"#utility.yul\":8188:8191   */\n      dup3\n        /* \"#utility.yul\":8181:8218   */\n      mstore\n        /* \"#utility.yul\":8106:8224   */\n      pop\n      pop\n      jump\t// out\n        /* \"#utility.yul\":8230:8452   */\n    tag_32:\n        /* \"#utility.yul\":8323:8327   */\n      0x00\n        /* \"#utility.yul\":8361:8363   */\n      0x20\n        /* \"#utility.yul\":8350:8359   */\n      dup3\n        /* \"#utility.yul\":8346:8364   */\n      add\n        /* \"#utility.yul\":8338:8364   */\n      swap1\n      pop\n        /* \"#utility.yul\":8374:8445   */\n      tag_284\n        /* \"#utility.yul\":8442:8443   */\n      0x00\n        /* \"#utility.yul\":8431:8440   */\n      dup4\n        /* \"#utility.yul\":8427:8444   */\n      add\n        /* \"#utility.yul\":8418:8424   */\n      dup5\n        /* \"#utility.yul\":8374:8445   */\n      tag_175\n      jump\t// in\n    tag_284:\n        /* \"#utility.yul\":8230:8452   */\n      swap3\n      swap2\n      pop\n      pop\n      jump\t// out\n        /* \"#utility.yul\":8458:8548   */\n    tag_176:\n        /* \"#utility.yul\":8492:8499   */\n      0x00\n        /* \"#utility.yul\":8535:8540   */\n      dup2\n        /* \"#utility.yul\":8528:8541   */\n      iszero\n        /* \"#utility.yul\":8521:8542   */\n      iszero\n        /* \"#utility.yul\":8510:8542   */\n      swap1\n      pop\n        /* \"#utility.yul\":8458:8548   */\n      swap2\n      swap1\n      pop\n      jump\t// out\n        /* \"#utility.yul\":8554:8663   */\n    tag_177:\n        /* \"#utility.yul\":8635:8656   */\n      tag_287\n        /* \"#utility.yul\":8650:8655   */\n      dup2\n        /* \"#utility.yul\":8635:8656   */\n      tag_176\n      jump\t// in\n    tag_287:\n        /* \"#utility.yul\":8630:8633   */\n      dup3\n        /* \"#utility.yul\":8623:8657   */\n      mstore\n        /* \"#utility.yul\":8554:8663   */\n      pop\n      pop\n      jump\t// out\n        /* \"#utility.yul\":8669:8879   */\n    tag_36:\n        /* \"#utility.yul\":8756:8760   */\n      0x00\n        /* \"#utility.yul\":8794:8796   */\n      0x20\n        /* \"#utility.yul\":8783:8792   */\n      dup3\n        /* \"#utility.yul\":8779:8797   */\n      add\n        /* \"#utility.yul\":8771:8797   */\n      swap1\n      pop\n        /* \"#utility.yul\":8807:8872   */\n      tag_289\n        /* \"#utility.yul\":8869:8870   */\n      0x00\n        /* \"#utility.yul\":8858:8867   */\n      dup4\n        /* \"#utility.yul\":8854:8871   */\n      add\n        /* \"#utility.yul\":8845:8851   */\n      dup5\n        /* \"#utility.yul\":8807:8872   */\n      tag_177\n      jump\t// in\n    tag_289:\n        /* \"#utility.yul\":8669:8879   */\n      swap3\n      swap2\n      pop\n      pop\n      jump\t// out\n        /* \"#utility.yul\":8885:9003   */\n    tag_178:\n        /* \"#utility.yul\":8972:8996   */\n      tag_291\n        /* \"#utility.yul\":8990:8995   */\n      dup2\n        /* \"#utility.yul\":8972:8996   */\n      tag_148\n      jump\t// in\n    tag_291:\n        /* \"#utility.yul\":8967:8970   */\n      dup3\n        /* \"#utility.yul\":8960:8997   */\n      mstore\n        /* \"#utility.yul\":8885:9003   */\n      pop\n      pop\n      jump\t// out\n        /* \"#utility.yul\":9009:9231   */\n    tag_43:\n        /* \"#utility.yul\":9102:9106   */\n      0x00\n        /* \"#utility.yul\":9140:9142   */\n      0x20\n        /* \"#utility.yul\":9129:9138   */\n      dup3\n        /* \"#utility.yul\":9125:9143   */\n      add\n        /* \"#utility.yul\":9117:9143   */\n      swap1\n      pop\n        /* \"#utility.yul\":9153:9224   */\n      tag_293\n        /* \"#utility.yul\":9221:9222   */\n      0x00\n        /* \"#utility.yul\":9210:9219   */\n      dup4\n        /* \"#utility.yul\":9206:9223   */\n      add\n        /* \"#utility.yul\":9197:9203   */\n      dup5\n        /* \"#utility.yul\":9153:9224   */\n      tag_178\n      jump\t// in\n    tag_293:\n        /* \"#utility.yul\":9009:9231   */\n      swap3\n      swap2\n      pop\n      pop\n      jump\t// out\n        /* \"#utility.yul\":9237:9359   */\n    tag_179:\n        /* \"#utility.yul\":9310:9334   */\n      tag_295\n        /* \"#utility.yul\":9328:9333   */\n      dup2\n        /* \"#utility.yul\":9310:9334   */\n      tag_174\n      jump\t// in\n    tag_295:\n        /* \"#utility.yul\":9303:9308   */\n      dup2\n        /* \"#utility.yul\":9300:9335   */\n      eq\n        /* \"#utility.yul\":9290:9353   */\n      tag_296\n      jumpi\n        /* \"#utility.yul\":9349:9350   */\n      0x00\n        /* \"#utility.yul\":9346:9347   */\n      dup1\n        /* \"#utility.yul\":9339:9351   */\n      revert\n        /* \"#utility.yul\":9290:9353   */\n    tag_296:\n        /* \"#utility.yul\":9237:9359   */\n      pop\n      jump\t// out\n        /* \"#utility.yul\":9365:9504   */\n    tag_180:\n        /* \"#utility.yul\":9411:9416   */\n      0x00\n        /* \"#utility.yul\":9449:9455   */\n      dup2\n        /* \"#utility.yul\":9436:9456   */\n      calldataload\n        /* \"#utility.yul\":9427:9456   */\n      swap1\n      pop\n        /* \"#utility.yul\":9465:9498   */\n      tag_298\n        /* \"#utility.yul\":9492:9497   */\n      dup2\n        /* \"#utility.yul\":9465:9498   */\n      tag_179\n      jump\t// in\n    tag_298:\n        /* \"#utility.yul\":9365:9504   */\n      swap3\n      swap2\n      pop\n      pop\n      jump\t// out\n        /* \"#utility.yul\":9510:9839   */\n    tag_46:\n        /* \"#utility.yul\":9569:9575   */\n      0x00\n        /* \"#utility.yul\":9618:9620   */\n      0x20\n        /* \"#utility.yul\":9606:9615   */\n      dup3\n        /* \"#utility.yul\":9597:9604   */\n      dup5\n        /* \"#utility.yul\":9593:9616   */\n      sub\n        /* \"#utility.yul\":9589:9621   */\n      slt\n        /* \"#utility.yul\":9586:9705   */\n      iszero\n      tag_300\n      jumpi\n        /* \"#utility.yul\":9624:9703   */\n      tag_301\n      tag_146\n      jump\t// in\n    tag_301:\n        /* \"#utility.yul\":9586:9705   */\n    tag_300:\n        /* \"#utility.yul\":9744:9745   */\n      0x00\n        /* \"#utility.yul\":9769:9822   */\n      tag_302\n        /* \"#utility.yul\":9814:9821   */\n      dup5\n        /* \"#utility.yul\":9805:9811   */\n      dup3\n        /* \"#utility.yul\":9794:9803   */\n      dup6\n        /* \"#utility.yul\":9790:9812   */\n      add\n        /* \"#utility.yul\":9769:9822   */\n      tag_180\n      jump\t// in\n    tag_302:\n        /* \"#utility.yul\":9759:9822   */\n      swap2\n      pop\n        /* \"#utility.yul\":9715:9832   */\n      pop\n        /* \"#utility.yul\":9510:9839   */\n      swap3\n      swap2\n      pop\n      pop\n      jump\t// out\n        /* \"#utility.yul\":9845:10165   */\n    tag_49:\n        /* \"#utility.yul\":9960:9964   */\n      0x00\n        /* \"#utility.yul\":9998:10000   */\n      0x40\n        /* \"#utility.yul\":9987:9996   */\n      dup3\n        /* \"#utility.yul\":9983:10001   */\n      add\n        /* \"#utility.yul\":9975:10001   */\n      swap1\n      pop\n        /* \"#utility.yul\":10011:10076   */\n      tag_304\n        /* \"#utility.yul\":10073:10074   */\n      0x00\n        /* \"#utility.yul\":10062:10071   */\n      dup4\n        /* \"#utility.yul\":10058:10075   */\n      add\n        /* \"#utility.yul\":10049:10055   */\n      dup6\n        /* \"#utility.yul\":10011:10076   */\n      tag_177\n      jump\t// in\n    tag_304:\n        /* \"#utility.yul\":10086:10158   */\n      tag_305\n        /* \"#utility.yul\":10154:10156   */\n      0x20\n        /* \"#utility.yul\":10143:10152   */\n      dup4\n        /* \"#utility.yul\":10139:10157   */\n      add\n        /* \"#utility.yul\":10130:10136   */\n      dup5\n        /* \"#utility.yul\":10086:10158   */\n      tag_178\n      jump\t// in\n    tag_305:\n        /* \"#utility.yul\":9845:10165   */\n      swap4\n      swap3\n      pop\n      pop\n      pop\n      jump\t// out\n        /* \"#utility.yul\":10171:10340   */\n    tag_181:\n        /* \"#utility.yul\":10255:10266   */\n      0x00\n        /* \"#utility.yul\":10289:10295   */\n      dup3\n        /* \"#utility.yul\":10284:10287   */\n      dup3\n        /* \"#utility.yul\":10277:10296   */\n      mstore\n        /* \"#utility.yul\":10329:10333   */\n      0x20\n        /* \"#utility.yul\":10324:10327   */\n      dup3\n        /* \"#utility.yul\":10320:10334   */\n      add\n        /* \"#utility.yul\":10305:10334   */\n      swap1\n      pop\n        /* \"#utility.yul\":10171:10340   */\n      swap3\n      swap2\n      pop\n      pop\n      jump\t// out\n        /* \"#utility.yul\":10346:10723   */\n    tag_182:\n        /* \"#utility.yul\":10434:10437   */\n      0x00\n        /* \"#utility.yul\":10462:10501   */\n      tag_308\n        /* \"#utility.yul\":10495:10500   */\n      dup3\n        /* \"#utility.yul\":10462:10501   */\n      tag_154\n      jump\t// in\n    tag_308:\n        /* \"#utility.yul\":10517:10588   */\n      tag_309\n        /* \"#utility.yul\":10581:10587   */\n      dup2\n        /* \"#utility.yul\":10576:10579   */\n      dup6\n        /* \"#utility.yul\":10517:10588   */\n      tag_181\n      jump\t// in\n    tag_309:\n        /* \"#utility.yul\":10510:10588   */\n      swap4\n      pop\n        /* \"#utility.yul\":10597:10662   */\n      tag_310\n        /* \"#utility.yul\":10655:10661   */\n      dup2\n        /* \"#utility.yul\":10650:10653   */\n      dup6\n        /* \"#utility.yul\":10643:10647   */\n      0x20\n        /* \"#utility.yul\":10636:10641   */\n      dup7\n        /* \"#utility.yul\":10632:10648   */\n      add\n        /* \"#utility.yul\":10597:10662   */\n      tag_156\n      jump\t// in\n    tag_310:\n        /* \"#utility.yul\":10687:10716   */\n      tag_311\n        /* \"#utility.yul\":10709:10715   */\n      dup2\n        /* \"#utility.yul\":10687:10716   */\n      tag_157\n      jump\t// in\n    tag_311:\n        /* \"#utility.yul\":10682:10685   */\n      dup5\n        /* \"#utility.yul\":10678:10717   */\n      add\n        /* \"#utility.yul\":10671:10717   */\n      swap2\n      pop\n        /* \"#utility.yul\":10438:10723   */\n      pop\n        /* \"#utility.yul\":10346:10723   */\n      swap3\n      swap2\n      pop\n      pop\n      jump\t// out\n        /* \"#utility.yul\":10729:11152   */\n    tag_54:\n        /* \"#utility.yul\":10870:10874   */\n      0x00\n        /* \"#utility.yul\":10908:10910   */\n      0x40\n        /* \"#utility.yul\":10897:10906   */\n      dup3\n        /* \"#utility.yul\":10893:10911   */\n      add\n        /* \"#utility.yul\":10885:10911   */\n      swap1\n      pop\n        /* \"#utility.yul\":10957:10966   */\n      dup2\n        /* \"#utility.yul\":10951:10955   */\n      dup2\n        /* \"#utility.yul\":10947:10967   */\n      sub\n        /* \"#utility.yul\":10943:10944   */\n      0x00\n        /* \"#utility.yul\":10932:10941   */\n      dup4\n        /* \"#utility.yul\":10928:10945   */\n      add\n        /* \"#utility.yul\":10921:10968   */\n      mstore\n        /* \"#utility.yul\":10985:11063   */\n      tag_313\n        /* \"#utility.yul\":11058:11062   */\n      dup2\n        /* \"#utility.yul\":11049:11055   */\n      dup6\n        /* \"#utility.yul\":10985:11063   */\n      tag_182\n      jump\t// in\n    tag_313:\n        /* \"#utility.yul\":10977:11063   */\n      swap1\n      pop\n        /* \"#utility.yul\":11073:11145   */\n      tag_314\n        /* \"#utility.yul\":11141:11143   */\n      0x20\n        /* \"#utility.yul\":11130:11139   */\n      dup4\n        /* \"#utility.yul\":11126:11144   */\n      add\n        /* \"#utility.yul\":11117:11123   */\n      dup5\n        /* \"#utility.yul\":11073:11145   */\n      tag_178\n      jump\t// in\n    tag_314:\n        /* \"#utility.yul\":10729:11152   */\n      swap4\n      swap3\n      pop\n      pop\n      pop\n      jump\t// out\n        /* \"#utility.yul\":11158:11338   */\n    tag_183:\n        /* \"#utility.yul\":11206:11283   */\n      0x4e487b7100000000000000000000000000000000000000000000000000000000\n        /* \"#utility.yul\":11203:11204   */\n      0x00\n        /* \"#utility.yul\":11196:11284   */\n      mstore\n        /* \"#utility.yul\":11303:11307   */\n      0x11\n        /* \"#utility.yul\":11300:11301   */\n      0x04\n        /* \"#utility.yul\":11293:11308   */\n      mstore\n        /* \"#utility.yul\":11327:11331   */\n      0x24\n        /* \"#utility.yul\":11324:11325   */\n      0x00\n        /* \"#utility.yul\":11317:11332   */\n      revert\n        /* \"#utility.yul\":11344:11538   */\n    tag_64:\n        /* \"#utility.yul\":11384:11388   */\n      0x00\n        /* \"#utility.yul\":11404:11424   */\n      tag_317\n        /* \"#utility.yul\":11422:11423   */\n      dup3\n        /* \"#utility.yul\":11404:11424   */\n      tag_148\n      jump\t// in\n    tag_317:\n        /* \"#utility.yul\":11399:11424   */\n      swap2\n      pop\n        /* \"#utility.yul\":11438:11458   */\n      tag_318\n        /* \"#utility.yul\":11456:11457   */\n      dup4\n        /* \"#utility.yul\":11438:11458   */\n      tag_148\n      jump\t// in\n    tag_318:\n        /* \"#utility.yul\":11433:11458   */\n      swap3\n      pop\n        /* \"#utility.yul\":11482:11483   */\n      dup3\n        /* \"#utility.yul\":11479:11480   */\n      dup3\n        /* \"#utility.yul\":11475:11484   */\n      sub\n        /* \"#utility.yul\":11467:11484   */\n      swap1\n      pop\n        /* \"#utility.yul\":11506:11507   */\n      dup2\n        /* \"#utility.yul\":11500:11504   */\n      dup2\n        /* \"#utility.yul\":11497:11508   */\n      gt\n        /* \"#utility.yul\":11494:11531   */\n      iszero\n      tag_319\n      jumpi\n        /* \"#utility.yul\":11511:11529   */\n      tag_320\n      tag_183\n      jump\t// in\n    tag_320:\n        /* \"#utility.yul\":11494:11531   */\n    tag_319:\n        /* \"#utility.yul\":11344:11538   */\n      swap3\n      swap2\n      pop\n      pop\n      jump\t// out\n        /* \"#utility.yul\":11544:11724   */\n    tag_67:\n        /* \"#utility.yul\":11592:11669   */\n      0x4e487b7100000000000000000000000000000000000000000000000000000000\n        /* \"#utility.yul\":11589:11590   */\n      0x00\n        /* \"#utility.yul\":11582:11670   */\n      mstore\n        /* \"#utility.yul\":11689:11693   */\n      0x32\n        /* \"#utility.yul\":11686:11687   */\n      0x04\n        /* \"#utility.yul\":11679:11694   */\n      mstore\n        /* \"#utility.yul\":11713:11717   */\n      0x24\n        /* \"#utility.yul\":11710:11711   */\n      0x00\n        /* \"#utility.yul\":11703:11718   */\n      revert\n        /* \"#utility.yul\":11730:11910   */\n    tag_184:\n        /* \"#utility.yul\":11778:11855   */\n      0x4e487b7100000000000000000000000000000000000000000000000000000000\n        /* \"#utility.yul\":11775:11776   */\n      0x00\n        /* \"#utility.yul\":11768:11856   */\n      mstore\n        /* \"#utility.yul\":11875:11879   */\n      0x22\n        /* \"#utility.yul\":11872:11873   */\n      0x04\n        /* \"#utility.yul\":11865:11880   */\n      mstore\n        /* \"#utility.yul\":11899:11903   */\n      0x24\n        /* \"#utility.yul\":11896:11897   */\n      0x00\n        /* \"#utility.yul\":11889:11904   */\n      revert\n        /* \"#utility.yul\":11916:12236   */\n    tag_89:\n        /* \"#utility.yul\":11960:11966   */\n      0x00\n        /* \"#utility.yul\":11997:11998   */\n      0x02\n        /* \"#utility.yul\":11991:11995   */\n      dup3\n        /* \"#utility.yul\":11987:11999   */\n      div\n        /* \"#utility.yul\":11977:11999   */\n      swap1\n      pop\n        /* \"#utility.yul\":12044:12045   */\n      0x01\n        /* \"#utility.yul\":12038:12042   */\n      dup3\n        /* \"#utility.yul\":12034:12046   */\n      and\n        /* \"#utility.yul\":12065:12083   */\n      dup1\n        /* \"#utility.yul\":12055:12136   */\n      tag_324\n      jumpi\n        /* \"#utility.yul\":12121:12125   */\n      0x7f\n        /* \"#utility.yul\":12113:12119   */\n      dup3\n        /* \"#utility.yul\":12109:12126   */\n      and\n        /* \"#utility.yul\":12099:12126   */\n      swap2\n      pop\n        /* \"#utility.yul\":12055:12136   */\n    tag_324:\n        /* \"#utility.yul\":12183:12185   */\n      0x20\n        /* \"#utility.yul\":12175:12181   */\n      dup3\n        /* \"#utility.yul\":12172:12186   */\n      lt\n        /* \"#utility.yul\":12152:12170   */\n      dup2\n        /* \"#utility.yul\":12149:12187   */\n      sub\n        /* \"#utility.yul\":12146:12230   */\n      tag_325\n      jumpi\n        /* \"#utility.yul\":12202:12220   */\n      tag_326\n      tag_184\n      jump\t// in\n    tag_326:\n        /* \"#utility.yul\":12146:12230   */\n    tag_325:\n        /* \"#utility.yul\":11967:12236   */\n      pop\n        /* \"#utility.yul\":11916:12236   */\n      swap2\n      swap1\n      pop\n      jump\t// out\n        /* \"#utility.yul\":12242:12391   */\n    tag_185:\n        /* \"#utility.yul\":12291:12297   */\n      0x00\n        /* \"#utility.yul\":12325:12330   */\n      dup2\n        /* \"#utility.yul\":12319:12331   */\n      sload\n        /* \"#utility.yul\":12309:12331   */\n      swap1\n      pop\n        /* \"#utility.yul\":12351:12384   */\n      tag_328\n        /* \"#utility.yul\":12377:12383   */\n      dup2\n        /* \"#utility.yul\":12351:12384   */\n      tag_89\n      jump\t// in\n    tag_328:\n        /* \"#utility.yul\":12341:12384   */\n      swap1\n      pop\n        /* \"#utility.yul\":12242:12391   */\n      swap2\n      swap1\n      pop\n      jump\t// out\n        /* \"#utility.yul\":12397:12538   */\n    tag_186:\n        /* \"#utility.yul\":12446:12450   */\n      0x00\n        /* \"#utility.yul\":12469:12472   */\n      dup2\n        /* \"#utility.yul\":12461:12472   */\n      swap1\n      pop\n        /* \"#utility.yul\":12492:12495   */\n      dup2\n        /* \"#utility.yul\":12489:12490   */\n      0x00\n        /* \"#utility.yul\":12482:12496   */\n      mstore\n        /* \"#utility.yul\":12526:12530   */\n      0x20\n        /* \"#utility.yul\":12523:12524   */\n      0x00\n        /* \"#utility.yul\":12513:12531   */\n      keccak256\n        /* \"#utility.yul\":12505:12531   */\n      swap1\n      pop\n        /* \"#utility.yul\":12397:12538   */\n      swap2\n      swap1\n      pop\n      jump\t// out\n        /* \"#utility.yul\":12544:12637   */\n    tag_187:\n        /* \"#utility.yul\":12581:12587   */\n      0x00\n        /* \"#utility.yul\":12628:12630   */\n      0x20\n        /* \"#utility.yul\":12623:12625   */\n      0x1f\n        /* \"#utility.yul\":12616:12621   */\n      dup4\n        /* \"#utility.yul\":12612:12626   */\n      add\n        /* \"#utility.yul\":12608:12631   */\n      div\n        /* \"#utility.yul\":12598:12631   */\n      swap1\n      pop\n        /* \"#utility.yul\":12544:12637   */\n      swap2\n      swap1\n      pop\n      jump\t// out\n        /* \"#utility.yul\":12643:12750   */\n    tag_188:\n        /* \"#utility.yul\":12687:12695   */\n      0x00\n        /* \"#utility.yul\":12737:12742   */\n      dup3\n        /* \"#utility.yul\":12731:12735   */\n      dup3\n        /* \"#utility.yul\":12727:12743   */\n      shl\n        /* \"#utility.yul\":12706:12743   */\n      swap1\n      pop\n        /* \"#utility.yul\":12643:12750   */\n      swap3\n      swap2\n      pop\n      pop\n      jump\t// out\n        /* \"#utility.yul\":12756:13149   */\n    tag_189:\n        /* \"#utility.yul\":12825:12831   */\n      0x00\n        /* \"#utility.yul\":12875:12876   */\n      0x08\n        /* \"#utility.yul\":12863:12873   */\n      dup4\n        /* \"#utility.yul\":12859:12877   */\n      mul\n        /* \"#utility.yul\":12898:12995   */\n      tag_333\n        /* \"#utility.yul\":12928:12994   */\n      0xffffffffffffffffffffffffffffffffffffffffffffffffffffffffffffffff\n        /* \"#utility.yul\":12917:12926   */\n      dup3\n        /* \"#utility.yul\":12898:12995   */\n      tag_188\n      jump\t// in\n    tag_333:\n        /* \"#utility.yul\":13016:13055   */\n      tag_334\n        /* \"#utility.yul\":13046:13054   */\n      dup7\n        /* \"#utility.yul\":13035:13044   */\n      dup4\n        /* \"#utility.yul\":13016:13055   */\n      tag_188\n      jump\t// in\n    tag_334:\n        /* \"#utility.yul\":13004:13055   */\n      swap6\n      pop\n        /* \"#utility.yul\":13088:13092   */\n      dup1\n        /* \"#utility.yul\":13084:13093   */\n      not\n        /* \"#utility.yul\":13077:13082   */\n      dup5\n        /* \"#utility.yul\":13073:13094   */\n      and\n        /* \"#utility.yul\":13064:13094   */\n      swap4\n      pop\n        /* \"#utility.yul\":13137:13141   */\n      dup1\n        /* \"#utility.yul\":13127:13135   */\n      dup7\n        /* \"#utility.yul\":13123:13142   */\n      and\n        /* \"#utility.yul\":13116:13121   */\n      dup5\n        /* \"#utility.yul\":13113:13143   */\n      or\n        /* \"#utility.yul\":13103:13143   */\n      swap3\n      pop\n        /* \"#utility.yul\":12832:13149   */\n      pop\n      pop\n        /* \"#utility.yul\":12756:13149   */\n      swap4\n      swap3\n      pop\n      pop\n      pop\n      jump\t// out\n        /* \"#utility.yul\":13155:13215   */\n    tag_190:\n        /* \"#utility.yul\":13183:13186   */\n      0x00\n        /* \"#utility.yul\":13204:13209   */\n      dup2\n        /* \"#utility.yul\":13197:13209   */\n      swap1\n      pop\n        /* \"#utility.yul\":13155:13215   */\n      swap2\n      swap1\n      pop\n      jump\t// out\n        /* \"#utility.yul\":13221:13363   */\n    tag_191:\n        /* \"#utility.yul\":13271:13280   */\n      0x00\n        /* \"#utility.yul\":13304:13357   */\n      tag_337\n        /* \"#utility.yul\":13322:13356   */\n      tag_338\n        /* \"#utility.yul\":13331:13355   */\n      tag_339\n        /* \"#utility.yul\":13349:13354   */\n      dup5\n        /* \"#utility.yul\":13331:13355   */\n      tag_148\n      jump\t// in\n    tag_339:\n        /* \"#utility.yul\":13322:13356   */\n      tag_190\n      jump\t// in\n    tag_338:\n        /* \"#utility.yul\":13304:13357   */\n      tag_148\n      jump\t// in\n    tag_337:\n        /* \"#utility.yul\":13291:13357   */\n      swap1\n      pop\n        /* \"#utility.yul\":13221:13363   */\n      swap2\n      swap1\n      pop\n      jump\t// out\n        /* \"#utility.yul\":13369:13444   */\n    tag_192:\n        /* \"#utility.yul\":13412:13415   */\n      0x00\n        /* \"#utility.yul\":13433:13438   */\n      dup2\n        /* \"#utility.yul\":13426:13438   */\n      swap1\n      pop\n        /* \"#utility.yul\":13369:13444   */\n      swap2\n      swap1\n      pop\n      jump\t// out\n        /* \"#utility.yul\":13450:13719   */\n    tag_193:\n        /* \"#utility.yul\":13560:13599   */\n      tag_342\n        /* \"#utility.yul\":13591:13598   */\n      dup4\n        /* \"#utility.yul\":13560:13599   */\n      tag_191\n      jump\t// in\n    tag_342:\n        /* \"#utility.yul\":13621:13712   */\n      tag_343\n        /* \"#utility.yul\":13670:13711   */\n      tag_344\n        /* \"#utility.yul\":13694:13710   */\n      dup3\n        /* \"#utility.yul\":13670:13711   */\n      tag_192\n      jump\t// in\n    tag_344:\n        /* \"#utility.yul\":13662:13668   */\n      dup5\n        /* \"#utility.yul\":13655:13659   */\n      dup5\n        /* \"#utility.yul\":13649:13660   */\n      sload\n        /* \"#utility.yul\":13621:13712   */\n      tag_189\n      jump\t// in\n    tag_343:\n        /* \"#utility.yul\":13615:13619   */\n      dup3\n        /* \"#utility.yul\":13608:13713   */\n      sstore\n        /* \"#utility.yul\":13526:13719   */\n      pop\n        /* \"#utility.yul\":13450:13719   */\n      pop\n      pop\n      pop\n      jump\t// out\n        /* \"#utility.yul\":13725:13798   */\n    tag_194:\n        /* \"#utility.yul\":13770:13773   */\n      0x00\n        /* \"#utility.yul\":13725:13798   */\n      swap1\n      jump\t// out\n        /* \"#utility.yul\":13804:13993   */\n    tag_195:\n        /* \"#utility.yul\":13881:13913   */\n      tag_347\n      tag_194\n      jump\t// in\n    tag_347:\n        /* \"#utility.yul\":13922:13987   */\n      tag_348\n        /* \"#utility.yul\":13980:13986   */\n      dup2\n        /* \"#utility.yul\":13972:13978   */\n      dup5\n        /* \"#utility.yul\":13966:13970   */\n      dup5\n        /* \"#utility.yul\":13922:13987   */\n      tag_193\n      jump\t// in\n    tag_348:\n        /* \"#utility.yul\":13857:13993   */\n      pop\n        /* \"#utility.yul\":13804:13993   */\n      pop\n      pop\n      jump\t// out\n        /* \"#utility.yul\":13999:14185   */\n    tag_196:\n        /* \"#utility.yul\":14059:14179   */\n    tag_350:\n        /* \"#utility.yul\":14076:14079   */\n      dup2\n        /* \"#utility.yul\":14069:14074   */\n      dup2\n        /* \"#utility.yul\":14066:14080   */\n      lt\n        /* \"#utility.yul\":14059:14179   */\n      iszero\n      tag_352\n      jumpi\n        /* \"#utility.yul\":14130:14169   */\n      tag_353\n        /* \"#utility.yul\":14167:14168   */\n      0x00\n        /* \"#utility.yul\":14160:14165   */\n      dup3\n        /* \"#utility.yul\":14130:14169   */\n      tag_195\n      jump\t// in\n    tag_353:\n        /* \"#utility.yul\":14103:14104   */\n      0x01\n        /* \"#utility.yul\":14096:14101   */\n      dup2\n        /* \"#utility.yul\":14092:14105   */\n      add\n        /* \"#utility.yul\":14083:14105   */\n      swap1\n      pop\n        /* \"#utility.yul\":14059:14179   */\n      jump(tag_350)\n    tag_352:\n        /* \"#utility.yul\":13999:14185   */\n      pop\n      pop\n      jump\t// out\n        /* \"#utility.yul\":14191:14734   */\n    tag_197:\n        /* \"#utility.yul\":14292:14294   */\n      0x1f\n        /* \"#utility.yul\":14287:14290   */\n      dup3\n        /* \"#utility.yul\":14284:14295   */\n      gt\n        /* \"#utility.yul\":14281:14727   */\n      iszero\n      tag_355\n      jumpi\n        /* \"#utility.yul\":14326:14364   */\n      tag_356\n        /* \"#utility.yul\":14358:14363   */\n      dup2\n        /* \"#utility.yul\":14326:14364   */\n      tag_186\n      jump\t// in\n    tag_356:\n        /* \"#utility.yul\":14410:14439   */\n      tag_357\n        /* \"#utility.yul\":14428:14438   */\n      dup5\n        /* \"#utility.yul\":14410:14439   */\n      tag_187\n      jump\t// in\n    tag_357:\n        /* \"#utility.yul\":14400:14408   */\n      dup2\n        /* \"#utility.yul\":14396:14440   */\n      add\n        /* \"#utility.yul\":14593:14595   */\n      0x20\n        /* \"#utility.yul\":14581:14591   */\n      dup6\n        /* \"#utility.yul\":14578:14596   */\n      lt\n        /* \"#utility.yul\":14575:14624   */\n      iszero\n      tag_358\n      jumpi\n        /* \"#utility.yul\":14614:14622   */\n      dup2\n        /* \"#utility.yul\":14599:14622   */\n      swap1\n      pop\n        /* \"#utility.yul\":14575:14624   */\n    tag_358:\n        /* \"#utility.yul\":14637:14717   */\n      tag_359\n        /* \"#utility.yul\":14693:14715   */\n      tag_360\n        /* \"#utility.yul\":14711:14714   */\n      dup6\n        /* \"#utility.yul\":14693:14715   */\n      tag_187\n      jump\t// in\n    tag_360:\n        /* \"#utility.yul\":14683:14691   */\n      dup4\n        /* \"#utility.yul\":14679:14716   */\n      add\n        /* \"#utility.yul\":14666:14677   */\n      dup3\n        /* \"#utility.yul\":14637:14717   */\n      tag_196\n      jump\t// in\n    tag_359:\n        /* \"#utility.yul\":14296:14727   */\n      pop\n      pop\n        /* \"#utility.yul\":14281:14727   */\n    tag_355:\n        /* \"#utility.yul\":14191:14734   */\n      pop\n      pop\n      pop\n      jump\t// out\n        /* \"#utility.yul\":14740:14857   */\n    tag_198:\n        /* \"#utility.yul\":14794:14802   */\n      0x00\n        /* \"#utility.yul\":14844:14849   */\n      dup3\n        /* \"#utility.yul\":14838:14842   */\n      dup3\n        /* \"#utility.yul\":14834:14850   */\n      shr\n        /* \"#utility.yul\":14813:14850   */\n      swap1\n      pop\n        /* \"#utility.yul\":14740:14857   */\n      swap3\n      swap2\n      pop\n      pop\n      jump\t// out\n        /* \"#utility.yul\":14863:15032   */\n    tag_199:\n        /* \"#utility.yul\":14907:14913   */\n      0x00\n        /* \"#utility.yul\":14940:14991   */\n      tag_363\n        /* \"#utility.yul\":14988:14989   */\n      0x00\n        /* \"#utility.yul\":14984:14990   */\n      not\n        /* \"#utility.yul\":14976:14981   */\n      dup5\n        /* \"#utility.yul\":14973:14974   */\n      0x08\n        /* \"#utility.yul\":14969:14982   */\n      mul\n        /* \"#utility.yul\":14940:14991   */\n      tag_198\n      jump\t// in\n    tag_363:\n        /* \"#utility.yul\":14936:14992   */\n      not\n        /* \"#utility.yul\":15021:15025   */\n      dup1\n        /* \"#utility.yul\":15015:15019   */\n      dup4\n        /* \"#utility.yul\":15011:15026   */\n      and\n        /* \"#utility.yul\":15001:15026   */\n      swap2\n      pop\n        /* \"#utility.yul\":14914:15032   */\n      pop\n        /* \"#utility.yul\":14863:15032   */\n      swap3\n      swap2\n      pop\n      pop\n      jump\t// out\n        /* \"#utility.yul\":15037:15332   */\n    tag_200:\n        /* \"#utility.yul\":15113:15117   */\n      0x00\n        /* \"#utility.yul\":15259:15288   */\n      tag_365\n        /* \"#utility.yul\":15284:15287   */\n      dup4\n        /* \"#utility.yul\":15278:15282   */\n      dup4\n        /* \"#utility.yul\":15259:15288   */\n      tag_199\n      jump\t// in\n    tag_365:\n        /* \"#utility.yul\":15251:15288   */\n      swap2\n      pop\n        /* \"#utility.yul\":15321:15324   */\n      dup3\n        /* \"#utility.yul\":15318:15319   */\n      0x02\n        /* \"#utility.yul\":15314:15325   */\n      mul\n        /* \"#utility.yul\":15308:15312   */\n      dup3\n        /* \"#utility.yul\":15305:15326   */\n      or\n        /* \"#utility.yul\":15297:15326   */\n      swap1\n      pop\n        /* \"#utility.yul\":15037:15332   */\n      swap3\n      swap2\n      pop\n      pop\n      jump\t// out\n        /* \"#utility.yul\":15337:16788   */\n    tag_73:\n        /* \"#utility.yul\":15448:15451   */\n      dup2\n        /* \"#utility.yul\":15442:15446   */\n      dup2\n        /* \"#utility.yul\":15439:15452   */\n      sub\n        /* \"#utility.yul\":15436:15462   */\n      tag_367\n      jumpi\n        /* \"#utility.yul\":15455:15460   */\n      pop\n      pop\n      jump(tag_366)\n        /* \"#utility.yul\":15436:15462   */\n    tag_367:\n        /* \"#utility.yul\":15486:15520   */\n      tag_368\n        /* \"#utility.yul\":15516:15519   */\n      dup3\n        /* \"#utility.yul\":15486:15520   */\n      tag_185\n      jump\t// in\n    tag_368:\n        /* \"#utility.yul\":15585:15603   */\n      0xffffffffffffffff\n        /* \"#utility.yul\":15577:15583   */\n      dup2\n        /* \"#utility.yul\":15574:15604   */\n      gt\n        /* \"#utility.yul\":15571:15627   */\n      iszero\n      tag_369\n      jumpi\n        /* \"#utility.yul\":15607:15625   */\n      tag_370\n      tag_166\n      jump\t// in\n    tag_370:\n        /* \"#utility.yul\":15571:15627   */\n    tag_369:\n        /* \"#utility.yul\":15651:15689   */\n      tag_371\n        /* \"#utility.yul\":15683:15687   */\n      dup3\n        /* \"#utility.yul\":15677:15688   */\n      sload\n        /* \"#utility.yul\":15651:15689   */\n      tag_89\n      jump\t// in\n    tag_371:\n        /* \"#utility.yul\":15736:15803   */\n      tag_372\n        /* \"#utility.yul\":15796:15802   */\n      dup3\n        /* \"#utility.yul\":15788:15794   */\n      dup3\n        /* \"#utility.yul\":15782:15786   */\n      dup6\n        /* \"#utility.yul\":15736:15803   */\n      tag_197\n      jump\t// in\n    tag_372:\n        /* \"#utility.yul\":15830:15831   */\n      0x00\n        /* \"#utility.yul\":15859:15861   */\n      0x1f\n        /* \"#utility.yul\":15851:15857   */\n      dup4\n        /* \"#utility.yul\":15848:15862   */\n      gt\n        /* \"#utility.yul\":15876:15877   */\n      0x01\n        /* \"#utility.yul\":15871:16543   */\n      dup2\n      eq\n      tag_374\n      jumpi\n        /* \"#utility.yul\":16587:16588   */\n      0x00\n        /* \"#utility.yul\":16604:16610   */\n      dup5\n        /* \"#utility.yul\":16601:16678   */\n      iszero\n      tag_375\n      jumpi\n        /* \"#utility.yul\":16653:16662   */\n      dup3\n        /* \"#utility.yul\":16648:16651   */\n      dup8\n        /* \"#utility.yul\":16644:16663   */\n      add\n        /* \"#utility.yul\":16638:16664   */\n      sload\n        /* \"#utility.yul\":16629:16664   */\n      swap1\n      pop\n        /* \"#utility.yul\":16601:16678   */\n    tag_375:\n        /* \"#utility.yul\":16704:16771   */\n      tag_376\n        /* \"#utility.yul\":16764:16770   */\n      dup6\n        /* \"#utility.yul\":16757:16762   */\n      dup3\n        /* \"#utility.yul\":16704:16771   */\n      tag_200\n      jump\t// in\n    tag_376:\n        /* \"#utility.yul\":16698:16702   */\n      dup7\n        /* \"#utility.yul\":16691:16772   */\n      sstore\n        /* \"#utility.yul\":16560:16782   */\n      pop\n        /* \"#utility.yul\":15841:16782   */\n      jump(tag_373)\n        /* \"#utility.yul\":15871:16543   */\n    tag_374:\n        /* \"#utility.yul\":15923:15927   */\n      0x1f\n        /* \"#utility.yul\":15919:15928   */\n      not\n        /* \"#utility.yul\":15911:15917   */\n      dup5\n        /* \"#utility.yul\":15907:15929   */\n      and\n        /* \"#utility.yul\":15949:15985   */\n      tag_377\n        /* \"#utility.yul\":15981:15984   */\n      dup8\n        /* \"#utility.yul\":15949:15985   */\n      tag_186\n      jump\t// in\n    tag_377:\n        /* \"#utility.yul\":15942:15985   */\n      swap7\n      pop\n        /* \"#utility.yul\":16012:16049   */\n      tag_378\n        /* \"#utility.yul\":16044:16048   */\n      dup7\n        /* \"#utility.yul\":16012:16049   */\n      tag_186\n      jump\t// in\n    tag_378:\n        /* \"#utility.yul\":16071:16072   */\n      0x00\n        /* \"#utility.yul\":16085:16292   */\n    tag_379:\n        /* \"#utility.yul\":16099:16106   */\n      dup3\n        /* \"#utility.yul\":16096:16097   */\n      dup2\n        /* \"#utility.yul\":16093:16107   */\n      lt\n        /* \"#utility.yul\":16085:16292   */\n      iszero\n      tag_381\n      jumpi\n        /* \"#utility.yul\":16178:16187   */\n      dup5\n        /* \"#utility.yul\":16173:16176   */\n      dup10\n        /* \"#utility.yul\":16169:16188   */\n      add\n        /* \"#utility.yul\":16163:16189   */\n      sload\n        /* \"#utility.yul\":16155:16161   */\n      dup3\n        /* \"#utility.yul\":16148:16190   */\n      sstore\n        /* \"#utility.yul\":16229:16230   */\n      0x01\n        /* \"#utility.yul\":16221:16227   */\n      dup3\n        /* \"#utility.yul\":16217:16231   */\n      add\n        /* \"#utility.yul\":16207:16231   */\n      swap2\n      pop\n        /* \"#utility.yul\":16276:16277   */\n      0x01\n        /* \"#utility.yul\":16265:16274   */\n      dup6\n        /* \"#utility.yul\":16261:16278   */\n      add\n        /* \"#utility.yul\":16248:16278   */\n      swap5\n      pop\n        /* \"#utility.yul\":16122:16126   */\n      0x20\n        /* \"#utility.yul\":16119:16120   */\n      dup2\n        /* \"#utility.yul\":16115:16127   */\n      add\n        /* \"#utility.yul\":16110:16127   */\n      swap1\n      pop\n        /* \"#utility.yul\":16085:16292   */\n      jump(tag_379)\n    tag_381:\n        /* \"#utility.yul\":16320:16326   */\n      dup7\n        /* \"#utility.yul\":16311:16318   */\n      dup4\n        /* \"#utility.yul\":16308:16327   */\n      lt\n        /* \"#utility.yul\":16305:16484   */\n      iszero\n      tag_382\n      jumpi\n        /* \"#utility.yul\":16378:16387   */\n      dup5\n        /* \"#utility.yul\":16373:16376   */\n      dup10\n        /* \"#utility.yul\":16369:16388   */\n      add\n        /* \"#utility.yul\":16363:16389   */\n      sload\n        /* \"#utility.yul\":16421:16469   */\n      tag_383\n        /* \"#utility.yul\":16463:16467   */\n      0x1f\n        /* \"#utility.yul\":16455:16461   */\n      dup10\n        /* \"#utility.yul\":16451:16468   */\n      and\n        /* \"#utility.yul\":16440:16449   */\n      dup3\n        /* \"#utility.yul\":16421:16469   */\n      tag_199\n      jump\t// in\n    tag_383:\n        /* \"#utility.yul\":16413:16419   */\n      dup4\n        /* \"#utility.yul\":16406:16470   */\n      sstore\n        /* \"#utility.yul\":16328:16484   */\n      pop\n        /* \"#utility.yul\":16305:16484   */\n    tag_382:\n        /* \"#utility.yul\":16530:16531   */\n      0x01\n        /* \"#utility.yul\":16526:16527   */\n      0x02\n        /* \"#utility.yul\":16518:16524   */\n      dup9\n        /* \"#utility.yul\":16514:16528   */\n      mul\n        /* \"#utility.yul\":16510:16532   */\n      add\n        /* \"#utility.yul\":16504:16508   */\n      dup9\n        /* \"#utility.yul\":16497:16533   */\n      sstore\n        /* \"#utility.yul\":15878:16543   */\n      pop\n      pop\n      pop\n        /* \"#utility.yul\":15841:16782   */\n    tag_373:\n      pop\n        /* \"#utility.yul\":15426:16788   */\n      pop\n      pop\n      pop\n        /* \"#utility.yul\":15337:16788   */\n      pop\n      pop\n    tag_366:\n      jump\t// out\n        /* \"#utility.yul\":16794:16974   */\n    tag_76:\n        /* \"#utility.yul\":16842:16919   */\n      0x4e487b7100000000000000000000000000000000000000000000000000000000\n        /* \"#utility.yul\":16839:16840   */\n      0x00\n        /* \"#utility.yul\":16832:16920   */\n      mstore\n        /* \"#utility.yul\":16939:16943   */\n      0x31\n        /* \"#utility.yul\":16936:16937   */\n      0x04\n        /* \"#utility.yul\":16929:16944   */\n      mstore\n        /* \"#utility.yul\":16963:16967   */\n      0x24\n        /* \"#utility.yul\":16960:16961   */\n      0x00\n        /* \"#utility.yul\":16953:16968   */\n      revert\n        /* \"#utility.yul\":16980:18375   */\n    tag_101:\n        /* \"#utility.yul\":17097:17134   */\n      tag_386\n        /* \"#utility.yul\":17130:17133   */\n      dup3\n        /* \"#utility.yul\":17097:17134   */\n      tag_154\n      jump\t// in\n    tag_386:\n        /* \"#utility.yul\":17199:17217   */\n      0xffffffffffffffff\n        /* \"#utility.yul\":17191:17197   */\n      dup2\n        /* \"#utility.yul\":17188:17218   */\n      gt\n        /* \"#utility.yul\":17185:17241   */\n      iszero\n      tag_387\n      jumpi\n        /* \"#utility.yul\":17221:17239   */\n      tag_388\n      tag_166\n      jump\t// in\n    tag_388:\n        /* \"#utility.yul\":17185:17241   */\n    tag_387:\n        /* \"#utility.yul\":17265:17303   */\n      tag_389\n        /* \"#utility.yul\":17297:17301   */\n      dup3\n        /* \"#utility.yul\":17291:17302   */\n      sload\n        /* \"#utility.yul\":17265:17303   */\n      tag_89\n      jump\t// in\n    tag_389:\n        /* \"#utility.yul\":17350:17417   */\n      tag_390\n        /* \"#utility.yul\":17410:17416   */\n      dup3\n        /* \"#utility.yul\":17402:17408   */\n      dup3\n        /* \"#utility.yul\":17396:17400   */\n      dup6\n        /* \"#utility.yul\":17350:17417   */\n      tag_197\n      jump\t// in\n    tag_390:\n        /* \"#utility.yul\":17444:17445   */\n      0x00\n        /* \"#utility.yul\":17468:17472   */\n      0x20\n        /* \"#utility.yul\":17455:17472   */\n      swap1\n      pop\n        /* \"#utility.yul\":17500:17502   */\n      0x1f\n        /* \"#utility.yul\":17492:17498   */\n      dup4\n        /* \"#utility.yul\":17489:17503   */\n      gt\n        /* \"#utility.yul\":17517:17518   */\n      0x01\n        /* \"#utility.yul\":17512:18130   */\n      dup2\n      eq\n      tag_392\n      jumpi\n        /* \"#utility.yul\":18174:18175   */\n      0x00\n        /* \"#utility.yul\":18191:18197   */\n      dup5\n        /* \"#utility.yul\":18188:18265   */\n      iszero\n      tag_393\n      jumpi\n        /* \"#utility.yul\":18240:18249   */\n      dup3\n        /* \"#utility.yul\":18235:18238   */\n      dup8\n        /* \"#utility.yul\":18231:18250   */\n      add\n        /* \"#utility.yul\":18225:18251   */\n      mload\n        /* \"#utility.yul\":18216:18251   */\n      swap1\n      pop\n        /* \"#utility.yul\":18188:18265   */\n    tag_393:\n        /* \"#utility.yul\":18291:18358   */\n      tag_394\n        /* \"#utility.yul\":18351:18357   */\n      dup6\n        /* \"#utility.yul\":18344:18349   */\n      dup3\n        /* \"#utility.yul\":18291:18358   */\n      tag_200\n      jump\t// in\n    tag_394:\n        /* \"#utility.yul\":18285:18289   */\n      dup7\n        /* \"#utility.yul\":18278:18359   */\n      sstore\n        /* \"#utility.yul\":18147:18369   */\n      pop\n        /* \"#utility.yul\":17482:18369   */\n      jump(tag_391)\n        /* \"#utility.yul\":17512:18130   */\n    tag_392:\n        /* \"#utility.yul\":17564:17568   */\n      0x1f\n        /* \"#utility.yul\":17560:17569   */\n      not\n        /* \"#utility.yul\":17552:17558   */\n      dup5\n        /* \"#utility.yul\":17548:17570   */\n      and\n        /* \"#utility.yul\":17598:17635   */\n      tag_395\n        /* \"#utility.yul\":17630:17634   */\n      dup7\n        /* \"#utility.yul\":17598:17635   */\n      tag_186\n      jump\t// in\n    tag_395:\n        /* \"#utility.yul\":17657:17658   */\n      0x00\n        /* \"#utility.yul\":17671:17879   */\n    tag_396:\n        /* \"#utility.yul\":17685:17692   */\n      dup3\n        /* \"#utility.yul\":17682:17683   */\n      dup2\n        /* \"#utility.yul\":17679:17693   */\n      lt\n        /* \"#utility.yul\":17671:17879   */\n      iszero\n      tag_398\n      jumpi\n        /* \"#utility.yul\":17764:17773   */\n      dup5\n        /* \"#utility.yul\":17759:17762   */\n      dup10\n        /* \"#utility.yul\":17755:17774   */\n      add\n        /* \"#utility.yul\":17749:17775   */\n      mload\n        /* \"#utility.yul\":17741:17747   */\n      dup3\n        /* \"#utility.yul\":17734:17776   */\n      sstore\n        /* \"#utility.yul\":17815:17816   */\n      0x01\n        /* \"#utility.yul\":17807:17813   */\n      dup3\n        /* \"#utility.yul\":17803:17817   */\n      add\n        /* \"#utility.yul\":17793:17817   */\n      swap2\n      pop\n        /* \"#utility.yul\":17862:17864   */\n      0x20\n        /* \"#utility.yul\":17851:17860   */\n      dup6\n        /* \"#utility.yul\":17847:17865   */\n      add\n        /* \"#utility.yul\":17834:17865   */\n      swap5\n      pop\n        /* \"#utility.yul\":17708:17712   */\n      0x20\n        /* \"#utility.yul\":17705:17706   */\n      dup2\n        /* \"#utility.yul\":17701:17713   */\n      add\n        /* \"#utility.yul\":17696:17713   */\n      swap1\n      pop\n        /* \"#utility.yul\":17671:17879   */\n      jump(tag_396)\n    tag_398:\n        /* \"#utility.yul\":17907:17913   */\n      dup7\n        /* \"#utility.yul\":17898:17905   */\n      dup4\n        /* \"#utility.yul\":17895:17914   */\n      lt\n        /* \"#utility.yul\":17892:18071   */\n      iszero\n      tag_399\n      jumpi\n        /* \"#utility.yul\":17965:17974   */\n      dup5\n        /* \"#utility.yul\":17960:17963   */\n      dup10\n        /* \"#utility.yul\":17956:17975   */\n      add\n        /* \"#utility.yul\":17950:17976   */\n      mload\n        /* \"#utility.yul\":18008:18056   */\n      tag_400\n        /* \"#utility.yul\":18050:18054   */\n      0x1f\n        /* \"#utility.yul\":18042:18048   */\n      dup10\n        /* \"#utility.yul\":18038:18055   */\n      and\n        /* \"#utility.yul\":18027:18036   */\n      dup3\n        /* \"#utility.yul\":18008:18056   */\n      tag_199\n      jump\t// in\n    tag_400:\n        /* \"#utility.yul\":18000:18006   */\n      dup4\n        /* \"#utility.yul\":17993:18057   */\n      sstore\n        /* \"#utility.yul\":17915:18071   */\n      pop\n        /* \"#utility.yul\":17892:18071   */\n    tag_399:\n        /* \"#utility.yul\":18117:18118   */\n      0x01\n        /* \"#utility.yul\":18113:18114   */\n      0x02\n        /* \"#utility.yul\":18105:18111   */\n      dup9\n        /* \"#utility.yul\":18101:18115   */\n      mul\n        /* \"#utility.yul\":18097:18119   */\n      add\n        /* \"#utility.yul\":18091:18095   */\n      dup9\n        /* \"#utility.yul\":18084:18120   */\n      sstore\n        /* \"#utility.yul\":17519:18130   */\n      pop\n      pop\n      pop\n        /* \"#utility.yul\":17482:18369   */\n    tag_391:\n      pop\n        /* \"#utility.yul\":17072:18375   */\n      pop\n      pop\n      pop\n        /* \"#utility.yul\":16980:18375   */\n      pop\n      pop\n      jump\t// out\n        /* \"#utility.yul\":18381:18694   */\n    tag_103:\n        /* \"#utility.yul\":18494:18498   */\n      0x00\n        /* \"#utility.yul\":18532:18534   */\n      0x20\n        /* \"#utility.yul\":18521:18530   */\n      dup3\n        /* \"#utility.yul\":18517:18535   */\n      add\n        /* \"#utility.yul\":18509:18535   */\n      swap1\n      pop\n        /* \"#utility.yul\":18581:18590   */\n      dup2\n        /* \"#utility.yul\":18575:18579   */\n      dup2\n        /* \"#utility.yul\":18571:18591   */\n      sub\n        /* \"#utility.yul\":18567:18568   */\n      0x00\n        /* \"#utility.yul\":18556:18565   */\n      dup4\n        /* \"#utility.yul\":18552:18569   */\n      add\n        /* \"#utility.yul\":18545:18592   */\n      mstore\n        /* \"#utility.yul\":18609:18687   */\n      tag_402\n        /* \"#utility.yul\":18682:18686   */\n      dup2\n        /* \"#utility.yul\":18673:18679   */\n      dup5\n        /* \"#utility.yul\":18609:18687   */\n      tag_182\n      jump\t// in\n    tag_402:\n        /* \"#utility.yul\":18601:18687   */\n      swap1\n      pop\n        /* \"#utility.yul\":18381:18694   */\n      swap3\n      swap2\n      pop\n      pop\n      jump\t// out\n        /* \"#utility.yul\":18700:18891   */\n    tag_113:\n        /* \"#utility.yul\":18740:18743   */\n      0x00\n        /* \"#utility.yul\":18759:18779   */\n      tag_404\n        /* \"#utility.yul\":18777:18778   */\n      dup3\n        /* \"#utility.yul\":18759:18779   */\n      tag_148\n      jump\t// in\n    tag_404:\n        /* \"#utility.yul\":18754:18779   */\n      swap2\n      pop\n        /* \"#utility.yul\":18793:18813   */\n      tag_405\n        /* \"#utility.yul\":18811:18812   */\n      dup4\n        /* \"#utility.yul\":18793:18813   */\n      tag_148\n      jump\t// in\n    tag_405:\n        /* \"#utility.yul\":18788:18813   */\n      swap3\n      pop\n        /* \"#utility.yul\":18836:18837   */\n      dup3\n        /* \"#utility.yul\":18833:18834   */\n      dup3\n        /* \"#utility.yul\":18829:18838   */\n      add\n        /* \"#utility.yul\":18822:18838   */\n      swap1\n      pop\n        /* \"#utility.yul\":18857:18860   */\n      dup1\n        /* \"#utility.yul\":18854:18855   */\n      dup3\n        /* \"#utility.yul\":18851:18861   */\n      gt\n        /* \"#utility.yul\":18848:18884   */\n      iszero\n      tag_406\n      jumpi\n        /* \"#utility.yul\":18864:18882   */\n      tag_407\n      tag_183\n      jump\t// in\n    tag_407:\n        /* \"#utility.yul\":18848:18884   */\n    tag_406:\n        /* \"#utility.yul\":18700:18891   */\n      swap3\n      swap2\n      pop\n      pop\n      jump\t// out\n        /* \"#utility.yul\":18897:19130   */\n    tag_129:\n        /* \"#utility.yul\":18936:18939   */\n      0x00\n        /* \"#utility.yul\":18959:18983   */\n      tag_409\n        /* \"#utility.yul\":18977:18982   */\n      dup3\n        /* \"#utility.yul\":18959:18983   */\n      tag_148\n      jump\t// in\n    tag_409:\n        /* \"#utility.yul\":18950:18983   */\n      swap2\n      pop\n        /* \"#utility.yul\":19005:19071   */\n      0xffffffffffffffffffffffffffffffffffffffffffffffffffffffffffffffff\n        /* \"#utility.yul\":18998:19003   */\n      dup3\n        /* \"#utility.yul\":18995:19072   */\n      sub\n        /* \"#utility.yul\":18992:19095   */\n      tag_410\n      jumpi\n        /* \"#utility.yul\":19075:19093   */\n      tag_411\n      tag_183\n      jump\t// in\n    tag_411:\n        /* \"#utility.yul\":18992:19095   */\n    tag_410:\n        /* \"#utility.yul\":19122:19123   */\n      0x01\n        /* \"#utility.yul\":19115:19120   */\n      dup3\n        /* \"#utility.yul\":19111:19124   */\n      add\n        /* \"#utility.yul\":19104:19124   */\n      swap1\n      pop\n        /* \"#utility.yul\":18897:19130   */\n      swap2\n      swap1\n      pop\n      jump\t// out\n        /* \"#utility.yul\":19160:19991   */\n    tag_201:\n        /* \"#utility.yul\":19245:19248   */\n      0x00\n        /* \"#utility.yul\":19282:19287   */\n      dup2\n        /* \"#utility.yul\":19276:19288   */\n      sload\n        /* \"#utility.yul\":19311:19347   */\n      tag_413\n        /* \"#utility.yul\":19337:19346   */\n      dup2\n        /* \"#utility.yul\":19311:19347   */\n      tag_89\n      jump\t// in\n    tag_413:\n        /* \"#utility.yul\":19363:19434   */\n      tag_414\n        /* \"#utility.yul\":19427:19433   */\n      dup2\n        /* \"#utility.yul\":19422:19425   */\n      dup7\n        /* \"#utility.yul\":19363:19434   */\n      tag_181\n      jump\t// in\n    tag_414:\n        /* \"#utility.yul\":19356:19434   */\n      swap5\n      pop\n        /* \"#utility.yul\":19465:19466   */\n      0x01\n        /* \"#utility.yul\":19454:19463   */\n      dup3\n        /* \"#utility.yul\":19450:19467   */\n      and\n        /* \"#utility.yul\":19481:19482   */\n      0x00\n        /* \"#utility.yul\":19476:19640   */\n      dup2\n      eq\n      tag_416\n      jumpi\n        /* \"#utility.yul\":19654:19655   */\n      0x01\n        /* \"#utility.yul\":19649:19985   */\n      dup2\n      eq\n      tag_417\n      jumpi\n        /* \"#utility.yul\":19443:19985   */\n      jump(tag_415)\n        /* \"#utility.yul\":19476:19640   */\n    tag_416:\n        /* \"#utility.yul\":19560:19564   */\n      0xff\n        /* \"#utility.yul\":19556:19565   */\n      not\n        /* \"#utility.yul\":19545:19554   */\n      dup4\n        /* \"#utility.yul\":19541:19566   */\n      and\n        /* \"#utility.yul\":19536:19539   */\n      dup7\n        /* \"#utility.yul\":19529:19567   */\n      mstore\n        /* \"#utility.yul\":19620:19626   */\n      dup2\n        /* \"#utility.yul\":19613:19627   */\n      iszero\n        /* \"#utility.yul\":19606:19628   */\n      iszero\n        /* \"#utility.yul\":19600:19604   */\n      0x20\n        /* \"#utility.yul\":19596:19629   */\n      mul\n        /* \"#utility.yul\":19591:19594   */\n      dup7\n        /* \"#utility.yul\":19587:19630   */\n      add\n        /* \"#utility.yul\":19580:19630   */\n      swap4\n      pop\n        /* \"#utility.yul\":19476:19640   */\n      jump(tag_415)\n        /* \"#utility.yul\":19649:19985   */\n    tag_417:\n        /* \"#utility.yul\":19716:19754   */\n      tag_418\n        /* \"#utility.yul\":19748:19753   */\n      dup6\n        /* \"#utility.yul\":19716:19754   */\n      tag_186\n      jump\t// in\n    tag_418:\n        /* \"#utility.yul\":19776:19777   */\n      0x00\n        /* \"#utility.yul\":19790:19944   */\n    tag_419:\n        /* \"#utility.yul\":19804:19810   */\n      dup4\n        /* \"#utility.yul\":19801:19802   */\n      dup2\n        /* \"#utility.yul\":19798:19811   */\n      lt\n        /* \"#utility.yul\":19790:19944   */\n      iszero\n      tag_421\n      jumpi\n        /* \"#utility.yul\":19878:19885   */\n      dup2\n        /* \"#utility.yul\":19872:19886   */\n      sload\n        /* \"#utility.yul\":19868:19869   */\n      dup2\n        /* \"#utility.yul\":19863:19866   */\n      dup10\n        /* \"#utility.yul\":19859:19870   */\n      add\n        /* \"#utility.yul\":19852:19887   */\n      mstore\n        /* \"#utility.yul\":19928:19929   */\n      0x01\n        /* \"#utility.yul\":19919:19926   */\n      dup3\n        /* \"#utility.yul\":19915:19930   */\n      add\n        /* \"#utility.yul\":19904:19930   */\n      swap2\n      pop\n        /* \"#utility.yul\":19826:19830   */\n      0x20\n        /* \"#utility.yul\":19823:19824   */\n      dup2\n        /* \"#utility.yul\":19819:19831   */\n      add\n        /* \"#utility.yul\":19814:19831   */\n      swap1\n      pop\n        /* \"#utility.yul\":19790:19944   */\n      jump(tag_419)\n    tag_421:\n        /* \"#utility.yul\":19973:19974   */\n      dup1\n        /* \"#utility.yul\":19968:19971   */\n      dup9\n        /* \"#utility.yul\":19964:19975   */\n      add\n        /* \"#utility.yul\":19957:19975   */\n      swap6\n      pop\n        /* \"#utility.yul\":19656:19985   */\n      pop\n      pop\n        /* \"#utility.yul\":19443:19985   */\n    tag_415:\n      pop\n        /* \"#utility.yul\":19249:19991   */\n      pop\n      pop\n        /* \"#utility.yul\":19160:19991   */\n      swap3\n      swap2\n      pop\n      pop\n      jump\t// out\n        /* \"#utility.yul\":19997:20414   */\n    tag_137:\n        /* \"#utility.yul\":20135:20139   */\n      0x00\n        /* \"#utility.yul\":20173:20175   */\n      0x40\n        /* \"#utility.yul\":20162:20171   */\n      dup3\n        /* \"#utility.yul\":20158:20176   */\n      add\n        /* \"#utility.yul\":20150:20176   */\n      swap1\n      pop\n        /* \"#utility.yul\":20222:20231   */\n      dup2\n        /* \"#utility.yul\":20216:20220   */\n      dup2\n        /* \"#utility.yul\":20212:20232   */\n      sub\n        /* \"#utility.yul\":20208:20209   */\n      0x00\n        /* \"#utility.yul\":20197:20206   */\n      dup4\n        /* \"#utility.yul\":20193:20210   */\n      add\n        /* \"#utility.yul\":20186:20233   */\n      mstore\n        /* \"#utility.yul\":20250:20325   */\n      tag_423\n        /* \"#utility.yul\":20320:20324   */\n      dup2\n        /* \"#utility.yul\":20311:20317   */\n      dup6\n        /* \"#utility.yul\":20250:20325   */\n      tag_201\n      jump\t// in\n    tag_423:\n        /* \"#utility.yul\":20242:20325   */\n      swap1\n      pop\n        /* \"#utility.yul\":20335:20407   */\n      tag_424\n        /* \"#utility.yul\":20403:20405   */\n      0x20\n        /* \"#utility.yul\":20392:20401   */\n      dup4\n        /* \"#utility.yul\":20388:20406   */\n      add\n        /* \"#utility.yul\":20379:20385   */\n      dup5\n        /* \"#utility.yul\":20335:20407   */\n      tag_178\n      jump\t// in\n    tag_424:\n        /* \"#utility.yul\":19997:20414   */\n      swap4\n      swap3\n      pop\n      pop\n      pop\n      jump\t// out\n\n    auxdata: 0xa2646970667358221220b361d27beaf3dab66abc40495c56bcd0f2edad9a3c9dbc36bb259961459cdbed64736f6c634300081a0033\n}\n",
				"bytecode": {
					"linkReferences": {},
					"object": "608060405234801561000f575f80fd5b50335f60016101000a81548173ffffffffffffffffffffffffffffffffffffffff021916908373ffffffffffffffffffffffffffffffffffffffff16021790555060015f806101000a81548160ff0219169083151502179055507f6d41258e44d7ee79f697248fbce67e06508f6c2a56396009d98f28c105d43e955f60019054906101000a900473ffffffffffffffffffffffffffffffffffffffff166040516100b99190610105565b60405180910390a161011e565b5f73ffffffffffffffffffffffffffffffffffffffff82169050919050565b5f6100ef826100c6565b9050919050565b6100ff816100e5565b82525050565b5f6020820190506101185f8301846100f6565b92915050565b6114ff8061012b5f395ff3fe608060405234801561000f575f80fd5b50600436106100a7575f3560e01c80638f32d59b1161006f5780638f32d59b14610129578063957aa58c146101475780639a0e7d6614610165578063a3ec138d14610183578063b13c744b146101b4578063ec859db5146101e5576100a7565b80631e620cd4146100ab5780632aebcbb6146100c75780632e6997fe146100d1578063462e91ec146100ef5780638da5cb5b1461010b575b5f80fd5b6100c560048036038101906100c09190610a2c565b610201565b005b6100cf61036c565b005b6100d96103e5565b6040516100e69190610bcb565b60405180910390f35b61010960048036038101906101049190610d17565b6104da565b005b6101136105f6565b6040516101209190610d9d565b60405180910390f35b61013161061b565b60405161013e9190610dd0565b60405180910390f35b61014f610671565b60405161015c9190610dd0565b60405180910390f35b61016d610681565b60405161017a9190610df8565b60405180910390f35b61019d60048036038101906101989190610e3b565b6106db565b6040516101ab929190610e66565b60405180910390f35b6101ce60048036038101906101c99190610a2c565b610707565b6040516101dc929190610ed5565b60405180910390f35b6101ff60048036038101906101fa9190610a2c565b6107bc565b005b5f60019054906101000a900473ffffffffffffffffffffffffffffffffffffffff1673ffffffffffffffffffffffffffffffffffffffff163373ffffffffffffffffffffffffffffffffffffffff1614610259575f80fd5b600115155f8054906101000a900460ff16151514610275575f80fd5b6001805490508110610285575f80fd5b60018080805490506102979190610f30565b815481106102a8576102a7610f63565b5b905f5260205f209060020201600182815481106102c8576102c7610f63565b5b905f5260205f2090600202015f8201815f0190816102e6919061119f565b5060018201548160010155905050600180548061030657610305611284565b5b600190038181905f5260205f2090600202015f8082015f6103279190610990565b600182015f9055505090557f29ab6fac06eb32ebcc3a011f02383a9d57c946d0676bf8ccaed3f20e88410d45816040516103619190610df8565b60405180910390a150565b600115155f8054906101000a900460ff16151514610388575f80fd5b5f805f6101000a81548160ff0219169083151502179055507f52a1f86df561bcdc915e07aafb957e1253d4464fc7fae3d6700815e71f063ffc5f8054906101000a900460ff166040516103db9190610dd0565b60405180910390a1565b60606001805480602002602001604051908101604052809291908181526020015f905b828210156104d1578382905f5260205f2090600202016040518060400160405290815f8201805461043890610fbd565b80601f016020809104026020016040519081016040528092919081815260200182805461046490610fbd565b80156104af5780601f10610486576101008083540402835291602001916104af565b820191905f5260205f20905b81548152906001019060200180831161049257829003601f168201915b5050505050815260200160018201548152505081526020019060010190610408565b50505050905090565b5f60019054906101000a900473ffffffffffffffffffffffffffffffffffffffff1673ffffffffffffffffffffffffffffffffffffffff163373ffffffffffffffffffffffffffffffffffffffff1614610532575f80fd5b600115155f8054906101000a900460ff1615151461054e575f80fd5b60056001805490501061055f575f80fd5b600160405180604001604052808381526020015f815250908060018154018082558091505060019003905f5260205f2090600202015f909190919091505f820151815f0190816105af91906112b1565b506020820151816001015550507f7e54b8e26d30b775858f75176d98873186bb2078a39aec1f769f4de0aeb43b1a816040516105eb9190611380565b60405180910390a150565b5f60019054906101000a900473ffffffffffffffffffffffffffffffffffffffff1681565b5f8060019054906101000a900473ffffffffffffffffffffffffffffffffffffffff1673ffffffffffffffffffffffffffffffffffffffff163373ffffffffffffffffffffffffffffffffffffffff1614905090565b5f8054906101000a900460ff1681565b5f805f90505f5b6001805490508110156106d357600181815481106106a9576106a8610f63565b5b905f5260205f20906002020160010154826106c491906113a0565b91508080600101915050610688565b508091505090565b6003602052805f5260405f205f91509050805f015f9054906101000a900460ff16908060010154905082565b60018181548110610716575f80fd5b905f5260205f2090600202015f91509050805f01805461073590610fbd565b80601f016020809104026020016040519081016040528092919081815260200182805461076190610fbd565b80156107ac5780601f10610783576101008083540402835291602001916107ac565b820191905f5260205f20905b81548152906001019060200180831161078f57829003601f168201915b5050505050908060010154905082565b600115155f8054906101000a900460ff161515146107d8575f80fd5b60018054905081106107e8575f80fd5b60035f3373ffffffffffffffffffffffffffffffffffffffff1673ffffffffffffffffffffffffffffffffffffffff1681526020019081526020015f205f015f9054906101000a900460ff161561083d575f80fd5b600160035f3373ffffffffffffffffffffffffffffffffffffffff1673ffffffffffffffffffffffffffffffffffffffff1681526020019081526020015f205f015f6101000a81548160ff0219169083151502179055508060035f3373ffffffffffffffffffffffffffffffffffffffff1673ffffffffffffffffffffffffffffffffffffffff1681526020019081526020015f2060010181905550600181815481106108ed576108ec610f63565b5b905f5260205f2090600202016001015f81548092919061090c906113d3565b91905055507e8e3b27e09daa83ef4d239b211c458358c74c8ab4a844aa4ce24f2a4e211eeb6001828154811061094557610944610f63565b5b905f5260205f2090600202015f016001838154811061096757610966610f63565b5b905f5260205f2090600202016001015460405161098592919061149b565b60405180910390a150565b50805461099c90610fbd565b5f825580601f106109ad57506109ca565b601f0160209004905f5260205f20908101906109c991906109cd565b5b50565b5b808211156109e4575f815f9055506001016109ce565b5090565b5f604051905090565b5f80fd5b5f80fd5b5f819050919050565b610a0b816109f9565b8114610a15575f80fd5b50565b5f81359050610a2681610a02565b92915050565b5f60208284031215610a4157610a406109f1565b5b5f610a4e84828501610a18565b91505092915050565b5f81519050919050565b5f82825260208201905092915050565b5f819050602082019050919050565b5f81519050919050565b5f82825260208201905092915050565b8281835e5f83830152505050565b5f601f19601f8301169050919050565b5f610ac282610a80565b610acc8185610a8a565b9350610adc818560208601610a9a565b610ae581610aa8565b840191505092915050565b610af9816109f9565b82525050565b5f604083015f8301518482035f860152610b198282610ab8565b9150506020830151610b2e6020860182610af0565b508091505092915050565b5f610b448383610aff565b905092915050565b5f602082019050919050565b5f610b6282610a57565b610b6c8185610a61565b935083602082028501610b7e85610a71565b805f5b85811015610bb95784840389528151610b9a8582610b39565b9450610ba583610b4c565b925060208a01995050600181019050610b81565b50829750879550505050505092915050565b5f6020820190508181035f830152610be38184610b58565b905092915050565b5f80fd5b5f80fd5b7f4e487b71000000000000000000000000000000000000000000000000000000005f52604160045260245ffd5b610c2982610aa8565b810181811067ffffffffffffffff82111715610c4857610c47610bf3565b5b80604052505050565b5f610c5a6109e8565b9050610c668282610c20565b919050565b5f67ffffffffffffffff821115610c8557610c84610bf3565b5b610c8e82610aa8565b9050602081019050919050565b828183375f83830152505050565b5f610cbb610cb684610c6b565b610c51565b905082815260208101848484011115610cd757610cd6610bef565b5b610ce2848285610c9b565b509392505050565b5f82601f830112610cfe57610cfd610beb565b5b8135610d0e848260208601610ca9565b91505092915050565b5f60208284031215610d2c57610d2b6109f1565b5b5f82013567ffffffffffffffff811115610d4957610d486109f5565b5b610d5584828501610cea565b91505092915050565b5f73ffffffffffffffffffffffffffffffffffffffff82169050919050565b5f610d8782610d5e565b9050919050565b610d9781610d7d565b82525050565b5f602082019050610db05f830184610d8e565b92915050565b5f8115159050919050565b610dca81610db6565b82525050565b5f602082019050610de35f830184610dc1565b92915050565b610df2816109f9565b82525050565b5f602082019050610e0b5f830184610de9565b92915050565b610e1a81610d7d565b8114610e24575f80fd5b50565b5f81359050610e3581610e11565b92915050565b5f60208284031215610e5057610e4f6109f1565b5b5f610e5d84828501610e27565b91505092915050565b5f604082019050610e795f830185610dc1565b610e866020830184610de9565b9392505050565b5f82825260208201905092915050565b5f610ea782610a80565b610eb18185610e8d565b9350610ec1818560208601610a9a565b610eca81610aa8565b840191505092915050565b5f6040820190508181035f830152610eed8185610e9d565b9050610efc6020830184610de9565b9392505050565b7f4e487b71000000000000000000000000000000000000000000000000000000005f52601160045260245ffd5b5f610f3a826109f9565b9150610f45836109f9565b9250828203905081811115610f5d57610f5c610f03565b5b92915050565b7f4e487b71000000000000000000000000000000000000000000000000000000005f52603260045260245ffd5b7f4e487b71000000000000000000000000000000000000000000000000000000005f52602260045260245ffd5b5f6002820490506001821680610fd457607f821691505b602082108103610fe757610fe6610f90565b5b50919050565b5f81549050610ffb81610fbd565b9050919050565b5f819050815f5260205f209050919050565b5f6020601f8301049050919050565b5f82821b905092915050565b5f6008830261105e7fffffffffffffffffffffffffffffffffffffffffffffffffffffffffffffffff82611023565b6110688683611023565b95508019841693508086168417925050509392505050565b5f819050919050565b5f6110a361109e611099846109f9565b611080565b6109f9565b9050919050565b5f819050919050565b6110bc83611089565b6110d06110c8826110aa565b84845461102f565b825550505050565b5f90565b6110e46110d8565b6110ef8184846110b3565b505050565b5b81811015611112576111075f826110dc565b6001810190506110f5565b5050565b601f8211156111575761112881611002565b61113184611014565b81016020851015611140578190505b61115461114c85611014565b8301826110f4565b50505b505050565b5f82821c905092915050565b5f6111775f198460080261115c565b1980831691505092915050565b5f61118f8383611168565b9150826002028217905092915050565b8181036111ad575050611282565b6111b682610fed565b67ffffffffffffffff8111156111cf576111ce610bf3565b5b6111d98254610fbd565b6111e4828285611116565b5f601f831160018114611211575f84156111ff578287015490505b6112098582611184565b86555061127b565b601f19841661121f87611002565b965061122a86611002565b5f5b828110156112515784890154825560018201915060018501945060208101905061122c565b8683101561126e578489015461126a601f891682611168565b8355505b6001600288020188555050505b5050505050505b565b7f4e487b71000000000000000000000000000000000000000000000000000000005f52603160045260245ffd5b6112ba82610a80565b67ffffffffffffffff8111156112d3576112d2610bf3565b5b6112dd8254610fbd565b6112e8828285611116565b5f60209050601f831160018114611319575f8415611307578287015190505b6113118582611184565b865550611378565b601f19841661132786611002565b5f5b8281101561134e57848901518255600182019150602085019450602081019050611329565b8683101561136b5784890151611367601f891682611168565b8355505b6001600288020188555050505b505050505050565b5f6020820190508181035f8301526113988184610e9d565b905092915050565b5f6113aa826109f9565b91506113b5836109f9565b92508282019050808211156113cd576113cc610f03565b5b92915050565b5f6113dd826109f9565b91507fffffffffffffffffffffffffffffffffffffffffffffffffffffffffffffffff820361140f5761140e610f03565b5b600182019050919050565b5f815461142681610fbd565b6114308186610e8d565b9450600182165f811461144a576001811461146057611492565b60ff198316865281151560200286019350611492565b61146985611002565b5f5b8381101561148a5781548189015260018201915060208101905061146b565b808801955050505b50505092915050565b5f6040820190508181035f8301526114b3818561141a565b90506114c26020830184610de9565b939250505056fea2646970667358221220b361d27beaf3dab66abc40495c56bcd0f2edad9a3c9dbc36bb259961459cdbed64736f6c634300081a0033",
					"opcodes": "PUSH1 0x80 PUSH1 0x40 MSTORE CALLVALUE DUP1 ISZERO PUSH2 0xF JUMPI PUSH0 DUP1 REVERT JUMPDEST POP CALLER PUSH0 PUSH1 0x1 PUSH2 0x100 EXP DUP2 SLOAD DUP2 PUSH20 0xFFFFFFFFFFFFFFFFFFFFFFFFFFFFFFFFFFFFFFFF MUL NOT AND SWAP1 DUP4 PUSH20 0xFFFFFFFFFFFFFFFFFFFFFFFFFFFFFFFFFFFFFFFF AND MUL OR SWAP1 SSTORE POP PUSH1 0x1 PUSH0 DUP1 PUSH2 0x100 EXP DUP2 SLOAD DUP2 PUSH1 0xFF MUL NOT AND SWAP1 DUP4 ISZERO ISZERO MUL OR SWAP1 SSTORE POP PUSH32 0x6D41258E44D7EE79F697248FBCE67E06508F6C2A56396009D98F28C105D43E95 PUSH0 PUSH1 0x1 SWAP1 SLOAD SWAP1 PUSH2 0x100 EXP SWAP1 DIV PUSH20 0xFFFFFFFFFFFFFFFFFFFFFFFFFFFFFFFFFFFFFFFF AND PUSH1 0x40 MLOAD PUSH2 0xB9 SWAP2 SWAP1 PUSH2 0x105 JUMP JUMPDEST PUSH1 0x40 MLOAD DUP1 SWAP2 SUB SWAP1 LOG1 PUSH2 0x11E JUMP JUMPDEST PUSH0 PUSH20 0xFFFFFFFFFFFFFFFFFFFFFFFFFFFFFFFFFFFFFFFF DUP3 AND SWAP1 POP SWAP2 SWAP1 POP JUMP JUMPDEST PUSH0 PUSH2 0xEF DUP3 PUSH2 0xC6 JUMP JUMPDEST SWAP1 POP SWAP2 SWAP1 POP JUMP JUMPDEST PUSH2 0xFF DUP2 PUSH2 0xE5 JUMP JUMPDEST DUP3 MSTORE POP POP JUMP JUMPDEST PUSH0 PUSH1 0x20 DUP3 ADD SWAP1 POP PUSH2 0x118 PUSH0 DUP4 ADD DUP5 PUSH2 0xF6 JUMP JUMPDEST SWAP3 SWAP2 POP POP JUMP JUMPDEST PUSH2 0x14FF DUP1 PUSH2 0x12B PUSH0 CODECOPY PUSH0 RETURN INVALID PUSH1 0x80 PUSH1 0x40 MSTORE CALLVALUE DUP1 ISZERO PUSH2 0xF JUMPI PUSH0 DUP1 REVERT JUMPDEST POP PUSH1 0x4 CALLDATASIZE LT PUSH2 0xA7 JUMPI PUSH0 CALLDATALOAD PUSH1 0xE0 SHR DUP1 PUSH4 0x8F32D59B GT PUSH2 0x6F JUMPI DUP1 PUSH4 0x8F32D59B EQ PUSH2 0x129 JUMPI DUP1 PUSH4 0x957AA58C EQ PUSH2 0x147 JUMPI DUP1 PUSH4 0x9A0E7D66 EQ PUSH2 0x165 JUMPI DUP1 PUSH4 0xA3EC138D EQ PUSH2 0x183 JUMPI DUP1 PUSH4 0xB13C744B EQ PUSH2 0x1B4 JUMPI DUP1 PUSH4 0xEC859DB5 EQ PUSH2 0x1E5 JUMPI PUSH2 0xA7 JUMP JUMPDEST DUP1 PUSH4 0x1E620CD4 EQ PUSH2 0xAB JUMPI DUP1 PUSH4 0x2AEBCBB6 EQ PUSH2 0xC7 JUMPI DUP1 PUSH4 0x2E6997FE EQ PUSH2 0xD1 JUMPI DUP1 PUSH4 0x462E91EC EQ PUSH2 0xEF JUMPI DUP1 PUSH4 0x8DA5CB5B EQ PUSH2 0x10B JUMPI JUMPDEST PUSH0 DUP1 REVERT JUMPDEST PUSH2 0xC5 PUSH1 0x4 DUP1 CALLDATASIZE SUB DUP2 ADD SWAP1 PUSH2 0xC0 SWAP2 SWAP1 PUSH2 0xA2C JUMP JUMPDEST PUSH2 0x201 JUMP JUMPDEST STOP JUMPDEST PUSH2 0xCF PUSH2 0x36C JUMP JUMPDEST STOP JUMPDEST PUSH2 0xD9 PUSH2 0x3E5 JUMP JUMPDEST PUSH1 0x40 MLOAD PUSH2 0xE6 SWAP2 SWAP1 PUSH2 0xBCB JUMP JUMPDEST PUSH1 0x40 MLOAD DUP1 SWAP2 SUB SWAP1 RETURN JUMPDEST PUSH2 0x109 PUSH1 0x4 DUP1 CALLDATASIZE SUB DUP2 ADD SWAP1 PUSH2 0x104 SWAP2 SWAP1 PUSH2 0xD17 JUMP JUMPDEST PUSH2 0x4DA JUMP JUMPDEST STOP JUMPDEST PUSH2 0x113 PUSH2 0x5F6 JUMP JUMPDEST PUSH1 0x40 MLOAD PUSH2 0x120 SWAP2 SWAP1 PUSH2 0xD9D JUMP JUMPDEST PUSH1 0x40 MLOAD DUP1 SWAP2 SUB SWAP1 RETURN JUMPDEST PUSH2 0x131 PUSH2 0x61B JUMP JUMPDEST PUSH1 0x40 MLOAD PUSH2 0x13E SWAP2 SWAP1 PUSH2 0xDD0 JUMP JUMPDEST PUSH1 0x40 MLOAD DUP1 SWAP2 SUB SWAP1 RETURN JUMPDEST PUSH2 0x14F PUSH2 0x671 JUMP JUMPDEST PUSH1 0x40 MLOAD PUSH2 0x15C SWAP2 SWAP1 PUSH2 0xDD0 JUMP JUMPDEST PUSH1 0x40 MLOAD DUP1 SWAP2 SUB SWAP1 RETURN JUMPDEST PUSH2 0x16D PUSH2 0x681 JUMP JUMPDEST PUSH1 0x40 MLOAD PUSH2 0x17A SWAP2 SWAP1 PUSH2 0xDF8 JUMP JUMPDEST PUSH1 0x40 MLOAD DUP1 SWAP2 SUB SWAP1 RETURN JUMPDEST PUSH2 0x19D PUSH1 0x4 DUP1 CALLDATASIZE SUB DUP2 ADD SWAP1 PUSH2 0x198 SWAP2 SWAP1 PUSH2 0xE3B JUMP JUMPDEST PUSH2 0x6DB JUMP JUMPDEST PUSH1 0x40 MLOAD PUSH2 0x1AB SWAP3 SWAP2 SWAP1 PUSH2 0xE66 JUMP JUMPDEST PUSH1 0x40 MLOAD DUP1 SWAP2 SUB SWAP1 RETURN JUMPDEST PUSH2 0x1CE PUSH1 0x4 DUP1 CALLDATASIZE SUB DUP2 ADD SWAP1 PUSH2 0x1C9 SWAP2 SWAP1 PUSH2 0xA2C JUMP JUMPDEST PUSH2 0x707 JUMP JUMPDEST PUSH1 0x40 MLOAD PUSH2 0x1DC SWAP3 SWAP2 SWAP1 PUSH2 0xED5 JUMP JUMPDEST PUSH1 0x40 MLOAD DUP1 SWAP2 SUB SWAP1 RETURN JUMPDEST PUSH2 0x1FF PUSH1 0x4 DUP1 CALLDATASIZE SUB DUP2 ADD SWAP1 PUSH2 0x1FA SWAP2 SWAP1 PUSH2 0xA2C JUMP JUMPDEST PUSH2 0x7BC JUMP JUMPDEST STOP JUMPDEST PUSH0 PUSH1 0x1 SWAP1 SLOAD SWAP1 PUSH2 0x100 EXP SWAP1 DIV PUSH20 0xFFFFFFFFFFFFFFFFFFFFFFFFFFFFFFFFFFFFFFFF AND PUSH20 0xFFFFFFFFFFFFFFFFFFFFFFFFFFFFFFFFFFFFFFFF AND CALLER PUSH20 0xFFFFFFFFFFFFFFFFFFFFFFFFFFFFFFFFFFFFFFFF AND EQ PUSH2 0x259 JUMPI PUSH0 DUP1 REVERT JUMPDEST PUSH1 0x1 ISZERO ISZERO PUSH0 DUP1 SLOAD SWAP1 PUSH2 0x100 EXP SWAP1 DIV PUSH1 0xFF AND ISZERO ISZERO EQ PUSH2 0x275 JUMPI PUSH0 DUP1 REVERT JUMPDEST PUSH1 0x1 DUP1 SLOAD SWAP1 POP DUP2 LT PUSH2 0x285 JUMPI PUSH0 DUP1 REVERT JUMPDEST PUSH1 0x1 DUP1 DUP1 DUP1 SLOAD SWAP1 POP PUSH2 0x297 SWAP2 SWAP1 PUSH2 0xF30 JUMP JUMPDEST DUP2 SLOAD DUP2 LT PUSH2 0x2A8 JUMPI PUSH2 0x2A7 PUSH2 0xF63 JUMP JUMPDEST JUMPDEST SWAP1 PUSH0 MSTORE PUSH1 0x20 PUSH0 KECCAK256 SWAP1 PUSH1 0x2 MUL ADD PUSH1 0x1 DUP3 DUP2 SLOAD DUP2 LT PUSH2 0x2C8 JUMPI PUSH2 0x2C7 PUSH2 0xF63 JUMP JUMPDEST JUMPDEST SWAP1 PUSH0 MSTORE PUSH1 0x20 PUSH0 KECCAK256 SWAP1 PUSH1 0x2 MUL ADD PUSH0 DUP3 ADD DUP2 PUSH0 ADD SWAP1 DUP2 PUSH2 0x2E6 SWAP2 SWAP1 PUSH2 0x119F JUMP JUMPDEST POP PUSH1 0x1 DUP3 ADD SLOAD DUP2 PUSH1 0x1 ADD SSTORE SWAP1 POP POP PUSH1 0x1 DUP1 SLOAD DUP1 PUSH2 0x306 JUMPI PUSH2 0x305 PUSH2 0x1284 JUMP JUMPDEST JUMPDEST PUSH1 0x1 SWAP1 SUB DUP2 DUP2 SWAP1 PUSH0 MSTORE PUSH1 0x20 PUSH0 KECCAK256 SWAP1 PUSH1 0x2 MUL ADD PUSH0 DUP1 DUP3 ADD PUSH0 PUSH2 0x327 SWAP2 SWAP1 PUSH2 0x990 JUMP JUMPDEST PUSH1 0x1 DUP3 ADD PUSH0 SWAP1 SSTORE POP POP SWAP1 SSTORE PUSH32 0x29AB6FAC06EB32EBCC3A011F02383A9D57C946D0676BF8CCAED3F20E88410D45 DUP2 PUSH1 0x40 MLOAD PUSH2 0x361 SWAP2 SWAP1 PUSH2 0xDF8 JUMP JUMPDEST PUSH1 0x40 MLOAD DUP1 SWAP2 SUB SWAP1 LOG1 POP JUMP JUMPDEST PUSH1 0x1 ISZERO ISZERO PUSH0 DUP1 SLOAD SWAP1 PUSH2 0x100 EXP SWAP1 DIV PUSH1 0xFF AND ISZERO ISZERO EQ PUSH2 0x388 JUMPI PUSH0 DUP1 REVERT JUMPDEST PUSH0 DUP1 PUSH0 PUSH2 0x100 EXP DUP2 SLOAD DUP2 PUSH1 0xFF MUL NOT AND SWAP1 DUP4 ISZERO ISZERO MUL OR SWAP1 SSTORE POP PUSH32 0x52A1F86DF561BCDC915E07AAFB957E1253D4464FC7FAE3D6700815E71F063FFC PUSH0 DUP1 SLOAD SWAP1 PUSH2 0x100 EXP SWAP1 DIV PUSH1 0xFF AND PUSH1 0x40 MLOAD PUSH2 0x3DB SWAP2 SWAP1 PUSH2 0xDD0 JUMP JUMPDEST PUSH1 0x40 MLOAD DUP1 SWAP2 SUB SWAP1 LOG1 JUMP JUMPDEST PUSH1 0x60 PUSH1 0x1 DUP1 SLOAD DUP1 PUSH1 0x20 MUL PUSH1 0x20 ADD PUSH1 0x40 MLOAD SWAP1 DUP2 ADD PUSH1 0x40 MSTORE DUP1 SWAP3 SWAP2 SWAP1 DUP2 DUP2 MSTORE PUSH1 0x20 ADD PUSH0 SWAP1 JUMPDEST DUP3 DUP3 LT ISZERO PUSH2 0x4D1 JUMPI DUP4 DUP3 SWAP1 PUSH0 MSTORE PUSH1 0x20 PUSH0 KECCAK256 SWAP1 PUSH1 0x2 MUL ADD PUSH1 0x40 MLOAD DUP1 PUSH1 0x40 ADD PUSH1 0x40 MSTORE SWAP1 DUP2 PUSH0 DUP3 ADD DUP1 SLOAD PUSH2 0x438 SWAP1 PUSH2 0xFBD JUMP JUMPDEST DUP1 PUSH1 0x1F ADD PUSH1 0x20 DUP1 SWAP2 DIV MUL PUSH1 0x20 ADD PUSH1 0x40 MLOAD SWAP1 DUP2 ADD PUSH1 0x40 MSTORE DUP1 SWAP3 SWAP2 SWAP1 DUP2 DUP2 MSTORE PUSH1 0x20 ADD DUP3 DUP1 SLOAD PUSH2 0x464 SWAP1 PUSH2 0xFBD JUMP JUMPDEST DUP1 ISZERO PUSH2 0x4AF JUMPI DUP1 PUSH1 0x1F LT PUSH2 0x486 JUMPI PUSH2 0x100 DUP1 DUP4 SLOAD DIV MUL DUP4 MSTORE SWAP2 PUSH1 0x20 ADD SWAP2 PUSH2 0x4AF JUMP JUMPDEST DUP3 ADD SWAP2 SWAP1 PUSH0 MSTORE PUSH1 0x20 PUSH0 KECCAK256 SWAP1 JUMPDEST DUP2 SLOAD DUP2 MSTORE SWAP1 PUSH1 0x1 ADD SWAP1 PUSH1 0x20 ADD DUP1 DUP4 GT PUSH2 0x492 JUMPI DUP3 SWAP1 SUB PUSH1 0x1F AND DUP3 ADD SWAP2 JUMPDEST POP POP POP POP POP DUP2 MSTORE PUSH1 0x20 ADD PUSH1 0x1 DUP3 ADD SLOAD DUP2 MSTORE POP POP DUP2 MSTORE PUSH1 0x20 ADD SWAP1 PUSH1 0x1 ADD SWAP1 PUSH2 0x408 JUMP JUMPDEST POP POP POP POP SWAP1 POP SWAP1 JUMP JUMPDEST PUSH0 PUSH1 0x1 SWAP1 SLOAD SWAP1 PUSH2 0x100 EXP SWAP1 DIV PUSH20 0xFFFFFFFFFFFFFFFFFFFFFFFFFFFFFFFFFFFFFFFF AND PUSH20 0xFFFFFFFFFFFFFFFFFFFFFFFFFFFFFFFFFFFFFFFF AND CALLER PUSH20 0xFFFFFFFFFFFFFFFFFFFFFFFFFFFFFFFFFFFFFFFF AND EQ PUSH2 0x532 JUMPI PUSH0 DUP1 REVERT JUMPDEST PUSH1 0x1 ISZERO ISZERO PUSH0 DUP1 SLOAD SWAP1 PUSH2 0x100 EXP SWAP1 DIV PUSH1 0xFF AND ISZERO ISZERO EQ PUSH2 0x54E JUMPI PUSH0 DUP1 REVERT JUMPDEST PUSH1 0x5 PUSH1 0x1 DUP1 SLOAD SWAP1 POP LT PUSH2 0x55F JUMPI PUSH0 DUP1 REVERT JUMPDEST PUSH1 0x1 PUSH1 0x40 MLOAD DUP1 PUSH1 0x40 ADD PUSH1 0x40 MSTORE DUP1 DUP4 DUP2 MSTORE PUSH1 0x20 ADD PUSH0 DUP2 MSTORE POP SWAP1 DUP1 PUSH1 0x1 DUP2 SLOAD ADD DUP1 DUP3 SSTORE DUP1 SWAP2 POP POP PUSH1 0x1 SWAP1 SUB SWAP1 PUSH0 MSTORE PUSH1 0x20 PUSH0 KECCAK256 SWAP1 PUSH1 0x2 MUL ADD PUSH0 SWAP1 SWAP2 SWAP1 SWAP2 SWAP1 SWAP2 POP PUSH0 DUP3 ADD MLOAD DUP2 PUSH0 ADD SWAP1 DUP2 PUSH2 0x5AF SWAP2 SWAP1 PUSH2 0x12B1 JUMP JUMPDEST POP PUSH1 0x20 DUP3 ADD MLOAD DUP2 PUSH1 0x1 ADD SSTORE POP POP PUSH32 0x7E54B8E26D30B775858F75176D98873186BB2078A39AEC1F769F4DE0AEB43B1A DUP2 PUSH1 0x40 MLOAD PUSH2 0x5EB SWAP2 SWAP1 PUSH2 0x1380 JUMP JUMPDEST PUSH1 0x40 MLOAD DUP1 SWAP2 SUB SWAP1 LOG1 POP JUMP JUMPDEST PUSH0 PUSH1 0x1 SWAP1 SLOAD SWAP1 PUSH2 0x100 EXP SWAP1 DIV PUSH20 0xFFFFFFFFFFFFFFFFFFFFFFFFFFFFFFFFFFFFFFFF AND DUP2 JUMP JUMPDEST PUSH0 DUP1 PUSH1 0x1 SWAP1 SLOAD SWAP1 PUSH2 0x100 EXP SWAP1 DIV PUSH20 0xFFFFFFFFFFFFFFFFFFFFFFFFFFFFFFFFFFFFFFFF AND PUSH20 0xFFFFFFFFFFFFFFFFFFFFFFFFFFFFFFFFFFFFFFFF AND CALLER PUSH20 0xFFFFFFFFFFFFFFFFFFFFFFFFFFFFFFFFFFFFFFFF AND EQ SWAP1 POP SWAP1 JUMP JUMPDEST PUSH0 DUP1 SLOAD SWAP1 PUSH2 0x100 EXP SWAP1 DIV PUSH1 0xFF AND DUP2 JUMP JUMPDEST PUSH0 DUP1 PUSH0 SWAP1 POP PUSH0 JUMPDEST PUSH1 0x1 DUP1 SLOAD SWAP1 POP DUP2 LT ISZERO PUSH2 0x6D3 JUMPI PUSH1 0x1 DUP2 DUP2 SLOAD DUP2 LT PUSH2 0x6A9 JUMPI PUSH2 0x6A8 PUSH2 0xF63 JUMP JUMPDEST JUMPDEST SWAP1 PUSH0 MSTORE PUSH1 0x20 PUSH0 KECCAK256 SWAP1 PUSH1 0x2 MUL ADD PUSH1 0x1 ADD SLOAD DUP3 PUSH2 0x6C4 SWAP2 SWAP1 PUSH2 0x13A0 JUMP JUMPDEST SWAP2 POP DUP1 DUP1 PUSH1 0x1 ADD SWAP2 POP POP PUSH2 0x688 JUMP JUMPDEST POP DUP1 SWAP2 POP POP SWAP1 JUMP JUMPDEST PUSH1 0x3 PUSH1 0x20 MSTORE DUP1 PUSH0 MSTORE PUSH1 0x40 PUSH0 KECCAK256 PUSH0 SWAP2 POP SWAP1 POP DUP1 PUSH0 ADD PUSH0 SWAP1 SLOAD SWAP1 PUSH2 0x100 EXP SWAP1 DIV PUSH1 0xFF AND SWAP1 DUP1 PUSH1 0x1 ADD SLOAD SWAP1 POP DUP3 JUMP JUMPDEST PUSH1 0x1 DUP2 DUP2 SLOAD DUP2 LT PUSH2 0x716 JUMPI PUSH0 DUP1 REVERT JUMPDEST SWAP1 PUSH0 MSTORE PUSH1 0x20 PUSH0 KECCAK256 SWAP1 PUSH1 0x2 MUL ADD PUSH0 SWAP2 POP SWAP1 POP DUP1 PUSH0 ADD DUP1 SLOAD PUSH2 0x735 SWAP1 PUSH2 0xFBD JUMP JUMPDEST DUP1 PUSH1 0x1F ADD PUSH1 0x20 DUP1 SWAP2 DIV MUL PUSH1 0x20 ADD PUSH1 0x40 MLOAD SWAP1 DUP2 ADD PUSH1 0x40 MSTORE DUP1 SWAP3 SWAP2 SWAP1 DUP2 DUP2 MSTORE PUSH1 0x20 ADD DUP3 DUP1 SLOAD PUSH2 0x761 SWAP1 PUSH2 0xFBD JUMP JUMPDEST DUP1 ISZERO PUSH2 0x7AC JUMPI DUP1 PUSH1 0x1F LT PUSH2 0x783 JUMPI PUSH2 0x100 DUP1 DUP4 SLOAD DIV MUL DUP4 MSTORE SWAP2 PUSH1 0x20 ADD SWAP2 PUSH2 0x7AC JUMP JUMPDEST DUP3 ADD SWAP2 SWAP1 PUSH0 MSTORE PUSH1 0x20 PUSH0 KECCAK256 SWAP1 JUMPDEST DUP2 SLOAD DUP2 MSTORE SWAP1 PUSH1 0x1 ADD SWAP1 PUSH1 0x20 ADD DUP1 DUP4 GT PUSH2 0x78F JUMPI DUP3 SWAP1 SUB PUSH1 0x1F AND DUP3 ADD SWAP2 JUMPDEST POP POP POP POP POP SWAP1 DUP1 PUSH1 0x1 ADD SLOAD SWAP1 POP DUP3 JUMP JUMPDEST PUSH1 0x1 ISZERO ISZERO PUSH0 DUP1 SLOAD SWAP1 PUSH2 0x100 EXP SWAP1 DIV PUSH1 0xFF AND ISZERO ISZERO EQ PUSH2 0x7D8 JUMPI PUSH0 DUP1 REVERT JUMPDEST PUSH1 0x1 DUP1 SLOAD SWAP1 POP DUP2 LT PUSH2 0x7E8 JUMPI PUSH0 DUP1 REVERT JUMPDEST PUSH1 0x3 PUSH0 CALLER PUSH20 0xFFFFFFFFFFFFFFFFFFFFFFFFFFFFFFFFFFFFFFFF AND PUSH20 0xFFFFFFFFFFFFFFFFFFFFFFFFFFFFFFFFFFFFFFFF AND DUP2 MSTORE PUSH1 0x20 ADD SWAP1 DUP2 MSTORE PUSH1 0x20 ADD PUSH0 KECCAK256 PUSH0 ADD PUSH0 SWAP1 SLOAD SWAP1 PUSH2 0x100 EXP SWAP1 DIV PUSH1 0xFF AND ISZERO PUSH2 0x83D JUMPI PUSH0 DUP1 REVERT JUMPDEST PUSH1 0x1 PUSH1 0x3 PUSH0 CALLER PUSH20 0xFFFFFFFFFFFFFFFFFFFFFFFFFFFFFFFFFFFFFFFF AND PUSH20 0xFFFFFFFFFFFFFFFFFFFFFFFFFFFFFFFFFFFFFFFF AND DUP2 MSTORE PUSH1 0x20 ADD SWAP1 DUP2 MSTORE PUSH1 0x20 ADD PUSH0 KECCAK256 PUSH0 ADD PUSH0 PUSH2 0x100 EXP DUP2 SLOAD DUP2 PUSH1 0xFF MUL NOT AND SWAP1 DUP4 ISZERO ISZERO MUL OR SWAP1 SSTORE POP DUP1 PUSH1 0x3 PUSH0 CALLER PUSH20 0xFFFFFFFFFFFFFFFFFFFFFFFFFFFFFFFFFFFFFFFF AND PUSH20 0xFFFFFFFFFFFFFFFFFFFFFFFFFFFFFFFFFFFFFFFF AND DUP2 MSTORE PUSH1 0x20 ADD SWAP1 DUP2 MSTORE PUSH1 0x20 ADD PUSH0 KECCAK256 PUSH1 0x1 ADD DUP2 SWAP1 SSTORE POP PUSH1 0x1 DUP2 DUP2 SLOAD DUP2 LT PUSH2 0x8ED JUMPI PUSH2 0x8EC PUSH2 0xF63 JUMP JUMPDEST JUMPDEST SWAP1 PUSH0 MSTORE PUSH1 0x20 PUSH0 KECCAK256 SWAP1 PUSH1 0x2 MUL ADD PUSH1 0x1 ADD PUSH0 DUP2 SLOAD DUP1 SWAP3 SWAP2 SWAP1 PUSH2 0x90C SWAP1 PUSH2 0x13D3 JUMP JUMPDEST SWAP2 SWAP1 POP SSTORE POP PUSH31 0x8E3B27E09DAA83EF4D239B211C458358C74C8AB4A844AA4CE24F2A4E211EEB PUSH1 0x1 DUP3 DUP2 SLOAD DUP2 LT PUSH2 0x945 JUMPI PUSH2 0x944 PUSH2 0xF63 JUMP JUMPDEST JUMPDEST SWAP1 PUSH0 MSTORE PUSH1 0x20 PUSH0 KECCAK256 SWAP1 PUSH1 0x2 MUL ADD PUSH0 ADD PUSH1 0x1 DUP4 DUP2 SLOAD DUP2 LT PUSH2 0x967 JUMPI PUSH2 0x966 PUSH2 0xF63 JUMP JUMPDEST JUMPDEST SWAP1 PUSH0 MSTORE PUSH1 0x20 PUSH0 KECCAK256 SWAP1 PUSH1 0x2 MUL ADD PUSH1 0x1 ADD SLOAD PUSH1 0x40 MLOAD PUSH2 0x985 SWAP3 SWAP2 SWAP1 PUSH2 0x149B JUMP JUMPDEST PUSH1 0x40 MLOAD DUP1 SWAP2 SUB SWAP1 LOG1 POP JUMP JUMPDEST POP DUP1 SLOAD PUSH2 0x99C SWAP1 PUSH2 0xFBD JUMP JUMPDEST PUSH0 DUP3 SSTORE DUP1 PUSH1 0x1F LT PUSH2 0x9AD JUMPI POP PUSH2 0x9CA JUMP JUMPDEST PUSH1 0x1F ADD PUSH1 0x20 SWAP1 DIV SWAP1 PUSH0 MSTORE PUSH1 0x20 PUSH0 KECCAK256 SWAP1 DUP2 ADD SWAP1 PUSH2 0x9C9 SWAP2 SWAP1 PUSH2 0x9CD JUMP JUMPDEST JUMPDEST POP JUMP JUMPDEST JUMPDEST DUP1 DUP3 GT ISZERO PUSH2 0x9E4 JUMPI PUSH0 DUP2 PUSH0 SWAP1 SSTORE POP PUSH1 0x1 ADD PUSH2 0x9CE JUMP JUMPDEST POP SWAP1 JUMP JUMPDEST PUSH0 PUSH1 0x40 MLOAD SWAP1 POP SWAP1 JUMP JUMPDEST PUSH0 DUP1 REVERT JUMPDEST PUSH0 DUP1 REVERT JUMPDEST PUSH0 DUP2 SWAP1 POP SWAP2 SWAP1 POP JUMP JUMPDEST PUSH2 0xA0B DUP2 PUSH2 0x9F9 JUMP JUMPDEST DUP2 EQ PUSH2 0xA15 JUMPI PUSH0 DUP1 REVERT JUMPDEST POP JUMP JUMPDEST PUSH0 DUP2 CALLDATALOAD SWAP1 POP PUSH2 0xA26 DUP2 PUSH2 0xA02 JUMP JUMPDEST SWAP3 SWAP2 POP POP JUMP JUMPDEST PUSH0 PUSH1 0x20 DUP3 DUP5 SUB SLT ISZERO PUSH2 0xA41 JUMPI PUSH2 0xA40 PUSH2 0x9F1 JUMP JUMPDEST JUMPDEST PUSH0 PUSH2 0xA4E DUP5 DUP3 DUP6 ADD PUSH2 0xA18 JUMP JUMPDEST SWAP2 POP POP SWAP3 SWAP2 POP POP JUMP JUMPDEST PUSH0 DUP2 MLOAD SWAP1 POP SWAP2 SWAP1 POP JUMP JUMPDEST PUSH0 DUP3 DUP3 MSTORE PUSH1 0x20 DUP3 ADD SWAP1 POP SWAP3 SWAP2 POP POP JUMP JUMPDEST PUSH0 DUP2 SWAP1 POP PUSH1 0x20 DUP3 ADD SWAP1 POP SWAP2 SWAP1 POP JUMP JUMPDEST PUSH0 DUP2 MLOAD SWAP1 POP SWAP2 SWAP1 POP JUMP JUMPDEST PUSH0 DUP3 DUP3 MSTORE PUSH1 0x20 DUP3 ADD SWAP1 POP SWAP3 SWAP2 POP POP JUMP JUMPDEST DUP3 DUP2 DUP4 MCOPY PUSH0 DUP4 DUP4 ADD MSTORE POP POP POP JUMP JUMPDEST PUSH0 PUSH1 0x1F NOT PUSH1 0x1F DUP4 ADD AND SWAP1 POP SWAP2 SWAP1 POP JUMP JUMPDEST PUSH0 PUSH2 0xAC2 DUP3 PUSH2 0xA80 JUMP JUMPDEST PUSH2 0xACC DUP2 DUP6 PUSH2 0xA8A JUMP JUMPDEST SWAP4 POP PUSH2 0xADC DUP2 DUP6 PUSH1 0x20 DUP7 ADD PUSH2 0xA9A JUMP JUMPDEST PUSH2 0xAE5 DUP2 PUSH2 0xAA8 JUMP JUMPDEST DUP5 ADD SWAP2 POP POP SWAP3 SWAP2 POP POP JUMP JUMPDEST PUSH2 0xAF9 DUP2 PUSH2 0x9F9 JUMP JUMPDEST DUP3 MSTORE POP POP JUMP JUMPDEST PUSH0 PUSH1 0x40 DUP4 ADD PUSH0 DUP4 ADD MLOAD DUP5 DUP3 SUB PUSH0 DUP7 ADD MSTORE PUSH2 0xB19 DUP3 DUP3 PUSH2 0xAB8 JUMP JUMPDEST SWAP2 POP POP PUSH1 0x20 DUP4 ADD MLOAD PUSH2 0xB2E PUSH1 0x20 DUP7 ADD DUP3 PUSH2 0xAF0 JUMP JUMPDEST POP DUP1 SWAP2 POP POP SWAP3 SWAP2 POP POP JUMP JUMPDEST PUSH0 PUSH2 0xB44 DUP4 DUP4 PUSH2 0xAFF JUMP JUMPDEST SWAP1 POP SWAP3 SWAP2 POP POP JUMP JUMPDEST PUSH0 PUSH1 0x20 DUP3 ADD SWAP1 POP SWAP2 SWAP1 POP JUMP JUMPDEST PUSH0 PUSH2 0xB62 DUP3 PUSH2 0xA57 JUMP JUMPDEST PUSH2 0xB6C DUP2 DUP6 PUSH2 0xA61 JUMP JUMPDEST SWAP4 POP DUP4 PUSH1 0x20 DUP3 MUL DUP6 ADD PUSH2 0xB7E DUP6 PUSH2 0xA71 JUMP JUMPDEST DUP1 PUSH0 JUMPDEST DUP6 DUP2 LT ISZERO PUSH2 0xBB9 JUMPI DUP5 DUP5 SUB DUP10 MSTORE DUP2 MLOAD PUSH2 0xB9A DUP6 DUP3 PUSH2 0xB39 JUMP JUMPDEST SWAP5 POP PUSH2 0xBA5 DUP4 PUSH2 0xB4C JUMP JUMPDEST SWAP3 POP PUSH1 0x20 DUP11 ADD SWAP10 POP POP PUSH1 0x1 DUP2 ADD SWAP1 POP PUSH2 0xB81 JUMP JUMPDEST POP DUP3 SWAP8 POP DUP8 SWAP6 POP POP POP POP POP POP SWAP3 SWAP2 POP POP JUMP JUMPDEST PUSH0 PUSH1 0x20 DUP3 ADD SWAP1 POP DUP2 DUP2 SUB PUSH0 DUP4 ADD MSTORE PUSH2 0xBE3 DUP2 DUP5 PUSH2 0xB58 JUMP JUMPDEST SWAP1 POP SWAP3 SWAP2 POP POP JUMP JUMPDEST PUSH0 DUP1 REVERT JUMPDEST PUSH0 DUP1 REVERT JUMPDEST PUSH32 0x4E487B7100000000000000000000000000000000000000000000000000000000 PUSH0 MSTORE PUSH1 0x41 PUSH1 0x4 MSTORE PUSH1 0x24 PUSH0 REVERT JUMPDEST PUSH2 0xC29 DUP3 PUSH2 0xAA8 JUMP JUMPDEST DUP2 ADD DUP2 DUP2 LT PUSH8 0xFFFFFFFFFFFFFFFF DUP3 GT OR ISZERO PUSH2 0xC48 JUMPI PUSH2 0xC47 PUSH2 0xBF3 JUMP JUMPDEST JUMPDEST DUP1 PUSH1 0x40 MSTORE POP POP POP JUMP JUMPDEST PUSH0 PUSH2 0xC5A PUSH2 0x9E8 JUMP JUMPDEST SWAP1 POP PUSH2 0xC66 DUP3 DUP3 PUSH2 0xC20 JUMP JUMPDEST SWAP2 SWAP1 POP JUMP JUMPDEST PUSH0 PUSH8 0xFFFFFFFFFFFFFFFF DUP3 GT ISZERO PUSH2 0xC85 JUMPI PUSH2 0xC84 PUSH2 0xBF3 JUMP JUMPDEST JUMPDEST PUSH2 0xC8E DUP3 PUSH2 0xAA8 JUMP JUMPDEST SWAP1 POP PUSH1 0x20 DUP2 ADD SWAP1 POP SWAP2 SWAP1 POP JUMP JUMPDEST DUP3 DUP2 DUP4 CALLDATACOPY PUSH0 DUP4 DUP4 ADD MSTORE POP POP POP JUMP JUMPDEST PUSH0 PUSH2 0xCBB PUSH2 0xCB6 DUP5 PUSH2 0xC6B JUMP JUMPDEST PUSH2 0xC51 JUMP JUMPDEST SWAP1 POP DUP3 DUP2 MSTORE PUSH1 0x20 DUP2 ADD DUP5 DUP5 DUP5 ADD GT ISZERO PUSH2 0xCD7 JUMPI PUSH2 0xCD6 PUSH2 0xBEF JUMP JUMPDEST JUMPDEST PUSH2 0xCE2 DUP5 DUP3 DUP6 PUSH2 0xC9B JUMP JUMPDEST POP SWAP4 SWAP3 POP POP POP JUMP JUMPDEST PUSH0 DUP3 PUSH1 0x1F DUP4 ADD SLT PUSH2 0xCFE JUMPI PUSH2 0xCFD PUSH2 0xBEB JUMP JUMPDEST JUMPDEST DUP2 CALLDATALOAD PUSH2 0xD0E DUP5 DUP3 PUSH1 0x20 DUP7 ADD PUSH2 0xCA9 JUMP JUMPDEST SWAP2 POP POP SWAP3 SWAP2 POP POP JUMP JUMPDEST PUSH0 PUSH1 0x20 DUP3 DUP5 SUB SLT ISZERO PUSH2 0xD2C JUMPI PUSH2 0xD2B PUSH2 0x9F1 JUMP JUMPDEST JUMPDEST PUSH0 DUP3 ADD CALLDATALOAD PUSH8 0xFFFFFFFFFFFFFFFF DUP2 GT ISZERO PUSH2 0xD49 JUMPI PUSH2 0xD48 PUSH2 0x9F5 JUMP JUMPDEST JUMPDEST PUSH2 0xD55 DUP5 DUP3 DUP6 ADD PUSH2 0xCEA JUMP JUMPDEST SWAP2 POP POP SWAP3 SWAP2 POP POP JUMP JUMPDEST PUSH0 PUSH20 0xFFFFFFFFFFFFFFFFFFFFFFFFFFFFFFFFFFFFFFFF DUP3 AND SWAP1 POP SWAP2 SWAP1 POP JUMP JUMPDEST PUSH0 PUSH2 0xD87 DUP3 PUSH2 0xD5E JUMP JUMPDEST SWAP1 POP SWAP2 SWAP1 POP JUMP JUMPDEST PUSH2 0xD97 DUP2 PUSH2 0xD7D JUMP JUMPDEST DUP3 MSTORE POP POP JUMP JUMPDEST PUSH0 PUSH1 0x20 DUP3 ADD SWAP1 POP PUSH2 0xDB0 PUSH0 DUP4 ADD DUP5 PUSH2 0xD8E JUMP JUMPDEST SWAP3 SWAP2 POP POP JUMP JUMPDEST PUSH0 DUP2 ISZERO ISZERO SWAP1 POP SWAP2 SWAP1 POP JUMP JUMPDEST PUSH2 0xDCA DUP2 PUSH2 0xDB6 JUMP JUMPDEST DUP3 MSTORE POP POP JUMP JUMPDEST PUSH0 PUSH1 0x20 DUP3 ADD SWAP1 POP PUSH2 0xDE3 PUSH0 DUP4 ADD DUP5 PUSH2 0xDC1 JUMP JUMPDEST SWAP3 SWAP2 POP POP JUMP JUMPDEST PUSH2 0xDF2 DUP2 PUSH2 0x9F9 JUMP JUMPDEST DUP3 MSTORE POP POP JUMP JUMPDEST PUSH0 PUSH1 0x20 DUP3 ADD SWAP1 POP PUSH2 0xE0B PUSH0 DUP4 ADD DUP5 PUSH2 0xDE9 JUMP JUMPDEST SWAP3 SWAP2 POP POP JUMP JUMPDEST PUSH2 0xE1A DUP2 PUSH2 0xD7D JUMP JUMPDEST DUP2 EQ PUSH2 0xE24 JUMPI PUSH0 DUP1 REVERT JUMPDEST POP JUMP JUMPDEST PUSH0 DUP2 CALLDATALOAD SWAP1 POP PUSH2 0xE35 DUP2 PUSH2 0xE11 JUMP JUMPDEST SWAP3 SWAP2 POP POP JUMP JUMPDEST PUSH0 PUSH1 0x20 DUP3 DUP5 SUB SLT ISZERO PUSH2 0xE50 JUMPI PUSH2 0xE4F PUSH2 0x9F1 JUMP JUMPDEST JUMPDEST PUSH0 PUSH2 0xE5D DUP5 DUP3 DUP6 ADD PUSH2 0xE27 JUMP JUMPDEST SWAP2 POP POP SWAP3 SWAP2 POP POP JUMP JUMPDEST PUSH0 PUSH1 0x40 DUP3 ADD SWAP1 POP PUSH2 0xE79 PUSH0 DUP4 ADD DUP6 PUSH2 0xDC1 JUMP JUMPDEST PUSH2 0xE86 PUSH1 0x20 DUP4 ADD DUP5 PUSH2 0xDE9 JUMP JUMPDEST SWAP4 SWAP3 POP POP POP JUMP JUMPDEST PUSH0 DUP3 DUP3 MSTORE PUSH1 0x20 DUP3 ADD SWAP1 POP SWAP3 SWAP2 POP POP JUMP JUMPDEST PUSH0 PUSH2 0xEA7 DUP3 PUSH2 0xA80 JUMP JUMPDEST PUSH2 0xEB1 DUP2 DUP6 PUSH2 0xE8D JUMP JUMPDEST SWAP4 POP PUSH2 0xEC1 DUP2 DUP6 PUSH1 0x20 DUP7 ADD PUSH2 0xA9A JUMP JUMPDEST PUSH2 0xECA DUP2 PUSH2 0xAA8 JUMP JUMPDEST DUP5 ADD SWAP2 POP POP SWAP3 SWAP2 POP POP JUMP JUMPDEST PUSH0 PUSH1 0x40 DUP3 ADD SWAP1 POP DUP2 DUP2 SUB PUSH0 DUP4 ADD MSTORE PUSH2 0xEED DUP2 DUP6 PUSH2 0xE9D JUMP JUMPDEST SWAP1 POP PUSH2 0xEFC PUSH1 0x20 DUP4 ADD DUP5 PUSH2 0xDE9 JUMP JUMPDEST SWAP4 SWAP3 POP POP POP JUMP JUMPDEST PUSH32 0x4E487B7100000000000000000000000000000000000000000000000000000000 PUSH0 MSTORE PUSH1 0x11 PUSH1 0x4 MSTORE PUSH1 0x24 PUSH0 REVERT JUMPDEST PUSH0 PUSH2 0xF3A DUP3 PUSH2 0x9F9 JUMP JUMPDEST SWAP2 POP PUSH2 0xF45 DUP4 PUSH2 0x9F9 JUMP JUMPDEST SWAP3 POP DUP3 DUP3 SUB SWAP1 POP DUP2 DUP2 GT ISZERO PUSH2 0xF5D JUMPI PUSH2 0xF5C PUSH2 0xF03 JUMP JUMPDEST JUMPDEST SWAP3 SWAP2 POP POP JUMP JUMPDEST PUSH32 0x4E487B7100000000000000000000000000000000000000000000000000000000 PUSH0 MSTORE PUSH1 0x32 PUSH1 0x4 MSTORE PUSH1 0x24 PUSH0 REVERT JUMPDEST PUSH32 0x4E487B7100000000000000000000000000000000000000000000000000000000 PUSH0 MSTORE PUSH1 0x22 PUSH1 0x4 MSTORE PUSH1 0x24 PUSH0 REVERT JUMPDEST PUSH0 PUSH1 0x2 DUP3 DIV SWAP1 POP PUSH1 0x1 DUP3 AND DUP1 PUSH2 0xFD4 JUMPI PUSH1 0x7F DUP3 AND SWAP2 POP JUMPDEST PUSH1 0x20 DUP3 LT DUP2 SUB PUSH2 0xFE7 JUMPI PUSH2 0xFE6 PUSH2 0xF90 JUMP JUMPDEST JUMPDEST POP SWAP2 SWAP1 POP JUMP JUMPDEST PUSH0 DUP2 SLOAD SWAP1 POP PUSH2 0xFFB DUP2 PUSH2 0xFBD JUMP JUMPDEST SWAP1 POP SWAP2 SWAP1 POP JUMP JUMPDEST PUSH0 DUP2 SWAP1 POP DUP2 PUSH0 MSTORE PUSH1 0x20 PUSH0 KECCAK256 SWAP1 POP SWAP2 SWAP1 POP JUMP JUMPDEST PUSH0 PUSH1 0x20 PUSH1 0x1F DUP4 ADD DIV SWAP1 POP SWAP2 SWAP1 POP JUMP JUMPDEST PUSH0 DUP3 DUP3 SHL SWAP1 POP SWAP3 SWAP2 POP POP JUMP JUMPDEST PUSH0 PUSH1 0x8 DUP4 MUL PUSH2 0x105E PUSH32 0xFFFFFFFFFFFFFFFFFFFFFFFFFFFFFFFFFFFFFFFFFFFFFFFFFFFFFFFFFFFFFFFF DUP3 PUSH2 0x1023 JUMP JUMPDEST PUSH2 0x1068 DUP7 DUP4 PUSH2 0x1023 JUMP JUMPDEST SWAP6 POP DUP1 NOT DUP5 AND SWAP4 POP DUP1 DUP7 AND DUP5 OR SWAP3 POP POP POP SWAP4 SWAP3 POP POP POP JUMP JUMPDEST PUSH0 DUP2 SWAP1 POP SWAP2 SWAP1 POP JUMP JUMPDEST PUSH0 PUSH2 0x10A3 PUSH2 0x109E PUSH2 0x1099 DUP5 PUSH2 0x9F9 JUMP JUMPDEST PUSH2 0x1080 JUMP JUMPDEST PUSH2 0x9F9 JUMP JUMPDEST SWAP1 POP SWAP2 SWAP1 POP JUMP JUMPDEST PUSH0 DUP2 SWAP1 POP SWAP2 SWAP1 POP JUMP JUMPDEST PUSH2 0x10BC DUP4 PUSH2 0x1089 JUMP JUMPDEST PUSH2 0x10D0 PUSH2 0x10C8 DUP3 PUSH2 0x10AA JUMP JUMPDEST DUP5 DUP5 SLOAD PUSH2 0x102F JUMP JUMPDEST DUP3 SSTORE POP POP POP POP JUMP JUMPDEST PUSH0 SWAP1 JUMP JUMPDEST PUSH2 0x10E4 PUSH2 0x10D8 JUMP JUMPDEST PUSH2 0x10EF DUP2 DUP5 DUP5 PUSH2 0x10B3 JUMP JUMPDEST POP POP POP JUMP JUMPDEST JUMPDEST DUP2 DUP2 LT ISZERO PUSH2 0x1112 JUMPI PUSH2 0x1107 PUSH0 DUP3 PUSH2 0x10DC JUMP JUMPDEST PUSH1 0x1 DUP2 ADD SWAP1 POP PUSH2 0x10F5 JUMP JUMPDEST POP POP JUMP JUMPDEST PUSH1 0x1F DUP3 GT ISZERO PUSH2 0x1157 JUMPI PUSH2 0x1128 DUP2 PUSH2 0x1002 JUMP JUMPDEST PUSH2 0x1131 DUP5 PUSH2 0x1014 JUMP JUMPDEST DUP2 ADD PUSH1 0x20 DUP6 LT ISZERO PUSH2 0x1140 JUMPI DUP2 SWAP1 POP JUMPDEST PUSH2 0x1154 PUSH2 0x114C DUP6 PUSH2 0x1014 JUMP JUMPDEST DUP4 ADD DUP3 PUSH2 0x10F4 JUMP JUMPDEST POP POP JUMPDEST POP POP POP JUMP JUMPDEST PUSH0 DUP3 DUP3 SHR SWAP1 POP SWAP3 SWAP2 POP POP JUMP JUMPDEST PUSH0 PUSH2 0x1177 PUSH0 NOT DUP5 PUSH1 0x8 MUL PUSH2 0x115C JUMP JUMPDEST NOT DUP1 DUP4 AND SWAP2 POP POP SWAP3 SWAP2 POP POP JUMP JUMPDEST PUSH0 PUSH2 0x118F DUP4 DUP4 PUSH2 0x1168 JUMP JUMPDEST SWAP2 POP DUP3 PUSH1 0x2 MUL DUP3 OR SWAP1 POP SWAP3 SWAP2 POP POP JUMP JUMPDEST DUP2 DUP2 SUB PUSH2 0x11AD JUMPI POP POP PUSH2 0x1282 JUMP JUMPDEST PUSH2 0x11B6 DUP3 PUSH2 0xFED JUMP JUMPDEST PUSH8 0xFFFFFFFFFFFFFFFF DUP2 GT ISZERO PUSH2 0x11CF JUMPI PUSH2 0x11CE PUSH2 0xBF3 JUMP JUMPDEST JUMPDEST PUSH2 0x11D9 DUP3 SLOAD PUSH2 0xFBD JUMP JUMPDEST PUSH2 0x11E4 DUP3 DUP3 DUP6 PUSH2 0x1116 JUMP JUMPDEST PUSH0 PUSH1 0x1F DUP4 GT PUSH1 0x1 DUP2 EQ PUSH2 0x1211 JUMPI PUSH0 DUP5 ISZERO PUSH2 0x11FF JUMPI DUP3 DUP8 ADD SLOAD SWAP1 POP JUMPDEST PUSH2 0x1209 DUP6 DUP3 PUSH2 0x1184 JUMP JUMPDEST DUP7 SSTORE POP PUSH2 0x127B JUMP JUMPDEST PUSH1 0x1F NOT DUP5 AND PUSH2 0x121F DUP8 PUSH2 0x1002 JUMP JUMPDEST SWAP7 POP PUSH2 0x122A DUP7 PUSH2 0x1002 JUMP JUMPDEST PUSH0 JUMPDEST DUP3 DUP2 LT ISZERO PUSH2 0x1251 JUMPI DUP5 DUP10 ADD SLOAD DUP3 SSTORE PUSH1 0x1 DUP3 ADD SWAP2 POP PUSH1 0x1 DUP6 ADD SWAP5 POP PUSH1 0x20 DUP2 ADD SWAP1 POP PUSH2 0x122C JUMP JUMPDEST DUP7 DUP4 LT ISZERO PUSH2 0x126E JUMPI DUP5 DUP10 ADD SLOAD PUSH2 0x126A PUSH1 0x1F DUP10 AND DUP3 PUSH2 0x1168 JUMP JUMPDEST DUP4 SSTORE POP JUMPDEST PUSH1 0x1 PUSH1 0x2 DUP9 MUL ADD DUP9 SSTORE POP POP POP JUMPDEST POP POP POP POP POP POP JUMPDEST JUMP JUMPDEST PUSH32 0x4E487B7100000000000000000000000000000000000000000000000000000000 PUSH0 MSTORE PUSH1 0x31 PUSH1 0x4 MSTORE PUSH1 0x24 PUSH0 REVERT JUMPDEST PUSH2 0x12BA DUP3 PUSH2 0xA80 JUMP JUMPDEST PUSH8 0xFFFFFFFFFFFFFFFF DUP2 GT ISZERO PUSH2 0x12D3 JUMPI PUSH2 0x12D2 PUSH2 0xBF3 JUMP JUMPDEST JUMPDEST PUSH2 0x12DD DUP3 SLOAD PUSH2 0xFBD JUMP JUMPDEST PUSH2 0x12E8 DUP3 DUP3 DUP6 PUSH2 0x1116 JUMP JUMPDEST PUSH0 PUSH1 0x20 SWAP1 POP PUSH1 0x1F DUP4 GT PUSH1 0x1 DUP2 EQ PUSH2 0x1319 JUMPI PUSH0 DUP5 ISZERO PUSH2 0x1307 JUMPI DUP3 DUP8 ADD MLOAD SWAP1 POP JUMPDEST PUSH2 0x1311 DUP6 DUP3 PUSH2 0x1184 JUMP JUMPDEST DUP7 SSTORE POP PUSH2 0x1378 JUMP JUMPDEST PUSH1 0x1F NOT DUP5 AND PUSH2 0x1327 DUP7 PUSH2 0x1002 JUMP JUMPDEST PUSH0 JUMPDEST DUP3 DUP2 LT ISZERO PUSH2 0x134E JUMPI DUP5 DUP10 ADD MLOAD DUP3 SSTORE PUSH1 0x1 DUP3 ADD SWAP2 POP PUSH1 0x20 DUP6 ADD SWAP5 POP PUSH1 0x20 DUP2 ADD SWAP1 POP PUSH2 0x1329 JUMP JUMPDEST DUP7 DUP4 LT ISZERO PUSH2 0x136B JUMPI DUP5 DUP10 ADD MLOAD PUSH2 0x1367 PUSH1 0x1F DUP10 AND DUP3 PUSH2 0x1168 JUMP JUMPDEST DUP4 SSTORE POP JUMPDEST PUSH1 0x1 PUSH1 0x2 DUP9 MUL ADD DUP9 SSTORE POP POP POP JUMPDEST POP POP POP POP POP POP JUMP JUMPDEST PUSH0 PUSH1 0x20 DUP3 ADD SWAP1 POP DUP2 DUP2 SUB PUSH0 DUP4 ADD MSTORE PUSH2 0x1398 DUP2 DUP5 PUSH2 0xE9D JUMP JUMPDEST SWAP1 POP SWAP3 SWAP2 POP POP JUMP JUMPDEST PUSH0 PUSH2 0x13AA DUP3 PUSH2 0x9F9 JUMP JUMPDEST SWAP2 POP PUSH2 0x13B5 DUP4 PUSH2 0x9F9 JUMP JUMPDEST SWAP3 POP DUP3 DUP3 ADD SWAP1 POP DUP1 DUP3 GT ISZERO PUSH2 0x13CD JUMPI PUSH2 0x13CC PUSH2 0xF03 JUMP JUMPDEST JUMPDEST SWAP3 SWAP2 POP POP JUMP JUMPDEST PUSH0 PUSH2 0x13DD DUP3 PUSH2 0x9F9 JUMP JUMPDEST SWAP2 POP PUSH32 0xFFFFFFFFFFFFFFFFFFFFFFFFFFFFFFFFFFFFFFFFFFFFFFFFFFFFFFFFFFFFFFFF DUP3 SUB PUSH2 0x140F JUMPI PUSH2 0x140E PUSH2 0xF03 JUMP JUMPDEST JUMPDEST PUSH1 0x1 DUP3 ADD SWAP1 POP SWAP2 SWAP1 POP JUMP JUMPDEST PUSH0 DUP2 SLOAD PUSH2 0x1426 DUP2 PUSH2 0xFBD JUMP JUMPDEST PUSH2 0x1430 DUP2 DUP7 PUSH2 0xE8D JUMP JUMPDEST SWAP5 POP PUSH1 0x1 DUP3 AND PUSH0 DUP2 EQ PUSH2 0x144A JUMPI PUSH1 0x1 DUP2 EQ PUSH2 0x1460 JUMPI PUSH2 0x1492 JUMP JUMPDEST PUSH1 0xFF NOT DUP4 AND DUP7 MSTORE DUP2 ISZERO ISZERO PUSH1 0x20 MUL DUP7 ADD SWAP4 POP PUSH2 0x1492 JUMP JUMPDEST PUSH2 0x1469 DUP6 PUSH2 0x1002 JUMP JUMPDEST PUSH0 JUMPDEST DUP4 DUP2 LT ISZERO PUSH2 0x148A JUMPI DUP2 SLOAD DUP2 DUP10 ADD MSTORE PUSH1 0x1 DUP3 ADD SWAP2 POP PUSH1 0x20 DUP2 ADD SWAP1 POP PUSH2 0x146B JUMP JUMPDEST DUP1 DUP9 ADD SWAP6 POP POP POP JUMPDEST POP POP POP SWAP3 SWAP2 POP POP JUMP JUMPDEST PUSH0 PUSH1 0x40 DUP3 ADD SWAP1 POP DUP2 DUP2 SUB PUSH0 DUP4 ADD MSTORE PUSH2 0x14B3 DUP2 DUP6 PUSH2 0x141A JUMP JUMPDEST SWAP1 POP PUSH2 0x14C2 PUSH1 0x20 DUP4 ADD DUP5 PUSH2 0xDE9 JUMP JUMPDEST SWAP4 SWAP3 POP POP POP JUMP INVALID LOG2 PUSH5 0x6970667358 0x22 SLT KECCAK256 0xB3 PUSH2 0xD27B 0xEA RETURN 0xDA 0xB6 PUSH11 0xBC40495C56BCD0F2EDAD9A EXTCODECOPY SWAP14 0xBC CALLDATASIZE 0xBB 0x25 SWAP10 PUSH2 0x459C 0xDB 0xED PUSH5 0x736F6C6343 STOP ADDMOD BYTE STOP CALLER "
				},
				"gasEstimates": {
					"creation": {
						"codeDepositCost": "1075000",
						"executionCost": "53120",
						"totalCost": "1128120"
					},
					"external": {
						"addCandidate(string)": "infinite",
						"candidateList(uint256)": "infinite",
						"deleteCandidate(uint256)": "infinite",
						"finishVote()": "29924",
						"getAllCandidates()": "infinite",
						"getTotalVotes()": "infinite",
						"isOwner()": "2541",
						"live()": "2485",
						"owner()": "2647",
						"upVote(uint256)": "infinite",
						"voters(address)": "5133"
					}
				},
				"methodIdentifiers": {
					"addCandidate(string)": "462e91ec",
					"candidateList(uint256)": "b13c744b",
					"deleteCandidate(uint256)": "1e620cd4",
					"finishVote()": "2aebcbb6",
					"getAllCandidates()": "2e6997fe",
					"getTotalVotes()": "9a0e7d66",
					"isOwner()": "8f32d59b",
					"live()": "957aa58c",
					"owner()": "8da5cb5b",
					"upVote(uint256)": "ec859db5",
					"voters(address)": "a3ec138d"
				}
			},
			"storageLayout": {
				"storage": [
					{
						"astId": 13,
						"contract": "blockchain/practice/vote-app.sol:Vote",
						"label": "live",
						"offset": 0,
						"slot": "0",
						"type": "t_bool"
					},
					{
						"astId": 15,
						"contract": "blockchain/practice/vote-app.sol:Vote",
						"label": "owner",
						"offset": 1,
						"slot": "0",
						"type": "t_address"
					},
					{
						"astId": 19,
						"contract": "blockchain/practice/vote-app.sol:Vote",
						"label": "candidateList",
						"offset": 0,
						"slot": "1",
						"type": "t_array(t_struct(candidate)6_storage)dyn_storage"
					},
					{
						"astId": 23,
						"contract": "blockchain/practice/vote-app.sol:Vote",
						"label": "Voted",
						"offset": 0,
						"slot": "2",
						"type": "t_mapping(t_address,t_bool)"
					},
					{
						"astId": 28,
						"contract": "blockchain/practice/vote-app.sol:Vote",
						"label": "voters",
						"offset": 0,
						"slot": "3",
						"type": "t_mapping(t_address,t_struct(voter)11_storage)"
					}
				],
				"types": {
					"t_address": {
						"encoding": "inplace",
						"label": "address",
						"numberOfBytes": "20"
					},
					"t_array(t_struct(candidate)6_storage)dyn_storage": {
						"base": "t_struct(candidate)6_storage",
						"encoding": "dynamic_array",
						"label": "struct Vote.candidate[]",
						"numberOfBytes": "32"
					},
					"t_bool": {
						"encoding": "inplace",
						"label": "bool",
						"numberOfBytes": "1"
					},
					"t_mapping(t_address,t_bool)": {
						"encoding": "mapping",
						"key": "t_address",
						"label": "mapping(address => bool)",
						"numberOfBytes": "32",
						"value": "t_bool"
					},
					"t_mapping(t_address,t_struct(voter)11_storage)": {
						"encoding": "mapping",
						"key": "t_address",
						"label": "mapping(address => struct Vote.voter)",
						"numberOfBytes": "32",
						"value": "t_struct(voter)11_storage"
					},
					"t_string_storage": {
						"encoding": "bytes",
						"label": "string",
						"numberOfBytes": "32"
					},
					"t_struct(candidate)6_storage": {
						"encoding": "inplace",
						"label": "struct Vote.candidate",
						"members": [
							{
								"astId": 3,
								"contract": "blockchain/practice/vote-app.sol:Vote",
								"label": "name",
								"offset": 0,
								"slot": "0",
								"type": "t_string_storage"
							},
							{
								"astId": 5,
								"contract": "blockchain/practice/vote-app.sol:Vote",
								"label": "upVote",
								"offset": 0,
								"slot": "1",
								"type": "t_uint256"
							}
						],
						"numberOfBytes": "64"
					},
					"t_struct(voter)11_storage": {
						"encoding": "inplace",
						"label": "struct Vote.voter",
						"members": [
							{
								"astId": 8,
								"contract": "blockchain/practice/vote-app.sol:Vote",
								"label": "isVoted",
								"offset": 0,
								"slot": "0",
								"type": "t_bool"
							},
							{
								"astId": 10,
								"contract": "blockchain/practice/vote-app.sol:Vote",
								"label": "votedCandidateIndex",
								"offset": 0,
								"slot": "1",
								"type": "t_uint256"
							}
						],
						"numberOfBytes": "64"
					},
					"t_uint256": {
						"encoding": "inplace",
						"label": "uint256",
						"numberOfBytes": "32"
					}
				}
			},
			"userdoc": {
				"kind": "user",
				"methods": {},
				"version": 1
			}
		}
	}
}