{
	"blockchain/practice/vote-app.sol": {
		"Vote": {
			"abi": [
				{
					"anonymous": false,
					"inputs": [
						{
							"indexed": false,
							"internalType": "uint256",
							"name": "pollId",
							"type": "uint256"
						},
						{
							"indexed": false,
							"internalType": "string",
							"name": "question",
							"type": "string"
						},
						{
							"indexed": false,
							"internalType": "address",
							"name": "owner",
							"type": "address"
						}
					],
					"name": "CreatePoll",
					"type": "event"
				},
				{
					"inputs": [
						{
							"internalType": "uint256",
							"name": "_pollId",
							"type": "uint256"
						},
						{
							"internalType": "string",
							"name": "_name",
							"type": "string"
						}
					],
					"name": "addCandidate",
					"outputs": [],
					"stateMutability": "nonpayable",
					"type": "function"
				},
				{
					"inputs": [
						{
							"internalType": "string",
							"name": "_question",
							"type": "string"
						}
					],
					"name": "createPoll",
					"outputs": [],
					"stateMutability": "nonpayable",
					"type": "function"
				},
				{
					"inputs": [],
					"name": "getAllPoll",
					"outputs": [
						{
							"internalType": "string[]",
							"name": "questions",
							"type": "string[]"
						},
						{
							"internalType": "address[]",
							"name": "owners",
							"type": "address[]"
						},
						{
							"internalType": "bool[]",
							"name": "isActive",
							"type": "bool[]"
						},
						{
							"components": [
								{
									"internalType": "string",
									"name": "name",
									"type": "string"
								},
								{
									"internalType": "uint256",
									"name": "upVote",
									"type": "uint256"
								}
							],
							"internalType": "struct Vote.Candidate[][]",
							"name": "candidates",
							"type": "tuple[][]"
						},
						{
							"internalType": "bool[][]",
							"name": "voterStatus",
							"type": "bool[][]"
						}
					],
					"stateMutability": "view",
					"type": "function"
				},
				{
					"inputs": [
						{
							"internalType": "uint256",
							"name": "_pollId",
							"type": "uint256"
						}
					],
					"name": "getHasVoted",
					"outputs": [
						{
							"internalType": "bool",
							"name": "",
							"type": "bool"
						}
					],
					"stateMutability": "view",
					"type": "function"
				},
				{
					"inputs": [],
					"name": "getPollCount",
					"outputs": [
						{
							"internalType": "uint256",
							"name": "",
							"type": "uint256"
						}
					],
					"stateMutability": "view",
					"type": "function"
				},
				{
					"inputs": [
						{
							"internalType": "uint256",
							"name": "_pollId",
							"type": "uint256"
						}
					],
					"name": "getPollResults",
					"outputs": [
						{
							"internalType": "string",
							"name": "question",
							"type": "string"
						},
						{
							"internalType": "address",
							"name": "owner",
							"type": "address"
						},
						{
							"internalType": "bool",
							"name": "isActive",
							"type": "bool"
						},
						{
							"internalType": "string[]",
							"name": "names",
							"type": "string[]"
						},
						{
							"internalType": "uint256[]",
							"name": "votes",
							"type": "uint256[]"
						}
					],
					"stateMutability": "view",
					"type": "function"
				},
				{
					"inputs": [
						{
							"internalType": "uint256",
							"name": "",
							"type": "uint256"
						}
					],
					"name": "polls",
					"outputs": [
						{
							"internalType": "string",
							"name": "question",
							"type": "string"
						},
						{
							"internalType": "address",
							"name": "owner",
							"type": "address"
						},
						{
							"internalType": "bool",
							"name": "isActive",
							"type": "bool"
						}
					],
					"stateMutability": "view",
					"type": "function"
				},
				{
					"inputs": [
						{
							"internalType": "uint256",
							"name": "_pollId",
							"type": "uint256"
						},
						{
							"internalType": "uint256",
							"name": "_candidateIndex",
							"type": "uint256"
						}
					],
					"name": "vote",
					"outputs": [],
					"stateMutability": "nonpayable",
					"type": "function"
				}
			],
			"devdoc": {
				"kind": "dev",
				"methods": {},
				"version": 1
			},
			"evm": {
				"assembly": "    /* \"blockchain/practice/vote-app.sol\":72:4261  contract Vote {... */\n  mstore(0x40, 0x80)\n  callvalue\n  dup1\n  iszero\n  tag_1\n  jumpi\n  0x00\n  dup1\n  revert\ntag_1:\n  pop\n  dataSize(sub_0)\n  dup1\n  dataOffset(sub_0)\n  0x00\n  codecopy\n  0x00\n  return\nstop\n\nsub_0: assembly {\n        /* \"blockchain/practice/vote-app.sol\":72:4261  contract Vote {... */\n      mstore(0x40, 0x80)\n      callvalue\n      dup1\n      iszero\n      tag_1\n      jumpi\n      0x00\n      dup1\n      revert\n    tag_1:\n      pop\n      jumpi(tag_2, lt(calldatasize, 0x04))\n      shr(0xe0, calldataload(0x00))\n      dup1\n      0x7b70e360\n      gt\n      tag_11\n      jumpi\n      dup1\n      0x7b70e360\n      eq\n      tag_7\n      jumpi\n      dup1\n      0x9844f215\n      eq\n      tag_8\n      jumpi\n      dup1\n      0xac2f0074\n      eq\n      tag_9\n      jumpi\n      dup1\n      0xb384abef\n      eq\n      tag_10\n      jumpi\n      jump(tag_2)\n    tag_11:\n      dup1\n      0x11a52746\n      eq\n      tag_3\n      jumpi\n      dup1\n      0x1750a3d0\n      eq\n      tag_4\n      jumpi\n      dup1\n      0x33b4097b\n      eq\n      tag_5\n      jumpi\n      dup1\n      0x74a9ced9\n      eq\n      tag_6\n      jumpi\n    tag_2:\n      0x00\n      dup1\n      revert\n        /* \"blockchain/practice/vote-app.sol\":4172:4259  function getPollCount() public view returns (uint) {... */\n    tag_3:\n      tag_12\n      tag_13\n      jump\t// in\n    tag_12:\n      mload(0x40)\n      tag_14\n      swap2\n      swap1\n      tag_15\n      jump\t// in\n    tag_14:\n      mload(0x40)\n      dup1\n      swap2\n      sub\n      swap1\n      return\n        /* \"blockchain/practice/vote-app.sol\":961:1207  function addCandidate(uint _pollId, string memory _name) public {... */\n    tag_4:\n      tag_16\n      0x04\n      dup1\n      calldatasize\n      sub\n      dup2\n      add\n      swap1\n      tag_17\n      swap2\n      swap1\n      tag_18\n      jump\t// in\n    tag_17:\n      tag_19\n      jump\t// in\n    tag_16:\n      stop\n        /* \"blockchain/practice/vote-app.sol\":3256:3891  function getPollResults(uint _pollId) public view returns (string memory question, address owner, bool isActive, string[] memory names, uint[] memory votes) {... */\n    tag_5:\n      tag_20\n      0x04\n      dup1\n      calldatasize\n      sub\n      dup2\n      add\n      swap1\n      tag_21\n      swap2\n      swap1\n      tag_22\n      jump\t// in\n    tag_21:\n      tag_23\n      jump\t// in\n    tag_20:\n      mload(0x40)\n      tag_24\n      swap6\n      swap5\n      swap4\n      swap3\n      swap2\n      swap1\n      tag_25\n      jump\t// in\n    tag_24:\n      mload(0x40)\n      dup1\n      swap2\n      sub\n      swap1\n      return\n        /* \"blockchain/practice/vote-app.sol\":653:931  function createPoll(string memory _question) public {... */\n    tag_6:\n      tag_26\n      0x04\n      dup1\n      calldatasize\n      sub\n      dup2\n      add\n      swap1\n      tag_27\n      swap2\n      swap1\n      tag_28\n      jump\t// in\n    tag_27:\n      tag_29\n      jump\t// in\n    tag_26:\n      stop\n        /* \"blockchain/practice/vote-app.sol\":3932:4130  function getHasVoted(uint _pollId) public view returns (bool) {... */\n    tag_7:\n      tag_30\n      0x04\n      dup1\n      calldatasize\n      sub\n      dup2\n      add\n      swap1\n      tag_31\n      swap2\n      swap1\n      tag_22\n      jump\t// in\n    tag_31:\n      tag_32\n      jump\t// in\n    tag_30:\n      mload(0x40)\n      tag_33\n      swap2\n      swap1\n      tag_34\n      jump\t// in\n    tag_33:\n      mload(0x40)\n      dup1\n      swap2\n      sub\n      swap1\n      return\n        /* \"blockchain/practice/vote-app.sol\":1831:3218  function getAllPoll() public view returns (... */\n    tag_8:\n      tag_35\n      tag_36\n      jump\t// in\n    tag_35:\n      mload(0x40)\n      tag_37\n      swap6\n      swap5\n      swap4\n      swap3\n      swap2\n      swap1\n      tag_38\n      jump\t// in\n    tag_37:\n      mload(0x40)\n      dup1\n      swap2\n      sub\n      swap1\n      return\n        /* \"blockchain/practice/vote-app.sol\":508:527  Poll[] public polls */\n    tag_9:\n      tag_39\n      0x04\n      dup1\n      calldatasize\n      sub\n      dup2\n      add\n      swap1\n      tag_40\n      swap2\n      swap1\n      tag_22\n      jump\t// in\n    tag_40:\n      tag_41\n      jump\t// in\n    tag_39:\n      mload(0x40)\n      tag_42\n      swap4\n      swap3\n      swap2\n      swap1\n      tag_43\n      jump\t// in\n    tag_42:\n      mload(0x40)\n      dup1\n      swap2\n      sub\n      swap1\n      return\n        /* \"blockchain/practice/vote-app.sol\":1241:1825  function vote(uint _pollId, uint _candidateIndex) public {... */\n    tag_10:\n      tag_44\n      0x04\n      dup1\n      calldatasize\n      sub\n      dup2\n      add\n      swap1\n      tag_45\n      swap2\n      swap1\n      tag_46\n      jump\t// in\n    tag_45:\n      tag_47\n      jump\t// in\n    tag_44:\n      stop\n        /* \"blockchain/practice/vote-app.sol\":4172:4259  function getPollCount() public view returns (uint) {... */\n    tag_13:\n        /* \"blockchain/practice/vote-app.sol\":4217:4221  uint */\n      0x00\n        /* \"blockchain/practice/vote-app.sol\":4240:4245  polls */\n      dup1\n        /* \"blockchain/practice/vote-app.sol\":4240:4252  polls.length */\n      dup1\n      sload\n      swap1\n      pop\n        /* \"blockchain/practice/vote-app.sol\":4233:4252  return polls.length */\n      swap1\n      pop\n        /* \"blockchain/practice/vote-app.sol\":4172:4259  function getPollCount() public view returns (uint) {... */\n      swap1\n      jump\t// out\n        /* \"blockchain/practice/vote-app.sol\":961:1207  function addCandidate(uint _pollId, string memory _name) public {... */\n    tag_19:\n        /* \"blockchain/practice/vote-app.sol\":1035:1052  Poll storage poll */\n      0x00\n        /* \"blockchain/practice/vote-app.sol\":1055:1060  polls */\n      dup1\n        /* \"blockchain/practice/vote-app.sol\":1061:1068  _pollId */\n      dup4\n        /* \"blockchain/practice/vote-app.sol\":1055:1069  polls[_pollId] */\n      dup2\n      sload\n      dup2\n      lt\n      tag_50\n      jumpi\n      tag_51\n      tag_52\n      jump\t// in\n    tag_51:\n    tag_50:\n      swap1\n      0x00\n      mstore\n      keccak256(0x00, 0x20)\n      swap1\n      0x05\n      mul\n      add\n        /* \"blockchain/practice/vote-app.sol\":1035:1069  Poll storage poll = polls[_pollId] */\n      swap1\n      pop\n        /* \"blockchain/practice/vote-app.sol\":1101:1105  poll */\n      dup1\n        /* \"blockchain/practice/vote-app.sol\":1101:1111  poll.owner */\n      0x03\n      add\n      0x00\n      swap1\n      sload\n      swap1\n      0x0100\n      exp\n      swap1\n      div\n      0xffffffffffffffffffffffffffffffffffffffff\n      and\n        /* \"blockchain/practice/vote-app.sol\":1087:1111  msg.sender == poll.owner */\n      0xffffffffffffffffffffffffffffffffffffffff\n      and\n        /* \"blockchain/practice/vote-app.sol\":1087:1097  msg.sender */\n      caller\n        /* \"blockchain/practice/vote-app.sol\":1087:1111  msg.sender == poll.owner */\n      0xffffffffffffffffffffffffffffffffffffffff\n      and\n      eq\n        /* \"blockchain/practice/vote-app.sol\":1079:1149  require(msg.sender == poll.owner, \"Only the owner can add candidates\") */\n      tag_54\n      jumpi\n      mload(0x40)\n      0x08c379a000000000000000000000000000000000000000000000000000000000\n      dup2\n      mstore\n      0x04\n      add\n      tag_55\n      swap1\n      tag_56\n      jump\t// in\n    tag_55:\n      mload(0x40)\n      dup1\n      swap2\n      sub\n      swap1\n      revert\n    tag_54:\n        /* \"blockchain/practice/vote-app.sol\":1159:1163  poll */\n      dup1\n        /* \"blockchain/practice/vote-app.sol\":1159:1174  poll.candidates */\n      0x01\n      add\n        /* \"blockchain/practice/vote-app.sol\":1180:1199  Candidate(_name, 0) */\n      mload(0x40)\n      dup1\n      0x40\n      add\n      0x40\n      mstore\n      dup1\n        /* \"blockchain/practice/vote-app.sol\":1190:1195  _name */\n      dup5\n        /* \"blockchain/practice/vote-app.sol\":1180:1199  Candidate(_name, 0) */\n      dup2\n      mstore\n      0x20\n      add\n        /* \"blockchain/practice/vote-app.sol\":1197:1198  0 */\n      0x00\n        /* \"blockchain/practice/vote-app.sol\":1180:1199  Candidate(_name, 0) */\n      dup2\n      mstore\n      pop\n        /* \"blockchain/practice/vote-app.sol\":1159:1200  poll.candidates.push(Candidate(_name, 0)) */\n      swap1\n      dup1\n      0x01\n      dup2\n      sload\n      add\n      dup1\n      dup3\n      sstore\n      dup1\n      swap2\n      pop\n      pop\n      0x01\n      swap1\n      sub\n      swap1\n      0x00\n      mstore\n      keccak256(0x00, 0x20)\n      swap1\n      0x02\n      mul\n      add\n      0x00\n      swap1\n      swap2\n      swap1\n      swap2\n      swap1\n      swap2\n      pop\n      0x00\n      dup3\n      add\n      mload\n      dup2\n      0x00\n      add\n      swap1\n      dup2\n      tag_58\n      swap2\n      swap1\n      tag_59\n      jump\t// in\n    tag_58:\n      pop\n      0x20\n      dup3\n      add\n      mload\n      dup2\n      0x01\n      add\n      sstore\n      pop\n      pop\n        /* \"blockchain/practice/vote-app.sol\":1025:1207  {... */\n      pop\n        /* \"blockchain/practice/vote-app.sol\":961:1207  function addCandidate(uint _pollId, string memory _name) public {... */\n      pop\n      pop\n      jump\t// out\n        /* \"blockchain/practice/vote-app.sol\":3256:3891  function getPollResults(uint _pollId) public view returns (string memory question, address owner, bool isActive, string[] memory names, uint[] memory votes) {... */\n    tag_23:\n        /* \"blockchain/practice/vote-app.sol\":3315:3337  string memory question */\n      0x60\n        /* \"blockchain/practice/vote-app.sol\":3339:3352  address owner */\n      0x00\n        /* \"blockchain/practice/vote-app.sol\":3354:3367  bool isActive */\n      dup1\n        /* \"blockchain/practice/vote-app.sol\":3369:3390  string[] memory names */\n      0x60\n        /* \"blockchain/practice/vote-app.sol\":3392:3411  uint[] memory votes */\n      dup1\n        /* \"blockchain/practice/vote-app.sol\":3423:3440  Poll storage poll */\n      0x00\n        /* \"blockchain/practice/vote-app.sol\":3443:3448  polls */\n      dup1\n        /* \"blockchain/practice/vote-app.sol\":3449:3456  _pollId */\n      dup8\n        /* \"blockchain/practice/vote-app.sol\":3443:3457  polls[_pollId] */\n      dup2\n      sload\n      dup2\n      lt\n      tag_61\n      jumpi\n      tag_62\n      tag_52\n      jump\t// in\n    tag_62:\n    tag_61:\n      swap1\n      0x00\n      mstore\n      keccak256(0x00, 0x20)\n      swap1\n      0x05\n      mul\n      add\n        /* \"blockchain/practice/vote-app.sol\":3423:3457  Poll storage poll = polls[_pollId] */\n      swap1\n      pop\n        /* \"blockchain/practice/vote-app.sol\":3479:3483  poll */\n      dup1\n        /* \"blockchain/practice/vote-app.sol\":3479:3492  poll.question */\n      0x00\n      add\n        /* \"blockchain/practice/vote-app.sol\":3468:3492  question = poll.question */\n      dup1\n      sload\n      tag_64\n      swap1\n      tag_65\n      jump\t// in\n    tag_64:\n      dup1\n      0x1f\n      add\n      0x20\n      dup1\n      swap2\n      div\n      mul\n      0x20\n      add\n      mload(0x40)\n      swap1\n      dup2\n      add\n      0x40\n      mstore\n      dup1\n      swap3\n      swap2\n      swap1\n      dup2\n      dup2\n      mstore\n      0x20\n      add\n      dup3\n      dup1\n      sload\n      tag_66\n      swap1\n      tag_65\n      jump\t// in\n    tag_66:\n      dup1\n      iszero\n      tag_67\n      jumpi\n      dup1\n      0x1f\n      lt\n      tag_68\n      jumpi\n      0x0100\n      dup1\n      dup4\n      sload\n      div\n      mul\n      dup4\n      mstore\n      swap2\n      0x20\n      add\n      swap2\n      jump(tag_67)\n    tag_68:\n      dup3\n      add\n      swap2\n      swap1\n      0x00\n      mstore\n      keccak256(0x00, 0x20)\n      swap1\n    tag_69:\n      dup2\n      sload\n      dup2\n      mstore\n      swap1\n      0x01\n      add\n      swap1\n      0x20\n      add\n      dup1\n      dup4\n      gt\n      tag_69\n      jumpi\n      dup3\n      swap1\n      sub\n      0x1f\n      and\n      dup3\n      add\n      swap2\n    tag_67:\n      pop\n      pop\n      pop\n      pop\n      pop\n      swap6\n      pop\n        /* \"blockchain/practice/vote-app.sol\":3510:3514  poll */\n      dup1\n        /* \"blockchain/practice/vote-app.sol\":3510:3520  poll.owner */\n      0x03\n      add\n      0x00\n      swap1\n      sload\n      swap1\n      0x0100\n      exp\n      swap1\n      div\n      0xffffffffffffffffffffffffffffffffffffffff\n      and\n        /* \"blockchain/practice/vote-app.sol\":3502:3520  owner = poll.owner */\n      swap5\n      pop\n        /* \"blockchain/practice/vote-app.sol\":3541:3545  poll */\n      dup1\n        /* \"blockchain/practice/vote-app.sol\":3541:3554  poll.isActive */\n      0x03\n      add\n      0x14\n      swap1\n      sload\n      swap1\n      0x0100\n      exp\n      swap1\n      div\n      0xff\n      and\n        /* \"blockchain/practice/vote-app.sol\":3530:3554  isActive = poll.isActive */\n      swap4\n      pop\n        /* \"blockchain/practice/vote-app.sol\":3585:3589  poll */\n      dup1\n        /* \"blockchain/practice/vote-app.sol\":3585:3600  poll.candidates */\n      0x01\n      add\n        /* \"blockchain/practice/vote-app.sol\":3585:3607  poll.candidates.length */\n      dup1\n      sload\n      swap1\n      pop\n        /* \"blockchain/practice/vote-app.sol\":3572:3608  new string[](poll.candidates.length) */\n      0xffffffffffffffff\n      dup2\n      gt\n      iszero\n      tag_70\n      jumpi\n      tag_71\n      tag_72\n      jump\t// in\n    tag_71:\n    tag_70:\n      mload(0x40)\n      swap1\n      dup1\n      dup3\n      mstore\n      dup1\n      0x20\n      mul\n      0x20\n      add\n      dup3\n      add\n      0x40\n      mstore\n      dup1\n      iszero\n      tag_73\n      jumpi\n      dup2\n      0x20\n      add\n    tag_74:\n      0x60\n      dup2\n      mstore\n      0x20\n      add\n      swap1\n      0x01\n      swap1\n      sub\n      swap1\n      dup2\n      tag_74\n      jumpi\n      swap1\n      pop\n    tag_73:\n      pop\n        /* \"blockchain/practice/vote-app.sol\":3564:3608  names = new string[](poll.candidates.length) */\n      swap3\n      pop\n        /* \"blockchain/practice/vote-app.sol\":3637:3641  poll */\n      dup1\n        /* \"blockchain/practice/vote-app.sol\":3637:3652  poll.candidates */\n      0x01\n      add\n        /* \"blockchain/practice/vote-app.sol\":3637:3659  poll.candidates.length */\n      dup1\n      sload\n      swap1\n      pop\n        /* \"blockchain/practice/vote-app.sol\":3626:3660  new uint[](poll.candidates.length) */\n      0xffffffffffffffff\n      dup2\n      gt\n      iszero\n      tag_75\n      jumpi\n      tag_76\n      tag_72\n      jump\t// in\n    tag_76:\n    tag_75:\n      mload(0x40)\n      swap1\n      dup1\n      dup3\n      mstore\n      dup1\n      0x20\n      mul\n      0x20\n      add\n      dup3\n      add\n      0x40\n      mstore\n      dup1\n      iszero\n      tag_77\n      jumpi\n      dup2\n      0x20\n      add\n      0x20\n      dup3\n      mul\n      dup1\n      calldatasize\n      dup4\n      calldatacopy\n      dup1\n      dup3\n      add\n      swap2\n      pop\n      pop\n      swap1\n      pop\n    tag_77:\n      pop\n        /* \"blockchain/practice/vote-app.sol\":3618:3660  votes = new uint[](poll.candidates.length) */\n      swap2\n      pop\n        /* \"blockchain/practice/vote-app.sol\":3676:3682  uint i */\n      0x00\n        /* \"blockchain/practice/vote-app.sol\":3671:3830  for (uint i = 0; i < poll.candidates.length; i++) {... */\n    tag_78:\n        /* \"blockchain/practice/vote-app.sol\":3692:3696  poll */\n      dup2\n        /* \"blockchain/practice/vote-app.sol\":3692:3707  poll.candidates */\n      0x01\n      add\n        /* \"blockchain/practice/vote-app.sol\":3692:3714  poll.candidates.length */\n      dup1\n      sload\n      swap1\n      pop\n        /* \"blockchain/practice/vote-app.sol\":3688:3689  i */\n      dup2\n        /* \"blockchain/practice/vote-app.sol\":3688:3714  i < poll.candidates.length */\n      lt\n        /* \"blockchain/practice/vote-app.sol\":3671:3830  for (uint i = 0; i < poll.candidates.length; i++) {... */\n      iszero\n      tag_79\n      jumpi\n        /* \"blockchain/practice/vote-app.sol\":3746:3750  poll */\n      dup2\n        /* \"blockchain/practice/vote-app.sol\":3746:3761  poll.candidates */\n      0x01\n      add\n        /* \"blockchain/practice/vote-app.sol\":3762:3763  i */\n      dup2\n        /* \"blockchain/practice/vote-app.sol\":3746:3764  poll.candidates[i] */\n      dup2\n      sload\n      dup2\n      lt\n      tag_81\n      jumpi\n      tag_82\n      tag_52\n      jump\t// in\n    tag_82:\n    tag_81:\n      swap1\n      0x00\n      mstore\n      keccak256(0x00, 0x20)\n      swap1\n      0x02\n      mul\n      add\n        /* \"blockchain/practice/vote-app.sol\":3746:3769  poll.candidates[i].name */\n      0x00\n      add\n        /* \"blockchain/practice/vote-app.sol\":3735:3769  names[i] = poll.candidates[i].name */\n      dup1\n      sload\n      tag_84\n      swap1\n      tag_65\n      jump\t// in\n    tag_84:\n      dup1\n      0x1f\n      add\n      0x20\n      dup1\n      swap2\n      div\n      mul\n      0x20\n      add\n      mload(0x40)\n      swap1\n      dup2\n      add\n      0x40\n      mstore\n      dup1\n      swap3\n      swap2\n      swap1\n      dup2\n      dup2\n      mstore\n      0x20\n      add\n      dup3\n      dup1\n      sload\n      tag_85\n      swap1\n      tag_65\n      jump\t// in\n    tag_85:\n      dup1\n      iszero\n      tag_86\n      jumpi\n      dup1\n      0x1f\n      lt\n      tag_87\n      jumpi\n      0x0100\n      dup1\n      dup4\n      sload\n      div\n      mul\n      dup4\n      mstore\n      swap2\n      0x20\n      add\n      swap2\n      jump(tag_86)\n    tag_87:\n      dup3\n      add\n      swap2\n      swap1\n      0x00\n      mstore\n      keccak256(0x00, 0x20)\n      swap1\n    tag_88:\n      dup2\n      sload\n      dup2\n      mstore\n      swap1\n      0x01\n      add\n      swap1\n      0x20\n      add\n      dup1\n      dup4\n      gt\n      tag_88\n      jumpi\n      dup3\n      swap1\n      sub\n      0x1f\n      and\n      dup3\n      add\n      swap2\n    tag_86:\n      pop\n      pop\n      pop\n      pop\n      pop\n        /* \"blockchain/practice/vote-app.sol\":3735:3740  names */\n      dup5\n        /* \"blockchain/practice/vote-app.sol\":3741:3742  i */\n      dup3\n        /* \"blockchain/practice/vote-app.sol\":3735:3743  names[i] */\n      dup2\n      mload\n      dup2\n      lt\n      tag_89\n      jumpi\n      tag_90\n      tag_52\n      jump\t// in\n    tag_90:\n    tag_89:\n      0x20\n      mul\n      0x20\n      add\n      add\n        /* \"blockchain/practice/vote-app.sol\":3735:3769  names[i] = poll.candidates[i].name */\n      dup2\n      swap1\n      mstore\n      pop\n        /* \"blockchain/practice/vote-app.sol\":3794:3798  poll */\n      dup2\n        /* \"blockchain/practice/vote-app.sol\":3794:3809  poll.candidates */\n      0x01\n      add\n        /* \"blockchain/practice/vote-app.sol\":3810:3811  i */\n      dup2\n        /* \"blockchain/practice/vote-app.sol\":3794:3812  poll.candidates[i] */\n      dup2\n      sload\n      dup2\n      lt\n      tag_91\n      jumpi\n      tag_92\n      tag_52\n      jump\t// in\n    tag_92:\n    tag_91:\n      swap1\n      0x00\n      mstore\n      keccak256(0x00, 0x20)\n      swap1\n      0x02\n      mul\n      add\n        /* \"blockchain/practice/vote-app.sol\":3794:3819  poll.candidates[i].upVote */\n      0x01\n      add\n      sload\n        /* \"blockchain/practice/vote-app.sol\":3783:3788  votes */\n      dup4\n        /* \"blockchain/practice/vote-app.sol\":3789:3790  i */\n      dup3\n        /* \"blockchain/practice/vote-app.sol\":3783:3791  votes[i] */\n      dup2\n      mload\n      dup2\n      lt\n      tag_94\n      jumpi\n      tag_95\n      tag_52\n      jump\t// in\n    tag_95:\n    tag_94:\n      0x20\n      mul\n      0x20\n      add\n      add\n        /* \"blockchain/practice/vote-app.sol\":3783:3819  votes[i] = poll.candidates[i].upVote */\n      dup2\n      dup2\n      mstore\n      pop\n      pop\n        /* \"blockchain/practice/vote-app.sol\":3716:3719  i++ */\n      dup1\n      dup1\n      0x01\n      add\n      swap2\n      pop\n      pop\n        /* \"blockchain/practice/vote-app.sol\":3671:3830  for (uint i = 0; i < poll.candidates.length; i++) {... */\n      jump(tag_78)\n    tag_79:\n      pop\n        /* \"blockchain/practice/vote-app.sol\":3840:3884  return (question,owner,isActive,names,votes) */\n      pop\n        /* \"blockchain/practice/vote-app.sol\":3256:3891  function getPollResults(uint _pollId) public view returns (string memory question, address owner, bool isActive, string[] memory names, uint[] memory votes) {... */\n      swap2\n      swap4\n      swap6\n      swap1\n      swap3\n      swap5\n      pop\n      jump\t// out\n        /* \"blockchain/practice/vote-app.sol\":653:931  function createPoll(string memory _question) public {... */\n    tag_29:\n        /* \"blockchain/practice/vote-app.sol\":715:735  Poll storage newPoll */\n      0x00\n        /* \"blockchain/practice/vote-app.sol\":738:743  polls */\n      dup1\n        /* \"blockchain/practice/vote-app.sol\":738:750  polls.push() */\n      0x01\n      dup2\n      0x01\n      dup2\n      sload\n      add\n      dup1\n      dup3\n      sstore\n      dup1\n      swap2\n      pop\n      pop\n      sub\n      swap1\n      0x00\n      mstore\n      keccak256(0x00, 0x20)\n      swap1\n      0x05\n      mul\n      add\n        /* \"blockchain/practice/vote-app.sol\":715:750  Poll storage newPoll = polls.push() */\n      swap1\n      pop\n        /* \"blockchain/practice/vote-app.sol\":779:788  _question */\n      dup2\n        /* \"blockchain/practice/vote-app.sol\":760:767  newPoll */\n      dup2\n        /* \"blockchain/practice/vote-app.sol\":760:776  newPoll.question */\n      0x00\n      add\n        /* \"blockchain/practice/vote-app.sol\":760:788  newPoll.question = _question */\n      swap1\n      dup2\n      tag_98\n      swap2\n      swap1\n      tag_59\n      jump\t// in\n    tag_98:\n      pop\n        /* \"blockchain/practice/vote-app.sol\":814:824  msg.sender */\n      caller\n        /* \"blockchain/practice/vote-app.sol\":798:805  newPoll */\n      dup2\n        /* \"blockchain/practice/vote-app.sol\":798:811  newPoll.owner */\n      0x03\n      add\n      0x00\n        /* \"blockchain/practice/vote-app.sol\":798:824  newPoll.owner = msg.sender */\n      0x0100\n      exp\n      dup2\n      sload\n      dup2\n      0xffffffffffffffffffffffffffffffffffffffff\n      mul\n      not\n      and\n      swap1\n      dup4\n      0xffffffffffffffffffffffffffffffffffffffff\n      and\n      mul\n      or\n      swap1\n      sstore\n      pop\n        /* \"blockchain/practice/vote-app.sol\":853:857  true */\n      0x01\n        /* \"blockchain/practice/vote-app.sol\":834:841  newPoll */\n      dup2\n        /* \"blockchain/practice/vote-app.sol\":834:850  newPoll.isActive */\n      0x03\n      add\n      0x14\n        /* \"blockchain/practice/vote-app.sol\":834:857  newPoll.isActive = true */\n      0x0100\n      exp\n      dup2\n      sload\n      dup2\n      0xff\n      mul\n      not\n      and\n      swap1\n      dup4\n      iszero\n      iszero\n      mul\n      or\n      swap1\n      sstore\n      pop\n        /* \"blockchain/practice/vote-app.sol\":873:924  CreatePoll(polls.length - 1, _question, msg.sender) */\n      0xdcf7bcca1f330627a2b8cf6826aa79cefcda862ee183dabacd90516b6cd18443\n        /* \"blockchain/practice/vote-app.sol\":899:900  1 */\n      0x01\n        /* \"blockchain/practice/vote-app.sol\":884:889  polls */\n      0x00\n        /* \"blockchain/practice/vote-app.sol\":884:896  polls.length */\n      dup1\n      sload\n      swap1\n      pop\n        /* \"blockchain/practice/vote-app.sol\":884:900  polls.length - 1 */\n      tag_99\n      swap2\n      swap1\n      tag_100\n      jump\t// in\n    tag_99:\n        /* \"blockchain/practice/vote-app.sol\":902:911  _question */\n      dup4\n        /* \"blockchain/practice/vote-app.sol\":913:923  msg.sender */\n      caller\n        /* \"blockchain/practice/vote-app.sol\":873:924  CreatePoll(polls.length - 1, _question, msg.sender) */\n      mload(0x40)\n      tag_101\n      swap4\n      swap3\n      swap2\n      swap1\n      tag_102\n      jump\t// in\n    tag_101:\n      mload(0x40)\n      dup1\n      swap2\n      sub\n      swap1\n      log1\n        /* \"blockchain/practice/vote-app.sol\":705:931  {... */\n      pop\n        /* \"blockchain/practice/vote-app.sol\":653:931  function createPoll(string memory _question) public {... */\n      pop\n      jump\t// out\n        /* \"blockchain/practice/vote-app.sol\":3932:4130  function getHasVoted(uint _pollId) public view returns (bool) {... */\n    tag_32:\n        /* \"blockchain/practice/vote-app.sol\":3988:3992  bool */\n      0x00\n        /* \"blockchain/practice/vote-app.sol\":4004:4021  Poll storage poll */\n      dup1\n        /* \"blockchain/practice/vote-app.sol\":4024:4029  polls */\n      0x00\n        /* \"blockchain/practice/vote-app.sol\":4030:4037  _pollId */\n      dup4\n        /* \"blockchain/practice/vote-app.sol\":4024:4038  polls[_pollId] */\n      dup2\n      sload\n      dup2\n      lt\n      tag_104\n      jumpi\n      tag_105\n      tag_52\n      jump\t// in\n    tag_105:\n    tag_104:\n      swap1\n      0x00\n      mstore\n      keccak256(0x00, 0x20)\n      swap1\n      0x05\n      mul\n      add\n        /* \"blockchain/practice/vote-app.sol\":4004:4038  Poll storage poll = polls[_pollId] */\n      swap1\n      pop\n        /* \"blockchain/practice/vote-app.sol\":4055:4059  poll */\n      dup1\n        /* \"blockchain/practice/vote-app.sol\":4055:4066  poll.voters */\n      0x02\n      add\n        /* \"blockchain/practice/vote-app.sol\":4055:4078  poll.voters[msg.sender] */\n      0x00\n        /* \"blockchain/practice/vote-app.sol\":4067:4077  msg.sender */\n      caller\n        /* \"blockchain/practice/vote-app.sol\":4055:4078  poll.voters[msg.sender] */\n      0xffffffffffffffffffffffffffffffffffffffff\n      and\n      0xffffffffffffffffffffffffffffffffffffffff\n      and\n      dup2\n      mstore\n      0x20\n      add\n      swap1\n      dup2\n      mstore\n      0x20\n      add\n      0x00\n      keccak256\n        /* \"blockchain/practice/vote-app.sol\":4055:4086  poll.voters[msg.sender].isVoted */\n      0x00\n      add\n      0x00\n      swap1\n      sload\n      swap1\n      0x0100\n      exp\n      swap1\n      div\n      0xff\n      and\n        /* \"blockchain/practice/vote-app.sol\":4048:4086  return poll.voters[msg.sender].isVoted */\n      swap2\n      pop\n      pop\n        /* \"blockchain/practice/vote-app.sol\":3932:4130  function getHasVoted(uint _pollId) public view returns (bool) {... */\n      swap2\n      swap1\n      pop\n      jump\t// out\n        /* \"blockchain/practice/vote-app.sol\":1831:3218  function getAllPoll() public view returns (... */\n    tag_36:\n        /* \"blockchain/practice/vote-app.sol\":1883:1908  string[] memory questions */\n      0x60\n        /* \"blockchain/practice/vote-app.sol\":1919:1942  address[] memory owners */\n      dup1\n        /* \"blockchain/practice/vote-app.sol\":1953:1975  bool[] memory isActive */\n      0x60\n        /* \"blockchain/practice/vote-app.sol\":1986:2017  Candidate[][] memory candidates */\n      dup1\n        /* \"blockchain/practice/vote-app.sol\":2027:2054  bool[][] memory voterStatus */\n      0x60\n        /* \"blockchain/practice/vote-app.sol\":2091:2108  uint256 pollCount */\n      0x00\n        /* \"blockchain/practice/vote-app.sol\":2111:2116  polls */\n      dup1\n        /* \"blockchain/practice/vote-app.sol\":2111:2123  polls.length */\n      dup1\n      sload\n      swap1\n      pop\n        /* \"blockchain/practice/vote-app.sol\":2091:2123  uint256 pollCount = polls.length */\n      swap1\n      pop\n        /* \"blockchain/practice/vote-app.sol\":2158:2167  pollCount */\n      dup1\n        /* \"blockchain/practice/vote-app.sol\":2145:2168  new string[](pollCount) */\n      0xffffffffffffffff\n      dup2\n      gt\n      iszero\n      tag_108\n      jumpi\n      tag_109\n      tag_72\n      jump\t// in\n    tag_109:\n    tag_108:\n      mload(0x40)\n      swap1\n      dup1\n      dup3\n      mstore\n      dup1\n      0x20\n      mul\n      0x20\n      add\n      dup3\n      add\n      0x40\n      mstore\n      dup1\n      iszero\n      tag_110\n      jumpi\n      dup2\n      0x20\n      add\n    tag_111:\n      0x60\n      dup2\n      mstore\n      0x20\n      add\n      swap1\n      0x01\n      swap1\n      sub\n      swap1\n      dup2\n      tag_111\n      jumpi\n      swap1\n      pop\n    tag_110:\n      pop\n        /* \"blockchain/practice/vote-app.sol\":2133:2168  questions = new string[](pollCount) */\n      swap6\n      pop\n        /* \"blockchain/practice/vote-app.sol\":2201:2210  pollCount */\n      dup1\n        /* \"blockchain/practice/vote-app.sol\":2187:2211  new address[](pollCount) */\n      0xffffffffffffffff\n      dup2\n      gt\n      iszero\n      tag_112\n      jumpi\n      tag_113\n      tag_72\n      jump\t// in\n    tag_113:\n    tag_112:\n      mload(0x40)\n      swap1\n      dup1\n      dup3\n      mstore\n      dup1\n      0x20\n      mul\n      0x20\n      add\n      dup3\n      add\n      0x40\n      mstore\n      dup1\n      iszero\n      tag_114\n      jumpi\n      dup2\n      0x20\n      add\n      0x20\n      dup3\n      mul\n      dup1\n      calldatasize\n      dup4\n      calldatacopy\n      dup1\n      dup3\n      add\n      swap2\n      pop\n      pop\n      swap1\n      pop\n    tag_114:\n      pop\n        /* \"blockchain/practice/vote-app.sol\":2178:2211  owners = new address[](pollCount) */\n      swap5\n      pop\n        /* \"blockchain/practice/vote-app.sol\":2243:2252  pollCount */\n      dup1\n        /* \"blockchain/practice/vote-app.sol\":2232:2253  new bool[](pollCount) */\n      0xffffffffffffffff\n      dup2\n      gt\n      iszero\n      tag_115\n      jumpi\n      tag_116\n      tag_72\n      jump\t// in\n    tag_116:\n    tag_115:\n      mload(0x40)\n      swap1\n      dup1\n      dup3\n      mstore\n      dup1\n      0x20\n      mul\n      0x20\n      add\n      dup3\n      add\n      0x40\n      mstore\n      dup1\n      iszero\n      tag_117\n      jumpi\n      dup2\n      0x20\n      add\n      0x20\n      dup3\n      mul\n      dup1\n      calldatasize\n      dup4\n      calldatacopy\n      dup1\n      dup3\n      add\n      swap2\n      pop\n      pop\n      swap1\n      pop\n    tag_117:\n      pop\n        /* \"blockchain/practice/vote-app.sol\":2221:2253  isActive = new bool[](pollCount) */\n      swap4\n      pop\n        /* \"blockchain/practice/vote-app.sol\":2294:2303  pollCount */\n      dup1\n        /* \"blockchain/practice/vote-app.sol\":2276:2304  new Candidate[][](pollCount) */\n      0xffffffffffffffff\n      dup2\n      gt\n      iszero\n      tag_118\n      jumpi\n      tag_119\n      tag_72\n      jump\t// in\n    tag_119:\n    tag_118:\n      mload(0x40)\n      swap1\n      dup1\n      dup3\n      mstore\n      dup1\n      0x20\n      mul\n      0x20\n      add\n      dup3\n      add\n      0x40\n      mstore\n      dup1\n      iszero\n      tag_120\n      jumpi\n      dup2\n      0x20\n      add\n    tag_121:\n      0x60\n      dup2\n      mstore\n      0x20\n      add\n      swap1\n      0x01\n      swap1\n      sub\n      swap1\n      dup2\n      tag_121\n      jumpi\n      swap1\n      pop\n    tag_120:\n      pop\n        /* \"blockchain/practice/vote-app.sol\":2263:2304  candidates = new Candidate[][](pollCount) */\n      swap3\n      pop\n        /* \"blockchain/practice/vote-app.sol\":2341:2350  pollCount */\n      dup1\n        /* \"blockchain/practice/vote-app.sol\":2328:2351  new bool[][](pollCount) */\n      0xffffffffffffffff\n      dup2\n      gt\n      iszero\n      tag_122\n      jumpi\n      tag_123\n      tag_72\n      jump\t// in\n    tag_123:\n    tag_122:\n      mload(0x40)\n      swap1\n      dup1\n      dup3\n      mstore\n      dup1\n      0x20\n      mul\n      0x20\n      add\n      dup3\n      add\n      0x40\n      mstore\n      dup1\n      iszero\n      tag_124\n      jumpi\n      dup2\n      0x20\n      add\n    tag_125:\n      0x60\n      dup2\n      mstore\n      0x20\n      add\n      swap1\n      0x01\n      swap1\n      sub\n      swap1\n      dup2\n      tag_125\n      jumpi\n      swap1\n      pop\n    tag_124:\n      pop\n        /* \"blockchain/practice/vote-app.sol\":2314:2351  voterStatus = new bool[][](pollCount) */\n      swap2\n      pop\n        /* \"blockchain/practice/vote-app.sol\":2418:2427  uint256 i */\n      0x00\n        /* \"blockchain/practice/vote-app.sol\":2413:3139  for (uint256 i = 0; i < pollCount; i++) {... */\n    tag_126:\n        /* \"blockchain/practice/vote-app.sol\":2437:2446  pollCount */\n      dup2\n        /* \"blockchain/practice/vote-app.sol\":2433:2434  i */\n      dup2\n        /* \"blockchain/practice/vote-app.sol\":2433:2446  i < pollCount */\n      lt\n        /* \"blockchain/practice/vote-app.sol\":2413:3139  for (uint256 i = 0; i < pollCount; i++) {... */\n      iszero\n      tag_127\n      jumpi\n        /* \"blockchain/practice/vote-app.sol\":2482:2487  polls */\n      0x00\n        /* \"blockchain/practice/vote-app.sol\":2488:2489  i */\n      dup2\n        /* \"blockchain/practice/vote-app.sol\":2482:2490  polls[i] */\n      dup2\n      sload\n      dup2\n      lt\n      tag_129\n      jumpi\n      tag_130\n      tag_52\n      jump\t// in\n    tag_130:\n    tag_129:\n      swap1\n      0x00\n      mstore\n      keccak256(0x00, 0x20)\n      swap1\n      0x05\n      mul\n      add\n        /* \"blockchain/practice/vote-app.sol\":2482:2499  polls[i].question */\n      0x00\n      add\n        /* \"blockchain/practice/vote-app.sol\":2467:2499  questions[i] = polls[i].question */\n      dup1\n      sload\n      tag_132\n      swap1\n      tag_65\n      jump\t// in\n    tag_132:\n      dup1\n      0x1f\n      add\n      0x20\n      dup1\n      swap2\n      div\n      mul\n      0x20\n      add\n      mload(0x40)\n      swap1\n      dup2\n      add\n      0x40\n      mstore\n      dup1\n      swap3\n      swap2\n      swap1\n      dup2\n      dup2\n      mstore\n      0x20\n      add\n      dup3\n      dup1\n      sload\n      tag_133\n      swap1\n      tag_65\n      jump\t// in\n    tag_133:\n      dup1\n      iszero\n      tag_134\n      jumpi\n      dup1\n      0x1f\n      lt\n      tag_135\n      jumpi\n      0x0100\n      dup1\n      dup4\n      sload\n      div\n      mul\n      dup4\n      mstore\n      swap2\n      0x20\n      add\n      swap2\n      jump(tag_134)\n    tag_135:\n      dup3\n      add\n      swap2\n      swap1\n      0x00\n      mstore\n      keccak256(0x00, 0x20)\n      swap1\n    tag_136:\n      dup2\n      sload\n      dup2\n      mstore\n      swap1\n      0x01\n      add\n      swap1\n      0x20\n      add\n      dup1\n      dup4\n      gt\n      tag_136\n      jumpi\n      dup3\n      swap1\n      sub\n      0x1f\n      and\n      dup3\n      add\n      swap2\n    tag_134:\n      pop\n      pop\n      pop\n      pop\n      pop\n        /* \"blockchain/practice/vote-app.sol\":2467:2476  questions */\n      dup8\n        /* \"blockchain/practice/vote-app.sol\":2477:2478  i */\n      dup3\n        /* \"blockchain/practice/vote-app.sol\":2467:2479  questions[i] */\n      dup2\n      mload\n      dup2\n      lt\n      tag_137\n      jumpi\n      tag_138\n      tag_52\n      jump\t// in\n    tag_138:\n    tag_137:\n      0x20\n      mul\n      0x20\n      add\n      add\n        /* \"blockchain/practice/vote-app.sol\":2467:2499  questions[i] = polls[i].question */\n      dup2\n      swap1\n      mstore\n      pop\n        /* \"blockchain/practice/vote-app.sol\":2526:2531  polls */\n      0x00\n        /* \"blockchain/practice/vote-app.sol\":2532:2533  i */\n      dup2\n        /* \"blockchain/practice/vote-app.sol\":2526:2534  polls[i] */\n      dup2\n      sload\n      dup2\n      lt\n      tag_139\n      jumpi\n      tag_140\n      tag_52\n      jump\t// in\n    tag_140:\n    tag_139:\n      swap1\n      0x00\n      mstore\n      keccak256(0x00, 0x20)\n      swap1\n      0x05\n      mul\n      add\n        /* \"blockchain/practice/vote-app.sol\":2526:2540  polls[i].owner */\n      0x03\n      add\n      0x00\n      swap1\n      sload\n      swap1\n      0x0100\n      exp\n      swap1\n      div\n      0xffffffffffffffffffffffffffffffffffffffff\n      and\n        /* \"blockchain/practice/vote-app.sol\":2514:2520  owners */\n      dup7\n        /* \"blockchain/practice/vote-app.sol\":2521:2522  i */\n      dup3\n        /* \"blockchain/practice/vote-app.sol\":2514:2523  owners[i] */\n      dup2\n      mload\n      dup2\n      lt\n      tag_142\n      jumpi\n      tag_143\n      tag_52\n      jump\t// in\n    tag_143:\n    tag_142:\n      0x20\n      mul\n      0x20\n      add\n      add\n        /* \"blockchain/practice/vote-app.sol\":2514:2540  owners[i] = polls[i].owner */\n      swap1\n      0xffffffffffffffffffffffffffffffffffffffff\n      and\n      swap1\n      dup2\n      0xffffffffffffffffffffffffffffffffffffffff\n      and\n      dup2\n      mstore\n      pop\n      pop\n        /* \"blockchain/practice/vote-app.sol\":2569:2574  polls */\n      0x00\n        /* \"blockchain/practice/vote-app.sol\":2575:2576  i */\n      dup2\n        /* \"blockchain/practice/vote-app.sol\":2569:2577  polls[i] */\n      dup2\n      sload\n      dup2\n      lt\n      tag_144\n      jumpi\n      tag_145\n      tag_52\n      jump\t// in\n    tag_145:\n    tag_144:\n      swap1\n      0x00\n      mstore\n      keccak256(0x00, 0x20)\n      swap1\n      0x05\n      mul\n      add\n        /* \"blockchain/practice/vote-app.sol\":2569:2586  polls[i].isActive */\n      0x03\n      add\n      0x14\n      swap1\n      sload\n      swap1\n      0x0100\n      exp\n      swap1\n      div\n      0xff\n      and\n        /* \"blockchain/practice/vote-app.sol\":2555:2563  isActive */\n      dup6\n        /* \"blockchain/practice/vote-app.sol\":2564:2565  i */\n      dup3\n        /* \"blockchain/practice/vote-app.sol\":2555:2566  isActive[i] */\n      dup2\n      mload\n      dup2\n      lt\n      tag_147\n      jumpi\n      tag_148\n      tag_52\n      jump\t// in\n    tag_148:\n    tag_147:\n      0x20\n      mul\n      0x20\n      add\n      add\n        /* \"blockchain/practice/vote-app.sol\":2555:2586  isActive[i] = polls[i].isActive */\n      swap1\n      iszero\n      iszero\n      swap1\n      dup2\n      iszero\n      iszero\n      dup2\n      mstore\n      pop\n      pop\n        /* \"blockchain/practice/vote-app.sol\":2616:2621  polls */\n      0x00\n        /* \"blockchain/practice/vote-app.sol\":2622:2623  i */\n      dup2\n        /* \"blockchain/practice/vote-app.sol\":2616:2624  polls[i] */\n      dup2\n      sload\n      dup2\n      lt\n      tag_149\n      jumpi\n      tag_150\n      tag_52\n      jump\t// in\n    tag_150:\n    tag_149:\n      swap1\n      0x00\n      mstore\n      keccak256(0x00, 0x20)\n      swap1\n      0x05\n      mul\n      add\n        /* \"blockchain/practice/vote-app.sol\":2616:2635  polls[i].candidates */\n      0x01\n      add\n        /* \"blockchain/practice/vote-app.sol\":2600:2635  candidates[i] = polls[i].candidates */\n      dup1\n      sload\n      dup1\n      0x20\n      mul\n      0x20\n      add\n      mload(0x40)\n      swap1\n      dup2\n      add\n      0x40\n      mstore\n      dup1\n      swap3\n      swap2\n      swap1\n      dup2\n      dup2\n      mstore\n      0x20\n      add\n      0x00\n      swap1\n    tag_152:\n      dup3\n      dup3\n      lt\n      iszero\n      tag_153\n      jumpi\n      dup4\n      dup3\n      swap1\n      0x00\n      mstore\n      keccak256(0x00, 0x20)\n      swap1\n      0x02\n      mul\n      add\n      mload(0x40)\n      dup1\n      0x40\n      add\n      0x40\n      mstore\n      swap1\n      dup2\n      0x00\n      dup3\n      add\n      dup1\n      sload\n      tag_155\n      swap1\n      tag_65\n      jump\t// in\n    tag_155:\n      dup1\n      0x1f\n      add\n      0x20\n      dup1\n      swap2\n      div\n      mul\n      0x20\n      add\n      mload(0x40)\n      swap1\n      dup2\n      add\n      0x40\n      mstore\n      dup1\n      swap3\n      swap2\n      swap1\n      dup2\n      dup2\n      mstore\n      0x20\n      add\n      dup3\n      dup1\n      sload\n      tag_156\n      swap1\n      tag_65\n      jump\t// in\n    tag_156:\n      dup1\n      iszero\n      tag_157\n      jumpi\n      dup1\n      0x1f\n      lt\n      tag_158\n      jumpi\n      0x0100\n      dup1\n      dup4\n      sload\n      div\n      mul\n      dup4\n      mstore\n      swap2\n      0x20\n      add\n      swap2\n      jump(tag_157)\n    tag_158:\n      dup3\n      add\n      swap2\n      swap1\n      0x00\n      mstore\n      keccak256(0x00, 0x20)\n      swap1\n    tag_159:\n      dup2\n      sload\n      dup2\n      mstore\n      swap1\n      0x01\n      add\n      swap1\n      0x20\n      add\n      dup1\n      dup4\n      gt\n      tag_159\n      jumpi\n      dup3\n      swap1\n      sub\n      0x1f\n      and\n      dup3\n      add\n      swap2\n    tag_157:\n      pop\n      pop\n      pop\n      pop\n      pop\n      dup2\n      mstore\n      0x20\n      add\n      0x01\n      dup3\n      add\n      sload\n      dup2\n      mstore\n      pop\n      pop\n      dup2\n      mstore\n      0x20\n      add\n      swap1\n      0x01\n      add\n      swap1\n      jump(tag_152)\n    tag_153:\n      pop\n      pop\n      pop\n      pop\n        /* \"blockchain/practice/vote-app.sol\":2600:2610  candidates */\n      dup5\n        /* \"blockchain/practice/vote-app.sol\":2611:2612  i */\n      dup3\n        /* \"blockchain/practice/vote-app.sol\":2600:2613  candidates[i] */\n      dup2\n      mload\n      dup2\n      lt\n      tag_160\n      jumpi\n      tag_161\n      tag_52\n      jump\t// in\n    tag_161:\n    tag_160:\n      0x20\n      mul\n      0x20\n      add\n      add\n        /* \"blockchain/practice/vote-app.sol\":2600:2635  candidates[i] = polls[i].candidates */\n      dup2\n      swap1\n      mstore\n      pop\n        /* \"blockchain/practice/vote-app.sol\":2719:2737  uint256 voterCount */\n      0x00\n        /* \"blockchain/practice/vote-app.sol\":2740:2745  polls */\n      dup1\n        /* \"blockchain/practice/vote-app.sol\":2746:2747  i */\n      dup3\n        /* \"blockchain/practice/vote-app.sol\":2740:2748  polls[i] */\n      dup2\n      sload\n      dup2\n      lt\n      tag_162\n      jumpi\n      tag_163\n      tag_52\n      jump\t// in\n    tag_163:\n    tag_162:\n      swap1\n      0x00\n      mstore\n      keccak256(0x00, 0x20)\n      swap1\n      0x05\n      mul\n      add\n        /* \"blockchain/practice/vote-app.sol\":2740:2763  polls[i].voterAddresses */\n      0x04\n      add\n        /* \"blockchain/practice/vote-app.sol\":2740:2770  polls[i].voterAddresses.length */\n      dup1\n      sload\n      swap1\n      pop\n        /* \"blockchain/practice/vote-app.sol\":2719:2770  uint256 voterCount = polls[i].voterAddresses.length */\n      swap1\n      pop\n        /* \"blockchain/practice/vote-app.sol\":2812:2822  voterCount */\n      dup1\n        /* \"blockchain/practice/vote-app.sol\":2801:2823  new bool[](voterCount) */\n      0xffffffffffffffff\n      dup2\n      gt\n      iszero\n      tag_165\n      jumpi\n      tag_166\n      tag_72\n      jump\t// in\n    tag_166:\n    tag_165:\n      mload(0x40)\n      swap1\n      dup1\n      dup3\n      mstore\n      dup1\n      0x20\n      mul\n      0x20\n      add\n      dup3\n      add\n      0x40\n      mstore\n      dup1\n      iszero\n      tag_167\n      jumpi\n      dup2\n      0x20\n      add\n      0x20\n      dup3\n      mul\n      dup1\n      calldatasize\n      dup4\n      calldatacopy\n      dup1\n      dup3\n      add\n      swap2\n      pop\n      pop\n      swap1\n      pop\n    tag_167:\n      pop\n        /* \"blockchain/practice/vote-app.sol\":2784:2795  voterStatus */\n      dup5\n        /* \"blockchain/practice/vote-app.sol\":2796:2797  i */\n      dup4\n        /* \"blockchain/practice/vote-app.sol\":2784:2798  voterStatus[i] */\n      dup2\n      mload\n      dup2\n      lt\n      tag_168\n      jumpi\n      tag_169\n      tag_52\n      jump\t// in\n    tag_169:\n    tag_168:\n      0x20\n      mul\n      0x20\n      add\n      add\n        /* \"blockchain/practice/vote-app.sol\":2784:2823  voterStatus[i] = new bool[](voterCount) */\n      dup2\n      swap1\n      mstore\n      pop\n        /* \"blockchain/practice/vote-app.sol\":2901:2910  uint256 j */\n      0x00\n        /* \"blockchain/practice/vote-app.sol\":2896:3129  for (uint256 j = 0; j < voterCount; j++) {... */\n    tag_170:\n        /* \"blockchain/practice/vote-app.sol\":2920:2930  voterCount */\n      dup2\n        /* \"blockchain/practice/vote-app.sol\":2916:2917  j */\n      dup2\n        /* \"blockchain/practice/vote-app.sol\":2916:2930  j < voterCount */\n      lt\n        /* \"blockchain/practice/vote-app.sol\":2896:3129  for (uint256 j = 0; j < voterCount; j++) {... */\n      iszero\n      tag_171\n      jumpi\n        /* \"blockchain/practice/vote-app.sol\":2955:2972  address voterAddr */\n      0x00\n        /* \"blockchain/practice/vote-app.sol\":2975:2980  polls */\n      dup1\n        /* \"blockchain/practice/vote-app.sol\":2981:2982  i */\n      dup5\n        /* \"blockchain/practice/vote-app.sol\":2975:2983  polls[i] */\n      dup2\n      sload\n      dup2\n      lt\n      tag_173\n      jumpi\n      tag_174\n      tag_52\n      jump\t// in\n    tag_174:\n    tag_173:\n      swap1\n      0x00\n      mstore\n      keccak256(0x00, 0x20)\n      swap1\n      0x05\n      mul\n      add\n        /* \"blockchain/practice/vote-app.sol\":2975:2998  polls[i].voterAddresses */\n      0x04\n      add\n        /* \"blockchain/practice/vote-app.sol\":2999:3000  j */\n      dup3\n        /* \"blockchain/practice/vote-app.sol\":2975:3001  polls[i].voterAddresses[j] */\n      dup2\n      sload\n      dup2\n      lt\n      tag_176\n      jumpi\n      tag_177\n      tag_52\n      jump\t// in\n    tag_177:\n    tag_176:\n      swap1\n      0x00\n      mstore\n      keccak256(0x00, 0x20)\n      add\n      0x00\n      swap1\n      sload\n      swap1\n      0x0100\n      exp\n      swap1\n      div\n      0xffffffffffffffffffffffffffffffffffffffff\n      and\n        /* \"blockchain/practice/vote-app.sol\":2955:3001  address voterAddr = polls[i].voterAddresses[j] */\n      swap1\n      pop\n        /* \"blockchain/practice/vote-app.sol\":3039:3044  polls */\n      0x00\n        /* \"blockchain/practice/vote-app.sol\":3045:3046  i */\n      dup5\n        /* \"blockchain/practice/vote-app.sol\":3039:3047  polls[i] */\n      dup2\n      sload\n      dup2\n      lt\n      tag_179\n      jumpi\n      tag_180\n      tag_52\n      jump\t// in\n    tag_180:\n    tag_179:\n      swap1\n      0x00\n      mstore\n      keccak256(0x00, 0x20)\n      swap1\n      0x05\n      mul\n      add\n        /* \"blockchain/practice/vote-app.sol\":3039:3054  polls[i].voters */\n      0x02\n      add\n        /* \"blockchain/practice/vote-app.sol\":3039:3065  polls[i].voters[voterAddr] */\n      0x00\n        /* \"blockchain/practice/vote-app.sol\":3055:3064  voterAddr */\n      dup3\n        /* \"blockchain/practice/vote-app.sol\":3039:3065  polls[i].voters[voterAddr] */\n      0xffffffffffffffffffffffffffffffffffffffff\n      and\n      0xffffffffffffffffffffffffffffffffffffffff\n      and\n      dup2\n      mstore\n      0x20\n      add\n      swap1\n      dup2\n      mstore\n      0x20\n      add\n      0x00\n      keccak256\n        /* \"blockchain/practice/vote-app.sol\":3039:3073  polls[i].voters[voterAddr].isVoted */\n      0x00\n      add\n      0x00\n      swap1\n      sload\n      swap1\n      0x0100\n      exp\n      swap1\n      div\n      0xff\n      and\n        /* \"blockchain/practice/vote-app.sol\":3019:3030  voterStatus */\n      dup7\n        /* \"blockchain/practice/vote-app.sol\":3031:3032  i */\n      dup6\n        /* \"blockchain/practice/vote-app.sol\":3019:3033  voterStatus[i] */\n      dup2\n      mload\n      dup2\n      lt\n      tag_182\n      jumpi\n      tag_183\n      tag_52\n      jump\t// in\n    tag_183:\n    tag_182:\n      0x20\n      mul\n      0x20\n      add\n      add\n      mload\n        /* \"blockchain/practice/vote-app.sol\":3034:3035  j */\n      dup4\n        /* \"blockchain/practice/vote-app.sol\":3019:3036  voterStatus[i][j] */\n      dup2\n      mload\n      dup2\n      lt\n      tag_184\n      jumpi\n      tag_185\n      tag_52\n      jump\t// in\n    tag_185:\n    tag_184:\n      0x20\n      mul\n      0x20\n      add\n      add\n        /* \"blockchain/practice/vote-app.sol\":3019:3073  voterStatus[i][j] = polls[i].voters[voterAddr].isVoted */\n      swap1\n      iszero\n      iszero\n      swap1\n      dup2\n      iszero\n      iszero\n      dup2\n      mstore\n      pop\n      pop\n        /* \"blockchain/practice/vote-app.sol\":2937:3129  {... */\n      pop\n        /* \"blockchain/practice/vote-app.sol\":2932:2935  j++ */\n      dup1\n      dup1\n      0x01\n      add\n      swap2\n      pop\n      pop\n        /* \"blockchain/practice/vote-app.sol\":2896:3129  for (uint256 j = 0; j < voterCount; j++) {... */\n      jump(tag_170)\n    tag_171:\n      pop\n        /* \"blockchain/practice/vote-app.sol\":2453:3139  {... */\n      pop\n        /* \"blockchain/practice/vote-app.sol\":2448:2451  i++ */\n      dup1\n      dup1\n      0x01\n      add\n      swap2\n      pop\n      pop\n        /* \"blockchain/practice/vote-app.sol\":2413:3139  for (uint256 i = 0; i < pollCount; i++) {... */\n      jump(tag_126)\n    tag_127:\n      pop\n        /* \"blockchain/practice/vote-app.sol\":3149:3210  return (questions, owners, isActive, candidates, voterStatus) */\n      pop\n        /* \"blockchain/practice/vote-app.sol\":1831:3218  function getAllPoll() public view returns (... */\n      swap1\n      swap2\n      swap3\n      swap4\n      swap5\n      jump\t// out\n        /* \"blockchain/practice/vote-app.sol\":508:527  Poll[] public polls */\n    tag_41:\n      0x00\n      dup2\n      dup2\n      sload\n      dup2\n      lt\n      tag_186\n      jumpi\n      0x00\n      dup1\n      revert\n    tag_186:\n      swap1\n      0x00\n      mstore\n      keccak256(0x00, 0x20)\n      swap1\n      0x05\n      mul\n      add\n      0x00\n      swap2\n      pop\n      swap1\n      pop\n      dup1\n      0x00\n      add\n      dup1\n      sload\n      tag_188\n      swap1\n      tag_65\n      jump\t// in\n    tag_188:\n      dup1\n      0x1f\n      add\n      0x20\n      dup1\n      swap2\n      div\n      mul\n      0x20\n      add\n      mload(0x40)\n      swap1\n      dup2\n      add\n      0x40\n      mstore\n      dup1\n      swap3\n      swap2\n      swap1\n      dup2\n      dup2\n      mstore\n      0x20\n      add\n      dup3\n      dup1\n      sload\n      tag_189\n      swap1\n      tag_65\n      jump\t// in\n    tag_189:\n      dup1\n      iszero\n      tag_190\n      jumpi\n      dup1\n      0x1f\n      lt\n      tag_191\n      jumpi\n      0x0100\n      dup1\n      dup4\n      sload\n      div\n      mul\n      dup4\n      mstore\n      swap2\n      0x20\n      add\n      swap2\n      jump(tag_190)\n    tag_191:\n      dup3\n      add\n      swap2\n      swap1\n      0x00\n      mstore\n      keccak256(0x00, 0x20)\n      swap1\n    tag_192:\n      dup2\n      sload\n      dup2\n      mstore\n      swap1\n      0x01\n      add\n      swap1\n      0x20\n      add\n      dup1\n      dup4\n      gt\n      tag_192\n      jumpi\n      dup3\n      swap1\n      sub\n      0x1f\n      and\n      dup3\n      add\n      swap2\n    tag_190:\n      pop\n      pop\n      pop\n      pop\n      pop\n      swap1\n      dup1\n      0x03\n      add\n      0x00\n      swap1\n      sload\n      swap1\n      0x0100\n      exp\n      swap1\n      div\n      0xffffffffffffffffffffffffffffffffffffffff\n      and\n      swap1\n      dup1\n      0x03\n      add\n      0x14\n      swap1\n      sload\n      swap1\n      0x0100\n      exp\n      swap1\n      div\n      0xff\n      and\n      swap1\n      pop\n      dup4\n      jump\t// out\n        /* \"blockchain/practice/vote-app.sol\":1241:1825  function vote(uint _pollId, uint _candidateIndex) public {... */\n    tag_47:\n        /* \"blockchain/practice/vote-app.sol\":1308:1325  Poll storage poll */\n      0x00\n        /* \"blockchain/practice/vote-app.sol\":1328:1333  polls */\n      dup1\n        /* \"blockchain/practice/vote-app.sol\":1334:1341  _pollId */\n      dup4\n        /* \"blockchain/practice/vote-app.sol\":1328:1342  polls[_pollId] */\n      dup2\n      sload\n      dup2\n      lt\n      tag_194\n      jumpi\n      tag_195\n      tag_52\n      jump\t// in\n    tag_195:\n    tag_194:\n      swap1\n      0x00\n      mstore\n      keccak256(0x00, 0x20)\n      swap1\n      0x05\n      mul\n      add\n        /* \"blockchain/practice/vote-app.sol\":1308:1342  Poll storage poll = polls[_pollId] */\n      swap1\n      pop\n        /* \"blockchain/practice/vote-app.sol\":1360:1364  poll */\n      dup1\n        /* \"blockchain/practice/vote-app.sol\":1360:1373  poll.isActive */\n      0x03\n      add\n      0x14\n      swap1\n      sload\n      swap1\n      0x0100\n      exp\n      swap1\n      div\n      0xff\n      and\n        /* \"blockchain/practice/vote-app.sol\":1352:1396  require(poll.isActive, \"Poll is not active\") */\n      tag_197\n      jumpi\n      mload(0x40)\n      0x08c379a000000000000000000000000000000000000000000000000000000000\n      dup2\n      mstore\n      0x04\n      add\n      tag_198\n      swap1\n      tag_199\n      jump\t// in\n    tag_198:\n      mload(0x40)\n      dup1\n      swap2\n      sub\n      swap1\n      revert\n    tag_197:\n        /* \"blockchain/practice/vote-app.sol\":1415:1419  poll */\n      dup1\n        /* \"blockchain/practice/vote-app.sol\":1415:1426  poll.voters */\n      0x02\n      add\n        /* \"blockchain/practice/vote-app.sol\":1415:1438  poll.voters[msg.sender] */\n      0x00\n        /* \"blockchain/practice/vote-app.sol\":1427:1437  msg.sender */\n      caller\n        /* \"blockchain/practice/vote-app.sol\":1415:1438  poll.voters[msg.sender] */\n      0xffffffffffffffffffffffffffffffffffffffff\n      and\n      0xffffffffffffffffffffffffffffffffffffffff\n      and\n      dup2\n      mstore\n      0x20\n      add\n      swap1\n      dup2\n      mstore\n      0x20\n      add\n      0x00\n      keccak256\n        /* \"blockchain/practice/vote-app.sol\":1415:1446  poll.voters[msg.sender].isVoted */\n      0x00\n      add\n      0x00\n      swap1\n      sload\n      swap1\n      0x0100\n      exp\n      swap1\n      div\n      0xff\n      and\n        /* \"blockchain/practice/vote-app.sol\":1414:1446  !poll.voters[msg.sender].isVoted */\n      iszero\n        /* \"blockchain/practice/vote-app.sol\":1406:1473  require(!poll.voters[msg.sender].isVoted, \"You have already voted\") */\n      tag_200\n      jumpi\n      mload(0x40)\n      0x08c379a000000000000000000000000000000000000000000000000000000000\n      dup2\n      mstore\n      0x04\n      add\n      tag_201\n      swap1\n      tag_202\n      jump\t// in\n    tag_201:\n      mload(0x40)\n      dup1\n      swap2\n      sub\n      swap1\n      revert\n    tag_200:\n        /* \"blockchain/practice/vote-app.sol\":1509:1513  poll */\n      dup1\n        /* \"blockchain/practice/vote-app.sol\":1509:1524  poll.candidates */\n      0x01\n      add\n        /* \"blockchain/practice/vote-app.sol\":1509:1531  poll.candidates.length */\n      dup1\n      sload\n      swap1\n      pop\n        /* \"blockchain/practice/vote-app.sol\":1491:1506  _candidateIndex */\n      dup3\n        /* \"blockchain/practice/vote-app.sol\":1491:1531  _candidateIndex < poll.candidates.length */\n      lt\n        /* \"blockchain/practice/vote-app.sol\":1483:1559  require(_candidateIndex < poll.candidates.length, \"Invalid candidate index\") */\n      tag_203\n      jumpi\n      mload(0x40)\n      0x08c379a000000000000000000000000000000000000000000000000000000000\n      dup2\n      mstore\n      0x04\n      add\n      tag_204\n      swap1\n      tag_205\n      jump\t// in\n    tag_204:\n      mload(0x40)\n      dup1\n      swap2\n      sub\n      swap1\n      revert\n    tag_203:\n        /* \"blockchain/practice/vote-app.sol\":1604:1608  true */\n      0x01\n        /* \"blockchain/practice/vote-app.sol\":1570:1574  poll */\n      dup2\n        /* \"blockchain/practice/vote-app.sol\":1570:1581  poll.voters */\n      0x02\n      add\n        /* \"blockchain/practice/vote-app.sol\":1570:1593  poll.voters[msg.sender] */\n      0x00\n        /* \"blockchain/practice/vote-app.sol\":1582:1592  msg.sender */\n      caller\n        /* \"blockchain/practice/vote-app.sol\":1570:1593  poll.voters[msg.sender] */\n      0xffffffffffffffffffffffffffffffffffffffff\n      and\n      0xffffffffffffffffffffffffffffffffffffffff\n      and\n      dup2\n      mstore\n      0x20\n      add\n      swap1\n      dup2\n      mstore\n      0x20\n      add\n      0x00\n      keccak256\n        /* \"blockchain/practice/vote-app.sol\":1570:1601  poll.voters[msg.sender].isVoted */\n      0x00\n      add\n      0x00\n        /* \"blockchain/practice/vote-app.sol\":1570:1608  poll.voters[msg.sender].isVoted = true */\n      0x0100\n      exp\n      dup2\n      sload\n      dup2\n      0xff\n      mul\n      not\n      and\n      swap1\n      dup4\n      iszero\n      iszero\n      mul\n      or\n      swap1\n      sstore\n      pop\n        /* \"blockchain/practice/vote-app.sol\":1642:1646  poll */\n      dup1\n        /* \"blockchain/practice/vote-app.sol\":1642:1657  poll.candidates */\n      0x01\n      add\n        /* \"blockchain/practice/vote-app.sol\":1658:1673  _candidateIndex */\n      dup3\n        /* \"blockchain/practice/vote-app.sol\":1642:1674  poll.candidates[_candidateIndex] */\n      dup2\n      sload\n      dup2\n      lt\n      tag_206\n      jumpi\n      tag_207\n      tag_52\n      jump\t// in\n    tag_207:\n    tag_206:\n      swap1\n      0x00\n      mstore\n      keccak256(0x00, 0x20)\n      swap1\n      0x02\n      mul\n      add\n        /* \"blockchain/practice/vote-app.sol\":1642:1681  poll.candidates[_candidateIndex].upVote */\n      0x01\n      add\n      0x00\n        /* \"blockchain/practice/vote-app.sol\":1642:1683  poll.candidates[_candidateIndex].upVote++ */\n      dup2\n      sload\n      dup1\n      swap3\n      swap2\n      swap1\n      tag_209\n      swap1\n      tag_210\n      jump\t// in\n    tag_209:\n      swap2\n      swap1\n      pop\n      sstore\n      pop\n        /* \"blockchain/practice/vote-app.sol\":1782:1786  poll */\n      dup1\n        /* \"blockchain/practice/vote-app.sol\":1782:1801  poll.voterAddresses */\n      0x04\n      add\n        /* \"blockchain/practice/vote-app.sol\":1807:1817  msg.sender */\n      caller\n        /* \"blockchain/practice/vote-app.sol\":1782:1818  poll.voterAddresses.push(msg.sender) */\n      swap1\n      dup1\n      0x01\n      dup2\n      sload\n      add\n      dup1\n      dup3\n      sstore\n      dup1\n      swap2\n      pop\n      pop\n      0x01\n      swap1\n      sub\n      swap1\n      0x00\n      mstore\n      keccak256(0x00, 0x20)\n      add\n      0x00\n      swap1\n      swap2\n      swap1\n      swap2\n      swap1\n      swap2\n      0x0100\n      exp\n      dup2\n      sload\n      dup2\n      0xffffffffffffffffffffffffffffffffffffffff\n      mul\n      not\n      and\n      swap1\n      dup4\n      0xffffffffffffffffffffffffffffffffffffffff\n      and\n      mul\n      or\n      swap1\n      sstore\n      pop\n        /* \"blockchain/practice/vote-app.sol\":1298:1825  {... */\n      pop\n        /* \"blockchain/practice/vote-app.sol\":1241:1825  function vote(uint _pollId, uint _candidateIndex) public {... */\n      pop\n      pop\n      jump\t// out\n        /* \"#utility.yul\":7:84   */\n    tag_212:\n        /* \"#utility.yul\":44:51   */\n      0x00\n        /* \"#utility.yul\":73:78   */\n      dup2\n        /* \"#utility.yul\":62:78   */\n      swap1\n      pop\n        /* \"#utility.yul\":7:84   */\n      swap2\n      swap1\n      pop\n      jump\t// out\n        /* \"#utility.yul\":90:208   */\n    tag_213:\n        /* \"#utility.yul\":177:201   */\n      tag_315\n        /* \"#utility.yul\":195:200   */\n      dup2\n        /* \"#utility.yul\":177:201   */\n      tag_212\n      jump\t// in\n    tag_315:\n        /* \"#utility.yul\":172:175   */\n      dup3\n        /* \"#utility.yul\":165:202   */\n      mstore\n        /* \"#utility.yul\":90:208   */\n      pop\n      pop\n      jump\t// out\n        /* \"#utility.yul\":214:436   */\n    tag_15:\n        /* \"#utility.yul\":307:311   */\n      0x00\n        /* \"#utility.yul\":345:347   */\n      0x20\n        /* \"#utility.yul\":334:343   */\n      dup3\n        /* \"#utility.yul\":330:348   */\n      add\n        /* \"#utility.yul\":322:348   */\n      swap1\n      pop\n        /* \"#utility.yul\":358:429   */\n      tag_317\n        /* \"#utility.yul\":426:427   */\n      0x00\n        /* \"#utility.yul\":415:424   */\n      dup4\n        /* \"#utility.yul\":411:428   */\n      add\n        /* \"#utility.yul\":402:408   */\n      dup5\n        /* \"#utility.yul\":358:429   */\n      tag_213\n      jump\t// in\n    tag_317:\n        /* \"#utility.yul\":214:436   */\n      swap3\n      swap2\n      pop\n      pop\n      jump\t// out\n        /* \"#utility.yul\":442:517   */\n    tag_214:\n        /* \"#utility.yul\":475:481   */\n      0x00\n        /* \"#utility.yul\":508:510   */\n      0x40\n        /* \"#utility.yul\":502:511   */\n      mload\n        /* \"#utility.yul\":492:511   */\n      swap1\n      pop\n        /* \"#utility.yul\":442:517   */\n      swap1\n      jump\t// out\n        /* \"#utility.yul\":523:640   */\n    tag_215:\n        /* \"#utility.yul\":632:633   */\n      0x00\n        /* \"#utility.yul\":629:630   */\n      dup1\n        /* \"#utility.yul\":622:634   */\n      revert\n        /* \"#utility.yul\":646:763   */\n    tag_216:\n        /* \"#utility.yul\":755:756   */\n      0x00\n        /* \"#utility.yul\":752:753   */\n      dup1\n        /* \"#utility.yul\":745:757   */\n      revert\n        /* \"#utility.yul\":769:891   */\n    tag_217:\n        /* \"#utility.yul\":842:866   */\n      tag_322\n        /* \"#utility.yul\":860:865   */\n      dup2\n        /* \"#utility.yul\":842:866   */\n      tag_212\n      jump\t// in\n    tag_322:\n        /* \"#utility.yul\":835:840   */\n      dup2\n        /* \"#utility.yul\":832:867   */\n      eq\n        /* \"#utility.yul\":822:885   */\n      tag_323\n      jumpi\n        /* \"#utility.yul\":881:882   */\n      0x00\n        /* \"#utility.yul\":878:879   */\n      dup1\n        /* \"#utility.yul\":871:883   */\n      revert\n        /* \"#utility.yul\":822:885   */\n    tag_323:\n        /* \"#utility.yul\":769:891   */\n      pop\n      jump\t// out\n        /* \"#utility.yul\":897:1036   */\n    tag_218:\n        /* \"#utility.yul\":943:948   */\n      0x00\n        /* \"#utility.yul\":981:987   */\n      dup2\n        /* \"#utility.yul\":968:988   */\n      calldataload\n        /* \"#utility.yul\":959:988   */\n      swap1\n      pop\n        /* \"#utility.yul\":997:1030   */\n      tag_325\n        /* \"#utility.yul\":1024:1029   */\n      dup2\n        /* \"#utility.yul\":997:1030   */\n      tag_217\n      jump\t// in\n    tag_325:\n        /* \"#utility.yul\":897:1036   */\n      swap3\n      swap2\n      pop\n      pop\n      jump\t// out\n        /* \"#utility.yul\":1042:1159   */\n    tag_219:\n        /* \"#utility.yul\":1151:1152   */\n      0x00\n        /* \"#utility.yul\":1148:1149   */\n      dup1\n        /* \"#utility.yul\":1141:1153   */\n      revert\n        /* \"#utility.yul\":1165:1282   */\n    tag_220:\n        /* \"#utility.yul\":1274:1275   */\n      0x00\n        /* \"#utility.yul\":1271:1272   */\n      dup1\n        /* \"#utility.yul\":1264:1276   */\n      revert\n        /* \"#utility.yul\":1288:1390   */\n    tag_221:\n        /* \"#utility.yul\":1329:1335   */\n      0x00\n        /* \"#utility.yul\":1380:1382   */\n      0x1f\n        /* \"#utility.yul\":1376:1383   */\n      not\n        /* \"#utility.yul\":1371:1373   */\n      0x1f\n        /* \"#utility.yul\":1364:1369   */\n      dup4\n        /* \"#utility.yul\":1360:1374   */\n      add\n        /* \"#utility.yul\":1356:1384   */\n      and\n        /* \"#utility.yul\":1346:1384   */\n      swap1\n      pop\n        /* \"#utility.yul\":1288:1390   */\n      swap2\n      swap1\n      pop\n      jump\t// out\n        /* \"#utility.yul\":1396:1576   */\n    tag_72:\n        /* \"#utility.yul\":1444:1521   */\n      0x4e487b7100000000000000000000000000000000000000000000000000000000\n        /* \"#utility.yul\":1441:1442   */\n      0x00\n        /* \"#utility.yul\":1434:1522   */\n      mstore\n        /* \"#utility.yul\":1541:1545   */\n      0x41\n        /* \"#utility.yul\":1538:1539   */\n      0x04\n        /* \"#utility.yul\":1531:1546   */\n      mstore\n        /* \"#utility.yul\":1565:1569   */\n      0x24\n        /* \"#utility.yul\":1562:1563   */\n      0x00\n        /* \"#utility.yul\":1555:1570   */\n      revert\n        /* \"#utility.yul\":1582:1863   */\n    tag_222:\n        /* \"#utility.yul\":1665:1692   */\n      tag_331\n        /* \"#utility.yul\":1687:1691   */\n      dup3\n        /* \"#utility.yul\":1665:1692   */\n      tag_221\n      jump\t// in\n    tag_331:\n        /* \"#utility.yul\":1657:1663   */\n      dup2\n        /* \"#utility.yul\":1653:1693   */\n      add\n        /* \"#utility.yul\":1795:1801   */\n      dup2\n        /* \"#utility.yul\":1783:1793   */\n      dup2\n        /* \"#utility.yul\":1780:1802   */\n      lt\n        /* \"#utility.yul\":1759:1777   */\n      0xffffffffffffffff\n        /* \"#utility.yul\":1747:1757   */\n      dup3\n        /* \"#utility.yul\":1744:1778   */\n      gt\n        /* \"#utility.yul\":1741:1803   */\n      or\n        /* \"#utility.yul\":1738:1826   */\n      iszero\n      tag_332\n      jumpi\n        /* \"#utility.yul\":1806:1824   */\n      tag_333\n      tag_72\n      jump\t// in\n    tag_333:\n        /* \"#utility.yul\":1738:1826   */\n    tag_332:\n        /* \"#utility.yul\":1846:1856   */\n      dup1\n        /* \"#utility.yul\":1842:1844   */\n      0x40\n        /* \"#utility.yul\":1835:1857   */\n      mstore\n        /* \"#utility.yul\":1625:1863   */\n      pop\n        /* \"#utility.yul\":1582:1863   */\n      pop\n      pop\n      jump\t// out\n        /* \"#utility.yul\":1869:1998   */\n    tag_223:\n        /* \"#utility.yul\":1903:1909   */\n      0x00\n        /* \"#utility.yul\":1930:1950   */\n      tag_335\n      tag_214\n      jump\t// in\n    tag_335:\n        /* \"#utility.yul\":1920:1950   */\n      swap1\n      pop\n        /* \"#utility.yul\":1959:1992   */\n      tag_336\n        /* \"#utility.yul\":1987:1991   */\n      dup3\n        /* \"#utility.yul\":1979:1985   */\n      dup3\n        /* \"#utility.yul\":1959:1992   */\n      tag_222\n      jump\t// in\n    tag_336:\n        /* \"#utility.yul\":1869:1998   */\n      swap2\n      swap1\n      pop\n      jump\t// out\n        /* \"#utility.yul\":2004:2312   */\n    tag_224:\n        /* \"#utility.yul\":2066:2070   */\n      0x00\n        /* \"#utility.yul\":2156:2174   */\n      0xffffffffffffffff\n        /* \"#utility.yul\":2148:2154   */\n      dup3\n        /* \"#utility.yul\":2145:2175   */\n      gt\n        /* \"#utility.yul\":2142:2198   */\n      iszero\n      tag_338\n      jumpi\n        /* \"#utility.yul\":2178:2196   */\n      tag_339\n      tag_72\n      jump\t// in\n    tag_339:\n        /* \"#utility.yul\":2142:2198   */\n    tag_338:\n        /* \"#utility.yul\":2216:2245   */\n      tag_340\n        /* \"#utility.yul\":2238:2244   */\n      dup3\n        /* \"#utility.yul\":2216:2245   */\n      tag_221\n      jump\t// in\n    tag_340:\n        /* \"#utility.yul\":2208:2245   */\n      swap1\n      pop\n        /* \"#utility.yul\":2300:2304   */\n      0x20\n        /* \"#utility.yul\":2294:2298   */\n      dup2\n        /* \"#utility.yul\":2290:2305   */\n      add\n        /* \"#utility.yul\":2282:2305   */\n      swap1\n      pop\n        /* \"#utility.yul\":2004:2312   */\n      swap2\n      swap1\n      pop\n      jump\t// out\n        /* \"#utility.yul\":2318:2466   */\n    tag_225:\n        /* \"#utility.yul\":2416:2422   */\n      dup3\n        /* \"#utility.yul\":2411:2414   */\n      dup2\n        /* \"#utility.yul\":2406:2409   */\n      dup4\n        /* \"#utility.yul\":2393:2423   */\n      calldatacopy\n        /* \"#utility.yul\":2457:2458   */\n      0x00\n        /* \"#utility.yul\":2448:2454   */\n      dup4\n        /* \"#utility.yul\":2443:2446   */\n      dup4\n        /* \"#utility.yul\":2439:2455   */\n      add\n        /* \"#utility.yul\":2432:2459   */\n      mstore\n        /* \"#utility.yul\":2318:2466   */\n      pop\n      pop\n      pop\n      jump\t// out\n        /* \"#utility.yul\":2472:2897   */\n    tag_226:\n        /* \"#utility.yul\":2550:2555   */\n      0x00\n        /* \"#utility.yul\":2575:2641   */\n      tag_343\n        /* \"#utility.yul\":2591:2640   */\n      tag_344\n        /* \"#utility.yul\":2633:2639   */\n      dup5\n        /* \"#utility.yul\":2591:2640   */\n      tag_224\n      jump\t// in\n    tag_344:\n        /* \"#utility.yul\":2575:2641   */\n      tag_223\n      jump\t// in\n    tag_343:\n        /* \"#utility.yul\":2566:2641   */\n      swap1\n      pop\n        /* \"#utility.yul\":2664:2670   */\n      dup3\n        /* \"#utility.yul\":2657:2662   */\n      dup2\n        /* \"#utility.yul\":2650:2671   */\n      mstore\n        /* \"#utility.yul\":2702:2706   */\n      0x20\n        /* \"#utility.yul\":2695:2700   */\n      dup2\n        /* \"#utility.yul\":2691:2707   */\n      add\n        /* \"#utility.yul\":2740:2743   */\n      dup5\n        /* \"#utility.yul\":2731:2737   */\n      dup5\n        /* \"#utility.yul\":2726:2729   */\n      dup5\n        /* \"#utility.yul\":2722:2738   */\n      add\n        /* \"#utility.yul\":2719:2744   */\n      gt\n        /* \"#utility.yul\":2716:2828   */\n      iszero\n      tag_345\n      jumpi\n        /* \"#utility.yul\":2747:2826   */\n      tag_346\n      tag_220\n      jump\t// in\n    tag_346:\n        /* \"#utility.yul\":2716:2828   */\n    tag_345:\n        /* \"#utility.yul\":2837:2891   */\n      tag_347\n        /* \"#utility.yul\":2884:2890   */\n      dup5\n        /* \"#utility.yul\":2879:2882   */\n      dup3\n        /* \"#utility.yul\":2874:2877   */\n      dup6\n        /* \"#utility.yul\":2837:2891   */\n      tag_225\n      jump\t// in\n    tag_347:\n        /* \"#utility.yul\":2556:2897   */\n      pop\n        /* \"#utility.yul\":2472:2897   */\n      swap4\n      swap3\n      pop\n      pop\n      pop\n      jump\t// out\n        /* \"#utility.yul\":2917:3257   */\n    tag_227:\n        /* \"#utility.yul\":2973:2978   */\n      0x00\n        /* \"#utility.yul\":3022:3025   */\n      dup3\n        /* \"#utility.yul\":3015:3019   */\n      0x1f\n        /* \"#utility.yul\":3007:3013   */\n      dup4\n        /* \"#utility.yul\":3003:3020   */\n      add\n        /* \"#utility.yul\":2999:3026   */\n      slt\n        /* \"#utility.yul\":2989:3111   */\n      tag_349\n      jumpi\n        /* \"#utility.yul\":3030:3109   */\n      tag_350\n      tag_219\n      jump\t// in\n    tag_350:\n        /* \"#utility.yul\":2989:3111   */\n    tag_349:\n        /* \"#utility.yul\":3147:3153   */\n      dup2\n        /* \"#utility.yul\":3134:3154   */\n      calldataload\n        /* \"#utility.yul\":3172:3251   */\n      tag_351\n        /* \"#utility.yul\":3247:3250   */\n      dup5\n        /* \"#utility.yul\":3239:3245   */\n      dup3\n        /* \"#utility.yul\":3232:3236   */\n      0x20\n        /* \"#utility.yul\":3224:3230   */\n      dup7\n        /* \"#utility.yul\":3220:3237   */\n      add\n        /* \"#utility.yul\":3172:3251   */\n      tag_226\n      jump\t// in\n    tag_351:\n        /* \"#utility.yul\":3163:3251   */\n      swap2\n      pop\n        /* \"#utility.yul\":2979:3257   */\n      pop\n        /* \"#utility.yul\":2917:3257   */\n      swap3\n      swap2\n      pop\n      pop\n      jump\t// out\n        /* \"#utility.yul\":3263:3917   */\n    tag_18:\n        /* \"#utility.yul\":3341:3347   */\n      0x00\n        /* \"#utility.yul\":3349:3355   */\n      dup1\n        /* \"#utility.yul\":3398:3400   */\n      0x40\n        /* \"#utility.yul\":3386:3395   */\n      dup4\n        /* \"#utility.yul\":3377:3384   */\n      dup6\n        /* \"#utility.yul\":3373:3396   */\n      sub\n        /* \"#utility.yul\":3369:3401   */\n      slt\n        /* \"#utility.yul\":3366:3485   */\n      iszero\n      tag_353\n      jumpi\n        /* \"#utility.yul\":3404:3483   */\n      tag_354\n      tag_215\n      jump\t// in\n    tag_354:\n        /* \"#utility.yul\":3366:3485   */\n    tag_353:\n        /* \"#utility.yul\":3524:3525   */\n      0x00\n        /* \"#utility.yul\":3549:3602   */\n      tag_355\n        /* \"#utility.yul\":3594:3601   */\n      dup6\n        /* \"#utility.yul\":3585:3591   */\n      dup3\n        /* \"#utility.yul\":3574:3583   */\n      dup7\n        /* \"#utility.yul\":3570:3592   */\n      add\n        /* \"#utility.yul\":3549:3602   */\n      tag_218\n      jump\t// in\n    tag_355:\n        /* \"#utility.yul\":3539:3602   */\n      swap3\n      pop\n        /* \"#utility.yul\":3495:3612   */\n      pop\n        /* \"#utility.yul\":3679:3681   */\n      0x20\n        /* \"#utility.yul\":3668:3677   */\n      dup4\n        /* \"#utility.yul\":3664:3682   */\n      add\n        /* \"#utility.yul\":3651:3683   */\n      calldataload\n        /* \"#utility.yul\":3710:3728   */\n      0xffffffffffffffff\n        /* \"#utility.yul\":3702:3708   */\n      dup2\n        /* \"#utility.yul\":3699:3729   */\n      gt\n        /* \"#utility.yul\":3696:3813   */\n      iszero\n      tag_356\n      jumpi\n        /* \"#utility.yul\":3732:3811   */\n      tag_357\n      tag_216\n      jump\t// in\n    tag_357:\n        /* \"#utility.yul\":3696:3813   */\n    tag_356:\n        /* \"#utility.yul\":3837:3900   */\n      tag_358\n        /* \"#utility.yul\":3892:3899   */\n      dup6\n        /* \"#utility.yul\":3883:3889   */\n      dup3\n        /* \"#utility.yul\":3872:3881   */\n      dup7\n        /* \"#utility.yul\":3868:3890   */\n      add\n        /* \"#utility.yul\":3837:3900   */\n      tag_227\n      jump\t// in\n    tag_358:\n        /* \"#utility.yul\":3827:3900   */\n      swap2\n      pop\n        /* \"#utility.yul\":3622:3910   */\n      pop\n        /* \"#utility.yul\":3263:3917   */\n      swap3\n      pop\n      swap3\n      swap1\n      pop\n      jump\t// out\n        /* \"#utility.yul\":3923:4252   */\n    tag_22:\n        /* \"#utility.yul\":3982:3988   */\n      0x00\n        /* \"#utility.yul\":4031:4033   */\n      0x20\n        /* \"#utility.yul\":4019:4028   */\n      dup3\n        /* \"#utility.yul\":4010:4017   */\n      dup5\n        /* \"#utility.yul\":4006:4029   */\n      sub\n        /* \"#utility.yul\":4002:4034   */\n      slt\n        /* \"#utility.yul\":3999:4118   */\n      iszero\n      tag_360\n      jumpi\n        /* \"#utility.yul\":4037:4116   */\n      tag_361\n      tag_215\n      jump\t// in\n    tag_361:\n        /* \"#utility.yul\":3999:4118   */\n    tag_360:\n        /* \"#utility.yul\":4157:4158   */\n      0x00\n        /* \"#utility.yul\":4182:4235   */\n      tag_362\n        /* \"#utility.yul\":4227:4234   */\n      dup5\n        /* \"#utility.yul\":4218:4224   */\n      dup3\n        /* \"#utility.yul\":4207:4216   */\n      dup6\n        /* \"#utility.yul\":4203:4225   */\n      add\n        /* \"#utility.yul\":4182:4235   */\n      tag_218\n      jump\t// in\n    tag_362:\n        /* \"#utility.yul\":4172:4235   */\n      swap2\n      pop\n        /* \"#utility.yul\":4128:4245   */\n      pop\n        /* \"#utility.yul\":3923:4252   */\n      swap3\n      swap2\n      pop\n      pop\n      jump\t// out\n        /* \"#utility.yul\":4258:4357   */\n    tag_228:\n        /* \"#utility.yul\":4310:4316   */\n      0x00\n        /* \"#utility.yul\":4344:4349   */\n      dup2\n        /* \"#utility.yul\":4338:4350   */\n      mload\n        /* \"#utility.yul\":4328:4350   */\n      swap1\n      pop\n        /* \"#utility.yul\":4258:4357   */\n      swap2\n      swap1\n      pop\n      jump\t// out\n        /* \"#utility.yul\":4363:4532   */\n    tag_229:\n        /* \"#utility.yul\":4447:4458   */\n      0x00\n        /* \"#utility.yul\":4481:4487   */\n      dup3\n        /* \"#utility.yul\":4476:4479   */\n      dup3\n        /* \"#utility.yul\":4469:4488   */\n      mstore\n        /* \"#utility.yul\":4521:4525   */\n      0x20\n        /* \"#utility.yul\":4516:4519   */\n      dup3\n        /* \"#utility.yul\":4512:4526   */\n      add\n        /* \"#utility.yul\":4497:4526   */\n      swap1\n      pop\n        /* \"#utility.yul\":4363:4532   */\n      swap3\n      swap2\n      pop\n      pop\n      jump\t// out\n        /* \"#utility.yul\":4538:4677   */\n    tag_230:\n        /* \"#utility.yul\":4627:4633   */\n      dup3\n        /* \"#utility.yul\":4622:4625   */\n      dup2\n        /* \"#utility.yul\":4617:4620   */\n      dup4\n        /* \"#utility.yul\":4611:4634   */\n      mcopy\n        /* \"#utility.yul\":4668:4669   */\n      0x00\n        /* \"#utility.yul\":4659:4665   */\n      dup4\n        /* \"#utility.yul\":4654:4657   */\n      dup4\n        /* \"#utility.yul\":4650:4666   */\n      add\n        /* \"#utility.yul\":4643:4670   */\n      mstore\n        /* \"#utility.yul\":4538:4677   */\n      pop\n      pop\n      pop\n      jump\t// out\n        /* \"#utility.yul\":4683:5060   */\n    tag_231:\n        /* \"#utility.yul\":4771:4774   */\n      0x00\n        /* \"#utility.yul\":4799:4838   */\n      tag_367\n        /* \"#utility.yul\":4832:4837   */\n      dup3\n        /* \"#utility.yul\":4799:4838   */\n      tag_228\n      jump\t// in\n    tag_367:\n        /* \"#utility.yul\":4854:4925   */\n      tag_368\n        /* \"#utility.yul\":4918:4924   */\n      dup2\n        /* \"#utility.yul\":4913:4916   */\n      dup6\n        /* \"#utility.yul\":4854:4925   */\n      tag_229\n      jump\t// in\n    tag_368:\n        /* \"#utility.yul\":4847:4925   */\n      swap4\n      pop\n        /* \"#utility.yul\":4934:4999   */\n      tag_369\n        /* \"#utility.yul\":4992:4998   */\n      dup2\n        /* \"#utility.yul\":4987:4990   */\n      dup6\n        /* \"#utility.yul\":4980:4984   */\n      0x20\n        /* \"#utility.yul\":4973:4978   */\n      dup7\n        /* \"#utility.yul\":4969:4985   */\n      add\n        /* \"#utility.yul\":4934:4999   */\n      tag_230\n      jump\t// in\n    tag_369:\n        /* \"#utility.yul\":5024:5053   */\n      tag_370\n        /* \"#utility.yul\":5046:5052   */\n      dup2\n        /* \"#utility.yul\":5024:5053   */\n      tag_221\n      jump\t// in\n    tag_370:\n        /* \"#utility.yul\":5019:5022   */\n      dup5\n        /* \"#utility.yul\":5015:5054   */\n      add\n        /* \"#utility.yul\":5008:5054   */\n      swap2\n      pop\n        /* \"#utility.yul\":4775:5060   */\n      pop\n        /* \"#utility.yul\":4683:5060   */\n      swap3\n      swap2\n      pop\n      pop\n      jump\t// out\n        /* \"#utility.yul\":5066:5192   */\n    tag_232:\n        /* \"#utility.yul\":5103:5110   */\n      0x00\n        /* \"#utility.yul\":5143:5185   */\n      0xffffffffffffffffffffffffffffffffffffffff\n        /* \"#utility.yul\":5136:5141   */\n      dup3\n        /* \"#utility.yul\":5132:5186   */\n      and\n        /* \"#utility.yul\":5121:5186   */\n      swap1\n      pop\n        /* \"#utility.yul\":5066:5192   */\n      swap2\n      swap1\n      pop\n      jump\t// out\n        /* \"#utility.yul\":5198:5294   */\n    tag_233:\n        /* \"#utility.yul\":5235:5242   */\n      0x00\n        /* \"#utility.yul\":5264:5288   */\n      tag_373\n        /* \"#utility.yul\":5282:5287   */\n      dup3\n        /* \"#utility.yul\":5264:5288   */\n      tag_232\n      jump\t// in\n    tag_373:\n        /* \"#utility.yul\":5253:5288   */\n      swap1\n      pop\n        /* \"#utility.yul\":5198:5294   */\n      swap2\n      swap1\n      pop\n      jump\t// out\n        /* \"#utility.yul\":5300:5418   */\n    tag_234:\n        /* \"#utility.yul\":5387:5411   */\n      tag_375\n        /* \"#utility.yul\":5405:5410   */\n      dup2\n        /* \"#utility.yul\":5387:5411   */\n      tag_233\n      jump\t// in\n    tag_375:\n        /* \"#utility.yul\":5382:5385   */\n      dup3\n        /* \"#utility.yul\":5375:5412   */\n      mstore\n        /* \"#utility.yul\":5300:5418   */\n      pop\n      pop\n      jump\t// out\n        /* \"#utility.yul\":5424:5514   */\n    tag_235:\n        /* \"#utility.yul\":5458:5465   */\n      0x00\n        /* \"#utility.yul\":5501:5506   */\n      dup2\n        /* \"#utility.yul\":5494:5507   */\n      iszero\n        /* \"#utility.yul\":5487:5508   */\n      iszero\n        /* \"#utility.yul\":5476:5508   */\n      swap1\n      pop\n        /* \"#utility.yul\":5424:5514   */\n      swap2\n      swap1\n      pop\n      jump\t// out\n        /* \"#utility.yul\":5520:5629   */\n    tag_236:\n        /* \"#utility.yul\":5601:5622   */\n      tag_378\n        /* \"#utility.yul\":5616:5621   */\n      dup2\n        /* \"#utility.yul\":5601:5622   */\n      tag_235\n      jump\t// in\n    tag_378:\n        /* \"#utility.yul\":5596:5599   */\n      dup3\n        /* \"#utility.yul\":5589:5623   */\n      mstore\n        /* \"#utility.yul\":5520:5629   */\n      pop\n      pop\n      jump\t// out\n        /* \"#utility.yul\":5635:5759   */\n    tag_237:\n        /* \"#utility.yul\":5712:5718   */\n      0x00\n        /* \"#utility.yul\":5746:5751   */\n      dup2\n        /* \"#utility.yul\":5740:5752   */\n      mload\n        /* \"#utility.yul\":5730:5752   */\n      swap1\n      pop\n        /* \"#utility.yul\":5635:5759   */\n      swap2\n      swap1\n      pop\n      jump\t// out\n        /* \"#utility.yul\":5765:5959   */\n    tag_238:\n        /* \"#utility.yul\":5874:5885   */\n      0x00\n        /* \"#utility.yul\":5908:5914   */\n      dup3\n        /* \"#utility.yul\":5903:5906   */\n      dup3\n        /* \"#utility.yul\":5896:5915   */\n      mstore\n        /* \"#utility.yul\":5948:5952   */\n      0x20\n        /* \"#utility.yul\":5943:5946   */\n      dup3\n        /* \"#utility.yul\":5939:5953   */\n      add\n        /* \"#utility.yul\":5924:5953   */\n      swap1\n      pop\n        /* \"#utility.yul\":5765:5959   */\n      swap3\n      swap2\n      pop\n      pop\n      jump\t// out\n        /* \"#utility.yul\":5965:6107   */\n    tag_239:\n        /* \"#utility.yul\":6042:6046   */\n      0x00\n        /* \"#utility.yul\":6065:6068   */\n      dup2\n        /* \"#utility.yul\":6057:6068   */\n      swap1\n      pop\n        /* \"#utility.yul\":6095:6099   */\n      0x20\n        /* \"#utility.yul\":6090:6093   */\n      dup3\n        /* \"#utility.yul\":6086:6100   */\n      add\n        /* \"#utility.yul\":6078:6100   */\n      swap1\n      pop\n        /* \"#utility.yul\":5965:6107   */\n      swap2\n      swap1\n      pop\n      jump\t// out\n        /* \"#utility.yul\":6113:6272   */\n    tag_240:\n        /* \"#utility.yul\":6187:6198   */\n      0x00\n        /* \"#utility.yul\":6221:6227   */\n      dup3\n        /* \"#utility.yul\":6216:6219   */\n      dup3\n        /* \"#utility.yul\":6209:6228   */\n      mstore\n        /* \"#utility.yul\":6261:6265   */\n      0x20\n        /* \"#utility.yul\":6256:6259   */\n      dup3\n        /* \"#utility.yul\":6252:6266   */\n      add\n        /* \"#utility.yul\":6237:6266   */\n      swap1\n      pop\n        /* \"#utility.yul\":6113:6272   */\n      swap3\n      swap2\n      pop\n      pop\n      jump\t// out\n        /* \"#utility.yul\":6278:6635   */\n    tag_241:\n        /* \"#utility.yul\":6356:6359   */\n      0x00\n        /* \"#utility.yul\":6384:6423   */\n      tag_384\n        /* \"#utility.yul\":6417:6422   */\n      dup3\n        /* \"#utility.yul\":6384:6423   */\n      tag_228\n      jump\t// in\n    tag_384:\n        /* \"#utility.yul\":6439:6500   */\n      tag_385\n        /* \"#utility.yul\":6493:6499   */\n      dup2\n        /* \"#utility.yul\":6488:6491   */\n      dup6\n        /* \"#utility.yul\":6439:6500   */\n      tag_240\n      jump\t// in\n    tag_385:\n        /* \"#utility.yul\":6432:6500   */\n      swap4\n      pop\n        /* \"#utility.yul\":6509:6574   */\n      tag_386\n        /* \"#utility.yul\":6567:6573   */\n      dup2\n        /* \"#utility.yul\":6562:6565   */\n      dup6\n        /* \"#utility.yul\":6555:6559   */\n      0x20\n        /* \"#utility.yul\":6548:6553   */\n      dup7\n        /* \"#utility.yul\":6544:6560   */\n      add\n        /* \"#utility.yul\":6509:6574   */\n      tag_230\n      jump\t// in\n    tag_386:\n        /* \"#utility.yul\":6599:6628   */\n      tag_387\n        /* \"#utility.yul\":6621:6627   */\n      dup2\n        /* \"#utility.yul\":6599:6628   */\n      tag_221\n      jump\t// in\n    tag_387:\n        /* \"#utility.yul\":6594:6597   */\n      dup5\n        /* \"#utility.yul\":6590:6629   */\n      add\n        /* \"#utility.yul\":6583:6629   */\n      swap2\n      pop\n        /* \"#utility.yul\":6360:6635   */\n      pop\n        /* \"#utility.yul\":6278:6635   */\n      swap3\n      swap2\n      pop\n      pop\n      jump\t// out\n        /* \"#utility.yul\":6641:6837   */\n    tag_242:\n        /* \"#utility.yul\":6730:6740   */\n      0x00\n        /* \"#utility.yul\":6765:6831   */\n      tag_389\n        /* \"#utility.yul\":6827:6830   */\n      dup4\n        /* \"#utility.yul\":6819:6825   */\n      dup4\n        /* \"#utility.yul\":6765:6831   */\n      tag_241\n      jump\t// in\n    tag_389:\n        /* \"#utility.yul\":6751:6831   */\n      swap1\n      pop\n        /* \"#utility.yul\":6641:6837   */\n      swap3\n      swap2\n      pop\n      pop\n      jump\t// out\n        /* \"#utility.yul\":6843:6966   */\n    tag_243:\n        /* \"#utility.yul\":6923:6927   */\n      0x00\n        /* \"#utility.yul\":6955:6959   */\n      0x20\n        /* \"#utility.yul\":6950:6953   */\n      dup3\n        /* \"#utility.yul\":6946:6960   */\n      add\n        /* \"#utility.yul\":6938:6960   */\n      swap1\n      pop\n        /* \"#utility.yul\":6843:6966   */\n      swap2\n      swap1\n      pop\n      jump\t// out\n        /* \"#utility.yul\":7000:7991   */\n    tag_244:\n        /* \"#utility.yul\":7139:7142   */\n      0x00\n        /* \"#utility.yul\":7168:7232   */\n      tag_392\n        /* \"#utility.yul\":7226:7231   */\n      dup3\n        /* \"#utility.yul\":7168:7232   */\n      tag_237\n      jump\t// in\n    tag_392:\n        /* \"#utility.yul\":7248:7344   */\n      tag_393\n        /* \"#utility.yul\":7337:7343   */\n      dup2\n        /* \"#utility.yul\":7332:7335   */\n      dup6\n        /* \"#utility.yul\":7248:7344   */\n      tag_238\n      jump\t// in\n    tag_393:\n        /* \"#utility.yul\":7241:7344   */\n      swap4\n      pop\n        /* \"#utility.yul\":7370:7373   */\n      dup4\n        /* \"#utility.yul\":7415:7419   */\n      0x20\n        /* \"#utility.yul\":7407:7413   */\n      dup3\n        /* \"#utility.yul\":7403:7420   */\n      mul\n        /* \"#utility.yul\":7398:7401   */\n      dup6\n        /* \"#utility.yul\":7394:7421   */\n      add\n        /* \"#utility.yul\":7445:7511   */\n      tag_394\n        /* \"#utility.yul\":7505:7510   */\n      dup6\n        /* \"#utility.yul\":7445:7511   */\n      tag_239\n      jump\t// in\n    tag_394:\n        /* \"#utility.yul\":7534:7541   */\n      dup1\n        /* \"#utility.yul\":7565:7566   */\n      0x00\n        /* \"#utility.yul\":7550:7946   */\n    tag_395:\n        /* \"#utility.yul\":7575:7581   */\n      dup6\n        /* \"#utility.yul\":7572:7573   */\n      dup2\n        /* \"#utility.yul\":7569:7582   */\n      lt\n        /* \"#utility.yul\":7550:7946   */\n      iszero\n      tag_397\n      jumpi\n        /* \"#utility.yul\":7646:7655   */\n      dup5\n        /* \"#utility.yul\":7640:7644   */\n      dup5\n        /* \"#utility.yul\":7636:7656   */\n      sub\n        /* \"#utility.yul\":7631:7634   */\n      dup10\n        /* \"#utility.yul\":7624:7657   */\n      mstore\n        /* \"#utility.yul\":7697:7703   */\n      dup2\n        /* \"#utility.yul\":7691:7704   */\n      mload\n        /* \"#utility.yul\":7725:7809   */\n      tag_398\n        /* \"#utility.yul\":7804:7808   */\n      dup6\n        /* \"#utility.yul\":7789:7802   */\n      dup3\n        /* \"#utility.yul\":7725:7809   */\n      tag_242\n      jump\t// in\n    tag_398:\n        /* \"#utility.yul\":7717:7809   */\n      swap5\n      pop\n        /* \"#utility.yul\":7832:7902   */\n      tag_399\n        /* \"#utility.yul\":7895:7901   */\n      dup4\n        /* \"#utility.yul\":7832:7902   */\n      tag_243\n      jump\t// in\n    tag_399:\n        /* \"#utility.yul\":7822:7902   */\n      swap3\n      pop\n        /* \"#utility.yul\":7931:7935   */\n      0x20\n        /* \"#utility.yul\":7926:7929   */\n      dup11\n        /* \"#utility.yul\":7922:7936   */\n      add\n        /* \"#utility.yul\":7915:7936   */\n      swap10\n      pop\n        /* \"#utility.yul\":7610:7946   */\n      pop\n        /* \"#utility.yul\":7597:7598   */\n      0x01\n        /* \"#utility.yul\":7594:7595   */\n      dup2\n        /* \"#utility.yul\":7590:7599   */\n      add\n        /* \"#utility.yul\":7585:7599   */\n      swap1\n      pop\n        /* \"#utility.yul\":7550:7946   */\n      jump(tag_395)\n    tag_397:\n        /* \"#utility.yul\":7554:7568   */\n      pop\n        /* \"#utility.yul\":7962:7966   */\n      dup3\n        /* \"#utility.yul\":7955:7966   */\n      swap8\n      pop\n        /* \"#utility.yul\":7982:7985   */\n      dup8\n        /* \"#utility.yul\":7975:7985   */\n      swap6\n      pop\n        /* \"#utility.yul\":7144:7991   */\n      pop\n      pop\n      pop\n      pop\n      pop\n        /* \"#utility.yul\":7000:7991   */\n      swap3\n      swap2\n      pop\n      pop\n      jump\t// out\n        /* \"#utility.yul\":7997:8111   */\n    tag_245:\n        /* \"#utility.yul\":8064:8070   */\n      0x00\n        /* \"#utility.yul\":8098:8103   */\n      dup2\n        /* \"#utility.yul\":8092:8104   */\n      mload\n        /* \"#utility.yul\":8082:8104   */\n      swap1\n      pop\n        /* \"#utility.yul\":7997:8111   */\n      swap2\n      swap1\n      pop\n      jump\t// out\n        /* \"#utility.yul\":8117:8301   */\n    tag_246:\n        /* \"#utility.yul\":8216:8227   */\n      0x00\n        /* \"#utility.yul\":8250:8256   */\n      dup3\n        /* \"#utility.yul\":8245:8248   */\n      dup3\n        /* \"#utility.yul\":8238:8257   */\n      mstore\n        /* \"#utility.yul\":8290:8294   */\n      0x20\n        /* \"#utility.yul\":8285:8288   */\n      dup3\n        /* \"#utility.yul\":8281:8295   */\n      add\n        /* \"#utility.yul\":8266:8295   */\n      swap1\n      pop\n        /* \"#utility.yul\":8117:8301   */\n      swap3\n      swap2\n      pop\n      pop\n      jump\t// out\n        /* \"#utility.yul\":8307:8439   */\n    tag_247:\n        /* \"#utility.yul\":8374:8378   */\n      0x00\n        /* \"#utility.yul\":8397:8400   */\n      dup2\n        /* \"#utility.yul\":8389:8400   */\n      swap1\n      pop\n        /* \"#utility.yul\":8427:8431   */\n      0x20\n        /* \"#utility.yul\":8422:8425   */\n      dup3\n        /* \"#utility.yul\":8418:8432   */\n      add\n        /* \"#utility.yul\":8410:8432   */\n      swap1\n      pop\n        /* \"#utility.yul\":8307:8439   */\n      swap2\n      swap1\n      pop\n      jump\t// out\n        /* \"#utility.yul\":8445:8553   */\n    tag_248:\n        /* \"#utility.yul\":8522:8546   */\n      tag_404\n        /* \"#utility.yul\":8540:8545   */\n      dup2\n        /* \"#utility.yul\":8522:8546   */\n      tag_212\n      jump\t// in\n    tag_404:\n        /* \"#utility.yul\":8517:8520   */\n      dup3\n        /* \"#utility.yul\":8510:8547   */\n      mstore\n        /* \"#utility.yul\":8445:8553   */\n      pop\n      pop\n      jump\t// out\n        /* \"#utility.yul\":8559:8738   */\n    tag_249:\n        /* \"#utility.yul\":8628:8638   */\n      0x00\n        /* \"#utility.yul\":8649:8695   */\n      tag_406\n        /* \"#utility.yul\":8691:8694   */\n      dup4\n        /* \"#utility.yul\":8683:8689   */\n      dup4\n        /* \"#utility.yul\":8649:8695   */\n      tag_248\n      jump\t// in\n    tag_406:\n        /* \"#utility.yul\":8727:8731   */\n      0x20\n        /* \"#utility.yul\":8722:8725   */\n      dup4\n        /* \"#utility.yul\":8718:8732   */\n      add\n        /* \"#utility.yul\":8704:8732   */\n      swap1\n      pop\n        /* \"#utility.yul\":8559:8738   */\n      swap3\n      swap2\n      pop\n      pop\n      jump\t// out\n        /* \"#utility.yul\":8744:8857   */\n    tag_250:\n        /* \"#utility.yul\":8814:8818   */\n      0x00\n        /* \"#utility.yul\":8846:8850   */\n      0x20\n        /* \"#utility.yul\":8841:8844   */\n      dup3\n        /* \"#utility.yul\":8837:8851   */\n      add\n        /* \"#utility.yul\":8829:8851   */\n      swap1\n      pop\n        /* \"#utility.yul\":8744:8857   */\n      swap2\n      swap1\n      pop\n      jump\t// out\n        /* \"#utility.yul\":8893:9625   */\n    tag_251:\n        /* \"#utility.yul\":9012:9015   */\n      0x00\n        /* \"#utility.yul\":9041:9095   */\n      tag_409\n        /* \"#utility.yul\":9089:9094   */\n      dup3\n        /* \"#utility.yul\":9041:9095   */\n      tag_245\n      jump\t// in\n    tag_409:\n        /* \"#utility.yul\":9111:9197   */\n      tag_410\n        /* \"#utility.yul\":9190:9196   */\n      dup2\n        /* \"#utility.yul\":9185:9188   */\n      dup6\n        /* \"#utility.yul\":9111:9197   */\n      tag_246\n      jump\t// in\n    tag_410:\n        /* \"#utility.yul\":9104:9197   */\n      swap4\n      pop\n        /* \"#utility.yul\":9221:9277   */\n      tag_411\n        /* \"#utility.yul\":9271:9276   */\n      dup4\n        /* \"#utility.yul\":9221:9277   */\n      tag_247\n      jump\t// in\n    tag_411:\n        /* \"#utility.yul\":9300:9307   */\n      dup1\n        /* \"#utility.yul\":9331:9332   */\n      0x00\n        /* \"#utility.yul\":9316:9600   */\n    tag_412:\n        /* \"#utility.yul\":9341:9347   */\n      dup4\n        /* \"#utility.yul\":9338:9339   */\n      dup2\n        /* \"#utility.yul\":9335:9348   */\n      lt\n        /* \"#utility.yul\":9316:9600   */\n      iszero\n      tag_414\n      jumpi\n        /* \"#utility.yul\":9417:9423   */\n      dup2\n        /* \"#utility.yul\":9411:9424   */\n      mload\n        /* \"#utility.yul\":9444:9507   */\n      tag_415\n        /* \"#utility.yul\":9503:9506   */\n      dup9\n        /* \"#utility.yul\":9488:9501   */\n      dup3\n        /* \"#utility.yul\":9444:9507   */\n      tag_249\n      jump\t// in\n    tag_415:\n        /* \"#utility.yul\":9437:9507   */\n      swap8\n      pop\n        /* \"#utility.yul\":9530:9590   */\n      tag_416\n        /* \"#utility.yul\":9583:9589   */\n      dup4\n        /* \"#utility.yul\":9530:9590   */\n      tag_250\n      jump\t// in\n    tag_416:\n        /* \"#utility.yul\":9520:9590   */\n      swap3\n      pop\n        /* \"#utility.yul\":9376:9600   */\n      pop\n        /* \"#utility.yul\":9363:9364   */\n      0x01\n        /* \"#utility.yul\":9360:9361   */\n      dup2\n        /* \"#utility.yul\":9356:9365   */\n      add\n        /* \"#utility.yul\":9351:9365   */\n      swap1\n      pop\n        /* \"#utility.yul\":9316:9600   */\n      jump(tag_412)\n    tag_414:\n        /* \"#utility.yul\":9320:9334   */\n      pop\n        /* \"#utility.yul\":9616:9619   */\n      dup6\n        /* \"#utility.yul\":9609:9619   */\n      swap4\n      pop\n        /* \"#utility.yul\":9017:9625   */\n      pop\n      pop\n      pop\n        /* \"#utility.yul\":8893:9625   */\n      swap3\n      swap2\n      pop\n      pop\n      jump\t// out\n        /* \"#utility.yul\":9631:10716   */\n    tag_25:\n        /* \"#utility.yul\":9970:9974   */\n      0x00\n        /* \"#utility.yul\":10008:10011   */\n      0xa0\n        /* \"#utility.yul\":9997:10006   */\n      dup3\n        /* \"#utility.yul\":9993:10012   */\n      add\n        /* \"#utility.yul\":9985:10012   */\n      swap1\n      pop\n        /* \"#utility.yul\":10058:10067   */\n      dup2\n        /* \"#utility.yul\":10052:10056   */\n      dup2\n        /* \"#utility.yul\":10048:10068   */\n      sub\n        /* \"#utility.yul\":10044:10045   */\n      0x00\n        /* \"#utility.yul\":10033:10042   */\n      dup4\n        /* \"#utility.yul\":10029:10046   */\n      add\n        /* \"#utility.yul\":10022:10069   */\n      mstore\n        /* \"#utility.yul\":10086:10164   */\n      tag_418\n        /* \"#utility.yul\":10159:10163   */\n      dup2\n        /* \"#utility.yul\":10150:10156   */\n      dup9\n        /* \"#utility.yul\":10086:10164   */\n      tag_231\n      jump\t// in\n    tag_418:\n        /* \"#utility.yul\":10078:10164   */\n      swap1\n      pop\n        /* \"#utility.yul\":10174:10246   */\n      tag_419\n        /* \"#utility.yul\":10242:10244   */\n      0x20\n        /* \"#utility.yul\":10231:10240   */\n      dup4\n        /* \"#utility.yul\":10227:10245   */\n      add\n        /* \"#utility.yul\":10218:10224   */\n      dup8\n        /* \"#utility.yul\":10174:10246   */\n      tag_234\n      jump\t// in\n    tag_419:\n        /* \"#utility.yul\":10256:10322   */\n      tag_420\n        /* \"#utility.yul\":10318:10320   */\n      0x40\n        /* \"#utility.yul\":10307:10316   */\n      dup4\n        /* \"#utility.yul\":10303:10321   */\n      add\n        /* \"#utility.yul\":10294:10300   */\n      dup7\n        /* \"#utility.yul\":10256:10322   */\n      tag_236\n      jump\t// in\n    tag_420:\n        /* \"#utility.yul\":10369:10378   */\n      dup2\n        /* \"#utility.yul\":10363:10367   */\n      dup2\n        /* \"#utility.yul\":10359:10379   */\n      sub\n        /* \"#utility.yul\":10354:10356   */\n      0x60\n        /* \"#utility.yul\":10343:10352   */\n      dup4\n        /* \"#utility.yul\":10339:10357   */\n      add\n        /* \"#utility.yul\":10332:10380   */\n      mstore\n        /* \"#utility.yul\":10397:10525   */\n      tag_421\n        /* \"#utility.yul\":10520:10524   */\n      dup2\n        /* \"#utility.yul\":10511:10517   */\n      dup6\n        /* \"#utility.yul\":10397:10525   */\n      tag_244\n      jump\t// in\n    tag_421:\n        /* \"#utility.yul\":10389:10525   */\n      swap1\n      pop\n        /* \"#utility.yul\":10573:10582   */\n      dup2\n        /* \"#utility.yul\":10567:10571   */\n      dup2\n        /* \"#utility.yul\":10563:10583   */\n      sub\n        /* \"#utility.yul\":10557:10560   */\n      0x80\n        /* \"#utility.yul\":10546:10555   */\n      dup4\n        /* \"#utility.yul\":10542:10561   */\n      add\n        /* \"#utility.yul\":10535:10584   */\n      mstore\n        /* \"#utility.yul\":10601:10709   */\n      tag_422\n        /* \"#utility.yul\":10704:10708   */\n      dup2\n        /* \"#utility.yul\":10695:10701   */\n      dup5\n        /* \"#utility.yul\":10601:10709   */\n      tag_251\n      jump\t// in\n    tag_422:\n        /* \"#utility.yul\":10593:10709   */\n      swap1\n      pop\n        /* \"#utility.yul\":9631:10716   */\n      swap7\n      swap6\n      pop\n      pop\n      pop\n      pop\n      pop\n      pop\n      jump\t// out\n        /* \"#utility.yul\":10722:11231   */\n    tag_28:\n        /* \"#utility.yul\":10791:10797   */\n      0x00\n        /* \"#utility.yul\":10840:10842   */\n      0x20\n        /* \"#utility.yul\":10828:10837   */\n      dup3\n        /* \"#utility.yul\":10819:10826   */\n      dup5\n        /* \"#utility.yul\":10815:10838   */\n      sub\n        /* \"#utility.yul\":10811:10843   */\n      slt\n        /* \"#utility.yul\":10808:10927   */\n      iszero\n      tag_424\n      jumpi\n        /* \"#utility.yul\":10846:10925   */\n      tag_425\n      tag_215\n      jump\t// in\n    tag_425:\n        /* \"#utility.yul\":10808:10927   */\n    tag_424:\n        /* \"#utility.yul\":10994:10995   */\n      0x00\n        /* \"#utility.yul\":10983:10992   */\n      dup3\n        /* \"#utility.yul\":10979:10996   */\n      add\n        /* \"#utility.yul\":10966:10997   */\n      calldataload\n        /* \"#utility.yul\":11024:11042   */\n      0xffffffffffffffff\n        /* \"#utility.yul\":11016:11022   */\n      dup2\n        /* \"#utility.yul\":11013:11043   */\n      gt\n        /* \"#utility.yul\":11010:11127   */\n      iszero\n      tag_426\n      jumpi\n        /* \"#utility.yul\":11046:11125   */\n      tag_427\n      tag_216\n      jump\t// in\n    tag_427:\n        /* \"#utility.yul\":11010:11127   */\n    tag_426:\n        /* \"#utility.yul\":11151:11214   */\n      tag_428\n        /* \"#utility.yul\":11206:11213   */\n      dup5\n        /* \"#utility.yul\":11197:11203   */\n      dup3\n        /* \"#utility.yul\":11186:11195   */\n      dup6\n        /* \"#utility.yul\":11182:11204   */\n      add\n        /* \"#utility.yul\":11151:11214   */\n      tag_227\n      jump\t// in\n    tag_428:\n        /* \"#utility.yul\":11141:11214   */\n      swap2\n      pop\n        /* \"#utility.yul\":10937:11224   */\n      pop\n        /* \"#utility.yul\":10722:11231   */\n      swap3\n      swap2\n      pop\n      pop\n      jump\t// out\n        /* \"#utility.yul\":11237:11447   */\n    tag_34:\n        /* \"#utility.yul\":11324:11328   */\n      0x00\n        /* \"#utility.yul\":11362:11364   */\n      0x20\n        /* \"#utility.yul\":11351:11360   */\n      dup3\n        /* \"#utility.yul\":11347:11365   */\n      add\n        /* \"#utility.yul\":11339:11365   */\n      swap1\n      pop\n        /* \"#utility.yul\":11375:11440   */\n      tag_430\n        /* \"#utility.yul\":11437:11438   */\n      0x00\n        /* \"#utility.yul\":11426:11435   */\n      dup4\n        /* \"#utility.yul\":11422:11439   */\n      add\n        /* \"#utility.yul\":11413:11419   */\n      dup5\n        /* \"#utility.yul\":11375:11440   */\n      tag_236\n      jump\t// in\n    tag_430:\n        /* \"#utility.yul\":11237:11447   */\n      swap3\n      swap2\n      pop\n      pop\n      jump\t// out\n        /* \"#utility.yul\":11453:11567   */\n    tag_252:\n        /* \"#utility.yul\":11520:11526   */\n      0x00\n        /* \"#utility.yul\":11554:11559   */\n      dup2\n        /* \"#utility.yul\":11548:11560   */\n      mload\n        /* \"#utility.yul\":11538:11560   */\n      swap1\n      pop\n        /* \"#utility.yul\":11453:11567   */\n      swap2\n      swap1\n      pop\n      jump\t// out\n        /* \"#utility.yul\":11573:11757   */\n    tag_253:\n        /* \"#utility.yul\":11672:11683   */\n      0x00\n        /* \"#utility.yul\":11706:11712   */\n      dup3\n        /* \"#utility.yul\":11701:11704   */\n      dup3\n        /* \"#utility.yul\":11694:11713   */\n      mstore\n        /* \"#utility.yul\":11746:11750   */\n      0x20\n        /* \"#utility.yul\":11741:11744   */\n      dup3\n        /* \"#utility.yul\":11737:11751   */\n      add\n        /* \"#utility.yul\":11722:11751   */\n      swap1\n      pop\n        /* \"#utility.yul\":11573:11757   */\n      swap3\n      swap2\n      pop\n      pop\n      jump\t// out\n        /* \"#utility.yul\":11763:11895   */\n    tag_254:\n        /* \"#utility.yul\":11830:11834   */\n      0x00\n        /* \"#utility.yul\":11853:11856   */\n      dup2\n        /* \"#utility.yul\":11845:11856   */\n      swap1\n      pop\n        /* \"#utility.yul\":11883:11887   */\n      0x20\n        /* \"#utility.yul\":11878:11881   */\n      dup3\n        /* \"#utility.yul\":11874:11888   */\n      add\n        /* \"#utility.yul\":11866:11888   */\n      swap1\n      pop\n        /* \"#utility.yul\":11763:11895   */\n      swap2\n      swap1\n      pop\n      jump\t// out\n        /* \"#utility.yul\":11901:12009   */\n    tag_255:\n        /* \"#utility.yul\":11978:12002   */\n      tag_435\n        /* \"#utility.yul\":11996:12001   */\n      dup2\n        /* \"#utility.yul\":11978:12002   */\n      tag_233\n      jump\t// in\n    tag_435:\n        /* \"#utility.yul\":11973:11976   */\n      dup3\n        /* \"#utility.yul\":11966:12003   */\n      mstore\n        /* \"#utility.yul\":11901:12009   */\n      pop\n      pop\n      jump\t// out\n        /* \"#utility.yul\":12015:12194   */\n    tag_256:\n        /* \"#utility.yul\":12084:12094   */\n      0x00\n        /* \"#utility.yul\":12105:12151   */\n      tag_437\n        /* \"#utility.yul\":12147:12150   */\n      dup4\n        /* \"#utility.yul\":12139:12145   */\n      dup4\n        /* \"#utility.yul\":12105:12151   */\n      tag_255\n      jump\t// in\n    tag_437:\n        /* \"#utility.yul\":12183:12187   */\n      0x20\n        /* \"#utility.yul\":12178:12181   */\n      dup4\n        /* \"#utility.yul\":12174:12188   */\n      add\n        /* \"#utility.yul\":12160:12188   */\n      swap1\n      pop\n        /* \"#utility.yul\":12015:12194   */\n      swap3\n      swap2\n      pop\n      pop\n      jump\t// out\n        /* \"#utility.yul\":12200:12313   */\n    tag_257:\n        /* \"#utility.yul\":12270:12274   */\n      0x00\n        /* \"#utility.yul\":12302:12306   */\n      0x20\n        /* \"#utility.yul\":12297:12300   */\n      dup3\n        /* \"#utility.yul\":12293:12307   */\n      add\n        /* \"#utility.yul\":12285:12307   */\n      swap1\n      pop\n        /* \"#utility.yul\":12200:12313   */\n      swap2\n      swap1\n      pop\n      jump\t// out\n        /* \"#utility.yul\":12349:13081   */\n    tag_258:\n        /* \"#utility.yul\":12468:12471   */\n      0x00\n        /* \"#utility.yul\":12497:12551   */\n      tag_440\n        /* \"#utility.yul\":12545:12550   */\n      dup3\n        /* \"#utility.yul\":12497:12551   */\n      tag_252\n      jump\t// in\n    tag_440:\n        /* \"#utility.yul\":12567:12653   */\n      tag_441\n        /* \"#utility.yul\":12646:12652   */\n      dup2\n        /* \"#utility.yul\":12641:12644   */\n      dup6\n        /* \"#utility.yul\":12567:12653   */\n      tag_253\n      jump\t// in\n    tag_441:\n        /* \"#utility.yul\":12560:12653   */\n      swap4\n      pop\n        /* \"#utility.yul\":12677:12733   */\n      tag_442\n        /* \"#utility.yul\":12727:12732   */\n      dup4\n        /* \"#utility.yul\":12677:12733   */\n      tag_254\n      jump\t// in\n    tag_442:\n        /* \"#utility.yul\":12756:12763   */\n      dup1\n        /* \"#utility.yul\":12787:12788   */\n      0x00\n        /* \"#utility.yul\":12772:13056   */\n    tag_443:\n        /* \"#utility.yul\":12797:12803   */\n      dup4\n        /* \"#utility.yul\":12794:12795   */\n      dup2\n        /* \"#utility.yul\":12791:12804   */\n      lt\n        /* \"#utility.yul\":12772:13056   */\n      iszero\n      tag_445\n      jumpi\n        /* \"#utility.yul\":12873:12879   */\n      dup2\n        /* \"#utility.yul\":12867:12880   */\n      mload\n        /* \"#utility.yul\":12900:12963   */\n      tag_446\n        /* \"#utility.yul\":12959:12962   */\n      dup9\n        /* \"#utility.yul\":12944:12957   */\n      dup3\n        /* \"#utility.yul\":12900:12963   */\n      tag_256\n      jump\t// in\n    tag_446:\n        /* \"#utility.yul\":12893:12963   */\n      swap8\n      pop\n        /* \"#utility.yul\":12986:13046   */\n      tag_447\n        /* \"#utility.yul\":13039:13045   */\n      dup4\n        /* \"#utility.yul\":12986:13046   */\n      tag_257\n      jump\t// in\n    tag_447:\n        /* \"#utility.yul\":12976:13046   */\n      swap3\n      pop\n        /* \"#utility.yul\":12832:13056   */\n      pop\n        /* \"#utility.yul\":12819:12820   */\n      0x01\n        /* \"#utility.yul\":12816:12817   */\n      dup2\n        /* \"#utility.yul\":12812:12821   */\n      add\n        /* \"#utility.yul\":12807:12821   */\n      swap1\n      pop\n        /* \"#utility.yul\":12772:13056   */\n      jump(tag_443)\n    tag_445:\n        /* \"#utility.yul\":12776:12790   */\n      pop\n        /* \"#utility.yul\":13072:13075   */\n      dup6\n        /* \"#utility.yul\":13065:13075   */\n      swap4\n      pop\n        /* \"#utility.yul\":12473:13081   */\n      pop\n      pop\n      pop\n        /* \"#utility.yul\":12349:13081   */\n      swap3\n      swap2\n      pop\n      pop\n      jump\t// out\n        /* \"#utility.yul\":13087:13198   */\n    tag_259:\n        /* \"#utility.yul\":13151:13157   */\n      0x00\n        /* \"#utility.yul\":13185:13190   */\n      dup2\n        /* \"#utility.yul\":13179:13191   */\n      mload\n        /* \"#utility.yul\":13169:13191   */\n      swap1\n      pop\n        /* \"#utility.yul\":13087:13198   */\n      swap2\n      swap1\n      pop\n      jump\t// out\n        /* \"#utility.yul\":13204:13385   */\n    tag_260:\n        /* \"#utility.yul\":13300:13311   */\n      0x00\n        /* \"#utility.yul\":13334:13340   */\n      dup3\n        /* \"#utility.yul\":13329:13332   */\n      dup3\n        /* \"#utility.yul\":13322:13341   */\n      mstore\n        /* \"#utility.yul\":13374:13378   */\n      0x20\n        /* \"#utility.yul\":13369:13372   */\n      dup3\n        /* \"#utility.yul\":13365:13379   */\n      add\n        /* \"#utility.yul\":13350:13379   */\n      swap1\n      pop\n        /* \"#utility.yul\":13204:13385   */\n      swap3\n      swap2\n      pop\n      pop\n      jump\t// out\n        /* \"#utility.yul\":13391:13520   */\n    tag_261:\n        /* \"#utility.yul\":13455:13459   */\n      0x00\n        /* \"#utility.yul\":13478:13481   */\n      dup2\n        /* \"#utility.yul\":13470:13481   */\n      swap1\n      pop\n        /* \"#utility.yul\":13508:13512   */\n      0x20\n        /* \"#utility.yul\":13503:13506   */\n      dup3\n        /* \"#utility.yul\":13499:13513   */\n      add\n        /* \"#utility.yul\":13491:13513   */\n      swap1\n      pop\n        /* \"#utility.yul\":13391:13520   */\n      swap2\n      swap1\n      pop\n      jump\t// out\n        /* \"#utility.yul\":13526:13625   */\n    tag_262:\n        /* \"#utility.yul\":13597:13618   */\n      tag_452\n        /* \"#utility.yul\":13612:13617   */\n      dup2\n        /* \"#utility.yul\":13597:13618   */\n      tag_235\n      jump\t// in\n    tag_452:\n        /* \"#utility.yul\":13592:13595   */\n      dup3\n        /* \"#utility.yul\":13585:13619   */\n      mstore\n        /* \"#utility.yul\":13526:13625   */\n      pop\n      pop\n      jump\t// out\n        /* \"#utility.yul\":13631:13798   */\n    tag_263:\n        /* \"#utility.yul\":13694:13704   */\n      0x00\n        /* \"#utility.yul\":13715:13755   */\n      tag_454\n        /* \"#utility.yul\":13751:13754   */\n      dup4\n        /* \"#utility.yul\":13743:13749   */\n      dup4\n        /* \"#utility.yul\":13715:13755   */\n      tag_262\n      jump\t// in\n    tag_454:\n        /* \"#utility.yul\":13787:13791   */\n      0x20\n        /* \"#utility.yul\":13782:13785   */\n      dup4\n        /* \"#utility.yul\":13778:13792   */\n      add\n        /* \"#utility.yul\":13764:13792   */\n      swap1\n      pop\n        /* \"#utility.yul\":13631:13798   */\n      swap3\n      swap2\n      pop\n      pop\n      jump\t// out\n        /* \"#utility.yul\":13804:13914   */\n    tag_264:\n        /* \"#utility.yul\":13871:13875   */\n      0x00\n        /* \"#utility.yul\":13903:13907   */\n      0x20\n        /* \"#utility.yul\":13898:13901   */\n      dup3\n        /* \"#utility.yul\":13894:13908   */\n      add\n        /* \"#utility.yul\":13886:13908   */\n      swap1\n      pop\n        /* \"#utility.yul\":13804:13914   */\n      swap2\n      swap1\n      pop\n      jump\t// out\n        /* \"#utility.yul\":13944:14652   */\n    tag_265:\n        /* \"#utility.yul\":14057:14060   */\n      0x00\n        /* \"#utility.yul\":14086:14137   */\n      tag_457\n        /* \"#utility.yul\":14131:14136   */\n      dup3\n        /* \"#utility.yul\":14086:14137   */\n      tag_259\n      jump\t// in\n    tag_457:\n        /* \"#utility.yul\":14153:14236   */\n      tag_458\n        /* \"#utility.yul\":14229:14235   */\n      dup2\n        /* \"#utility.yul\":14224:14227   */\n      dup6\n        /* \"#utility.yul\":14153:14236   */\n      tag_260\n      jump\t// in\n    tag_458:\n        /* \"#utility.yul\":14146:14236   */\n      swap4\n      pop\n        /* \"#utility.yul\":14260:14313   */\n      tag_459\n        /* \"#utility.yul\":14307:14312   */\n      dup4\n        /* \"#utility.yul\":14260:14313   */\n      tag_261\n      jump\t// in\n    tag_459:\n        /* \"#utility.yul\":14336:14343   */\n      dup1\n        /* \"#utility.yul\":14367:14368   */\n      0x00\n        /* \"#utility.yul\":14352:14627   */\n    tag_460:\n        /* \"#utility.yul\":14377:14383   */\n      dup4\n        /* \"#utility.yul\":14374:14375   */\n      dup2\n        /* \"#utility.yul\":14371:14384   */\n      lt\n        /* \"#utility.yul\":14352:14627   */\n      iszero\n      tag_462\n      jumpi\n        /* \"#utility.yul\":14453:14459   */\n      dup2\n        /* \"#utility.yul\":14447:14460   */\n      mload\n        /* \"#utility.yul\":14480:14537   */\n      tag_463\n        /* \"#utility.yul\":14533:14536   */\n      dup9\n        /* \"#utility.yul\":14518:14531   */\n      dup3\n        /* \"#utility.yul\":14480:14537   */\n      tag_263\n      jump\t// in\n    tag_463:\n        /* \"#utility.yul\":14473:14537   */\n      swap8\n      pop\n        /* \"#utility.yul\":14560:14617   */\n      tag_464\n        /* \"#utility.yul\":14610:14616   */\n      dup4\n        /* \"#utility.yul\":14560:14617   */\n      tag_264\n      jump\t// in\n    tag_464:\n        /* \"#utility.yul\":14550:14617   */\n      swap3\n      pop\n        /* \"#utility.yul\":14412:14627   */\n      pop\n        /* \"#utility.yul\":14399:14400   */\n      0x01\n        /* \"#utility.yul\":14396:14397   */\n      dup2\n        /* \"#utility.yul\":14392:14401   */\n      add\n        /* \"#utility.yul\":14387:14401   */\n      swap1\n      pop\n        /* \"#utility.yul\":14352:14627   */\n      jump(tag_460)\n    tag_462:\n        /* \"#utility.yul\":14356:14370   */\n      pop\n        /* \"#utility.yul\":14643:14646   */\n      dup6\n        /* \"#utility.yul\":14636:14646   */\n      swap4\n      pop\n        /* \"#utility.yul\":14062:14652   */\n      pop\n      pop\n      pop\n        /* \"#utility.yul\":13944:14652   */\n      swap3\n      swap2\n      pop\n      pop\n      jump\t// out\n        /* \"#utility.yul\":14658:14821   */\n    tag_266:\n        /* \"#utility.yul\":14774:14780   */\n      0x00\n        /* \"#utility.yul\":14808:14813   */\n      dup2\n        /* \"#utility.yul\":14802:14814   */\n      mload\n        /* \"#utility.yul\":14792:14814   */\n      swap1\n      pop\n        /* \"#utility.yul\":14658:14821   */\n      swap2\n      swap1\n      pop\n      jump\t// out\n        /* \"#utility.yul\":14827:15060   */\n    tag_267:\n        /* \"#utility.yul\":14975:14986   */\n      0x00\n        /* \"#utility.yul\":15009:15015   */\n      dup3\n        /* \"#utility.yul\":15004:15007   */\n      dup3\n        /* \"#utility.yul\":14997:15016   */\n      mstore\n        /* \"#utility.yul\":15049:15053   */\n      0x20\n        /* \"#utility.yul\":15044:15047   */\n      dup3\n        /* \"#utility.yul\":15040:15054   */\n      add\n        /* \"#utility.yul\":15025:15054   */\n      swap1\n      pop\n        /* \"#utility.yul\":14827:15060   */\n      swap3\n      swap2\n      pop\n      pop\n      jump\t// out\n        /* \"#utility.yul\":15066:15247   */\n    tag_268:\n        /* \"#utility.yul\":15182:15186   */\n      0x00\n        /* \"#utility.yul\":15205:15208   */\n      dup2\n        /* \"#utility.yul\":15197:15208   */\n      swap1\n      pop\n        /* \"#utility.yul\":15235:15239   */\n      0x20\n        /* \"#utility.yul\":15230:15233   */\n      dup3\n        /* \"#utility.yul\":15226:15240   */\n      add\n        /* \"#utility.yul\":15218:15240   */\n      swap1\n      pop\n        /* \"#utility.yul\":15066:15247   */\n      swap2\n      swap1\n      pop\n      jump\t// out\n        /* \"#utility.yul\":15253:15391   */\n    tag_269:\n        /* \"#utility.yul\":15344:15350   */\n      0x00\n        /* \"#utility.yul\":15378:15383   */\n      dup2\n        /* \"#utility.yul\":15372:15384   */\n      mload\n        /* \"#utility.yul\":15362:15384   */\n      swap1\n      pop\n        /* \"#utility.yul\":15253:15391   */\n      swap2\n      swap1\n      pop\n      jump\t// out\n        /* \"#utility.yul\":15397:15595   */\n    tag_270:\n        /* \"#utility.yul\":15510:15521   */\n      0x00\n        /* \"#utility.yul\":15544:15550   */\n      dup3\n        /* \"#utility.yul\":15539:15542   */\n      dup3\n        /* \"#utility.yul\":15532:15551   */\n      mstore\n        /* \"#utility.yul\":15584:15588   */\n      0x20\n        /* \"#utility.yul\":15579:15582   */\n      dup3\n        /* \"#utility.yul\":15575:15589   */\n      add\n        /* \"#utility.yul\":15560:15589   */\n      swap1\n      pop\n        /* \"#utility.yul\":15397:15595   */\n      swap3\n      swap2\n      pop\n      pop\n      jump\t// out\n        /* \"#utility.yul\":15601:15757   */\n    tag_271:\n        /* \"#utility.yul\":15692:15696   */\n      0x00\n        /* \"#utility.yul\":15715:15718   */\n      dup2\n        /* \"#utility.yul\":15707:15718   */\n      swap1\n      pop\n        /* \"#utility.yul\":15745:15749   */\n      0x20\n        /* \"#utility.yul\":15740:15743   */\n      dup3\n        /* \"#utility.yul\":15736:15750   */\n      add\n        /* \"#utility.yul\":15728:15750   */\n      swap1\n      pop\n        /* \"#utility.yul\":15601:15757   */\n      swap2\n      swap1\n      pop\n      jump\t// out\n        /* \"#utility.yul\":15817:16413   */\n    tag_272:\n        /* \"#utility.yul\":15924:15927   */\n      0x00\n        /* \"#utility.yul\":15960:15964   */\n      0x40\n        /* \"#utility.yul\":15955:15958   */\n      dup4\n        /* \"#utility.yul\":15951:15965   */\n      add\n        /* \"#utility.yul\":16047:16051   */\n      0x00\n        /* \"#utility.yul\":16040:16045   */\n      dup4\n        /* \"#utility.yul\":16036:16052   */\n      add\n        /* \"#utility.yul\":16030:16053   */\n      mload\n        /* \"#utility.yul\":16100:16103   */\n      dup5\n        /* \"#utility.yul\":16094:16098   */\n      dup3\n        /* \"#utility.yul\":16090:16104   */\n      sub\n        /* \"#utility.yul\":16083:16087   */\n      0x00\n        /* \"#utility.yul\":16078:16081   */\n      dup7\n        /* \"#utility.yul\":16074:16088   */\n      add\n        /* \"#utility.yul\":16067:16105   */\n      mstore\n        /* \"#utility.yul\":16126:16199   */\n      tag_472\n        /* \"#utility.yul\":16194:16198   */\n      dup3\n        /* \"#utility.yul\":16180:16192   */\n      dup3\n        /* \"#utility.yul\":16126:16199   */\n      tag_241\n      jump\t// in\n    tag_472:\n        /* \"#utility.yul\":16118:16199   */\n      swap2\n      pop\n        /* \"#utility.yul\":15975:16210   */\n      pop\n        /* \"#utility.yul\":16294:16298   */\n      0x20\n        /* \"#utility.yul\":16287:16292   */\n      dup4\n        /* \"#utility.yul\":16283:16299   */\n      add\n        /* \"#utility.yul\":16277:16300   */\n      mload\n        /* \"#utility.yul\":16313:16376   */\n      tag_473\n        /* \"#utility.yul\":16370:16374   */\n      0x20\n        /* \"#utility.yul\":16365:16368   */\n      dup7\n        /* \"#utility.yul\":16361:16375   */\n      add\n        /* \"#utility.yul\":16347:16359   */\n      dup3\n        /* \"#utility.yul\":16313:16376   */\n      tag_248\n      jump\t// in\n    tag_473:\n        /* \"#utility.yul\":16220:16386   */\n      pop\n        /* \"#utility.yul\":16403:16407   */\n      dup1\n        /* \"#utility.yul\":16396:16407   */\n      swap2\n      pop\n        /* \"#utility.yul\":15929:16413   */\n      pop\n        /* \"#utility.yul\":15817:16413   */\n      swap3\n      swap2\n      pop\n      pop\n      jump\t// out\n        /* \"#utility.yul\":16419:16671   */\n    tag_273:\n        /* \"#utility.yul\":16536:16546   */\n      0x00\n        /* \"#utility.yul\":16571:16665   */\n      tag_475\n        /* \"#utility.yul\":16661:16664   */\n      dup4\n        /* \"#utility.yul\":16653:16659   */\n      dup4\n        /* \"#utility.yul\":16571:16665   */\n      tag_272\n      jump\t// in\n    tag_475:\n        /* \"#utility.yul\":16557:16665   */\n      swap1\n      pop\n        /* \"#utility.yul\":16419:16671   */\n      swap3\n      swap2\n      pop\n      pop\n      jump\t// out\n        /* \"#utility.yul\":16677:16814   */\n    tag_274:\n        /* \"#utility.yul\":16771:16775   */\n      0x00\n        /* \"#utility.yul\":16803:16807   */\n      0x20\n        /* \"#utility.yul\":16798:16801   */\n      dup3\n        /* \"#utility.yul\":16794:16808   */\n      add\n        /* \"#utility.yul\":16786:16808   */\n      swap1\n      pop\n        /* \"#utility.yul\":16677:16814   */\n      swap2\n      swap1\n      pop\n      jump\t// out\n        /* \"#utility.yul\":16878:17961   */\n    tag_275:\n        /* \"#utility.yul\":17035:17038   */\n      0x00\n        /* \"#utility.yul\":17064:17142   */\n      tag_478\n        /* \"#utility.yul\":17136:17141   */\n      dup3\n        /* \"#utility.yul\":17064:17142   */\n      tag_269\n      jump\t// in\n    tag_478:\n        /* \"#utility.yul\":17158:17258   */\n      tag_479\n        /* \"#utility.yul\":17251:17257   */\n      dup2\n        /* \"#utility.yul\":17246:17249   */\n      dup6\n        /* \"#utility.yul\":17158:17258   */\n      tag_270\n      jump\t// in\n    tag_479:\n        /* \"#utility.yul\":17151:17258   */\n      swap4\n      pop\n        /* \"#utility.yul\":17284:17287   */\n      dup4\n        /* \"#utility.yul\":17329:17333   */\n      0x20\n        /* \"#utility.yul\":17321:17327   */\n      dup3\n        /* \"#utility.yul\":17317:17334   */\n      mul\n        /* \"#utility.yul\":17312:17315   */\n      dup6\n        /* \"#utility.yul\":17308:17335   */\n      add\n        /* \"#utility.yul\":17359:17439   */\n      tag_480\n        /* \"#utility.yul\":17433:17438   */\n      dup6\n        /* \"#utility.yul\":17359:17439   */\n      tag_271\n      jump\t// in\n    tag_480:\n        /* \"#utility.yul\":17462:17469   */\n      dup1\n        /* \"#utility.yul\":17493:17494   */\n      0x00\n        /* \"#utility.yul\":17478:17916   */\n    tag_481:\n        /* \"#utility.yul\":17503:17509   */\n      dup6\n        /* \"#utility.yul\":17500:17501   */\n      dup2\n        /* \"#utility.yul\":17497:17510   */\n      lt\n        /* \"#utility.yul\":17478:17916   */\n      iszero\n      tag_483\n      jumpi\n        /* \"#utility.yul\":17574:17583   */\n      dup5\n        /* \"#utility.yul\":17568:17572   */\n      dup5\n        /* \"#utility.yul\":17564:17584   */\n      sub\n        /* \"#utility.yul\":17559:17562   */\n      dup10\n        /* \"#utility.yul\":17552:17585   */\n      mstore\n        /* \"#utility.yul\":17625:17631   */\n      dup2\n        /* \"#utility.yul\":17619:17632   */\n      mload\n        /* \"#utility.yul\":17653:17765   */\n      tag_484\n        /* \"#utility.yul\":17760:17764   */\n      dup6\n        /* \"#utility.yul\":17745:17758   */\n      dup3\n        /* \"#utility.yul\":17653:17765   */\n      tag_273\n      jump\t// in\n    tag_484:\n        /* \"#utility.yul\":17645:17765   */\n      swap5\n      pop\n        /* \"#utility.yul\":17788:17872   */\n      tag_485\n        /* \"#utility.yul\":17865:17871   */\n      dup4\n        /* \"#utility.yul\":17788:17872   */\n      tag_274\n      jump\t// in\n    tag_485:\n        /* \"#utility.yul\":17778:17872   */\n      swap3\n      pop\n        /* \"#utility.yul\":17901:17905   */\n      0x20\n        /* \"#utility.yul\":17896:17899   */\n      dup11\n        /* \"#utility.yul\":17892:17906   */\n      add\n        /* \"#utility.yul\":17885:17906   */\n      swap10\n      pop\n        /* \"#utility.yul\":17538:17916   */\n      pop\n        /* \"#utility.yul\":17525:17526   */\n      0x01\n        /* \"#utility.yul\":17522:17523   */\n      dup2\n        /* \"#utility.yul\":17518:17527   */\n      add\n        /* \"#utility.yul\":17513:17527   */\n      swap1\n      pop\n        /* \"#utility.yul\":17478:17916   */\n      jump(tag_481)\n    tag_483:\n        /* \"#utility.yul\":17482:17496   */\n      pop\n        /* \"#utility.yul\":17932:17936   */\n      dup3\n        /* \"#utility.yul\":17925:17936   */\n      swap8\n      pop\n        /* \"#utility.yul\":17952:17955   */\n      dup8\n        /* \"#utility.yul\":17945:17955   */\n      swap6\n      pop\n        /* \"#utility.yul\":17040:17961   */\n      pop\n      pop\n      pop\n      pop\n      pop\n        /* \"#utility.yul\":16878:17961   */\n      swap3\n      swap2\n      pop\n      pop\n      jump\t// out\n        /* \"#utility.yul\":17967:18319   */\n    tag_276:\n        /* \"#utility.yul\":18134:18144   */\n      0x00\n        /* \"#utility.yul\":18169:18313   */\n      tag_487\n        /* \"#utility.yul\":18309:18312   */\n      dup4\n        /* \"#utility.yul\":18301:18307   */\n      dup4\n        /* \"#utility.yul\":18169:18313   */\n      tag_275\n      jump\t// in\n    tag_487:\n        /* \"#utility.yul\":18155:18313   */\n      swap1\n      pop\n        /* \"#utility.yul\":17967:18319   */\n      swap3\n      swap2\n      pop\n      pop\n      jump\t// out\n        /* \"#utility.yul\":18325:18487   */\n    tag_277:\n        /* \"#utility.yul\":18444:18448   */\n      0x00\n        /* \"#utility.yul\":18476:18480   */\n      0x20\n        /* \"#utility.yul\":18471:18474   */\n      dup3\n        /* \"#utility.yul\":18467:18481   */\n      add\n        /* \"#utility.yul\":18459:18481   */\n      swap1\n      pop\n        /* \"#utility.yul\":18325:18487   */\n      swap2\n      swap1\n      pop\n      jump\t// out\n        /* \"#utility.yul\":18555:19858   */\n    tag_278:\n        /* \"#utility.yul\":18772:18775   */\n      0x00\n        /* \"#utility.yul\":18801:18904   */\n      tag_490\n        /* \"#utility.yul\":18898:18903   */\n      dup3\n        /* \"#utility.yul\":18801:18904   */\n      tag_266\n      jump\t// in\n    tag_490:\n        /* \"#utility.yul\":18920:19055   */\n      tag_491\n        /* \"#utility.yul\":19048:19054   */\n      dup2\n        /* \"#utility.yul\":19043:19046   */\n      dup6\n        /* \"#utility.yul\":18920:19055   */\n      tag_267\n      jump\t// in\n    tag_491:\n        /* \"#utility.yul\":18913:19055   */\n      swap4\n      pop\n        /* \"#utility.yul\":19081:19084   */\n      dup4\n        /* \"#utility.yul\":19126:19130   */\n      0x20\n        /* \"#utility.yul\":19118:19124   */\n      dup3\n        /* \"#utility.yul\":19114:19131   */\n      mul\n        /* \"#utility.yul\":19109:19112   */\n      dup6\n        /* \"#utility.yul\":19105:19132   */\n      add\n        /* \"#utility.yul\":19156:19261   */\n      tag_492\n        /* \"#utility.yul\":19255:19260   */\n      dup6\n        /* \"#utility.yul\":19156:19261   */\n      tag_268\n      jump\t// in\n    tag_492:\n        /* \"#utility.yul\":19284:19291   */\n      dup1\n        /* \"#utility.yul\":19315:19316   */\n      0x00\n        /* \"#utility.yul\":19300:19813   */\n    tag_493:\n        /* \"#utility.yul\":19325:19331   */\n      dup6\n        /* \"#utility.yul\":19322:19323   */\n      dup2\n        /* \"#utility.yul\":19319:19332   */\n      lt\n        /* \"#utility.yul\":19300:19813   */\n      iszero\n      tag_495\n      jumpi\n        /* \"#utility.yul\":19396:19405   */\n      dup5\n        /* \"#utility.yul\":19390:19394   */\n      dup5\n        /* \"#utility.yul\":19386:19406   */\n      sub\n        /* \"#utility.yul\":19381:19384   */\n      dup10\n        /* \"#utility.yul\":19374:19407   */\n      mstore\n        /* \"#utility.yul\":19447:19453   */\n      dup2\n        /* \"#utility.yul\":19441:19454   */\n      mload\n        /* \"#utility.yul\":19475:19637   */\n      tag_496\n        /* \"#utility.yul\":19632:19636   */\n      dup6\n        /* \"#utility.yul\":19617:19630   */\n      dup3\n        /* \"#utility.yul\":19475:19637   */\n      tag_276\n      jump\t// in\n    tag_496:\n        /* \"#utility.yul\":19467:19637   */\n      swap5\n      pop\n        /* \"#utility.yul\":19660:19769   */\n      tag_497\n        /* \"#utility.yul\":19762:19768   */\n      dup4\n        /* \"#utility.yul\":19660:19769   */\n      tag_277\n      jump\t// in\n    tag_497:\n        /* \"#utility.yul\":19650:19769   */\n      swap3\n      pop\n        /* \"#utility.yul\":19798:19802   */\n      0x20\n        /* \"#utility.yul\":19793:19796   */\n      dup11\n        /* \"#utility.yul\":19789:19803   */\n      add\n        /* \"#utility.yul\":19782:19803   */\n      swap10\n      pop\n        /* \"#utility.yul\":19360:19813   */\n      pop\n        /* \"#utility.yul\":19347:19348   */\n      0x01\n        /* \"#utility.yul\":19344:19345   */\n      dup2\n        /* \"#utility.yul\":19340:19349   */\n      add\n        /* \"#utility.yul\":19335:19349   */\n      swap1\n      pop\n        /* \"#utility.yul\":19300:19813   */\n      jump(tag_493)\n    tag_495:\n        /* \"#utility.yul\":19304:19318   */\n      pop\n        /* \"#utility.yul\":19829:19833   */\n      dup3\n        /* \"#utility.yul\":19822:19833   */\n      swap8\n      pop\n        /* \"#utility.yul\":19849:19852   */\n      dup8\n        /* \"#utility.yul\":19842:19852   */\n      swap6\n      pop\n        /* \"#utility.yul\":18777:19858   */\n      pop\n      pop\n      pop\n      pop\n      pop\n        /* \"#utility.yul\":18555:19858   */\n      swap3\n      swap2\n      pop\n      pop\n      jump\t// out\n        /* \"#utility.yul\":19864:20000   */\n    tag_279:\n        /* \"#utility.yul\":19953:19959   */\n      0x00\n        /* \"#utility.yul\":19987:19992   */\n      dup2\n        /* \"#utility.yul\":19981:19993   */\n      mload\n        /* \"#utility.yul\":19971:19993   */\n      swap1\n      pop\n        /* \"#utility.yul\":19864:20000   */\n      swap2\n      swap1\n      pop\n      jump\t// out\n        /* \"#utility.yul\":20006:20212   */\n    tag_280:\n        /* \"#utility.yul\":20127:20138   */\n      0x00\n        /* \"#utility.yul\":20161:20167   */\n      dup3\n        /* \"#utility.yul\":20156:20159   */\n      dup3\n        /* \"#utility.yul\":20149:20168   */\n      mstore\n        /* \"#utility.yul\":20201:20205   */\n      0x20\n        /* \"#utility.yul\":20196:20199   */\n      dup3\n        /* \"#utility.yul\":20192:20206   */\n      add\n        /* \"#utility.yul\":20177:20206   */\n      swap1\n      pop\n        /* \"#utility.yul\":20006:20212   */\n      swap3\n      swap2\n      pop\n      pop\n      jump\t// out\n        /* \"#utility.yul\":20218:20372   */\n    tag_281:\n        /* \"#utility.yul\":20307:20311   */\n      0x00\n        /* \"#utility.yul\":20330:20333   */\n      dup2\n        /* \"#utility.yul\":20322:20333   */\n      swap1\n      pop\n        /* \"#utility.yul\":20360:20364   */\n      0x20\n        /* \"#utility.yul\":20355:20358   */\n      dup3\n        /* \"#utility.yul\":20351:20365   */\n      add\n        /* \"#utility.yul\":20343:20365   */\n      swap1\n      pop\n        /* \"#utility.yul\":20218:20372   */\n      swap2\n      swap1\n      pop\n      jump\t// out\n        /* \"#utility.yul\":20378:20549   */\n    tag_282:\n        /* \"#utility.yul\":20464:20475   */\n      0x00\n        /* \"#utility.yul\":20498:20504   */\n      dup3\n        /* \"#utility.yul\":20493:20496   */\n      dup3\n        /* \"#utility.yul\":20486:20505   */\n      mstore\n        /* \"#utility.yul\":20538:20542   */\n      0x20\n        /* \"#utility.yul\":20533:20536   */\n      dup3\n        /* \"#utility.yul\":20529:20543   */\n      add\n        /* \"#utility.yul\":20514:20543   */\n      swap1\n      pop\n        /* \"#utility.yul\":20378:20549   */\n      swap3\n      swap2\n      pop\n      pop\n      jump\t// out\n        /* \"#utility.yul\":20579:21267   */\n    tag_283:\n        /* \"#utility.yul\":20682:20685   */\n      0x00\n        /* \"#utility.yul\":20711:20762   */\n      tag_503\n        /* \"#utility.yul\":20756:20761   */\n      dup3\n        /* \"#utility.yul\":20711:20762   */\n      tag_259\n      jump\t// in\n    tag_503:\n        /* \"#utility.yul\":20778:20851   */\n      tag_504\n        /* \"#utility.yul\":20844:20850   */\n      dup2\n        /* \"#utility.yul\":20839:20842   */\n      dup6\n        /* \"#utility.yul\":20778:20851   */\n      tag_282\n      jump\t// in\n    tag_504:\n        /* \"#utility.yul\":20771:20851   */\n      swap4\n      pop\n        /* \"#utility.yul\":20875:20928   */\n      tag_505\n        /* \"#utility.yul\":20922:20927   */\n      dup4\n        /* \"#utility.yul\":20875:20928   */\n      tag_261\n      jump\t// in\n    tag_505:\n        /* \"#utility.yul\":20951:20958   */\n      dup1\n        /* \"#utility.yul\":20982:20983   */\n      0x00\n        /* \"#utility.yul\":20967:21242   */\n    tag_506:\n        /* \"#utility.yul\":20992:20998   */\n      dup4\n        /* \"#utility.yul\":20989:20990   */\n      dup2\n        /* \"#utility.yul\":20986:20999   */\n      lt\n        /* \"#utility.yul\":20967:21242   */\n      iszero\n      tag_508\n      jumpi\n        /* \"#utility.yul\":21068:21074   */\n      dup2\n        /* \"#utility.yul\":21062:21075   */\n      mload\n        /* \"#utility.yul\":21095:21152   */\n      tag_509\n        /* \"#utility.yul\":21148:21151   */\n      dup9\n        /* \"#utility.yul\":21133:21146   */\n      dup3\n        /* \"#utility.yul\":21095:21152   */\n      tag_263\n      jump\t// in\n    tag_509:\n        /* \"#utility.yul\":21088:21152   */\n      swap8\n      pop\n        /* \"#utility.yul\":21175:21232   */\n      tag_510\n        /* \"#utility.yul\":21225:21231   */\n      dup4\n        /* \"#utility.yul\":21175:21232   */\n      tag_264\n      jump\t// in\n    tag_510:\n        /* \"#utility.yul\":21165:21232   */\n      swap3\n      pop\n        /* \"#utility.yul\":21027:21242   */\n      pop\n        /* \"#utility.yul\":21014:21015   */\n      0x01\n        /* \"#utility.yul\":21011:21012   */\n      dup2\n        /* \"#utility.yul\":21007:21016   */\n      add\n        /* \"#utility.yul\":21002:21016   */\n      swap1\n      pop\n        /* \"#utility.yul\":20967:21242   */\n      jump(tag_506)\n    tag_508:\n        /* \"#utility.yul\":20971:20985   */\n      pop\n        /* \"#utility.yul\":21258:21261   */\n      dup6\n        /* \"#utility.yul\":21251:21261   */\n      swap4\n      pop\n        /* \"#utility.yul\":20687:21267   */\n      pop\n      pop\n      pop\n        /* \"#utility.yul\":20579:21267   */\n      swap3\n      swap2\n      pop\n      pop\n      jump\t// out\n        /* \"#utility.yul\":21273:21517   */\n    tag_284:\n        /* \"#utility.yul\":21386:21396   */\n      0x00\n        /* \"#utility.yul\":21421:21511   */\n      tag_512\n        /* \"#utility.yul\":21507:21510   */\n      dup4\n        /* \"#utility.yul\":21499:21505   */\n      dup4\n        /* \"#utility.yul\":21421:21511   */\n      tag_283\n      jump\t// in\n    tag_512:\n        /* \"#utility.yul\":21407:21511   */\n      swap1\n      pop\n        /* \"#utility.yul\":21273:21517   */\n      swap3\n      swap2\n      pop\n      pop\n      jump\t// out\n        /* \"#utility.yul\":21523:21658   */\n    tag_285:\n        /* \"#utility.yul\":21615:21619   */\n      0x00\n        /* \"#utility.yul\":21647:21651   */\n      0x20\n        /* \"#utility.yul\":21642:21645   */\n      dup3\n        /* \"#utility.yul\":21638:21652   */\n      add\n        /* \"#utility.yul\":21630:21652   */\n      swap1\n      pop\n        /* \"#utility.yul\":21523:21658   */\n      swap2\n      swap1\n      pop\n      jump\t// out\n        /* \"#utility.yul\":21692:22779   */\n    tag_286:\n        /* \"#utility.yul\":21855:21858   */\n      0x00\n        /* \"#utility.yul\":21884:21960   */\n      tag_515\n        /* \"#utility.yul\":21954:21959   */\n      dup3\n        /* \"#utility.yul\":21884:21960   */\n      tag_279\n      jump\t// in\n    tag_515:\n        /* \"#utility.yul\":21976:22084   */\n      tag_516\n        /* \"#utility.yul\":22077:22083   */\n      dup2\n        /* \"#utility.yul\":22072:22075   */\n      dup6\n        /* \"#utility.yul\":21976:22084   */\n      tag_280\n      jump\t// in\n    tag_516:\n        /* \"#utility.yul\":21969:22084   */\n      swap4\n      pop\n        /* \"#utility.yul\":22110:22113   */\n      dup4\n        /* \"#utility.yul\":22155:22159   */\n      0x20\n        /* \"#utility.yul\":22147:22153   */\n      dup3\n        /* \"#utility.yul\":22143:22160   */\n      mul\n        /* \"#utility.yul\":22138:22141   */\n      dup6\n        /* \"#utility.yul\":22134:22161   */\n      add\n        /* \"#utility.yul\":22185:22263   */\n      tag_517\n        /* \"#utility.yul\":22257:22262   */\n      dup6\n        /* \"#utility.yul\":22185:22263   */\n      tag_281\n      jump\t// in\n    tag_517:\n        /* \"#utility.yul\":22286:22293   */\n      dup1\n        /* \"#utility.yul\":22317:22318   */\n      0x00\n        /* \"#utility.yul\":22302:22734   */\n    tag_518:\n        /* \"#utility.yul\":22327:22333   */\n      dup6\n        /* \"#utility.yul\":22324:22325   */\n      dup2\n        /* \"#utility.yul\":22321:22334   */\n      lt\n        /* \"#utility.yul\":22302:22734   */\n      iszero\n      tag_520\n      jumpi\n        /* \"#utility.yul\":22398:22407   */\n      dup5\n        /* \"#utility.yul\":22392:22396   */\n      dup5\n        /* \"#utility.yul\":22388:22408   */\n      sub\n        /* \"#utility.yul\":22383:22386   */\n      dup10\n        /* \"#utility.yul\":22376:22409   */\n      mstore\n        /* \"#utility.yul\":22449:22455   */\n      dup2\n        /* \"#utility.yul\":22443:22456   */\n      mload\n        /* \"#utility.yul\":22477:22585   */\n      tag_521\n        /* \"#utility.yul\":22580:22584   */\n      dup6\n        /* \"#utility.yul\":22565:22578   */\n      dup3\n        /* \"#utility.yul\":22477:22585   */\n      tag_284\n      jump\t// in\n    tag_521:\n        /* \"#utility.yul\":22469:22585   */\n      swap5\n      pop\n        /* \"#utility.yul\":22608:22690   */\n      tag_522\n        /* \"#utility.yul\":22683:22689   */\n      dup4\n        /* \"#utility.yul\":22608:22690   */\n      tag_285\n      jump\t// in\n    tag_522:\n        /* \"#utility.yul\":22598:22690   */\n      swap3\n      pop\n        /* \"#utility.yul\":22719:22723   */\n      0x20\n        /* \"#utility.yul\":22714:22717   */\n      dup11\n        /* \"#utility.yul\":22710:22724   */\n      add\n        /* \"#utility.yul\":22703:22724   */\n      swap10\n      pop\n        /* \"#utility.yul\":22362:22734   */\n      pop\n        /* \"#utility.yul\":22349:22350   */\n      0x01\n        /* \"#utility.yul\":22346:22347   */\n      dup2\n        /* \"#utility.yul\":22342:22351   */\n      add\n        /* \"#utility.yul\":22337:22351   */\n      swap1\n      pop\n        /* \"#utility.yul\":22302:22734   */\n      jump(tag_518)\n    tag_520:\n        /* \"#utility.yul\":22306:22320   */\n      pop\n        /* \"#utility.yul\":22750:22754   */\n      dup3\n        /* \"#utility.yul\":22743:22754   */\n      swap8\n      pop\n        /* \"#utility.yul\":22770:22773   */\n      dup8\n        /* \"#utility.yul\":22763:22773   */\n      swap6\n      pop\n        /* \"#utility.yul\":21860:22779   */\n      pop\n      pop\n      pop\n      pop\n      pop\n        /* \"#utility.yul\":21692:22779   */\n      swap3\n      swap2\n      pop\n      pop\n      jump\t// out\n        /* \"#utility.yul\":22785:24516   */\n    tag_38:\n        /* \"#utility.yul\":23396:23400   */\n      0x00\n        /* \"#utility.yul\":23434:23437   */\n      0xa0\n        /* \"#utility.yul\":23423:23432   */\n      dup3\n        /* \"#utility.yul\":23419:23438   */\n      add\n        /* \"#utility.yul\":23411:23438   */\n      swap1\n      pop\n        /* \"#utility.yul\":23484:23493   */\n      dup2\n        /* \"#utility.yul\":23478:23482   */\n      dup2\n        /* \"#utility.yul\":23474:23494   */\n      sub\n        /* \"#utility.yul\":23470:23471   */\n      0x00\n        /* \"#utility.yul\":23459:23468   */\n      dup4\n        /* \"#utility.yul\":23455:23472   */\n      add\n        /* \"#utility.yul\":23448:23495   */\n      mstore\n        /* \"#utility.yul\":23512:23640   */\n      tag_524\n        /* \"#utility.yul\":23635:23639   */\n      dup2\n        /* \"#utility.yul\":23626:23632   */\n      dup9\n        /* \"#utility.yul\":23512:23640   */\n      tag_244\n      jump\t// in\n    tag_524:\n        /* \"#utility.yul\":23504:23640   */\n      swap1\n      pop\n        /* \"#utility.yul\":23687:23696   */\n      dup2\n        /* \"#utility.yul\":23681:23685   */\n      dup2\n        /* \"#utility.yul\":23677:23697   */\n      sub\n        /* \"#utility.yul\":23672:23674   */\n      0x20\n        /* \"#utility.yul\":23661:23670   */\n      dup4\n        /* \"#utility.yul\":23657:23675   */\n      add\n        /* \"#utility.yul\":23650:23698   */\n      mstore\n        /* \"#utility.yul\":23715:23823   */\n      tag_525\n        /* \"#utility.yul\":23818:23822   */\n      dup2\n        /* \"#utility.yul\":23809:23815   */\n      dup8\n        /* \"#utility.yul\":23715:23823   */\n      tag_258\n      jump\t// in\n    tag_525:\n        /* \"#utility.yul\":23707:23823   */\n      swap1\n      pop\n        /* \"#utility.yul\":23870:23879   */\n      dup2\n        /* \"#utility.yul\":23864:23868   */\n      dup2\n        /* \"#utility.yul\":23860:23880   */\n      sub\n        /* \"#utility.yul\":23855:23857   */\n      0x40\n        /* \"#utility.yul\":23844:23853   */\n      dup4\n        /* \"#utility.yul\":23840:23858   */\n      add\n        /* \"#utility.yul\":23833:23881   */\n      mstore\n        /* \"#utility.yul\":23898:24000   */\n      tag_526\n        /* \"#utility.yul\":23995:23999   */\n      dup2\n        /* \"#utility.yul\":23986:23992   */\n      dup7\n        /* \"#utility.yul\":23898:24000   */\n      tag_265\n      jump\t// in\n    tag_526:\n        /* \"#utility.yul\":23890:24000   */\n      swap1\n      pop\n        /* \"#utility.yul\":24047:24056   */\n      dup2\n        /* \"#utility.yul\":24041:24045   */\n      dup2\n        /* \"#utility.yul\":24037:24057   */\n      sub\n        /* \"#utility.yul\":24032:24034   */\n      0x60\n        /* \"#utility.yul\":24021:24030   */\n      dup4\n        /* \"#utility.yul\":24017:24035   */\n      add\n        /* \"#utility.yul\":24010:24058   */\n      mstore\n        /* \"#utility.yul\":24075:24281   */\n      tag_527\n        /* \"#utility.yul\":24276:24280   */\n      dup2\n        /* \"#utility.yul\":24267:24273   */\n      dup6\n        /* \"#utility.yul\":24075:24281   */\n      tag_278\n      jump\t// in\n    tag_527:\n        /* \"#utility.yul\":24067:24281   */\n      swap1\n      pop\n        /* \"#utility.yul\":24329:24338   */\n      dup2\n        /* \"#utility.yul\":24323:24327   */\n      dup2\n        /* \"#utility.yul\":24319:24339   */\n      sub\n        /* \"#utility.yul\":24313:24316   */\n      0x80\n        /* \"#utility.yul\":24302:24311   */\n      dup4\n        /* \"#utility.yul\":24298:24317   */\n      add\n        /* \"#utility.yul\":24291:24340   */\n      mstore\n        /* \"#utility.yul\":24357:24509   */\n      tag_528\n        /* \"#utility.yul\":24504:24508   */\n      dup2\n        /* \"#utility.yul\":24495:24501   */\n      dup5\n        /* \"#utility.yul\":24357:24509   */\n      tag_286\n      jump\t// in\n    tag_528:\n        /* \"#utility.yul\":24349:24509   */\n      swap1\n      pop\n        /* \"#utility.yul\":22785:24516   */\n      swap7\n      swap6\n      pop\n      pop\n      pop\n      pop\n      pop\n      pop\n      jump\t// out\n        /* \"#utility.yul\":24522:25043   */\n    tag_43:\n        /* \"#utility.yul\":24685:24689   */\n      0x00\n        /* \"#utility.yul\":24723:24725   */\n      0x60\n        /* \"#utility.yul\":24712:24721   */\n      dup3\n        /* \"#utility.yul\":24708:24726   */\n      add\n        /* \"#utility.yul\":24700:24726   */\n      swap1\n      pop\n        /* \"#utility.yul\":24772:24781   */\n      dup2\n        /* \"#utility.yul\":24766:24770   */\n      dup2\n        /* \"#utility.yul\":24762:24782   */\n      sub\n        /* \"#utility.yul\":24758:24759   */\n      0x00\n        /* \"#utility.yul\":24747:24756   */\n      dup4\n        /* \"#utility.yul\":24743:24760   */\n      add\n        /* \"#utility.yul\":24736:24783   */\n      mstore\n        /* \"#utility.yul\":24800:24878   */\n      tag_530\n        /* \"#utility.yul\":24873:24877   */\n      dup2\n        /* \"#utility.yul\":24864:24870   */\n      dup7\n        /* \"#utility.yul\":24800:24878   */\n      tag_231\n      jump\t// in\n    tag_530:\n        /* \"#utility.yul\":24792:24878   */\n      swap1\n      pop\n        /* \"#utility.yul\":24888:24960   */\n      tag_531\n        /* \"#utility.yul\":24956:24958   */\n      0x20\n        /* \"#utility.yul\":24945:24954   */\n      dup4\n        /* \"#utility.yul\":24941:24959   */\n      add\n        /* \"#utility.yul\":24932:24938   */\n      dup6\n        /* \"#utility.yul\":24888:24960   */\n      tag_234\n      jump\t// in\n    tag_531:\n        /* \"#utility.yul\":24970:25036   */\n      tag_532\n        /* \"#utility.yul\":25032:25034   */\n      0x40\n        /* \"#utility.yul\":25021:25030   */\n      dup4\n        /* \"#utility.yul\":25017:25035   */\n      add\n        /* \"#utility.yul\":25008:25014   */\n      dup5\n        /* \"#utility.yul\":24970:25036   */\n      tag_236\n      jump\t// in\n    tag_532:\n        /* \"#utility.yul\":24522:25043   */\n      swap5\n      swap4\n      pop\n      pop\n      pop\n      pop\n      jump\t// out\n        /* \"#utility.yul\":25049:25523   */\n    tag_46:\n        /* \"#utility.yul\":25117:25123   */\n      0x00\n        /* \"#utility.yul\":25125:25131   */\n      dup1\n        /* \"#utility.yul\":25174:25176   */\n      0x40\n        /* \"#utility.yul\":25162:25171   */\n      dup4\n        /* \"#utility.yul\":25153:25160   */\n      dup6\n        /* \"#utility.yul\":25149:25172   */\n      sub\n        /* \"#utility.yul\":25145:25177   */\n      slt\n        /* \"#utility.yul\":25142:25261   */\n      iszero\n      tag_534\n      jumpi\n        /* \"#utility.yul\":25180:25259   */\n      tag_535\n      tag_215\n      jump\t// in\n    tag_535:\n        /* \"#utility.yul\":25142:25261   */\n    tag_534:\n        /* \"#utility.yul\":25300:25301   */\n      0x00\n        /* \"#utility.yul\":25325:25378   */\n      tag_536\n        /* \"#utility.yul\":25370:25377   */\n      dup6\n        /* \"#utility.yul\":25361:25367   */\n      dup3\n        /* \"#utility.yul\":25350:25359   */\n      dup7\n        /* \"#utility.yul\":25346:25368   */\n      add\n        /* \"#utility.yul\":25325:25378   */\n      tag_218\n      jump\t// in\n    tag_536:\n        /* \"#utility.yul\":25315:25378   */\n      swap3\n      pop\n        /* \"#utility.yul\":25271:25388   */\n      pop\n        /* \"#utility.yul\":25427:25429   */\n      0x20\n        /* \"#utility.yul\":25453:25506   */\n      tag_537\n        /* \"#utility.yul\":25498:25505   */\n      dup6\n        /* \"#utility.yul\":25489:25495   */\n      dup3\n        /* \"#utility.yul\":25478:25487   */\n      dup7\n        /* \"#utility.yul\":25474:25496   */\n      add\n        /* \"#utility.yul\":25453:25506   */\n      tag_218\n      jump\t// in\n    tag_537:\n        /* \"#utility.yul\":25443:25506   */\n      swap2\n      pop\n        /* \"#utility.yul\":25398:25516   */\n      pop\n        /* \"#utility.yul\":25049:25523   */\n      swap3\n      pop\n      swap3\n      swap1\n      pop\n      jump\t// out\n        /* \"#utility.yul\":25529:25709   */\n    tag_52:\n        /* \"#utility.yul\":25577:25654   */\n      0x4e487b7100000000000000000000000000000000000000000000000000000000\n        /* \"#utility.yul\":25574:25575   */\n      0x00\n        /* \"#utility.yul\":25567:25655   */\n      mstore\n        /* \"#utility.yul\":25674:25678   */\n      0x32\n        /* \"#utility.yul\":25671:25672   */\n      0x04\n        /* \"#utility.yul\":25664:25679   */\n      mstore\n        /* \"#utility.yul\":25698:25702   */\n      0x24\n        /* \"#utility.yul\":25695:25696   */\n      0x00\n        /* \"#utility.yul\":25688:25703   */\n      revert\n        /* \"#utility.yul\":25715:25935   */\n    tag_287:\n        /* \"#utility.yul\":25855:25889   */\n      0x4f6e6c7920746865206f776e65722063616e206164642063616e646964617465\n        /* \"#utility.yul\":25851:25852   */\n      0x00\n        /* \"#utility.yul\":25843:25849   */\n      dup3\n        /* \"#utility.yul\":25839:25853   */\n      add\n        /* \"#utility.yul\":25832:25890   */\n      mstore\n        /* \"#utility.yul\":25924:25927   */\n      0x7300000000000000000000000000000000000000000000000000000000000000\n        /* \"#utility.yul\":25919:25921   */\n      0x20\n        /* \"#utility.yul\":25911:25917   */\n      dup3\n        /* \"#utility.yul\":25907:25922   */\n      add\n        /* \"#utility.yul\":25900:25928   */\n      mstore\n        /* \"#utility.yul\":25715:25935   */\n      pop\n      jump\t// out\n        /* \"#utility.yul\":25941:26307   */\n    tag_288:\n        /* \"#utility.yul\":26083:26086   */\n      0x00\n        /* \"#utility.yul\":26104:26171   */\n      tag_541\n        /* \"#utility.yul\":26168:26170   */\n      0x21\n        /* \"#utility.yul\":26163:26166   */\n      dup4\n        /* \"#utility.yul\":26104:26171   */\n      tag_229\n      jump\t// in\n    tag_541:\n        /* \"#utility.yul\":26097:26171   */\n      swap2\n      pop\n        /* \"#utility.yul\":26180:26273   */\n      tag_542\n        /* \"#utility.yul\":26269:26272   */\n      dup3\n        /* \"#utility.yul\":26180:26273   */\n      tag_287\n      jump\t// in\n    tag_542:\n        /* \"#utility.yul\":26298:26300   */\n      0x40\n        /* \"#utility.yul\":26293:26296   */\n      dup3\n        /* \"#utility.yul\":26289:26301   */\n      add\n        /* \"#utility.yul\":26282:26301   */\n      swap1\n      pop\n        /* \"#utility.yul\":25941:26307   */\n      swap2\n      swap1\n      pop\n      jump\t// out\n        /* \"#utility.yul\":26313:26732   */\n    tag_56:\n        /* \"#utility.yul\":26479:26483   */\n      0x00\n        /* \"#utility.yul\":26517:26519   */\n      0x20\n        /* \"#utility.yul\":26506:26515   */\n      dup3\n        /* \"#utility.yul\":26502:26520   */\n      add\n        /* \"#utility.yul\":26494:26520   */\n      swap1\n      pop\n        /* \"#utility.yul\":26566:26575   */\n      dup2\n        /* \"#utility.yul\":26560:26564   */\n      dup2\n        /* \"#utility.yul\":26556:26576   */\n      sub\n        /* \"#utility.yul\":26552:26553   */\n      0x00\n        /* \"#utility.yul\":26541:26550   */\n      dup4\n        /* \"#utility.yul\":26537:26554   */\n      add\n        /* \"#utility.yul\":26530:26577   */\n      mstore\n        /* \"#utility.yul\":26594:26725   */\n      tag_544\n        /* \"#utility.yul\":26720:26724   */\n      dup2\n        /* \"#utility.yul\":26594:26725   */\n      tag_288\n      jump\t// in\n    tag_544:\n        /* \"#utility.yul\":26586:26725   */\n      swap1\n      pop\n        /* \"#utility.yul\":26313:26732   */\n      swap2\n      swap1\n      pop\n      jump\t// out\n        /* \"#utility.yul\":26738:26918   */\n    tag_289:\n        /* \"#utility.yul\":26786:26863   */\n      0x4e487b7100000000000000000000000000000000000000000000000000000000\n        /* \"#utility.yul\":26783:26784   */\n      0x00\n        /* \"#utility.yul\":26776:26864   */\n      mstore\n        /* \"#utility.yul\":26883:26887   */\n      0x22\n        /* \"#utility.yul\":26880:26881   */\n      0x04\n        /* \"#utility.yul\":26873:26888   */\n      mstore\n        /* \"#utility.yul\":26907:26911   */\n      0x24\n        /* \"#utility.yul\":26904:26905   */\n      0x00\n        /* \"#utility.yul\":26897:26912   */\n      revert\n        /* \"#utility.yul\":26924:27244   */\n    tag_65:\n        /* \"#utility.yul\":26968:26974   */\n      0x00\n        /* \"#utility.yul\":27005:27006   */\n      0x02\n        /* \"#utility.yul\":26999:27003   */\n      dup3\n        /* \"#utility.yul\":26995:27007   */\n      div\n        /* \"#utility.yul\":26985:27007   */\n      swap1\n      pop\n        /* \"#utility.yul\":27052:27053   */\n      0x01\n        /* \"#utility.yul\":27046:27050   */\n      dup3\n        /* \"#utility.yul\":27042:27054   */\n      and\n        /* \"#utility.yul\":27073:27091   */\n      dup1\n        /* \"#utility.yul\":27063:27144   */\n      tag_547\n      jumpi\n        /* \"#utility.yul\":27129:27133   */\n      0x7f\n        /* \"#utility.yul\":27121:27127   */\n      dup3\n        /* \"#utility.yul\":27117:27134   */\n      and\n        /* \"#utility.yul\":27107:27134   */\n      swap2\n      pop\n        /* \"#utility.yul\":27063:27144   */\n    tag_547:\n        /* \"#utility.yul\":27191:27193   */\n      0x20\n        /* \"#utility.yul\":27183:27189   */\n      dup3\n        /* \"#utility.yul\":27180:27194   */\n      lt\n        /* \"#utility.yul\":27160:27178   */\n      dup2\n        /* \"#utility.yul\":27157:27195   */\n      sub\n        /* \"#utility.yul\":27154:27238   */\n      tag_548\n      jumpi\n        /* \"#utility.yul\":27210:27228   */\n      tag_549\n      tag_289\n      jump\t// in\n    tag_549:\n        /* \"#utility.yul\":27154:27238   */\n    tag_548:\n        /* \"#utility.yul\":26975:27244   */\n      pop\n        /* \"#utility.yul\":26924:27244   */\n      swap2\n      swap1\n      pop\n      jump\t// out\n        /* \"#utility.yul\":27250:27391   */\n    tag_290:\n        /* \"#utility.yul\":27299:27303   */\n      0x00\n        /* \"#utility.yul\":27322:27325   */\n      dup2\n        /* \"#utility.yul\":27314:27325   */\n      swap1\n      pop\n        /* \"#utility.yul\":27345:27348   */\n      dup2\n        /* \"#utility.yul\":27342:27343   */\n      0x00\n        /* \"#utility.yul\":27335:27349   */\n      mstore\n        /* \"#utility.yul\":27379:27383   */\n      0x20\n        /* \"#utility.yul\":27376:27377   */\n      0x00\n        /* \"#utility.yul\":27366:27384   */\n      keccak256\n        /* \"#utility.yul\":27358:27384   */\n      swap1\n      pop\n        /* \"#utility.yul\":27250:27391   */\n      swap2\n      swap1\n      pop\n      jump\t// out\n        /* \"#utility.yul\":27397:27490   */\n    tag_291:\n        /* \"#utility.yul\":27434:27440   */\n      0x00\n        /* \"#utility.yul\":27481:27483   */\n      0x20\n        /* \"#utility.yul\":27476:27478   */\n      0x1f\n        /* \"#utility.yul\":27469:27474   */\n      dup4\n        /* \"#utility.yul\":27465:27479   */\n      add\n        /* \"#utility.yul\":27461:27484   */\n      div\n        /* \"#utility.yul\":27451:27484   */\n      swap1\n      pop\n        /* \"#utility.yul\":27397:27490   */\n      swap2\n      swap1\n      pop\n      jump\t// out\n        /* \"#utility.yul\":27496:27603   */\n    tag_292:\n        /* \"#utility.yul\":27540:27548   */\n      0x00\n        /* \"#utility.yul\":27590:27595   */\n      dup3\n        /* \"#utility.yul\":27584:27588   */\n      dup3\n        /* \"#utility.yul\":27580:27596   */\n      shl\n        /* \"#utility.yul\":27559:27596   */\n      swap1\n      pop\n        /* \"#utility.yul\":27496:27603   */\n      swap3\n      swap2\n      pop\n      pop\n      jump\t// out\n        /* \"#utility.yul\":27609:28002   */\n    tag_293:\n        /* \"#utility.yul\":27678:27684   */\n      0x00\n        /* \"#utility.yul\":27728:27729   */\n      0x08\n        /* \"#utility.yul\":27716:27726   */\n      dup4\n        /* \"#utility.yul\":27712:27730   */\n      mul\n        /* \"#utility.yul\":27751:27848   */\n      tag_554\n        /* \"#utility.yul\":27781:27847   */\n      0xffffffffffffffffffffffffffffffffffffffffffffffffffffffffffffffff\n        /* \"#utility.yul\":27770:27779   */\n      dup3\n        /* \"#utility.yul\":27751:27848   */\n      tag_292\n      jump\t// in\n    tag_554:\n        /* \"#utility.yul\":27869:27908   */\n      tag_555\n        /* \"#utility.yul\":27899:27907   */\n      dup7\n        /* \"#utility.yul\":27888:27897   */\n      dup4\n        /* \"#utility.yul\":27869:27908   */\n      tag_292\n      jump\t// in\n    tag_555:\n        /* \"#utility.yul\":27857:27908   */\n      swap6\n      pop\n        /* \"#utility.yul\":27941:27945   */\n      dup1\n        /* \"#utility.yul\":27937:27946   */\n      not\n        /* \"#utility.yul\":27930:27935   */\n      dup5\n        /* \"#utility.yul\":27926:27947   */\n      and\n        /* \"#utility.yul\":27917:27947   */\n      swap4\n      pop\n        /* \"#utility.yul\":27990:27994   */\n      dup1\n        /* \"#utility.yul\":27980:27988   */\n      dup7\n        /* \"#utility.yul\":27976:27995   */\n      and\n        /* \"#utility.yul\":27969:27974   */\n      dup5\n        /* \"#utility.yul\":27966:27996   */\n      or\n        /* \"#utility.yul\":27956:27996   */\n      swap3\n      pop\n        /* \"#utility.yul\":27685:28002   */\n      pop\n      pop\n        /* \"#utility.yul\":27609:28002   */\n      swap4\n      swap3\n      pop\n      pop\n      pop\n      jump\t// out\n        /* \"#utility.yul\":28008:28068   */\n    tag_294:\n        /* \"#utility.yul\":28036:28039   */\n      0x00\n        /* \"#utility.yul\":28057:28062   */\n      dup2\n        /* \"#utility.yul\":28050:28062   */\n      swap1\n      pop\n        /* \"#utility.yul\":28008:28068   */\n      swap2\n      swap1\n      pop\n      jump\t// out\n        /* \"#utility.yul\":28074:28216   */\n    tag_295:\n        /* \"#utility.yul\":28124:28133   */\n      0x00\n        /* \"#utility.yul\":28157:28210   */\n      tag_558\n        /* \"#utility.yul\":28175:28209   */\n      tag_559\n        /* \"#utility.yul\":28184:28208   */\n      tag_560\n        /* \"#utility.yul\":28202:28207   */\n      dup5\n        /* \"#utility.yul\":28184:28208   */\n      tag_212\n      jump\t// in\n    tag_560:\n        /* \"#utility.yul\":28175:28209   */\n      tag_294\n      jump\t// in\n    tag_559:\n        /* \"#utility.yul\":28157:28210   */\n      tag_212\n      jump\t// in\n    tag_558:\n        /* \"#utility.yul\":28144:28210   */\n      swap1\n      pop\n        /* \"#utility.yul\":28074:28216   */\n      swap2\n      swap1\n      pop\n      jump\t// out\n        /* \"#utility.yul\":28222:28297   */\n    tag_296:\n        /* \"#utility.yul\":28265:28268   */\n      0x00\n        /* \"#utility.yul\":28286:28291   */\n      dup2\n        /* \"#utility.yul\":28279:28291   */\n      swap1\n      pop\n        /* \"#utility.yul\":28222:28297   */\n      swap2\n      swap1\n      pop\n      jump\t// out\n        /* \"#utility.yul\":28303:28572   */\n    tag_297:\n        /* \"#utility.yul\":28413:28452   */\n      tag_563\n        /* \"#utility.yul\":28444:28451   */\n      dup4\n        /* \"#utility.yul\":28413:28452   */\n      tag_295\n      jump\t// in\n    tag_563:\n        /* \"#utility.yul\":28474:28565   */\n      tag_564\n        /* \"#utility.yul\":28523:28564   */\n      tag_565\n        /* \"#utility.yul\":28547:28563   */\n      dup3\n        /* \"#utility.yul\":28523:28564   */\n      tag_296\n      jump\t// in\n    tag_565:\n        /* \"#utility.yul\":28515:28521   */\n      dup5\n        /* \"#utility.yul\":28508:28512   */\n      dup5\n        /* \"#utility.yul\":28502:28513   */\n      sload\n        /* \"#utility.yul\":28474:28565   */\n      tag_293\n      jump\t// in\n    tag_564:\n        /* \"#utility.yul\":28468:28472   */\n      dup3\n        /* \"#utility.yul\":28461:28566   */\n      sstore\n        /* \"#utility.yul\":28379:28572   */\n      pop\n        /* \"#utility.yul\":28303:28572   */\n      pop\n      pop\n      pop\n      jump\t// out\n        /* \"#utility.yul\":28578:28651   */\n    tag_298:\n        /* \"#utility.yul\":28623:28626   */\n      0x00\n        /* \"#utility.yul\":28578:28651   */\n      swap1\n      jump\t// out\n        /* \"#utility.yul\":28657:28846   */\n    tag_299:\n        /* \"#utility.yul\":28734:28766   */\n      tag_568\n      tag_298\n      jump\t// in\n    tag_568:\n        /* \"#utility.yul\":28775:28840   */\n      tag_569\n        /* \"#utility.yul\":28833:28839   */\n      dup2\n        /* \"#utility.yul\":28825:28831   */\n      dup5\n        /* \"#utility.yul\":28819:28823   */\n      dup5\n        /* \"#utility.yul\":28775:28840   */\n      tag_297\n      jump\t// in\n    tag_569:\n        /* \"#utility.yul\":28710:28846   */\n      pop\n        /* \"#utility.yul\":28657:28846   */\n      pop\n      pop\n      jump\t// out\n        /* \"#utility.yul\":28852:29038   */\n    tag_300:\n        /* \"#utility.yul\":28912:29032   */\n    tag_571:\n        /* \"#utility.yul\":28929:28932   */\n      dup2\n        /* \"#utility.yul\":28922:28927   */\n      dup2\n        /* \"#utility.yul\":28919:28933   */\n      lt\n        /* \"#utility.yul\":28912:29032   */\n      iszero\n      tag_573\n      jumpi\n        /* \"#utility.yul\":28983:29022   */\n      tag_574\n        /* \"#utility.yul\":29020:29021   */\n      0x00\n        /* \"#utility.yul\":29013:29018   */\n      dup3\n        /* \"#utility.yul\":28983:29022   */\n      tag_299\n      jump\t// in\n    tag_574:\n        /* \"#utility.yul\":28956:28957   */\n      0x01\n        /* \"#utility.yul\":28949:28954   */\n      dup2\n        /* \"#utility.yul\":28945:28958   */\n      add\n        /* \"#utility.yul\":28936:28958   */\n      swap1\n      pop\n        /* \"#utility.yul\":28912:29032   */\n      jump(tag_571)\n    tag_573:\n        /* \"#utility.yul\":28852:29038   */\n      pop\n      pop\n      jump\t// out\n        /* \"#utility.yul\":29044:29587   */\n    tag_301:\n        /* \"#utility.yul\":29145:29147   */\n      0x1f\n        /* \"#utility.yul\":29140:29143   */\n      dup3\n        /* \"#utility.yul\":29137:29148   */\n      gt\n        /* \"#utility.yul\":29134:29580   */\n      iszero\n      tag_576\n      jumpi\n        /* \"#utility.yul\":29179:29217   */\n      tag_577\n        /* \"#utility.yul\":29211:29216   */\n      dup2\n        /* \"#utility.yul\":29179:29217   */\n      tag_290\n      jump\t// in\n    tag_577:\n        /* \"#utility.yul\":29263:29292   */\n      tag_578\n        /* \"#utility.yul\":29281:29291   */\n      dup5\n        /* \"#utility.yul\":29263:29292   */\n      tag_291\n      jump\t// in\n    tag_578:\n        /* \"#utility.yul\":29253:29261   */\n      dup2\n        /* \"#utility.yul\":29249:29293   */\n      add\n        /* \"#utility.yul\":29446:29448   */\n      0x20\n        /* \"#utility.yul\":29434:29444   */\n      dup6\n        /* \"#utility.yul\":29431:29449   */\n      lt\n        /* \"#utility.yul\":29428:29477   */\n      iszero\n      tag_579\n      jumpi\n        /* \"#utility.yul\":29467:29475   */\n      dup2\n        /* \"#utility.yul\":29452:29475   */\n      swap1\n      pop\n        /* \"#utility.yul\":29428:29477   */\n    tag_579:\n        /* \"#utility.yul\":29490:29570   */\n      tag_580\n        /* \"#utility.yul\":29546:29568   */\n      tag_581\n        /* \"#utility.yul\":29564:29567   */\n      dup6\n        /* \"#utility.yul\":29546:29568   */\n      tag_291\n      jump\t// in\n    tag_581:\n        /* \"#utility.yul\":29536:29544   */\n      dup4\n        /* \"#utility.yul\":29532:29569   */\n      add\n        /* \"#utility.yul\":29519:29530   */\n      dup3\n        /* \"#utility.yul\":29490:29570   */\n      tag_300\n      jump\t// in\n    tag_580:\n        /* \"#utility.yul\":29149:29580   */\n      pop\n      pop\n        /* \"#utility.yul\":29134:29580   */\n    tag_576:\n        /* \"#utility.yul\":29044:29587   */\n      pop\n      pop\n      pop\n      jump\t// out\n        /* \"#utility.yul\":29593:29710   */\n    tag_302:\n        /* \"#utility.yul\":29647:29655   */\n      0x00\n        /* \"#utility.yul\":29697:29702   */\n      dup3\n        /* \"#utility.yul\":29691:29695   */\n      dup3\n        /* \"#utility.yul\":29687:29703   */\n      shr\n        /* \"#utility.yul\":29666:29703   */\n      swap1\n      pop\n        /* \"#utility.yul\":29593:29710   */\n      swap3\n      swap2\n      pop\n      pop\n      jump\t// out\n        /* \"#utility.yul\":29716:29885   */\n    tag_303:\n        /* \"#utility.yul\":29760:29766   */\n      0x00\n        /* \"#utility.yul\":29793:29844   */\n      tag_584\n        /* \"#utility.yul\":29841:29842   */\n      0x00\n        /* \"#utility.yul\":29837:29843   */\n      not\n        /* \"#utility.yul\":29829:29834   */\n      dup5\n        /* \"#utility.yul\":29826:29827   */\n      0x08\n        /* \"#utility.yul\":29822:29835   */\n      mul\n        /* \"#utility.yul\":29793:29844   */\n      tag_302\n      jump\t// in\n    tag_584:\n        /* \"#utility.yul\":29789:29845   */\n      not\n        /* \"#utility.yul\":29874:29878   */\n      dup1\n        /* \"#utility.yul\":29868:29872   */\n      dup4\n        /* \"#utility.yul\":29864:29879   */\n      and\n        /* \"#utility.yul\":29854:29879   */\n      swap2\n      pop\n        /* \"#utility.yul\":29767:29885   */\n      pop\n        /* \"#utility.yul\":29716:29885   */\n      swap3\n      swap2\n      pop\n      pop\n      jump\t// out\n        /* \"#utility.yul\":29890:30185   */\n    tag_304:\n        /* \"#utility.yul\":29966:29970   */\n      0x00\n        /* \"#utility.yul\":30112:30141   */\n      tag_586\n        /* \"#utility.yul\":30137:30140   */\n      dup4\n        /* \"#utility.yul\":30131:30135   */\n      dup4\n        /* \"#utility.yul\":30112:30141   */\n      tag_303\n      jump\t// in\n    tag_586:\n        /* \"#utility.yul\":30104:30141   */\n      swap2\n      pop\n        /* \"#utility.yul\":30174:30177   */\n      dup3\n        /* \"#utility.yul\":30171:30172   */\n      0x02\n        /* \"#utility.yul\":30167:30178   */\n      mul\n        /* \"#utility.yul\":30161:30165   */\n      dup3\n        /* \"#utility.yul\":30158:30179   */\n      or\n        /* \"#utility.yul\":30150:30179   */\n      swap1\n      pop\n        /* \"#utility.yul\":29890:30185   */\n      swap3\n      swap2\n      pop\n      pop\n      jump\t// out\n        /* \"#utility.yul\":30190:31585   */\n    tag_59:\n        /* \"#utility.yul\":30307:30344   */\n      tag_588\n        /* \"#utility.yul\":30340:30343   */\n      dup3\n        /* \"#utility.yul\":30307:30344   */\n      tag_228\n      jump\t// in\n    tag_588:\n        /* \"#utility.yul\":30409:30427   */\n      0xffffffffffffffff\n        /* \"#utility.yul\":30401:30407   */\n      dup2\n        /* \"#utility.yul\":30398:30428   */\n      gt\n        /* \"#utility.yul\":30395:30451   */\n      iszero\n      tag_589\n      jumpi\n        /* \"#utility.yul\":30431:30449   */\n      tag_590\n      tag_72\n      jump\t// in\n    tag_590:\n        /* \"#utility.yul\":30395:30451   */\n    tag_589:\n        /* \"#utility.yul\":30475:30513   */\n      tag_591\n        /* \"#utility.yul\":30507:30511   */\n      dup3\n        /* \"#utility.yul\":30501:30512   */\n      sload\n        /* \"#utility.yul\":30475:30513   */\n      tag_65\n      jump\t// in\n    tag_591:\n        /* \"#utility.yul\":30560:30627   */\n      tag_592\n        /* \"#utility.yul\":30620:30626   */\n      dup3\n        /* \"#utility.yul\":30612:30618   */\n      dup3\n        /* \"#utility.yul\":30606:30610   */\n      dup6\n        /* \"#utility.yul\":30560:30627   */\n      tag_301\n      jump\t// in\n    tag_592:\n        /* \"#utility.yul\":30654:30655   */\n      0x00\n        /* \"#utility.yul\":30678:30682   */\n      0x20\n        /* \"#utility.yul\":30665:30682   */\n      swap1\n      pop\n        /* \"#utility.yul\":30710:30712   */\n      0x1f\n        /* \"#utility.yul\":30702:30708   */\n      dup4\n        /* \"#utility.yul\":30699:30713   */\n      gt\n        /* \"#utility.yul\":30727:30728   */\n      0x01\n        /* \"#utility.yul\":30722:31340   */\n      dup2\n      eq\n      tag_594\n      jumpi\n        /* \"#utility.yul\":31384:31385   */\n      0x00\n        /* \"#utility.yul\":31401:31407   */\n      dup5\n        /* \"#utility.yul\":31398:31475   */\n      iszero\n      tag_595\n      jumpi\n        /* \"#utility.yul\":31450:31459   */\n      dup3\n        /* \"#utility.yul\":31445:31448   */\n      dup8\n        /* \"#utility.yul\":31441:31460   */\n      add\n        /* \"#utility.yul\":31435:31461   */\n      mload\n        /* \"#utility.yul\":31426:31461   */\n      swap1\n      pop\n        /* \"#utility.yul\":31398:31475   */\n    tag_595:\n        /* \"#utility.yul\":31501:31568   */\n      tag_596\n        /* \"#utility.yul\":31561:31567   */\n      dup6\n        /* \"#utility.yul\":31554:31559   */\n      dup3\n        /* \"#utility.yul\":31501:31568   */\n      tag_304\n      jump\t// in\n    tag_596:\n        /* \"#utility.yul\":31495:31499   */\n      dup7\n        /* \"#utility.yul\":31488:31569   */\n      sstore\n        /* \"#utility.yul\":31357:31579   */\n      pop\n        /* \"#utility.yul\":30692:31579   */\n      jump(tag_593)\n        /* \"#utility.yul\":30722:31340   */\n    tag_594:\n        /* \"#utility.yul\":30774:30778   */\n      0x1f\n        /* \"#utility.yul\":30770:30779   */\n      not\n        /* \"#utility.yul\":30762:30768   */\n      dup5\n        /* \"#utility.yul\":30758:30780   */\n      and\n        /* \"#utility.yul\":30808:30845   */\n      tag_597\n        /* \"#utility.yul\":30840:30844   */\n      dup7\n        /* \"#utility.yul\":30808:30845   */\n      tag_290\n      jump\t// in\n    tag_597:\n        /* \"#utility.yul\":30867:30868   */\n      0x00\n        /* \"#utility.yul\":30881:31089   */\n    tag_598:\n        /* \"#utility.yul\":30895:30902   */\n      dup3\n        /* \"#utility.yul\":30892:30893   */\n      dup2\n        /* \"#utility.yul\":30889:30903   */\n      lt\n        /* \"#utility.yul\":30881:31089   */\n      iszero\n      tag_600\n      jumpi\n        /* \"#utility.yul\":30974:30983   */\n      dup5\n        /* \"#utility.yul\":30969:30972   */\n      dup10\n        /* \"#utility.yul\":30965:30984   */\n      add\n        /* \"#utility.yul\":30959:30985   */\n      mload\n        /* \"#utility.yul\":30951:30957   */\n      dup3\n        /* \"#utility.yul\":30944:30986   */\n      sstore\n        /* \"#utility.yul\":31025:31026   */\n      0x01\n        /* \"#utility.yul\":31017:31023   */\n      dup3\n        /* \"#utility.yul\":31013:31027   */\n      add\n        /* \"#utility.yul\":31003:31027   */\n      swap2\n      pop\n        /* \"#utility.yul\":31072:31074   */\n      0x20\n        /* \"#utility.yul\":31061:31070   */\n      dup6\n        /* \"#utility.yul\":31057:31075   */\n      add\n        /* \"#utility.yul\":31044:31075   */\n      swap5\n      pop\n        /* \"#utility.yul\":30918:30922   */\n      0x20\n        /* \"#utility.yul\":30915:30916   */\n      dup2\n        /* \"#utility.yul\":30911:30923   */\n      add\n        /* \"#utility.yul\":30906:30923   */\n      swap1\n      pop\n        /* \"#utility.yul\":30881:31089   */\n      jump(tag_598)\n    tag_600:\n        /* \"#utility.yul\":31117:31123   */\n      dup7\n        /* \"#utility.yul\":31108:31115   */\n      dup4\n        /* \"#utility.yul\":31105:31124   */\n      lt\n        /* \"#utility.yul\":31102:31281   */\n      iszero\n      tag_601\n      jumpi\n        /* \"#utility.yul\":31175:31184   */\n      dup5\n        /* \"#utility.yul\":31170:31173   */\n      dup10\n        /* \"#utility.yul\":31166:31185   */\n      add\n        /* \"#utility.yul\":31160:31186   */\n      mload\n        /* \"#utility.yul\":31218:31266   */\n      tag_602\n        /* \"#utility.yul\":31260:31264   */\n      0x1f\n        /* \"#utility.yul\":31252:31258   */\n      dup10\n        /* \"#utility.yul\":31248:31265   */\n      and\n        /* \"#utility.yul\":31237:31246   */\n      dup3\n        /* \"#utility.yul\":31218:31266   */\n      tag_303\n      jump\t// in\n    tag_602:\n        /* \"#utility.yul\":31210:31216   */\n      dup4\n        /* \"#utility.yul\":31203:31267   */\n      sstore\n        /* \"#utility.yul\":31125:31281   */\n      pop\n        /* \"#utility.yul\":31102:31281   */\n    tag_601:\n        /* \"#utility.yul\":31327:31328   */\n      0x01\n        /* \"#utility.yul\":31323:31324   */\n      0x02\n        /* \"#utility.yul\":31315:31321   */\n      dup9\n        /* \"#utility.yul\":31311:31325   */\n      mul\n        /* \"#utility.yul\":31307:31329   */\n      add\n        /* \"#utility.yul\":31301:31305   */\n      dup9\n        /* \"#utility.yul\":31294:31330   */\n      sstore\n        /* \"#utility.yul\":30729:31340   */\n      pop\n      pop\n      pop\n        /* \"#utility.yul\":30692:31579   */\n    tag_593:\n      pop\n        /* \"#utility.yul\":30282:31585   */\n      pop\n      pop\n      pop\n        /* \"#utility.yul\":30190:31585   */\n      pop\n      pop\n      jump\t// out\n        /* \"#utility.yul\":31591:31771   */\n    tag_305:\n        /* \"#utility.yul\":31639:31716   */\n      0x4e487b7100000000000000000000000000000000000000000000000000000000\n        /* \"#utility.yul\":31636:31637   */\n      0x00\n        /* \"#utility.yul\":31629:31717   */\n      mstore\n        /* \"#utility.yul\":31736:31740   */\n      0x11\n        /* \"#utility.yul\":31733:31734   */\n      0x04\n        /* \"#utility.yul\":31726:31741   */\n      mstore\n        /* \"#utility.yul\":31760:31764   */\n      0x24\n        /* \"#utility.yul\":31757:31758   */\n      0x00\n        /* \"#utility.yul\":31750:31765   */\n      revert\n        /* \"#utility.yul\":31777:31971   */\n    tag_100:\n        /* \"#utility.yul\":31817:31821   */\n      0x00\n        /* \"#utility.yul\":31837:31857   */\n      tag_605\n        /* \"#utility.yul\":31855:31856   */\n      dup3\n        /* \"#utility.yul\":31837:31857   */\n      tag_212\n      jump\t// in\n    tag_605:\n        /* \"#utility.yul\":31832:31857   */\n      swap2\n      pop\n        /* \"#utility.yul\":31871:31891   */\n      tag_606\n        /* \"#utility.yul\":31889:31890   */\n      dup4\n        /* \"#utility.yul\":31871:31891   */\n      tag_212\n      jump\t// in\n    tag_606:\n        /* \"#utility.yul\":31866:31891   */\n      swap3\n      pop\n        /* \"#utility.yul\":31915:31916   */\n      dup3\n        /* \"#utility.yul\":31912:31913   */\n      dup3\n        /* \"#utility.yul\":31908:31917   */\n      sub\n        /* \"#utility.yul\":31900:31917   */\n      swap1\n      pop\n        /* \"#utility.yul\":31939:31940   */\n      dup2\n        /* \"#utility.yul\":31933:31937   */\n      dup2\n        /* \"#utility.yul\":31930:31941   */\n      gt\n        /* \"#utility.yul\":31927:31964   */\n      iszero\n      tag_607\n      jumpi\n        /* \"#utility.yul\":31944:31962   */\n      tag_608\n      tag_305\n      jump\t// in\n    tag_608:\n        /* \"#utility.yul\":31927:31964   */\n    tag_607:\n        /* \"#utility.yul\":31777:31971   */\n      swap3\n      swap2\n      pop\n      pop\n      jump\t// out\n        /* \"#utility.yul\":31977:32510   */\n    tag_102:\n        /* \"#utility.yul\":32146:32150   */\n      0x00\n        /* \"#utility.yul\":32184:32186   */\n      0x60\n        /* \"#utility.yul\":32173:32182   */\n      dup3\n        /* \"#utility.yul\":32169:32187   */\n      add\n        /* \"#utility.yul\":32161:32187   */\n      swap1\n      pop\n        /* \"#utility.yul\":32197:32268   */\n      tag_610\n        /* \"#utility.yul\":32265:32266   */\n      0x00\n        /* \"#utility.yul\":32254:32263   */\n      dup4\n        /* \"#utility.yul\":32250:32267   */\n      add\n        /* \"#utility.yul\":32241:32247   */\n      dup7\n        /* \"#utility.yul\":32197:32268   */\n      tag_213\n      jump\t// in\n    tag_610:\n        /* \"#utility.yul\":32315:32324   */\n      dup2\n        /* \"#utility.yul\":32309:32313   */\n      dup2\n        /* \"#utility.yul\":32305:32325   */\n      sub\n        /* \"#utility.yul\":32300:32302   */\n      0x20\n        /* \"#utility.yul\":32289:32298   */\n      dup4\n        /* \"#utility.yul\":32285:32303   */\n      add\n        /* \"#utility.yul\":32278:32326   */\n      mstore\n        /* \"#utility.yul\":32343:32421   */\n      tag_611\n        /* \"#utility.yul\":32416:32420   */\n      dup2\n        /* \"#utility.yul\":32407:32413   */\n      dup6\n        /* \"#utility.yul\":32343:32421   */\n      tag_231\n      jump\t// in\n    tag_611:\n        /* \"#utility.yul\":32335:32421   */\n      swap1\n      pop\n        /* \"#utility.yul\":32431:32503   */\n      tag_612\n        /* \"#utility.yul\":32499:32501   */\n      0x40\n        /* \"#utility.yul\":32488:32497   */\n      dup4\n        /* \"#utility.yul\":32484:32502   */\n      add\n        /* \"#utility.yul\":32475:32481   */\n      dup5\n        /* \"#utility.yul\":32431:32503   */\n      tag_234\n      jump\t// in\n    tag_612:\n        /* \"#utility.yul\":31977:32510   */\n      swap5\n      swap4\n      pop\n      pop\n      pop\n      pop\n      jump\t// out\n        /* \"#utility.yul\":32516:32684   */\n    tag_306:\n        /* \"#utility.yul\":32656:32676   */\n      0x506f6c6c206973206e6f74206163746976650000000000000000000000000000\n        /* \"#utility.yul\":32652:32653   */\n      0x00\n        /* \"#utility.yul\":32644:32650   */\n      dup3\n        /* \"#utility.yul\":32640:32654   */\n      add\n        /* \"#utility.yul\":32633:32677   */\n      mstore\n        /* \"#utility.yul\":32516:32684   */\n      pop\n      jump\t// out\n        /* \"#utility.yul\":32690:33056   */\n    tag_307:\n        /* \"#utility.yul\":32832:32835   */\n      0x00\n        /* \"#utility.yul\":32853:32920   */\n      tag_615\n        /* \"#utility.yul\":32917:32919   */\n      0x12\n        /* \"#utility.yul\":32912:32915   */\n      dup4\n        /* \"#utility.yul\":32853:32920   */\n      tag_229\n      jump\t// in\n    tag_615:\n        /* \"#utility.yul\":32846:32920   */\n      swap2\n      pop\n        /* \"#utility.yul\":32929:33022   */\n      tag_616\n        /* \"#utility.yul\":33018:33021   */\n      dup3\n        /* \"#utility.yul\":32929:33022   */\n      tag_306\n      jump\t// in\n    tag_616:\n        /* \"#utility.yul\":33047:33049   */\n      0x20\n        /* \"#utility.yul\":33042:33045   */\n      dup3\n        /* \"#utility.yul\":33038:33050   */\n      add\n        /* \"#utility.yul\":33031:33050   */\n      swap1\n      pop\n        /* \"#utility.yul\":32690:33056   */\n      swap2\n      swap1\n      pop\n      jump\t// out\n        /* \"#utility.yul\":33062:33481   */\n    tag_199:\n        /* \"#utility.yul\":33228:33232   */\n      0x00\n        /* \"#utility.yul\":33266:33268   */\n      0x20\n        /* \"#utility.yul\":33255:33264   */\n      dup3\n        /* \"#utility.yul\":33251:33269   */\n      add\n        /* \"#utility.yul\":33243:33269   */\n      swap1\n      pop\n        /* \"#utility.yul\":33315:33324   */\n      dup2\n        /* \"#utility.yul\":33309:33313   */\n      dup2\n        /* \"#utility.yul\":33305:33325   */\n      sub\n        /* \"#utility.yul\":33301:33302   */\n      0x00\n        /* \"#utility.yul\":33290:33299   */\n      dup4\n        /* \"#utility.yul\":33286:33303   */\n      add\n        /* \"#utility.yul\":33279:33326   */\n      mstore\n        /* \"#utility.yul\":33343:33474   */\n      tag_618\n        /* \"#utility.yul\":33469:33473   */\n      dup2\n        /* \"#utility.yul\":33343:33474   */\n      tag_307\n      jump\t// in\n    tag_618:\n        /* \"#utility.yul\":33335:33474   */\n      swap1\n      pop\n        /* \"#utility.yul\":33062:33481   */\n      swap2\n      swap1\n      pop\n      jump\t// out\n        /* \"#utility.yul\":33487:33659   */\n    tag_308:\n        /* \"#utility.yul\":33627:33651   */\n      0x596f75206861766520616c726561647920766f74656400000000000000000000\n        /* \"#utility.yul\":33623:33624   */\n      0x00\n        /* \"#utility.yul\":33615:33621   */\n      dup3\n        /* \"#utility.yul\":33611:33625   */\n      add\n        /* \"#utility.yul\":33604:33652   */\n      mstore\n        /* \"#utility.yul\":33487:33659   */\n      pop\n      jump\t// out\n        /* \"#utility.yul\":33665:34031   */\n    tag_309:\n        /* \"#utility.yul\":33807:33810   */\n      0x00\n        /* \"#utility.yul\":33828:33895   */\n      tag_621\n        /* \"#utility.yul\":33892:33894   */\n      0x16\n        /* \"#utility.yul\":33887:33890   */\n      dup4\n        /* \"#utility.yul\":33828:33895   */\n      tag_229\n      jump\t// in\n    tag_621:\n        /* \"#utility.yul\":33821:33895   */\n      swap2\n      pop\n        /* \"#utility.yul\":33904:33997   */\n      tag_622\n        /* \"#utility.yul\":33993:33996   */\n      dup3\n        /* \"#utility.yul\":33904:33997   */\n      tag_308\n      jump\t// in\n    tag_622:\n        /* \"#utility.yul\":34022:34024   */\n      0x20\n        /* \"#utility.yul\":34017:34020   */\n      dup3\n        /* \"#utility.yul\":34013:34025   */\n      add\n        /* \"#utility.yul\":34006:34025   */\n      swap1\n      pop\n        /* \"#utility.yul\":33665:34031   */\n      swap2\n      swap1\n      pop\n      jump\t// out\n        /* \"#utility.yul\":34037:34456   */\n    tag_202:\n        /* \"#utility.yul\":34203:34207   */\n      0x00\n        /* \"#utility.yul\":34241:34243   */\n      0x20\n        /* \"#utility.yul\":34230:34239   */\n      dup3\n        /* \"#utility.yul\":34226:34244   */\n      add\n        /* \"#utility.yul\":34218:34244   */\n      swap1\n      pop\n        /* \"#utility.yul\":34290:34299   */\n      dup2\n        /* \"#utility.yul\":34284:34288   */\n      dup2\n        /* \"#utility.yul\":34280:34300   */\n      sub\n        /* \"#utility.yul\":34276:34277   */\n      0x00\n        /* \"#utility.yul\":34265:34274   */\n      dup4\n        /* \"#utility.yul\":34261:34278   */\n      add\n        /* \"#utility.yul\":34254:34301   */\n      mstore\n        /* \"#utility.yul\":34318:34449   */\n      tag_624\n        /* \"#utility.yul\":34444:34448   */\n      dup2\n        /* \"#utility.yul\":34318:34449   */\n      tag_309\n      jump\t// in\n    tag_624:\n        /* \"#utility.yul\":34310:34449   */\n      swap1\n      pop\n        /* \"#utility.yul\":34037:34456   */\n      swap2\n      swap1\n      pop\n      jump\t// out\n        /* \"#utility.yul\":34462:34635   */\n    tag_310:\n        /* \"#utility.yul\":34602:34627   */\n      0x496e76616c69642063616e64696461746520696e646578000000000000000000\n        /* \"#utility.yul\":34598:34599   */\n      0x00\n        /* \"#utility.yul\":34590:34596   */\n      dup3\n        /* \"#utility.yul\":34586:34600   */\n      add\n        /* \"#utility.yul\":34579:34628   */\n      mstore\n        /* \"#utility.yul\":34462:34635   */\n      pop\n      jump\t// out\n        /* \"#utility.yul\":34641:35007   */\n    tag_311:\n        /* \"#utility.yul\":34783:34786   */\n      0x00\n        /* \"#utility.yul\":34804:34871   */\n      tag_627\n        /* \"#utility.yul\":34868:34870   */\n      0x17\n        /* \"#utility.yul\":34863:34866   */\n      dup4\n        /* \"#utility.yul\":34804:34871   */\n      tag_229\n      jump\t// in\n    tag_627:\n        /* \"#utility.yul\":34797:34871   */\n      swap2\n      pop\n        /* \"#utility.yul\":34880:34973   */\n      tag_628\n        /* \"#utility.yul\":34969:34972   */\n      dup3\n        /* \"#utility.yul\":34880:34973   */\n      tag_310\n      jump\t// in\n    tag_628:\n        /* \"#utility.yul\":34998:35000   */\n      0x20\n        /* \"#utility.yul\":34993:34996   */\n      dup3\n        /* \"#utility.yul\":34989:35001   */\n      add\n        /* \"#utility.yul\":34982:35001   */\n      swap1\n      pop\n        /* \"#utility.yul\":34641:35007   */\n      swap2\n      swap1\n      pop\n      jump\t// out\n        /* \"#utility.yul\":35013:35432   */\n    tag_205:\n        /* \"#utility.yul\":35179:35183   */\n      0x00\n        /* \"#utility.yul\":35217:35219   */\n      0x20\n        /* \"#utility.yul\":35206:35215   */\n      dup3\n        /* \"#utility.yul\":35202:35220   */\n      add\n        /* \"#utility.yul\":35194:35220   */\n      swap1\n      pop\n        /* \"#utility.yul\":35266:35275   */\n      dup2\n        /* \"#utility.yul\":35260:35264   */\n      dup2\n        /* \"#utility.yul\":35256:35276   */\n      sub\n        /* \"#utility.yul\":35252:35253   */\n      0x00\n        /* \"#utility.yul\":35241:35250   */\n      dup4\n        /* \"#utility.yul\":35237:35254   */\n      add\n        /* \"#utility.yul\":35230:35277   */\n      mstore\n        /* \"#utility.yul\":35294:35425   */\n      tag_630\n        /* \"#utility.yul\":35420:35424   */\n      dup2\n        /* \"#utility.yul\":35294:35425   */\n      tag_311\n      jump\t// in\n    tag_630:\n        /* \"#utility.yul\":35286:35425   */\n      swap1\n      pop\n        /* \"#utility.yul\":35013:35432   */\n      swap2\n      swap1\n      pop\n      jump\t// out\n        /* \"#utility.yul\":35438:35671   */\n    tag_210:\n        /* \"#utility.yul\":35477:35480   */\n      0x00\n        /* \"#utility.yul\":35500:35524   */\n      tag_632\n        /* \"#utility.yul\":35518:35523   */\n      dup3\n        /* \"#utility.yul\":35500:35524   */\n      tag_212\n      jump\t// in\n    tag_632:\n        /* \"#utility.yul\":35491:35524   */\n      swap2\n      pop\n        /* \"#utility.yul\":35546:35612   */\n      0xffffffffffffffffffffffffffffffffffffffffffffffffffffffffffffffff\n        /* \"#utility.yul\":35539:35544   */\n      dup3\n        /* \"#utility.yul\":35536:35613   */\n      sub\n        /* \"#utility.yul\":35533:35636   */\n      tag_633\n      jumpi\n        /* \"#utility.yul\":35616:35634   */\n      tag_634\n      tag_305\n      jump\t// in\n    tag_634:\n        /* \"#utility.yul\":35533:35636   */\n    tag_633:\n        /* \"#utility.yul\":35663:35664   */\n      0x01\n        /* \"#utility.yul\":35656:35661   */\n      dup3\n        /* \"#utility.yul\":35652:35665   */\n      add\n        /* \"#utility.yul\":35645:35665   */\n      swap1\n      pop\n        /* \"#utility.yul\":35438:35671   */\n      swap2\n      swap1\n      pop\n      jump\t// out\n\n    auxdata: 0xa2646970667358221220eacd87430e577251acc48c7b6f1199aa7885db9f28e2d9e0a51def283b4085eb64736f6c634300081a0033\n}\n",
				"bytecode": {
					"linkReferences": {},
					"object": "6080604052348015600e575f80fd5b506120d58061001c5f395ff3fe608060405234801561000f575f80fd5b5060043610610086575f3560e01c80637b70e360116100595780637b70e360146101145780639844f21514610144578063ac2f007414610166578063b384abef1461019857610086565b806311a527461461008a5780631750a3d0146100a857806333b4097b146100c457806374a9ced9146100f8575b5f80fd5b6100926101b4565b60405161009f919061107f565b60405180910390f35b6100c260048036038101906100bd919061120f565b6101bf565b005b6100de60048036038101906100d99190611269565b6102d6565b6040516100ef959493929190611507565b60405180910390f35b610112600480360381019061010d919061156d565b6105a5565b005b61012e60048036038101906101299190611269565b610684565b60405161013b91906115b4565b60405180910390f35b61014c6106fd565b60405161015d959493929190611a12565b60405180910390f35b610180600480360381019061017b9190611269565b610d3d565b60405161018f93929190611a86565b60405180910390f35b6101b260048036038101906101ad9190611ac2565b610e23565b005b5f8080549050905090565b5f8083815481106101d3576101d2611b00565b5b905f5260205f2090600502019050806003015f9054906101000a900473ffffffffffffffffffffffffffffffffffffffff1673ffffffffffffffffffffffffffffffffffffffff163373ffffffffffffffffffffffffffffffffffffffff1614610272576040517f08c379a000000000000000000000000000000000000000000000000000000000815260040161026990611b9d565b60405180910390fd5b8060010160405180604001604052808481526020015f815250908060018154018082558091505060019003905f5260205f2090600202015f909190919091505f820151815f0190816102c49190611db5565b50602082015181600101555050505050565b60605f806060805f8087815481106102f1576102f0611b00565b5b905f5260205f2090600502019050805f01805461030d90611be8565b80601f016020809104026020016040519081016040528092919081815260200182805461033990611be8565b80156103845780601f1061035b57610100808354040283529160200191610384565b820191905f5260205f20905b81548152906001019060200180831161036757829003601f168201915b50505050509550806003015f9054906101000a900473ffffffffffffffffffffffffffffffffffffffff1694508060030160149054906101000a900460ff169350806001018054905067ffffffffffffffff8111156103e6576103e56110eb565b5b60405190808252806020026020018201604052801561041957816020015b60608152602001906001900390816104045790505b509250806001018054905067ffffffffffffffff81111561043d5761043c6110eb565b5b60405190808252806020026020018201604052801561046b5781602001602082028036833780820191505090505b5091505f5b816001018054905081101561059a5781600101818154811061049557610494611b00565b5b905f5260205f2090600202015f0180546104ae90611be8565b80601f01602080910402602001604051908101604052809291908181526020018280546104da90611be8565b80156105255780601f106104fc57610100808354040283529160200191610525565b820191905f5260205f20905b81548152906001019060200180831161050857829003601f168201915b505050505084828151811061053d5761053c611b00565b5b602002602001018190525081600101818154811061055e5761055d611b00565b5b905f5260205f2090600202016001015483828151811061058157610580611b00565b5b6020026020010181815250508080600101915050610470565b505091939590929450565b5f8060018160018154018082558091505003905f5260205f209060050201905081815f0190816105d59190611db5565b5033816003015f6101000a81548173ffffffffffffffffffffffffffffffffffffffff021916908373ffffffffffffffffffffffffffffffffffffffff16021790555060018160030160146101000a81548160ff0219169083151502179055507fdcf7bcca1f330627a2b8cf6826aa79cefcda862ee183dabacd90516b6cd1844360015f805490506106679190611eb1565b833360405161067893929190611ee4565b60405180910390a15050565b5f805f838154811061069957610698611b00565b5b905f5260205f2090600502019050806002015f3373ffffffffffffffffffffffffffffffffffffffff1673ffffffffffffffffffffffffffffffffffffffff1681526020019081526020015f205f015f9054906101000a900460ff16915050919050565b60608060608060605f808054905090508067ffffffffffffffff811115610727576107266110eb565b5b60405190808252806020026020018201604052801561075a57816020015b60608152602001906001900390816107455790505b5095508067ffffffffffffffff811115610777576107766110eb565b5b6040519080825280602002602001820160405280156107a55781602001602082028036833780820191505090505b5094508067ffffffffffffffff8111156107c2576107c16110eb565b5b6040519080825280602002602001820160405280156107f05781602001602082028036833780820191505090505b5093508067ffffffffffffffff81111561080d5761080c6110eb565b5b60405190808252806020026020018201604052801561084057816020015b606081526020019060019003908161082b5790505b5092508067ffffffffffffffff81111561085d5761085c6110eb565b5b60405190808252806020026020018201604052801561089057816020015b606081526020019060019003908161087b5790505b5091505f5b81811015610d34575f81815481106108b0576108af611b00565b5b905f5260205f2090600502015f0180546108c990611be8565b80601f01602080910402602001604051908101604052809291908181526020018280546108f590611be8565b80156109405780601f1061091757610100808354040283529160200191610940565b820191905f5260205f20905b81548152906001019060200180831161092357829003601f168201915b505050505087828151811061095857610957611b00565b5b60200260200101819052505f818154811061097657610975611b00565b5b905f5260205f2090600502016003015f9054906101000a900473ffffffffffffffffffffffffffffffffffffffff168682815181106109b8576109b7611b00565b5b602002602001019073ffffffffffffffffffffffffffffffffffffffff16908173ffffffffffffffffffffffffffffffffffffffff16815250505f8181548110610a0557610a04611b00565b5b905f5260205f20906005020160030160149054906101000a900460ff16858281518110610a3557610a34611b00565b5b6020026020010190151590811515815250505f8181548110610a5a57610a59611b00565b5b905f5260205f209060050201600101805480602002602001604051908101604052809291908181526020015f905b82821015610b51578382905f5260205f2090600202016040518060400160405290815f82018054610ab890611be8565b80601f0160208091040260200160405190810160405280929190818152602001828054610ae490611be8565b8015610b2f5780601f10610b0657610100808354040283529160200191610b2f565b820191905f5260205f20905b815481529060010190602001808311610b1257829003601f168201915b5050505050815260200160018201548152505081526020019060010190610a88565b50505050848281518110610b6857610b67611b00565b5b60200260200101819052505f808281548110610b8757610b86611b00565b5b905f5260205f2090600502016004018054905090508067ffffffffffffffff811115610bb657610bb56110eb565b5b604051908082528060200260200182016040528015610be45781602001602082028036833780820191505090505b50848381518110610bf857610bf7611b00565b5b60200260200101819052505f5b81811015610d25575f808481548110610c2157610c20611b00565b5b905f5260205f2090600502016004018281548110610c4257610c41611b00565b5b905f5260205f20015f9054906101000a900473ffffffffffffffffffffffffffffffffffffffff1690505f8481548110610c7f57610c7e611b00565b5b905f5260205f2090600502016002015f8273ffffffffffffffffffffffffffffffffffffffff1673ffffffffffffffffffffffffffffffffffffffff1681526020019081526020015f205f015f9054906101000a900460ff16868581518110610ceb57610cea611b00565b5b60200260200101518381518110610d0557610d04611b00565b5b602002602001019015159081151581525050508080600101915050610c05565b50508080600101915050610895565b50509091929394565b5f8181548110610d4b575f80fd5b905f5260205f2090600502015f91509050805f018054610d6a90611be8565b80601f0160208091040260200160405190810160405280929190818152602001828054610d9690611be8565b8015610de15780601f10610db857610100808354040283529160200191610de1565b820191905f5260205f20905b815481529060010190602001808311610dc457829003601f168201915b505050505090806003015f9054906101000a900473ffffffffffffffffffffffffffffffffffffffff16908060030160149054906101000a900460ff16905083565b5f808381548110610e3757610e36611b00565b5b905f5260205f20906005020190508060030160149054906101000a900460ff16610e96576040517f08c379a0000000000000000000000000000000000000000000000000000000008152600401610e8d90611f6a565b60405180910390fd5b806002015f3373ffffffffffffffffffffffffffffffffffffffff1673ffffffffffffffffffffffffffffffffffffffff1681526020019081526020015f205f015f9054906101000a900460ff1615610f24576040517f08c379a0000000000000000000000000000000000000000000000000000000008152600401610f1b90611fd2565b60405180910390fd5b80600101805490508210610f6d576040517f08c379a0000000000000000000000000000000000000000000000000000000008152600401610f649061203a565b60405180910390fd5b6001816002015f3373ffffffffffffffffffffffffffffffffffffffff1673ffffffffffffffffffffffffffffffffffffffff1681526020019081526020015f205f015f6101000a81548160ff021916908315150217905550806001018281548110610fdc57610fdb611b00565b5b905f5260205f2090600202016001015f815480929190610ffb90612058565b91905055508060040133908060018154018082558091505060019003905f5260205f20015f9091909190916101000a81548173ffffffffffffffffffffffffffffffffffffffff021916908373ffffffffffffffffffffffffffffffffffffffff160217905550505050565b5f819050919050565b61107981611067565b82525050565b5f6020820190506110925f830184611070565b92915050565b5f604051905090565b5f80fd5b5f80fd5b6110b281611067565b81146110bc575f80fd5b50565b5f813590506110cd816110a9565b92915050565b5f80fd5b5f80fd5b5f601f19601f8301169050919050565b7f4e487b71000000000000000000000000000000000000000000000000000000005f52604160045260245ffd5b611121826110db565b810181811067ffffffffffffffff821117156111405761113f6110eb565b5b80604052505050565b5f611152611098565b905061115e8282611118565b919050565b5f67ffffffffffffffff82111561117d5761117c6110eb565b5b611186826110db565b9050602081019050919050565b828183375f83830152505050565b5f6111b36111ae84611163565b611149565b9050828152602081018484840111156111cf576111ce6110d7565b5b6111da848285611193565b509392505050565b5f82601f8301126111f6576111f56110d3565b5b81356112068482602086016111a1565b91505092915050565b5f8060408385031215611225576112246110a1565b5b5f611232858286016110bf565b925050602083013567ffffffffffffffff811115611253576112526110a5565b5b61125f858286016111e2565b9150509250929050565b5f6020828403121561127e5761127d6110a1565b5b5f61128b848285016110bf565b91505092915050565b5f81519050919050565b5f82825260208201905092915050565b8281835e5f83830152505050565b5f6112c682611294565b6112d0818561129e565b93506112e08185602086016112ae565b6112e9816110db565b840191505092915050565b5f73ffffffffffffffffffffffffffffffffffffffff82169050919050565b5f61131d826112f4565b9050919050565b61132d81611313565b82525050565b5f8115159050919050565b61134781611333565b82525050565b5f81519050919050565b5f82825260208201905092915050565b5f819050602082019050919050565b5f82825260208201905092915050565b5f61139082611294565b61139a8185611376565b93506113aa8185602086016112ae565b6113b3816110db565b840191505092915050565b5f6113c98383611386565b905092915050565b5f602082019050919050565b5f6113e78261134d565b6113f18185611357565b93508360208202850161140385611367565b805f5b8581101561143e578484038952815161141f85826113be565b945061142a836113d1565b925060208a01995050600181019050611406565b50829750879550505050505092915050565b5f81519050919050565b5f82825260208201905092915050565b5f819050602082019050919050565b61148281611067565b82525050565b5f6114938383611479565b60208301905092915050565b5f602082019050919050565b5f6114b582611450565b6114bf818561145a565b93506114ca8361146a565b805f5b838110156114fa5781516114e18882611488565b97506114ec8361149f565b9250506001810190506114cd565b5085935050505092915050565b5f60a0820190508181035f83015261151f81886112bc565b905061152e6020830187611324565b61153b604083018661133e565b818103606083015261154d81856113dd565b9050818103608083015261156181846114ab565b90509695505050505050565b5f60208284031215611582576115816110a1565b5b5f82013567ffffffffffffffff81111561159f5761159e6110a5565b5b6115ab848285016111e2565b91505092915050565b5f6020820190506115c75f83018461133e565b92915050565b5f81519050919050565b5f82825260208201905092915050565b5f819050602082019050919050565b6115ff81611313565b82525050565b5f61161083836115f6565b60208301905092915050565b5f602082019050919050565b5f611632826115cd565b61163c81856115d7565b9350611647836115e7565b805f5b8381101561167757815161165e8882611605565b97506116698361161c565b92505060018101905061164a565b5085935050505092915050565b5f81519050919050565b5f82825260208201905092915050565b5f819050602082019050919050565b6116b681611333565b82525050565b5f6116c783836116ad565b60208301905092915050565b5f602082019050919050565b5f6116e982611684565b6116f3818561168e565b93506116fe8361169e565b805f5b8381101561172e57815161171588826116bc565b9750611720836116d3565b925050600181019050611701565b5085935050505092915050565b5f81519050919050565b5f82825260208201905092915050565b5f819050602082019050919050565b5f81519050919050565b5f82825260208201905092915050565b5f819050602082019050919050565b5f604083015f8301518482035f8601526117a78282611386565b91505060208301516117bc6020860182611479565b508091505092915050565b5f6117d2838361178d565b905092915050565b5f602082019050919050565b5f6117f082611764565b6117fa818561176e565b93508360208202850161180c8561177e565b805f5b85811015611847578484038952815161182885826117c7565b9450611833836117da565b925060208a0199505060018101905061180f565b50829750879550505050505092915050565b5f61186483836117e6565b905092915050565b5f602082019050919050565b5f6118828261173b565b61188c8185611745565b93508360208202850161189e85611755565b805f5b858110156118d957848403895281516118ba8582611859565b94506118c58361186c565b925060208a019950506001810190506118a1565b50829750879550505050505092915050565b5f81519050919050565b5f82825260208201905092915050565b5f819050602082019050919050565b5f82825260208201905092915050565b5f61192e82611684565b6119388185611914565b93506119438361169e565b805f5b8381101561197357815161195a88826116bc565b9750611965836116d3565b925050600181019050611946565b5085935050505092915050565b5f61198b8383611924565b905092915050565b5f602082019050919050565b5f6119a9826118eb565b6119b381856118f5565b9350836020820285016119c585611905565b805f5b85811015611a0057848403895281516119e18582611980565b94506119ec83611993565b925060208a019950506001810190506119c8565b50829750879550505050505092915050565b5f60a0820190508181035f830152611a2a81886113dd565b90508181036020830152611a3e8187611628565b90508181036040830152611a5281866116df565b90508181036060830152611a668185611878565b90508181036080830152611a7a818461199f565b90509695505050505050565b5f6060820190508181035f830152611a9e81866112bc565b9050611aad6020830185611324565b611aba604083018461133e565b949350505050565b5f8060408385031215611ad857611ad76110a1565b5b5f611ae5858286016110bf565b9250506020611af6858286016110bf565b9150509250929050565b7f4e487b71000000000000000000000000000000000000000000000000000000005f52603260045260245ffd5b7f4f6e6c7920746865206f776e65722063616e206164642063616e6469646174655f8201527f7300000000000000000000000000000000000000000000000000000000000000602082015250565b5f611b8760218361129e565b9150611b9282611b2d565b604082019050919050565b5f6020820190508181035f830152611bb481611b7b565b9050919050565b7f4e487b71000000000000000000000000000000000000000000000000000000005f52602260045260245ffd5b5f6002820490506001821680611bff57607f821691505b602082108103611c1257611c11611bbb565b5b50919050565b5f819050815f5260205f209050919050565b5f6020601f8301049050919050565b5f82821b905092915050565b5f60088302611c747fffffffffffffffffffffffffffffffffffffffffffffffffffffffffffffffff82611c39565b611c7e8683611c39565b95508019841693508086168417925050509392505050565b5f819050919050565b5f611cb9611cb4611caf84611067565b611c96565b611067565b9050919050565b5f819050919050565b611cd283611c9f565b611ce6611cde82611cc0565b848454611c45565b825550505050565b5f90565b611cfa611cee565b611d05818484611cc9565b505050565b5b81811015611d2857611d1d5f82611cf2565b600181019050611d0b565b5050565b601f821115611d6d57611d3e81611c18565b611d4784611c2a565b81016020851015611d56578190505b611d6a611d6285611c2a565b830182611d0a565b50505b505050565b5f82821c905092915050565b5f611d8d5f1984600802611d72565b1980831691505092915050565b5f611da58383611d7e565b9150826002028217905092915050565b611dbe82611294565b67ffffffffffffffff811115611dd757611dd66110eb565b5b611de18254611be8565b611dec828285611d2c565b5f60209050601f831160018114611e1d575f8415611e0b578287015190505b611e158582611d9a565b865550611e7c565b601f198416611e2b86611c18565b5f5b82811015611e5257848901518255600182019150602085019450602081019050611e2d565b86831015611e6f5784890151611e6b601f891682611d7e565b8355505b6001600288020188555050505b505050505050565b7f4e487b71000000000000000000000000000000000000000000000000000000005f52601160045260245ffd5b5f611ebb82611067565b9150611ec683611067565b9250828203905081811115611ede57611edd611e84565b5b92915050565b5f606082019050611ef75f830186611070565b8181036020830152611f0981856112bc565b9050611f186040830184611324565b949350505050565b7f506f6c6c206973206e6f742061637469766500000000000000000000000000005f82015250565b5f611f5460128361129e565b9150611f5f82611f20565b602082019050919050565b5f6020820190508181035f830152611f8181611f48565b9050919050565b7f596f75206861766520616c726561647920766f746564000000000000000000005f82015250565b5f611fbc60168361129e565b9150611fc782611f88565b602082019050919050565b5f6020820190508181035f830152611fe981611fb0565b9050919050565b7f496e76616c69642063616e64696461746520696e6465780000000000000000005f82015250565b5f61202460178361129e565b915061202f82611ff0565b602082019050919050565b5f6020820190508181035f83015261205181612018565b9050919050565b5f61206282611067565b91507fffffffffffffffffffffffffffffffffffffffffffffffffffffffffffffffff820361209457612093611e84565b5b60018201905091905056fea2646970667358221220eacd87430e577251acc48c7b6f1199aa7885db9f28e2d9e0a51def283b4085eb64736f6c634300081a0033",
					"opcodes": "PUSH1 0x80 PUSH1 0x40 MSTORE CALLVALUE DUP1 ISZERO PUSH1 0xE JUMPI PUSH0 DUP1 REVERT JUMPDEST POP PUSH2 0x20D5 DUP1 PUSH2 0x1C PUSH0 CODECOPY PUSH0 RETURN INVALID PUSH1 0x80 PUSH1 0x40 MSTORE CALLVALUE DUP1 ISZERO PUSH2 0xF JUMPI PUSH0 DUP1 REVERT JUMPDEST POP PUSH1 0x4 CALLDATASIZE LT PUSH2 0x86 JUMPI PUSH0 CALLDATALOAD PUSH1 0xE0 SHR DUP1 PUSH4 0x7B70E360 GT PUSH2 0x59 JUMPI DUP1 PUSH4 0x7B70E360 EQ PUSH2 0x114 JUMPI DUP1 PUSH4 0x9844F215 EQ PUSH2 0x144 JUMPI DUP1 PUSH4 0xAC2F0074 EQ PUSH2 0x166 JUMPI DUP1 PUSH4 0xB384ABEF EQ PUSH2 0x198 JUMPI PUSH2 0x86 JUMP JUMPDEST DUP1 PUSH4 0x11A52746 EQ PUSH2 0x8A JUMPI DUP1 PUSH4 0x1750A3D0 EQ PUSH2 0xA8 JUMPI DUP1 PUSH4 0x33B4097B EQ PUSH2 0xC4 JUMPI DUP1 PUSH4 0x74A9CED9 EQ PUSH2 0xF8 JUMPI JUMPDEST PUSH0 DUP1 REVERT JUMPDEST PUSH2 0x92 PUSH2 0x1B4 JUMP JUMPDEST PUSH1 0x40 MLOAD PUSH2 0x9F SWAP2 SWAP1 PUSH2 0x107F JUMP JUMPDEST PUSH1 0x40 MLOAD DUP1 SWAP2 SUB SWAP1 RETURN JUMPDEST PUSH2 0xC2 PUSH1 0x4 DUP1 CALLDATASIZE SUB DUP2 ADD SWAP1 PUSH2 0xBD SWAP2 SWAP1 PUSH2 0x120F JUMP JUMPDEST PUSH2 0x1BF JUMP JUMPDEST STOP JUMPDEST PUSH2 0xDE PUSH1 0x4 DUP1 CALLDATASIZE SUB DUP2 ADD SWAP1 PUSH2 0xD9 SWAP2 SWAP1 PUSH2 0x1269 JUMP JUMPDEST PUSH2 0x2D6 JUMP JUMPDEST PUSH1 0x40 MLOAD PUSH2 0xEF SWAP6 SWAP5 SWAP4 SWAP3 SWAP2 SWAP1 PUSH2 0x1507 JUMP JUMPDEST PUSH1 0x40 MLOAD DUP1 SWAP2 SUB SWAP1 RETURN JUMPDEST PUSH2 0x112 PUSH1 0x4 DUP1 CALLDATASIZE SUB DUP2 ADD SWAP1 PUSH2 0x10D SWAP2 SWAP1 PUSH2 0x156D JUMP JUMPDEST PUSH2 0x5A5 JUMP JUMPDEST STOP JUMPDEST PUSH2 0x12E PUSH1 0x4 DUP1 CALLDATASIZE SUB DUP2 ADD SWAP1 PUSH2 0x129 SWAP2 SWAP1 PUSH2 0x1269 JUMP JUMPDEST PUSH2 0x684 JUMP JUMPDEST PUSH1 0x40 MLOAD PUSH2 0x13B SWAP2 SWAP1 PUSH2 0x15B4 JUMP JUMPDEST PUSH1 0x40 MLOAD DUP1 SWAP2 SUB SWAP1 RETURN JUMPDEST PUSH2 0x14C PUSH2 0x6FD JUMP JUMPDEST PUSH1 0x40 MLOAD PUSH2 0x15D SWAP6 SWAP5 SWAP4 SWAP3 SWAP2 SWAP1 PUSH2 0x1A12 JUMP JUMPDEST PUSH1 0x40 MLOAD DUP1 SWAP2 SUB SWAP1 RETURN JUMPDEST PUSH2 0x180 PUSH1 0x4 DUP1 CALLDATASIZE SUB DUP2 ADD SWAP1 PUSH2 0x17B SWAP2 SWAP1 PUSH2 0x1269 JUMP JUMPDEST PUSH2 0xD3D JUMP JUMPDEST PUSH1 0x40 MLOAD PUSH2 0x18F SWAP4 SWAP3 SWAP2 SWAP1 PUSH2 0x1A86 JUMP JUMPDEST PUSH1 0x40 MLOAD DUP1 SWAP2 SUB SWAP1 RETURN JUMPDEST PUSH2 0x1B2 PUSH1 0x4 DUP1 CALLDATASIZE SUB DUP2 ADD SWAP1 PUSH2 0x1AD SWAP2 SWAP1 PUSH2 0x1AC2 JUMP JUMPDEST PUSH2 0xE23 JUMP JUMPDEST STOP JUMPDEST PUSH0 DUP1 DUP1 SLOAD SWAP1 POP SWAP1 POP SWAP1 JUMP JUMPDEST PUSH0 DUP1 DUP4 DUP2 SLOAD DUP2 LT PUSH2 0x1D3 JUMPI PUSH2 0x1D2 PUSH2 0x1B00 JUMP JUMPDEST JUMPDEST SWAP1 PUSH0 MSTORE PUSH1 0x20 PUSH0 KECCAK256 SWAP1 PUSH1 0x5 MUL ADD SWAP1 POP DUP1 PUSH1 0x3 ADD PUSH0 SWAP1 SLOAD SWAP1 PUSH2 0x100 EXP SWAP1 DIV PUSH20 0xFFFFFFFFFFFFFFFFFFFFFFFFFFFFFFFFFFFFFFFF AND PUSH20 0xFFFFFFFFFFFFFFFFFFFFFFFFFFFFFFFFFFFFFFFF AND CALLER PUSH20 0xFFFFFFFFFFFFFFFFFFFFFFFFFFFFFFFFFFFFFFFF AND EQ PUSH2 0x272 JUMPI PUSH1 0x40 MLOAD PUSH32 0x8C379A000000000000000000000000000000000000000000000000000000000 DUP2 MSTORE PUSH1 0x4 ADD PUSH2 0x269 SWAP1 PUSH2 0x1B9D JUMP JUMPDEST PUSH1 0x40 MLOAD DUP1 SWAP2 SUB SWAP1 REVERT JUMPDEST DUP1 PUSH1 0x1 ADD PUSH1 0x40 MLOAD DUP1 PUSH1 0x40 ADD PUSH1 0x40 MSTORE DUP1 DUP5 DUP2 MSTORE PUSH1 0x20 ADD PUSH0 DUP2 MSTORE POP SWAP1 DUP1 PUSH1 0x1 DUP2 SLOAD ADD DUP1 DUP3 SSTORE DUP1 SWAP2 POP POP PUSH1 0x1 SWAP1 SUB SWAP1 PUSH0 MSTORE PUSH1 0x20 PUSH0 KECCAK256 SWAP1 PUSH1 0x2 MUL ADD PUSH0 SWAP1 SWAP2 SWAP1 SWAP2 SWAP1 SWAP2 POP PUSH0 DUP3 ADD MLOAD DUP2 PUSH0 ADD SWAP1 DUP2 PUSH2 0x2C4 SWAP2 SWAP1 PUSH2 0x1DB5 JUMP JUMPDEST POP PUSH1 0x20 DUP3 ADD MLOAD DUP2 PUSH1 0x1 ADD SSTORE POP POP POP POP POP JUMP JUMPDEST PUSH1 0x60 PUSH0 DUP1 PUSH1 0x60 DUP1 PUSH0 DUP1 DUP8 DUP2 SLOAD DUP2 LT PUSH2 0x2F1 JUMPI PUSH2 0x2F0 PUSH2 0x1B00 JUMP JUMPDEST JUMPDEST SWAP1 PUSH0 MSTORE PUSH1 0x20 PUSH0 KECCAK256 SWAP1 PUSH1 0x5 MUL ADD SWAP1 POP DUP1 PUSH0 ADD DUP1 SLOAD PUSH2 0x30D SWAP1 PUSH2 0x1BE8 JUMP JUMPDEST DUP1 PUSH1 0x1F ADD PUSH1 0x20 DUP1 SWAP2 DIV MUL PUSH1 0x20 ADD PUSH1 0x40 MLOAD SWAP1 DUP2 ADD PUSH1 0x40 MSTORE DUP1 SWAP3 SWAP2 SWAP1 DUP2 DUP2 MSTORE PUSH1 0x20 ADD DUP3 DUP1 SLOAD PUSH2 0x339 SWAP1 PUSH2 0x1BE8 JUMP JUMPDEST DUP1 ISZERO PUSH2 0x384 JUMPI DUP1 PUSH1 0x1F LT PUSH2 0x35B JUMPI PUSH2 0x100 DUP1 DUP4 SLOAD DIV MUL DUP4 MSTORE SWAP2 PUSH1 0x20 ADD SWAP2 PUSH2 0x384 JUMP JUMPDEST DUP3 ADD SWAP2 SWAP1 PUSH0 MSTORE PUSH1 0x20 PUSH0 KECCAK256 SWAP1 JUMPDEST DUP2 SLOAD DUP2 MSTORE SWAP1 PUSH1 0x1 ADD SWAP1 PUSH1 0x20 ADD DUP1 DUP4 GT PUSH2 0x367 JUMPI DUP3 SWAP1 SUB PUSH1 0x1F AND DUP3 ADD SWAP2 JUMPDEST POP POP POP POP POP SWAP6 POP DUP1 PUSH1 0x3 ADD PUSH0 SWAP1 SLOAD SWAP1 PUSH2 0x100 EXP SWAP1 DIV PUSH20 0xFFFFFFFFFFFFFFFFFFFFFFFFFFFFFFFFFFFFFFFF AND SWAP5 POP DUP1 PUSH1 0x3 ADD PUSH1 0x14 SWAP1 SLOAD SWAP1 PUSH2 0x100 EXP SWAP1 DIV PUSH1 0xFF AND SWAP4 POP DUP1 PUSH1 0x1 ADD DUP1 SLOAD SWAP1 POP PUSH8 0xFFFFFFFFFFFFFFFF DUP2 GT ISZERO PUSH2 0x3E6 JUMPI PUSH2 0x3E5 PUSH2 0x10EB JUMP JUMPDEST JUMPDEST PUSH1 0x40 MLOAD SWAP1 DUP1 DUP3 MSTORE DUP1 PUSH1 0x20 MUL PUSH1 0x20 ADD DUP3 ADD PUSH1 0x40 MSTORE DUP1 ISZERO PUSH2 0x419 JUMPI DUP2 PUSH1 0x20 ADD JUMPDEST PUSH1 0x60 DUP2 MSTORE PUSH1 0x20 ADD SWAP1 PUSH1 0x1 SWAP1 SUB SWAP1 DUP2 PUSH2 0x404 JUMPI SWAP1 POP JUMPDEST POP SWAP3 POP DUP1 PUSH1 0x1 ADD DUP1 SLOAD SWAP1 POP PUSH8 0xFFFFFFFFFFFFFFFF DUP2 GT ISZERO PUSH2 0x43D JUMPI PUSH2 0x43C PUSH2 0x10EB JUMP JUMPDEST JUMPDEST PUSH1 0x40 MLOAD SWAP1 DUP1 DUP3 MSTORE DUP1 PUSH1 0x20 MUL PUSH1 0x20 ADD DUP3 ADD PUSH1 0x40 MSTORE DUP1 ISZERO PUSH2 0x46B JUMPI DUP2 PUSH1 0x20 ADD PUSH1 0x20 DUP3 MUL DUP1 CALLDATASIZE DUP4 CALLDATACOPY DUP1 DUP3 ADD SWAP2 POP POP SWAP1 POP JUMPDEST POP SWAP2 POP PUSH0 JUMPDEST DUP2 PUSH1 0x1 ADD DUP1 SLOAD SWAP1 POP DUP2 LT ISZERO PUSH2 0x59A JUMPI DUP2 PUSH1 0x1 ADD DUP2 DUP2 SLOAD DUP2 LT PUSH2 0x495 JUMPI PUSH2 0x494 PUSH2 0x1B00 JUMP JUMPDEST JUMPDEST SWAP1 PUSH0 MSTORE PUSH1 0x20 PUSH0 KECCAK256 SWAP1 PUSH1 0x2 MUL ADD PUSH0 ADD DUP1 SLOAD PUSH2 0x4AE SWAP1 PUSH2 0x1BE8 JUMP JUMPDEST DUP1 PUSH1 0x1F ADD PUSH1 0x20 DUP1 SWAP2 DIV MUL PUSH1 0x20 ADD PUSH1 0x40 MLOAD SWAP1 DUP2 ADD PUSH1 0x40 MSTORE DUP1 SWAP3 SWAP2 SWAP1 DUP2 DUP2 MSTORE PUSH1 0x20 ADD DUP3 DUP1 SLOAD PUSH2 0x4DA SWAP1 PUSH2 0x1BE8 JUMP JUMPDEST DUP1 ISZERO PUSH2 0x525 JUMPI DUP1 PUSH1 0x1F LT PUSH2 0x4FC JUMPI PUSH2 0x100 DUP1 DUP4 SLOAD DIV MUL DUP4 MSTORE SWAP2 PUSH1 0x20 ADD SWAP2 PUSH2 0x525 JUMP JUMPDEST DUP3 ADD SWAP2 SWAP1 PUSH0 MSTORE PUSH1 0x20 PUSH0 KECCAK256 SWAP1 JUMPDEST DUP2 SLOAD DUP2 MSTORE SWAP1 PUSH1 0x1 ADD SWAP1 PUSH1 0x20 ADD DUP1 DUP4 GT PUSH2 0x508 JUMPI DUP3 SWAP1 SUB PUSH1 0x1F AND DUP3 ADD SWAP2 JUMPDEST POP POP POP POP POP DUP5 DUP3 DUP2 MLOAD DUP2 LT PUSH2 0x53D JUMPI PUSH2 0x53C PUSH2 0x1B00 JUMP JUMPDEST JUMPDEST PUSH1 0x20 MUL PUSH1 0x20 ADD ADD DUP2 SWAP1 MSTORE POP DUP2 PUSH1 0x1 ADD DUP2 DUP2 SLOAD DUP2 LT PUSH2 0x55E JUMPI PUSH2 0x55D PUSH2 0x1B00 JUMP JUMPDEST JUMPDEST SWAP1 PUSH0 MSTORE PUSH1 0x20 PUSH0 KECCAK256 SWAP1 PUSH1 0x2 MUL ADD PUSH1 0x1 ADD SLOAD DUP4 DUP3 DUP2 MLOAD DUP2 LT PUSH2 0x581 JUMPI PUSH2 0x580 PUSH2 0x1B00 JUMP JUMPDEST JUMPDEST PUSH1 0x20 MUL PUSH1 0x20 ADD ADD DUP2 DUP2 MSTORE POP POP DUP1 DUP1 PUSH1 0x1 ADD SWAP2 POP POP PUSH2 0x470 JUMP JUMPDEST POP POP SWAP2 SWAP4 SWAP6 SWAP1 SWAP3 SWAP5 POP JUMP JUMPDEST PUSH0 DUP1 PUSH1 0x1 DUP2 PUSH1 0x1 DUP2 SLOAD ADD DUP1 DUP3 SSTORE DUP1 SWAP2 POP POP SUB SWAP1 PUSH0 MSTORE PUSH1 0x20 PUSH0 KECCAK256 SWAP1 PUSH1 0x5 MUL ADD SWAP1 POP DUP2 DUP2 PUSH0 ADD SWAP1 DUP2 PUSH2 0x5D5 SWAP2 SWAP1 PUSH2 0x1DB5 JUMP JUMPDEST POP CALLER DUP2 PUSH1 0x3 ADD PUSH0 PUSH2 0x100 EXP DUP2 SLOAD DUP2 PUSH20 0xFFFFFFFFFFFFFFFFFFFFFFFFFFFFFFFFFFFFFFFF MUL NOT AND SWAP1 DUP4 PUSH20 0xFFFFFFFFFFFFFFFFFFFFFFFFFFFFFFFFFFFFFFFF AND MUL OR SWAP1 SSTORE POP PUSH1 0x1 DUP2 PUSH1 0x3 ADD PUSH1 0x14 PUSH2 0x100 EXP DUP2 SLOAD DUP2 PUSH1 0xFF MUL NOT AND SWAP1 DUP4 ISZERO ISZERO MUL OR SWAP1 SSTORE POP PUSH32 0xDCF7BCCA1F330627A2B8CF6826AA79CEFCDA862EE183DABACD90516B6CD18443 PUSH1 0x1 PUSH0 DUP1 SLOAD SWAP1 POP PUSH2 0x667 SWAP2 SWAP1 PUSH2 0x1EB1 JUMP JUMPDEST DUP4 CALLER PUSH1 0x40 MLOAD PUSH2 0x678 SWAP4 SWAP3 SWAP2 SWAP1 PUSH2 0x1EE4 JUMP JUMPDEST PUSH1 0x40 MLOAD DUP1 SWAP2 SUB SWAP1 LOG1 POP POP JUMP JUMPDEST PUSH0 DUP1 PUSH0 DUP4 DUP2 SLOAD DUP2 LT PUSH2 0x699 JUMPI PUSH2 0x698 PUSH2 0x1B00 JUMP JUMPDEST JUMPDEST SWAP1 PUSH0 MSTORE PUSH1 0x20 PUSH0 KECCAK256 SWAP1 PUSH1 0x5 MUL ADD SWAP1 POP DUP1 PUSH1 0x2 ADD PUSH0 CALLER PUSH20 0xFFFFFFFFFFFFFFFFFFFFFFFFFFFFFFFFFFFFFFFF AND PUSH20 0xFFFFFFFFFFFFFFFFFFFFFFFFFFFFFFFFFFFFFFFF AND DUP2 MSTORE PUSH1 0x20 ADD SWAP1 DUP2 MSTORE PUSH1 0x20 ADD PUSH0 KECCAK256 PUSH0 ADD PUSH0 SWAP1 SLOAD SWAP1 PUSH2 0x100 EXP SWAP1 DIV PUSH1 0xFF AND SWAP2 POP POP SWAP2 SWAP1 POP JUMP JUMPDEST PUSH1 0x60 DUP1 PUSH1 0x60 DUP1 PUSH1 0x60 PUSH0 DUP1 DUP1 SLOAD SWAP1 POP SWAP1 POP DUP1 PUSH8 0xFFFFFFFFFFFFFFFF DUP2 GT ISZERO PUSH2 0x727 JUMPI PUSH2 0x726 PUSH2 0x10EB JUMP JUMPDEST JUMPDEST PUSH1 0x40 MLOAD SWAP1 DUP1 DUP3 MSTORE DUP1 PUSH1 0x20 MUL PUSH1 0x20 ADD DUP3 ADD PUSH1 0x40 MSTORE DUP1 ISZERO PUSH2 0x75A JUMPI DUP2 PUSH1 0x20 ADD JUMPDEST PUSH1 0x60 DUP2 MSTORE PUSH1 0x20 ADD SWAP1 PUSH1 0x1 SWAP1 SUB SWAP1 DUP2 PUSH2 0x745 JUMPI SWAP1 POP JUMPDEST POP SWAP6 POP DUP1 PUSH8 0xFFFFFFFFFFFFFFFF DUP2 GT ISZERO PUSH2 0x777 JUMPI PUSH2 0x776 PUSH2 0x10EB JUMP JUMPDEST JUMPDEST PUSH1 0x40 MLOAD SWAP1 DUP1 DUP3 MSTORE DUP1 PUSH1 0x20 MUL PUSH1 0x20 ADD DUP3 ADD PUSH1 0x40 MSTORE DUP1 ISZERO PUSH2 0x7A5 JUMPI DUP2 PUSH1 0x20 ADD PUSH1 0x20 DUP3 MUL DUP1 CALLDATASIZE DUP4 CALLDATACOPY DUP1 DUP3 ADD SWAP2 POP POP SWAP1 POP JUMPDEST POP SWAP5 POP DUP1 PUSH8 0xFFFFFFFFFFFFFFFF DUP2 GT ISZERO PUSH2 0x7C2 JUMPI PUSH2 0x7C1 PUSH2 0x10EB JUMP JUMPDEST JUMPDEST PUSH1 0x40 MLOAD SWAP1 DUP1 DUP3 MSTORE DUP1 PUSH1 0x20 MUL PUSH1 0x20 ADD DUP3 ADD PUSH1 0x40 MSTORE DUP1 ISZERO PUSH2 0x7F0 JUMPI DUP2 PUSH1 0x20 ADD PUSH1 0x20 DUP3 MUL DUP1 CALLDATASIZE DUP4 CALLDATACOPY DUP1 DUP3 ADD SWAP2 POP POP SWAP1 POP JUMPDEST POP SWAP4 POP DUP1 PUSH8 0xFFFFFFFFFFFFFFFF DUP2 GT ISZERO PUSH2 0x80D JUMPI PUSH2 0x80C PUSH2 0x10EB JUMP JUMPDEST JUMPDEST PUSH1 0x40 MLOAD SWAP1 DUP1 DUP3 MSTORE DUP1 PUSH1 0x20 MUL PUSH1 0x20 ADD DUP3 ADD PUSH1 0x40 MSTORE DUP1 ISZERO PUSH2 0x840 JUMPI DUP2 PUSH1 0x20 ADD JUMPDEST PUSH1 0x60 DUP2 MSTORE PUSH1 0x20 ADD SWAP1 PUSH1 0x1 SWAP1 SUB SWAP1 DUP2 PUSH2 0x82B JUMPI SWAP1 POP JUMPDEST POP SWAP3 POP DUP1 PUSH8 0xFFFFFFFFFFFFFFFF DUP2 GT ISZERO PUSH2 0x85D JUMPI PUSH2 0x85C PUSH2 0x10EB JUMP JUMPDEST JUMPDEST PUSH1 0x40 MLOAD SWAP1 DUP1 DUP3 MSTORE DUP1 PUSH1 0x20 MUL PUSH1 0x20 ADD DUP3 ADD PUSH1 0x40 MSTORE DUP1 ISZERO PUSH2 0x890 JUMPI DUP2 PUSH1 0x20 ADD JUMPDEST PUSH1 0x60 DUP2 MSTORE PUSH1 0x20 ADD SWAP1 PUSH1 0x1 SWAP1 SUB SWAP1 DUP2 PUSH2 0x87B JUMPI SWAP1 POP JUMPDEST POP SWAP2 POP PUSH0 JUMPDEST DUP2 DUP2 LT ISZERO PUSH2 0xD34 JUMPI PUSH0 DUP2 DUP2 SLOAD DUP2 LT PUSH2 0x8B0 JUMPI PUSH2 0x8AF PUSH2 0x1B00 JUMP JUMPDEST JUMPDEST SWAP1 PUSH0 MSTORE PUSH1 0x20 PUSH0 KECCAK256 SWAP1 PUSH1 0x5 MUL ADD PUSH0 ADD DUP1 SLOAD PUSH2 0x8C9 SWAP1 PUSH2 0x1BE8 JUMP JUMPDEST DUP1 PUSH1 0x1F ADD PUSH1 0x20 DUP1 SWAP2 DIV MUL PUSH1 0x20 ADD PUSH1 0x40 MLOAD SWAP1 DUP2 ADD PUSH1 0x40 MSTORE DUP1 SWAP3 SWAP2 SWAP1 DUP2 DUP2 MSTORE PUSH1 0x20 ADD DUP3 DUP1 SLOAD PUSH2 0x8F5 SWAP1 PUSH2 0x1BE8 JUMP JUMPDEST DUP1 ISZERO PUSH2 0x940 JUMPI DUP1 PUSH1 0x1F LT PUSH2 0x917 JUMPI PUSH2 0x100 DUP1 DUP4 SLOAD DIV MUL DUP4 MSTORE SWAP2 PUSH1 0x20 ADD SWAP2 PUSH2 0x940 JUMP JUMPDEST DUP3 ADD SWAP2 SWAP1 PUSH0 MSTORE PUSH1 0x20 PUSH0 KECCAK256 SWAP1 JUMPDEST DUP2 SLOAD DUP2 MSTORE SWAP1 PUSH1 0x1 ADD SWAP1 PUSH1 0x20 ADD DUP1 DUP4 GT PUSH2 0x923 JUMPI DUP3 SWAP1 SUB PUSH1 0x1F AND DUP3 ADD SWAP2 JUMPDEST POP POP POP POP POP DUP8 DUP3 DUP2 MLOAD DUP2 LT PUSH2 0x958 JUMPI PUSH2 0x957 PUSH2 0x1B00 JUMP JUMPDEST JUMPDEST PUSH1 0x20 MUL PUSH1 0x20 ADD ADD DUP2 SWAP1 MSTORE POP PUSH0 DUP2 DUP2 SLOAD DUP2 LT PUSH2 0x976 JUMPI PUSH2 0x975 PUSH2 0x1B00 JUMP JUMPDEST JUMPDEST SWAP1 PUSH0 MSTORE PUSH1 0x20 PUSH0 KECCAK256 SWAP1 PUSH1 0x5 MUL ADD PUSH1 0x3 ADD PUSH0 SWAP1 SLOAD SWAP1 PUSH2 0x100 EXP SWAP1 DIV PUSH20 0xFFFFFFFFFFFFFFFFFFFFFFFFFFFFFFFFFFFFFFFF AND DUP7 DUP3 DUP2 MLOAD DUP2 LT PUSH2 0x9B8 JUMPI PUSH2 0x9B7 PUSH2 0x1B00 JUMP JUMPDEST JUMPDEST PUSH1 0x20 MUL PUSH1 0x20 ADD ADD SWAP1 PUSH20 0xFFFFFFFFFFFFFFFFFFFFFFFFFFFFFFFFFFFFFFFF AND SWAP1 DUP2 PUSH20 0xFFFFFFFFFFFFFFFFFFFFFFFFFFFFFFFFFFFFFFFF AND DUP2 MSTORE POP POP PUSH0 DUP2 DUP2 SLOAD DUP2 LT PUSH2 0xA05 JUMPI PUSH2 0xA04 PUSH2 0x1B00 JUMP JUMPDEST JUMPDEST SWAP1 PUSH0 MSTORE PUSH1 0x20 PUSH0 KECCAK256 SWAP1 PUSH1 0x5 MUL ADD PUSH1 0x3 ADD PUSH1 0x14 SWAP1 SLOAD SWAP1 PUSH2 0x100 EXP SWAP1 DIV PUSH1 0xFF AND DUP6 DUP3 DUP2 MLOAD DUP2 LT PUSH2 0xA35 JUMPI PUSH2 0xA34 PUSH2 0x1B00 JUMP JUMPDEST JUMPDEST PUSH1 0x20 MUL PUSH1 0x20 ADD ADD SWAP1 ISZERO ISZERO SWAP1 DUP2 ISZERO ISZERO DUP2 MSTORE POP POP PUSH0 DUP2 DUP2 SLOAD DUP2 LT PUSH2 0xA5A JUMPI PUSH2 0xA59 PUSH2 0x1B00 JUMP JUMPDEST JUMPDEST SWAP1 PUSH0 MSTORE PUSH1 0x20 PUSH0 KECCAK256 SWAP1 PUSH1 0x5 MUL ADD PUSH1 0x1 ADD DUP1 SLOAD DUP1 PUSH1 0x20 MUL PUSH1 0x20 ADD PUSH1 0x40 MLOAD SWAP1 DUP2 ADD PUSH1 0x40 MSTORE DUP1 SWAP3 SWAP2 SWAP1 DUP2 DUP2 MSTORE PUSH1 0x20 ADD PUSH0 SWAP1 JUMPDEST DUP3 DUP3 LT ISZERO PUSH2 0xB51 JUMPI DUP4 DUP3 SWAP1 PUSH0 MSTORE PUSH1 0x20 PUSH0 KECCAK256 SWAP1 PUSH1 0x2 MUL ADD PUSH1 0x40 MLOAD DUP1 PUSH1 0x40 ADD PUSH1 0x40 MSTORE SWAP1 DUP2 PUSH0 DUP3 ADD DUP1 SLOAD PUSH2 0xAB8 SWAP1 PUSH2 0x1BE8 JUMP JUMPDEST DUP1 PUSH1 0x1F ADD PUSH1 0x20 DUP1 SWAP2 DIV MUL PUSH1 0x20 ADD PUSH1 0x40 MLOAD SWAP1 DUP2 ADD PUSH1 0x40 MSTORE DUP1 SWAP3 SWAP2 SWAP1 DUP2 DUP2 MSTORE PUSH1 0x20 ADD DUP3 DUP1 SLOAD PUSH2 0xAE4 SWAP1 PUSH2 0x1BE8 JUMP JUMPDEST DUP1 ISZERO PUSH2 0xB2F JUMPI DUP1 PUSH1 0x1F LT PUSH2 0xB06 JUMPI PUSH2 0x100 DUP1 DUP4 SLOAD DIV MUL DUP4 MSTORE SWAP2 PUSH1 0x20 ADD SWAP2 PUSH2 0xB2F JUMP JUMPDEST DUP3 ADD SWAP2 SWAP1 PUSH0 MSTORE PUSH1 0x20 PUSH0 KECCAK256 SWAP1 JUMPDEST DUP2 SLOAD DUP2 MSTORE SWAP1 PUSH1 0x1 ADD SWAP1 PUSH1 0x20 ADD DUP1 DUP4 GT PUSH2 0xB12 JUMPI DUP3 SWAP1 SUB PUSH1 0x1F AND DUP3 ADD SWAP2 JUMPDEST POP POP POP POP POP DUP2 MSTORE PUSH1 0x20 ADD PUSH1 0x1 DUP3 ADD SLOAD DUP2 MSTORE POP POP DUP2 MSTORE PUSH1 0x20 ADD SWAP1 PUSH1 0x1 ADD SWAP1 PUSH2 0xA88 JUMP JUMPDEST POP POP POP POP DUP5 DUP3 DUP2 MLOAD DUP2 LT PUSH2 0xB68 JUMPI PUSH2 0xB67 PUSH2 0x1B00 JUMP JUMPDEST JUMPDEST PUSH1 0x20 MUL PUSH1 0x20 ADD ADD DUP2 SWAP1 MSTORE POP PUSH0 DUP1 DUP3 DUP2 SLOAD DUP2 LT PUSH2 0xB87 JUMPI PUSH2 0xB86 PUSH2 0x1B00 JUMP JUMPDEST JUMPDEST SWAP1 PUSH0 MSTORE PUSH1 0x20 PUSH0 KECCAK256 SWAP1 PUSH1 0x5 MUL ADD PUSH1 0x4 ADD DUP1 SLOAD SWAP1 POP SWAP1 POP DUP1 PUSH8 0xFFFFFFFFFFFFFFFF DUP2 GT ISZERO PUSH2 0xBB6 JUMPI PUSH2 0xBB5 PUSH2 0x10EB JUMP JUMPDEST JUMPDEST PUSH1 0x40 MLOAD SWAP1 DUP1 DUP3 MSTORE DUP1 PUSH1 0x20 MUL PUSH1 0x20 ADD DUP3 ADD PUSH1 0x40 MSTORE DUP1 ISZERO PUSH2 0xBE4 JUMPI DUP2 PUSH1 0x20 ADD PUSH1 0x20 DUP3 MUL DUP1 CALLDATASIZE DUP4 CALLDATACOPY DUP1 DUP3 ADD SWAP2 POP POP SWAP1 POP JUMPDEST POP DUP5 DUP4 DUP2 MLOAD DUP2 LT PUSH2 0xBF8 JUMPI PUSH2 0xBF7 PUSH2 0x1B00 JUMP JUMPDEST JUMPDEST PUSH1 0x20 MUL PUSH1 0x20 ADD ADD DUP2 SWAP1 MSTORE POP PUSH0 JUMPDEST DUP2 DUP2 LT ISZERO PUSH2 0xD25 JUMPI PUSH0 DUP1 DUP5 DUP2 SLOAD DUP2 LT PUSH2 0xC21 JUMPI PUSH2 0xC20 PUSH2 0x1B00 JUMP JUMPDEST JUMPDEST SWAP1 PUSH0 MSTORE PUSH1 0x20 PUSH0 KECCAK256 SWAP1 PUSH1 0x5 MUL ADD PUSH1 0x4 ADD DUP3 DUP2 SLOAD DUP2 LT PUSH2 0xC42 JUMPI PUSH2 0xC41 PUSH2 0x1B00 JUMP JUMPDEST JUMPDEST SWAP1 PUSH0 MSTORE PUSH1 0x20 PUSH0 KECCAK256 ADD PUSH0 SWAP1 SLOAD SWAP1 PUSH2 0x100 EXP SWAP1 DIV PUSH20 0xFFFFFFFFFFFFFFFFFFFFFFFFFFFFFFFFFFFFFFFF AND SWAP1 POP PUSH0 DUP5 DUP2 SLOAD DUP2 LT PUSH2 0xC7F JUMPI PUSH2 0xC7E PUSH2 0x1B00 JUMP JUMPDEST JUMPDEST SWAP1 PUSH0 MSTORE PUSH1 0x20 PUSH0 KECCAK256 SWAP1 PUSH1 0x5 MUL ADD PUSH1 0x2 ADD PUSH0 DUP3 PUSH20 0xFFFFFFFFFFFFFFFFFFFFFFFFFFFFFFFFFFFFFFFF AND PUSH20 0xFFFFFFFFFFFFFFFFFFFFFFFFFFFFFFFFFFFFFFFF AND DUP2 MSTORE PUSH1 0x20 ADD SWAP1 DUP2 MSTORE PUSH1 0x20 ADD PUSH0 KECCAK256 PUSH0 ADD PUSH0 SWAP1 SLOAD SWAP1 PUSH2 0x100 EXP SWAP1 DIV PUSH1 0xFF AND DUP7 DUP6 DUP2 MLOAD DUP2 LT PUSH2 0xCEB JUMPI PUSH2 0xCEA PUSH2 0x1B00 JUMP JUMPDEST JUMPDEST PUSH1 0x20 MUL PUSH1 0x20 ADD ADD MLOAD DUP4 DUP2 MLOAD DUP2 LT PUSH2 0xD05 JUMPI PUSH2 0xD04 PUSH2 0x1B00 JUMP JUMPDEST JUMPDEST PUSH1 0x20 MUL PUSH1 0x20 ADD ADD SWAP1 ISZERO ISZERO SWAP1 DUP2 ISZERO ISZERO DUP2 MSTORE POP POP POP DUP1 DUP1 PUSH1 0x1 ADD SWAP2 POP POP PUSH2 0xC05 JUMP JUMPDEST POP POP DUP1 DUP1 PUSH1 0x1 ADD SWAP2 POP POP PUSH2 0x895 JUMP JUMPDEST POP POP SWAP1 SWAP2 SWAP3 SWAP4 SWAP5 JUMP JUMPDEST PUSH0 DUP2 DUP2 SLOAD DUP2 LT PUSH2 0xD4B JUMPI PUSH0 DUP1 REVERT JUMPDEST SWAP1 PUSH0 MSTORE PUSH1 0x20 PUSH0 KECCAK256 SWAP1 PUSH1 0x5 MUL ADD PUSH0 SWAP2 POP SWAP1 POP DUP1 PUSH0 ADD DUP1 SLOAD PUSH2 0xD6A SWAP1 PUSH2 0x1BE8 JUMP JUMPDEST DUP1 PUSH1 0x1F ADD PUSH1 0x20 DUP1 SWAP2 DIV MUL PUSH1 0x20 ADD PUSH1 0x40 MLOAD SWAP1 DUP2 ADD PUSH1 0x40 MSTORE DUP1 SWAP3 SWAP2 SWAP1 DUP2 DUP2 MSTORE PUSH1 0x20 ADD DUP3 DUP1 SLOAD PUSH2 0xD96 SWAP1 PUSH2 0x1BE8 JUMP JUMPDEST DUP1 ISZERO PUSH2 0xDE1 JUMPI DUP1 PUSH1 0x1F LT PUSH2 0xDB8 JUMPI PUSH2 0x100 DUP1 DUP4 SLOAD DIV MUL DUP4 MSTORE SWAP2 PUSH1 0x20 ADD SWAP2 PUSH2 0xDE1 JUMP JUMPDEST DUP3 ADD SWAP2 SWAP1 PUSH0 MSTORE PUSH1 0x20 PUSH0 KECCAK256 SWAP1 JUMPDEST DUP2 SLOAD DUP2 MSTORE SWAP1 PUSH1 0x1 ADD SWAP1 PUSH1 0x20 ADD DUP1 DUP4 GT PUSH2 0xDC4 JUMPI DUP3 SWAP1 SUB PUSH1 0x1F AND DUP3 ADD SWAP2 JUMPDEST POP POP POP POP POP SWAP1 DUP1 PUSH1 0x3 ADD PUSH0 SWAP1 SLOAD SWAP1 PUSH2 0x100 EXP SWAP1 DIV PUSH20 0xFFFFFFFFFFFFFFFFFFFFFFFFFFFFFFFFFFFFFFFF AND SWAP1 DUP1 PUSH1 0x3 ADD PUSH1 0x14 SWAP1 SLOAD SWAP1 PUSH2 0x100 EXP SWAP1 DIV PUSH1 0xFF AND SWAP1 POP DUP4 JUMP JUMPDEST PUSH0 DUP1 DUP4 DUP2 SLOAD DUP2 LT PUSH2 0xE37 JUMPI PUSH2 0xE36 PUSH2 0x1B00 JUMP JUMPDEST JUMPDEST SWAP1 PUSH0 MSTORE PUSH1 0x20 PUSH0 KECCAK256 SWAP1 PUSH1 0x5 MUL ADD SWAP1 POP DUP1 PUSH1 0x3 ADD PUSH1 0x14 SWAP1 SLOAD SWAP1 PUSH2 0x100 EXP SWAP1 DIV PUSH1 0xFF AND PUSH2 0xE96 JUMPI PUSH1 0x40 MLOAD PUSH32 0x8C379A000000000000000000000000000000000000000000000000000000000 DUP2 MSTORE PUSH1 0x4 ADD PUSH2 0xE8D SWAP1 PUSH2 0x1F6A JUMP JUMPDEST PUSH1 0x40 MLOAD DUP1 SWAP2 SUB SWAP1 REVERT JUMPDEST DUP1 PUSH1 0x2 ADD PUSH0 CALLER PUSH20 0xFFFFFFFFFFFFFFFFFFFFFFFFFFFFFFFFFFFFFFFF AND PUSH20 0xFFFFFFFFFFFFFFFFFFFFFFFFFFFFFFFFFFFFFFFF AND DUP2 MSTORE PUSH1 0x20 ADD SWAP1 DUP2 MSTORE PUSH1 0x20 ADD PUSH0 KECCAK256 PUSH0 ADD PUSH0 SWAP1 SLOAD SWAP1 PUSH2 0x100 EXP SWAP1 DIV PUSH1 0xFF AND ISZERO PUSH2 0xF24 JUMPI PUSH1 0x40 MLOAD PUSH32 0x8C379A000000000000000000000000000000000000000000000000000000000 DUP2 MSTORE PUSH1 0x4 ADD PUSH2 0xF1B SWAP1 PUSH2 0x1FD2 JUMP JUMPDEST PUSH1 0x40 MLOAD DUP1 SWAP2 SUB SWAP1 REVERT JUMPDEST DUP1 PUSH1 0x1 ADD DUP1 SLOAD SWAP1 POP DUP3 LT PUSH2 0xF6D JUMPI PUSH1 0x40 MLOAD PUSH32 0x8C379A000000000000000000000000000000000000000000000000000000000 DUP2 MSTORE PUSH1 0x4 ADD PUSH2 0xF64 SWAP1 PUSH2 0x203A JUMP JUMPDEST PUSH1 0x40 MLOAD DUP1 SWAP2 SUB SWAP1 REVERT JUMPDEST PUSH1 0x1 DUP2 PUSH1 0x2 ADD PUSH0 CALLER PUSH20 0xFFFFFFFFFFFFFFFFFFFFFFFFFFFFFFFFFFFFFFFF AND PUSH20 0xFFFFFFFFFFFFFFFFFFFFFFFFFFFFFFFFFFFFFFFF AND DUP2 MSTORE PUSH1 0x20 ADD SWAP1 DUP2 MSTORE PUSH1 0x20 ADD PUSH0 KECCAK256 PUSH0 ADD PUSH0 PUSH2 0x100 EXP DUP2 SLOAD DUP2 PUSH1 0xFF MUL NOT AND SWAP1 DUP4 ISZERO ISZERO MUL OR SWAP1 SSTORE POP DUP1 PUSH1 0x1 ADD DUP3 DUP2 SLOAD DUP2 LT PUSH2 0xFDC JUMPI PUSH2 0xFDB PUSH2 0x1B00 JUMP JUMPDEST JUMPDEST SWAP1 PUSH0 MSTORE PUSH1 0x20 PUSH0 KECCAK256 SWAP1 PUSH1 0x2 MUL ADD PUSH1 0x1 ADD PUSH0 DUP2 SLOAD DUP1 SWAP3 SWAP2 SWAP1 PUSH2 0xFFB SWAP1 PUSH2 0x2058 JUMP JUMPDEST SWAP2 SWAP1 POP SSTORE POP DUP1 PUSH1 0x4 ADD CALLER SWAP1 DUP1 PUSH1 0x1 DUP2 SLOAD ADD DUP1 DUP3 SSTORE DUP1 SWAP2 POP POP PUSH1 0x1 SWAP1 SUB SWAP1 PUSH0 MSTORE PUSH1 0x20 PUSH0 KECCAK256 ADD PUSH0 SWAP1 SWAP2 SWAP1 SWAP2 SWAP1 SWAP2 PUSH2 0x100 EXP DUP2 SLOAD DUP2 PUSH20 0xFFFFFFFFFFFFFFFFFFFFFFFFFFFFFFFFFFFFFFFF MUL NOT AND SWAP1 DUP4 PUSH20 0xFFFFFFFFFFFFFFFFFFFFFFFFFFFFFFFFFFFFFFFF AND MUL OR SWAP1 SSTORE POP POP POP POP JUMP JUMPDEST PUSH0 DUP2 SWAP1 POP SWAP2 SWAP1 POP JUMP JUMPDEST PUSH2 0x1079 DUP2 PUSH2 0x1067 JUMP JUMPDEST DUP3 MSTORE POP POP JUMP JUMPDEST PUSH0 PUSH1 0x20 DUP3 ADD SWAP1 POP PUSH2 0x1092 PUSH0 DUP4 ADD DUP5 PUSH2 0x1070 JUMP JUMPDEST SWAP3 SWAP2 POP POP JUMP JUMPDEST PUSH0 PUSH1 0x40 MLOAD SWAP1 POP SWAP1 JUMP JUMPDEST PUSH0 DUP1 REVERT JUMPDEST PUSH0 DUP1 REVERT JUMPDEST PUSH2 0x10B2 DUP2 PUSH2 0x1067 JUMP JUMPDEST DUP2 EQ PUSH2 0x10BC JUMPI PUSH0 DUP1 REVERT JUMPDEST POP JUMP JUMPDEST PUSH0 DUP2 CALLDATALOAD SWAP1 POP PUSH2 0x10CD DUP2 PUSH2 0x10A9 JUMP JUMPDEST SWAP3 SWAP2 POP POP JUMP JUMPDEST PUSH0 DUP1 REVERT JUMPDEST PUSH0 DUP1 REVERT JUMPDEST PUSH0 PUSH1 0x1F NOT PUSH1 0x1F DUP4 ADD AND SWAP1 POP SWAP2 SWAP1 POP JUMP JUMPDEST PUSH32 0x4E487B7100000000000000000000000000000000000000000000000000000000 PUSH0 MSTORE PUSH1 0x41 PUSH1 0x4 MSTORE PUSH1 0x24 PUSH0 REVERT JUMPDEST PUSH2 0x1121 DUP3 PUSH2 0x10DB JUMP JUMPDEST DUP2 ADD DUP2 DUP2 LT PUSH8 0xFFFFFFFFFFFFFFFF DUP3 GT OR ISZERO PUSH2 0x1140 JUMPI PUSH2 0x113F PUSH2 0x10EB JUMP JUMPDEST JUMPDEST DUP1 PUSH1 0x40 MSTORE POP POP POP JUMP JUMPDEST PUSH0 PUSH2 0x1152 PUSH2 0x1098 JUMP JUMPDEST SWAP1 POP PUSH2 0x115E DUP3 DUP3 PUSH2 0x1118 JUMP JUMPDEST SWAP2 SWAP1 POP JUMP JUMPDEST PUSH0 PUSH8 0xFFFFFFFFFFFFFFFF DUP3 GT ISZERO PUSH2 0x117D JUMPI PUSH2 0x117C PUSH2 0x10EB JUMP JUMPDEST JUMPDEST PUSH2 0x1186 DUP3 PUSH2 0x10DB JUMP JUMPDEST SWAP1 POP PUSH1 0x20 DUP2 ADD SWAP1 POP SWAP2 SWAP1 POP JUMP JUMPDEST DUP3 DUP2 DUP4 CALLDATACOPY PUSH0 DUP4 DUP4 ADD MSTORE POP POP POP JUMP JUMPDEST PUSH0 PUSH2 0x11B3 PUSH2 0x11AE DUP5 PUSH2 0x1163 JUMP JUMPDEST PUSH2 0x1149 JUMP JUMPDEST SWAP1 POP DUP3 DUP2 MSTORE PUSH1 0x20 DUP2 ADD DUP5 DUP5 DUP5 ADD GT ISZERO PUSH2 0x11CF JUMPI PUSH2 0x11CE PUSH2 0x10D7 JUMP JUMPDEST JUMPDEST PUSH2 0x11DA DUP5 DUP3 DUP6 PUSH2 0x1193 JUMP JUMPDEST POP SWAP4 SWAP3 POP POP POP JUMP JUMPDEST PUSH0 DUP3 PUSH1 0x1F DUP4 ADD SLT PUSH2 0x11F6 JUMPI PUSH2 0x11F5 PUSH2 0x10D3 JUMP JUMPDEST JUMPDEST DUP2 CALLDATALOAD PUSH2 0x1206 DUP5 DUP3 PUSH1 0x20 DUP7 ADD PUSH2 0x11A1 JUMP JUMPDEST SWAP2 POP POP SWAP3 SWAP2 POP POP JUMP JUMPDEST PUSH0 DUP1 PUSH1 0x40 DUP4 DUP6 SUB SLT ISZERO PUSH2 0x1225 JUMPI PUSH2 0x1224 PUSH2 0x10A1 JUMP JUMPDEST JUMPDEST PUSH0 PUSH2 0x1232 DUP6 DUP3 DUP7 ADD PUSH2 0x10BF JUMP JUMPDEST SWAP3 POP POP PUSH1 0x20 DUP4 ADD CALLDATALOAD PUSH8 0xFFFFFFFFFFFFFFFF DUP2 GT ISZERO PUSH2 0x1253 JUMPI PUSH2 0x1252 PUSH2 0x10A5 JUMP JUMPDEST JUMPDEST PUSH2 0x125F DUP6 DUP3 DUP7 ADD PUSH2 0x11E2 JUMP JUMPDEST SWAP2 POP POP SWAP3 POP SWAP3 SWAP1 POP JUMP JUMPDEST PUSH0 PUSH1 0x20 DUP3 DUP5 SUB SLT ISZERO PUSH2 0x127E JUMPI PUSH2 0x127D PUSH2 0x10A1 JUMP JUMPDEST JUMPDEST PUSH0 PUSH2 0x128B DUP5 DUP3 DUP6 ADD PUSH2 0x10BF JUMP JUMPDEST SWAP2 POP POP SWAP3 SWAP2 POP POP JUMP JUMPDEST PUSH0 DUP2 MLOAD SWAP1 POP SWAP2 SWAP1 POP JUMP JUMPDEST PUSH0 DUP3 DUP3 MSTORE PUSH1 0x20 DUP3 ADD SWAP1 POP SWAP3 SWAP2 POP POP JUMP JUMPDEST DUP3 DUP2 DUP4 MCOPY PUSH0 DUP4 DUP4 ADD MSTORE POP POP POP JUMP JUMPDEST PUSH0 PUSH2 0x12C6 DUP3 PUSH2 0x1294 JUMP JUMPDEST PUSH2 0x12D0 DUP2 DUP6 PUSH2 0x129E JUMP JUMPDEST SWAP4 POP PUSH2 0x12E0 DUP2 DUP6 PUSH1 0x20 DUP7 ADD PUSH2 0x12AE JUMP JUMPDEST PUSH2 0x12E9 DUP2 PUSH2 0x10DB JUMP JUMPDEST DUP5 ADD SWAP2 POP POP SWAP3 SWAP2 POP POP JUMP JUMPDEST PUSH0 PUSH20 0xFFFFFFFFFFFFFFFFFFFFFFFFFFFFFFFFFFFFFFFF DUP3 AND SWAP1 POP SWAP2 SWAP1 POP JUMP JUMPDEST PUSH0 PUSH2 0x131D DUP3 PUSH2 0x12F4 JUMP JUMPDEST SWAP1 POP SWAP2 SWAP1 POP JUMP JUMPDEST PUSH2 0x132D DUP2 PUSH2 0x1313 JUMP JUMPDEST DUP3 MSTORE POP POP JUMP JUMPDEST PUSH0 DUP2 ISZERO ISZERO SWAP1 POP SWAP2 SWAP1 POP JUMP JUMPDEST PUSH2 0x1347 DUP2 PUSH2 0x1333 JUMP JUMPDEST DUP3 MSTORE POP POP JUMP JUMPDEST PUSH0 DUP2 MLOAD SWAP1 POP SWAP2 SWAP1 POP JUMP JUMPDEST PUSH0 DUP3 DUP3 MSTORE PUSH1 0x20 DUP3 ADD SWAP1 POP SWAP3 SWAP2 POP POP JUMP JUMPDEST PUSH0 DUP2 SWAP1 POP PUSH1 0x20 DUP3 ADD SWAP1 POP SWAP2 SWAP1 POP JUMP JUMPDEST PUSH0 DUP3 DUP3 MSTORE PUSH1 0x20 DUP3 ADD SWAP1 POP SWAP3 SWAP2 POP POP JUMP JUMPDEST PUSH0 PUSH2 0x1390 DUP3 PUSH2 0x1294 JUMP JUMPDEST PUSH2 0x139A DUP2 DUP6 PUSH2 0x1376 JUMP JUMPDEST SWAP4 POP PUSH2 0x13AA DUP2 DUP6 PUSH1 0x20 DUP7 ADD PUSH2 0x12AE JUMP JUMPDEST PUSH2 0x13B3 DUP2 PUSH2 0x10DB JUMP JUMPDEST DUP5 ADD SWAP2 POP POP SWAP3 SWAP2 POP POP JUMP JUMPDEST PUSH0 PUSH2 0x13C9 DUP4 DUP4 PUSH2 0x1386 JUMP JUMPDEST SWAP1 POP SWAP3 SWAP2 POP POP JUMP JUMPDEST PUSH0 PUSH1 0x20 DUP3 ADD SWAP1 POP SWAP2 SWAP1 POP JUMP JUMPDEST PUSH0 PUSH2 0x13E7 DUP3 PUSH2 0x134D JUMP JUMPDEST PUSH2 0x13F1 DUP2 DUP6 PUSH2 0x1357 JUMP JUMPDEST SWAP4 POP DUP4 PUSH1 0x20 DUP3 MUL DUP6 ADD PUSH2 0x1403 DUP6 PUSH2 0x1367 JUMP JUMPDEST DUP1 PUSH0 JUMPDEST DUP6 DUP2 LT ISZERO PUSH2 0x143E JUMPI DUP5 DUP5 SUB DUP10 MSTORE DUP2 MLOAD PUSH2 0x141F DUP6 DUP3 PUSH2 0x13BE JUMP JUMPDEST SWAP5 POP PUSH2 0x142A DUP4 PUSH2 0x13D1 JUMP JUMPDEST SWAP3 POP PUSH1 0x20 DUP11 ADD SWAP10 POP POP PUSH1 0x1 DUP2 ADD SWAP1 POP PUSH2 0x1406 JUMP JUMPDEST POP DUP3 SWAP8 POP DUP8 SWAP6 POP POP POP POP POP POP SWAP3 SWAP2 POP POP JUMP JUMPDEST PUSH0 DUP2 MLOAD SWAP1 POP SWAP2 SWAP1 POP JUMP JUMPDEST PUSH0 DUP3 DUP3 MSTORE PUSH1 0x20 DUP3 ADD SWAP1 POP SWAP3 SWAP2 POP POP JUMP JUMPDEST PUSH0 DUP2 SWAP1 POP PUSH1 0x20 DUP3 ADD SWAP1 POP SWAP2 SWAP1 POP JUMP JUMPDEST PUSH2 0x1482 DUP2 PUSH2 0x1067 JUMP JUMPDEST DUP3 MSTORE POP POP JUMP JUMPDEST PUSH0 PUSH2 0x1493 DUP4 DUP4 PUSH2 0x1479 JUMP JUMPDEST PUSH1 0x20 DUP4 ADD SWAP1 POP SWAP3 SWAP2 POP POP JUMP JUMPDEST PUSH0 PUSH1 0x20 DUP3 ADD SWAP1 POP SWAP2 SWAP1 POP JUMP JUMPDEST PUSH0 PUSH2 0x14B5 DUP3 PUSH2 0x1450 JUMP JUMPDEST PUSH2 0x14BF DUP2 DUP6 PUSH2 0x145A JUMP JUMPDEST SWAP4 POP PUSH2 0x14CA DUP4 PUSH2 0x146A JUMP JUMPDEST DUP1 PUSH0 JUMPDEST DUP4 DUP2 LT ISZERO PUSH2 0x14FA JUMPI DUP2 MLOAD PUSH2 0x14E1 DUP9 DUP3 PUSH2 0x1488 JUMP JUMPDEST SWAP8 POP PUSH2 0x14EC DUP4 PUSH2 0x149F JUMP JUMPDEST SWAP3 POP POP PUSH1 0x1 DUP2 ADD SWAP1 POP PUSH2 0x14CD JUMP JUMPDEST POP DUP6 SWAP4 POP POP POP POP SWAP3 SWAP2 POP POP JUMP JUMPDEST PUSH0 PUSH1 0xA0 DUP3 ADD SWAP1 POP DUP2 DUP2 SUB PUSH0 DUP4 ADD MSTORE PUSH2 0x151F DUP2 DUP9 PUSH2 0x12BC JUMP JUMPDEST SWAP1 POP PUSH2 0x152E PUSH1 0x20 DUP4 ADD DUP8 PUSH2 0x1324 JUMP JUMPDEST PUSH2 0x153B PUSH1 0x40 DUP4 ADD DUP7 PUSH2 0x133E JUMP JUMPDEST DUP2 DUP2 SUB PUSH1 0x60 DUP4 ADD MSTORE PUSH2 0x154D DUP2 DUP6 PUSH2 0x13DD JUMP JUMPDEST SWAP1 POP DUP2 DUP2 SUB PUSH1 0x80 DUP4 ADD MSTORE PUSH2 0x1561 DUP2 DUP5 PUSH2 0x14AB JUMP JUMPDEST SWAP1 POP SWAP7 SWAP6 POP POP POP POP POP POP JUMP JUMPDEST PUSH0 PUSH1 0x20 DUP3 DUP5 SUB SLT ISZERO PUSH2 0x1582 JUMPI PUSH2 0x1581 PUSH2 0x10A1 JUMP JUMPDEST JUMPDEST PUSH0 DUP3 ADD CALLDATALOAD PUSH8 0xFFFFFFFFFFFFFFFF DUP2 GT ISZERO PUSH2 0x159F JUMPI PUSH2 0x159E PUSH2 0x10A5 JUMP JUMPDEST JUMPDEST PUSH2 0x15AB DUP5 DUP3 DUP6 ADD PUSH2 0x11E2 JUMP JUMPDEST SWAP2 POP POP SWAP3 SWAP2 POP POP JUMP JUMPDEST PUSH0 PUSH1 0x20 DUP3 ADD SWAP1 POP PUSH2 0x15C7 PUSH0 DUP4 ADD DUP5 PUSH2 0x133E JUMP JUMPDEST SWAP3 SWAP2 POP POP JUMP JUMPDEST PUSH0 DUP2 MLOAD SWAP1 POP SWAP2 SWAP1 POP JUMP JUMPDEST PUSH0 DUP3 DUP3 MSTORE PUSH1 0x20 DUP3 ADD SWAP1 POP SWAP3 SWAP2 POP POP JUMP JUMPDEST PUSH0 DUP2 SWAP1 POP PUSH1 0x20 DUP3 ADD SWAP1 POP SWAP2 SWAP1 POP JUMP JUMPDEST PUSH2 0x15FF DUP2 PUSH2 0x1313 JUMP JUMPDEST DUP3 MSTORE POP POP JUMP JUMPDEST PUSH0 PUSH2 0x1610 DUP4 DUP4 PUSH2 0x15F6 JUMP JUMPDEST PUSH1 0x20 DUP4 ADD SWAP1 POP SWAP3 SWAP2 POP POP JUMP JUMPDEST PUSH0 PUSH1 0x20 DUP3 ADD SWAP1 POP SWAP2 SWAP1 POP JUMP JUMPDEST PUSH0 PUSH2 0x1632 DUP3 PUSH2 0x15CD JUMP JUMPDEST PUSH2 0x163C DUP2 DUP6 PUSH2 0x15D7 JUMP JUMPDEST SWAP4 POP PUSH2 0x1647 DUP4 PUSH2 0x15E7 JUMP JUMPDEST DUP1 PUSH0 JUMPDEST DUP4 DUP2 LT ISZERO PUSH2 0x1677 JUMPI DUP2 MLOAD PUSH2 0x165E DUP9 DUP3 PUSH2 0x1605 JUMP JUMPDEST SWAP8 POP PUSH2 0x1669 DUP4 PUSH2 0x161C JUMP JUMPDEST SWAP3 POP POP PUSH1 0x1 DUP2 ADD SWAP1 POP PUSH2 0x164A JUMP JUMPDEST POP DUP6 SWAP4 POP POP POP POP SWAP3 SWAP2 POP POP JUMP JUMPDEST PUSH0 DUP2 MLOAD SWAP1 POP SWAP2 SWAP1 POP JUMP JUMPDEST PUSH0 DUP3 DUP3 MSTORE PUSH1 0x20 DUP3 ADD SWAP1 POP SWAP3 SWAP2 POP POP JUMP JUMPDEST PUSH0 DUP2 SWAP1 POP PUSH1 0x20 DUP3 ADD SWAP1 POP SWAP2 SWAP1 POP JUMP JUMPDEST PUSH2 0x16B6 DUP2 PUSH2 0x1333 JUMP JUMPDEST DUP3 MSTORE POP POP JUMP JUMPDEST PUSH0 PUSH2 0x16C7 DUP4 DUP4 PUSH2 0x16AD JUMP JUMPDEST PUSH1 0x20 DUP4 ADD SWAP1 POP SWAP3 SWAP2 POP POP JUMP JUMPDEST PUSH0 PUSH1 0x20 DUP3 ADD SWAP1 POP SWAP2 SWAP1 POP JUMP JUMPDEST PUSH0 PUSH2 0x16E9 DUP3 PUSH2 0x1684 JUMP JUMPDEST PUSH2 0x16F3 DUP2 DUP6 PUSH2 0x168E JUMP JUMPDEST SWAP4 POP PUSH2 0x16FE DUP4 PUSH2 0x169E JUMP JUMPDEST DUP1 PUSH0 JUMPDEST DUP4 DUP2 LT ISZERO PUSH2 0x172E JUMPI DUP2 MLOAD PUSH2 0x1715 DUP9 DUP3 PUSH2 0x16BC JUMP JUMPDEST SWAP8 POP PUSH2 0x1720 DUP4 PUSH2 0x16D3 JUMP JUMPDEST SWAP3 POP POP PUSH1 0x1 DUP2 ADD SWAP1 POP PUSH2 0x1701 JUMP JUMPDEST POP DUP6 SWAP4 POP POP POP POP SWAP3 SWAP2 POP POP JUMP JUMPDEST PUSH0 DUP2 MLOAD SWAP1 POP SWAP2 SWAP1 POP JUMP JUMPDEST PUSH0 DUP3 DUP3 MSTORE PUSH1 0x20 DUP3 ADD SWAP1 POP SWAP3 SWAP2 POP POP JUMP JUMPDEST PUSH0 DUP2 SWAP1 POP PUSH1 0x20 DUP3 ADD SWAP1 POP SWAP2 SWAP1 POP JUMP JUMPDEST PUSH0 DUP2 MLOAD SWAP1 POP SWAP2 SWAP1 POP JUMP JUMPDEST PUSH0 DUP3 DUP3 MSTORE PUSH1 0x20 DUP3 ADD SWAP1 POP SWAP3 SWAP2 POP POP JUMP JUMPDEST PUSH0 DUP2 SWAP1 POP PUSH1 0x20 DUP3 ADD SWAP1 POP SWAP2 SWAP1 POP JUMP JUMPDEST PUSH0 PUSH1 0x40 DUP4 ADD PUSH0 DUP4 ADD MLOAD DUP5 DUP3 SUB PUSH0 DUP7 ADD MSTORE PUSH2 0x17A7 DUP3 DUP3 PUSH2 0x1386 JUMP JUMPDEST SWAP2 POP POP PUSH1 0x20 DUP4 ADD MLOAD PUSH2 0x17BC PUSH1 0x20 DUP7 ADD DUP3 PUSH2 0x1479 JUMP JUMPDEST POP DUP1 SWAP2 POP POP SWAP3 SWAP2 POP POP JUMP JUMPDEST PUSH0 PUSH2 0x17D2 DUP4 DUP4 PUSH2 0x178D JUMP JUMPDEST SWAP1 POP SWAP3 SWAP2 POP POP JUMP JUMPDEST PUSH0 PUSH1 0x20 DUP3 ADD SWAP1 POP SWAP2 SWAP1 POP JUMP JUMPDEST PUSH0 PUSH2 0x17F0 DUP3 PUSH2 0x1764 JUMP JUMPDEST PUSH2 0x17FA DUP2 DUP6 PUSH2 0x176E JUMP JUMPDEST SWAP4 POP DUP4 PUSH1 0x20 DUP3 MUL DUP6 ADD PUSH2 0x180C DUP6 PUSH2 0x177E JUMP JUMPDEST DUP1 PUSH0 JUMPDEST DUP6 DUP2 LT ISZERO PUSH2 0x1847 JUMPI DUP5 DUP5 SUB DUP10 MSTORE DUP2 MLOAD PUSH2 0x1828 DUP6 DUP3 PUSH2 0x17C7 JUMP JUMPDEST SWAP5 POP PUSH2 0x1833 DUP4 PUSH2 0x17DA JUMP JUMPDEST SWAP3 POP PUSH1 0x20 DUP11 ADD SWAP10 POP POP PUSH1 0x1 DUP2 ADD SWAP1 POP PUSH2 0x180F JUMP JUMPDEST POP DUP3 SWAP8 POP DUP8 SWAP6 POP POP POP POP POP POP SWAP3 SWAP2 POP POP JUMP JUMPDEST PUSH0 PUSH2 0x1864 DUP4 DUP4 PUSH2 0x17E6 JUMP JUMPDEST SWAP1 POP SWAP3 SWAP2 POP POP JUMP JUMPDEST PUSH0 PUSH1 0x20 DUP3 ADD SWAP1 POP SWAP2 SWAP1 POP JUMP JUMPDEST PUSH0 PUSH2 0x1882 DUP3 PUSH2 0x173B JUMP JUMPDEST PUSH2 0x188C DUP2 DUP6 PUSH2 0x1745 JUMP JUMPDEST SWAP4 POP DUP4 PUSH1 0x20 DUP3 MUL DUP6 ADD PUSH2 0x189E DUP6 PUSH2 0x1755 JUMP JUMPDEST DUP1 PUSH0 JUMPDEST DUP6 DUP2 LT ISZERO PUSH2 0x18D9 JUMPI DUP5 DUP5 SUB DUP10 MSTORE DUP2 MLOAD PUSH2 0x18BA DUP6 DUP3 PUSH2 0x1859 JUMP JUMPDEST SWAP5 POP PUSH2 0x18C5 DUP4 PUSH2 0x186C JUMP JUMPDEST SWAP3 POP PUSH1 0x20 DUP11 ADD SWAP10 POP POP PUSH1 0x1 DUP2 ADD SWAP1 POP PUSH2 0x18A1 JUMP JUMPDEST POP DUP3 SWAP8 POP DUP8 SWAP6 POP POP POP POP POP POP SWAP3 SWAP2 POP POP JUMP JUMPDEST PUSH0 DUP2 MLOAD SWAP1 POP SWAP2 SWAP1 POP JUMP JUMPDEST PUSH0 DUP3 DUP3 MSTORE PUSH1 0x20 DUP3 ADD SWAP1 POP SWAP3 SWAP2 POP POP JUMP JUMPDEST PUSH0 DUP2 SWAP1 POP PUSH1 0x20 DUP3 ADD SWAP1 POP SWAP2 SWAP1 POP JUMP JUMPDEST PUSH0 DUP3 DUP3 MSTORE PUSH1 0x20 DUP3 ADD SWAP1 POP SWAP3 SWAP2 POP POP JUMP JUMPDEST PUSH0 PUSH2 0x192E DUP3 PUSH2 0x1684 JUMP JUMPDEST PUSH2 0x1938 DUP2 DUP6 PUSH2 0x1914 JUMP JUMPDEST SWAP4 POP PUSH2 0x1943 DUP4 PUSH2 0x169E JUMP JUMPDEST DUP1 PUSH0 JUMPDEST DUP4 DUP2 LT ISZERO PUSH2 0x1973 JUMPI DUP2 MLOAD PUSH2 0x195A DUP9 DUP3 PUSH2 0x16BC JUMP JUMPDEST SWAP8 POP PUSH2 0x1965 DUP4 PUSH2 0x16D3 JUMP JUMPDEST SWAP3 POP POP PUSH1 0x1 DUP2 ADD SWAP1 POP PUSH2 0x1946 JUMP JUMPDEST POP DUP6 SWAP4 POP POP POP POP SWAP3 SWAP2 POP POP JUMP JUMPDEST PUSH0 PUSH2 0x198B DUP4 DUP4 PUSH2 0x1924 JUMP JUMPDEST SWAP1 POP SWAP3 SWAP2 POP POP JUMP JUMPDEST PUSH0 PUSH1 0x20 DUP3 ADD SWAP1 POP SWAP2 SWAP1 POP JUMP JUMPDEST PUSH0 PUSH2 0x19A9 DUP3 PUSH2 0x18EB JUMP JUMPDEST PUSH2 0x19B3 DUP2 DUP6 PUSH2 0x18F5 JUMP JUMPDEST SWAP4 POP DUP4 PUSH1 0x20 DUP3 MUL DUP6 ADD PUSH2 0x19C5 DUP6 PUSH2 0x1905 JUMP JUMPDEST DUP1 PUSH0 JUMPDEST DUP6 DUP2 LT ISZERO PUSH2 0x1A00 JUMPI DUP5 DUP5 SUB DUP10 MSTORE DUP2 MLOAD PUSH2 0x19E1 DUP6 DUP3 PUSH2 0x1980 JUMP JUMPDEST SWAP5 POP PUSH2 0x19EC DUP4 PUSH2 0x1993 JUMP JUMPDEST SWAP3 POP PUSH1 0x20 DUP11 ADD SWAP10 POP POP PUSH1 0x1 DUP2 ADD SWAP1 POP PUSH2 0x19C8 JUMP JUMPDEST POP DUP3 SWAP8 POP DUP8 SWAP6 POP POP POP POP POP POP SWAP3 SWAP2 POP POP JUMP JUMPDEST PUSH0 PUSH1 0xA0 DUP3 ADD SWAP1 POP DUP2 DUP2 SUB PUSH0 DUP4 ADD MSTORE PUSH2 0x1A2A DUP2 DUP9 PUSH2 0x13DD JUMP JUMPDEST SWAP1 POP DUP2 DUP2 SUB PUSH1 0x20 DUP4 ADD MSTORE PUSH2 0x1A3E DUP2 DUP8 PUSH2 0x1628 JUMP JUMPDEST SWAP1 POP DUP2 DUP2 SUB PUSH1 0x40 DUP4 ADD MSTORE PUSH2 0x1A52 DUP2 DUP7 PUSH2 0x16DF JUMP JUMPDEST SWAP1 POP DUP2 DUP2 SUB PUSH1 0x60 DUP4 ADD MSTORE PUSH2 0x1A66 DUP2 DUP6 PUSH2 0x1878 JUMP JUMPDEST SWAP1 POP DUP2 DUP2 SUB PUSH1 0x80 DUP4 ADD MSTORE PUSH2 0x1A7A DUP2 DUP5 PUSH2 0x199F JUMP JUMPDEST SWAP1 POP SWAP7 SWAP6 POP POP POP POP POP POP JUMP JUMPDEST PUSH0 PUSH1 0x60 DUP3 ADD SWAP1 POP DUP2 DUP2 SUB PUSH0 DUP4 ADD MSTORE PUSH2 0x1A9E DUP2 DUP7 PUSH2 0x12BC JUMP JUMPDEST SWAP1 POP PUSH2 0x1AAD PUSH1 0x20 DUP4 ADD DUP6 PUSH2 0x1324 JUMP JUMPDEST PUSH2 0x1ABA PUSH1 0x40 DUP4 ADD DUP5 PUSH2 0x133E JUMP JUMPDEST SWAP5 SWAP4 POP POP POP POP JUMP JUMPDEST PUSH0 DUP1 PUSH1 0x40 DUP4 DUP6 SUB SLT ISZERO PUSH2 0x1AD8 JUMPI PUSH2 0x1AD7 PUSH2 0x10A1 JUMP JUMPDEST JUMPDEST PUSH0 PUSH2 0x1AE5 DUP6 DUP3 DUP7 ADD PUSH2 0x10BF JUMP JUMPDEST SWAP3 POP POP PUSH1 0x20 PUSH2 0x1AF6 DUP6 DUP3 DUP7 ADD PUSH2 0x10BF JUMP JUMPDEST SWAP2 POP POP SWAP3 POP SWAP3 SWAP1 POP JUMP JUMPDEST PUSH32 0x4E487B7100000000000000000000000000000000000000000000000000000000 PUSH0 MSTORE PUSH1 0x32 PUSH1 0x4 MSTORE PUSH1 0x24 PUSH0 REVERT JUMPDEST PUSH32 0x4F6E6C7920746865206F776E65722063616E206164642063616E646964617465 PUSH0 DUP3 ADD MSTORE PUSH32 0x7300000000000000000000000000000000000000000000000000000000000000 PUSH1 0x20 DUP3 ADD MSTORE POP JUMP JUMPDEST PUSH0 PUSH2 0x1B87 PUSH1 0x21 DUP4 PUSH2 0x129E JUMP JUMPDEST SWAP2 POP PUSH2 0x1B92 DUP3 PUSH2 0x1B2D JUMP JUMPDEST PUSH1 0x40 DUP3 ADD SWAP1 POP SWAP2 SWAP1 POP JUMP JUMPDEST PUSH0 PUSH1 0x20 DUP3 ADD SWAP1 POP DUP2 DUP2 SUB PUSH0 DUP4 ADD MSTORE PUSH2 0x1BB4 DUP2 PUSH2 0x1B7B JUMP JUMPDEST SWAP1 POP SWAP2 SWAP1 POP JUMP JUMPDEST PUSH32 0x4E487B7100000000000000000000000000000000000000000000000000000000 PUSH0 MSTORE PUSH1 0x22 PUSH1 0x4 MSTORE PUSH1 0x24 PUSH0 REVERT JUMPDEST PUSH0 PUSH1 0x2 DUP3 DIV SWAP1 POP PUSH1 0x1 DUP3 AND DUP1 PUSH2 0x1BFF JUMPI PUSH1 0x7F DUP3 AND SWAP2 POP JUMPDEST PUSH1 0x20 DUP3 LT DUP2 SUB PUSH2 0x1C12 JUMPI PUSH2 0x1C11 PUSH2 0x1BBB JUMP JUMPDEST JUMPDEST POP SWAP2 SWAP1 POP JUMP JUMPDEST PUSH0 DUP2 SWAP1 POP DUP2 PUSH0 MSTORE PUSH1 0x20 PUSH0 KECCAK256 SWAP1 POP SWAP2 SWAP1 POP JUMP JUMPDEST PUSH0 PUSH1 0x20 PUSH1 0x1F DUP4 ADD DIV SWAP1 POP SWAP2 SWAP1 POP JUMP JUMPDEST PUSH0 DUP3 DUP3 SHL SWAP1 POP SWAP3 SWAP2 POP POP JUMP JUMPDEST PUSH0 PUSH1 0x8 DUP4 MUL PUSH2 0x1C74 PUSH32 0xFFFFFFFFFFFFFFFFFFFFFFFFFFFFFFFFFFFFFFFFFFFFFFFFFFFFFFFFFFFFFFFF DUP3 PUSH2 0x1C39 JUMP JUMPDEST PUSH2 0x1C7E DUP7 DUP4 PUSH2 0x1C39 JUMP JUMPDEST SWAP6 POP DUP1 NOT DUP5 AND SWAP4 POP DUP1 DUP7 AND DUP5 OR SWAP3 POP POP POP SWAP4 SWAP3 POP POP POP JUMP JUMPDEST PUSH0 DUP2 SWAP1 POP SWAP2 SWAP1 POP JUMP JUMPDEST PUSH0 PUSH2 0x1CB9 PUSH2 0x1CB4 PUSH2 0x1CAF DUP5 PUSH2 0x1067 JUMP JUMPDEST PUSH2 0x1C96 JUMP JUMPDEST PUSH2 0x1067 JUMP JUMPDEST SWAP1 POP SWAP2 SWAP1 POP JUMP JUMPDEST PUSH0 DUP2 SWAP1 POP SWAP2 SWAP1 POP JUMP JUMPDEST PUSH2 0x1CD2 DUP4 PUSH2 0x1C9F JUMP JUMPDEST PUSH2 0x1CE6 PUSH2 0x1CDE DUP3 PUSH2 0x1CC0 JUMP JUMPDEST DUP5 DUP5 SLOAD PUSH2 0x1C45 JUMP JUMPDEST DUP3 SSTORE POP POP POP POP JUMP JUMPDEST PUSH0 SWAP1 JUMP JUMPDEST PUSH2 0x1CFA PUSH2 0x1CEE JUMP JUMPDEST PUSH2 0x1D05 DUP2 DUP5 DUP5 PUSH2 0x1CC9 JUMP JUMPDEST POP POP POP JUMP JUMPDEST JUMPDEST DUP2 DUP2 LT ISZERO PUSH2 0x1D28 JUMPI PUSH2 0x1D1D PUSH0 DUP3 PUSH2 0x1CF2 JUMP JUMPDEST PUSH1 0x1 DUP2 ADD SWAP1 POP PUSH2 0x1D0B JUMP JUMPDEST POP POP JUMP JUMPDEST PUSH1 0x1F DUP3 GT ISZERO PUSH2 0x1D6D JUMPI PUSH2 0x1D3E DUP2 PUSH2 0x1C18 JUMP JUMPDEST PUSH2 0x1D47 DUP5 PUSH2 0x1C2A JUMP JUMPDEST DUP2 ADD PUSH1 0x20 DUP6 LT ISZERO PUSH2 0x1D56 JUMPI DUP2 SWAP1 POP JUMPDEST PUSH2 0x1D6A PUSH2 0x1D62 DUP6 PUSH2 0x1C2A JUMP JUMPDEST DUP4 ADD DUP3 PUSH2 0x1D0A JUMP JUMPDEST POP POP JUMPDEST POP POP POP JUMP JUMPDEST PUSH0 DUP3 DUP3 SHR SWAP1 POP SWAP3 SWAP2 POP POP JUMP JUMPDEST PUSH0 PUSH2 0x1D8D PUSH0 NOT DUP5 PUSH1 0x8 MUL PUSH2 0x1D72 JUMP JUMPDEST NOT DUP1 DUP4 AND SWAP2 POP POP SWAP3 SWAP2 POP POP JUMP JUMPDEST PUSH0 PUSH2 0x1DA5 DUP4 DUP4 PUSH2 0x1D7E JUMP JUMPDEST SWAP2 POP DUP3 PUSH1 0x2 MUL DUP3 OR SWAP1 POP SWAP3 SWAP2 POP POP JUMP JUMPDEST PUSH2 0x1DBE DUP3 PUSH2 0x1294 JUMP JUMPDEST PUSH8 0xFFFFFFFFFFFFFFFF DUP2 GT ISZERO PUSH2 0x1DD7 JUMPI PUSH2 0x1DD6 PUSH2 0x10EB JUMP JUMPDEST JUMPDEST PUSH2 0x1DE1 DUP3 SLOAD PUSH2 0x1BE8 JUMP JUMPDEST PUSH2 0x1DEC DUP3 DUP3 DUP6 PUSH2 0x1D2C JUMP JUMPDEST PUSH0 PUSH1 0x20 SWAP1 POP PUSH1 0x1F DUP4 GT PUSH1 0x1 DUP2 EQ PUSH2 0x1E1D JUMPI PUSH0 DUP5 ISZERO PUSH2 0x1E0B JUMPI DUP3 DUP8 ADD MLOAD SWAP1 POP JUMPDEST PUSH2 0x1E15 DUP6 DUP3 PUSH2 0x1D9A JUMP JUMPDEST DUP7 SSTORE POP PUSH2 0x1E7C JUMP JUMPDEST PUSH1 0x1F NOT DUP5 AND PUSH2 0x1E2B DUP7 PUSH2 0x1C18 JUMP JUMPDEST PUSH0 JUMPDEST DUP3 DUP2 LT ISZERO PUSH2 0x1E52 JUMPI DUP5 DUP10 ADD MLOAD DUP3 SSTORE PUSH1 0x1 DUP3 ADD SWAP2 POP PUSH1 0x20 DUP6 ADD SWAP5 POP PUSH1 0x20 DUP2 ADD SWAP1 POP PUSH2 0x1E2D JUMP JUMPDEST DUP7 DUP4 LT ISZERO PUSH2 0x1E6F JUMPI DUP5 DUP10 ADD MLOAD PUSH2 0x1E6B PUSH1 0x1F DUP10 AND DUP3 PUSH2 0x1D7E JUMP JUMPDEST DUP4 SSTORE POP JUMPDEST PUSH1 0x1 PUSH1 0x2 DUP9 MUL ADD DUP9 SSTORE POP POP POP JUMPDEST POP POP POP POP POP POP JUMP JUMPDEST PUSH32 0x4E487B7100000000000000000000000000000000000000000000000000000000 PUSH0 MSTORE PUSH1 0x11 PUSH1 0x4 MSTORE PUSH1 0x24 PUSH0 REVERT JUMPDEST PUSH0 PUSH2 0x1EBB DUP3 PUSH2 0x1067 JUMP JUMPDEST SWAP2 POP PUSH2 0x1EC6 DUP4 PUSH2 0x1067 JUMP JUMPDEST SWAP3 POP DUP3 DUP3 SUB SWAP1 POP DUP2 DUP2 GT ISZERO PUSH2 0x1EDE JUMPI PUSH2 0x1EDD PUSH2 0x1E84 JUMP JUMPDEST JUMPDEST SWAP3 SWAP2 POP POP JUMP JUMPDEST PUSH0 PUSH1 0x60 DUP3 ADD SWAP1 POP PUSH2 0x1EF7 PUSH0 DUP4 ADD DUP7 PUSH2 0x1070 JUMP JUMPDEST DUP2 DUP2 SUB PUSH1 0x20 DUP4 ADD MSTORE PUSH2 0x1F09 DUP2 DUP6 PUSH2 0x12BC JUMP JUMPDEST SWAP1 POP PUSH2 0x1F18 PUSH1 0x40 DUP4 ADD DUP5 PUSH2 0x1324 JUMP JUMPDEST SWAP5 SWAP4 POP POP POP POP JUMP JUMPDEST PUSH32 0x506F6C6C206973206E6F74206163746976650000000000000000000000000000 PUSH0 DUP3 ADD MSTORE POP JUMP JUMPDEST PUSH0 PUSH2 0x1F54 PUSH1 0x12 DUP4 PUSH2 0x129E JUMP JUMPDEST SWAP2 POP PUSH2 0x1F5F DUP3 PUSH2 0x1F20 JUMP JUMPDEST PUSH1 0x20 DUP3 ADD SWAP1 POP SWAP2 SWAP1 POP JUMP JUMPDEST PUSH0 PUSH1 0x20 DUP3 ADD SWAP1 POP DUP2 DUP2 SUB PUSH0 DUP4 ADD MSTORE PUSH2 0x1F81 DUP2 PUSH2 0x1F48 JUMP JUMPDEST SWAP1 POP SWAP2 SWAP1 POP JUMP JUMPDEST PUSH32 0x596F75206861766520616C726561647920766F74656400000000000000000000 PUSH0 DUP3 ADD MSTORE POP JUMP JUMPDEST PUSH0 PUSH2 0x1FBC PUSH1 0x16 DUP4 PUSH2 0x129E JUMP JUMPDEST SWAP2 POP PUSH2 0x1FC7 DUP3 PUSH2 0x1F88 JUMP JUMPDEST PUSH1 0x20 DUP3 ADD SWAP1 POP SWAP2 SWAP1 POP JUMP JUMPDEST PUSH0 PUSH1 0x20 DUP3 ADD SWAP1 POP DUP2 DUP2 SUB PUSH0 DUP4 ADD MSTORE PUSH2 0x1FE9 DUP2 PUSH2 0x1FB0 JUMP JUMPDEST SWAP1 POP SWAP2 SWAP1 POP JUMP JUMPDEST PUSH32 0x496E76616C69642063616E64696461746520696E646578000000000000000000 PUSH0 DUP3 ADD MSTORE POP JUMP JUMPDEST PUSH0 PUSH2 0x2024 PUSH1 0x17 DUP4 PUSH2 0x129E JUMP JUMPDEST SWAP2 POP PUSH2 0x202F DUP3 PUSH2 0x1FF0 JUMP JUMPDEST PUSH1 0x20 DUP3 ADD SWAP1 POP SWAP2 SWAP1 POP JUMP JUMPDEST PUSH0 PUSH1 0x20 DUP3 ADD SWAP1 POP DUP2 DUP2 SUB PUSH0 DUP4 ADD MSTORE PUSH2 0x2051 DUP2 PUSH2 0x2018 JUMP JUMPDEST SWAP1 POP SWAP2 SWAP1 POP JUMP JUMPDEST PUSH0 PUSH2 0x2062 DUP3 PUSH2 0x1067 JUMP JUMPDEST SWAP2 POP PUSH32 0xFFFFFFFFFFFFFFFFFFFFFFFFFFFFFFFFFFFFFFFFFFFFFFFFFFFFFFFFFFFFFFFF DUP3 SUB PUSH2 0x2094 JUMPI PUSH2 0x2093 PUSH2 0x1E84 JUMP JUMPDEST JUMPDEST PUSH1 0x1 DUP3 ADD SWAP1 POP SWAP2 SWAP1 POP JUMP INVALID LOG2 PUSH5 0x6970667358 0x22 SLT KECCAK256 0xEA 0xCD DUP8 NUMBER 0xE JUMPI PUSH19 0x51ACC48C7B6F1199AA7885DB9F28E2D9E0A51D 0xEF 0x28 EXTCODESIZE BLOCKHASH DUP6 0xEB PUSH5 0x736F6C6343 STOP ADDMOD BYTE STOP CALLER "
				},
				"gasEstimates": {
					"creation": {
						"codeDepositCost": "1681000",
						"executionCost": "1762",
						"totalCost": "1682762"
					},
					"external": {
						"addCandidate(uint256,string)": "infinite",
						"createPoll(string)": "infinite",
						"getAllPoll()": "infinite",
						"getHasVoted(uint256)": "5033",
						"getPollCount()": "2441",
						"getPollResults(uint256)": "infinite",
						"polls(uint256)": "infinite",
						"vote(uint256,uint256)": "infinite"
					}
				},
				"methodIdentifiers": {
					"addCandidate(uint256,string)": "1750a3d0",
					"createPoll(string)": "74a9ced9",
					"getAllPoll()": "9844f215",
					"getHasVoted(uint256)": "7b70e360",
					"getPollCount()": "11a52746",
					"getPollResults(uint256)": "33b4097b",
					"polls(uint256)": "ac2f0074",
					"vote(uint256,uint256)": "b384abef"
				}
			},
			"storageLayout": {
				"storage": [
					{
						"astId": 32,
						"contract": "blockchain/practice/vote-app.sol:Vote",
						"label": "polls",
						"offset": 0,
						"slot": "0",
						"type": "t_array(t_struct(Poll)28_storage)dyn_storage"
					}
				],
				"types": {
					"t_address": {
						"encoding": "inplace",
						"label": "address",
						"numberOfBytes": "20"
					},
					"t_array(t_address)dyn_storage": {
						"base": "t_address",
						"encoding": "dynamic_array",
						"label": "address[]",
						"numberOfBytes": "32"
					},
					"t_array(t_struct(Candidate)6_storage)dyn_storage": {
						"base": "t_struct(Candidate)6_storage",
						"encoding": "dynamic_array",
						"label": "struct Vote.Candidate[]",
						"numberOfBytes": "32"
					},
					"t_array(t_struct(Poll)28_storage)dyn_storage": {
						"base": "t_struct(Poll)28_storage",
						"encoding": "dynamic_array",
						"label": "struct Vote.Poll[]",
						"numberOfBytes": "32"
					},
					"t_bool": {
						"encoding": "inplace",
						"label": "bool",
						"numberOfBytes": "1"
					},
					"t_mapping(t_address,t_struct(Voter)9_storage)": {
						"encoding": "mapping",
						"key": "t_address",
						"label": "mapping(address => struct Vote.Voter)",
						"numberOfBytes": "32",
						"value": "t_struct(Voter)9_storage"
					},
					"t_string_storage": {
						"encoding": "bytes",
						"label": "string",
						"numberOfBytes": "32"
					},
					"t_struct(Candidate)6_storage": {
						"encoding": "inplace",
						"label": "struct Vote.Candidate",
						"members": [
							{
								"astId": 3,
								"contract": "blockchain/practice/vote-app.sol:Vote",
								"label": "name",
								"offset": 0,
								"slot": "0",
								"type": "t_string_storage"
							},
							{
								"astId": 5,
								"contract": "blockchain/practice/vote-app.sol:Vote",
								"label": "upVote",
								"offset": 0,
								"slot": "1",
								"type": "t_uint256"
							}
						],
						"numberOfBytes": "64"
					},
					"t_struct(Poll)28_storage": {
						"encoding": "inplace",
						"label": "struct Vote.Poll",
						"members": [
							{
								"astId": 11,
								"contract": "blockchain/practice/vote-app.sol:Vote",
								"label": "question",
								"offset": 0,
								"slot": "0",
								"type": "t_string_storage"
							},
							{
								"astId": 15,
								"contract": "blockchain/practice/vote-app.sol:Vote",
								"label": "candidates",
								"offset": 0,
								"slot": "1",
								"type": "t_array(t_struct(Candidate)6_storage)dyn_storage"
							},
							{
								"astId": 20,
								"contract": "blockchain/practice/vote-app.sol:Vote",
								"label": "voters",
								"offset": 0,
								"slot": "2",
								"type": "t_mapping(t_address,t_struct(Voter)9_storage)"
							},
							{
								"astId": 22,
								"contract": "blockchain/practice/vote-app.sol:Vote",
								"label": "owner",
								"offset": 0,
								"slot": "3",
								"type": "t_address"
							},
							{
								"astId": 24,
								"contract": "blockchain/practice/vote-app.sol:Vote",
								"label": "isActive",
								"offset": 20,
								"slot": "3",
								"type": "t_bool"
							},
							{
								"astId": 27,
								"contract": "blockchain/practice/vote-app.sol:Vote",
								"label": "voterAddresses",
								"offset": 0,
								"slot": "4",
								"type": "t_array(t_address)dyn_storage"
							}
						],
						"numberOfBytes": "160"
					},
					"t_struct(Voter)9_storage": {
						"encoding": "inplace",
						"label": "struct Vote.Voter",
						"members": [
							{
								"astId": 8,
								"contract": "blockchain/practice/vote-app.sol:Vote",
								"label": "isVoted",
								"offset": 0,
								"slot": "0",
								"type": "t_bool"
							}
						],
						"numberOfBytes": "32"
					},
					"t_uint256": {
						"encoding": "inplace",
						"label": "uint256",
						"numberOfBytes": "32"
					}
				}
			},
			"userdoc": {
				"kind": "user",
				"methods": {},
				"version": 1
			}
		}
	}
}