{
	"blockchain/practice/vote-app.sol": {
		"Vote": {
			"abi": [
				{
					"anonymous": false,
					"inputs": [
						{
							"indexed": false,
							"internalType": "uint256",
							"name": "pollId",
							"type": "uint256"
						},
						{
							"indexed": false,
							"internalType": "string",
							"name": "question",
							"type": "string"
						},
						{
							"indexed": false,
							"internalType": "address",
							"name": "owner",
							"type": "address"
						}
					],
					"name": "CreatePoll",
					"type": "event"
				},
				{
					"anonymous": false,
					"inputs": [
						{
							"indexed": true,
							"internalType": "address",
							"name": "voter",
							"type": "address"
						},
						{
							"indexed": true,
							"internalType": "uint256",
							"name": "pollId",
							"type": "uint256"
						},
						{
							"indexed": true,
							"internalType": "uint256",
							"name": "candidateIndex",
							"type": "uint256"
						}
					],
					"name": "VoteCast",
					"type": "event"
				},
				{
					"inputs": [
						{
							"internalType": "uint256",
							"name": "_pollId",
							"type": "uint256"
						},
						{
							"internalType": "string",
							"name": "_name",
							"type": "string"
						}
					],
					"name": "addCandidate",
					"outputs": [],
					"stateMutability": "nonpayable",
					"type": "function"
				},
				{
					"inputs": [
						{
							"internalType": "string",
							"name": "_question",
							"type": "string"
						}
					],
					"name": "createPoll",
					"outputs": [],
					"stateMutability": "nonpayable",
					"type": "function"
				},
				{
					"inputs": [
						{
							"internalType": "uint256",
							"name": "_pollId",
							"type": "uint256"
						}
					],
					"name": "deletePoll",
					"outputs": [],
					"stateMutability": "nonpayable",
					"type": "function"
				},
				{
					"inputs": [],
					"name": "getAllPoll",
					"outputs": [
						{
							"internalType": "string[]",
							"name": "questions",
							"type": "string[]"
						},
						{
							"internalType": "address[]",
							"name": "owners",
							"type": "address[]"
						},
						{
							"internalType": "bool[]",
							"name": "isActive",
							"type": "bool[]"
						},
						{
							"components": [
								{
									"internalType": "string",
									"name": "name",
									"type": "string"
								},
								{
									"internalType": "uint256",
									"name": "upVote",
									"type": "uint256"
								}
							],
							"internalType": "struct Vote.Candidate[][]",
							"name": "candidates",
							"type": "tuple[][]"
						},
						{
							"internalType": "address[][]",
							"name": "voterAddresses",
							"type": "address[][]"
						}
					],
					"stateMutability": "view",
					"type": "function"
				},
				{
					"inputs": [],
					"name": "getPollCount",
					"outputs": [
						{
							"internalType": "uint256",
							"name": "",
							"type": "uint256"
						}
					],
					"stateMutability": "view",
					"type": "function"
				},
				{
					"inputs": [
						{
							"internalType": "uint256",
							"name": "_pollId",
							"type": "uint256"
						}
					],
					"name": "getPollResults",
					"outputs": [
						{
							"internalType": "string",
							"name": "question",
							"type": "string"
						},
						{
							"internalType": "address",
							"name": "owner",
							"type": "address"
						},
						{
							"internalType": "bool",
							"name": "isActive",
							"type": "bool"
						},
						{
							"internalType": "string[]",
							"name": "names",
							"type": "string[]"
						},
						{
							"internalType": "uint256[]",
							"name": "votes",
							"type": "uint256[]"
						}
					],
					"stateMutability": "view",
					"type": "function"
				},
				{
					"inputs": [
						{
							"internalType": "uint256",
							"name": "",
							"type": "uint256"
						}
					],
					"name": "polls",
					"outputs": [
						{
							"internalType": "string",
							"name": "question",
							"type": "string"
						},
						{
							"internalType": "address",
							"name": "owner",
							"type": "address"
						},
						{
							"internalType": "bool",
							"name": "isActive",
							"type": "bool"
						}
					],
					"stateMutability": "view",
					"type": "function"
				},
				{
					"inputs": [
						{
							"internalType": "uint256",
							"name": "_pollId",
							"type": "uint256"
						},
						{
							"internalType": "uint256",
							"name": "_candidateIndex",
							"type": "uint256"
						}
					],
					"name": "vote",
					"outputs": [],
					"stateMutability": "nonpayable",
					"type": "function"
				}
			],
			"devdoc": {
				"kind": "dev",
				"methods": {},
				"version": 1
			},
			"evm": {
				"assembly": "    /* \"blockchain/practice/vote-app.sol\":72:3813  contract Vote {... */\n  mstore(0x40, 0x80)\n  callvalue\n  dup1\n  iszero\n  tag_1\n  jumpi\n  0x00\n  dup1\n  revert\ntag_1:\n  pop\n  dataSize(sub_0)\n  dup1\n  dataOffset(sub_0)\n  0x00\n  codecopy\n  0x00\n  return\nstop\n\nsub_0: assembly {\n        /* \"blockchain/practice/vote-app.sol\":72:3813  contract Vote {... */\n      mstore(0x40, 0x80)\n      callvalue\n      dup1\n      iszero\n      tag_1\n      jumpi\n      0x00\n      dup1\n      revert\n    tag_1:\n      pop\n      jumpi(tag_2, lt(calldatasize, 0x04))\n      shr(0xe0, calldataload(0x00))\n      dup1\n      0x74a9ced9\n      gt\n      tag_11\n      jumpi\n      dup1\n      0x74a9ced9\n      eq\n      tag_7\n      jumpi\n      dup1\n      0x9844f215\n      eq\n      tag_8\n      jumpi\n      dup1\n      0xac2f0074\n      eq\n      tag_9\n      jumpi\n      dup1\n      0xb384abef\n      eq\n      tag_10\n      jumpi\n      jump(tag_2)\n    tag_11:\n      dup1\n      0x11a52746\n      eq\n      tag_3\n      jumpi\n      dup1\n      0x1750a3d0\n      eq\n      tag_4\n      jumpi\n      dup1\n      0x1f35b51d\n      eq\n      tag_5\n      jumpi\n      dup1\n      0x33b4097b\n      eq\n      tag_6\n      jumpi\n    tag_2:\n      0x00\n      dup1\n      revert\n        /* \"blockchain/practice/vote-app.sol\":3724:3811  function getPollCount() public view returns (uint) {... */\n    tag_3:\n      tag_12\n      tag_13\n      jump\t// in\n    tag_12:\n      mload(0x40)\n      tag_14\n      swap2\n      swap1\n      tag_15\n      jump\t// in\n    tag_14:\n      mload(0x40)\n      dup1\n      swap2\n      sub\n      swap1\n      return\n        /* \"blockchain/practice/vote-app.sol\":1117:1363  function addCandidate(uint _pollId, string memory _name) public {... */\n    tag_4:\n      tag_16\n      0x04\n      dup1\n      calldatasize\n      sub\n      dup2\n      add\n      swap1\n      tag_17\n      swap2\n      swap1\n      tag_18\n      jump\t// in\n    tag_17:\n      tag_19\n      jump\t// in\n    tag_16:\n      stop\n        /* \"blockchain/practice/vote-app.sol\":964:1087  function deletePoll(uint _pollId) public {... */\n    tag_5:\n      tag_20\n      0x04\n      dup1\n      calldatasize\n      sub\n      dup2\n      add\n      swap1\n      tag_21\n      swap2\n      swap1\n      tag_22\n      jump\t// in\n    tag_21:\n      tag_23\n      jump\t// in\n    tag_20:\n      stop\n        /* \"blockchain/practice/vote-app.sol\":3048:3683  function getPollResults(uint _pollId) public view returns (string memory question, address owner, bool isActive, string[] memory names, uint[] memory votes) {... */\n    tag_6:\n      tag_24\n      0x04\n      dup1\n      calldatasize\n      sub\n      dup2\n      add\n      swap1\n      tag_25\n      swap2\n      swap1\n      tag_22\n      jump\t// in\n    tag_25:\n      tag_26\n      jump\t// in\n    tag_24:\n      mload(0x40)\n      tag_27\n      swap6\n      swap5\n      swap4\n      swap3\n      swap2\n      swap1\n      tag_28\n      jump\t// in\n    tag_27:\n      mload(0x40)\n      dup1\n      swap2\n      sub\n      swap1\n      return\n        /* \"blockchain/practice/vote-app.sol\":653:931  function createPoll(string memory _question) public {... */\n    tag_7:\n      tag_29\n      0x04\n      dup1\n      calldatasize\n      sub\n      dup2\n      add\n      swap1\n      tag_30\n      swap2\n      swap1\n      tag_31\n      jump\t// in\n    tag_30:\n      tag_32\n      jump\t// in\n    tag_29:\n      stop\n        /* \"blockchain/practice/vote-app.sol\":2101:3010  function getAllPoll() public view returns (... */\n    tag_8:\n      tag_33\n      tag_34\n      jump\t// in\n    tag_33:\n      mload(0x40)\n      tag_35\n      swap6\n      swap5\n      swap4\n      swap3\n      swap2\n      swap1\n      tag_36\n      jump\t// in\n    tag_35:\n      mload(0x40)\n      dup1\n      swap2\n      sub\n      swap1\n      return\n        /* \"blockchain/practice/vote-app.sol\":508:527  Poll[] public polls */\n    tag_9:\n      tag_37\n      0x04\n      dup1\n      calldatasize\n      sub\n      dup2\n      add\n      swap1\n      tag_38\n      swap2\n      swap1\n      tag_22\n      jump\t// in\n    tag_38:\n      tag_39\n      jump\t// in\n    tag_37:\n      mload(0x40)\n      tag_40\n      swap4\n      swap3\n      swap2\n      swap1\n      tag_41\n      jump\t// in\n    tag_40:\n      mload(0x40)\n      dup1\n      swap2\n      sub\n      swap1\n      return\n        /* \"blockchain/practice/vote-app.sol\":1511:2095  function vote(uint _pollId, uint _candidateIndex) public {... */\n    tag_10:\n      tag_42\n      0x04\n      dup1\n      calldatasize\n      sub\n      dup2\n      add\n      swap1\n      tag_43\n      swap2\n      swap1\n      tag_44\n      jump\t// in\n    tag_43:\n      tag_45\n      jump\t// in\n    tag_42:\n      stop\n        /* \"blockchain/practice/vote-app.sol\":3724:3811  function getPollCount() public view returns (uint) {... */\n    tag_13:\n        /* \"blockchain/practice/vote-app.sol\":3769:3773  uint */\n      0x00\n        /* \"blockchain/practice/vote-app.sol\":3792:3797  polls */\n      dup1\n        /* \"blockchain/practice/vote-app.sol\":3792:3804  polls.length */\n      dup1\n      sload\n      swap1\n      pop\n        /* \"blockchain/practice/vote-app.sol\":3785:3804  return polls.length */\n      swap1\n      pop\n        /* \"blockchain/practice/vote-app.sol\":3724:3811  function getPollCount() public view returns (uint) {... */\n      swap1\n      jump\t// out\n        /* \"blockchain/practice/vote-app.sol\":1117:1363  function addCandidate(uint _pollId, string memory _name) public {... */\n    tag_19:\n        /* \"blockchain/practice/vote-app.sol\":1191:1208  Poll storage poll */\n      0x00\n        /* \"blockchain/practice/vote-app.sol\":1211:1216  polls */\n      dup1\n        /* \"blockchain/practice/vote-app.sol\":1217:1224  _pollId */\n      dup4\n        /* \"blockchain/practice/vote-app.sol\":1211:1225  polls[_pollId] */\n      dup2\n      sload\n      dup2\n      lt\n      tag_48\n      jumpi\n      tag_49\n      tag_50\n      jump\t// in\n    tag_49:\n    tag_48:\n      swap1\n      0x00\n      mstore\n      keccak256(0x00, 0x20)\n      swap1\n      0x05\n      mul\n      add\n        /* \"blockchain/practice/vote-app.sol\":1191:1225  Poll storage poll = polls[_pollId] */\n      swap1\n      pop\n        /* \"blockchain/practice/vote-app.sol\":1257:1261  poll */\n      dup1\n        /* \"blockchain/practice/vote-app.sol\":1257:1267  poll.owner */\n      0x03\n      add\n      0x00\n      swap1\n      sload\n      swap1\n      0x0100\n      exp\n      swap1\n      div\n      0xffffffffffffffffffffffffffffffffffffffff\n      and\n        /* \"blockchain/practice/vote-app.sol\":1243:1267  msg.sender == poll.owner */\n      0xffffffffffffffffffffffffffffffffffffffff\n      and\n        /* \"blockchain/practice/vote-app.sol\":1243:1253  msg.sender */\n      caller\n        /* \"blockchain/practice/vote-app.sol\":1243:1267  msg.sender == poll.owner */\n      0xffffffffffffffffffffffffffffffffffffffff\n      and\n      eq\n        /* \"blockchain/practice/vote-app.sol\":1235:1305  require(msg.sender == poll.owner, \"Only the owner can add candidates\") */\n      tag_52\n      jumpi\n      mload(0x40)\n      0x08c379a000000000000000000000000000000000000000000000000000000000\n      dup2\n      mstore\n      0x04\n      add\n      tag_53\n      swap1\n      tag_54\n      jump\t// in\n    tag_53:\n      mload(0x40)\n      dup1\n      swap2\n      sub\n      swap1\n      revert\n    tag_52:\n        /* \"blockchain/practice/vote-app.sol\":1315:1319  poll */\n      dup1\n        /* \"blockchain/practice/vote-app.sol\":1315:1330  poll.candidates */\n      0x01\n      add\n        /* \"blockchain/practice/vote-app.sol\":1336:1355  Candidate(_name, 0) */\n      mload(0x40)\n      dup1\n      0x40\n      add\n      0x40\n      mstore\n      dup1\n        /* \"blockchain/practice/vote-app.sol\":1346:1351  _name */\n      dup5\n        /* \"blockchain/practice/vote-app.sol\":1336:1355  Candidate(_name, 0) */\n      dup2\n      mstore\n      0x20\n      add\n        /* \"blockchain/practice/vote-app.sol\":1353:1354  0 */\n      0x00\n        /* \"blockchain/practice/vote-app.sol\":1336:1355  Candidate(_name, 0) */\n      dup2\n      mstore\n      pop\n        /* \"blockchain/practice/vote-app.sol\":1315:1356  poll.candidates.push(Candidate(_name, 0)) */\n      swap1\n      dup1\n      0x01\n      dup2\n      sload\n      add\n      dup1\n      dup3\n      sstore\n      dup1\n      swap2\n      pop\n      pop\n      0x01\n      swap1\n      sub\n      swap1\n      0x00\n      mstore\n      keccak256(0x00, 0x20)\n      swap1\n      0x02\n      mul\n      add\n      0x00\n      swap1\n      swap2\n      swap1\n      swap2\n      swap1\n      swap2\n      pop\n      0x00\n      dup3\n      add\n      mload\n      dup2\n      0x00\n      add\n      swap1\n      dup2\n      tag_56\n      swap2\n      swap1\n      tag_57\n      jump\t// in\n    tag_56:\n      pop\n      0x20\n      dup3\n      add\n      mload\n      dup2\n      0x01\n      add\n      sstore\n      pop\n      pop\n        /* \"blockchain/practice/vote-app.sol\":1181:1363  {... */\n      pop\n        /* \"blockchain/practice/vote-app.sol\":1117:1363  function addCandidate(uint _pollId, string memory _name) public {... */\n      pop\n      pop\n      jump\t// out\n        /* \"blockchain/practice/vote-app.sol\":964:1087  function deletePoll(uint _pollId) public {... */\n    tag_23:\n        /* \"blockchain/practice/vote-app.sol\":1015:1032  Poll storage poll */\n      0x00\n        /* \"blockchain/practice/vote-app.sol\":1035:1040  polls */\n      dup1\n        /* \"blockchain/practice/vote-app.sol\":1041:1048  _pollId */\n      dup3\n        /* \"blockchain/practice/vote-app.sol\":1035:1049  polls[_pollId] */\n      dup2\n      sload\n      dup2\n      lt\n      tag_59\n      jumpi\n      tag_60\n      tag_50\n      jump\t// in\n    tag_60:\n    tag_59:\n      swap1\n      0x00\n      mstore\n      keccak256(0x00, 0x20)\n      swap1\n      0x05\n      mul\n      add\n        /* \"blockchain/practice/vote-app.sol\":1015:1049  Poll storage poll = polls[_pollId] */\n      swap1\n      pop\n        /* \"blockchain/practice/vote-app.sol\":1075:1080  false */\n      0x00\n        /* \"blockchain/practice/vote-app.sol\":1059:1063  poll */\n      dup2\n        /* \"blockchain/practice/vote-app.sol\":1059:1072  poll.isActive */\n      0x03\n      add\n      0x14\n        /* \"blockchain/practice/vote-app.sol\":1059:1080  poll.isActive = false */\n      0x0100\n      exp\n      dup2\n      sload\n      dup2\n      0xff\n      mul\n      not\n      and\n      swap1\n      dup4\n      iszero\n      iszero\n      mul\n      or\n      swap1\n      sstore\n      pop\n        /* \"blockchain/practice/vote-app.sol\":1005:1087  {... */\n      pop\n        /* \"blockchain/practice/vote-app.sol\":964:1087  function deletePoll(uint _pollId) public {... */\n      pop\n      jump\t// out\n        /* \"blockchain/practice/vote-app.sol\":3048:3683  function getPollResults(uint _pollId) public view returns (string memory question, address owner, bool isActive, string[] memory names, uint[] memory votes) {... */\n    tag_26:\n        /* \"blockchain/practice/vote-app.sol\":3107:3129  string memory question */\n      0x60\n        /* \"blockchain/practice/vote-app.sol\":3131:3144  address owner */\n      0x00\n        /* \"blockchain/practice/vote-app.sol\":3146:3159  bool isActive */\n      dup1\n        /* \"blockchain/practice/vote-app.sol\":3161:3182  string[] memory names */\n      0x60\n        /* \"blockchain/practice/vote-app.sol\":3184:3203  uint[] memory votes */\n      dup1\n        /* \"blockchain/practice/vote-app.sol\":3215:3232  Poll storage poll */\n      0x00\n        /* \"blockchain/practice/vote-app.sol\":3235:3240  polls */\n      dup1\n        /* \"blockchain/practice/vote-app.sol\":3241:3248  _pollId */\n      dup8\n        /* \"blockchain/practice/vote-app.sol\":3235:3249  polls[_pollId] */\n      dup2\n      sload\n      dup2\n      lt\n      tag_63\n      jumpi\n      tag_64\n      tag_50\n      jump\t// in\n    tag_64:\n    tag_63:\n      swap1\n      0x00\n      mstore\n      keccak256(0x00, 0x20)\n      swap1\n      0x05\n      mul\n      add\n        /* \"blockchain/practice/vote-app.sol\":3215:3249  Poll storage poll = polls[_pollId] */\n      swap1\n      pop\n        /* \"blockchain/practice/vote-app.sol\":3271:3275  poll */\n      dup1\n        /* \"blockchain/practice/vote-app.sol\":3271:3284  poll.question */\n      0x00\n      add\n        /* \"blockchain/practice/vote-app.sol\":3260:3284  question = poll.question */\n      dup1\n      sload\n      tag_66\n      swap1\n      tag_67\n      jump\t// in\n    tag_66:\n      dup1\n      0x1f\n      add\n      0x20\n      dup1\n      swap2\n      div\n      mul\n      0x20\n      add\n      mload(0x40)\n      swap1\n      dup2\n      add\n      0x40\n      mstore\n      dup1\n      swap3\n      swap2\n      swap1\n      dup2\n      dup2\n      mstore\n      0x20\n      add\n      dup3\n      dup1\n      sload\n      tag_68\n      swap1\n      tag_67\n      jump\t// in\n    tag_68:\n      dup1\n      iszero\n      tag_69\n      jumpi\n      dup1\n      0x1f\n      lt\n      tag_70\n      jumpi\n      0x0100\n      dup1\n      dup4\n      sload\n      div\n      mul\n      dup4\n      mstore\n      swap2\n      0x20\n      add\n      swap2\n      jump(tag_69)\n    tag_70:\n      dup3\n      add\n      swap2\n      swap1\n      0x00\n      mstore\n      keccak256(0x00, 0x20)\n      swap1\n    tag_71:\n      dup2\n      sload\n      dup2\n      mstore\n      swap1\n      0x01\n      add\n      swap1\n      0x20\n      add\n      dup1\n      dup4\n      gt\n      tag_71\n      jumpi\n      dup3\n      swap1\n      sub\n      0x1f\n      and\n      dup3\n      add\n      swap2\n    tag_69:\n      pop\n      pop\n      pop\n      pop\n      pop\n      swap6\n      pop\n        /* \"blockchain/practice/vote-app.sol\":3302:3306  poll */\n      dup1\n        /* \"blockchain/practice/vote-app.sol\":3302:3312  poll.owner */\n      0x03\n      add\n      0x00\n      swap1\n      sload\n      swap1\n      0x0100\n      exp\n      swap1\n      div\n      0xffffffffffffffffffffffffffffffffffffffff\n      and\n        /* \"blockchain/practice/vote-app.sol\":3294:3312  owner = poll.owner */\n      swap5\n      pop\n        /* \"blockchain/practice/vote-app.sol\":3333:3337  poll */\n      dup1\n        /* \"blockchain/practice/vote-app.sol\":3333:3346  poll.isActive */\n      0x03\n      add\n      0x14\n      swap1\n      sload\n      swap1\n      0x0100\n      exp\n      swap1\n      div\n      0xff\n      and\n        /* \"blockchain/practice/vote-app.sol\":3322:3346  isActive = poll.isActive */\n      swap4\n      pop\n        /* \"blockchain/practice/vote-app.sol\":3377:3381  poll */\n      dup1\n        /* \"blockchain/practice/vote-app.sol\":3377:3392  poll.candidates */\n      0x01\n      add\n        /* \"blockchain/practice/vote-app.sol\":3377:3399  poll.candidates.length */\n      dup1\n      sload\n      swap1\n      pop\n        /* \"blockchain/practice/vote-app.sol\":3364:3400  new string[](poll.candidates.length) */\n      0xffffffffffffffff\n      dup2\n      gt\n      iszero\n      tag_72\n      jumpi\n      tag_73\n      tag_74\n      jump\t// in\n    tag_73:\n    tag_72:\n      mload(0x40)\n      swap1\n      dup1\n      dup3\n      mstore\n      dup1\n      0x20\n      mul\n      0x20\n      add\n      dup3\n      add\n      0x40\n      mstore\n      dup1\n      iszero\n      tag_75\n      jumpi\n      dup2\n      0x20\n      add\n    tag_76:\n      0x60\n      dup2\n      mstore\n      0x20\n      add\n      swap1\n      0x01\n      swap1\n      sub\n      swap1\n      dup2\n      tag_76\n      jumpi\n      swap1\n      pop\n    tag_75:\n      pop\n        /* \"blockchain/practice/vote-app.sol\":3356:3400  names = new string[](poll.candidates.length) */\n      swap3\n      pop\n        /* \"blockchain/practice/vote-app.sol\":3429:3433  poll */\n      dup1\n        /* \"blockchain/practice/vote-app.sol\":3429:3444  poll.candidates */\n      0x01\n      add\n        /* \"blockchain/practice/vote-app.sol\":3429:3451  poll.candidates.length */\n      dup1\n      sload\n      swap1\n      pop\n        /* \"blockchain/practice/vote-app.sol\":3418:3452  new uint[](poll.candidates.length) */\n      0xffffffffffffffff\n      dup2\n      gt\n      iszero\n      tag_77\n      jumpi\n      tag_78\n      tag_74\n      jump\t// in\n    tag_78:\n    tag_77:\n      mload(0x40)\n      swap1\n      dup1\n      dup3\n      mstore\n      dup1\n      0x20\n      mul\n      0x20\n      add\n      dup3\n      add\n      0x40\n      mstore\n      dup1\n      iszero\n      tag_79\n      jumpi\n      dup2\n      0x20\n      add\n      0x20\n      dup3\n      mul\n      dup1\n      calldatasize\n      dup4\n      calldatacopy\n      dup1\n      dup3\n      add\n      swap2\n      pop\n      pop\n      swap1\n      pop\n    tag_79:\n      pop\n        /* \"blockchain/practice/vote-app.sol\":3410:3452  votes = new uint[](poll.candidates.length) */\n      swap2\n      pop\n        /* \"blockchain/practice/vote-app.sol\":3468:3474  uint i */\n      0x00\n        /* \"blockchain/practice/vote-app.sol\":3463:3622  for (uint i = 0; i < poll.candidates.length; i++) {... */\n    tag_80:\n        /* \"blockchain/practice/vote-app.sol\":3484:3488  poll */\n      dup2\n        /* \"blockchain/practice/vote-app.sol\":3484:3499  poll.candidates */\n      0x01\n      add\n        /* \"blockchain/practice/vote-app.sol\":3484:3506  poll.candidates.length */\n      dup1\n      sload\n      swap1\n      pop\n        /* \"blockchain/practice/vote-app.sol\":3480:3481  i */\n      dup2\n        /* \"blockchain/practice/vote-app.sol\":3480:3506  i < poll.candidates.length */\n      lt\n        /* \"blockchain/practice/vote-app.sol\":3463:3622  for (uint i = 0; i < poll.candidates.length; i++) {... */\n      iszero\n      tag_81\n      jumpi\n        /* \"blockchain/practice/vote-app.sol\":3538:3542  poll */\n      dup2\n        /* \"blockchain/practice/vote-app.sol\":3538:3553  poll.candidates */\n      0x01\n      add\n        /* \"blockchain/practice/vote-app.sol\":3554:3555  i */\n      dup2\n        /* \"blockchain/practice/vote-app.sol\":3538:3556  poll.candidates[i] */\n      dup2\n      sload\n      dup2\n      lt\n      tag_83\n      jumpi\n      tag_84\n      tag_50\n      jump\t// in\n    tag_84:\n    tag_83:\n      swap1\n      0x00\n      mstore\n      keccak256(0x00, 0x20)\n      swap1\n      0x02\n      mul\n      add\n        /* \"blockchain/practice/vote-app.sol\":3538:3561  poll.candidates[i].name */\n      0x00\n      add\n        /* \"blockchain/practice/vote-app.sol\":3527:3561  names[i] = poll.candidates[i].name */\n      dup1\n      sload\n      tag_86\n      swap1\n      tag_67\n      jump\t// in\n    tag_86:\n      dup1\n      0x1f\n      add\n      0x20\n      dup1\n      swap2\n      div\n      mul\n      0x20\n      add\n      mload(0x40)\n      swap1\n      dup2\n      add\n      0x40\n      mstore\n      dup1\n      swap3\n      swap2\n      swap1\n      dup2\n      dup2\n      mstore\n      0x20\n      add\n      dup3\n      dup1\n      sload\n      tag_87\n      swap1\n      tag_67\n      jump\t// in\n    tag_87:\n      dup1\n      iszero\n      tag_88\n      jumpi\n      dup1\n      0x1f\n      lt\n      tag_89\n      jumpi\n      0x0100\n      dup1\n      dup4\n      sload\n      div\n      mul\n      dup4\n      mstore\n      swap2\n      0x20\n      add\n      swap2\n      jump(tag_88)\n    tag_89:\n      dup3\n      add\n      swap2\n      swap1\n      0x00\n      mstore\n      keccak256(0x00, 0x20)\n      swap1\n    tag_90:\n      dup2\n      sload\n      dup2\n      mstore\n      swap1\n      0x01\n      add\n      swap1\n      0x20\n      add\n      dup1\n      dup4\n      gt\n      tag_90\n      jumpi\n      dup3\n      swap1\n      sub\n      0x1f\n      and\n      dup3\n      add\n      swap2\n    tag_88:\n      pop\n      pop\n      pop\n      pop\n      pop\n        /* \"blockchain/practice/vote-app.sol\":3527:3532  names */\n      dup5\n        /* \"blockchain/practice/vote-app.sol\":3533:3534  i */\n      dup3\n        /* \"blockchain/practice/vote-app.sol\":3527:3535  names[i] */\n      dup2\n      mload\n      dup2\n      lt\n      tag_91\n      jumpi\n      tag_92\n      tag_50\n      jump\t// in\n    tag_92:\n    tag_91:\n      0x20\n      mul\n      0x20\n      add\n      add\n        /* \"blockchain/practice/vote-app.sol\":3527:3561  names[i] = poll.candidates[i].name */\n      dup2\n      swap1\n      mstore\n      pop\n        /* \"blockchain/practice/vote-app.sol\":3586:3590  poll */\n      dup2\n        /* \"blockchain/practice/vote-app.sol\":3586:3601  poll.candidates */\n      0x01\n      add\n        /* \"blockchain/practice/vote-app.sol\":3602:3603  i */\n      dup2\n        /* \"blockchain/practice/vote-app.sol\":3586:3604  poll.candidates[i] */\n      dup2\n      sload\n      dup2\n      lt\n      tag_93\n      jumpi\n      tag_94\n      tag_50\n      jump\t// in\n    tag_94:\n    tag_93:\n      swap1\n      0x00\n      mstore\n      keccak256(0x00, 0x20)\n      swap1\n      0x02\n      mul\n      add\n        /* \"blockchain/practice/vote-app.sol\":3586:3611  poll.candidates[i].upVote */\n      0x01\n      add\n      sload\n        /* \"blockchain/practice/vote-app.sol\":3575:3580  votes */\n      dup4\n        /* \"blockchain/practice/vote-app.sol\":3581:3582  i */\n      dup3\n        /* \"blockchain/practice/vote-app.sol\":3575:3583  votes[i] */\n      dup2\n      mload\n      dup2\n      lt\n      tag_96\n      jumpi\n      tag_97\n      tag_50\n      jump\t// in\n    tag_97:\n    tag_96:\n      0x20\n      mul\n      0x20\n      add\n      add\n        /* \"blockchain/practice/vote-app.sol\":3575:3611  votes[i] = poll.candidates[i].upVote */\n      dup2\n      dup2\n      mstore\n      pop\n      pop\n        /* \"blockchain/practice/vote-app.sol\":3508:3511  i++ */\n      dup1\n      dup1\n      0x01\n      add\n      swap2\n      pop\n      pop\n        /* \"blockchain/practice/vote-app.sol\":3463:3622  for (uint i = 0; i < poll.candidates.length; i++) {... */\n      jump(tag_80)\n    tag_81:\n      pop\n        /* \"blockchain/practice/vote-app.sol\":3632:3676  return (question,owner,isActive,names,votes) */\n      pop\n        /* \"blockchain/practice/vote-app.sol\":3048:3683  function getPollResults(uint _pollId) public view returns (string memory question, address owner, bool isActive, string[] memory names, uint[] memory votes) {... */\n      swap2\n      swap4\n      swap6\n      swap1\n      swap3\n      swap5\n      pop\n      jump\t// out\n        /* \"blockchain/practice/vote-app.sol\":653:931  function createPoll(string memory _question) public {... */\n    tag_32:\n        /* \"blockchain/practice/vote-app.sol\":715:735  Poll storage newPoll */\n      0x00\n        /* \"blockchain/practice/vote-app.sol\":738:743  polls */\n      dup1\n        /* \"blockchain/practice/vote-app.sol\":738:750  polls.push() */\n      0x01\n      dup2\n      0x01\n      dup2\n      sload\n      add\n      dup1\n      dup3\n      sstore\n      dup1\n      swap2\n      pop\n      pop\n      sub\n      swap1\n      0x00\n      mstore\n      keccak256(0x00, 0x20)\n      swap1\n      0x05\n      mul\n      add\n        /* \"blockchain/practice/vote-app.sol\":715:750  Poll storage newPoll = polls.push() */\n      swap1\n      pop\n        /* \"blockchain/practice/vote-app.sol\":779:788  _question */\n      dup2\n        /* \"blockchain/practice/vote-app.sol\":760:767  newPoll */\n      dup2\n        /* \"blockchain/practice/vote-app.sol\":760:776  newPoll.question */\n      0x00\n      add\n        /* \"blockchain/practice/vote-app.sol\":760:788  newPoll.question = _question */\n      swap1\n      dup2\n      tag_100\n      swap2\n      swap1\n      tag_57\n      jump\t// in\n    tag_100:\n      pop\n        /* \"blockchain/practice/vote-app.sol\":814:824  msg.sender */\n      caller\n        /* \"blockchain/practice/vote-app.sol\":798:805  newPoll */\n      dup2\n        /* \"blockchain/practice/vote-app.sol\":798:811  newPoll.owner */\n      0x03\n      add\n      0x00\n        /* \"blockchain/practice/vote-app.sol\":798:824  newPoll.owner = msg.sender */\n      0x0100\n      exp\n      dup2\n      sload\n      dup2\n      0xffffffffffffffffffffffffffffffffffffffff\n      mul\n      not\n      and\n      swap1\n      dup4\n      0xffffffffffffffffffffffffffffffffffffffff\n      and\n      mul\n      or\n      swap1\n      sstore\n      pop\n        /* \"blockchain/practice/vote-app.sol\":853:857  true */\n      0x01\n        /* \"blockchain/practice/vote-app.sol\":834:841  newPoll */\n      dup2\n        /* \"blockchain/practice/vote-app.sol\":834:850  newPoll.isActive */\n      0x03\n      add\n      0x14\n        /* \"blockchain/practice/vote-app.sol\":834:857  newPoll.isActive = true */\n      0x0100\n      exp\n      dup2\n      sload\n      dup2\n      0xff\n      mul\n      not\n      and\n      swap1\n      dup4\n      iszero\n      iszero\n      mul\n      or\n      swap1\n      sstore\n      pop\n        /* \"blockchain/practice/vote-app.sol\":873:924  CreatePoll(polls.length - 1, _question, msg.sender) */\n      0xdcf7bcca1f330627a2b8cf6826aa79cefcda862ee183dabacd90516b6cd18443\n        /* \"blockchain/practice/vote-app.sol\":899:900  1 */\n      0x01\n        /* \"blockchain/practice/vote-app.sol\":884:889  polls */\n      0x00\n        /* \"blockchain/practice/vote-app.sol\":884:896  polls.length */\n      dup1\n      sload\n      swap1\n      pop\n        /* \"blockchain/practice/vote-app.sol\":884:900  polls.length - 1 */\n      tag_101\n      swap2\n      swap1\n      tag_102\n      jump\t// in\n    tag_101:\n        /* \"blockchain/practice/vote-app.sol\":902:911  _question */\n      dup4\n        /* \"blockchain/practice/vote-app.sol\":913:923  msg.sender */\n      caller\n        /* \"blockchain/practice/vote-app.sol\":873:924  CreatePoll(polls.length - 1, _question, msg.sender) */\n      mload(0x40)\n      tag_103\n      swap4\n      swap3\n      swap2\n      swap1\n      tag_104\n      jump\t// in\n    tag_103:\n      mload(0x40)\n      dup1\n      swap2\n      sub\n      swap1\n      log1\n        /* \"blockchain/practice/vote-app.sol\":705:931  {... */\n      pop\n        /* \"blockchain/practice/vote-app.sol\":653:931  function createPoll(string memory _question) public {... */\n      pop\n      jump\t// out\n        /* \"blockchain/practice/vote-app.sol\":2101:3010  function getAllPoll() public view returns (... */\n    tag_34:\n        /* \"blockchain/practice/vote-app.sol\":2153:2178  string[] memory questions */\n      0x60\n        /* \"blockchain/practice/vote-app.sol\":2189:2212  address[] memory owners */\n      dup1\n        /* \"blockchain/practice/vote-app.sol\":2223:2245  bool[] memory isActive */\n      0x60\n        /* \"blockchain/practice/vote-app.sol\":2256:2287  Candidate[][] memory candidates */\n      dup1\n        /* \"blockchain/practice/vote-app.sol\":2297:2330  address[][] memory voterAddresses */\n      0x60\n        /* \"blockchain/practice/vote-app.sol\":2347:2364  uint256 pollCount */\n      0x00\n        /* \"blockchain/practice/vote-app.sol\":2367:2372  polls */\n      dup1\n        /* \"blockchain/practice/vote-app.sol\":2367:2379  polls.length */\n      dup1\n      sload\n      swap1\n      pop\n        /* \"blockchain/practice/vote-app.sol\":2347:2379  uint256 pollCount = polls.length */\n      swap1\n      pop\n        /* \"blockchain/practice/vote-app.sol\":2414:2423  pollCount */\n      dup1\n        /* \"blockchain/practice/vote-app.sol\":2401:2424  new string[](pollCount) */\n      0xffffffffffffffff\n      dup2\n      gt\n      iszero\n      tag_106\n      jumpi\n      tag_107\n      tag_74\n      jump\t// in\n    tag_107:\n    tag_106:\n      mload(0x40)\n      swap1\n      dup1\n      dup3\n      mstore\n      dup1\n      0x20\n      mul\n      0x20\n      add\n      dup3\n      add\n      0x40\n      mstore\n      dup1\n      iszero\n      tag_108\n      jumpi\n      dup2\n      0x20\n      add\n    tag_109:\n      0x60\n      dup2\n      mstore\n      0x20\n      add\n      swap1\n      0x01\n      swap1\n      sub\n      swap1\n      dup2\n      tag_109\n      jumpi\n      swap1\n      pop\n    tag_108:\n      pop\n        /* \"blockchain/practice/vote-app.sol\":2389:2424  questions = new string[](pollCount) */\n      swap6\n      pop\n        /* \"blockchain/practice/vote-app.sol\":2457:2466  pollCount */\n      dup1\n        /* \"blockchain/practice/vote-app.sol\":2443:2467  new address[](pollCount) */\n      0xffffffffffffffff\n      dup2\n      gt\n      iszero\n      tag_110\n      jumpi\n      tag_111\n      tag_74\n      jump\t// in\n    tag_111:\n    tag_110:\n      mload(0x40)\n      swap1\n      dup1\n      dup3\n      mstore\n      dup1\n      0x20\n      mul\n      0x20\n      add\n      dup3\n      add\n      0x40\n      mstore\n      dup1\n      iszero\n      tag_112\n      jumpi\n      dup2\n      0x20\n      add\n      0x20\n      dup3\n      mul\n      dup1\n      calldatasize\n      dup4\n      calldatacopy\n      dup1\n      dup3\n      add\n      swap2\n      pop\n      pop\n      swap1\n      pop\n    tag_112:\n      pop\n        /* \"blockchain/practice/vote-app.sol\":2434:2467  owners = new address[](pollCount) */\n      swap5\n      pop\n        /* \"blockchain/practice/vote-app.sol\":2499:2508  pollCount */\n      dup1\n        /* \"blockchain/practice/vote-app.sol\":2488:2509  new bool[](pollCount) */\n      0xffffffffffffffff\n      dup2\n      gt\n      iszero\n      tag_113\n      jumpi\n      tag_114\n      tag_74\n      jump\t// in\n    tag_114:\n    tag_113:\n      mload(0x40)\n      swap1\n      dup1\n      dup3\n      mstore\n      dup1\n      0x20\n      mul\n      0x20\n      add\n      dup3\n      add\n      0x40\n      mstore\n      dup1\n      iszero\n      tag_115\n      jumpi\n      dup2\n      0x20\n      add\n      0x20\n      dup3\n      mul\n      dup1\n      calldatasize\n      dup4\n      calldatacopy\n      dup1\n      dup3\n      add\n      swap2\n      pop\n      pop\n      swap1\n      pop\n    tag_115:\n      pop\n        /* \"blockchain/practice/vote-app.sol\":2477:2509  isActive = new bool[](pollCount) */\n      swap4\n      pop\n        /* \"blockchain/practice/vote-app.sol\":2550:2559  pollCount */\n      dup1\n        /* \"blockchain/practice/vote-app.sol\":2532:2560  new Candidate[][](pollCount) */\n      0xffffffffffffffff\n      dup2\n      gt\n      iszero\n      tag_116\n      jumpi\n      tag_117\n      tag_74\n      jump\t// in\n    tag_117:\n    tag_116:\n      mload(0x40)\n      swap1\n      dup1\n      dup3\n      mstore\n      dup1\n      0x20\n      mul\n      0x20\n      add\n      dup3\n      add\n      0x40\n      mstore\n      dup1\n      iszero\n      tag_118\n      jumpi\n      dup2\n      0x20\n      add\n    tag_119:\n      0x60\n      dup2\n      mstore\n      0x20\n      add\n      swap1\n      0x01\n      swap1\n      sub\n      swap1\n      dup2\n      tag_119\n      jumpi\n      swap1\n      pop\n    tag_118:\n      pop\n        /* \"blockchain/practice/vote-app.sol\":2519:2560  candidates = new Candidate[][](pollCount) */\n      swap3\n      pop\n        /* \"blockchain/practice/vote-app.sol\":2603:2612  pollCount */\n      dup1\n        /* \"blockchain/practice/vote-app.sol\":2587:2613  new address[][](pollCount) */\n      0xffffffffffffffff\n      dup2\n      gt\n      iszero\n      tag_120\n      jumpi\n      tag_121\n      tag_74\n      jump\t// in\n    tag_121:\n    tag_120:\n      mload(0x40)\n      swap1\n      dup1\n      dup3\n      mstore\n      dup1\n      0x20\n      mul\n      0x20\n      add\n      dup3\n      add\n      0x40\n      mstore\n      dup1\n      iszero\n      tag_122\n      jumpi\n      dup2\n      0x20\n      add\n    tag_123:\n      0x60\n      dup2\n      mstore\n      0x20\n      add\n      swap1\n      0x01\n      swap1\n      sub\n      swap1\n      dup2\n      tag_123\n      jumpi\n      swap1\n      pop\n    tag_122:\n      pop\n        /* \"blockchain/practice/vote-app.sol\":2570:2613  voterAddresses = new address[][](pollCount) */\n      swap2\n      pop\n        /* \"blockchain/practice/vote-app.sol\":2629:2638  uint256 i */\n      0x00\n        /* \"blockchain/practice/vote-app.sol\":2624:2927  for (uint256 i = 0; i < pollCount; i++) {... */\n    tag_124:\n        /* \"blockchain/practice/vote-app.sol\":2648:2657  pollCount */\n      dup2\n        /* \"blockchain/practice/vote-app.sol\":2644:2645  i */\n      dup2\n        /* \"blockchain/practice/vote-app.sol\":2644:2657  i < pollCount */\n      lt\n        /* \"blockchain/practice/vote-app.sol\":2624:2927  for (uint256 i = 0; i < pollCount; i++) {... */\n      iszero\n      tag_125\n      jumpi\n        /* \"blockchain/practice/vote-app.sol\":2693:2698  polls */\n      0x00\n        /* \"blockchain/practice/vote-app.sol\":2699:2700  i */\n      dup2\n        /* \"blockchain/practice/vote-app.sol\":2693:2701  polls[i] */\n      dup2\n      sload\n      dup2\n      lt\n      tag_127\n      jumpi\n      tag_128\n      tag_50\n      jump\t// in\n    tag_128:\n    tag_127:\n      swap1\n      0x00\n      mstore\n      keccak256(0x00, 0x20)\n      swap1\n      0x05\n      mul\n      add\n        /* \"blockchain/practice/vote-app.sol\":2693:2710  polls[i].question */\n      0x00\n      add\n        /* \"blockchain/practice/vote-app.sol\":2678:2710  questions[i] = polls[i].question */\n      dup1\n      sload\n      tag_130\n      swap1\n      tag_67\n      jump\t// in\n    tag_130:\n      dup1\n      0x1f\n      add\n      0x20\n      dup1\n      swap2\n      div\n      mul\n      0x20\n      add\n      mload(0x40)\n      swap1\n      dup2\n      add\n      0x40\n      mstore\n      dup1\n      swap3\n      swap2\n      swap1\n      dup2\n      dup2\n      mstore\n      0x20\n      add\n      dup3\n      dup1\n      sload\n      tag_131\n      swap1\n      tag_67\n      jump\t// in\n    tag_131:\n      dup1\n      iszero\n      tag_132\n      jumpi\n      dup1\n      0x1f\n      lt\n      tag_133\n      jumpi\n      0x0100\n      dup1\n      dup4\n      sload\n      div\n      mul\n      dup4\n      mstore\n      swap2\n      0x20\n      add\n      swap2\n      jump(tag_132)\n    tag_133:\n      dup3\n      add\n      swap2\n      swap1\n      0x00\n      mstore\n      keccak256(0x00, 0x20)\n      swap1\n    tag_134:\n      dup2\n      sload\n      dup2\n      mstore\n      swap1\n      0x01\n      add\n      swap1\n      0x20\n      add\n      dup1\n      dup4\n      gt\n      tag_134\n      jumpi\n      dup3\n      swap1\n      sub\n      0x1f\n      and\n      dup3\n      add\n      swap2\n    tag_132:\n      pop\n      pop\n      pop\n      pop\n      pop\n        /* \"blockchain/practice/vote-app.sol\":2678:2687  questions */\n      dup8\n        /* \"blockchain/practice/vote-app.sol\":2688:2689  i */\n      dup3\n        /* \"blockchain/practice/vote-app.sol\":2678:2690  questions[i] */\n      dup2\n      mload\n      dup2\n      lt\n      tag_135\n      jumpi\n      tag_136\n      tag_50\n      jump\t// in\n    tag_136:\n    tag_135:\n      0x20\n      mul\n      0x20\n      add\n      add\n        /* \"blockchain/practice/vote-app.sol\":2678:2710  questions[i] = polls[i].question */\n      dup2\n      swap1\n      mstore\n      pop\n        /* \"blockchain/practice/vote-app.sol\":2737:2742  polls */\n      0x00\n        /* \"blockchain/practice/vote-app.sol\":2743:2744  i */\n      dup2\n        /* \"blockchain/practice/vote-app.sol\":2737:2745  polls[i] */\n      dup2\n      sload\n      dup2\n      lt\n      tag_137\n      jumpi\n      tag_138\n      tag_50\n      jump\t// in\n    tag_138:\n    tag_137:\n      swap1\n      0x00\n      mstore\n      keccak256(0x00, 0x20)\n      swap1\n      0x05\n      mul\n      add\n        /* \"blockchain/practice/vote-app.sol\":2737:2751  polls[i].owner */\n      0x03\n      add\n      0x00\n      swap1\n      sload\n      swap1\n      0x0100\n      exp\n      swap1\n      div\n      0xffffffffffffffffffffffffffffffffffffffff\n      and\n        /* \"blockchain/practice/vote-app.sol\":2725:2731  owners */\n      dup7\n        /* \"blockchain/practice/vote-app.sol\":2732:2733  i */\n      dup3\n        /* \"blockchain/practice/vote-app.sol\":2725:2734  owners[i] */\n      dup2\n      mload\n      dup2\n      lt\n      tag_140\n      jumpi\n      tag_141\n      tag_50\n      jump\t// in\n    tag_141:\n    tag_140:\n      0x20\n      mul\n      0x20\n      add\n      add\n        /* \"blockchain/practice/vote-app.sol\":2725:2751  owners[i] = polls[i].owner */\n      swap1\n      0xffffffffffffffffffffffffffffffffffffffff\n      and\n      swap1\n      dup2\n      0xffffffffffffffffffffffffffffffffffffffff\n      and\n      dup2\n      mstore\n      pop\n      pop\n        /* \"blockchain/practice/vote-app.sol\":2780:2785  polls */\n      0x00\n        /* \"blockchain/practice/vote-app.sol\":2786:2787  i */\n      dup2\n        /* \"blockchain/practice/vote-app.sol\":2780:2788  polls[i] */\n      dup2\n      sload\n      dup2\n      lt\n      tag_142\n      jumpi\n      tag_143\n      tag_50\n      jump\t// in\n    tag_143:\n    tag_142:\n      swap1\n      0x00\n      mstore\n      keccak256(0x00, 0x20)\n      swap1\n      0x05\n      mul\n      add\n        /* \"blockchain/practice/vote-app.sol\":2780:2797  polls[i].isActive */\n      0x03\n      add\n      0x14\n      swap1\n      sload\n      swap1\n      0x0100\n      exp\n      swap1\n      div\n      0xff\n      and\n        /* \"blockchain/practice/vote-app.sol\":2766:2774  isActive */\n      dup6\n        /* \"blockchain/practice/vote-app.sol\":2775:2776  i */\n      dup3\n        /* \"blockchain/practice/vote-app.sol\":2766:2777  isActive[i] */\n      dup2\n      mload\n      dup2\n      lt\n      tag_145\n      jumpi\n      tag_146\n      tag_50\n      jump\t// in\n    tag_146:\n    tag_145:\n      0x20\n      mul\n      0x20\n      add\n      add\n        /* \"blockchain/practice/vote-app.sol\":2766:2797  isActive[i] = polls[i].isActive */\n      swap1\n      iszero\n      iszero\n      swap1\n      dup2\n      iszero\n      iszero\n      dup2\n      mstore\n      pop\n      pop\n        /* \"blockchain/practice/vote-app.sol\":2827:2832  polls */\n      0x00\n        /* \"blockchain/practice/vote-app.sol\":2833:2834  i */\n      dup2\n        /* \"blockchain/practice/vote-app.sol\":2827:2835  polls[i] */\n      dup2\n      sload\n      dup2\n      lt\n      tag_147\n      jumpi\n      tag_148\n      tag_50\n      jump\t// in\n    tag_148:\n    tag_147:\n      swap1\n      0x00\n      mstore\n      keccak256(0x00, 0x20)\n      swap1\n      0x05\n      mul\n      add\n        /* \"blockchain/practice/vote-app.sol\":2827:2846  polls[i].candidates */\n      0x01\n      add\n        /* \"blockchain/practice/vote-app.sol\":2811:2846  candidates[i] = polls[i].candidates */\n      dup1\n      sload\n      dup1\n      0x20\n      mul\n      0x20\n      add\n      mload(0x40)\n      swap1\n      dup2\n      add\n      0x40\n      mstore\n      dup1\n      swap3\n      swap2\n      swap1\n      dup2\n      dup2\n      mstore\n      0x20\n      add\n      0x00\n      swap1\n    tag_150:\n      dup3\n      dup3\n      lt\n      iszero\n      tag_151\n      jumpi\n      dup4\n      dup3\n      swap1\n      0x00\n      mstore\n      keccak256(0x00, 0x20)\n      swap1\n      0x02\n      mul\n      add\n      mload(0x40)\n      dup1\n      0x40\n      add\n      0x40\n      mstore\n      swap1\n      dup2\n      0x00\n      dup3\n      add\n      dup1\n      sload\n      tag_153\n      swap1\n      tag_67\n      jump\t// in\n    tag_153:\n      dup1\n      0x1f\n      add\n      0x20\n      dup1\n      swap2\n      div\n      mul\n      0x20\n      add\n      mload(0x40)\n      swap1\n      dup2\n      add\n      0x40\n      mstore\n      dup1\n      swap3\n      swap2\n      swap1\n      dup2\n      dup2\n      mstore\n      0x20\n      add\n      dup3\n      dup1\n      sload\n      tag_154\n      swap1\n      tag_67\n      jump\t// in\n    tag_154:\n      dup1\n      iszero\n      tag_155\n      jumpi\n      dup1\n      0x1f\n      lt\n      tag_156\n      jumpi\n      0x0100\n      dup1\n      dup4\n      sload\n      div\n      mul\n      dup4\n      mstore\n      swap2\n      0x20\n      add\n      swap2\n      jump(tag_155)\n    tag_156:\n      dup3\n      add\n      swap2\n      swap1\n      0x00\n      mstore\n      keccak256(0x00, 0x20)\n      swap1\n    tag_157:\n      dup2\n      sload\n      dup2\n      mstore\n      swap1\n      0x01\n      add\n      swap1\n      0x20\n      add\n      dup1\n      dup4\n      gt\n      tag_157\n      jumpi\n      dup3\n      swap1\n      sub\n      0x1f\n      and\n      dup3\n      add\n      swap2\n    tag_155:\n      pop\n      pop\n      pop\n      pop\n      pop\n      dup2\n      mstore\n      0x20\n      add\n      0x01\n      dup3\n      add\n      sload\n      dup2\n      mstore\n      pop\n      pop\n      dup2\n      mstore\n      0x20\n      add\n      swap1\n      0x01\n      add\n      swap1\n      jump(tag_150)\n    tag_151:\n      pop\n      pop\n      pop\n      pop\n        /* \"blockchain/practice/vote-app.sol\":2811:2821  candidates */\n      dup5\n        /* \"blockchain/practice/vote-app.sol\":2822:2823  i */\n      dup3\n        /* \"blockchain/practice/vote-app.sol\":2811:2824  candidates[i] */\n      dup2\n      mload\n      dup2\n      lt\n      tag_158\n      jumpi\n      tag_159\n      tag_50\n      jump\t// in\n    tag_159:\n    tag_158:\n      0x20\n      mul\n      0x20\n      add\n      add\n        /* \"blockchain/practice/vote-app.sol\":2811:2846  candidates[i] = polls[i].candidates */\n      dup2\n      swap1\n      mstore\n      pop\n        /* \"blockchain/practice/vote-app.sol\":2880:2885  polls */\n      0x00\n        /* \"blockchain/practice/vote-app.sol\":2886:2887  i */\n      dup2\n        /* \"blockchain/practice/vote-app.sol\":2880:2888  polls[i] */\n      dup2\n      sload\n      dup2\n      lt\n      tag_160\n      jumpi\n      tag_161\n      tag_50\n      jump\t// in\n    tag_161:\n    tag_160:\n      swap1\n      0x00\n      mstore\n      keccak256(0x00, 0x20)\n      swap1\n      0x05\n      mul\n      add\n        /* \"blockchain/practice/vote-app.sol\":2880:2903  polls[i].voterAddresses */\n      0x04\n      add\n        /* \"blockchain/practice/vote-app.sol\":2860:2903  voterAddresses[i] = polls[i].voterAddresses */\n      dup1\n      sload\n      dup1\n      0x20\n      mul\n      0x20\n      add\n      mload(0x40)\n      swap1\n      dup2\n      add\n      0x40\n      mstore\n      dup1\n      swap3\n      swap2\n      swap1\n      dup2\n      dup2\n      mstore\n      0x20\n      add\n      dup3\n      dup1\n      sload\n      dup1\n      iszero\n      tag_163\n      jumpi\n      0x20\n      mul\n      dup3\n      add\n      swap2\n      swap1\n      0x00\n      mstore\n      keccak256(0x00, 0x20)\n      swap1\n    tag_164:\n      dup2\n      0x00\n      swap1\n      sload\n      swap1\n      0x0100\n      exp\n      swap1\n      div\n      0xffffffffffffffffffffffffffffffffffffffff\n      and\n      0xffffffffffffffffffffffffffffffffffffffff\n      and\n      dup2\n      mstore\n      0x20\n      add\n      swap1\n      0x01\n      add\n      swap1\n      dup1\n      dup4\n      gt\n      tag_164\n      jumpi\n    tag_163:\n      pop\n      pop\n      pop\n      pop\n      pop\n        /* \"blockchain/practice/vote-app.sol\":2860:2874  voterAddresses */\n      dup4\n        /* \"blockchain/practice/vote-app.sol\":2875:2876  i */\n      dup3\n        /* \"blockchain/practice/vote-app.sol\":2860:2877  voterAddresses[i] */\n      dup2\n      mload\n      dup2\n      lt\n      tag_165\n      jumpi\n      tag_166\n      tag_50\n      jump\t// in\n    tag_166:\n    tag_165:\n      0x20\n      mul\n      0x20\n      add\n      add\n        /* \"blockchain/practice/vote-app.sol\":2860:2903  voterAddresses[i] = polls[i].voterAddresses */\n      dup2\n      swap1\n      mstore\n      pop\n        /* \"blockchain/practice/vote-app.sol\":2659:2662  i++ */\n      dup1\n      dup1\n      0x01\n      add\n      swap2\n      pop\n      pop\n        /* \"blockchain/practice/vote-app.sol\":2624:2927  for (uint256 i = 0; i < pollCount; i++) {... */\n      jump(tag_124)\n    tag_125:\n      pop\n        /* \"blockchain/practice/vote-app.sol\":2937:3002  return (questions, owners, isActive, candidates, voterAddresses ) */\n      pop\n        /* \"blockchain/practice/vote-app.sol\":2101:3010  function getAllPoll() public view returns (... */\n      swap1\n      swap2\n      swap3\n      swap4\n      swap5\n      jump\t// out\n        /* \"blockchain/practice/vote-app.sol\":508:527  Poll[] public polls */\n    tag_39:\n      0x00\n      dup2\n      dup2\n      sload\n      dup2\n      lt\n      tag_167\n      jumpi\n      0x00\n      dup1\n      revert\n    tag_167:\n      swap1\n      0x00\n      mstore\n      keccak256(0x00, 0x20)\n      swap1\n      0x05\n      mul\n      add\n      0x00\n      swap2\n      pop\n      swap1\n      pop\n      dup1\n      0x00\n      add\n      dup1\n      sload\n      tag_169\n      swap1\n      tag_67\n      jump\t// in\n    tag_169:\n      dup1\n      0x1f\n      add\n      0x20\n      dup1\n      swap2\n      div\n      mul\n      0x20\n      add\n      mload(0x40)\n      swap1\n      dup2\n      add\n      0x40\n      mstore\n      dup1\n      swap3\n      swap2\n      swap1\n      dup2\n      dup2\n      mstore\n      0x20\n      add\n      dup3\n      dup1\n      sload\n      tag_170\n      swap1\n      tag_67\n      jump\t// in\n    tag_170:\n      dup1\n      iszero\n      tag_171\n      jumpi\n      dup1\n      0x1f\n      lt\n      tag_172\n      jumpi\n      0x0100\n      dup1\n      dup4\n      sload\n      div\n      mul\n      dup4\n      mstore\n      swap2\n      0x20\n      add\n      swap2\n      jump(tag_171)\n    tag_172:\n      dup3\n      add\n      swap2\n      swap1\n      0x00\n      mstore\n      keccak256(0x00, 0x20)\n      swap1\n    tag_173:\n      dup2\n      sload\n      dup2\n      mstore\n      swap1\n      0x01\n      add\n      swap1\n      0x20\n      add\n      dup1\n      dup4\n      gt\n      tag_173\n      jumpi\n      dup3\n      swap1\n      sub\n      0x1f\n      and\n      dup3\n      add\n      swap2\n    tag_171:\n      pop\n      pop\n      pop\n      pop\n      pop\n      swap1\n      dup1\n      0x03\n      add\n      0x00\n      swap1\n      sload\n      swap1\n      0x0100\n      exp\n      swap1\n      div\n      0xffffffffffffffffffffffffffffffffffffffff\n      and\n      swap1\n      dup1\n      0x03\n      add\n      0x14\n      swap1\n      sload\n      swap1\n      0x0100\n      exp\n      swap1\n      div\n      0xff\n      and\n      swap1\n      pop\n      dup4\n      jump\t// out\n        /* \"blockchain/practice/vote-app.sol\":1511:2095  function vote(uint _pollId, uint _candidateIndex) public {... */\n    tag_45:\n        /* \"blockchain/practice/vote-app.sol\":1578:1595  Poll storage poll */\n      0x00\n        /* \"blockchain/practice/vote-app.sol\":1598:1603  polls */\n      dup1\n        /* \"blockchain/practice/vote-app.sol\":1604:1611  _pollId */\n      dup4\n        /* \"blockchain/practice/vote-app.sol\":1598:1612  polls[_pollId] */\n      dup2\n      sload\n      dup2\n      lt\n      tag_175\n      jumpi\n      tag_176\n      tag_50\n      jump\t// in\n    tag_176:\n    tag_175:\n      swap1\n      0x00\n      mstore\n      keccak256(0x00, 0x20)\n      swap1\n      0x05\n      mul\n      add\n        /* \"blockchain/practice/vote-app.sol\":1578:1612  Poll storage poll = polls[_pollId] */\n      swap1\n      pop\n        /* \"blockchain/practice/vote-app.sol\":1630:1634  poll */\n      dup1\n        /* \"blockchain/practice/vote-app.sol\":1630:1643  poll.isActive */\n      0x03\n      add\n      0x14\n      swap1\n      sload\n      swap1\n      0x0100\n      exp\n      swap1\n      div\n      0xff\n      and\n        /* \"blockchain/practice/vote-app.sol\":1622:1666  require(poll.isActive, \"Poll is not active\") */\n      tag_178\n      jumpi\n      mload(0x40)\n      0x08c379a000000000000000000000000000000000000000000000000000000000\n      dup2\n      mstore\n      0x04\n      add\n      tag_179\n      swap1\n      tag_180\n      jump\t// in\n    tag_179:\n      mload(0x40)\n      dup1\n      swap2\n      sub\n      swap1\n      revert\n    tag_178:\n        /* \"blockchain/practice/vote-app.sol\":1685:1689  poll */\n      dup1\n        /* \"blockchain/practice/vote-app.sol\":1685:1696  poll.voters */\n      0x02\n      add\n        /* \"blockchain/practice/vote-app.sol\":1685:1708  poll.voters[msg.sender] */\n      0x00\n        /* \"blockchain/practice/vote-app.sol\":1697:1707  msg.sender */\n      caller\n        /* \"blockchain/practice/vote-app.sol\":1685:1708  poll.voters[msg.sender] */\n      0xffffffffffffffffffffffffffffffffffffffff\n      and\n      0xffffffffffffffffffffffffffffffffffffffff\n      and\n      dup2\n      mstore\n      0x20\n      add\n      swap1\n      dup2\n      mstore\n      0x20\n      add\n      0x00\n      keccak256\n        /* \"blockchain/practice/vote-app.sol\":1685:1716  poll.voters[msg.sender].isVoted */\n      0x00\n      add\n      0x00\n      swap1\n      sload\n      swap1\n      0x0100\n      exp\n      swap1\n      div\n      0xff\n      and\n        /* \"blockchain/practice/vote-app.sol\":1684:1716  !poll.voters[msg.sender].isVoted */\n      iszero\n        /* \"blockchain/practice/vote-app.sol\":1676:1743  require(!poll.voters[msg.sender].isVoted, \"You have already voted\") */\n      tag_181\n      jumpi\n      mload(0x40)\n      0x08c379a000000000000000000000000000000000000000000000000000000000\n      dup2\n      mstore\n      0x04\n      add\n      tag_182\n      swap1\n      tag_183\n      jump\t// in\n    tag_182:\n      mload(0x40)\n      dup1\n      swap2\n      sub\n      swap1\n      revert\n    tag_181:\n        /* \"blockchain/practice/vote-app.sol\":1779:1783  poll */\n      dup1\n        /* \"blockchain/practice/vote-app.sol\":1779:1794  poll.candidates */\n      0x01\n      add\n        /* \"blockchain/practice/vote-app.sol\":1779:1801  poll.candidates.length */\n      dup1\n      sload\n      swap1\n      pop\n        /* \"blockchain/practice/vote-app.sol\":1761:1776  _candidateIndex */\n      dup3\n        /* \"blockchain/practice/vote-app.sol\":1761:1801  _candidateIndex < poll.candidates.length */\n      lt\n        /* \"blockchain/practice/vote-app.sol\":1753:1829  require(_candidateIndex < poll.candidates.length, \"Invalid candidate index\") */\n      tag_184\n      jumpi\n      mload(0x40)\n      0x08c379a000000000000000000000000000000000000000000000000000000000\n      dup2\n      mstore\n      0x04\n      add\n      tag_185\n      swap1\n      tag_186\n      jump\t// in\n    tag_185:\n      mload(0x40)\n      dup1\n      swap2\n      sub\n      swap1\n      revert\n    tag_184:\n        /* \"blockchain/practice/vote-app.sol\":1874:1878  true */\n      0x01\n        /* \"blockchain/practice/vote-app.sol\":1840:1844  poll */\n      dup2\n        /* \"blockchain/practice/vote-app.sol\":1840:1851  poll.voters */\n      0x02\n      add\n        /* \"blockchain/practice/vote-app.sol\":1840:1863  poll.voters[msg.sender] */\n      0x00\n        /* \"blockchain/practice/vote-app.sol\":1852:1862  msg.sender */\n      caller\n        /* \"blockchain/practice/vote-app.sol\":1840:1863  poll.voters[msg.sender] */\n      0xffffffffffffffffffffffffffffffffffffffff\n      and\n      0xffffffffffffffffffffffffffffffffffffffff\n      and\n      dup2\n      mstore\n      0x20\n      add\n      swap1\n      dup2\n      mstore\n      0x20\n      add\n      0x00\n      keccak256\n        /* \"blockchain/practice/vote-app.sol\":1840:1871  poll.voters[msg.sender].isVoted */\n      0x00\n      add\n      0x00\n        /* \"blockchain/practice/vote-app.sol\":1840:1878  poll.voters[msg.sender].isVoted = true */\n      0x0100\n      exp\n      dup2\n      sload\n      dup2\n      0xff\n      mul\n      not\n      and\n      swap1\n      dup4\n      iszero\n      iszero\n      mul\n      or\n      swap1\n      sstore\n      pop\n        /* \"blockchain/practice/vote-app.sol\":1912:1916  poll */\n      dup1\n        /* \"blockchain/practice/vote-app.sol\":1912:1927  poll.candidates */\n      0x01\n      add\n        /* \"blockchain/practice/vote-app.sol\":1928:1943  _candidateIndex */\n      dup3\n        /* \"blockchain/practice/vote-app.sol\":1912:1944  poll.candidates[_candidateIndex] */\n      dup2\n      sload\n      dup2\n      lt\n      tag_187\n      jumpi\n      tag_188\n      tag_50\n      jump\t// in\n    tag_188:\n    tag_187:\n      swap1\n      0x00\n      mstore\n      keccak256(0x00, 0x20)\n      swap1\n      0x02\n      mul\n      add\n        /* \"blockchain/practice/vote-app.sol\":1912:1951  poll.candidates[_candidateIndex].upVote */\n      0x01\n      add\n      0x00\n        /* \"blockchain/practice/vote-app.sol\":1912:1953  poll.candidates[_candidateIndex].upVote++ */\n      dup2\n      sload\n      dup1\n      swap3\n      swap2\n      swap1\n      tag_190\n      swap1\n      tag_191\n      jump\t// in\n    tag_190:\n      swap2\n      swap1\n      pop\n      sstore\n      pop\n        /* \"blockchain/practice/vote-app.sol\":2052:2056  poll */\n      dup1\n        /* \"blockchain/practice/vote-app.sol\":2052:2071  poll.voterAddresses */\n      0x04\n      add\n        /* \"blockchain/practice/vote-app.sol\":2077:2087  msg.sender */\n      caller\n        /* \"blockchain/practice/vote-app.sol\":2052:2088  poll.voterAddresses.push(msg.sender) */\n      swap1\n      dup1\n      0x01\n      dup2\n      sload\n      add\n      dup1\n      dup3\n      sstore\n      dup1\n      swap2\n      pop\n      pop\n      0x01\n      swap1\n      sub\n      swap1\n      0x00\n      mstore\n      keccak256(0x00, 0x20)\n      add\n      0x00\n      swap1\n      swap2\n      swap1\n      swap2\n      swap1\n      swap2\n      0x0100\n      exp\n      dup2\n      sload\n      dup2\n      0xffffffffffffffffffffffffffffffffffffffff\n      mul\n      not\n      and\n      swap1\n      dup4\n      0xffffffffffffffffffffffffffffffffffffffff\n      and\n      mul\n      or\n      swap1\n      sstore\n      pop\n        /* \"blockchain/practice/vote-app.sol\":1568:2095  {... */\n      pop\n        /* \"blockchain/practice/vote-app.sol\":1511:2095  function vote(uint _pollId, uint _candidateIndex) public {... */\n      pop\n      pop\n      jump\t// out\n        /* \"#utility.yul\":7:84   */\n    tag_193:\n        /* \"#utility.yul\":44:51   */\n      0x00\n        /* \"#utility.yul\":73:78   */\n      dup2\n        /* \"#utility.yul\":62:78   */\n      swap1\n      pop\n        /* \"#utility.yul\":7:84   */\n      swap2\n      swap1\n      pop\n      jump\t// out\n        /* \"#utility.yul\":90:208   */\n    tag_194:\n        /* \"#utility.yul\":177:201   */\n      tag_296\n        /* \"#utility.yul\":195:200   */\n      dup2\n        /* \"#utility.yul\":177:201   */\n      tag_193\n      jump\t// in\n    tag_296:\n        /* \"#utility.yul\":172:175   */\n      dup3\n        /* \"#utility.yul\":165:202   */\n      mstore\n        /* \"#utility.yul\":90:208   */\n      pop\n      pop\n      jump\t// out\n        /* \"#utility.yul\":214:436   */\n    tag_15:\n        /* \"#utility.yul\":307:311   */\n      0x00\n        /* \"#utility.yul\":345:347   */\n      0x20\n        /* \"#utility.yul\":334:343   */\n      dup3\n        /* \"#utility.yul\":330:348   */\n      add\n        /* \"#utility.yul\":322:348   */\n      swap1\n      pop\n        /* \"#utility.yul\":358:429   */\n      tag_298\n        /* \"#utility.yul\":426:427   */\n      0x00\n        /* \"#utility.yul\":415:424   */\n      dup4\n        /* \"#utility.yul\":411:428   */\n      add\n        /* \"#utility.yul\":402:408   */\n      dup5\n        /* \"#utility.yul\":358:429   */\n      tag_194\n      jump\t// in\n    tag_298:\n        /* \"#utility.yul\":214:436   */\n      swap3\n      swap2\n      pop\n      pop\n      jump\t// out\n        /* \"#utility.yul\":442:517   */\n    tag_195:\n        /* \"#utility.yul\":475:481   */\n      0x00\n        /* \"#utility.yul\":508:510   */\n      0x40\n        /* \"#utility.yul\":502:511   */\n      mload\n        /* \"#utility.yul\":492:511   */\n      swap1\n      pop\n        /* \"#utility.yul\":442:517   */\n      swap1\n      jump\t// out\n        /* \"#utility.yul\":523:640   */\n    tag_196:\n        /* \"#utility.yul\":632:633   */\n      0x00\n        /* \"#utility.yul\":629:630   */\n      dup1\n        /* \"#utility.yul\":622:634   */\n      revert\n        /* \"#utility.yul\":646:763   */\n    tag_197:\n        /* \"#utility.yul\":755:756   */\n      0x00\n        /* \"#utility.yul\":752:753   */\n      dup1\n        /* \"#utility.yul\":745:757   */\n      revert\n        /* \"#utility.yul\":769:891   */\n    tag_198:\n        /* \"#utility.yul\":842:866   */\n      tag_303\n        /* \"#utility.yul\":860:865   */\n      dup2\n        /* \"#utility.yul\":842:866   */\n      tag_193\n      jump\t// in\n    tag_303:\n        /* \"#utility.yul\":835:840   */\n      dup2\n        /* \"#utility.yul\":832:867   */\n      eq\n        /* \"#utility.yul\":822:885   */\n      tag_304\n      jumpi\n        /* \"#utility.yul\":881:882   */\n      0x00\n        /* \"#utility.yul\":878:879   */\n      dup1\n        /* \"#utility.yul\":871:883   */\n      revert\n        /* \"#utility.yul\":822:885   */\n    tag_304:\n        /* \"#utility.yul\":769:891   */\n      pop\n      jump\t// out\n        /* \"#utility.yul\":897:1036   */\n    tag_199:\n        /* \"#utility.yul\":943:948   */\n      0x00\n        /* \"#utility.yul\":981:987   */\n      dup2\n        /* \"#utility.yul\":968:988   */\n      calldataload\n        /* \"#utility.yul\":959:988   */\n      swap1\n      pop\n        /* \"#utility.yul\":997:1030   */\n      tag_306\n        /* \"#utility.yul\":1024:1029   */\n      dup2\n        /* \"#utility.yul\":997:1030   */\n      tag_198\n      jump\t// in\n    tag_306:\n        /* \"#utility.yul\":897:1036   */\n      swap3\n      swap2\n      pop\n      pop\n      jump\t// out\n        /* \"#utility.yul\":1042:1159   */\n    tag_200:\n        /* \"#utility.yul\":1151:1152   */\n      0x00\n        /* \"#utility.yul\":1148:1149   */\n      dup1\n        /* \"#utility.yul\":1141:1153   */\n      revert\n        /* \"#utility.yul\":1165:1282   */\n    tag_201:\n        /* \"#utility.yul\":1274:1275   */\n      0x00\n        /* \"#utility.yul\":1271:1272   */\n      dup1\n        /* \"#utility.yul\":1264:1276   */\n      revert\n        /* \"#utility.yul\":1288:1390   */\n    tag_202:\n        /* \"#utility.yul\":1329:1335   */\n      0x00\n        /* \"#utility.yul\":1380:1382   */\n      0x1f\n        /* \"#utility.yul\":1376:1383   */\n      not\n        /* \"#utility.yul\":1371:1373   */\n      0x1f\n        /* \"#utility.yul\":1364:1369   */\n      dup4\n        /* \"#utility.yul\":1360:1374   */\n      add\n        /* \"#utility.yul\":1356:1384   */\n      and\n        /* \"#utility.yul\":1346:1384   */\n      swap1\n      pop\n        /* \"#utility.yul\":1288:1390   */\n      swap2\n      swap1\n      pop\n      jump\t// out\n        /* \"#utility.yul\":1396:1576   */\n    tag_74:\n        /* \"#utility.yul\":1444:1521   */\n      0x4e487b7100000000000000000000000000000000000000000000000000000000\n        /* \"#utility.yul\":1441:1442   */\n      0x00\n        /* \"#utility.yul\":1434:1522   */\n      mstore\n        /* \"#utility.yul\":1541:1545   */\n      0x41\n        /* \"#utility.yul\":1538:1539   */\n      0x04\n        /* \"#utility.yul\":1531:1546   */\n      mstore\n        /* \"#utility.yul\":1565:1569   */\n      0x24\n        /* \"#utility.yul\":1562:1563   */\n      0x00\n        /* \"#utility.yul\":1555:1570   */\n      revert\n        /* \"#utility.yul\":1582:1863   */\n    tag_203:\n        /* \"#utility.yul\":1665:1692   */\n      tag_312\n        /* \"#utility.yul\":1687:1691   */\n      dup3\n        /* \"#utility.yul\":1665:1692   */\n      tag_202\n      jump\t// in\n    tag_312:\n        /* \"#utility.yul\":1657:1663   */\n      dup2\n        /* \"#utility.yul\":1653:1693   */\n      add\n        /* \"#utility.yul\":1795:1801   */\n      dup2\n        /* \"#utility.yul\":1783:1793   */\n      dup2\n        /* \"#utility.yul\":1780:1802   */\n      lt\n        /* \"#utility.yul\":1759:1777   */\n      0xffffffffffffffff\n        /* \"#utility.yul\":1747:1757   */\n      dup3\n        /* \"#utility.yul\":1744:1778   */\n      gt\n        /* \"#utility.yul\":1741:1803   */\n      or\n        /* \"#utility.yul\":1738:1826   */\n      iszero\n      tag_313\n      jumpi\n        /* \"#utility.yul\":1806:1824   */\n      tag_314\n      tag_74\n      jump\t// in\n    tag_314:\n        /* \"#utility.yul\":1738:1826   */\n    tag_313:\n        /* \"#utility.yul\":1846:1856   */\n      dup1\n        /* \"#utility.yul\":1842:1844   */\n      0x40\n        /* \"#utility.yul\":1835:1857   */\n      mstore\n        /* \"#utility.yul\":1625:1863   */\n      pop\n        /* \"#utility.yul\":1582:1863   */\n      pop\n      pop\n      jump\t// out\n        /* \"#utility.yul\":1869:1998   */\n    tag_204:\n        /* \"#utility.yul\":1903:1909   */\n      0x00\n        /* \"#utility.yul\":1930:1950   */\n      tag_316\n      tag_195\n      jump\t// in\n    tag_316:\n        /* \"#utility.yul\":1920:1950   */\n      swap1\n      pop\n        /* \"#utility.yul\":1959:1992   */\n      tag_317\n        /* \"#utility.yul\":1987:1991   */\n      dup3\n        /* \"#utility.yul\":1979:1985   */\n      dup3\n        /* \"#utility.yul\":1959:1992   */\n      tag_203\n      jump\t// in\n    tag_317:\n        /* \"#utility.yul\":1869:1998   */\n      swap2\n      swap1\n      pop\n      jump\t// out\n        /* \"#utility.yul\":2004:2312   */\n    tag_205:\n        /* \"#utility.yul\":2066:2070   */\n      0x00\n        /* \"#utility.yul\":2156:2174   */\n      0xffffffffffffffff\n        /* \"#utility.yul\":2148:2154   */\n      dup3\n        /* \"#utility.yul\":2145:2175   */\n      gt\n        /* \"#utility.yul\":2142:2198   */\n      iszero\n      tag_319\n      jumpi\n        /* \"#utility.yul\":2178:2196   */\n      tag_320\n      tag_74\n      jump\t// in\n    tag_320:\n        /* \"#utility.yul\":2142:2198   */\n    tag_319:\n        /* \"#utility.yul\":2216:2245   */\n      tag_321\n        /* \"#utility.yul\":2238:2244   */\n      dup3\n        /* \"#utility.yul\":2216:2245   */\n      tag_202\n      jump\t// in\n    tag_321:\n        /* \"#utility.yul\":2208:2245   */\n      swap1\n      pop\n        /* \"#utility.yul\":2300:2304   */\n      0x20\n        /* \"#utility.yul\":2294:2298   */\n      dup2\n        /* \"#utility.yul\":2290:2305   */\n      add\n        /* \"#utility.yul\":2282:2305   */\n      swap1\n      pop\n        /* \"#utility.yul\":2004:2312   */\n      swap2\n      swap1\n      pop\n      jump\t// out\n        /* \"#utility.yul\":2318:2466   */\n    tag_206:\n        /* \"#utility.yul\":2416:2422   */\n      dup3\n        /* \"#utility.yul\":2411:2414   */\n      dup2\n        /* \"#utility.yul\":2406:2409   */\n      dup4\n        /* \"#utility.yul\":2393:2423   */\n      calldatacopy\n        /* \"#utility.yul\":2457:2458   */\n      0x00\n        /* \"#utility.yul\":2448:2454   */\n      dup4\n        /* \"#utility.yul\":2443:2446   */\n      dup4\n        /* \"#utility.yul\":2439:2455   */\n      add\n        /* \"#utility.yul\":2432:2459   */\n      mstore\n        /* \"#utility.yul\":2318:2466   */\n      pop\n      pop\n      pop\n      jump\t// out\n        /* \"#utility.yul\":2472:2897   */\n    tag_207:\n        /* \"#utility.yul\":2550:2555   */\n      0x00\n        /* \"#utility.yul\":2575:2641   */\n      tag_324\n        /* \"#utility.yul\":2591:2640   */\n      tag_325\n        /* \"#utility.yul\":2633:2639   */\n      dup5\n        /* \"#utility.yul\":2591:2640   */\n      tag_205\n      jump\t// in\n    tag_325:\n        /* \"#utility.yul\":2575:2641   */\n      tag_204\n      jump\t// in\n    tag_324:\n        /* \"#utility.yul\":2566:2641   */\n      swap1\n      pop\n        /* \"#utility.yul\":2664:2670   */\n      dup3\n        /* \"#utility.yul\":2657:2662   */\n      dup2\n        /* \"#utility.yul\":2650:2671   */\n      mstore\n        /* \"#utility.yul\":2702:2706   */\n      0x20\n        /* \"#utility.yul\":2695:2700   */\n      dup2\n        /* \"#utility.yul\":2691:2707   */\n      add\n        /* \"#utility.yul\":2740:2743   */\n      dup5\n        /* \"#utility.yul\":2731:2737   */\n      dup5\n        /* \"#utility.yul\":2726:2729   */\n      dup5\n        /* \"#utility.yul\":2722:2738   */\n      add\n        /* \"#utility.yul\":2719:2744   */\n      gt\n        /* \"#utility.yul\":2716:2828   */\n      iszero\n      tag_326\n      jumpi\n        /* \"#utility.yul\":2747:2826   */\n      tag_327\n      tag_201\n      jump\t// in\n    tag_327:\n        /* \"#utility.yul\":2716:2828   */\n    tag_326:\n        /* \"#utility.yul\":2837:2891   */\n      tag_328\n        /* \"#utility.yul\":2884:2890   */\n      dup5\n        /* \"#utility.yul\":2879:2882   */\n      dup3\n        /* \"#utility.yul\":2874:2877   */\n      dup6\n        /* \"#utility.yul\":2837:2891   */\n      tag_206\n      jump\t// in\n    tag_328:\n        /* \"#utility.yul\":2556:2897   */\n      pop\n        /* \"#utility.yul\":2472:2897   */\n      swap4\n      swap3\n      pop\n      pop\n      pop\n      jump\t// out\n        /* \"#utility.yul\":2917:3257   */\n    tag_208:\n        /* \"#utility.yul\":2973:2978   */\n      0x00\n        /* \"#utility.yul\":3022:3025   */\n      dup3\n        /* \"#utility.yul\":3015:3019   */\n      0x1f\n        /* \"#utility.yul\":3007:3013   */\n      dup4\n        /* \"#utility.yul\":3003:3020   */\n      add\n        /* \"#utility.yul\":2999:3026   */\n      slt\n        /* \"#utility.yul\":2989:3111   */\n      tag_330\n      jumpi\n        /* \"#utility.yul\":3030:3109   */\n      tag_331\n      tag_200\n      jump\t// in\n    tag_331:\n        /* \"#utility.yul\":2989:3111   */\n    tag_330:\n        /* \"#utility.yul\":3147:3153   */\n      dup2\n        /* \"#utility.yul\":3134:3154   */\n      calldataload\n        /* \"#utility.yul\":3172:3251   */\n      tag_332\n        /* \"#utility.yul\":3247:3250   */\n      dup5\n        /* \"#utility.yul\":3239:3245   */\n      dup3\n        /* \"#utility.yul\":3232:3236   */\n      0x20\n        /* \"#utility.yul\":3224:3230   */\n      dup7\n        /* \"#utility.yul\":3220:3237   */\n      add\n        /* \"#utility.yul\":3172:3251   */\n      tag_207\n      jump\t// in\n    tag_332:\n        /* \"#utility.yul\":3163:3251   */\n      swap2\n      pop\n        /* \"#utility.yul\":2979:3257   */\n      pop\n        /* \"#utility.yul\":2917:3257   */\n      swap3\n      swap2\n      pop\n      pop\n      jump\t// out\n        /* \"#utility.yul\":3263:3917   */\n    tag_18:\n        /* \"#utility.yul\":3341:3347   */\n      0x00\n        /* \"#utility.yul\":3349:3355   */\n      dup1\n        /* \"#utility.yul\":3398:3400   */\n      0x40\n        /* \"#utility.yul\":3386:3395   */\n      dup4\n        /* \"#utility.yul\":3377:3384   */\n      dup6\n        /* \"#utility.yul\":3373:3396   */\n      sub\n        /* \"#utility.yul\":3369:3401   */\n      slt\n        /* \"#utility.yul\":3366:3485   */\n      iszero\n      tag_334\n      jumpi\n        /* \"#utility.yul\":3404:3483   */\n      tag_335\n      tag_196\n      jump\t// in\n    tag_335:\n        /* \"#utility.yul\":3366:3485   */\n    tag_334:\n        /* \"#utility.yul\":3524:3525   */\n      0x00\n        /* \"#utility.yul\":3549:3602   */\n      tag_336\n        /* \"#utility.yul\":3594:3601   */\n      dup6\n        /* \"#utility.yul\":3585:3591   */\n      dup3\n        /* \"#utility.yul\":3574:3583   */\n      dup7\n        /* \"#utility.yul\":3570:3592   */\n      add\n        /* \"#utility.yul\":3549:3602   */\n      tag_199\n      jump\t// in\n    tag_336:\n        /* \"#utility.yul\":3539:3602   */\n      swap3\n      pop\n        /* \"#utility.yul\":3495:3612   */\n      pop\n        /* \"#utility.yul\":3679:3681   */\n      0x20\n        /* \"#utility.yul\":3668:3677   */\n      dup4\n        /* \"#utility.yul\":3664:3682   */\n      add\n        /* \"#utility.yul\":3651:3683   */\n      calldataload\n        /* \"#utility.yul\":3710:3728   */\n      0xffffffffffffffff\n        /* \"#utility.yul\":3702:3708   */\n      dup2\n        /* \"#utility.yul\":3699:3729   */\n      gt\n        /* \"#utility.yul\":3696:3813   */\n      iszero\n      tag_337\n      jumpi\n        /* \"#utility.yul\":3732:3811   */\n      tag_338\n      tag_197\n      jump\t// in\n    tag_338:\n        /* \"#utility.yul\":3696:3813   */\n    tag_337:\n        /* \"#utility.yul\":3837:3900   */\n      tag_339\n        /* \"#utility.yul\":3892:3899   */\n      dup6\n        /* \"#utility.yul\":3883:3889   */\n      dup3\n        /* \"#utility.yul\":3872:3881   */\n      dup7\n        /* \"#utility.yul\":3868:3890   */\n      add\n        /* \"#utility.yul\":3837:3900   */\n      tag_208\n      jump\t// in\n    tag_339:\n        /* \"#utility.yul\":3827:3900   */\n      swap2\n      pop\n        /* \"#utility.yul\":3622:3910   */\n      pop\n        /* \"#utility.yul\":3263:3917   */\n      swap3\n      pop\n      swap3\n      swap1\n      pop\n      jump\t// out\n        /* \"#utility.yul\":3923:4252   */\n    tag_22:\n        /* \"#utility.yul\":3982:3988   */\n      0x00\n        /* \"#utility.yul\":4031:4033   */\n      0x20\n        /* \"#utility.yul\":4019:4028   */\n      dup3\n        /* \"#utility.yul\":4010:4017   */\n      dup5\n        /* \"#utility.yul\":4006:4029   */\n      sub\n        /* \"#utility.yul\":4002:4034   */\n      slt\n        /* \"#utility.yul\":3999:4118   */\n      iszero\n      tag_341\n      jumpi\n        /* \"#utility.yul\":4037:4116   */\n      tag_342\n      tag_196\n      jump\t// in\n    tag_342:\n        /* \"#utility.yul\":3999:4118   */\n    tag_341:\n        /* \"#utility.yul\":4157:4158   */\n      0x00\n        /* \"#utility.yul\":4182:4235   */\n      tag_343\n        /* \"#utility.yul\":4227:4234   */\n      dup5\n        /* \"#utility.yul\":4218:4224   */\n      dup3\n        /* \"#utility.yul\":4207:4216   */\n      dup6\n        /* \"#utility.yul\":4203:4225   */\n      add\n        /* \"#utility.yul\":4182:4235   */\n      tag_199\n      jump\t// in\n    tag_343:\n        /* \"#utility.yul\":4172:4235   */\n      swap2\n      pop\n        /* \"#utility.yul\":4128:4245   */\n      pop\n        /* \"#utility.yul\":3923:4252   */\n      swap3\n      swap2\n      pop\n      pop\n      jump\t// out\n        /* \"#utility.yul\":4258:4357   */\n    tag_209:\n        /* \"#utility.yul\":4310:4316   */\n      0x00\n        /* \"#utility.yul\":4344:4349   */\n      dup2\n        /* \"#utility.yul\":4338:4350   */\n      mload\n        /* \"#utility.yul\":4328:4350   */\n      swap1\n      pop\n        /* \"#utility.yul\":4258:4357   */\n      swap2\n      swap1\n      pop\n      jump\t// out\n        /* \"#utility.yul\":4363:4532   */\n    tag_210:\n        /* \"#utility.yul\":4447:4458   */\n      0x00\n        /* \"#utility.yul\":4481:4487   */\n      dup3\n        /* \"#utility.yul\":4476:4479   */\n      dup3\n        /* \"#utility.yul\":4469:4488   */\n      mstore\n        /* \"#utility.yul\":4521:4525   */\n      0x20\n        /* \"#utility.yul\":4516:4519   */\n      dup3\n        /* \"#utility.yul\":4512:4526   */\n      add\n        /* \"#utility.yul\":4497:4526   */\n      swap1\n      pop\n        /* \"#utility.yul\":4363:4532   */\n      swap3\n      swap2\n      pop\n      pop\n      jump\t// out\n        /* \"#utility.yul\":4538:4677   */\n    tag_211:\n        /* \"#utility.yul\":4627:4633   */\n      dup3\n        /* \"#utility.yul\":4622:4625   */\n      dup2\n        /* \"#utility.yul\":4617:4620   */\n      dup4\n        /* \"#utility.yul\":4611:4634   */\n      mcopy\n        /* \"#utility.yul\":4668:4669   */\n      0x00\n        /* \"#utility.yul\":4659:4665   */\n      dup4\n        /* \"#utility.yul\":4654:4657   */\n      dup4\n        /* \"#utility.yul\":4650:4666   */\n      add\n        /* \"#utility.yul\":4643:4670   */\n      mstore\n        /* \"#utility.yul\":4538:4677   */\n      pop\n      pop\n      pop\n      jump\t// out\n        /* \"#utility.yul\":4683:5060   */\n    tag_212:\n        /* \"#utility.yul\":4771:4774   */\n      0x00\n        /* \"#utility.yul\":4799:4838   */\n      tag_348\n        /* \"#utility.yul\":4832:4837   */\n      dup3\n        /* \"#utility.yul\":4799:4838   */\n      tag_209\n      jump\t// in\n    tag_348:\n        /* \"#utility.yul\":4854:4925   */\n      tag_349\n        /* \"#utility.yul\":4918:4924   */\n      dup2\n        /* \"#utility.yul\":4913:4916   */\n      dup6\n        /* \"#utility.yul\":4854:4925   */\n      tag_210\n      jump\t// in\n    tag_349:\n        /* \"#utility.yul\":4847:4925   */\n      swap4\n      pop\n        /* \"#utility.yul\":4934:4999   */\n      tag_350\n        /* \"#utility.yul\":4992:4998   */\n      dup2\n        /* \"#utility.yul\":4987:4990   */\n      dup6\n        /* \"#utility.yul\":4980:4984   */\n      0x20\n        /* \"#utility.yul\":4973:4978   */\n      dup7\n        /* \"#utility.yul\":4969:4985   */\n      add\n        /* \"#utility.yul\":4934:4999   */\n      tag_211\n      jump\t// in\n    tag_350:\n        /* \"#utility.yul\":5024:5053   */\n      tag_351\n        /* \"#utility.yul\":5046:5052   */\n      dup2\n        /* \"#utility.yul\":5024:5053   */\n      tag_202\n      jump\t// in\n    tag_351:\n        /* \"#utility.yul\":5019:5022   */\n      dup5\n        /* \"#utility.yul\":5015:5054   */\n      add\n        /* \"#utility.yul\":5008:5054   */\n      swap2\n      pop\n        /* \"#utility.yul\":4775:5060   */\n      pop\n        /* \"#utility.yul\":4683:5060   */\n      swap3\n      swap2\n      pop\n      pop\n      jump\t// out\n        /* \"#utility.yul\":5066:5192   */\n    tag_213:\n        /* \"#utility.yul\":5103:5110   */\n      0x00\n        /* \"#utility.yul\":5143:5185   */\n      0xffffffffffffffffffffffffffffffffffffffff\n        /* \"#utility.yul\":5136:5141   */\n      dup3\n        /* \"#utility.yul\":5132:5186   */\n      and\n        /* \"#utility.yul\":5121:5186   */\n      swap1\n      pop\n        /* \"#utility.yul\":5066:5192   */\n      swap2\n      swap1\n      pop\n      jump\t// out\n        /* \"#utility.yul\":5198:5294   */\n    tag_214:\n        /* \"#utility.yul\":5235:5242   */\n      0x00\n        /* \"#utility.yul\":5264:5288   */\n      tag_354\n        /* \"#utility.yul\":5282:5287   */\n      dup3\n        /* \"#utility.yul\":5264:5288   */\n      tag_213\n      jump\t// in\n    tag_354:\n        /* \"#utility.yul\":5253:5288   */\n      swap1\n      pop\n        /* \"#utility.yul\":5198:5294   */\n      swap2\n      swap1\n      pop\n      jump\t// out\n        /* \"#utility.yul\":5300:5418   */\n    tag_215:\n        /* \"#utility.yul\":5387:5411   */\n      tag_356\n        /* \"#utility.yul\":5405:5410   */\n      dup2\n        /* \"#utility.yul\":5387:5411   */\n      tag_214\n      jump\t// in\n    tag_356:\n        /* \"#utility.yul\":5382:5385   */\n      dup3\n        /* \"#utility.yul\":5375:5412   */\n      mstore\n        /* \"#utility.yul\":5300:5418   */\n      pop\n      pop\n      jump\t// out\n        /* \"#utility.yul\":5424:5514   */\n    tag_216:\n        /* \"#utility.yul\":5458:5465   */\n      0x00\n        /* \"#utility.yul\":5501:5506   */\n      dup2\n        /* \"#utility.yul\":5494:5507   */\n      iszero\n        /* \"#utility.yul\":5487:5508   */\n      iszero\n        /* \"#utility.yul\":5476:5508   */\n      swap1\n      pop\n        /* \"#utility.yul\":5424:5514   */\n      swap2\n      swap1\n      pop\n      jump\t// out\n        /* \"#utility.yul\":5520:5629   */\n    tag_217:\n        /* \"#utility.yul\":5601:5622   */\n      tag_359\n        /* \"#utility.yul\":5616:5621   */\n      dup2\n        /* \"#utility.yul\":5601:5622   */\n      tag_216\n      jump\t// in\n    tag_359:\n        /* \"#utility.yul\":5596:5599   */\n      dup3\n        /* \"#utility.yul\":5589:5623   */\n      mstore\n        /* \"#utility.yul\":5520:5629   */\n      pop\n      pop\n      jump\t// out\n        /* \"#utility.yul\":5635:5759   */\n    tag_218:\n        /* \"#utility.yul\":5712:5718   */\n      0x00\n        /* \"#utility.yul\":5746:5751   */\n      dup2\n        /* \"#utility.yul\":5740:5752   */\n      mload\n        /* \"#utility.yul\":5730:5752   */\n      swap1\n      pop\n        /* \"#utility.yul\":5635:5759   */\n      swap2\n      swap1\n      pop\n      jump\t// out\n        /* \"#utility.yul\":5765:5959   */\n    tag_219:\n        /* \"#utility.yul\":5874:5885   */\n      0x00\n        /* \"#utility.yul\":5908:5914   */\n      dup3\n        /* \"#utility.yul\":5903:5906   */\n      dup3\n        /* \"#utility.yul\":5896:5915   */\n      mstore\n        /* \"#utility.yul\":5948:5952   */\n      0x20\n        /* \"#utility.yul\":5943:5946   */\n      dup3\n        /* \"#utility.yul\":5939:5953   */\n      add\n        /* \"#utility.yul\":5924:5953   */\n      swap1\n      pop\n        /* \"#utility.yul\":5765:5959   */\n      swap3\n      swap2\n      pop\n      pop\n      jump\t// out\n        /* \"#utility.yul\":5965:6107   */\n    tag_220:\n        /* \"#utility.yul\":6042:6046   */\n      0x00\n        /* \"#utility.yul\":6065:6068   */\n      dup2\n        /* \"#utility.yul\":6057:6068   */\n      swap1\n      pop\n        /* \"#utility.yul\":6095:6099   */\n      0x20\n        /* \"#utility.yul\":6090:6093   */\n      dup3\n        /* \"#utility.yul\":6086:6100   */\n      add\n        /* \"#utility.yul\":6078:6100   */\n      swap1\n      pop\n        /* \"#utility.yul\":5965:6107   */\n      swap2\n      swap1\n      pop\n      jump\t// out\n        /* \"#utility.yul\":6113:6272   */\n    tag_221:\n        /* \"#utility.yul\":6187:6198   */\n      0x00\n        /* \"#utility.yul\":6221:6227   */\n      dup3\n        /* \"#utility.yul\":6216:6219   */\n      dup3\n        /* \"#utility.yul\":6209:6228   */\n      mstore\n        /* \"#utility.yul\":6261:6265   */\n      0x20\n        /* \"#utility.yul\":6256:6259   */\n      dup3\n        /* \"#utility.yul\":6252:6266   */\n      add\n        /* \"#utility.yul\":6237:6266   */\n      swap1\n      pop\n        /* \"#utility.yul\":6113:6272   */\n      swap3\n      swap2\n      pop\n      pop\n      jump\t// out\n        /* \"#utility.yul\":6278:6635   */\n    tag_222:\n        /* \"#utility.yul\":6356:6359   */\n      0x00\n        /* \"#utility.yul\":6384:6423   */\n      tag_365\n        /* \"#utility.yul\":6417:6422   */\n      dup3\n        /* \"#utility.yul\":6384:6423   */\n      tag_209\n      jump\t// in\n    tag_365:\n        /* \"#utility.yul\":6439:6500   */\n      tag_366\n        /* \"#utility.yul\":6493:6499   */\n      dup2\n        /* \"#utility.yul\":6488:6491   */\n      dup6\n        /* \"#utility.yul\":6439:6500   */\n      tag_221\n      jump\t// in\n    tag_366:\n        /* \"#utility.yul\":6432:6500   */\n      swap4\n      pop\n        /* \"#utility.yul\":6509:6574   */\n      tag_367\n        /* \"#utility.yul\":6567:6573   */\n      dup2\n        /* \"#utility.yul\":6562:6565   */\n      dup6\n        /* \"#utility.yul\":6555:6559   */\n      0x20\n        /* \"#utility.yul\":6548:6553   */\n      dup7\n        /* \"#utility.yul\":6544:6560   */\n      add\n        /* \"#utility.yul\":6509:6574   */\n      tag_211\n      jump\t// in\n    tag_367:\n        /* \"#utility.yul\":6599:6628   */\n      tag_368\n        /* \"#utility.yul\":6621:6627   */\n      dup2\n        /* \"#utility.yul\":6599:6628   */\n      tag_202\n      jump\t// in\n    tag_368:\n        /* \"#utility.yul\":6594:6597   */\n      dup5\n        /* \"#utility.yul\":6590:6629   */\n      add\n        /* \"#utility.yul\":6583:6629   */\n      swap2\n      pop\n        /* \"#utility.yul\":6360:6635   */\n      pop\n        /* \"#utility.yul\":6278:6635   */\n      swap3\n      swap2\n      pop\n      pop\n      jump\t// out\n        /* \"#utility.yul\":6641:6837   */\n    tag_223:\n        /* \"#utility.yul\":6730:6740   */\n      0x00\n        /* \"#utility.yul\":6765:6831   */\n      tag_370\n        /* \"#utility.yul\":6827:6830   */\n      dup4\n        /* \"#utility.yul\":6819:6825   */\n      dup4\n        /* \"#utility.yul\":6765:6831   */\n      tag_222\n      jump\t// in\n    tag_370:\n        /* \"#utility.yul\":6751:6831   */\n      swap1\n      pop\n        /* \"#utility.yul\":6641:6837   */\n      swap3\n      swap2\n      pop\n      pop\n      jump\t// out\n        /* \"#utility.yul\":6843:6966   */\n    tag_224:\n        /* \"#utility.yul\":6923:6927   */\n      0x00\n        /* \"#utility.yul\":6955:6959   */\n      0x20\n        /* \"#utility.yul\":6950:6953   */\n      dup3\n        /* \"#utility.yul\":6946:6960   */\n      add\n        /* \"#utility.yul\":6938:6960   */\n      swap1\n      pop\n        /* \"#utility.yul\":6843:6966   */\n      swap2\n      swap1\n      pop\n      jump\t// out\n        /* \"#utility.yul\":7000:7991   */\n    tag_225:\n        /* \"#utility.yul\":7139:7142   */\n      0x00\n        /* \"#utility.yul\":7168:7232   */\n      tag_373\n        /* \"#utility.yul\":7226:7231   */\n      dup3\n        /* \"#utility.yul\":7168:7232   */\n      tag_218\n      jump\t// in\n    tag_373:\n        /* \"#utility.yul\":7248:7344   */\n      tag_374\n        /* \"#utility.yul\":7337:7343   */\n      dup2\n        /* \"#utility.yul\":7332:7335   */\n      dup6\n        /* \"#utility.yul\":7248:7344   */\n      tag_219\n      jump\t// in\n    tag_374:\n        /* \"#utility.yul\":7241:7344   */\n      swap4\n      pop\n        /* \"#utility.yul\":7370:7373   */\n      dup4\n        /* \"#utility.yul\":7415:7419   */\n      0x20\n        /* \"#utility.yul\":7407:7413   */\n      dup3\n        /* \"#utility.yul\":7403:7420   */\n      mul\n        /* \"#utility.yul\":7398:7401   */\n      dup6\n        /* \"#utility.yul\":7394:7421   */\n      add\n        /* \"#utility.yul\":7445:7511   */\n      tag_375\n        /* \"#utility.yul\":7505:7510   */\n      dup6\n        /* \"#utility.yul\":7445:7511   */\n      tag_220\n      jump\t// in\n    tag_375:\n        /* \"#utility.yul\":7534:7541   */\n      dup1\n        /* \"#utility.yul\":7565:7566   */\n      0x00\n        /* \"#utility.yul\":7550:7946   */\n    tag_376:\n        /* \"#utility.yul\":7575:7581   */\n      dup6\n        /* \"#utility.yul\":7572:7573   */\n      dup2\n        /* \"#utility.yul\":7569:7582   */\n      lt\n        /* \"#utility.yul\":7550:7946   */\n      iszero\n      tag_378\n      jumpi\n        /* \"#utility.yul\":7646:7655   */\n      dup5\n        /* \"#utility.yul\":7640:7644   */\n      dup5\n        /* \"#utility.yul\":7636:7656   */\n      sub\n        /* \"#utility.yul\":7631:7634   */\n      dup10\n        /* \"#utility.yul\":7624:7657   */\n      mstore\n        /* \"#utility.yul\":7697:7703   */\n      dup2\n        /* \"#utility.yul\":7691:7704   */\n      mload\n        /* \"#utility.yul\":7725:7809   */\n      tag_379\n        /* \"#utility.yul\":7804:7808   */\n      dup6\n        /* \"#utility.yul\":7789:7802   */\n      dup3\n        /* \"#utility.yul\":7725:7809   */\n      tag_223\n      jump\t// in\n    tag_379:\n        /* \"#utility.yul\":7717:7809   */\n      swap5\n      pop\n        /* \"#utility.yul\":7832:7902   */\n      tag_380\n        /* \"#utility.yul\":7895:7901   */\n      dup4\n        /* \"#utility.yul\":7832:7902   */\n      tag_224\n      jump\t// in\n    tag_380:\n        /* \"#utility.yul\":7822:7902   */\n      swap3\n      pop\n        /* \"#utility.yul\":7931:7935   */\n      0x20\n        /* \"#utility.yul\":7926:7929   */\n      dup11\n        /* \"#utility.yul\":7922:7936   */\n      add\n        /* \"#utility.yul\":7915:7936   */\n      swap10\n      pop\n        /* \"#utility.yul\":7610:7946   */\n      pop\n        /* \"#utility.yul\":7597:7598   */\n      0x01\n        /* \"#utility.yul\":7594:7595   */\n      dup2\n        /* \"#utility.yul\":7590:7599   */\n      add\n        /* \"#utility.yul\":7585:7599   */\n      swap1\n      pop\n        /* \"#utility.yul\":7550:7946   */\n      jump(tag_376)\n    tag_378:\n        /* \"#utility.yul\":7554:7568   */\n      pop\n        /* \"#utility.yul\":7962:7966   */\n      dup3\n        /* \"#utility.yul\":7955:7966   */\n      swap8\n      pop\n        /* \"#utility.yul\":7982:7985   */\n      dup8\n        /* \"#utility.yul\":7975:7985   */\n      swap6\n      pop\n        /* \"#utility.yul\":7144:7991   */\n      pop\n      pop\n      pop\n      pop\n      pop\n        /* \"#utility.yul\":7000:7991   */\n      swap3\n      swap2\n      pop\n      pop\n      jump\t// out\n        /* \"#utility.yul\":7997:8111   */\n    tag_226:\n        /* \"#utility.yul\":8064:8070   */\n      0x00\n        /* \"#utility.yul\":8098:8103   */\n      dup2\n        /* \"#utility.yul\":8092:8104   */\n      mload\n        /* \"#utility.yul\":8082:8104   */\n      swap1\n      pop\n        /* \"#utility.yul\":7997:8111   */\n      swap2\n      swap1\n      pop\n      jump\t// out\n        /* \"#utility.yul\":8117:8301   */\n    tag_227:\n        /* \"#utility.yul\":8216:8227   */\n      0x00\n        /* \"#utility.yul\":8250:8256   */\n      dup3\n        /* \"#utility.yul\":8245:8248   */\n      dup3\n        /* \"#utility.yul\":8238:8257   */\n      mstore\n        /* \"#utility.yul\":8290:8294   */\n      0x20\n        /* \"#utility.yul\":8285:8288   */\n      dup3\n        /* \"#utility.yul\":8281:8295   */\n      add\n        /* \"#utility.yul\":8266:8295   */\n      swap1\n      pop\n        /* \"#utility.yul\":8117:8301   */\n      swap3\n      swap2\n      pop\n      pop\n      jump\t// out\n        /* \"#utility.yul\":8307:8439   */\n    tag_228:\n        /* \"#utility.yul\":8374:8378   */\n      0x00\n        /* \"#utility.yul\":8397:8400   */\n      dup2\n        /* \"#utility.yul\":8389:8400   */\n      swap1\n      pop\n        /* \"#utility.yul\":8427:8431   */\n      0x20\n        /* \"#utility.yul\":8422:8425   */\n      dup3\n        /* \"#utility.yul\":8418:8432   */\n      add\n        /* \"#utility.yul\":8410:8432   */\n      swap1\n      pop\n        /* \"#utility.yul\":8307:8439   */\n      swap2\n      swap1\n      pop\n      jump\t// out\n        /* \"#utility.yul\":8445:8553   */\n    tag_229:\n        /* \"#utility.yul\":8522:8546   */\n      tag_385\n        /* \"#utility.yul\":8540:8545   */\n      dup2\n        /* \"#utility.yul\":8522:8546   */\n      tag_193\n      jump\t// in\n    tag_385:\n        /* \"#utility.yul\":8517:8520   */\n      dup3\n        /* \"#utility.yul\":8510:8547   */\n      mstore\n        /* \"#utility.yul\":8445:8553   */\n      pop\n      pop\n      jump\t// out\n        /* \"#utility.yul\":8559:8738   */\n    tag_230:\n        /* \"#utility.yul\":8628:8638   */\n      0x00\n        /* \"#utility.yul\":8649:8695   */\n      tag_387\n        /* \"#utility.yul\":8691:8694   */\n      dup4\n        /* \"#utility.yul\":8683:8689   */\n      dup4\n        /* \"#utility.yul\":8649:8695   */\n      tag_229\n      jump\t// in\n    tag_387:\n        /* \"#utility.yul\":8727:8731   */\n      0x20\n        /* \"#utility.yul\":8722:8725   */\n      dup4\n        /* \"#utility.yul\":8718:8732   */\n      add\n        /* \"#utility.yul\":8704:8732   */\n      swap1\n      pop\n        /* \"#utility.yul\":8559:8738   */\n      swap3\n      swap2\n      pop\n      pop\n      jump\t// out\n        /* \"#utility.yul\":8744:8857   */\n    tag_231:\n        /* \"#utility.yul\":8814:8818   */\n      0x00\n        /* \"#utility.yul\":8846:8850   */\n      0x20\n        /* \"#utility.yul\":8841:8844   */\n      dup3\n        /* \"#utility.yul\":8837:8851   */\n      add\n        /* \"#utility.yul\":8829:8851   */\n      swap1\n      pop\n        /* \"#utility.yul\":8744:8857   */\n      swap2\n      swap1\n      pop\n      jump\t// out\n        /* \"#utility.yul\":8893:9625   */\n    tag_232:\n        /* \"#utility.yul\":9012:9015   */\n      0x00\n        /* \"#utility.yul\":9041:9095   */\n      tag_390\n        /* \"#utility.yul\":9089:9094   */\n      dup3\n        /* \"#utility.yul\":9041:9095   */\n      tag_226\n      jump\t// in\n    tag_390:\n        /* \"#utility.yul\":9111:9197   */\n      tag_391\n        /* \"#utility.yul\":9190:9196   */\n      dup2\n        /* \"#utility.yul\":9185:9188   */\n      dup6\n        /* \"#utility.yul\":9111:9197   */\n      tag_227\n      jump\t// in\n    tag_391:\n        /* \"#utility.yul\":9104:9197   */\n      swap4\n      pop\n        /* \"#utility.yul\":9221:9277   */\n      tag_392\n        /* \"#utility.yul\":9271:9276   */\n      dup4\n        /* \"#utility.yul\":9221:9277   */\n      tag_228\n      jump\t// in\n    tag_392:\n        /* \"#utility.yul\":9300:9307   */\n      dup1\n        /* \"#utility.yul\":9331:9332   */\n      0x00\n        /* \"#utility.yul\":9316:9600   */\n    tag_393:\n        /* \"#utility.yul\":9341:9347   */\n      dup4\n        /* \"#utility.yul\":9338:9339   */\n      dup2\n        /* \"#utility.yul\":9335:9348   */\n      lt\n        /* \"#utility.yul\":9316:9600   */\n      iszero\n      tag_395\n      jumpi\n        /* \"#utility.yul\":9417:9423   */\n      dup2\n        /* \"#utility.yul\":9411:9424   */\n      mload\n        /* \"#utility.yul\":9444:9507   */\n      tag_396\n        /* \"#utility.yul\":9503:9506   */\n      dup9\n        /* \"#utility.yul\":9488:9501   */\n      dup3\n        /* \"#utility.yul\":9444:9507   */\n      tag_230\n      jump\t// in\n    tag_396:\n        /* \"#utility.yul\":9437:9507   */\n      swap8\n      pop\n        /* \"#utility.yul\":9530:9590   */\n      tag_397\n        /* \"#utility.yul\":9583:9589   */\n      dup4\n        /* \"#utility.yul\":9530:9590   */\n      tag_231\n      jump\t// in\n    tag_397:\n        /* \"#utility.yul\":9520:9590   */\n      swap3\n      pop\n        /* \"#utility.yul\":9376:9600   */\n      pop\n        /* \"#utility.yul\":9363:9364   */\n      0x01\n        /* \"#utility.yul\":9360:9361   */\n      dup2\n        /* \"#utility.yul\":9356:9365   */\n      add\n        /* \"#utility.yul\":9351:9365   */\n      swap1\n      pop\n        /* \"#utility.yul\":9316:9600   */\n      jump(tag_393)\n    tag_395:\n        /* \"#utility.yul\":9320:9334   */\n      pop\n        /* \"#utility.yul\":9616:9619   */\n      dup6\n        /* \"#utility.yul\":9609:9619   */\n      swap4\n      pop\n        /* \"#utility.yul\":9017:9625   */\n      pop\n      pop\n      pop\n        /* \"#utility.yul\":8893:9625   */\n      swap3\n      swap2\n      pop\n      pop\n      jump\t// out\n        /* \"#utility.yul\":9631:10716   */\n    tag_28:\n        /* \"#utility.yul\":9970:9974   */\n      0x00\n        /* \"#utility.yul\":10008:10011   */\n      0xa0\n        /* \"#utility.yul\":9997:10006   */\n      dup3\n        /* \"#utility.yul\":9993:10012   */\n      add\n        /* \"#utility.yul\":9985:10012   */\n      swap1\n      pop\n        /* \"#utility.yul\":10058:10067   */\n      dup2\n        /* \"#utility.yul\":10052:10056   */\n      dup2\n        /* \"#utility.yul\":10048:10068   */\n      sub\n        /* \"#utility.yul\":10044:10045   */\n      0x00\n        /* \"#utility.yul\":10033:10042   */\n      dup4\n        /* \"#utility.yul\":10029:10046   */\n      add\n        /* \"#utility.yul\":10022:10069   */\n      mstore\n        /* \"#utility.yul\":10086:10164   */\n      tag_399\n        /* \"#utility.yul\":10159:10163   */\n      dup2\n        /* \"#utility.yul\":10150:10156   */\n      dup9\n        /* \"#utility.yul\":10086:10164   */\n      tag_212\n      jump\t// in\n    tag_399:\n        /* \"#utility.yul\":10078:10164   */\n      swap1\n      pop\n        /* \"#utility.yul\":10174:10246   */\n      tag_400\n        /* \"#utility.yul\":10242:10244   */\n      0x20\n        /* \"#utility.yul\":10231:10240   */\n      dup4\n        /* \"#utility.yul\":10227:10245   */\n      add\n        /* \"#utility.yul\":10218:10224   */\n      dup8\n        /* \"#utility.yul\":10174:10246   */\n      tag_215\n      jump\t// in\n    tag_400:\n        /* \"#utility.yul\":10256:10322   */\n      tag_401\n        /* \"#utility.yul\":10318:10320   */\n      0x40\n        /* \"#utility.yul\":10307:10316   */\n      dup4\n        /* \"#utility.yul\":10303:10321   */\n      add\n        /* \"#utility.yul\":10294:10300   */\n      dup7\n        /* \"#utility.yul\":10256:10322   */\n      tag_217\n      jump\t// in\n    tag_401:\n        /* \"#utility.yul\":10369:10378   */\n      dup2\n        /* \"#utility.yul\":10363:10367   */\n      dup2\n        /* \"#utility.yul\":10359:10379   */\n      sub\n        /* \"#utility.yul\":10354:10356   */\n      0x60\n        /* \"#utility.yul\":10343:10352   */\n      dup4\n        /* \"#utility.yul\":10339:10357   */\n      add\n        /* \"#utility.yul\":10332:10380   */\n      mstore\n        /* \"#utility.yul\":10397:10525   */\n      tag_402\n        /* \"#utility.yul\":10520:10524   */\n      dup2\n        /* \"#utility.yul\":10511:10517   */\n      dup6\n        /* \"#utility.yul\":10397:10525   */\n      tag_225\n      jump\t// in\n    tag_402:\n        /* \"#utility.yul\":10389:10525   */\n      swap1\n      pop\n        /* \"#utility.yul\":10573:10582   */\n      dup2\n        /* \"#utility.yul\":10567:10571   */\n      dup2\n        /* \"#utility.yul\":10563:10583   */\n      sub\n        /* \"#utility.yul\":10557:10560   */\n      0x80\n        /* \"#utility.yul\":10546:10555   */\n      dup4\n        /* \"#utility.yul\":10542:10561   */\n      add\n        /* \"#utility.yul\":10535:10584   */\n      mstore\n        /* \"#utility.yul\":10601:10709   */\n      tag_403\n        /* \"#utility.yul\":10704:10708   */\n      dup2\n        /* \"#utility.yul\":10695:10701   */\n      dup5\n        /* \"#utility.yul\":10601:10709   */\n      tag_232\n      jump\t// in\n    tag_403:\n        /* \"#utility.yul\":10593:10709   */\n      swap1\n      pop\n        /* \"#utility.yul\":9631:10716   */\n      swap7\n      swap6\n      pop\n      pop\n      pop\n      pop\n      pop\n      pop\n      jump\t// out\n        /* \"#utility.yul\":10722:11231   */\n    tag_31:\n        /* \"#utility.yul\":10791:10797   */\n      0x00\n        /* \"#utility.yul\":10840:10842   */\n      0x20\n        /* \"#utility.yul\":10828:10837   */\n      dup3\n        /* \"#utility.yul\":10819:10826   */\n      dup5\n        /* \"#utility.yul\":10815:10838   */\n      sub\n        /* \"#utility.yul\":10811:10843   */\n      slt\n        /* \"#utility.yul\":10808:10927   */\n      iszero\n      tag_405\n      jumpi\n        /* \"#utility.yul\":10846:10925   */\n      tag_406\n      tag_196\n      jump\t// in\n    tag_406:\n        /* \"#utility.yul\":10808:10927   */\n    tag_405:\n        /* \"#utility.yul\":10994:10995   */\n      0x00\n        /* \"#utility.yul\":10983:10992   */\n      dup3\n        /* \"#utility.yul\":10979:10996   */\n      add\n        /* \"#utility.yul\":10966:10997   */\n      calldataload\n        /* \"#utility.yul\":11024:11042   */\n      0xffffffffffffffff\n        /* \"#utility.yul\":11016:11022   */\n      dup2\n        /* \"#utility.yul\":11013:11043   */\n      gt\n        /* \"#utility.yul\":11010:11127   */\n      iszero\n      tag_407\n      jumpi\n        /* \"#utility.yul\":11046:11125   */\n      tag_408\n      tag_197\n      jump\t// in\n    tag_408:\n        /* \"#utility.yul\":11010:11127   */\n    tag_407:\n        /* \"#utility.yul\":11151:11214   */\n      tag_409\n        /* \"#utility.yul\":11206:11213   */\n      dup5\n        /* \"#utility.yul\":11197:11203   */\n      dup3\n        /* \"#utility.yul\":11186:11195   */\n      dup6\n        /* \"#utility.yul\":11182:11204   */\n      add\n        /* \"#utility.yul\":11151:11214   */\n      tag_208\n      jump\t// in\n    tag_409:\n        /* \"#utility.yul\":11141:11214   */\n      swap2\n      pop\n        /* \"#utility.yul\":10937:11224   */\n      pop\n        /* \"#utility.yul\":10722:11231   */\n      swap3\n      swap2\n      pop\n      pop\n      jump\t// out\n        /* \"#utility.yul\":11237:11351   */\n    tag_233:\n        /* \"#utility.yul\":11304:11310   */\n      0x00\n        /* \"#utility.yul\":11338:11343   */\n      dup2\n        /* \"#utility.yul\":11332:11344   */\n      mload\n        /* \"#utility.yul\":11322:11344   */\n      swap1\n      pop\n        /* \"#utility.yul\":11237:11351   */\n      swap2\n      swap1\n      pop\n      jump\t// out\n        /* \"#utility.yul\":11357:11541   */\n    tag_234:\n        /* \"#utility.yul\":11456:11467   */\n      0x00\n        /* \"#utility.yul\":11490:11496   */\n      dup3\n        /* \"#utility.yul\":11485:11488   */\n      dup3\n        /* \"#utility.yul\":11478:11497   */\n      mstore\n        /* \"#utility.yul\":11530:11534   */\n      0x20\n        /* \"#utility.yul\":11525:11528   */\n      dup3\n        /* \"#utility.yul\":11521:11535   */\n      add\n        /* \"#utility.yul\":11506:11535   */\n      swap1\n      pop\n        /* \"#utility.yul\":11357:11541   */\n      swap3\n      swap2\n      pop\n      pop\n      jump\t// out\n        /* \"#utility.yul\":11547:11679   */\n    tag_235:\n        /* \"#utility.yul\":11614:11618   */\n      0x00\n        /* \"#utility.yul\":11637:11640   */\n      dup2\n        /* \"#utility.yul\":11629:11640   */\n      swap1\n      pop\n        /* \"#utility.yul\":11667:11671   */\n      0x20\n        /* \"#utility.yul\":11662:11665   */\n      dup3\n        /* \"#utility.yul\":11658:11672   */\n      add\n        /* \"#utility.yul\":11650:11672   */\n      swap1\n      pop\n        /* \"#utility.yul\":11547:11679   */\n      swap2\n      swap1\n      pop\n      jump\t// out\n        /* \"#utility.yul\":11685:11793   */\n    tag_236:\n        /* \"#utility.yul\":11762:11786   */\n      tag_414\n        /* \"#utility.yul\":11780:11785   */\n      dup2\n        /* \"#utility.yul\":11762:11786   */\n      tag_214\n      jump\t// in\n    tag_414:\n        /* \"#utility.yul\":11757:11760   */\n      dup3\n        /* \"#utility.yul\":11750:11787   */\n      mstore\n        /* \"#utility.yul\":11685:11793   */\n      pop\n      pop\n      jump\t// out\n        /* \"#utility.yul\":11799:11978   */\n    tag_237:\n        /* \"#utility.yul\":11868:11878   */\n      0x00\n        /* \"#utility.yul\":11889:11935   */\n      tag_416\n        /* \"#utility.yul\":11931:11934   */\n      dup4\n        /* \"#utility.yul\":11923:11929   */\n      dup4\n        /* \"#utility.yul\":11889:11935   */\n      tag_236\n      jump\t// in\n    tag_416:\n        /* \"#utility.yul\":11967:11971   */\n      0x20\n        /* \"#utility.yul\":11962:11965   */\n      dup4\n        /* \"#utility.yul\":11958:11972   */\n      add\n        /* \"#utility.yul\":11944:11972   */\n      swap1\n      pop\n        /* \"#utility.yul\":11799:11978   */\n      swap3\n      swap2\n      pop\n      pop\n      jump\t// out\n        /* \"#utility.yul\":11984:12097   */\n    tag_238:\n        /* \"#utility.yul\":12054:12058   */\n      0x00\n        /* \"#utility.yul\":12086:12090   */\n      0x20\n        /* \"#utility.yul\":12081:12084   */\n      dup3\n        /* \"#utility.yul\":12077:12091   */\n      add\n        /* \"#utility.yul\":12069:12091   */\n      swap1\n      pop\n        /* \"#utility.yul\":11984:12097   */\n      swap2\n      swap1\n      pop\n      jump\t// out\n        /* \"#utility.yul\":12133:12865   */\n    tag_239:\n        /* \"#utility.yul\":12252:12255   */\n      0x00\n        /* \"#utility.yul\":12281:12335   */\n      tag_419\n        /* \"#utility.yul\":12329:12334   */\n      dup3\n        /* \"#utility.yul\":12281:12335   */\n      tag_233\n      jump\t// in\n    tag_419:\n        /* \"#utility.yul\":12351:12437   */\n      tag_420\n        /* \"#utility.yul\":12430:12436   */\n      dup2\n        /* \"#utility.yul\":12425:12428   */\n      dup6\n        /* \"#utility.yul\":12351:12437   */\n      tag_234\n      jump\t// in\n    tag_420:\n        /* \"#utility.yul\":12344:12437   */\n      swap4\n      pop\n        /* \"#utility.yul\":12461:12517   */\n      tag_421\n        /* \"#utility.yul\":12511:12516   */\n      dup4\n        /* \"#utility.yul\":12461:12517   */\n      tag_235\n      jump\t// in\n    tag_421:\n        /* \"#utility.yul\":12540:12547   */\n      dup1\n        /* \"#utility.yul\":12571:12572   */\n      0x00\n        /* \"#utility.yul\":12556:12840   */\n    tag_422:\n        /* \"#utility.yul\":12581:12587   */\n      dup4\n        /* \"#utility.yul\":12578:12579   */\n      dup2\n        /* \"#utility.yul\":12575:12588   */\n      lt\n        /* \"#utility.yul\":12556:12840   */\n      iszero\n      tag_424\n      jumpi\n        /* \"#utility.yul\":12657:12663   */\n      dup2\n        /* \"#utility.yul\":12651:12664   */\n      mload\n        /* \"#utility.yul\":12684:12747   */\n      tag_425\n        /* \"#utility.yul\":12743:12746   */\n      dup9\n        /* \"#utility.yul\":12728:12741   */\n      dup3\n        /* \"#utility.yul\":12684:12747   */\n      tag_237\n      jump\t// in\n    tag_425:\n        /* \"#utility.yul\":12677:12747   */\n      swap8\n      pop\n        /* \"#utility.yul\":12770:12830   */\n      tag_426\n        /* \"#utility.yul\":12823:12829   */\n      dup4\n        /* \"#utility.yul\":12770:12830   */\n      tag_238\n      jump\t// in\n    tag_426:\n        /* \"#utility.yul\":12760:12830   */\n      swap3\n      pop\n        /* \"#utility.yul\":12616:12840   */\n      pop\n        /* \"#utility.yul\":12603:12604   */\n      0x01\n        /* \"#utility.yul\":12600:12601   */\n      dup2\n        /* \"#utility.yul\":12596:12605   */\n      add\n        /* \"#utility.yul\":12591:12605   */\n      swap1\n      pop\n        /* \"#utility.yul\":12556:12840   */\n      jump(tag_422)\n    tag_424:\n        /* \"#utility.yul\":12560:12574   */\n      pop\n        /* \"#utility.yul\":12856:12859   */\n      dup6\n        /* \"#utility.yul\":12849:12859   */\n      swap4\n      pop\n        /* \"#utility.yul\":12257:12865   */\n      pop\n      pop\n      pop\n        /* \"#utility.yul\":12133:12865   */\n      swap3\n      swap2\n      pop\n      pop\n      jump\t// out\n        /* \"#utility.yul\":12871:12982   */\n    tag_240:\n        /* \"#utility.yul\":12935:12941   */\n      0x00\n        /* \"#utility.yul\":12969:12974   */\n      dup2\n        /* \"#utility.yul\":12963:12975   */\n      mload\n        /* \"#utility.yul\":12953:12975   */\n      swap1\n      pop\n        /* \"#utility.yul\":12871:12982   */\n      swap2\n      swap1\n      pop\n      jump\t// out\n        /* \"#utility.yul\":12988:13169   */\n    tag_241:\n        /* \"#utility.yul\":13084:13095   */\n      0x00\n        /* \"#utility.yul\":13118:13124   */\n      dup3\n        /* \"#utility.yul\":13113:13116   */\n      dup3\n        /* \"#utility.yul\":13106:13125   */\n      mstore\n        /* \"#utility.yul\":13158:13162   */\n      0x20\n        /* \"#utility.yul\":13153:13156   */\n      dup3\n        /* \"#utility.yul\":13149:13163   */\n      add\n        /* \"#utility.yul\":13134:13163   */\n      swap1\n      pop\n        /* \"#utility.yul\":12988:13169   */\n      swap3\n      swap2\n      pop\n      pop\n      jump\t// out\n        /* \"#utility.yul\":13175:13304   */\n    tag_242:\n        /* \"#utility.yul\":13239:13243   */\n      0x00\n        /* \"#utility.yul\":13262:13265   */\n      dup2\n        /* \"#utility.yul\":13254:13265   */\n      swap1\n      pop\n        /* \"#utility.yul\":13292:13296   */\n      0x20\n        /* \"#utility.yul\":13287:13290   */\n      dup3\n        /* \"#utility.yul\":13283:13297   */\n      add\n        /* \"#utility.yul\":13275:13297   */\n      swap1\n      pop\n        /* \"#utility.yul\":13175:13304   */\n      swap2\n      swap1\n      pop\n      jump\t// out\n        /* \"#utility.yul\":13310:13409   */\n    tag_243:\n        /* \"#utility.yul\":13381:13402   */\n      tag_431\n        /* \"#utility.yul\":13396:13401   */\n      dup2\n        /* \"#utility.yul\":13381:13402   */\n      tag_216\n      jump\t// in\n    tag_431:\n        /* \"#utility.yul\":13376:13379   */\n      dup3\n        /* \"#utility.yul\":13369:13403   */\n      mstore\n        /* \"#utility.yul\":13310:13409   */\n      pop\n      pop\n      jump\t// out\n        /* \"#utility.yul\":13415:13582   */\n    tag_244:\n        /* \"#utility.yul\":13478:13488   */\n      0x00\n        /* \"#utility.yul\":13499:13539   */\n      tag_433\n        /* \"#utility.yul\":13535:13538   */\n      dup4\n        /* \"#utility.yul\":13527:13533   */\n      dup4\n        /* \"#utility.yul\":13499:13539   */\n      tag_243\n      jump\t// in\n    tag_433:\n        /* \"#utility.yul\":13571:13575   */\n      0x20\n        /* \"#utility.yul\":13566:13569   */\n      dup4\n        /* \"#utility.yul\":13562:13576   */\n      add\n        /* \"#utility.yul\":13548:13576   */\n      swap1\n      pop\n        /* \"#utility.yul\":13415:13582   */\n      swap3\n      swap2\n      pop\n      pop\n      jump\t// out\n        /* \"#utility.yul\":13588:13698   */\n    tag_245:\n        /* \"#utility.yul\":13655:13659   */\n      0x00\n        /* \"#utility.yul\":13687:13691   */\n      0x20\n        /* \"#utility.yul\":13682:13685   */\n      dup3\n        /* \"#utility.yul\":13678:13692   */\n      add\n        /* \"#utility.yul\":13670:13692   */\n      swap1\n      pop\n        /* \"#utility.yul\":13588:13698   */\n      swap2\n      swap1\n      pop\n      jump\t// out\n        /* \"#utility.yul\":13728:14436   */\n    tag_246:\n        /* \"#utility.yul\":13841:13844   */\n      0x00\n        /* \"#utility.yul\":13870:13921   */\n      tag_436\n        /* \"#utility.yul\":13915:13920   */\n      dup3\n        /* \"#utility.yul\":13870:13921   */\n      tag_240\n      jump\t// in\n    tag_436:\n        /* \"#utility.yul\":13937:14020   */\n      tag_437\n        /* \"#utility.yul\":14013:14019   */\n      dup2\n        /* \"#utility.yul\":14008:14011   */\n      dup6\n        /* \"#utility.yul\":13937:14020   */\n      tag_241\n      jump\t// in\n    tag_437:\n        /* \"#utility.yul\":13930:14020   */\n      swap4\n      pop\n        /* \"#utility.yul\":14044:14097   */\n      tag_438\n        /* \"#utility.yul\":14091:14096   */\n      dup4\n        /* \"#utility.yul\":14044:14097   */\n      tag_242\n      jump\t// in\n    tag_438:\n        /* \"#utility.yul\":14120:14127   */\n      dup1\n        /* \"#utility.yul\":14151:14152   */\n      0x00\n        /* \"#utility.yul\":14136:14411   */\n    tag_439:\n        /* \"#utility.yul\":14161:14167   */\n      dup4\n        /* \"#utility.yul\":14158:14159   */\n      dup2\n        /* \"#utility.yul\":14155:14168   */\n      lt\n        /* \"#utility.yul\":14136:14411   */\n      iszero\n      tag_441\n      jumpi\n        /* \"#utility.yul\":14237:14243   */\n      dup2\n        /* \"#utility.yul\":14231:14244   */\n      mload\n        /* \"#utility.yul\":14264:14321   */\n      tag_442\n        /* \"#utility.yul\":14317:14320   */\n      dup9\n        /* \"#utility.yul\":14302:14315   */\n      dup3\n        /* \"#utility.yul\":14264:14321   */\n      tag_244\n      jump\t// in\n    tag_442:\n        /* \"#utility.yul\":14257:14321   */\n      swap8\n      pop\n        /* \"#utility.yul\":14344:14401   */\n      tag_443\n        /* \"#utility.yul\":14394:14400   */\n      dup4\n        /* \"#utility.yul\":14344:14401   */\n      tag_245\n      jump\t// in\n    tag_443:\n        /* \"#utility.yul\":14334:14401   */\n      swap3\n      pop\n        /* \"#utility.yul\":14196:14411   */\n      pop\n        /* \"#utility.yul\":14183:14184   */\n      0x01\n        /* \"#utility.yul\":14180:14181   */\n      dup2\n        /* \"#utility.yul\":14176:14185   */\n      add\n        /* \"#utility.yul\":14171:14185   */\n      swap1\n      pop\n        /* \"#utility.yul\":14136:14411   */\n      jump(tag_439)\n    tag_441:\n        /* \"#utility.yul\":14140:14154   */\n      pop\n        /* \"#utility.yul\":14427:14430   */\n      dup6\n        /* \"#utility.yul\":14420:14430   */\n      swap4\n      pop\n        /* \"#utility.yul\":13846:14436   */\n      pop\n      pop\n      pop\n        /* \"#utility.yul\":13728:14436   */\n      swap3\n      swap2\n      pop\n      pop\n      jump\t// out\n        /* \"#utility.yul\":14442:14605   */\n    tag_247:\n        /* \"#utility.yul\":14558:14564   */\n      0x00\n        /* \"#utility.yul\":14592:14597   */\n      dup2\n        /* \"#utility.yul\":14586:14598   */\n      mload\n        /* \"#utility.yul\":14576:14598   */\n      swap1\n      pop\n        /* \"#utility.yul\":14442:14605   */\n      swap2\n      swap1\n      pop\n      jump\t// out\n        /* \"#utility.yul\":14611:14844   */\n    tag_248:\n        /* \"#utility.yul\":14759:14770   */\n      0x00\n        /* \"#utility.yul\":14793:14799   */\n      dup3\n        /* \"#utility.yul\":14788:14791   */\n      dup3\n        /* \"#utility.yul\":14781:14800   */\n      mstore\n        /* \"#utility.yul\":14833:14837   */\n      0x20\n        /* \"#utility.yul\":14828:14831   */\n      dup3\n        /* \"#utility.yul\":14824:14838   */\n      add\n        /* \"#utility.yul\":14809:14838   */\n      swap1\n      pop\n        /* \"#utility.yul\":14611:14844   */\n      swap3\n      swap2\n      pop\n      pop\n      jump\t// out\n        /* \"#utility.yul\":14850:15031   */\n    tag_249:\n        /* \"#utility.yul\":14966:14970   */\n      0x00\n        /* \"#utility.yul\":14989:14992   */\n      dup2\n        /* \"#utility.yul\":14981:14992   */\n      swap1\n      pop\n        /* \"#utility.yul\":15019:15023   */\n      0x20\n        /* \"#utility.yul\":15014:15017   */\n      dup3\n        /* \"#utility.yul\":15010:15024   */\n      add\n        /* \"#utility.yul\":15002:15024   */\n      swap1\n      pop\n        /* \"#utility.yul\":14850:15031   */\n      swap2\n      swap1\n      pop\n      jump\t// out\n        /* \"#utility.yul\":15037:15175   */\n    tag_250:\n        /* \"#utility.yul\":15128:15134   */\n      0x00\n        /* \"#utility.yul\":15162:15167   */\n      dup2\n        /* \"#utility.yul\":15156:15168   */\n      mload\n        /* \"#utility.yul\":15146:15168   */\n      swap1\n      pop\n        /* \"#utility.yul\":15037:15175   */\n      swap2\n      swap1\n      pop\n      jump\t// out\n        /* \"#utility.yul\":15181:15379   */\n    tag_251:\n        /* \"#utility.yul\":15294:15305   */\n      0x00\n        /* \"#utility.yul\":15328:15334   */\n      dup3\n        /* \"#utility.yul\":15323:15326   */\n      dup3\n        /* \"#utility.yul\":15316:15335   */\n      mstore\n        /* \"#utility.yul\":15368:15372   */\n      0x20\n        /* \"#utility.yul\":15363:15366   */\n      dup3\n        /* \"#utility.yul\":15359:15373   */\n      add\n        /* \"#utility.yul\":15344:15373   */\n      swap1\n      pop\n        /* \"#utility.yul\":15181:15379   */\n      swap3\n      swap2\n      pop\n      pop\n      jump\t// out\n        /* \"#utility.yul\":15385:15541   */\n    tag_252:\n        /* \"#utility.yul\":15476:15480   */\n      0x00\n        /* \"#utility.yul\":15499:15502   */\n      dup2\n        /* \"#utility.yul\":15491:15502   */\n      swap1\n      pop\n        /* \"#utility.yul\":15529:15533   */\n      0x20\n        /* \"#utility.yul\":15524:15527   */\n      dup3\n        /* \"#utility.yul\":15520:15534   */\n      add\n        /* \"#utility.yul\":15512:15534   */\n      swap1\n      pop\n        /* \"#utility.yul\":15385:15541   */\n      swap2\n      swap1\n      pop\n      jump\t// out\n        /* \"#utility.yul\":15601:16197   */\n    tag_253:\n        /* \"#utility.yul\":15708:15711   */\n      0x00\n        /* \"#utility.yul\":15744:15748   */\n      0x40\n        /* \"#utility.yul\":15739:15742   */\n      dup4\n        /* \"#utility.yul\":15735:15749   */\n      add\n        /* \"#utility.yul\":15831:15835   */\n      0x00\n        /* \"#utility.yul\":15824:15829   */\n      dup4\n        /* \"#utility.yul\":15820:15836   */\n      add\n        /* \"#utility.yul\":15814:15837   */\n      mload\n        /* \"#utility.yul\":15884:15887   */\n      dup5\n        /* \"#utility.yul\":15878:15882   */\n      dup3\n        /* \"#utility.yul\":15874:15888   */\n      sub\n        /* \"#utility.yul\":15867:15871   */\n      0x00\n        /* \"#utility.yul\":15862:15865   */\n      dup7\n        /* \"#utility.yul\":15858:15872   */\n      add\n        /* \"#utility.yul\":15851:15889   */\n      mstore\n        /* \"#utility.yul\":15910:15983   */\n      tag_451\n        /* \"#utility.yul\":15978:15982   */\n      dup3\n        /* \"#utility.yul\":15964:15976   */\n      dup3\n        /* \"#utility.yul\":15910:15983   */\n      tag_222\n      jump\t// in\n    tag_451:\n        /* \"#utility.yul\":15902:15983   */\n      swap2\n      pop\n        /* \"#utility.yul\":15759:15994   */\n      pop\n        /* \"#utility.yul\":16078:16082   */\n      0x20\n        /* \"#utility.yul\":16071:16076   */\n      dup4\n        /* \"#utility.yul\":16067:16083   */\n      add\n        /* \"#utility.yul\":16061:16084   */\n      mload\n        /* \"#utility.yul\":16097:16160   */\n      tag_452\n        /* \"#utility.yul\":16154:16158   */\n      0x20\n        /* \"#utility.yul\":16149:16152   */\n      dup7\n        /* \"#utility.yul\":16145:16159   */\n      add\n        /* \"#utility.yul\":16131:16143   */\n      dup3\n        /* \"#utility.yul\":16097:16160   */\n      tag_229\n      jump\t// in\n    tag_452:\n        /* \"#utility.yul\":16004:16170   */\n      pop\n        /* \"#utility.yul\":16187:16191   */\n      dup1\n        /* \"#utility.yul\":16180:16191   */\n      swap2\n      pop\n        /* \"#utility.yul\":15713:16197   */\n      pop\n        /* \"#utility.yul\":15601:16197   */\n      swap3\n      swap2\n      pop\n      pop\n      jump\t// out\n        /* \"#utility.yul\":16203:16455   */\n    tag_254:\n        /* \"#utility.yul\":16320:16330   */\n      0x00\n        /* \"#utility.yul\":16355:16449   */\n      tag_454\n        /* \"#utility.yul\":16445:16448   */\n      dup4\n        /* \"#utility.yul\":16437:16443   */\n      dup4\n        /* \"#utility.yul\":16355:16449   */\n      tag_253\n      jump\t// in\n    tag_454:\n        /* \"#utility.yul\":16341:16449   */\n      swap1\n      pop\n        /* \"#utility.yul\":16203:16455   */\n      swap3\n      swap2\n      pop\n      pop\n      jump\t// out\n        /* \"#utility.yul\":16461:16598   */\n    tag_255:\n        /* \"#utility.yul\":16555:16559   */\n      0x00\n        /* \"#utility.yul\":16587:16591   */\n      0x20\n        /* \"#utility.yul\":16582:16585   */\n      dup3\n        /* \"#utility.yul\":16578:16592   */\n      add\n        /* \"#utility.yul\":16570:16592   */\n      swap1\n      pop\n        /* \"#utility.yul\":16461:16598   */\n      swap2\n      swap1\n      pop\n      jump\t// out\n        /* \"#utility.yul\":16662:17745   */\n    tag_256:\n        /* \"#utility.yul\":16819:16822   */\n      0x00\n        /* \"#utility.yul\":16848:16926   */\n      tag_457\n        /* \"#utility.yul\":16920:16925   */\n      dup3\n        /* \"#utility.yul\":16848:16926   */\n      tag_250\n      jump\t// in\n    tag_457:\n        /* \"#utility.yul\":16942:17042   */\n      tag_458\n        /* \"#utility.yul\":17035:17041   */\n      dup2\n        /* \"#utility.yul\":17030:17033   */\n      dup6\n        /* \"#utility.yul\":16942:17042   */\n      tag_251\n      jump\t// in\n    tag_458:\n        /* \"#utility.yul\":16935:17042   */\n      swap4\n      pop\n        /* \"#utility.yul\":17068:17071   */\n      dup4\n        /* \"#utility.yul\":17113:17117   */\n      0x20\n        /* \"#utility.yul\":17105:17111   */\n      dup3\n        /* \"#utility.yul\":17101:17118   */\n      mul\n        /* \"#utility.yul\":17096:17099   */\n      dup6\n        /* \"#utility.yul\":17092:17119   */\n      add\n        /* \"#utility.yul\":17143:17223   */\n      tag_459\n        /* \"#utility.yul\":17217:17222   */\n      dup6\n        /* \"#utility.yul\":17143:17223   */\n      tag_252\n      jump\t// in\n    tag_459:\n        /* \"#utility.yul\":17246:17253   */\n      dup1\n        /* \"#utility.yul\":17277:17278   */\n      0x00\n        /* \"#utility.yul\":17262:17700   */\n    tag_460:\n        /* \"#utility.yul\":17287:17293   */\n      dup6\n        /* \"#utility.yul\":17284:17285   */\n      dup2\n        /* \"#utility.yul\":17281:17294   */\n      lt\n        /* \"#utility.yul\":17262:17700   */\n      iszero\n      tag_462\n      jumpi\n        /* \"#utility.yul\":17358:17367   */\n      dup5\n        /* \"#utility.yul\":17352:17356   */\n      dup5\n        /* \"#utility.yul\":17348:17368   */\n      sub\n        /* \"#utility.yul\":17343:17346   */\n      dup10\n        /* \"#utility.yul\":17336:17369   */\n      mstore\n        /* \"#utility.yul\":17409:17415   */\n      dup2\n        /* \"#utility.yul\":17403:17416   */\n      mload\n        /* \"#utility.yul\":17437:17549   */\n      tag_463\n        /* \"#utility.yul\":17544:17548   */\n      dup6\n        /* \"#utility.yul\":17529:17542   */\n      dup3\n        /* \"#utility.yul\":17437:17549   */\n      tag_254\n      jump\t// in\n    tag_463:\n        /* \"#utility.yul\":17429:17549   */\n      swap5\n      pop\n        /* \"#utility.yul\":17572:17656   */\n      tag_464\n        /* \"#utility.yul\":17649:17655   */\n      dup4\n        /* \"#utility.yul\":17572:17656   */\n      tag_255\n      jump\t// in\n    tag_464:\n        /* \"#utility.yul\":17562:17656   */\n      swap3\n      pop\n        /* \"#utility.yul\":17685:17689   */\n      0x20\n        /* \"#utility.yul\":17680:17683   */\n      dup11\n        /* \"#utility.yul\":17676:17690   */\n      add\n        /* \"#utility.yul\":17669:17690   */\n      swap10\n      pop\n        /* \"#utility.yul\":17322:17700   */\n      pop\n        /* \"#utility.yul\":17309:17310   */\n      0x01\n        /* \"#utility.yul\":17306:17307   */\n      dup2\n        /* \"#utility.yul\":17302:17311   */\n      add\n        /* \"#utility.yul\":17297:17311   */\n      swap1\n      pop\n        /* \"#utility.yul\":17262:17700   */\n      jump(tag_460)\n    tag_462:\n        /* \"#utility.yul\":17266:17280   */\n      pop\n        /* \"#utility.yul\":17716:17720   */\n      dup3\n        /* \"#utility.yul\":17709:17720   */\n      swap8\n      pop\n        /* \"#utility.yul\":17736:17739   */\n      dup8\n        /* \"#utility.yul\":17729:17739   */\n      swap6\n      pop\n        /* \"#utility.yul\":16824:17745   */\n      pop\n      pop\n      pop\n      pop\n      pop\n        /* \"#utility.yul\":16662:17745   */\n      swap3\n      swap2\n      pop\n      pop\n      jump\t// out\n        /* \"#utility.yul\":17751:18103   */\n    tag_257:\n        /* \"#utility.yul\":17918:17928   */\n      0x00\n        /* \"#utility.yul\":17953:18097   */\n      tag_466\n        /* \"#utility.yul\":18093:18096   */\n      dup4\n        /* \"#utility.yul\":18085:18091   */\n      dup4\n        /* \"#utility.yul\":17953:18097   */\n      tag_256\n      jump\t// in\n    tag_466:\n        /* \"#utility.yul\":17939:18097   */\n      swap1\n      pop\n        /* \"#utility.yul\":17751:18103   */\n      swap3\n      swap2\n      pop\n      pop\n      jump\t// out\n        /* \"#utility.yul\":18109:18271   */\n    tag_258:\n        /* \"#utility.yul\":18228:18232   */\n      0x00\n        /* \"#utility.yul\":18260:18264   */\n      0x20\n        /* \"#utility.yul\":18255:18258   */\n      dup3\n        /* \"#utility.yul\":18251:18265   */\n      add\n        /* \"#utility.yul\":18243:18265   */\n      swap1\n      pop\n        /* \"#utility.yul\":18109:18271   */\n      swap2\n      swap1\n      pop\n      jump\t// out\n        /* \"#utility.yul\":18339:19642   */\n    tag_259:\n        /* \"#utility.yul\":18556:18559   */\n      0x00\n        /* \"#utility.yul\":18585:18688   */\n      tag_469\n        /* \"#utility.yul\":18682:18687   */\n      dup3\n        /* \"#utility.yul\":18585:18688   */\n      tag_247\n      jump\t// in\n    tag_469:\n        /* \"#utility.yul\":18704:18839   */\n      tag_470\n        /* \"#utility.yul\":18832:18838   */\n      dup2\n        /* \"#utility.yul\":18827:18830   */\n      dup6\n        /* \"#utility.yul\":18704:18839   */\n      tag_248\n      jump\t// in\n    tag_470:\n        /* \"#utility.yul\":18697:18839   */\n      swap4\n      pop\n        /* \"#utility.yul\":18865:18868   */\n      dup4\n        /* \"#utility.yul\":18910:18914   */\n      0x20\n        /* \"#utility.yul\":18902:18908   */\n      dup3\n        /* \"#utility.yul\":18898:18915   */\n      mul\n        /* \"#utility.yul\":18893:18896   */\n      dup6\n        /* \"#utility.yul\":18889:18916   */\n      add\n        /* \"#utility.yul\":18940:19045   */\n      tag_471\n        /* \"#utility.yul\":19039:19044   */\n      dup6\n        /* \"#utility.yul\":18940:19045   */\n      tag_249\n      jump\t// in\n    tag_471:\n        /* \"#utility.yul\":19068:19075   */\n      dup1\n        /* \"#utility.yul\":19099:19100   */\n      0x00\n        /* \"#utility.yul\":19084:19597   */\n    tag_472:\n        /* \"#utility.yul\":19109:19115   */\n      dup6\n        /* \"#utility.yul\":19106:19107   */\n      dup2\n        /* \"#utility.yul\":19103:19116   */\n      lt\n        /* \"#utility.yul\":19084:19597   */\n      iszero\n      tag_474\n      jumpi\n        /* \"#utility.yul\":19180:19189   */\n      dup5\n        /* \"#utility.yul\":19174:19178   */\n      dup5\n        /* \"#utility.yul\":19170:19190   */\n      sub\n        /* \"#utility.yul\":19165:19168   */\n      dup10\n        /* \"#utility.yul\":19158:19191   */\n      mstore\n        /* \"#utility.yul\":19231:19237   */\n      dup2\n        /* \"#utility.yul\":19225:19238   */\n      mload\n        /* \"#utility.yul\":19259:19421   */\n      tag_475\n        /* \"#utility.yul\":19416:19420   */\n      dup6\n        /* \"#utility.yul\":19401:19414   */\n      dup3\n        /* \"#utility.yul\":19259:19421   */\n      tag_257\n      jump\t// in\n    tag_475:\n        /* \"#utility.yul\":19251:19421   */\n      swap5\n      pop\n        /* \"#utility.yul\":19444:19553   */\n      tag_476\n        /* \"#utility.yul\":19546:19552   */\n      dup4\n        /* \"#utility.yul\":19444:19553   */\n      tag_258\n      jump\t// in\n    tag_476:\n        /* \"#utility.yul\":19434:19553   */\n      swap3\n      pop\n        /* \"#utility.yul\":19582:19586   */\n      0x20\n        /* \"#utility.yul\":19577:19580   */\n      dup11\n        /* \"#utility.yul\":19573:19587   */\n      add\n        /* \"#utility.yul\":19566:19587   */\n      swap10\n      pop\n        /* \"#utility.yul\":19144:19597   */\n      pop\n        /* \"#utility.yul\":19131:19132   */\n      0x01\n        /* \"#utility.yul\":19128:19129   */\n      dup2\n        /* \"#utility.yul\":19124:19133   */\n      add\n        /* \"#utility.yul\":19119:19133   */\n      swap1\n      pop\n        /* \"#utility.yul\":19084:19597   */\n      jump(tag_472)\n    tag_474:\n        /* \"#utility.yul\":19088:19102   */\n      pop\n        /* \"#utility.yul\":19613:19617   */\n      dup3\n        /* \"#utility.yul\":19606:19617   */\n      swap8\n      pop\n        /* \"#utility.yul\":19633:19636   */\n      dup8\n        /* \"#utility.yul\":19626:19636   */\n      swap6\n      pop\n        /* \"#utility.yul\":18561:19642   */\n      pop\n      pop\n      pop\n      pop\n      pop\n        /* \"#utility.yul\":18339:19642   */\n      swap3\n      swap2\n      pop\n      pop\n      jump\t// out\n        /* \"#utility.yul\":19648:19787   */\n    tag_260:\n        /* \"#utility.yul\":19740:19746   */\n      0x00\n        /* \"#utility.yul\":19774:19779   */\n      dup2\n        /* \"#utility.yul\":19768:19780   */\n      mload\n        /* \"#utility.yul\":19758:19780   */\n      swap1\n      pop\n        /* \"#utility.yul\":19648:19787   */\n      swap2\n      swap1\n      pop\n      jump\t// out\n        /* \"#utility.yul\":19793:20002   */\n    tag_261:\n        /* \"#utility.yul\":19917:19928   */\n      0x00\n        /* \"#utility.yul\":19951:19957   */\n      dup3\n        /* \"#utility.yul\":19946:19949   */\n      dup3\n        /* \"#utility.yul\":19939:19958   */\n      mstore\n        /* \"#utility.yul\":19991:19995   */\n      0x20\n        /* \"#utility.yul\":19986:19989   */\n      dup3\n        /* \"#utility.yul\":19982:19996   */\n      add\n        /* \"#utility.yul\":19967:19996   */\n      swap1\n      pop\n        /* \"#utility.yul\":19793:20002   */\n      swap3\n      swap2\n      pop\n      pop\n      jump\t// out\n        /* \"#utility.yul\":20008:20165   */\n    tag_262:\n        /* \"#utility.yul\":20100:20104   */\n      0x00\n        /* \"#utility.yul\":20123:20126   */\n      dup2\n        /* \"#utility.yul\":20115:20126   */\n      swap1\n      pop\n        /* \"#utility.yul\":20153:20157   */\n      0x20\n        /* \"#utility.yul\":20148:20151   */\n      dup3\n        /* \"#utility.yul\":20144:20158   */\n      add\n        /* \"#utility.yul\":20136:20158   */\n      swap1\n      pop\n        /* \"#utility.yul\":20008:20165   */\n      swap2\n      swap1\n      pop\n      jump\t// out\n        /* \"#utility.yul\":20171:20345   */\n    tag_263:\n        /* \"#utility.yul\":20260:20271   */\n      0x00\n        /* \"#utility.yul\":20294:20300   */\n      dup3\n        /* \"#utility.yul\":20289:20292   */\n      dup3\n        /* \"#utility.yul\":20282:20301   */\n      mstore\n        /* \"#utility.yul\":20334:20338   */\n      0x20\n        /* \"#utility.yul\":20329:20332   */\n      dup3\n        /* \"#utility.yul\":20325:20339   */\n      add\n        /* \"#utility.yul\":20310:20339   */\n      swap1\n      pop\n        /* \"#utility.yul\":20171:20345   */\n      swap3\n      swap2\n      pop\n      pop\n      jump\t// out\n        /* \"#utility.yul\":20381:21093   */\n    tag_264:\n        /* \"#utility.yul\":20490:20493   */\n      0x00\n        /* \"#utility.yul\":20519:20573   */\n      tag_482\n        /* \"#utility.yul\":20567:20572   */\n      dup3\n        /* \"#utility.yul\":20519:20573   */\n      tag_233\n      jump\t// in\n    tag_482:\n        /* \"#utility.yul\":20589:20665   */\n      tag_483\n        /* \"#utility.yul\":20658:20664   */\n      dup2\n        /* \"#utility.yul\":20653:20656   */\n      dup6\n        /* \"#utility.yul\":20589:20665   */\n      tag_263\n      jump\t// in\n    tag_483:\n        /* \"#utility.yul\":20582:20665   */\n      swap4\n      pop\n        /* \"#utility.yul\":20689:20745   */\n      tag_484\n        /* \"#utility.yul\":20739:20744   */\n      dup4\n        /* \"#utility.yul\":20689:20745   */\n      tag_235\n      jump\t// in\n    tag_484:\n        /* \"#utility.yul\":20768:20775   */\n      dup1\n        /* \"#utility.yul\":20799:20800   */\n      0x00\n        /* \"#utility.yul\":20784:21068   */\n    tag_485:\n        /* \"#utility.yul\":20809:20815   */\n      dup4\n        /* \"#utility.yul\":20806:20807   */\n      dup2\n        /* \"#utility.yul\":20803:20816   */\n      lt\n        /* \"#utility.yul\":20784:21068   */\n      iszero\n      tag_487\n      jumpi\n        /* \"#utility.yul\":20885:20891   */\n      dup2\n        /* \"#utility.yul\":20879:20892   */\n      mload\n        /* \"#utility.yul\":20912:20975   */\n      tag_488\n        /* \"#utility.yul\":20971:20974   */\n      dup9\n        /* \"#utility.yul\":20956:20969   */\n      dup3\n        /* \"#utility.yul\":20912:20975   */\n      tag_237\n      jump\t// in\n    tag_488:\n        /* \"#utility.yul\":20905:20975   */\n      swap8\n      pop\n        /* \"#utility.yul\":20998:21058   */\n      tag_489\n        /* \"#utility.yul\":21051:21057   */\n      dup4\n        /* \"#utility.yul\":20998:21058   */\n      tag_238\n      jump\t// in\n    tag_489:\n        /* \"#utility.yul\":20988:21058   */\n      swap3\n      pop\n        /* \"#utility.yul\":20844:21068   */\n      pop\n        /* \"#utility.yul\":20831:20832   */\n      0x01\n        /* \"#utility.yul\":20828:20829   */\n      dup2\n        /* \"#utility.yul\":20824:20833   */\n      add\n        /* \"#utility.yul\":20819:20833   */\n      swap1\n      pop\n        /* \"#utility.yul\":20784:21068   */\n      jump(tag_485)\n    tag_487:\n        /* \"#utility.yul\":20788:20802   */\n      pop\n        /* \"#utility.yul\":21084:21087   */\n      dup6\n        /* \"#utility.yul\":21077:21087   */\n      swap4\n      pop\n        /* \"#utility.yul\":20495:21093   */\n      pop\n      pop\n      pop\n        /* \"#utility.yul\":20381:21093   */\n      swap3\n      swap2\n      pop\n      pop\n      jump\t// out\n        /* \"#utility.yul\":21099:21355   */\n    tag_265:\n        /* \"#utility.yul\":21218:21228   */\n      0x00\n        /* \"#utility.yul\":21253:21349   */\n      tag_491\n        /* \"#utility.yul\":21345:21348   */\n      dup4\n        /* \"#utility.yul\":21337:21343   */\n      dup4\n        /* \"#utility.yul\":21253:21349   */\n      tag_264\n      jump\t// in\n    tag_491:\n        /* \"#utility.yul\":21239:21349   */\n      swap1\n      pop\n        /* \"#utility.yul\":21099:21355   */\n      swap3\n      swap2\n      pop\n      pop\n      jump\t// out\n        /* \"#utility.yul\":21361:21499   */\n    tag_266:\n        /* \"#utility.yul\":21456:21460   */\n      0x00\n        /* \"#utility.yul\":21488:21492   */\n      0x20\n        /* \"#utility.yul\":21483:21486   */\n      dup3\n        /* \"#utility.yul\":21479:21493   */\n      add\n        /* \"#utility.yul\":21471:21493   */\n      swap1\n      pop\n        /* \"#utility.yul\":21361:21499   */\n      swap2\n      swap1\n      pop\n      jump\t// out\n        /* \"#utility.yul\":21539:22650   */\n    tag_267:\n        /* \"#utility.yul\":21708:21711   */\n      0x00\n        /* \"#utility.yul\":21737:21816   */\n      tag_494\n        /* \"#utility.yul\":21810:21815   */\n      dup3\n        /* \"#utility.yul\":21737:21816   */\n      tag_260\n      jump\t// in\n    tag_494:\n        /* \"#utility.yul\":21832:21943   */\n      tag_495\n        /* \"#utility.yul\":21936:21942   */\n      dup2\n        /* \"#utility.yul\":21931:21934   */\n      dup6\n        /* \"#utility.yul\":21832:21943   */\n      tag_261\n      jump\t// in\n    tag_495:\n        /* \"#utility.yul\":21825:21943   */\n      swap4\n      pop\n        /* \"#utility.yul\":21969:21972   */\n      dup4\n        /* \"#utility.yul\":22014:22018   */\n      0x20\n        /* \"#utility.yul\":22006:22012   */\n      dup3\n        /* \"#utility.yul\":22002:22019   */\n      mul\n        /* \"#utility.yul\":21997:22000   */\n      dup6\n        /* \"#utility.yul\":21993:22020   */\n      add\n        /* \"#utility.yul\":22044:22125   */\n      tag_496\n        /* \"#utility.yul\":22119:22124   */\n      dup6\n        /* \"#utility.yul\":22044:22125   */\n      tag_262\n      jump\t// in\n    tag_496:\n        /* \"#utility.yul\":22148:22155   */\n      dup1\n        /* \"#utility.yul\":22179:22180   */\n      0x00\n        /* \"#utility.yul\":22164:22605   */\n    tag_497:\n        /* \"#utility.yul\":22189:22195   */\n      dup6\n        /* \"#utility.yul\":22186:22187   */\n      dup2\n        /* \"#utility.yul\":22183:22196   */\n      lt\n        /* \"#utility.yul\":22164:22605   */\n      iszero\n      tag_499\n      jumpi\n        /* \"#utility.yul\":22260:22269   */\n      dup5\n        /* \"#utility.yul\":22254:22258   */\n      dup5\n        /* \"#utility.yul\":22250:22270   */\n      sub\n        /* \"#utility.yul\":22245:22248   */\n      dup10\n        /* \"#utility.yul\":22238:22271   */\n      mstore\n        /* \"#utility.yul\":22311:22317   */\n      dup2\n        /* \"#utility.yul\":22305:22318   */\n      mload\n        /* \"#utility.yul\":22339:22453   */\n      tag_500\n        /* \"#utility.yul\":22448:22452   */\n      dup6\n        /* \"#utility.yul\":22433:22446   */\n      dup3\n        /* \"#utility.yul\":22339:22453   */\n      tag_265\n      jump\t// in\n    tag_500:\n        /* \"#utility.yul\":22331:22453   */\n      swap5\n      pop\n        /* \"#utility.yul\":22476:22561   */\n      tag_501\n        /* \"#utility.yul\":22554:22560   */\n      dup4\n        /* \"#utility.yul\":22476:22561   */\n      tag_266\n      jump\t// in\n    tag_501:\n        /* \"#utility.yul\":22466:22561   */\n      swap3\n      pop\n        /* \"#utility.yul\":22590:22594   */\n      0x20\n        /* \"#utility.yul\":22585:22588   */\n      dup11\n        /* \"#utility.yul\":22581:22595   */\n      add\n        /* \"#utility.yul\":22574:22595   */\n      swap10\n      pop\n        /* \"#utility.yul\":22224:22605   */\n      pop\n        /* \"#utility.yul\":22211:22212   */\n      0x01\n        /* \"#utility.yul\":22208:22209   */\n      dup2\n        /* \"#utility.yul\":22204:22213   */\n      add\n        /* \"#utility.yul\":22199:22213   */\n      swap1\n      pop\n        /* \"#utility.yul\":22164:22605   */\n      jump(tag_497)\n    tag_499:\n        /* \"#utility.yul\":22168:22182   */\n      pop\n        /* \"#utility.yul\":22621:22625   */\n      dup3\n        /* \"#utility.yul\":22614:22625   */\n      swap8\n      pop\n        /* \"#utility.yul\":22641:22644   */\n      dup8\n        /* \"#utility.yul\":22634:22644   */\n      swap6\n      pop\n        /* \"#utility.yul\":21713:22650   */\n      pop\n      pop\n      pop\n      pop\n      pop\n        /* \"#utility.yul\":21539:22650   */\n      swap3\n      swap2\n      pop\n      pop\n      jump\t// out\n        /* \"#utility.yul\":22656:24399   */\n    tag_36:\n        /* \"#utility.yul\":23273:23277   */\n      0x00\n        /* \"#utility.yul\":23311:23314   */\n      0xa0\n        /* \"#utility.yul\":23300:23309   */\n      dup3\n        /* \"#utility.yul\":23296:23315   */\n      add\n        /* \"#utility.yul\":23288:23315   */\n      swap1\n      pop\n        /* \"#utility.yul\":23361:23370   */\n      dup2\n        /* \"#utility.yul\":23355:23359   */\n      dup2\n        /* \"#utility.yul\":23351:23371   */\n      sub\n        /* \"#utility.yul\":23347:23348   */\n      0x00\n        /* \"#utility.yul\":23336:23345   */\n      dup4\n        /* \"#utility.yul\":23332:23349   */\n      add\n        /* \"#utility.yul\":23325:23372   */\n      mstore\n        /* \"#utility.yul\":23389:23517   */\n      tag_503\n        /* \"#utility.yul\":23512:23516   */\n      dup2\n        /* \"#utility.yul\":23503:23509   */\n      dup9\n        /* \"#utility.yul\":23389:23517   */\n      tag_225\n      jump\t// in\n    tag_503:\n        /* \"#utility.yul\":23381:23517   */\n      swap1\n      pop\n        /* \"#utility.yul\":23564:23573   */\n      dup2\n        /* \"#utility.yul\":23558:23562   */\n      dup2\n        /* \"#utility.yul\":23554:23574   */\n      sub\n        /* \"#utility.yul\":23549:23551   */\n      0x20\n        /* \"#utility.yul\":23538:23547   */\n      dup4\n        /* \"#utility.yul\":23534:23552   */\n      add\n        /* \"#utility.yul\":23527:23575   */\n      mstore\n        /* \"#utility.yul\":23592:23700   */\n      tag_504\n        /* \"#utility.yul\":23695:23699   */\n      dup2\n        /* \"#utility.yul\":23686:23692   */\n      dup8\n        /* \"#utility.yul\":23592:23700   */\n      tag_239\n      jump\t// in\n    tag_504:\n        /* \"#utility.yul\":23584:23700   */\n      swap1\n      pop\n        /* \"#utility.yul\":23747:23756   */\n      dup2\n        /* \"#utility.yul\":23741:23745   */\n      dup2\n        /* \"#utility.yul\":23737:23757   */\n      sub\n        /* \"#utility.yul\":23732:23734   */\n      0x40\n        /* \"#utility.yul\":23721:23730   */\n      dup4\n        /* \"#utility.yul\":23717:23735   */\n      add\n        /* \"#utility.yul\":23710:23758   */\n      mstore\n        /* \"#utility.yul\":23775:23877   */\n      tag_505\n        /* \"#utility.yul\":23872:23876   */\n      dup2\n        /* \"#utility.yul\":23863:23869   */\n      dup7\n        /* \"#utility.yul\":23775:23877   */\n      tag_246\n      jump\t// in\n    tag_505:\n        /* \"#utility.yul\":23767:23877   */\n      swap1\n      pop\n        /* \"#utility.yul\":23924:23933   */\n      dup2\n        /* \"#utility.yul\":23918:23922   */\n      dup2\n        /* \"#utility.yul\":23914:23934   */\n      sub\n        /* \"#utility.yul\":23909:23911   */\n      0x60\n        /* \"#utility.yul\":23898:23907   */\n      dup4\n        /* \"#utility.yul\":23894:23912   */\n      add\n        /* \"#utility.yul\":23887:23935   */\n      mstore\n        /* \"#utility.yul\":23952:24158   */\n      tag_506\n        /* \"#utility.yul\":24153:24157   */\n      dup2\n        /* \"#utility.yul\":24144:24150   */\n      dup6\n        /* \"#utility.yul\":23952:24158   */\n      tag_259\n      jump\t// in\n    tag_506:\n        /* \"#utility.yul\":23944:24158   */\n      swap1\n      pop\n        /* \"#utility.yul\":24206:24215   */\n      dup2\n        /* \"#utility.yul\":24200:24204   */\n      dup2\n        /* \"#utility.yul\":24196:24216   */\n      sub\n        /* \"#utility.yul\":24190:24193   */\n      0x80\n        /* \"#utility.yul\":24179:24188   */\n      dup4\n        /* \"#utility.yul\":24175:24194   */\n      add\n        /* \"#utility.yul\":24168:24217   */\n      mstore\n        /* \"#utility.yul\":24234:24392   */\n      tag_507\n        /* \"#utility.yul\":24387:24391   */\n      dup2\n        /* \"#utility.yul\":24378:24384   */\n      dup5\n        /* \"#utility.yul\":24234:24392   */\n      tag_267\n      jump\t// in\n    tag_507:\n        /* \"#utility.yul\":24226:24392   */\n      swap1\n      pop\n        /* \"#utility.yul\":22656:24399   */\n      swap7\n      swap6\n      pop\n      pop\n      pop\n      pop\n      pop\n      pop\n      jump\t// out\n        /* \"#utility.yul\":24405:24926   */\n    tag_41:\n        /* \"#utility.yul\":24568:24572   */\n      0x00\n        /* \"#utility.yul\":24606:24608   */\n      0x60\n        /* \"#utility.yul\":24595:24604   */\n      dup3\n        /* \"#utility.yul\":24591:24609   */\n      add\n        /* \"#utility.yul\":24583:24609   */\n      swap1\n      pop\n        /* \"#utility.yul\":24655:24664   */\n      dup2\n        /* \"#utility.yul\":24649:24653   */\n      dup2\n        /* \"#utility.yul\":24645:24665   */\n      sub\n        /* \"#utility.yul\":24641:24642   */\n      0x00\n        /* \"#utility.yul\":24630:24639   */\n      dup4\n        /* \"#utility.yul\":24626:24643   */\n      add\n        /* \"#utility.yul\":24619:24666   */\n      mstore\n        /* \"#utility.yul\":24683:24761   */\n      tag_509\n        /* \"#utility.yul\":24756:24760   */\n      dup2\n        /* \"#utility.yul\":24747:24753   */\n      dup7\n        /* \"#utility.yul\":24683:24761   */\n      tag_212\n      jump\t// in\n    tag_509:\n        /* \"#utility.yul\":24675:24761   */\n      swap1\n      pop\n        /* \"#utility.yul\":24771:24843   */\n      tag_510\n        /* \"#utility.yul\":24839:24841   */\n      0x20\n        /* \"#utility.yul\":24828:24837   */\n      dup4\n        /* \"#utility.yul\":24824:24842   */\n      add\n        /* \"#utility.yul\":24815:24821   */\n      dup6\n        /* \"#utility.yul\":24771:24843   */\n      tag_215\n      jump\t// in\n    tag_510:\n        /* \"#utility.yul\":24853:24919   */\n      tag_511\n        /* \"#utility.yul\":24915:24917   */\n      0x40\n        /* \"#utility.yul\":24904:24913   */\n      dup4\n        /* \"#utility.yul\":24900:24918   */\n      add\n        /* \"#utility.yul\":24891:24897   */\n      dup5\n        /* \"#utility.yul\":24853:24919   */\n      tag_217\n      jump\t// in\n    tag_511:\n        /* \"#utility.yul\":24405:24926   */\n      swap5\n      swap4\n      pop\n      pop\n      pop\n      pop\n      jump\t// out\n        /* \"#utility.yul\":24932:25406   */\n    tag_44:\n        /* \"#utility.yul\":25000:25006   */\n      0x00\n        /* \"#utility.yul\":25008:25014   */\n      dup1\n        /* \"#utility.yul\":25057:25059   */\n      0x40\n        /* \"#utility.yul\":25045:25054   */\n      dup4\n        /* \"#utility.yul\":25036:25043   */\n      dup6\n        /* \"#utility.yul\":25032:25055   */\n      sub\n        /* \"#utility.yul\":25028:25060   */\n      slt\n        /* \"#utility.yul\":25025:25144   */\n      iszero\n      tag_513\n      jumpi\n        /* \"#utility.yul\":25063:25142   */\n      tag_514\n      tag_196\n      jump\t// in\n    tag_514:\n        /* \"#utility.yul\":25025:25144   */\n    tag_513:\n        /* \"#utility.yul\":25183:25184   */\n      0x00\n        /* \"#utility.yul\":25208:25261   */\n      tag_515\n        /* \"#utility.yul\":25253:25260   */\n      dup6\n        /* \"#utility.yul\":25244:25250   */\n      dup3\n        /* \"#utility.yul\":25233:25242   */\n      dup7\n        /* \"#utility.yul\":25229:25251   */\n      add\n        /* \"#utility.yul\":25208:25261   */\n      tag_199\n      jump\t// in\n    tag_515:\n        /* \"#utility.yul\":25198:25261   */\n      swap3\n      pop\n        /* \"#utility.yul\":25154:25271   */\n      pop\n        /* \"#utility.yul\":25310:25312   */\n      0x20\n        /* \"#utility.yul\":25336:25389   */\n      tag_516\n        /* \"#utility.yul\":25381:25388   */\n      dup6\n        /* \"#utility.yul\":25372:25378   */\n      dup3\n        /* \"#utility.yul\":25361:25370   */\n      dup7\n        /* \"#utility.yul\":25357:25379   */\n      add\n        /* \"#utility.yul\":25336:25389   */\n      tag_199\n      jump\t// in\n    tag_516:\n        /* \"#utility.yul\":25326:25389   */\n      swap2\n      pop\n        /* \"#utility.yul\":25281:25399   */\n      pop\n        /* \"#utility.yul\":24932:25406   */\n      swap3\n      pop\n      swap3\n      swap1\n      pop\n      jump\t// out\n        /* \"#utility.yul\":25412:25592   */\n    tag_50:\n        /* \"#utility.yul\":25460:25537   */\n      0x4e487b7100000000000000000000000000000000000000000000000000000000\n        /* \"#utility.yul\":25457:25458   */\n      0x00\n        /* \"#utility.yul\":25450:25538   */\n      mstore\n        /* \"#utility.yul\":25557:25561   */\n      0x32\n        /* \"#utility.yul\":25554:25555   */\n      0x04\n        /* \"#utility.yul\":25547:25562   */\n      mstore\n        /* \"#utility.yul\":25581:25585   */\n      0x24\n        /* \"#utility.yul\":25578:25579   */\n      0x00\n        /* \"#utility.yul\":25571:25586   */\n      revert\n        /* \"#utility.yul\":25598:25818   */\n    tag_268:\n        /* \"#utility.yul\":25738:25772   */\n      0x4f6e6c7920746865206f776e65722063616e206164642063616e646964617465\n        /* \"#utility.yul\":25734:25735   */\n      0x00\n        /* \"#utility.yul\":25726:25732   */\n      dup3\n        /* \"#utility.yul\":25722:25736   */\n      add\n        /* \"#utility.yul\":25715:25773   */\n      mstore\n        /* \"#utility.yul\":25807:25810   */\n      0x7300000000000000000000000000000000000000000000000000000000000000\n        /* \"#utility.yul\":25802:25804   */\n      0x20\n        /* \"#utility.yul\":25794:25800   */\n      dup3\n        /* \"#utility.yul\":25790:25805   */\n      add\n        /* \"#utility.yul\":25783:25811   */\n      mstore\n        /* \"#utility.yul\":25598:25818   */\n      pop\n      jump\t// out\n        /* \"#utility.yul\":25824:26190   */\n    tag_269:\n        /* \"#utility.yul\":25966:25969   */\n      0x00\n        /* \"#utility.yul\":25987:26054   */\n      tag_520\n        /* \"#utility.yul\":26051:26053   */\n      0x21\n        /* \"#utility.yul\":26046:26049   */\n      dup4\n        /* \"#utility.yul\":25987:26054   */\n      tag_210\n      jump\t// in\n    tag_520:\n        /* \"#utility.yul\":25980:26054   */\n      swap2\n      pop\n        /* \"#utility.yul\":26063:26156   */\n      tag_521\n        /* \"#utility.yul\":26152:26155   */\n      dup3\n        /* \"#utility.yul\":26063:26156   */\n      tag_268\n      jump\t// in\n    tag_521:\n        /* \"#utility.yul\":26181:26183   */\n      0x40\n        /* \"#utility.yul\":26176:26179   */\n      dup3\n        /* \"#utility.yul\":26172:26184   */\n      add\n        /* \"#utility.yul\":26165:26184   */\n      swap1\n      pop\n        /* \"#utility.yul\":25824:26190   */\n      swap2\n      swap1\n      pop\n      jump\t// out\n        /* \"#utility.yul\":26196:26615   */\n    tag_54:\n        /* \"#utility.yul\":26362:26366   */\n      0x00\n        /* \"#utility.yul\":26400:26402   */\n      0x20\n        /* \"#utility.yul\":26389:26398   */\n      dup3\n        /* \"#utility.yul\":26385:26403   */\n      add\n        /* \"#utility.yul\":26377:26403   */\n      swap1\n      pop\n        /* \"#utility.yul\":26449:26458   */\n      dup2\n        /* \"#utility.yul\":26443:26447   */\n      dup2\n        /* \"#utility.yul\":26439:26459   */\n      sub\n        /* \"#utility.yul\":26435:26436   */\n      0x00\n        /* \"#utility.yul\":26424:26433   */\n      dup4\n        /* \"#utility.yul\":26420:26437   */\n      add\n        /* \"#utility.yul\":26413:26460   */\n      mstore\n        /* \"#utility.yul\":26477:26608   */\n      tag_523\n        /* \"#utility.yul\":26603:26607   */\n      dup2\n        /* \"#utility.yul\":26477:26608   */\n      tag_269\n      jump\t// in\n    tag_523:\n        /* \"#utility.yul\":26469:26608   */\n      swap1\n      pop\n        /* \"#utility.yul\":26196:26615   */\n      swap2\n      swap1\n      pop\n      jump\t// out\n        /* \"#utility.yul\":26621:26801   */\n    tag_270:\n        /* \"#utility.yul\":26669:26746   */\n      0x4e487b7100000000000000000000000000000000000000000000000000000000\n        /* \"#utility.yul\":26666:26667   */\n      0x00\n        /* \"#utility.yul\":26659:26747   */\n      mstore\n        /* \"#utility.yul\":26766:26770   */\n      0x22\n        /* \"#utility.yul\":26763:26764   */\n      0x04\n        /* \"#utility.yul\":26756:26771   */\n      mstore\n        /* \"#utility.yul\":26790:26794   */\n      0x24\n        /* \"#utility.yul\":26787:26788   */\n      0x00\n        /* \"#utility.yul\":26780:26795   */\n      revert\n        /* \"#utility.yul\":26807:27127   */\n    tag_67:\n        /* \"#utility.yul\":26851:26857   */\n      0x00\n        /* \"#utility.yul\":26888:26889   */\n      0x02\n        /* \"#utility.yul\":26882:26886   */\n      dup3\n        /* \"#utility.yul\":26878:26890   */\n      div\n        /* \"#utility.yul\":26868:26890   */\n      swap1\n      pop\n        /* \"#utility.yul\":26935:26936   */\n      0x01\n        /* \"#utility.yul\":26929:26933   */\n      dup3\n        /* \"#utility.yul\":26925:26937   */\n      and\n        /* \"#utility.yul\":26956:26974   */\n      dup1\n        /* \"#utility.yul\":26946:27027   */\n      tag_526\n      jumpi\n        /* \"#utility.yul\":27012:27016   */\n      0x7f\n        /* \"#utility.yul\":27004:27010   */\n      dup3\n        /* \"#utility.yul\":27000:27017   */\n      and\n        /* \"#utility.yul\":26990:27017   */\n      swap2\n      pop\n        /* \"#utility.yul\":26946:27027   */\n    tag_526:\n        /* \"#utility.yul\":27074:27076   */\n      0x20\n        /* \"#utility.yul\":27066:27072   */\n      dup3\n        /* \"#utility.yul\":27063:27077   */\n      lt\n        /* \"#utility.yul\":27043:27061   */\n      dup2\n        /* \"#utility.yul\":27040:27078   */\n      sub\n        /* \"#utility.yul\":27037:27121   */\n      tag_527\n      jumpi\n        /* \"#utility.yul\":27093:27111   */\n      tag_528\n      tag_270\n      jump\t// in\n    tag_528:\n        /* \"#utility.yul\":27037:27121   */\n    tag_527:\n        /* \"#utility.yul\":26858:27127   */\n      pop\n        /* \"#utility.yul\":26807:27127   */\n      swap2\n      swap1\n      pop\n      jump\t// out\n        /* \"#utility.yul\":27133:27274   */\n    tag_271:\n        /* \"#utility.yul\":27182:27186   */\n      0x00\n        /* \"#utility.yul\":27205:27208   */\n      dup2\n        /* \"#utility.yul\":27197:27208   */\n      swap1\n      pop\n        /* \"#utility.yul\":27228:27231   */\n      dup2\n        /* \"#utility.yul\":27225:27226   */\n      0x00\n        /* \"#utility.yul\":27218:27232   */\n      mstore\n        /* \"#utility.yul\":27262:27266   */\n      0x20\n        /* \"#utility.yul\":27259:27260   */\n      0x00\n        /* \"#utility.yul\":27249:27267   */\n      keccak256\n        /* \"#utility.yul\":27241:27267   */\n      swap1\n      pop\n        /* \"#utility.yul\":27133:27274   */\n      swap2\n      swap1\n      pop\n      jump\t// out\n        /* \"#utility.yul\":27280:27373   */\n    tag_272:\n        /* \"#utility.yul\":27317:27323   */\n      0x00\n        /* \"#utility.yul\":27364:27366   */\n      0x20\n        /* \"#utility.yul\":27359:27361   */\n      0x1f\n        /* \"#utility.yul\":27352:27357   */\n      dup4\n        /* \"#utility.yul\":27348:27362   */\n      add\n        /* \"#utility.yul\":27344:27367   */\n      div\n        /* \"#utility.yul\":27334:27367   */\n      swap1\n      pop\n        /* \"#utility.yul\":27280:27373   */\n      swap2\n      swap1\n      pop\n      jump\t// out\n        /* \"#utility.yul\":27379:27486   */\n    tag_273:\n        /* \"#utility.yul\":27423:27431   */\n      0x00\n        /* \"#utility.yul\":27473:27478   */\n      dup3\n        /* \"#utility.yul\":27467:27471   */\n      dup3\n        /* \"#utility.yul\":27463:27479   */\n      shl\n        /* \"#utility.yul\":27442:27479   */\n      swap1\n      pop\n        /* \"#utility.yul\":27379:27486   */\n      swap3\n      swap2\n      pop\n      pop\n      jump\t// out\n        /* \"#utility.yul\":27492:27885   */\n    tag_274:\n        /* \"#utility.yul\":27561:27567   */\n      0x00\n        /* \"#utility.yul\":27611:27612   */\n      0x08\n        /* \"#utility.yul\":27599:27609   */\n      dup4\n        /* \"#utility.yul\":27595:27613   */\n      mul\n        /* \"#utility.yul\":27634:27731   */\n      tag_533\n        /* \"#utility.yul\":27664:27730   */\n      0xffffffffffffffffffffffffffffffffffffffffffffffffffffffffffffffff\n        /* \"#utility.yul\":27653:27662   */\n      dup3\n        /* \"#utility.yul\":27634:27731   */\n      tag_273\n      jump\t// in\n    tag_533:\n        /* \"#utility.yul\":27752:27791   */\n      tag_534\n        /* \"#utility.yul\":27782:27790   */\n      dup7\n        /* \"#utility.yul\":27771:27780   */\n      dup4\n        /* \"#utility.yul\":27752:27791   */\n      tag_273\n      jump\t// in\n    tag_534:\n        /* \"#utility.yul\":27740:27791   */\n      swap6\n      pop\n        /* \"#utility.yul\":27824:27828   */\n      dup1\n        /* \"#utility.yul\":27820:27829   */\n      not\n        /* \"#utility.yul\":27813:27818   */\n      dup5\n        /* \"#utility.yul\":27809:27830   */\n      and\n        /* \"#utility.yul\":27800:27830   */\n      swap4\n      pop\n        /* \"#utility.yul\":27873:27877   */\n      dup1\n        /* \"#utility.yul\":27863:27871   */\n      dup7\n        /* \"#utility.yul\":27859:27878   */\n      and\n        /* \"#utility.yul\":27852:27857   */\n      dup5\n        /* \"#utility.yul\":27849:27879   */\n      or\n        /* \"#utility.yul\":27839:27879   */\n      swap3\n      pop\n        /* \"#utility.yul\":27568:27885   */\n      pop\n      pop\n        /* \"#utility.yul\":27492:27885   */\n      swap4\n      swap3\n      pop\n      pop\n      pop\n      jump\t// out\n        /* \"#utility.yul\":27891:27951   */\n    tag_275:\n        /* \"#utility.yul\":27919:27922   */\n      0x00\n        /* \"#utility.yul\":27940:27945   */\n      dup2\n        /* \"#utility.yul\":27933:27945   */\n      swap1\n      pop\n        /* \"#utility.yul\":27891:27951   */\n      swap2\n      swap1\n      pop\n      jump\t// out\n        /* \"#utility.yul\":27957:28099   */\n    tag_276:\n        /* \"#utility.yul\":28007:28016   */\n      0x00\n        /* \"#utility.yul\":28040:28093   */\n      tag_537\n        /* \"#utility.yul\":28058:28092   */\n      tag_538\n        /* \"#utility.yul\":28067:28091   */\n      tag_539\n        /* \"#utility.yul\":28085:28090   */\n      dup5\n        /* \"#utility.yul\":28067:28091   */\n      tag_193\n      jump\t// in\n    tag_539:\n        /* \"#utility.yul\":28058:28092   */\n      tag_275\n      jump\t// in\n    tag_538:\n        /* \"#utility.yul\":28040:28093   */\n      tag_193\n      jump\t// in\n    tag_537:\n        /* \"#utility.yul\":28027:28093   */\n      swap1\n      pop\n        /* \"#utility.yul\":27957:28099   */\n      swap2\n      swap1\n      pop\n      jump\t// out\n        /* \"#utility.yul\":28105:28180   */\n    tag_277:\n        /* \"#utility.yul\":28148:28151   */\n      0x00\n        /* \"#utility.yul\":28169:28174   */\n      dup2\n        /* \"#utility.yul\":28162:28174   */\n      swap1\n      pop\n        /* \"#utility.yul\":28105:28180   */\n      swap2\n      swap1\n      pop\n      jump\t// out\n        /* \"#utility.yul\":28186:28455   */\n    tag_278:\n        /* \"#utility.yul\":28296:28335   */\n      tag_542\n        /* \"#utility.yul\":28327:28334   */\n      dup4\n        /* \"#utility.yul\":28296:28335   */\n      tag_276\n      jump\t// in\n    tag_542:\n        /* \"#utility.yul\":28357:28448   */\n      tag_543\n        /* \"#utility.yul\":28406:28447   */\n      tag_544\n        /* \"#utility.yul\":28430:28446   */\n      dup3\n        /* \"#utility.yul\":28406:28447   */\n      tag_277\n      jump\t// in\n    tag_544:\n        /* \"#utility.yul\":28398:28404   */\n      dup5\n        /* \"#utility.yul\":28391:28395   */\n      dup5\n        /* \"#utility.yul\":28385:28396   */\n      sload\n        /* \"#utility.yul\":28357:28448   */\n      tag_274\n      jump\t// in\n    tag_543:\n        /* \"#utility.yul\":28351:28355   */\n      dup3\n        /* \"#utility.yul\":28344:28449   */\n      sstore\n        /* \"#utility.yul\":28262:28455   */\n      pop\n        /* \"#utility.yul\":28186:28455   */\n      pop\n      pop\n      pop\n      jump\t// out\n        /* \"#utility.yul\":28461:28534   */\n    tag_279:\n        /* \"#utility.yul\":28506:28509   */\n      0x00\n        /* \"#utility.yul\":28461:28534   */\n      swap1\n      jump\t// out\n        /* \"#utility.yul\":28540:28729   */\n    tag_280:\n        /* \"#utility.yul\":28617:28649   */\n      tag_547\n      tag_279\n      jump\t// in\n    tag_547:\n        /* \"#utility.yul\":28658:28723   */\n      tag_548\n        /* \"#utility.yul\":28716:28722   */\n      dup2\n        /* \"#utility.yul\":28708:28714   */\n      dup5\n        /* \"#utility.yul\":28702:28706   */\n      dup5\n        /* \"#utility.yul\":28658:28723   */\n      tag_278\n      jump\t// in\n    tag_548:\n        /* \"#utility.yul\":28593:28729   */\n      pop\n        /* \"#utility.yul\":28540:28729   */\n      pop\n      pop\n      jump\t// out\n        /* \"#utility.yul\":28735:28921   */\n    tag_281:\n        /* \"#utility.yul\":28795:28915   */\n    tag_550:\n        /* \"#utility.yul\":28812:28815   */\n      dup2\n        /* \"#utility.yul\":28805:28810   */\n      dup2\n        /* \"#utility.yul\":28802:28816   */\n      lt\n        /* \"#utility.yul\":28795:28915   */\n      iszero\n      tag_552\n      jumpi\n        /* \"#utility.yul\":28866:28905   */\n      tag_553\n        /* \"#utility.yul\":28903:28904   */\n      0x00\n        /* \"#utility.yul\":28896:28901   */\n      dup3\n        /* \"#utility.yul\":28866:28905   */\n      tag_280\n      jump\t// in\n    tag_553:\n        /* \"#utility.yul\":28839:28840   */\n      0x01\n        /* \"#utility.yul\":28832:28837   */\n      dup2\n        /* \"#utility.yul\":28828:28841   */\n      add\n        /* \"#utility.yul\":28819:28841   */\n      swap1\n      pop\n        /* \"#utility.yul\":28795:28915   */\n      jump(tag_550)\n    tag_552:\n        /* \"#utility.yul\":28735:28921   */\n      pop\n      pop\n      jump\t// out\n        /* \"#utility.yul\":28927:29470   */\n    tag_282:\n        /* \"#utility.yul\":29028:29030   */\n      0x1f\n        /* \"#utility.yul\":29023:29026   */\n      dup3\n        /* \"#utility.yul\":29020:29031   */\n      gt\n        /* \"#utility.yul\":29017:29463   */\n      iszero\n      tag_555\n      jumpi\n        /* \"#utility.yul\":29062:29100   */\n      tag_556\n        /* \"#utility.yul\":29094:29099   */\n      dup2\n        /* \"#utility.yul\":29062:29100   */\n      tag_271\n      jump\t// in\n    tag_556:\n        /* \"#utility.yul\":29146:29175   */\n      tag_557\n        /* \"#utility.yul\":29164:29174   */\n      dup5\n        /* \"#utility.yul\":29146:29175   */\n      tag_272\n      jump\t// in\n    tag_557:\n        /* \"#utility.yul\":29136:29144   */\n      dup2\n        /* \"#utility.yul\":29132:29176   */\n      add\n        /* \"#utility.yul\":29329:29331   */\n      0x20\n        /* \"#utility.yul\":29317:29327   */\n      dup6\n        /* \"#utility.yul\":29314:29332   */\n      lt\n        /* \"#utility.yul\":29311:29360   */\n      iszero\n      tag_558\n      jumpi\n        /* \"#utility.yul\":29350:29358   */\n      dup2\n        /* \"#utility.yul\":29335:29358   */\n      swap1\n      pop\n        /* \"#utility.yul\":29311:29360   */\n    tag_558:\n        /* \"#utility.yul\":29373:29453   */\n      tag_559\n        /* \"#utility.yul\":29429:29451   */\n      tag_560\n        /* \"#utility.yul\":29447:29450   */\n      dup6\n        /* \"#utility.yul\":29429:29451   */\n      tag_272\n      jump\t// in\n    tag_560:\n        /* \"#utility.yul\":29419:29427   */\n      dup4\n        /* \"#utility.yul\":29415:29452   */\n      add\n        /* \"#utility.yul\":29402:29413   */\n      dup3\n        /* \"#utility.yul\":29373:29453   */\n      tag_281\n      jump\t// in\n    tag_559:\n        /* \"#utility.yul\":29032:29463   */\n      pop\n      pop\n        /* \"#utility.yul\":29017:29463   */\n    tag_555:\n        /* \"#utility.yul\":28927:29470   */\n      pop\n      pop\n      pop\n      jump\t// out\n        /* \"#utility.yul\":29476:29593   */\n    tag_283:\n        /* \"#utility.yul\":29530:29538   */\n      0x00\n        /* \"#utility.yul\":29580:29585   */\n      dup3\n        /* \"#utility.yul\":29574:29578   */\n      dup3\n        /* \"#utility.yul\":29570:29586   */\n      shr\n        /* \"#utility.yul\":29549:29586   */\n      swap1\n      pop\n        /* \"#utility.yul\":29476:29593   */\n      swap3\n      swap2\n      pop\n      pop\n      jump\t// out\n        /* \"#utility.yul\":29599:29768   */\n    tag_284:\n        /* \"#utility.yul\":29643:29649   */\n      0x00\n        /* \"#utility.yul\":29676:29727   */\n      tag_563\n        /* \"#utility.yul\":29724:29725   */\n      0x00\n        /* \"#utility.yul\":29720:29726   */\n      not\n        /* \"#utility.yul\":29712:29717   */\n      dup5\n        /* \"#utility.yul\":29709:29710   */\n      0x08\n        /* \"#utility.yul\":29705:29718   */\n      mul\n        /* \"#utility.yul\":29676:29727   */\n      tag_283\n      jump\t// in\n    tag_563:\n        /* \"#utility.yul\":29672:29728   */\n      not\n        /* \"#utility.yul\":29757:29761   */\n      dup1\n        /* \"#utility.yul\":29751:29755   */\n      dup4\n        /* \"#utility.yul\":29747:29762   */\n      and\n        /* \"#utility.yul\":29737:29762   */\n      swap2\n      pop\n        /* \"#utility.yul\":29650:29768   */\n      pop\n        /* \"#utility.yul\":29599:29768   */\n      swap3\n      swap2\n      pop\n      pop\n      jump\t// out\n        /* \"#utility.yul\":29773:30068   */\n    tag_285:\n        /* \"#utility.yul\":29849:29853   */\n      0x00\n        /* \"#utility.yul\":29995:30024   */\n      tag_565\n        /* \"#utility.yul\":30020:30023   */\n      dup4\n        /* \"#utility.yul\":30014:30018   */\n      dup4\n        /* \"#utility.yul\":29995:30024   */\n      tag_284\n      jump\t// in\n    tag_565:\n        /* \"#utility.yul\":29987:30024   */\n      swap2\n      pop\n        /* \"#utility.yul\":30057:30060   */\n      dup3\n        /* \"#utility.yul\":30054:30055   */\n      0x02\n        /* \"#utility.yul\":30050:30061   */\n      mul\n        /* \"#utility.yul\":30044:30048   */\n      dup3\n        /* \"#utility.yul\":30041:30062   */\n      or\n        /* \"#utility.yul\":30033:30062   */\n      swap1\n      pop\n        /* \"#utility.yul\":29773:30068   */\n      swap3\n      swap2\n      pop\n      pop\n      jump\t// out\n        /* \"#utility.yul\":30073:31468   */\n    tag_57:\n        /* \"#utility.yul\":30190:30227   */\n      tag_567\n        /* \"#utility.yul\":30223:30226   */\n      dup3\n        /* \"#utility.yul\":30190:30227   */\n      tag_209\n      jump\t// in\n    tag_567:\n        /* \"#utility.yul\":30292:30310   */\n      0xffffffffffffffff\n        /* \"#utility.yul\":30284:30290   */\n      dup2\n        /* \"#utility.yul\":30281:30311   */\n      gt\n        /* \"#utility.yul\":30278:30334   */\n      iszero\n      tag_568\n      jumpi\n        /* \"#utility.yul\":30314:30332   */\n      tag_569\n      tag_74\n      jump\t// in\n    tag_569:\n        /* \"#utility.yul\":30278:30334   */\n    tag_568:\n        /* \"#utility.yul\":30358:30396   */\n      tag_570\n        /* \"#utility.yul\":30390:30394   */\n      dup3\n        /* \"#utility.yul\":30384:30395   */\n      sload\n        /* \"#utility.yul\":30358:30396   */\n      tag_67\n      jump\t// in\n    tag_570:\n        /* \"#utility.yul\":30443:30510   */\n      tag_571\n        /* \"#utility.yul\":30503:30509   */\n      dup3\n        /* \"#utility.yul\":30495:30501   */\n      dup3\n        /* \"#utility.yul\":30489:30493   */\n      dup6\n        /* \"#utility.yul\":30443:30510   */\n      tag_282\n      jump\t// in\n    tag_571:\n        /* \"#utility.yul\":30537:30538   */\n      0x00\n        /* \"#utility.yul\":30561:30565   */\n      0x20\n        /* \"#utility.yul\":30548:30565   */\n      swap1\n      pop\n        /* \"#utility.yul\":30593:30595   */\n      0x1f\n        /* \"#utility.yul\":30585:30591   */\n      dup4\n        /* \"#utility.yul\":30582:30596   */\n      gt\n        /* \"#utility.yul\":30610:30611   */\n      0x01\n        /* \"#utility.yul\":30605:31223   */\n      dup2\n      eq\n      tag_573\n      jumpi\n        /* \"#utility.yul\":31267:31268   */\n      0x00\n        /* \"#utility.yul\":31284:31290   */\n      dup5\n        /* \"#utility.yul\":31281:31358   */\n      iszero\n      tag_574\n      jumpi\n        /* \"#utility.yul\":31333:31342   */\n      dup3\n        /* \"#utility.yul\":31328:31331   */\n      dup8\n        /* \"#utility.yul\":31324:31343   */\n      add\n        /* \"#utility.yul\":31318:31344   */\n      mload\n        /* \"#utility.yul\":31309:31344   */\n      swap1\n      pop\n        /* \"#utility.yul\":31281:31358   */\n    tag_574:\n        /* \"#utility.yul\":31384:31451   */\n      tag_575\n        /* \"#utility.yul\":31444:31450   */\n      dup6\n        /* \"#utility.yul\":31437:31442   */\n      dup3\n        /* \"#utility.yul\":31384:31451   */\n      tag_285\n      jump\t// in\n    tag_575:\n        /* \"#utility.yul\":31378:31382   */\n      dup7\n        /* \"#utility.yul\":31371:31452   */\n      sstore\n        /* \"#utility.yul\":31240:31462   */\n      pop\n        /* \"#utility.yul\":30575:31462   */\n      jump(tag_572)\n        /* \"#utility.yul\":30605:31223   */\n    tag_573:\n        /* \"#utility.yul\":30657:30661   */\n      0x1f\n        /* \"#utility.yul\":30653:30662   */\n      not\n        /* \"#utility.yul\":30645:30651   */\n      dup5\n        /* \"#utility.yul\":30641:30663   */\n      and\n        /* \"#utility.yul\":30691:30728   */\n      tag_576\n        /* \"#utility.yul\":30723:30727   */\n      dup7\n        /* \"#utility.yul\":30691:30728   */\n      tag_271\n      jump\t// in\n    tag_576:\n        /* \"#utility.yul\":30750:30751   */\n      0x00\n        /* \"#utility.yul\":30764:30972   */\n    tag_577:\n        /* \"#utility.yul\":30778:30785   */\n      dup3\n        /* \"#utility.yul\":30775:30776   */\n      dup2\n        /* \"#utility.yul\":30772:30786   */\n      lt\n        /* \"#utility.yul\":30764:30972   */\n      iszero\n      tag_579\n      jumpi\n        /* \"#utility.yul\":30857:30866   */\n      dup5\n        /* \"#utility.yul\":30852:30855   */\n      dup10\n        /* \"#utility.yul\":30848:30867   */\n      add\n        /* \"#utility.yul\":30842:30868   */\n      mload\n        /* \"#utility.yul\":30834:30840   */\n      dup3\n        /* \"#utility.yul\":30827:30869   */\n      sstore\n        /* \"#utility.yul\":30908:30909   */\n      0x01\n        /* \"#utility.yul\":30900:30906   */\n      dup3\n        /* \"#utility.yul\":30896:30910   */\n      add\n        /* \"#utility.yul\":30886:30910   */\n      swap2\n      pop\n        /* \"#utility.yul\":30955:30957   */\n      0x20\n        /* \"#utility.yul\":30944:30953   */\n      dup6\n        /* \"#utility.yul\":30940:30958   */\n      add\n        /* \"#utility.yul\":30927:30958   */\n      swap5\n      pop\n        /* \"#utility.yul\":30801:30805   */\n      0x20\n        /* \"#utility.yul\":30798:30799   */\n      dup2\n        /* \"#utility.yul\":30794:30806   */\n      add\n        /* \"#utility.yul\":30789:30806   */\n      swap1\n      pop\n        /* \"#utility.yul\":30764:30972   */\n      jump(tag_577)\n    tag_579:\n        /* \"#utility.yul\":31000:31006   */\n      dup7\n        /* \"#utility.yul\":30991:30998   */\n      dup4\n        /* \"#utility.yul\":30988:31007   */\n      lt\n        /* \"#utility.yul\":30985:31164   */\n      iszero\n      tag_580\n      jumpi\n        /* \"#utility.yul\":31058:31067   */\n      dup5\n        /* \"#utility.yul\":31053:31056   */\n      dup10\n        /* \"#utility.yul\":31049:31068   */\n      add\n        /* \"#utility.yul\":31043:31069   */\n      mload\n        /* \"#utility.yul\":31101:31149   */\n      tag_581\n        /* \"#utility.yul\":31143:31147   */\n      0x1f\n        /* \"#utility.yul\":31135:31141   */\n      dup10\n        /* \"#utility.yul\":31131:31148   */\n      and\n        /* \"#utility.yul\":31120:31129   */\n      dup3\n        /* \"#utility.yul\":31101:31149   */\n      tag_284\n      jump\t// in\n    tag_581:\n        /* \"#utility.yul\":31093:31099   */\n      dup4\n        /* \"#utility.yul\":31086:31150   */\n      sstore\n        /* \"#utility.yul\":31008:31164   */\n      pop\n        /* \"#utility.yul\":30985:31164   */\n    tag_580:\n        /* \"#utility.yul\":31210:31211   */\n      0x01\n        /* \"#utility.yul\":31206:31207   */\n      0x02\n        /* \"#utility.yul\":31198:31204   */\n      dup9\n        /* \"#utility.yul\":31194:31208   */\n      mul\n        /* \"#utility.yul\":31190:31212   */\n      add\n        /* \"#utility.yul\":31184:31188   */\n      dup9\n        /* \"#utility.yul\":31177:31213   */\n      sstore\n        /* \"#utility.yul\":30612:31223   */\n      pop\n      pop\n      pop\n        /* \"#utility.yul\":30575:31462   */\n    tag_572:\n      pop\n        /* \"#utility.yul\":30165:31468   */\n      pop\n      pop\n      pop\n        /* \"#utility.yul\":30073:31468   */\n      pop\n      pop\n      jump\t// out\n        /* \"#utility.yul\":31474:31654   */\n    tag_286:\n        /* \"#utility.yul\":31522:31599   */\n      0x4e487b7100000000000000000000000000000000000000000000000000000000\n        /* \"#utility.yul\":31519:31520   */\n      0x00\n        /* \"#utility.yul\":31512:31600   */\n      mstore\n        /* \"#utility.yul\":31619:31623   */\n      0x11\n        /* \"#utility.yul\":31616:31617   */\n      0x04\n        /* \"#utility.yul\":31609:31624   */\n      mstore\n        /* \"#utility.yul\":31643:31647   */\n      0x24\n        /* \"#utility.yul\":31640:31641   */\n      0x00\n        /* \"#utility.yul\":31633:31648   */\n      revert\n        /* \"#utility.yul\":31660:31854   */\n    tag_102:\n        /* \"#utility.yul\":31700:31704   */\n      0x00\n        /* \"#utility.yul\":31720:31740   */\n      tag_584\n        /* \"#utility.yul\":31738:31739   */\n      dup3\n        /* \"#utility.yul\":31720:31740   */\n      tag_193\n      jump\t// in\n    tag_584:\n        /* \"#utility.yul\":31715:31740   */\n      swap2\n      pop\n        /* \"#utility.yul\":31754:31774   */\n      tag_585\n        /* \"#utility.yul\":31772:31773   */\n      dup4\n        /* \"#utility.yul\":31754:31774   */\n      tag_193\n      jump\t// in\n    tag_585:\n        /* \"#utility.yul\":31749:31774   */\n      swap3\n      pop\n        /* \"#utility.yul\":31798:31799   */\n      dup3\n        /* \"#utility.yul\":31795:31796   */\n      dup3\n        /* \"#utility.yul\":31791:31800   */\n      sub\n        /* \"#utility.yul\":31783:31800   */\n      swap1\n      pop\n        /* \"#utility.yul\":31822:31823   */\n      dup2\n        /* \"#utility.yul\":31816:31820   */\n      dup2\n        /* \"#utility.yul\":31813:31824   */\n      gt\n        /* \"#utility.yul\":31810:31847   */\n      iszero\n      tag_586\n      jumpi\n        /* \"#utility.yul\":31827:31845   */\n      tag_587\n      tag_286\n      jump\t// in\n    tag_587:\n        /* \"#utility.yul\":31810:31847   */\n    tag_586:\n        /* \"#utility.yul\":31660:31854   */\n      swap3\n      swap2\n      pop\n      pop\n      jump\t// out\n        /* \"#utility.yul\":31860:32393   */\n    tag_104:\n        /* \"#utility.yul\":32029:32033   */\n      0x00\n        /* \"#utility.yul\":32067:32069   */\n      0x60\n        /* \"#utility.yul\":32056:32065   */\n      dup3\n        /* \"#utility.yul\":32052:32070   */\n      add\n        /* \"#utility.yul\":32044:32070   */\n      swap1\n      pop\n        /* \"#utility.yul\":32080:32151   */\n      tag_589\n        /* \"#utility.yul\":32148:32149   */\n      0x00\n        /* \"#utility.yul\":32137:32146   */\n      dup4\n        /* \"#utility.yul\":32133:32150   */\n      add\n        /* \"#utility.yul\":32124:32130   */\n      dup7\n        /* \"#utility.yul\":32080:32151   */\n      tag_194\n      jump\t// in\n    tag_589:\n        /* \"#utility.yul\":32198:32207   */\n      dup2\n        /* \"#utility.yul\":32192:32196   */\n      dup2\n        /* \"#utility.yul\":32188:32208   */\n      sub\n        /* \"#utility.yul\":32183:32185   */\n      0x20\n        /* \"#utility.yul\":32172:32181   */\n      dup4\n        /* \"#utility.yul\":32168:32186   */\n      add\n        /* \"#utility.yul\":32161:32209   */\n      mstore\n        /* \"#utility.yul\":32226:32304   */\n      tag_590\n        /* \"#utility.yul\":32299:32303   */\n      dup2\n        /* \"#utility.yul\":32290:32296   */\n      dup6\n        /* \"#utility.yul\":32226:32304   */\n      tag_212\n      jump\t// in\n    tag_590:\n        /* \"#utility.yul\":32218:32304   */\n      swap1\n      pop\n        /* \"#utility.yul\":32314:32386   */\n      tag_591\n        /* \"#utility.yul\":32382:32384   */\n      0x40\n        /* \"#utility.yul\":32371:32380   */\n      dup4\n        /* \"#utility.yul\":32367:32385   */\n      add\n        /* \"#utility.yul\":32358:32364   */\n      dup5\n        /* \"#utility.yul\":32314:32386   */\n      tag_215\n      jump\t// in\n    tag_591:\n        /* \"#utility.yul\":31860:32393   */\n      swap5\n      swap4\n      pop\n      pop\n      pop\n      pop\n      jump\t// out\n        /* \"#utility.yul\":32399:32567   */\n    tag_287:\n        /* \"#utility.yul\":32539:32559   */\n      0x506f6c6c206973206e6f74206163746976650000000000000000000000000000\n        /* \"#utility.yul\":32535:32536   */\n      0x00\n        /* \"#utility.yul\":32527:32533   */\n      dup3\n        /* \"#utility.yul\":32523:32537   */\n      add\n        /* \"#utility.yul\":32516:32560   */\n      mstore\n        /* \"#utility.yul\":32399:32567   */\n      pop\n      jump\t// out\n        /* \"#utility.yul\":32573:32939   */\n    tag_288:\n        /* \"#utility.yul\":32715:32718   */\n      0x00\n        /* \"#utility.yul\":32736:32803   */\n      tag_594\n        /* \"#utility.yul\":32800:32802   */\n      0x12\n        /* \"#utility.yul\":32795:32798   */\n      dup4\n        /* \"#utility.yul\":32736:32803   */\n      tag_210\n      jump\t// in\n    tag_594:\n        /* \"#utility.yul\":32729:32803   */\n      swap2\n      pop\n        /* \"#utility.yul\":32812:32905   */\n      tag_595\n        /* \"#utility.yul\":32901:32904   */\n      dup3\n        /* \"#utility.yul\":32812:32905   */\n      tag_287\n      jump\t// in\n    tag_595:\n        /* \"#utility.yul\":32930:32932   */\n      0x20\n        /* \"#utility.yul\":32925:32928   */\n      dup3\n        /* \"#utility.yul\":32921:32933   */\n      add\n        /* \"#utility.yul\":32914:32933   */\n      swap1\n      pop\n        /* \"#utility.yul\":32573:32939   */\n      swap2\n      swap1\n      pop\n      jump\t// out\n        /* \"#utility.yul\":32945:33364   */\n    tag_180:\n        /* \"#utility.yul\":33111:33115   */\n      0x00\n        /* \"#utility.yul\":33149:33151   */\n      0x20\n        /* \"#utility.yul\":33138:33147   */\n      dup3\n        /* \"#utility.yul\":33134:33152   */\n      add\n        /* \"#utility.yul\":33126:33152   */\n      swap1\n      pop\n        /* \"#utility.yul\":33198:33207   */\n      dup2\n        /* \"#utility.yul\":33192:33196   */\n      dup2\n        /* \"#utility.yul\":33188:33208   */\n      sub\n        /* \"#utility.yul\":33184:33185   */\n      0x00\n        /* \"#utility.yul\":33173:33182   */\n      dup4\n        /* \"#utility.yul\":33169:33186   */\n      add\n        /* \"#utility.yul\":33162:33209   */\n      mstore\n        /* \"#utility.yul\":33226:33357   */\n      tag_597\n        /* \"#utility.yul\":33352:33356   */\n      dup2\n        /* \"#utility.yul\":33226:33357   */\n      tag_288\n      jump\t// in\n    tag_597:\n        /* \"#utility.yul\":33218:33357   */\n      swap1\n      pop\n        /* \"#utility.yul\":32945:33364   */\n      swap2\n      swap1\n      pop\n      jump\t// out\n        /* \"#utility.yul\":33370:33542   */\n    tag_289:\n        /* \"#utility.yul\":33510:33534   */\n      0x596f75206861766520616c726561647920766f74656400000000000000000000\n        /* \"#utility.yul\":33506:33507   */\n      0x00\n        /* \"#utility.yul\":33498:33504   */\n      dup3\n        /* \"#utility.yul\":33494:33508   */\n      add\n        /* \"#utility.yul\":33487:33535   */\n      mstore\n        /* \"#utility.yul\":33370:33542   */\n      pop\n      jump\t// out\n        /* \"#utility.yul\":33548:33914   */\n    tag_290:\n        /* \"#utility.yul\":33690:33693   */\n      0x00\n        /* \"#utility.yul\":33711:33778   */\n      tag_600\n        /* \"#utility.yul\":33775:33777   */\n      0x16\n        /* \"#utility.yul\":33770:33773   */\n      dup4\n        /* \"#utility.yul\":33711:33778   */\n      tag_210\n      jump\t// in\n    tag_600:\n        /* \"#utility.yul\":33704:33778   */\n      swap2\n      pop\n        /* \"#utility.yul\":33787:33880   */\n      tag_601\n        /* \"#utility.yul\":33876:33879   */\n      dup3\n        /* \"#utility.yul\":33787:33880   */\n      tag_289\n      jump\t// in\n    tag_601:\n        /* \"#utility.yul\":33905:33907   */\n      0x20\n        /* \"#utility.yul\":33900:33903   */\n      dup3\n        /* \"#utility.yul\":33896:33908   */\n      add\n        /* \"#utility.yul\":33889:33908   */\n      swap1\n      pop\n        /* \"#utility.yul\":33548:33914   */\n      swap2\n      swap1\n      pop\n      jump\t// out\n        /* \"#utility.yul\":33920:34339   */\n    tag_183:\n        /* \"#utility.yul\":34086:34090   */\n      0x00\n        /* \"#utility.yul\":34124:34126   */\n      0x20\n        /* \"#utility.yul\":34113:34122   */\n      dup3\n        /* \"#utility.yul\":34109:34127   */\n      add\n        /* \"#utility.yul\":34101:34127   */\n      swap1\n      pop\n        /* \"#utility.yul\":34173:34182   */\n      dup2\n        /* \"#utility.yul\":34167:34171   */\n      dup2\n        /* \"#utility.yul\":34163:34183   */\n      sub\n        /* \"#utility.yul\":34159:34160   */\n      0x00\n        /* \"#utility.yul\":34148:34157   */\n      dup4\n        /* \"#utility.yul\":34144:34161   */\n      add\n        /* \"#utility.yul\":34137:34184   */\n      mstore\n        /* \"#utility.yul\":34201:34332   */\n      tag_603\n        /* \"#utility.yul\":34327:34331   */\n      dup2\n        /* \"#utility.yul\":34201:34332   */\n      tag_290\n      jump\t// in\n    tag_603:\n        /* \"#utility.yul\":34193:34332   */\n      swap1\n      pop\n        /* \"#utility.yul\":33920:34339   */\n      swap2\n      swap1\n      pop\n      jump\t// out\n        /* \"#utility.yul\":34345:34518   */\n    tag_291:\n        /* \"#utility.yul\":34485:34510   */\n      0x496e76616c69642063616e64696461746520696e646578000000000000000000\n        /* \"#utility.yul\":34481:34482   */\n      0x00\n        /* \"#utility.yul\":34473:34479   */\n      dup3\n        /* \"#utility.yul\":34469:34483   */\n      add\n        /* \"#utility.yul\":34462:34511   */\n      mstore\n        /* \"#utility.yul\":34345:34518   */\n      pop\n      jump\t// out\n        /* \"#utility.yul\":34524:34890   */\n    tag_292:\n        /* \"#utility.yul\":34666:34669   */\n      0x00\n        /* \"#utility.yul\":34687:34754   */\n      tag_606\n        /* \"#utility.yul\":34751:34753   */\n      0x17\n        /* \"#utility.yul\":34746:34749   */\n      dup4\n        /* \"#utility.yul\":34687:34754   */\n      tag_210\n      jump\t// in\n    tag_606:\n        /* \"#utility.yul\":34680:34754   */\n      swap2\n      pop\n        /* \"#utility.yul\":34763:34856   */\n      tag_607\n        /* \"#utility.yul\":34852:34855   */\n      dup3\n        /* \"#utility.yul\":34763:34856   */\n      tag_291\n      jump\t// in\n    tag_607:\n        /* \"#utility.yul\":34881:34883   */\n      0x20\n        /* \"#utility.yul\":34876:34879   */\n      dup3\n        /* \"#utility.yul\":34872:34884   */\n      add\n        /* \"#utility.yul\":34865:34884   */\n      swap1\n      pop\n        /* \"#utility.yul\":34524:34890   */\n      swap2\n      swap1\n      pop\n      jump\t// out\n        /* \"#utility.yul\":34896:35315   */\n    tag_186:\n        /* \"#utility.yul\":35062:35066   */\n      0x00\n        /* \"#utility.yul\":35100:35102   */\n      0x20\n        /* \"#utility.yul\":35089:35098   */\n      dup3\n        /* \"#utility.yul\":35085:35103   */\n      add\n        /* \"#utility.yul\":35077:35103   */\n      swap1\n      pop\n        /* \"#utility.yul\":35149:35158   */\n      dup2\n        /* \"#utility.yul\":35143:35147   */\n      dup2\n        /* \"#utility.yul\":35139:35159   */\n      sub\n        /* \"#utility.yul\":35135:35136   */\n      0x00\n        /* \"#utility.yul\":35124:35133   */\n      dup4\n        /* \"#utility.yul\":35120:35137   */\n      add\n        /* \"#utility.yul\":35113:35160   */\n      mstore\n        /* \"#utility.yul\":35177:35308   */\n      tag_609\n        /* \"#utility.yul\":35303:35307   */\n      dup2\n        /* \"#utility.yul\":35177:35308   */\n      tag_292\n      jump\t// in\n    tag_609:\n        /* \"#utility.yul\":35169:35308   */\n      swap1\n      pop\n        /* \"#utility.yul\":34896:35315   */\n      swap2\n      swap1\n      pop\n      jump\t// out\n        /* \"#utility.yul\":35321:35554   */\n    tag_191:\n        /* \"#utility.yul\":35360:35363   */\n      0x00\n        /* \"#utility.yul\":35383:35407   */\n      tag_611\n        /* \"#utility.yul\":35401:35406   */\n      dup3\n        /* \"#utility.yul\":35383:35407   */\n      tag_193\n      jump\t// in\n    tag_611:\n        /* \"#utility.yul\":35374:35407   */\n      swap2\n      pop\n        /* \"#utility.yul\":35429:35495   */\n      0xffffffffffffffffffffffffffffffffffffffffffffffffffffffffffffffff\n        /* \"#utility.yul\":35422:35427   */\n      dup3\n        /* \"#utility.yul\":35419:35496   */\n      sub\n        /* \"#utility.yul\":35416:35519   */\n      tag_612\n      jumpi\n        /* \"#utility.yul\":35499:35517   */\n      tag_613\n      tag_286\n      jump\t// in\n    tag_613:\n        /* \"#utility.yul\":35416:35519   */\n    tag_612:\n        /* \"#utility.yul\":35546:35547   */\n      0x01\n        /* \"#utility.yul\":35539:35544   */\n      dup3\n        /* \"#utility.yul\":35535:35548   */\n      add\n        /* \"#utility.yul\":35528:35548   */\n      swap1\n      pop\n        /* \"#utility.yul\":35321:35554   */\n      swap2\n      swap1\n      pop\n      jump\t// out\n\n    auxdata: 0xa26469706673582212203cd49d8e7d0f7dfa9b82eaf0fa7187f21f40d1cc74022ed737a44c728d5f086b64736f6c634300081a0033\n}\n",
				"bytecode": {
					"linkReferences": {},
					"object": "6080604052348015600e575f80fd5b50611f7f8061001c5f395ff3fe608060405234801561000f575f80fd5b5060043610610086575f3560e01c806374a9ced91161005957806374a9ced9146101145780639844f21514610130578063ac2f007414610152578063b384abef1461018457610086565b806311a527461461008a5780631750a3d0146100a85780631f35b51d146100c457806333b4097b146100e0575b5f80fd5b6100926101a0565b60405161009f9190610f42565b60405180910390f35b6100c260048036038101906100bd91906110d2565b6101ab565b005b6100de60048036038101906100d9919061112c565b6102c2565b005b6100fa60048036038101906100f5919061112c565b610304565b60405161010b9594939291906113ca565b60405180910390f35b61012e60048036038101906101299190611430565b6105d3565b005b6101386106b2565b6040516101499594939291906118bc565b60405180910390f35b61016c6004803603810190610167919061112c565b610c00565b60405161017b93929190611930565b60405180910390f35b61019e6004803603810190610199919061196c565b610ce6565b005b5f8080549050905090565b5f8083815481106101bf576101be6119aa565b5b905f5260205f2090600502019050806003015f9054906101000a900473ffffffffffffffffffffffffffffffffffffffff1673ffffffffffffffffffffffffffffffffffffffff163373ffffffffffffffffffffffffffffffffffffffff161461025e576040517f08c379a000000000000000000000000000000000000000000000000000000000815260040161025590611a47565b60405180910390fd5b8060010160405180604001604052808481526020015f815250908060018154018082558091505060019003905f5260205f2090600202015f909190919091505f820151815f0190816102b09190611c5f565b50602082015181600101555050505050565b5f8082815481106102d6576102d56119aa565b5b905f5260205f20906005020190505f8160030160146101000a81548160ff0219169083151502179055505050565b60605f806060805f80878154811061031f5761031e6119aa565b5b905f5260205f2090600502019050805f01805461033b90611a92565b80601f016020809104026020016040519081016040528092919081815260200182805461036790611a92565b80156103b25780601f10610389576101008083540402835291602001916103b2565b820191905f5260205f20905b81548152906001019060200180831161039557829003601f168201915b50505050509550806003015f9054906101000a900473ffffffffffffffffffffffffffffffffffffffff1694508060030160149054906101000a900460ff169350806001018054905067ffffffffffffffff81111561041457610413610fae565b5b60405190808252806020026020018201604052801561044757816020015b60608152602001906001900390816104325790505b509250806001018054905067ffffffffffffffff81111561046b5761046a610fae565b5b6040519080825280602002602001820160405280156104995781602001602082028036833780820191505090505b5091505f5b81600101805490508110156105c8578160010181815481106104c3576104c26119aa565b5b905f5260205f2090600202015f0180546104dc90611a92565b80601f016020809104026020016040519081016040528092919081815260200182805461050890611a92565b80156105535780601f1061052a57610100808354040283529160200191610553565b820191905f5260205f20905b81548152906001019060200180831161053657829003601f168201915b505050505084828151811061056b5761056a6119aa565b5b602002602001018190525081600101818154811061058c5761058b6119aa565b5b905f5260205f209060020201600101548382815181106105af576105ae6119aa565b5b602002602001018181525050808060010191505061049e565b505091939590929450565b5f8060018160018154018082558091505003905f5260205f209060050201905081815f0190816106039190611c5f565b5033816003015f6101000a81548173ffffffffffffffffffffffffffffffffffffffff021916908373ffffffffffffffffffffffffffffffffffffffff16021790555060018160030160146101000a81548160ff0219169083151502179055507fdcf7bcca1f330627a2b8cf6826aa79cefcda862ee183dabacd90516b6cd1844360015f805490506106959190611d5b565b83336040516106a693929190611d8e565b60405180910390a15050565b60608060608060605f808054905090508067ffffffffffffffff8111156106dc576106db610fae565b5b60405190808252806020026020018201604052801561070f57816020015b60608152602001906001900390816106fa5790505b5095508067ffffffffffffffff81111561072c5761072b610fae565b5b60405190808252806020026020018201604052801561075a5781602001602082028036833780820191505090505b5094508067ffffffffffffffff81111561077757610776610fae565b5b6040519080825280602002602001820160405280156107a55781602001602082028036833780820191505090505b5093508067ffffffffffffffff8111156107c2576107c1610fae565b5b6040519080825280602002602001820160405280156107f557816020015b60608152602001906001900390816107e05790505b5092508067ffffffffffffffff81111561081257610811610fae565b5b60405190808252806020026020018201604052801561084557816020015b60608152602001906001900390816108305790505b5091505f5b81811015610bf7575f8181548110610865576108646119aa565b5b905f5260205f2090600502015f01805461087e90611a92565b80601f01602080910402602001604051908101604052809291908181526020018280546108aa90611a92565b80156108f55780601f106108cc576101008083540402835291602001916108f5565b820191905f5260205f20905b8154815290600101906020018083116108d857829003601f168201915b505050505087828151811061090d5761090c6119aa565b5b60200260200101819052505f818154811061092b5761092a6119aa565b5b905f5260205f2090600502016003015f9054906101000a900473ffffffffffffffffffffffffffffffffffffffff1686828151811061096d5761096c6119aa565b5b602002602001019073ffffffffffffffffffffffffffffffffffffffff16908173ffffffffffffffffffffffffffffffffffffffff16815250505f81815481106109ba576109b96119aa565b5b905f5260205f20906005020160030160149054906101000a900460ff168582815181106109ea576109e96119aa565b5b6020026020010190151590811515815250505f8181548110610a0f57610a0e6119aa565b5b905f5260205f209060050201600101805480602002602001604051908101604052809291908181526020015f905b82821015610b06578382905f5260205f2090600202016040518060400160405290815f82018054610a6d90611a92565b80601f0160208091040260200160405190810160405280929190818152602001828054610a9990611a92565b8015610ae45780601f10610abb57610100808354040283529160200191610ae4565b820191905f5260205f20905b815481529060010190602001808311610ac757829003601f168201915b5050505050815260200160018201548152505081526020019060010190610a3d565b50505050848281518110610b1d57610b1c6119aa565b5b60200260200101819052505f8181548110610b3b57610b3a6119aa565b5b905f5260205f209060050201600401805480602002602001604051908101604052809291908181526020018280548015610bc757602002820191905f5260205f20905b815f9054906101000a900473ffffffffffffffffffffffffffffffffffffffff1673ffffffffffffffffffffffffffffffffffffffff1681526020019060010190808311610b7e575b5050505050838281518110610bdf57610bde6119aa565b5b6020026020010181905250808060010191505061084a565b50509091929394565b5f8181548110610c0e575f80fd5b905f5260205f2090600502015f91509050805f018054610c2d90611a92565b80601f0160208091040260200160405190810160405280929190818152602001828054610c5990611a92565b8015610ca45780601f10610c7b57610100808354040283529160200191610ca4565b820191905f5260205f20905b815481529060010190602001808311610c8757829003601f168201915b505050505090806003015f9054906101000a900473ffffffffffffffffffffffffffffffffffffffff16908060030160149054906101000a900460ff16905083565b5f808381548110610cfa57610cf96119aa565b5b905f5260205f20906005020190508060030160149054906101000a900460ff16610d59576040517f08c379a0000000000000000000000000000000000000000000000000000000008152600401610d5090611e14565b60405180910390fd5b806002015f3373ffffffffffffffffffffffffffffffffffffffff1673ffffffffffffffffffffffffffffffffffffffff1681526020019081526020015f205f015f9054906101000a900460ff1615610de7576040517f08c379a0000000000000000000000000000000000000000000000000000000008152600401610dde90611e7c565b60405180910390fd5b80600101805490508210610e30576040517f08c379a0000000000000000000000000000000000000000000000000000000008152600401610e2790611ee4565b60405180910390fd5b6001816002015f3373ffffffffffffffffffffffffffffffffffffffff1673ffffffffffffffffffffffffffffffffffffffff1681526020019081526020015f205f015f6101000a81548160ff021916908315150217905550806001018281548110610e9f57610e9e6119aa565b5b905f5260205f2090600202016001015f815480929190610ebe90611f02565b91905055508060040133908060018154018082558091505060019003905f5260205f20015f9091909190916101000a81548173ffffffffffffffffffffffffffffffffffffffff021916908373ffffffffffffffffffffffffffffffffffffffff160217905550505050565b5f819050919050565b610f3c81610f2a565b82525050565b5f602082019050610f555f830184610f33565b92915050565b5f604051905090565b5f80fd5b5f80fd5b610f7581610f2a565b8114610f7f575f80fd5b50565b5f81359050610f9081610f6c565b92915050565b5f80fd5b5f80fd5b5f601f19601f8301169050919050565b7f4e487b71000000000000000000000000000000000000000000000000000000005f52604160045260245ffd5b610fe482610f9e565b810181811067ffffffffffffffff8211171561100357611002610fae565b5b80604052505050565b5f611015610f5b565b90506110218282610fdb565b919050565b5f67ffffffffffffffff8211156110405761103f610fae565b5b61104982610f9e565b9050602081019050919050565b828183375f83830152505050565b5f61107661107184611026565b61100c565b90508281526020810184848401111561109257611091610f9a565b5b61109d848285611056565b509392505050565b5f82601f8301126110b9576110b8610f96565b5b81356110c9848260208601611064565b91505092915050565b5f80604083850312156110e8576110e7610f64565b5b5f6110f585828601610f82565b925050602083013567ffffffffffffffff81111561111657611115610f68565b5b611122858286016110a5565b9150509250929050565b5f6020828403121561114157611140610f64565b5b5f61114e84828501610f82565b91505092915050565b5f81519050919050565b5f82825260208201905092915050565b8281835e5f83830152505050565b5f61118982611157565b6111938185611161565b93506111a3818560208601611171565b6111ac81610f9e565b840191505092915050565b5f73ffffffffffffffffffffffffffffffffffffffff82169050919050565b5f6111e0826111b7565b9050919050565b6111f0816111d6565b82525050565b5f8115159050919050565b61120a816111f6565b82525050565b5f81519050919050565b5f82825260208201905092915050565b5f819050602082019050919050565b5f82825260208201905092915050565b5f61125382611157565b61125d8185611239565b935061126d818560208601611171565b61127681610f9e565b840191505092915050565b5f61128c8383611249565b905092915050565b5f602082019050919050565b5f6112aa82611210565b6112b4818561121a565b9350836020820285016112c68561122a565b805f5b8581101561130157848403895281516112e28582611281565b94506112ed83611294565b925060208a019950506001810190506112c9565b50829750879550505050505092915050565b5f81519050919050565b5f82825260208201905092915050565b5f819050602082019050919050565b61134581610f2a565b82525050565b5f611356838361133c565b60208301905092915050565b5f602082019050919050565b5f61137882611313565b611382818561131d565b935061138d8361132d565b805f5b838110156113bd5781516113a4888261134b565b97506113af83611362565b925050600181019050611390565b5085935050505092915050565b5f60a0820190508181035f8301526113e2818861117f565b90506113f160208301876111e7565b6113fe6040830186611201565b818103606083015261141081856112a0565b90508181036080830152611424818461136e565b90509695505050505050565b5f6020828403121561144557611444610f64565b5b5f82013567ffffffffffffffff81111561146257611461610f68565b5b61146e848285016110a5565b91505092915050565b5f81519050919050565b5f82825260208201905092915050565b5f819050602082019050919050565b6114a9816111d6565b82525050565b5f6114ba83836114a0565b60208301905092915050565b5f602082019050919050565b5f6114dc82611477565b6114e68185611481565b93506114f183611491565b805f5b8381101561152157815161150888826114af565b9750611513836114c6565b9250506001810190506114f4565b5085935050505092915050565b5f81519050919050565b5f82825260208201905092915050565b5f819050602082019050919050565b611560816111f6565b82525050565b5f6115718383611557565b60208301905092915050565b5f602082019050919050565b5f6115938261152e565b61159d8185611538565b93506115a883611548565b805f5b838110156115d85781516115bf8882611566565b97506115ca8361157d565b9250506001810190506115ab565b5085935050505092915050565b5f81519050919050565b5f82825260208201905092915050565b5f819050602082019050919050565b5f81519050919050565b5f82825260208201905092915050565b5f819050602082019050919050565b5f604083015f8301518482035f8601526116518282611249565b9150506020830151611666602086018261133c565b508091505092915050565b5f61167c8383611637565b905092915050565b5f602082019050919050565b5f61169a8261160e565b6116a48185611618565b9350836020820285016116b685611628565b805f5b858110156116f157848403895281516116d28582611671565b94506116dd83611684565b925060208a019950506001810190506116b9565b50829750879550505050505092915050565b5f61170e8383611690565b905092915050565b5f602082019050919050565b5f61172c826115e5565b61173681856115ef565b935083602082028501611748856115ff565b805f5b8581101561178357848403895281516117648582611703565b945061176f83611716565b925060208a0199505060018101905061174b565b50829750879550505050505092915050565b5f81519050919050565b5f82825260208201905092915050565b5f819050602082019050919050565b5f82825260208201905092915050565b5f6117d882611477565b6117e281856117be565b93506117ed83611491565b805f5b8381101561181d57815161180488826114af565b975061180f836114c6565b9250506001810190506117f0565b5085935050505092915050565b5f61183583836117ce565b905092915050565b5f602082019050919050565b5f61185382611795565b61185d818561179f565b93508360208202850161186f856117af565b805f5b858110156118aa578484038952815161188b858261182a565b94506118968361183d565b925060208a01995050600181019050611872565b50829750879550505050505092915050565b5f60a0820190508181035f8301526118d481886112a0565b905081810360208301526118e881876114d2565b905081810360408301526118fc8186611589565b905081810360608301526119108185611722565b905081810360808301526119248184611849565b90509695505050505050565b5f6060820190508181035f830152611948818661117f565b905061195760208301856111e7565b6119646040830184611201565b949350505050565b5f806040838503121561198257611981610f64565b5b5f61198f85828601610f82565b92505060206119a085828601610f82565b9150509250929050565b7f4e487b71000000000000000000000000000000000000000000000000000000005f52603260045260245ffd5b7f4f6e6c7920746865206f776e65722063616e206164642063616e6469646174655f8201527f7300000000000000000000000000000000000000000000000000000000000000602082015250565b5f611a31602183611161565b9150611a3c826119d7565b604082019050919050565b5f6020820190508181035f830152611a5e81611a25565b9050919050565b7f4e487b71000000000000000000000000000000000000000000000000000000005f52602260045260245ffd5b5f6002820490506001821680611aa957607f821691505b602082108103611abc57611abb611a65565b5b50919050565b5f819050815f5260205f209050919050565b5f6020601f8301049050919050565b5f82821b905092915050565b5f60088302611b1e7fffffffffffffffffffffffffffffffffffffffffffffffffffffffffffffffff82611ae3565b611b288683611ae3565b95508019841693508086168417925050509392505050565b5f819050919050565b5f611b63611b5e611b5984610f2a565b611b40565b610f2a565b9050919050565b5f819050919050565b611b7c83611b49565b611b90611b8882611b6a565b848454611aef565b825550505050565b5f90565b611ba4611b98565b611baf818484611b73565b505050565b5b81811015611bd257611bc75f82611b9c565b600181019050611bb5565b5050565b601f821115611c1757611be881611ac2565b611bf184611ad4565b81016020851015611c00578190505b611c14611c0c85611ad4565b830182611bb4565b50505b505050565b5f82821c905092915050565b5f611c375f1984600802611c1c565b1980831691505092915050565b5f611c4f8383611c28565b9150826002028217905092915050565b611c6882611157565b67ffffffffffffffff811115611c8157611c80610fae565b5b611c8b8254611a92565b611c96828285611bd6565b5f60209050601f831160018114611cc7575f8415611cb5578287015190505b611cbf8582611c44565b865550611d26565b601f198416611cd586611ac2565b5f5b82811015611cfc57848901518255600182019150602085019450602081019050611cd7565b86831015611d195784890151611d15601f891682611c28565b8355505b6001600288020188555050505b505050505050565b7f4e487b71000000000000000000000000000000000000000000000000000000005f52601160045260245ffd5b5f611d6582610f2a565b9150611d7083610f2a565b9250828203905081811115611d8857611d87611d2e565b5b92915050565b5f606082019050611da15f830186610f33565b8181036020830152611db3818561117f565b9050611dc260408301846111e7565b949350505050565b7f506f6c6c206973206e6f742061637469766500000000000000000000000000005f82015250565b5f611dfe601283611161565b9150611e0982611dca565b602082019050919050565b5f6020820190508181035f830152611e2b81611df2565b9050919050565b7f596f75206861766520616c726561647920766f746564000000000000000000005f82015250565b5f611e66601683611161565b9150611e7182611e32565b602082019050919050565b5f6020820190508181035f830152611e9381611e5a565b9050919050565b7f496e76616c69642063616e64696461746520696e6465780000000000000000005f82015250565b5f611ece601783611161565b9150611ed982611e9a565b602082019050919050565b5f6020820190508181035f830152611efb81611ec2565b9050919050565b5f611f0c82610f2a565b91507fffffffffffffffffffffffffffffffffffffffffffffffffffffffffffffffff8203611f3e57611f3d611d2e565b5b60018201905091905056fea26469706673582212203cd49d8e7d0f7dfa9b82eaf0fa7187f21f40d1cc74022ed737a44c728d5f086b64736f6c634300081a0033",
					"opcodes": "PUSH1 0x80 PUSH1 0x40 MSTORE CALLVALUE DUP1 ISZERO PUSH1 0xE JUMPI PUSH0 DUP1 REVERT JUMPDEST POP PUSH2 0x1F7F DUP1 PUSH2 0x1C PUSH0 CODECOPY PUSH0 RETURN INVALID PUSH1 0x80 PUSH1 0x40 MSTORE CALLVALUE DUP1 ISZERO PUSH2 0xF JUMPI PUSH0 DUP1 REVERT JUMPDEST POP PUSH1 0x4 CALLDATASIZE LT PUSH2 0x86 JUMPI PUSH0 CALLDATALOAD PUSH1 0xE0 SHR DUP1 PUSH4 0x74A9CED9 GT PUSH2 0x59 JUMPI DUP1 PUSH4 0x74A9CED9 EQ PUSH2 0x114 JUMPI DUP1 PUSH4 0x9844F215 EQ PUSH2 0x130 JUMPI DUP1 PUSH4 0xAC2F0074 EQ PUSH2 0x152 JUMPI DUP1 PUSH4 0xB384ABEF EQ PUSH2 0x184 JUMPI PUSH2 0x86 JUMP JUMPDEST DUP1 PUSH4 0x11A52746 EQ PUSH2 0x8A JUMPI DUP1 PUSH4 0x1750A3D0 EQ PUSH2 0xA8 JUMPI DUP1 PUSH4 0x1F35B51D EQ PUSH2 0xC4 JUMPI DUP1 PUSH4 0x33B4097B EQ PUSH2 0xE0 JUMPI JUMPDEST PUSH0 DUP1 REVERT JUMPDEST PUSH2 0x92 PUSH2 0x1A0 JUMP JUMPDEST PUSH1 0x40 MLOAD PUSH2 0x9F SWAP2 SWAP1 PUSH2 0xF42 JUMP JUMPDEST PUSH1 0x40 MLOAD DUP1 SWAP2 SUB SWAP1 RETURN JUMPDEST PUSH2 0xC2 PUSH1 0x4 DUP1 CALLDATASIZE SUB DUP2 ADD SWAP1 PUSH2 0xBD SWAP2 SWAP1 PUSH2 0x10D2 JUMP JUMPDEST PUSH2 0x1AB JUMP JUMPDEST STOP JUMPDEST PUSH2 0xDE PUSH1 0x4 DUP1 CALLDATASIZE SUB DUP2 ADD SWAP1 PUSH2 0xD9 SWAP2 SWAP1 PUSH2 0x112C JUMP JUMPDEST PUSH2 0x2C2 JUMP JUMPDEST STOP JUMPDEST PUSH2 0xFA PUSH1 0x4 DUP1 CALLDATASIZE SUB DUP2 ADD SWAP1 PUSH2 0xF5 SWAP2 SWAP1 PUSH2 0x112C JUMP JUMPDEST PUSH2 0x304 JUMP JUMPDEST PUSH1 0x40 MLOAD PUSH2 0x10B SWAP6 SWAP5 SWAP4 SWAP3 SWAP2 SWAP1 PUSH2 0x13CA JUMP JUMPDEST PUSH1 0x40 MLOAD DUP1 SWAP2 SUB SWAP1 RETURN JUMPDEST PUSH2 0x12E PUSH1 0x4 DUP1 CALLDATASIZE SUB DUP2 ADD SWAP1 PUSH2 0x129 SWAP2 SWAP1 PUSH2 0x1430 JUMP JUMPDEST PUSH2 0x5D3 JUMP JUMPDEST STOP JUMPDEST PUSH2 0x138 PUSH2 0x6B2 JUMP JUMPDEST PUSH1 0x40 MLOAD PUSH2 0x149 SWAP6 SWAP5 SWAP4 SWAP3 SWAP2 SWAP1 PUSH2 0x18BC JUMP JUMPDEST PUSH1 0x40 MLOAD DUP1 SWAP2 SUB SWAP1 RETURN JUMPDEST PUSH2 0x16C PUSH1 0x4 DUP1 CALLDATASIZE SUB DUP2 ADD SWAP1 PUSH2 0x167 SWAP2 SWAP1 PUSH2 0x112C JUMP JUMPDEST PUSH2 0xC00 JUMP JUMPDEST PUSH1 0x40 MLOAD PUSH2 0x17B SWAP4 SWAP3 SWAP2 SWAP1 PUSH2 0x1930 JUMP JUMPDEST PUSH1 0x40 MLOAD DUP1 SWAP2 SUB SWAP1 RETURN JUMPDEST PUSH2 0x19E PUSH1 0x4 DUP1 CALLDATASIZE SUB DUP2 ADD SWAP1 PUSH2 0x199 SWAP2 SWAP1 PUSH2 0x196C JUMP JUMPDEST PUSH2 0xCE6 JUMP JUMPDEST STOP JUMPDEST PUSH0 DUP1 DUP1 SLOAD SWAP1 POP SWAP1 POP SWAP1 JUMP JUMPDEST PUSH0 DUP1 DUP4 DUP2 SLOAD DUP2 LT PUSH2 0x1BF JUMPI PUSH2 0x1BE PUSH2 0x19AA JUMP JUMPDEST JUMPDEST SWAP1 PUSH0 MSTORE PUSH1 0x20 PUSH0 KECCAK256 SWAP1 PUSH1 0x5 MUL ADD SWAP1 POP DUP1 PUSH1 0x3 ADD PUSH0 SWAP1 SLOAD SWAP1 PUSH2 0x100 EXP SWAP1 DIV PUSH20 0xFFFFFFFFFFFFFFFFFFFFFFFFFFFFFFFFFFFFFFFF AND PUSH20 0xFFFFFFFFFFFFFFFFFFFFFFFFFFFFFFFFFFFFFFFF AND CALLER PUSH20 0xFFFFFFFFFFFFFFFFFFFFFFFFFFFFFFFFFFFFFFFF AND EQ PUSH2 0x25E JUMPI PUSH1 0x40 MLOAD PUSH32 0x8C379A000000000000000000000000000000000000000000000000000000000 DUP2 MSTORE PUSH1 0x4 ADD PUSH2 0x255 SWAP1 PUSH2 0x1A47 JUMP JUMPDEST PUSH1 0x40 MLOAD DUP1 SWAP2 SUB SWAP1 REVERT JUMPDEST DUP1 PUSH1 0x1 ADD PUSH1 0x40 MLOAD DUP1 PUSH1 0x40 ADD PUSH1 0x40 MSTORE DUP1 DUP5 DUP2 MSTORE PUSH1 0x20 ADD PUSH0 DUP2 MSTORE POP SWAP1 DUP1 PUSH1 0x1 DUP2 SLOAD ADD DUP1 DUP3 SSTORE DUP1 SWAP2 POP POP PUSH1 0x1 SWAP1 SUB SWAP1 PUSH0 MSTORE PUSH1 0x20 PUSH0 KECCAK256 SWAP1 PUSH1 0x2 MUL ADD PUSH0 SWAP1 SWAP2 SWAP1 SWAP2 SWAP1 SWAP2 POP PUSH0 DUP3 ADD MLOAD DUP2 PUSH0 ADD SWAP1 DUP2 PUSH2 0x2B0 SWAP2 SWAP1 PUSH2 0x1C5F JUMP JUMPDEST POP PUSH1 0x20 DUP3 ADD MLOAD DUP2 PUSH1 0x1 ADD SSTORE POP POP POP POP POP JUMP JUMPDEST PUSH0 DUP1 DUP3 DUP2 SLOAD DUP2 LT PUSH2 0x2D6 JUMPI PUSH2 0x2D5 PUSH2 0x19AA JUMP JUMPDEST JUMPDEST SWAP1 PUSH0 MSTORE PUSH1 0x20 PUSH0 KECCAK256 SWAP1 PUSH1 0x5 MUL ADD SWAP1 POP PUSH0 DUP2 PUSH1 0x3 ADD PUSH1 0x14 PUSH2 0x100 EXP DUP2 SLOAD DUP2 PUSH1 0xFF MUL NOT AND SWAP1 DUP4 ISZERO ISZERO MUL OR SWAP1 SSTORE POP POP POP JUMP JUMPDEST PUSH1 0x60 PUSH0 DUP1 PUSH1 0x60 DUP1 PUSH0 DUP1 DUP8 DUP2 SLOAD DUP2 LT PUSH2 0x31F JUMPI PUSH2 0x31E PUSH2 0x19AA JUMP JUMPDEST JUMPDEST SWAP1 PUSH0 MSTORE PUSH1 0x20 PUSH0 KECCAK256 SWAP1 PUSH1 0x5 MUL ADD SWAP1 POP DUP1 PUSH0 ADD DUP1 SLOAD PUSH2 0x33B SWAP1 PUSH2 0x1A92 JUMP JUMPDEST DUP1 PUSH1 0x1F ADD PUSH1 0x20 DUP1 SWAP2 DIV MUL PUSH1 0x20 ADD PUSH1 0x40 MLOAD SWAP1 DUP2 ADD PUSH1 0x40 MSTORE DUP1 SWAP3 SWAP2 SWAP1 DUP2 DUP2 MSTORE PUSH1 0x20 ADD DUP3 DUP1 SLOAD PUSH2 0x367 SWAP1 PUSH2 0x1A92 JUMP JUMPDEST DUP1 ISZERO PUSH2 0x3B2 JUMPI DUP1 PUSH1 0x1F LT PUSH2 0x389 JUMPI PUSH2 0x100 DUP1 DUP4 SLOAD DIV MUL DUP4 MSTORE SWAP2 PUSH1 0x20 ADD SWAP2 PUSH2 0x3B2 JUMP JUMPDEST DUP3 ADD SWAP2 SWAP1 PUSH0 MSTORE PUSH1 0x20 PUSH0 KECCAK256 SWAP1 JUMPDEST DUP2 SLOAD DUP2 MSTORE SWAP1 PUSH1 0x1 ADD SWAP1 PUSH1 0x20 ADD DUP1 DUP4 GT PUSH2 0x395 JUMPI DUP3 SWAP1 SUB PUSH1 0x1F AND DUP3 ADD SWAP2 JUMPDEST POP POP POP POP POP SWAP6 POP DUP1 PUSH1 0x3 ADD PUSH0 SWAP1 SLOAD SWAP1 PUSH2 0x100 EXP SWAP1 DIV PUSH20 0xFFFFFFFFFFFFFFFFFFFFFFFFFFFFFFFFFFFFFFFF AND SWAP5 POP DUP1 PUSH1 0x3 ADD PUSH1 0x14 SWAP1 SLOAD SWAP1 PUSH2 0x100 EXP SWAP1 DIV PUSH1 0xFF AND SWAP4 POP DUP1 PUSH1 0x1 ADD DUP1 SLOAD SWAP1 POP PUSH8 0xFFFFFFFFFFFFFFFF DUP2 GT ISZERO PUSH2 0x414 JUMPI PUSH2 0x413 PUSH2 0xFAE JUMP JUMPDEST JUMPDEST PUSH1 0x40 MLOAD SWAP1 DUP1 DUP3 MSTORE DUP1 PUSH1 0x20 MUL PUSH1 0x20 ADD DUP3 ADD PUSH1 0x40 MSTORE DUP1 ISZERO PUSH2 0x447 JUMPI DUP2 PUSH1 0x20 ADD JUMPDEST PUSH1 0x60 DUP2 MSTORE PUSH1 0x20 ADD SWAP1 PUSH1 0x1 SWAP1 SUB SWAP1 DUP2 PUSH2 0x432 JUMPI SWAP1 POP JUMPDEST POP SWAP3 POP DUP1 PUSH1 0x1 ADD DUP1 SLOAD SWAP1 POP PUSH8 0xFFFFFFFFFFFFFFFF DUP2 GT ISZERO PUSH2 0x46B JUMPI PUSH2 0x46A PUSH2 0xFAE JUMP JUMPDEST JUMPDEST PUSH1 0x40 MLOAD SWAP1 DUP1 DUP3 MSTORE DUP1 PUSH1 0x20 MUL PUSH1 0x20 ADD DUP3 ADD PUSH1 0x40 MSTORE DUP1 ISZERO PUSH2 0x499 JUMPI DUP2 PUSH1 0x20 ADD PUSH1 0x20 DUP3 MUL DUP1 CALLDATASIZE DUP4 CALLDATACOPY DUP1 DUP3 ADD SWAP2 POP POP SWAP1 POP JUMPDEST POP SWAP2 POP PUSH0 JUMPDEST DUP2 PUSH1 0x1 ADD DUP1 SLOAD SWAP1 POP DUP2 LT ISZERO PUSH2 0x5C8 JUMPI DUP2 PUSH1 0x1 ADD DUP2 DUP2 SLOAD DUP2 LT PUSH2 0x4C3 JUMPI PUSH2 0x4C2 PUSH2 0x19AA JUMP JUMPDEST JUMPDEST SWAP1 PUSH0 MSTORE PUSH1 0x20 PUSH0 KECCAK256 SWAP1 PUSH1 0x2 MUL ADD PUSH0 ADD DUP1 SLOAD PUSH2 0x4DC SWAP1 PUSH2 0x1A92 JUMP JUMPDEST DUP1 PUSH1 0x1F ADD PUSH1 0x20 DUP1 SWAP2 DIV MUL PUSH1 0x20 ADD PUSH1 0x40 MLOAD SWAP1 DUP2 ADD PUSH1 0x40 MSTORE DUP1 SWAP3 SWAP2 SWAP1 DUP2 DUP2 MSTORE PUSH1 0x20 ADD DUP3 DUP1 SLOAD PUSH2 0x508 SWAP1 PUSH2 0x1A92 JUMP JUMPDEST DUP1 ISZERO PUSH2 0x553 JUMPI DUP1 PUSH1 0x1F LT PUSH2 0x52A JUMPI PUSH2 0x100 DUP1 DUP4 SLOAD DIV MUL DUP4 MSTORE SWAP2 PUSH1 0x20 ADD SWAP2 PUSH2 0x553 JUMP JUMPDEST DUP3 ADD SWAP2 SWAP1 PUSH0 MSTORE PUSH1 0x20 PUSH0 KECCAK256 SWAP1 JUMPDEST DUP2 SLOAD DUP2 MSTORE SWAP1 PUSH1 0x1 ADD SWAP1 PUSH1 0x20 ADD DUP1 DUP4 GT PUSH2 0x536 JUMPI DUP3 SWAP1 SUB PUSH1 0x1F AND DUP3 ADD SWAP2 JUMPDEST POP POP POP POP POP DUP5 DUP3 DUP2 MLOAD DUP2 LT PUSH2 0x56B JUMPI PUSH2 0x56A PUSH2 0x19AA JUMP JUMPDEST JUMPDEST PUSH1 0x20 MUL PUSH1 0x20 ADD ADD DUP2 SWAP1 MSTORE POP DUP2 PUSH1 0x1 ADD DUP2 DUP2 SLOAD DUP2 LT PUSH2 0x58C JUMPI PUSH2 0x58B PUSH2 0x19AA JUMP JUMPDEST JUMPDEST SWAP1 PUSH0 MSTORE PUSH1 0x20 PUSH0 KECCAK256 SWAP1 PUSH1 0x2 MUL ADD PUSH1 0x1 ADD SLOAD DUP4 DUP3 DUP2 MLOAD DUP2 LT PUSH2 0x5AF JUMPI PUSH2 0x5AE PUSH2 0x19AA JUMP JUMPDEST JUMPDEST PUSH1 0x20 MUL PUSH1 0x20 ADD ADD DUP2 DUP2 MSTORE POP POP DUP1 DUP1 PUSH1 0x1 ADD SWAP2 POP POP PUSH2 0x49E JUMP JUMPDEST POP POP SWAP2 SWAP4 SWAP6 SWAP1 SWAP3 SWAP5 POP JUMP JUMPDEST PUSH0 DUP1 PUSH1 0x1 DUP2 PUSH1 0x1 DUP2 SLOAD ADD DUP1 DUP3 SSTORE DUP1 SWAP2 POP POP SUB SWAP1 PUSH0 MSTORE PUSH1 0x20 PUSH0 KECCAK256 SWAP1 PUSH1 0x5 MUL ADD SWAP1 POP DUP2 DUP2 PUSH0 ADD SWAP1 DUP2 PUSH2 0x603 SWAP2 SWAP1 PUSH2 0x1C5F JUMP JUMPDEST POP CALLER DUP2 PUSH1 0x3 ADD PUSH0 PUSH2 0x100 EXP DUP2 SLOAD DUP2 PUSH20 0xFFFFFFFFFFFFFFFFFFFFFFFFFFFFFFFFFFFFFFFF MUL NOT AND SWAP1 DUP4 PUSH20 0xFFFFFFFFFFFFFFFFFFFFFFFFFFFFFFFFFFFFFFFF AND MUL OR SWAP1 SSTORE POP PUSH1 0x1 DUP2 PUSH1 0x3 ADD PUSH1 0x14 PUSH2 0x100 EXP DUP2 SLOAD DUP2 PUSH1 0xFF MUL NOT AND SWAP1 DUP4 ISZERO ISZERO MUL OR SWAP1 SSTORE POP PUSH32 0xDCF7BCCA1F330627A2B8CF6826AA79CEFCDA862EE183DABACD90516B6CD18443 PUSH1 0x1 PUSH0 DUP1 SLOAD SWAP1 POP PUSH2 0x695 SWAP2 SWAP1 PUSH2 0x1D5B JUMP JUMPDEST DUP4 CALLER PUSH1 0x40 MLOAD PUSH2 0x6A6 SWAP4 SWAP3 SWAP2 SWAP1 PUSH2 0x1D8E JUMP JUMPDEST PUSH1 0x40 MLOAD DUP1 SWAP2 SUB SWAP1 LOG1 POP POP JUMP JUMPDEST PUSH1 0x60 DUP1 PUSH1 0x60 DUP1 PUSH1 0x60 PUSH0 DUP1 DUP1 SLOAD SWAP1 POP SWAP1 POP DUP1 PUSH8 0xFFFFFFFFFFFFFFFF DUP2 GT ISZERO PUSH2 0x6DC JUMPI PUSH2 0x6DB PUSH2 0xFAE JUMP JUMPDEST JUMPDEST PUSH1 0x40 MLOAD SWAP1 DUP1 DUP3 MSTORE DUP1 PUSH1 0x20 MUL PUSH1 0x20 ADD DUP3 ADD PUSH1 0x40 MSTORE DUP1 ISZERO PUSH2 0x70F JUMPI DUP2 PUSH1 0x20 ADD JUMPDEST PUSH1 0x60 DUP2 MSTORE PUSH1 0x20 ADD SWAP1 PUSH1 0x1 SWAP1 SUB SWAP1 DUP2 PUSH2 0x6FA JUMPI SWAP1 POP JUMPDEST POP SWAP6 POP DUP1 PUSH8 0xFFFFFFFFFFFFFFFF DUP2 GT ISZERO PUSH2 0x72C JUMPI PUSH2 0x72B PUSH2 0xFAE JUMP JUMPDEST JUMPDEST PUSH1 0x40 MLOAD SWAP1 DUP1 DUP3 MSTORE DUP1 PUSH1 0x20 MUL PUSH1 0x20 ADD DUP3 ADD PUSH1 0x40 MSTORE DUP1 ISZERO PUSH2 0x75A JUMPI DUP2 PUSH1 0x20 ADD PUSH1 0x20 DUP3 MUL DUP1 CALLDATASIZE DUP4 CALLDATACOPY DUP1 DUP3 ADD SWAP2 POP POP SWAP1 POP JUMPDEST POP SWAP5 POP DUP1 PUSH8 0xFFFFFFFFFFFFFFFF DUP2 GT ISZERO PUSH2 0x777 JUMPI PUSH2 0x776 PUSH2 0xFAE JUMP JUMPDEST JUMPDEST PUSH1 0x40 MLOAD SWAP1 DUP1 DUP3 MSTORE DUP1 PUSH1 0x20 MUL PUSH1 0x20 ADD DUP3 ADD PUSH1 0x40 MSTORE DUP1 ISZERO PUSH2 0x7A5 JUMPI DUP2 PUSH1 0x20 ADD PUSH1 0x20 DUP3 MUL DUP1 CALLDATASIZE DUP4 CALLDATACOPY DUP1 DUP3 ADD SWAP2 POP POP SWAP1 POP JUMPDEST POP SWAP4 POP DUP1 PUSH8 0xFFFFFFFFFFFFFFFF DUP2 GT ISZERO PUSH2 0x7C2 JUMPI PUSH2 0x7C1 PUSH2 0xFAE JUMP JUMPDEST JUMPDEST PUSH1 0x40 MLOAD SWAP1 DUP1 DUP3 MSTORE DUP1 PUSH1 0x20 MUL PUSH1 0x20 ADD DUP3 ADD PUSH1 0x40 MSTORE DUP1 ISZERO PUSH2 0x7F5 JUMPI DUP2 PUSH1 0x20 ADD JUMPDEST PUSH1 0x60 DUP2 MSTORE PUSH1 0x20 ADD SWAP1 PUSH1 0x1 SWAP1 SUB SWAP1 DUP2 PUSH2 0x7E0 JUMPI SWAP1 POP JUMPDEST POP SWAP3 POP DUP1 PUSH8 0xFFFFFFFFFFFFFFFF DUP2 GT ISZERO PUSH2 0x812 JUMPI PUSH2 0x811 PUSH2 0xFAE JUMP JUMPDEST JUMPDEST PUSH1 0x40 MLOAD SWAP1 DUP1 DUP3 MSTORE DUP1 PUSH1 0x20 MUL PUSH1 0x20 ADD DUP3 ADD PUSH1 0x40 MSTORE DUP1 ISZERO PUSH2 0x845 JUMPI DUP2 PUSH1 0x20 ADD JUMPDEST PUSH1 0x60 DUP2 MSTORE PUSH1 0x20 ADD SWAP1 PUSH1 0x1 SWAP1 SUB SWAP1 DUP2 PUSH2 0x830 JUMPI SWAP1 POP JUMPDEST POP SWAP2 POP PUSH0 JUMPDEST DUP2 DUP2 LT ISZERO PUSH2 0xBF7 JUMPI PUSH0 DUP2 DUP2 SLOAD DUP2 LT PUSH2 0x865 JUMPI PUSH2 0x864 PUSH2 0x19AA JUMP JUMPDEST JUMPDEST SWAP1 PUSH0 MSTORE PUSH1 0x20 PUSH0 KECCAK256 SWAP1 PUSH1 0x5 MUL ADD PUSH0 ADD DUP1 SLOAD PUSH2 0x87E SWAP1 PUSH2 0x1A92 JUMP JUMPDEST DUP1 PUSH1 0x1F ADD PUSH1 0x20 DUP1 SWAP2 DIV MUL PUSH1 0x20 ADD PUSH1 0x40 MLOAD SWAP1 DUP2 ADD PUSH1 0x40 MSTORE DUP1 SWAP3 SWAP2 SWAP1 DUP2 DUP2 MSTORE PUSH1 0x20 ADD DUP3 DUP1 SLOAD PUSH2 0x8AA SWAP1 PUSH2 0x1A92 JUMP JUMPDEST DUP1 ISZERO PUSH2 0x8F5 JUMPI DUP1 PUSH1 0x1F LT PUSH2 0x8CC JUMPI PUSH2 0x100 DUP1 DUP4 SLOAD DIV MUL DUP4 MSTORE SWAP2 PUSH1 0x20 ADD SWAP2 PUSH2 0x8F5 JUMP JUMPDEST DUP3 ADD SWAP2 SWAP1 PUSH0 MSTORE PUSH1 0x20 PUSH0 KECCAK256 SWAP1 JUMPDEST DUP2 SLOAD DUP2 MSTORE SWAP1 PUSH1 0x1 ADD SWAP1 PUSH1 0x20 ADD DUP1 DUP4 GT PUSH2 0x8D8 JUMPI DUP3 SWAP1 SUB PUSH1 0x1F AND DUP3 ADD SWAP2 JUMPDEST POP POP POP POP POP DUP8 DUP3 DUP2 MLOAD DUP2 LT PUSH2 0x90D JUMPI PUSH2 0x90C PUSH2 0x19AA JUMP JUMPDEST JUMPDEST PUSH1 0x20 MUL PUSH1 0x20 ADD ADD DUP2 SWAP1 MSTORE POP PUSH0 DUP2 DUP2 SLOAD DUP2 LT PUSH2 0x92B JUMPI PUSH2 0x92A PUSH2 0x19AA JUMP JUMPDEST JUMPDEST SWAP1 PUSH0 MSTORE PUSH1 0x20 PUSH0 KECCAK256 SWAP1 PUSH1 0x5 MUL ADD PUSH1 0x3 ADD PUSH0 SWAP1 SLOAD SWAP1 PUSH2 0x100 EXP SWAP1 DIV PUSH20 0xFFFFFFFFFFFFFFFFFFFFFFFFFFFFFFFFFFFFFFFF AND DUP7 DUP3 DUP2 MLOAD DUP2 LT PUSH2 0x96D JUMPI PUSH2 0x96C PUSH2 0x19AA JUMP JUMPDEST JUMPDEST PUSH1 0x20 MUL PUSH1 0x20 ADD ADD SWAP1 PUSH20 0xFFFFFFFFFFFFFFFFFFFFFFFFFFFFFFFFFFFFFFFF AND SWAP1 DUP2 PUSH20 0xFFFFFFFFFFFFFFFFFFFFFFFFFFFFFFFFFFFFFFFF AND DUP2 MSTORE POP POP PUSH0 DUP2 DUP2 SLOAD DUP2 LT PUSH2 0x9BA JUMPI PUSH2 0x9B9 PUSH2 0x19AA JUMP JUMPDEST JUMPDEST SWAP1 PUSH0 MSTORE PUSH1 0x20 PUSH0 KECCAK256 SWAP1 PUSH1 0x5 MUL ADD PUSH1 0x3 ADD PUSH1 0x14 SWAP1 SLOAD SWAP1 PUSH2 0x100 EXP SWAP1 DIV PUSH1 0xFF AND DUP6 DUP3 DUP2 MLOAD DUP2 LT PUSH2 0x9EA JUMPI PUSH2 0x9E9 PUSH2 0x19AA JUMP JUMPDEST JUMPDEST PUSH1 0x20 MUL PUSH1 0x20 ADD ADD SWAP1 ISZERO ISZERO SWAP1 DUP2 ISZERO ISZERO DUP2 MSTORE POP POP PUSH0 DUP2 DUP2 SLOAD DUP2 LT PUSH2 0xA0F JUMPI PUSH2 0xA0E PUSH2 0x19AA JUMP JUMPDEST JUMPDEST SWAP1 PUSH0 MSTORE PUSH1 0x20 PUSH0 KECCAK256 SWAP1 PUSH1 0x5 MUL ADD PUSH1 0x1 ADD DUP1 SLOAD DUP1 PUSH1 0x20 MUL PUSH1 0x20 ADD PUSH1 0x40 MLOAD SWAP1 DUP2 ADD PUSH1 0x40 MSTORE DUP1 SWAP3 SWAP2 SWAP1 DUP2 DUP2 MSTORE PUSH1 0x20 ADD PUSH0 SWAP1 JUMPDEST DUP3 DUP3 LT ISZERO PUSH2 0xB06 JUMPI DUP4 DUP3 SWAP1 PUSH0 MSTORE PUSH1 0x20 PUSH0 KECCAK256 SWAP1 PUSH1 0x2 MUL ADD PUSH1 0x40 MLOAD DUP1 PUSH1 0x40 ADD PUSH1 0x40 MSTORE SWAP1 DUP2 PUSH0 DUP3 ADD DUP1 SLOAD PUSH2 0xA6D SWAP1 PUSH2 0x1A92 JUMP JUMPDEST DUP1 PUSH1 0x1F ADD PUSH1 0x20 DUP1 SWAP2 DIV MUL PUSH1 0x20 ADD PUSH1 0x40 MLOAD SWAP1 DUP2 ADD PUSH1 0x40 MSTORE DUP1 SWAP3 SWAP2 SWAP1 DUP2 DUP2 MSTORE PUSH1 0x20 ADD DUP3 DUP1 SLOAD PUSH2 0xA99 SWAP1 PUSH2 0x1A92 JUMP JUMPDEST DUP1 ISZERO PUSH2 0xAE4 JUMPI DUP1 PUSH1 0x1F LT PUSH2 0xABB JUMPI PUSH2 0x100 DUP1 DUP4 SLOAD DIV MUL DUP4 MSTORE SWAP2 PUSH1 0x20 ADD SWAP2 PUSH2 0xAE4 JUMP JUMPDEST DUP3 ADD SWAP2 SWAP1 PUSH0 MSTORE PUSH1 0x20 PUSH0 KECCAK256 SWAP1 JUMPDEST DUP2 SLOAD DUP2 MSTORE SWAP1 PUSH1 0x1 ADD SWAP1 PUSH1 0x20 ADD DUP1 DUP4 GT PUSH2 0xAC7 JUMPI DUP3 SWAP1 SUB PUSH1 0x1F AND DUP3 ADD SWAP2 JUMPDEST POP POP POP POP POP DUP2 MSTORE PUSH1 0x20 ADD PUSH1 0x1 DUP3 ADD SLOAD DUP2 MSTORE POP POP DUP2 MSTORE PUSH1 0x20 ADD SWAP1 PUSH1 0x1 ADD SWAP1 PUSH2 0xA3D JUMP JUMPDEST POP POP POP POP DUP5 DUP3 DUP2 MLOAD DUP2 LT PUSH2 0xB1D JUMPI PUSH2 0xB1C PUSH2 0x19AA JUMP JUMPDEST JUMPDEST PUSH1 0x20 MUL PUSH1 0x20 ADD ADD DUP2 SWAP1 MSTORE POP PUSH0 DUP2 DUP2 SLOAD DUP2 LT PUSH2 0xB3B JUMPI PUSH2 0xB3A PUSH2 0x19AA JUMP JUMPDEST JUMPDEST SWAP1 PUSH0 MSTORE PUSH1 0x20 PUSH0 KECCAK256 SWAP1 PUSH1 0x5 MUL ADD PUSH1 0x4 ADD DUP1 SLOAD DUP1 PUSH1 0x20 MUL PUSH1 0x20 ADD PUSH1 0x40 MLOAD SWAP1 DUP2 ADD PUSH1 0x40 MSTORE DUP1 SWAP3 SWAP2 SWAP1 DUP2 DUP2 MSTORE PUSH1 0x20 ADD DUP3 DUP1 SLOAD DUP1 ISZERO PUSH2 0xBC7 JUMPI PUSH1 0x20 MUL DUP3 ADD SWAP2 SWAP1 PUSH0 MSTORE PUSH1 0x20 PUSH0 KECCAK256 SWAP1 JUMPDEST DUP2 PUSH0 SWAP1 SLOAD SWAP1 PUSH2 0x100 EXP SWAP1 DIV PUSH20 0xFFFFFFFFFFFFFFFFFFFFFFFFFFFFFFFFFFFFFFFF AND PUSH20 0xFFFFFFFFFFFFFFFFFFFFFFFFFFFFFFFFFFFFFFFF AND DUP2 MSTORE PUSH1 0x20 ADD SWAP1 PUSH1 0x1 ADD SWAP1 DUP1 DUP4 GT PUSH2 0xB7E JUMPI JUMPDEST POP POP POP POP POP DUP4 DUP3 DUP2 MLOAD DUP2 LT PUSH2 0xBDF JUMPI PUSH2 0xBDE PUSH2 0x19AA JUMP JUMPDEST JUMPDEST PUSH1 0x20 MUL PUSH1 0x20 ADD ADD DUP2 SWAP1 MSTORE POP DUP1 DUP1 PUSH1 0x1 ADD SWAP2 POP POP PUSH2 0x84A JUMP JUMPDEST POP POP SWAP1 SWAP2 SWAP3 SWAP4 SWAP5 JUMP JUMPDEST PUSH0 DUP2 DUP2 SLOAD DUP2 LT PUSH2 0xC0E JUMPI PUSH0 DUP1 REVERT JUMPDEST SWAP1 PUSH0 MSTORE PUSH1 0x20 PUSH0 KECCAK256 SWAP1 PUSH1 0x5 MUL ADD PUSH0 SWAP2 POP SWAP1 POP DUP1 PUSH0 ADD DUP1 SLOAD PUSH2 0xC2D SWAP1 PUSH2 0x1A92 JUMP JUMPDEST DUP1 PUSH1 0x1F ADD PUSH1 0x20 DUP1 SWAP2 DIV MUL PUSH1 0x20 ADD PUSH1 0x40 MLOAD SWAP1 DUP2 ADD PUSH1 0x40 MSTORE DUP1 SWAP3 SWAP2 SWAP1 DUP2 DUP2 MSTORE PUSH1 0x20 ADD DUP3 DUP1 SLOAD PUSH2 0xC59 SWAP1 PUSH2 0x1A92 JUMP JUMPDEST DUP1 ISZERO PUSH2 0xCA4 JUMPI DUP1 PUSH1 0x1F LT PUSH2 0xC7B JUMPI PUSH2 0x100 DUP1 DUP4 SLOAD DIV MUL DUP4 MSTORE SWAP2 PUSH1 0x20 ADD SWAP2 PUSH2 0xCA4 JUMP JUMPDEST DUP3 ADD SWAP2 SWAP1 PUSH0 MSTORE PUSH1 0x20 PUSH0 KECCAK256 SWAP1 JUMPDEST DUP2 SLOAD DUP2 MSTORE SWAP1 PUSH1 0x1 ADD SWAP1 PUSH1 0x20 ADD DUP1 DUP4 GT PUSH2 0xC87 JUMPI DUP3 SWAP1 SUB PUSH1 0x1F AND DUP3 ADD SWAP2 JUMPDEST POP POP POP POP POP SWAP1 DUP1 PUSH1 0x3 ADD PUSH0 SWAP1 SLOAD SWAP1 PUSH2 0x100 EXP SWAP1 DIV PUSH20 0xFFFFFFFFFFFFFFFFFFFFFFFFFFFFFFFFFFFFFFFF AND SWAP1 DUP1 PUSH1 0x3 ADD PUSH1 0x14 SWAP1 SLOAD SWAP1 PUSH2 0x100 EXP SWAP1 DIV PUSH1 0xFF AND SWAP1 POP DUP4 JUMP JUMPDEST PUSH0 DUP1 DUP4 DUP2 SLOAD DUP2 LT PUSH2 0xCFA JUMPI PUSH2 0xCF9 PUSH2 0x19AA JUMP JUMPDEST JUMPDEST SWAP1 PUSH0 MSTORE PUSH1 0x20 PUSH0 KECCAK256 SWAP1 PUSH1 0x5 MUL ADD SWAP1 POP DUP1 PUSH1 0x3 ADD PUSH1 0x14 SWAP1 SLOAD SWAP1 PUSH2 0x100 EXP SWAP1 DIV PUSH1 0xFF AND PUSH2 0xD59 JUMPI PUSH1 0x40 MLOAD PUSH32 0x8C379A000000000000000000000000000000000000000000000000000000000 DUP2 MSTORE PUSH1 0x4 ADD PUSH2 0xD50 SWAP1 PUSH2 0x1E14 JUMP JUMPDEST PUSH1 0x40 MLOAD DUP1 SWAP2 SUB SWAP1 REVERT JUMPDEST DUP1 PUSH1 0x2 ADD PUSH0 CALLER PUSH20 0xFFFFFFFFFFFFFFFFFFFFFFFFFFFFFFFFFFFFFFFF AND PUSH20 0xFFFFFFFFFFFFFFFFFFFFFFFFFFFFFFFFFFFFFFFF AND DUP2 MSTORE PUSH1 0x20 ADD SWAP1 DUP2 MSTORE PUSH1 0x20 ADD PUSH0 KECCAK256 PUSH0 ADD PUSH0 SWAP1 SLOAD SWAP1 PUSH2 0x100 EXP SWAP1 DIV PUSH1 0xFF AND ISZERO PUSH2 0xDE7 JUMPI PUSH1 0x40 MLOAD PUSH32 0x8C379A000000000000000000000000000000000000000000000000000000000 DUP2 MSTORE PUSH1 0x4 ADD PUSH2 0xDDE SWAP1 PUSH2 0x1E7C JUMP JUMPDEST PUSH1 0x40 MLOAD DUP1 SWAP2 SUB SWAP1 REVERT JUMPDEST DUP1 PUSH1 0x1 ADD DUP1 SLOAD SWAP1 POP DUP3 LT PUSH2 0xE30 JUMPI PUSH1 0x40 MLOAD PUSH32 0x8C379A000000000000000000000000000000000000000000000000000000000 DUP2 MSTORE PUSH1 0x4 ADD PUSH2 0xE27 SWAP1 PUSH2 0x1EE4 JUMP JUMPDEST PUSH1 0x40 MLOAD DUP1 SWAP2 SUB SWAP1 REVERT JUMPDEST PUSH1 0x1 DUP2 PUSH1 0x2 ADD PUSH0 CALLER PUSH20 0xFFFFFFFFFFFFFFFFFFFFFFFFFFFFFFFFFFFFFFFF AND PUSH20 0xFFFFFFFFFFFFFFFFFFFFFFFFFFFFFFFFFFFFFFFF AND DUP2 MSTORE PUSH1 0x20 ADD SWAP1 DUP2 MSTORE PUSH1 0x20 ADD PUSH0 KECCAK256 PUSH0 ADD PUSH0 PUSH2 0x100 EXP DUP2 SLOAD DUP2 PUSH1 0xFF MUL NOT AND SWAP1 DUP4 ISZERO ISZERO MUL OR SWAP1 SSTORE POP DUP1 PUSH1 0x1 ADD DUP3 DUP2 SLOAD DUP2 LT PUSH2 0xE9F JUMPI PUSH2 0xE9E PUSH2 0x19AA JUMP JUMPDEST JUMPDEST SWAP1 PUSH0 MSTORE PUSH1 0x20 PUSH0 KECCAK256 SWAP1 PUSH1 0x2 MUL ADD PUSH1 0x1 ADD PUSH0 DUP2 SLOAD DUP1 SWAP3 SWAP2 SWAP1 PUSH2 0xEBE SWAP1 PUSH2 0x1F02 JUMP JUMPDEST SWAP2 SWAP1 POP SSTORE POP DUP1 PUSH1 0x4 ADD CALLER SWAP1 DUP1 PUSH1 0x1 DUP2 SLOAD ADD DUP1 DUP3 SSTORE DUP1 SWAP2 POP POP PUSH1 0x1 SWAP1 SUB SWAP1 PUSH0 MSTORE PUSH1 0x20 PUSH0 KECCAK256 ADD PUSH0 SWAP1 SWAP2 SWAP1 SWAP2 SWAP1 SWAP2 PUSH2 0x100 EXP DUP2 SLOAD DUP2 PUSH20 0xFFFFFFFFFFFFFFFFFFFFFFFFFFFFFFFFFFFFFFFF MUL NOT AND SWAP1 DUP4 PUSH20 0xFFFFFFFFFFFFFFFFFFFFFFFFFFFFFFFFFFFFFFFF AND MUL OR SWAP1 SSTORE POP POP POP POP JUMP JUMPDEST PUSH0 DUP2 SWAP1 POP SWAP2 SWAP1 POP JUMP JUMPDEST PUSH2 0xF3C DUP2 PUSH2 0xF2A JUMP JUMPDEST DUP3 MSTORE POP POP JUMP JUMPDEST PUSH0 PUSH1 0x20 DUP3 ADD SWAP1 POP PUSH2 0xF55 PUSH0 DUP4 ADD DUP5 PUSH2 0xF33 JUMP JUMPDEST SWAP3 SWAP2 POP POP JUMP JUMPDEST PUSH0 PUSH1 0x40 MLOAD SWAP1 POP SWAP1 JUMP JUMPDEST PUSH0 DUP1 REVERT JUMPDEST PUSH0 DUP1 REVERT JUMPDEST PUSH2 0xF75 DUP2 PUSH2 0xF2A JUMP JUMPDEST DUP2 EQ PUSH2 0xF7F JUMPI PUSH0 DUP1 REVERT JUMPDEST POP JUMP JUMPDEST PUSH0 DUP2 CALLDATALOAD SWAP1 POP PUSH2 0xF90 DUP2 PUSH2 0xF6C JUMP JUMPDEST SWAP3 SWAP2 POP POP JUMP JUMPDEST PUSH0 DUP1 REVERT JUMPDEST PUSH0 DUP1 REVERT JUMPDEST PUSH0 PUSH1 0x1F NOT PUSH1 0x1F DUP4 ADD AND SWAP1 POP SWAP2 SWAP1 POP JUMP JUMPDEST PUSH32 0x4E487B7100000000000000000000000000000000000000000000000000000000 PUSH0 MSTORE PUSH1 0x41 PUSH1 0x4 MSTORE PUSH1 0x24 PUSH0 REVERT JUMPDEST PUSH2 0xFE4 DUP3 PUSH2 0xF9E JUMP JUMPDEST DUP2 ADD DUP2 DUP2 LT PUSH8 0xFFFFFFFFFFFFFFFF DUP3 GT OR ISZERO PUSH2 0x1003 JUMPI PUSH2 0x1002 PUSH2 0xFAE JUMP JUMPDEST JUMPDEST DUP1 PUSH1 0x40 MSTORE POP POP POP JUMP JUMPDEST PUSH0 PUSH2 0x1015 PUSH2 0xF5B JUMP JUMPDEST SWAP1 POP PUSH2 0x1021 DUP3 DUP3 PUSH2 0xFDB JUMP JUMPDEST SWAP2 SWAP1 POP JUMP JUMPDEST PUSH0 PUSH8 0xFFFFFFFFFFFFFFFF DUP3 GT ISZERO PUSH2 0x1040 JUMPI PUSH2 0x103F PUSH2 0xFAE JUMP JUMPDEST JUMPDEST PUSH2 0x1049 DUP3 PUSH2 0xF9E JUMP JUMPDEST SWAP1 POP PUSH1 0x20 DUP2 ADD SWAP1 POP SWAP2 SWAP1 POP JUMP JUMPDEST DUP3 DUP2 DUP4 CALLDATACOPY PUSH0 DUP4 DUP4 ADD MSTORE POP POP POP JUMP JUMPDEST PUSH0 PUSH2 0x1076 PUSH2 0x1071 DUP5 PUSH2 0x1026 JUMP JUMPDEST PUSH2 0x100C JUMP JUMPDEST SWAP1 POP DUP3 DUP2 MSTORE PUSH1 0x20 DUP2 ADD DUP5 DUP5 DUP5 ADD GT ISZERO PUSH2 0x1092 JUMPI PUSH2 0x1091 PUSH2 0xF9A JUMP JUMPDEST JUMPDEST PUSH2 0x109D DUP5 DUP3 DUP6 PUSH2 0x1056 JUMP JUMPDEST POP SWAP4 SWAP3 POP POP POP JUMP JUMPDEST PUSH0 DUP3 PUSH1 0x1F DUP4 ADD SLT PUSH2 0x10B9 JUMPI PUSH2 0x10B8 PUSH2 0xF96 JUMP JUMPDEST JUMPDEST DUP2 CALLDATALOAD PUSH2 0x10C9 DUP5 DUP3 PUSH1 0x20 DUP7 ADD PUSH2 0x1064 JUMP JUMPDEST SWAP2 POP POP SWAP3 SWAP2 POP POP JUMP JUMPDEST PUSH0 DUP1 PUSH1 0x40 DUP4 DUP6 SUB SLT ISZERO PUSH2 0x10E8 JUMPI PUSH2 0x10E7 PUSH2 0xF64 JUMP JUMPDEST JUMPDEST PUSH0 PUSH2 0x10F5 DUP6 DUP3 DUP7 ADD PUSH2 0xF82 JUMP JUMPDEST SWAP3 POP POP PUSH1 0x20 DUP4 ADD CALLDATALOAD PUSH8 0xFFFFFFFFFFFFFFFF DUP2 GT ISZERO PUSH2 0x1116 JUMPI PUSH2 0x1115 PUSH2 0xF68 JUMP JUMPDEST JUMPDEST PUSH2 0x1122 DUP6 DUP3 DUP7 ADD PUSH2 0x10A5 JUMP JUMPDEST SWAP2 POP POP SWAP3 POP SWAP3 SWAP1 POP JUMP JUMPDEST PUSH0 PUSH1 0x20 DUP3 DUP5 SUB SLT ISZERO PUSH2 0x1141 JUMPI PUSH2 0x1140 PUSH2 0xF64 JUMP JUMPDEST JUMPDEST PUSH0 PUSH2 0x114E DUP5 DUP3 DUP6 ADD PUSH2 0xF82 JUMP JUMPDEST SWAP2 POP POP SWAP3 SWAP2 POP POP JUMP JUMPDEST PUSH0 DUP2 MLOAD SWAP1 POP SWAP2 SWAP1 POP JUMP JUMPDEST PUSH0 DUP3 DUP3 MSTORE PUSH1 0x20 DUP3 ADD SWAP1 POP SWAP3 SWAP2 POP POP JUMP JUMPDEST DUP3 DUP2 DUP4 MCOPY PUSH0 DUP4 DUP4 ADD MSTORE POP POP POP JUMP JUMPDEST PUSH0 PUSH2 0x1189 DUP3 PUSH2 0x1157 JUMP JUMPDEST PUSH2 0x1193 DUP2 DUP6 PUSH2 0x1161 JUMP JUMPDEST SWAP4 POP PUSH2 0x11A3 DUP2 DUP6 PUSH1 0x20 DUP7 ADD PUSH2 0x1171 JUMP JUMPDEST PUSH2 0x11AC DUP2 PUSH2 0xF9E JUMP JUMPDEST DUP5 ADD SWAP2 POP POP SWAP3 SWAP2 POP POP JUMP JUMPDEST PUSH0 PUSH20 0xFFFFFFFFFFFFFFFFFFFFFFFFFFFFFFFFFFFFFFFF DUP3 AND SWAP1 POP SWAP2 SWAP1 POP JUMP JUMPDEST PUSH0 PUSH2 0x11E0 DUP3 PUSH2 0x11B7 JUMP JUMPDEST SWAP1 POP SWAP2 SWAP1 POP JUMP JUMPDEST PUSH2 0x11F0 DUP2 PUSH2 0x11D6 JUMP JUMPDEST DUP3 MSTORE POP POP JUMP JUMPDEST PUSH0 DUP2 ISZERO ISZERO SWAP1 POP SWAP2 SWAP1 POP JUMP JUMPDEST PUSH2 0x120A DUP2 PUSH2 0x11F6 JUMP JUMPDEST DUP3 MSTORE POP POP JUMP JUMPDEST PUSH0 DUP2 MLOAD SWAP1 POP SWAP2 SWAP1 POP JUMP JUMPDEST PUSH0 DUP3 DUP3 MSTORE PUSH1 0x20 DUP3 ADD SWAP1 POP SWAP3 SWAP2 POP POP JUMP JUMPDEST PUSH0 DUP2 SWAP1 POP PUSH1 0x20 DUP3 ADD SWAP1 POP SWAP2 SWAP1 POP JUMP JUMPDEST PUSH0 DUP3 DUP3 MSTORE PUSH1 0x20 DUP3 ADD SWAP1 POP SWAP3 SWAP2 POP POP JUMP JUMPDEST PUSH0 PUSH2 0x1253 DUP3 PUSH2 0x1157 JUMP JUMPDEST PUSH2 0x125D DUP2 DUP6 PUSH2 0x1239 JUMP JUMPDEST SWAP4 POP PUSH2 0x126D DUP2 DUP6 PUSH1 0x20 DUP7 ADD PUSH2 0x1171 JUMP JUMPDEST PUSH2 0x1276 DUP2 PUSH2 0xF9E JUMP JUMPDEST DUP5 ADD SWAP2 POP POP SWAP3 SWAP2 POP POP JUMP JUMPDEST PUSH0 PUSH2 0x128C DUP4 DUP4 PUSH2 0x1249 JUMP JUMPDEST SWAP1 POP SWAP3 SWAP2 POP POP JUMP JUMPDEST PUSH0 PUSH1 0x20 DUP3 ADD SWAP1 POP SWAP2 SWAP1 POP JUMP JUMPDEST PUSH0 PUSH2 0x12AA DUP3 PUSH2 0x1210 JUMP JUMPDEST PUSH2 0x12B4 DUP2 DUP6 PUSH2 0x121A JUMP JUMPDEST SWAP4 POP DUP4 PUSH1 0x20 DUP3 MUL DUP6 ADD PUSH2 0x12C6 DUP6 PUSH2 0x122A JUMP JUMPDEST DUP1 PUSH0 JUMPDEST DUP6 DUP2 LT ISZERO PUSH2 0x1301 JUMPI DUP5 DUP5 SUB DUP10 MSTORE DUP2 MLOAD PUSH2 0x12E2 DUP6 DUP3 PUSH2 0x1281 JUMP JUMPDEST SWAP5 POP PUSH2 0x12ED DUP4 PUSH2 0x1294 JUMP JUMPDEST SWAP3 POP PUSH1 0x20 DUP11 ADD SWAP10 POP POP PUSH1 0x1 DUP2 ADD SWAP1 POP PUSH2 0x12C9 JUMP JUMPDEST POP DUP3 SWAP8 POP DUP8 SWAP6 POP POP POP POP POP POP SWAP3 SWAP2 POP POP JUMP JUMPDEST PUSH0 DUP2 MLOAD SWAP1 POP SWAP2 SWAP1 POP JUMP JUMPDEST PUSH0 DUP3 DUP3 MSTORE PUSH1 0x20 DUP3 ADD SWAP1 POP SWAP3 SWAP2 POP POP JUMP JUMPDEST PUSH0 DUP2 SWAP1 POP PUSH1 0x20 DUP3 ADD SWAP1 POP SWAP2 SWAP1 POP JUMP JUMPDEST PUSH2 0x1345 DUP2 PUSH2 0xF2A JUMP JUMPDEST DUP3 MSTORE POP POP JUMP JUMPDEST PUSH0 PUSH2 0x1356 DUP4 DUP4 PUSH2 0x133C JUMP JUMPDEST PUSH1 0x20 DUP4 ADD SWAP1 POP SWAP3 SWAP2 POP POP JUMP JUMPDEST PUSH0 PUSH1 0x20 DUP3 ADD SWAP1 POP SWAP2 SWAP1 POP JUMP JUMPDEST PUSH0 PUSH2 0x1378 DUP3 PUSH2 0x1313 JUMP JUMPDEST PUSH2 0x1382 DUP2 DUP6 PUSH2 0x131D JUMP JUMPDEST SWAP4 POP PUSH2 0x138D DUP4 PUSH2 0x132D JUMP JUMPDEST DUP1 PUSH0 JUMPDEST DUP4 DUP2 LT ISZERO PUSH2 0x13BD JUMPI DUP2 MLOAD PUSH2 0x13A4 DUP9 DUP3 PUSH2 0x134B JUMP JUMPDEST SWAP8 POP PUSH2 0x13AF DUP4 PUSH2 0x1362 JUMP JUMPDEST SWAP3 POP POP PUSH1 0x1 DUP2 ADD SWAP1 POP PUSH2 0x1390 JUMP JUMPDEST POP DUP6 SWAP4 POP POP POP POP SWAP3 SWAP2 POP POP JUMP JUMPDEST PUSH0 PUSH1 0xA0 DUP3 ADD SWAP1 POP DUP2 DUP2 SUB PUSH0 DUP4 ADD MSTORE PUSH2 0x13E2 DUP2 DUP9 PUSH2 0x117F JUMP JUMPDEST SWAP1 POP PUSH2 0x13F1 PUSH1 0x20 DUP4 ADD DUP8 PUSH2 0x11E7 JUMP JUMPDEST PUSH2 0x13FE PUSH1 0x40 DUP4 ADD DUP7 PUSH2 0x1201 JUMP JUMPDEST DUP2 DUP2 SUB PUSH1 0x60 DUP4 ADD MSTORE PUSH2 0x1410 DUP2 DUP6 PUSH2 0x12A0 JUMP JUMPDEST SWAP1 POP DUP2 DUP2 SUB PUSH1 0x80 DUP4 ADD MSTORE PUSH2 0x1424 DUP2 DUP5 PUSH2 0x136E JUMP JUMPDEST SWAP1 POP SWAP7 SWAP6 POP POP POP POP POP POP JUMP JUMPDEST PUSH0 PUSH1 0x20 DUP3 DUP5 SUB SLT ISZERO PUSH2 0x1445 JUMPI PUSH2 0x1444 PUSH2 0xF64 JUMP JUMPDEST JUMPDEST PUSH0 DUP3 ADD CALLDATALOAD PUSH8 0xFFFFFFFFFFFFFFFF DUP2 GT ISZERO PUSH2 0x1462 JUMPI PUSH2 0x1461 PUSH2 0xF68 JUMP JUMPDEST JUMPDEST PUSH2 0x146E DUP5 DUP3 DUP6 ADD PUSH2 0x10A5 JUMP JUMPDEST SWAP2 POP POP SWAP3 SWAP2 POP POP JUMP JUMPDEST PUSH0 DUP2 MLOAD SWAP1 POP SWAP2 SWAP1 POP JUMP JUMPDEST PUSH0 DUP3 DUP3 MSTORE PUSH1 0x20 DUP3 ADD SWAP1 POP SWAP3 SWAP2 POP POP JUMP JUMPDEST PUSH0 DUP2 SWAP1 POP PUSH1 0x20 DUP3 ADD SWAP1 POP SWAP2 SWAP1 POP JUMP JUMPDEST PUSH2 0x14A9 DUP2 PUSH2 0x11D6 JUMP JUMPDEST DUP3 MSTORE POP POP JUMP JUMPDEST PUSH0 PUSH2 0x14BA DUP4 DUP4 PUSH2 0x14A0 JUMP JUMPDEST PUSH1 0x20 DUP4 ADD SWAP1 POP SWAP3 SWAP2 POP POP JUMP JUMPDEST PUSH0 PUSH1 0x20 DUP3 ADD SWAP1 POP SWAP2 SWAP1 POP JUMP JUMPDEST PUSH0 PUSH2 0x14DC DUP3 PUSH2 0x1477 JUMP JUMPDEST PUSH2 0x14E6 DUP2 DUP6 PUSH2 0x1481 JUMP JUMPDEST SWAP4 POP PUSH2 0x14F1 DUP4 PUSH2 0x1491 JUMP JUMPDEST DUP1 PUSH0 JUMPDEST DUP4 DUP2 LT ISZERO PUSH2 0x1521 JUMPI DUP2 MLOAD PUSH2 0x1508 DUP9 DUP3 PUSH2 0x14AF JUMP JUMPDEST SWAP8 POP PUSH2 0x1513 DUP4 PUSH2 0x14C6 JUMP JUMPDEST SWAP3 POP POP PUSH1 0x1 DUP2 ADD SWAP1 POP PUSH2 0x14F4 JUMP JUMPDEST POP DUP6 SWAP4 POP POP POP POP SWAP3 SWAP2 POP POP JUMP JUMPDEST PUSH0 DUP2 MLOAD SWAP1 POP SWAP2 SWAP1 POP JUMP JUMPDEST PUSH0 DUP3 DUP3 MSTORE PUSH1 0x20 DUP3 ADD SWAP1 POP SWAP3 SWAP2 POP POP JUMP JUMPDEST PUSH0 DUP2 SWAP1 POP PUSH1 0x20 DUP3 ADD SWAP1 POP SWAP2 SWAP1 POP JUMP JUMPDEST PUSH2 0x1560 DUP2 PUSH2 0x11F6 JUMP JUMPDEST DUP3 MSTORE POP POP JUMP JUMPDEST PUSH0 PUSH2 0x1571 DUP4 DUP4 PUSH2 0x1557 JUMP JUMPDEST PUSH1 0x20 DUP4 ADD SWAP1 POP SWAP3 SWAP2 POP POP JUMP JUMPDEST PUSH0 PUSH1 0x20 DUP3 ADD SWAP1 POP SWAP2 SWAP1 POP JUMP JUMPDEST PUSH0 PUSH2 0x1593 DUP3 PUSH2 0x152E JUMP JUMPDEST PUSH2 0x159D DUP2 DUP6 PUSH2 0x1538 JUMP JUMPDEST SWAP4 POP PUSH2 0x15A8 DUP4 PUSH2 0x1548 JUMP JUMPDEST DUP1 PUSH0 JUMPDEST DUP4 DUP2 LT ISZERO PUSH2 0x15D8 JUMPI DUP2 MLOAD PUSH2 0x15BF DUP9 DUP3 PUSH2 0x1566 JUMP JUMPDEST SWAP8 POP PUSH2 0x15CA DUP4 PUSH2 0x157D JUMP JUMPDEST SWAP3 POP POP PUSH1 0x1 DUP2 ADD SWAP1 POP PUSH2 0x15AB JUMP JUMPDEST POP DUP6 SWAP4 POP POP POP POP SWAP3 SWAP2 POP POP JUMP JUMPDEST PUSH0 DUP2 MLOAD SWAP1 POP SWAP2 SWAP1 POP JUMP JUMPDEST PUSH0 DUP3 DUP3 MSTORE PUSH1 0x20 DUP3 ADD SWAP1 POP SWAP3 SWAP2 POP POP JUMP JUMPDEST PUSH0 DUP2 SWAP1 POP PUSH1 0x20 DUP3 ADD SWAP1 POP SWAP2 SWAP1 POP JUMP JUMPDEST PUSH0 DUP2 MLOAD SWAP1 POP SWAP2 SWAP1 POP JUMP JUMPDEST PUSH0 DUP3 DUP3 MSTORE PUSH1 0x20 DUP3 ADD SWAP1 POP SWAP3 SWAP2 POP POP JUMP JUMPDEST PUSH0 DUP2 SWAP1 POP PUSH1 0x20 DUP3 ADD SWAP1 POP SWAP2 SWAP1 POP JUMP JUMPDEST PUSH0 PUSH1 0x40 DUP4 ADD PUSH0 DUP4 ADD MLOAD DUP5 DUP3 SUB PUSH0 DUP7 ADD MSTORE PUSH2 0x1651 DUP3 DUP3 PUSH2 0x1249 JUMP JUMPDEST SWAP2 POP POP PUSH1 0x20 DUP4 ADD MLOAD PUSH2 0x1666 PUSH1 0x20 DUP7 ADD DUP3 PUSH2 0x133C JUMP JUMPDEST POP DUP1 SWAP2 POP POP SWAP3 SWAP2 POP POP JUMP JUMPDEST PUSH0 PUSH2 0x167C DUP4 DUP4 PUSH2 0x1637 JUMP JUMPDEST SWAP1 POP SWAP3 SWAP2 POP POP JUMP JUMPDEST PUSH0 PUSH1 0x20 DUP3 ADD SWAP1 POP SWAP2 SWAP1 POP JUMP JUMPDEST PUSH0 PUSH2 0x169A DUP3 PUSH2 0x160E JUMP JUMPDEST PUSH2 0x16A4 DUP2 DUP6 PUSH2 0x1618 JUMP JUMPDEST SWAP4 POP DUP4 PUSH1 0x20 DUP3 MUL DUP6 ADD PUSH2 0x16B6 DUP6 PUSH2 0x1628 JUMP JUMPDEST DUP1 PUSH0 JUMPDEST DUP6 DUP2 LT ISZERO PUSH2 0x16F1 JUMPI DUP5 DUP5 SUB DUP10 MSTORE DUP2 MLOAD PUSH2 0x16D2 DUP6 DUP3 PUSH2 0x1671 JUMP JUMPDEST SWAP5 POP PUSH2 0x16DD DUP4 PUSH2 0x1684 JUMP JUMPDEST SWAP3 POP PUSH1 0x20 DUP11 ADD SWAP10 POP POP PUSH1 0x1 DUP2 ADD SWAP1 POP PUSH2 0x16B9 JUMP JUMPDEST POP DUP3 SWAP8 POP DUP8 SWAP6 POP POP POP POP POP POP SWAP3 SWAP2 POP POP JUMP JUMPDEST PUSH0 PUSH2 0x170E DUP4 DUP4 PUSH2 0x1690 JUMP JUMPDEST SWAP1 POP SWAP3 SWAP2 POP POP JUMP JUMPDEST PUSH0 PUSH1 0x20 DUP3 ADD SWAP1 POP SWAP2 SWAP1 POP JUMP JUMPDEST PUSH0 PUSH2 0x172C DUP3 PUSH2 0x15E5 JUMP JUMPDEST PUSH2 0x1736 DUP2 DUP6 PUSH2 0x15EF JUMP JUMPDEST SWAP4 POP DUP4 PUSH1 0x20 DUP3 MUL DUP6 ADD PUSH2 0x1748 DUP6 PUSH2 0x15FF JUMP JUMPDEST DUP1 PUSH0 JUMPDEST DUP6 DUP2 LT ISZERO PUSH2 0x1783 JUMPI DUP5 DUP5 SUB DUP10 MSTORE DUP2 MLOAD PUSH2 0x1764 DUP6 DUP3 PUSH2 0x1703 JUMP JUMPDEST SWAP5 POP PUSH2 0x176F DUP4 PUSH2 0x1716 JUMP JUMPDEST SWAP3 POP PUSH1 0x20 DUP11 ADD SWAP10 POP POP PUSH1 0x1 DUP2 ADD SWAP1 POP PUSH2 0x174B JUMP JUMPDEST POP DUP3 SWAP8 POP DUP8 SWAP6 POP POP POP POP POP POP SWAP3 SWAP2 POP POP JUMP JUMPDEST PUSH0 DUP2 MLOAD SWAP1 POP SWAP2 SWAP1 POP JUMP JUMPDEST PUSH0 DUP3 DUP3 MSTORE PUSH1 0x20 DUP3 ADD SWAP1 POP SWAP3 SWAP2 POP POP JUMP JUMPDEST PUSH0 DUP2 SWAP1 POP PUSH1 0x20 DUP3 ADD SWAP1 POP SWAP2 SWAP1 POP JUMP JUMPDEST PUSH0 DUP3 DUP3 MSTORE PUSH1 0x20 DUP3 ADD SWAP1 POP SWAP3 SWAP2 POP POP JUMP JUMPDEST PUSH0 PUSH2 0x17D8 DUP3 PUSH2 0x1477 JUMP JUMPDEST PUSH2 0x17E2 DUP2 DUP6 PUSH2 0x17BE JUMP JUMPDEST SWAP4 POP PUSH2 0x17ED DUP4 PUSH2 0x1491 JUMP JUMPDEST DUP1 PUSH0 JUMPDEST DUP4 DUP2 LT ISZERO PUSH2 0x181D JUMPI DUP2 MLOAD PUSH2 0x1804 DUP9 DUP3 PUSH2 0x14AF JUMP JUMPDEST SWAP8 POP PUSH2 0x180F DUP4 PUSH2 0x14C6 JUMP JUMPDEST SWAP3 POP POP PUSH1 0x1 DUP2 ADD SWAP1 POP PUSH2 0x17F0 JUMP JUMPDEST POP DUP6 SWAP4 POP POP POP POP SWAP3 SWAP2 POP POP JUMP JUMPDEST PUSH0 PUSH2 0x1835 DUP4 DUP4 PUSH2 0x17CE JUMP JUMPDEST SWAP1 POP SWAP3 SWAP2 POP POP JUMP JUMPDEST PUSH0 PUSH1 0x20 DUP3 ADD SWAP1 POP SWAP2 SWAP1 POP JUMP JUMPDEST PUSH0 PUSH2 0x1853 DUP3 PUSH2 0x1795 JUMP JUMPDEST PUSH2 0x185D DUP2 DUP6 PUSH2 0x179F JUMP JUMPDEST SWAP4 POP DUP4 PUSH1 0x20 DUP3 MUL DUP6 ADD PUSH2 0x186F DUP6 PUSH2 0x17AF JUMP JUMPDEST DUP1 PUSH0 JUMPDEST DUP6 DUP2 LT ISZERO PUSH2 0x18AA JUMPI DUP5 DUP5 SUB DUP10 MSTORE DUP2 MLOAD PUSH2 0x188B DUP6 DUP3 PUSH2 0x182A JUMP JUMPDEST SWAP5 POP PUSH2 0x1896 DUP4 PUSH2 0x183D JUMP JUMPDEST SWAP3 POP PUSH1 0x20 DUP11 ADD SWAP10 POP POP PUSH1 0x1 DUP2 ADD SWAP1 POP PUSH2 0x1872 JUMP JUMPDEST POP DUP3 SWAP8 POP DUP8 SWAP6 POP POP POP POP POP POP SWAP3 SWAP2 POP POP JUMP JUMPDEST PUSH0 PUSH1 0xA0 DUP3 ADD SWAP1 POP DUP2 DUP2 SUB PUSH0 DUP4 ADD MSTORE PUSH2 0x18D4 DUP2 DUP9 PUSH2 0x12A0 JUMP JUMPDEST SWAP1 POP DUP2 DUP2 SUB PUSH1 0x20 DUP4 ADD MSTORE PUSH2 0x18E8 DUP2 DUP8 PUSH2 0x14D2 JUMP JUMPDEST SWAP1 POP DUP2 DUP2 SUB PUSH1 0x40 DUP4 ADD MSTORE PUSH2 0x18FC DUP2 DUP7 PUSH2 0x1589 JUMP JUMPDEST SWAP1 POP DUP2 DUP2 SUB PUSH1 0x60 DUP4 ADD MSTORE PUSH2 0x1910 DUP2 DUP6 PUSH2 0x1722 JUMP JUMPDEST SWAP1 POP DUP2 DUP2 SUB PUSH1 0x80 DUP4 ADD MSTORE PUSH2 0x1924 DUP2 DUP5 PUSH2 0x1849 JUMP JUMPDEST SWAP1 POP SWAP7 SWAP6 POP POP POP POP POP POP JUMP JUMPDEST PUSH0 PUSH1 0x60 DUP3 ADD SWAP1 POP DUP2 DUP2 SUB PUSH0 DUP4 ADD MSTORE PUSH2 0x1948 DUP2 DUP7 PUSH2 0x117F JUMP JUMPDEST SWAP1 POP PUSH2 0x1957 PUSH1 0x20 DUP4 ADD DUP6 PUSH2 0x11E7 JUMP JUMPDEST PUSH2 0x1964 PUSH1 0x40 DUP4 ADD DUP5 PUSH2 0x1201 JUMP JUMPDEST SWAP5 SWAP4 POP POP POP POP JUMP JUMPDEST PUSH0 DUP1 PUSH1 0x40 DUP4 DUP6 SUB SLT ISZERO PUSH2 0x1982 JUMPI PUSH2 0x1981 PUSH2 0xF64 JUMP JUMPDEST JUMPDEST PUSH0 PUSH2 0x198F DUP6 DUP3 DUP7 ADD PUSH2 0xF82 JUMP JUMPDEST SWAP3 POP POP PUSH1 0x20 PUSH2 0x19A0 DUP6 DUP3 DUP7 ADD PUSH2 0xF82 JUMP JUMPDEST SWAP2 POP POP SWAP3 POP SWAP3 SWAP1 POP JUMP JUMPDEST PUSH32 0x4E487B7100000000000000000000000000000000000000000000000000000000 PUSH0 MSTORE PUSH1 0x32 PUSH1 0x4 MSTORE PUSH1 0x24 PUSH0 REVERT JUMPDEST PUSH32 0x4F6E6C7920746865206F776E65722063616E206164642063616E646964617465 PUSH0 DUP3 ADD MSTORE PUSH32 0x7300000000000000000000000000000000000000000000000000000000000000 PUSH1 0x20 DUP3 ADD MSTORE POP JUMP JUMPDEST PUSH0 PUSH2 0x1A31 PUSH1 0x21 DUP4 PUSH2 0x1161 JUMP JUMPDEST SWAP2 POP PUSH2 0x1A3C DUP3 PUSH2 0x19D7 JUMP JUMPDEST PUSH1 0x40 DUP3 ADD SWAP1 POP SWAP2 SWAP1 POP JUMP JUMPDEST PUSH0 PUSH1 0x20 DUP3 ADD SWAP1 POP DUP2 DUP2 SUB PUSH0 DUP4 ADD MSTORE PUSH2 0x1A5E DUP2 PUSH2 0x1A25 JUMP JUMPDEST SWAP1 POP SWAP2 SWAP1 POP JUMP JUMPDEST PUSH32 0x4E487B7100000000000000000000000000000000000000000000000000000000 PUSH0 MSTORE PUSH1 0x22 PUSH1 0x4 MSTORE PUSH1 0x24 PUSH0 REVERT JUMPDEST PUSH0 PUSH1 0x2 DUP3 DIV SWAP1 POP PUSH1 0x1 DUP3 AND DUP1 PUSH2 0x1AA9 JUMPI PUSH1 0x7F DUP3 AND SWAP2 POP JUMPDEST PUSH1 0x20 DUP3 LT DUP2 SUB PUSH2 0x1ABC JUMPI PUSH2 0x1ABB PUSH2 0x1A65 JUMP JUMPDEST JUMPDEST POP SWAP2 SWAP1 POP JUMP JUMPDEST PUSH0 DUP2 SWAP1 POP DUP2 PUSH0 MSTORE PUSH1 0x20 PUSH0 KECCAK256 SWAP1 POP SWAP2 SWAP1 POP JUMP JUMPDEST PUSH0 PUSH1 0x20 PUSH1 0x1F DUP4 ADD DIV SWAP1 POP SWAP2 SWAP1 POP JUMP JUMPDEST PUSH0 DUP3 DUP3 SHL SWAP1 POP SWAP3 SWAP2 POP POP JUMP JUMPDEST PUSH0 PUSH1 0x8 DUP4 MUL PUSH2 0x1B1E PUSH32 0xFFFFFFFFFFFFFFFFFFFFFFFFFFFFFFFFFFFFFFFFFFFFFFFFFFFFFFFFFFFFFFFF DUP3 PUSH2 0x1AE3 JUMP JUMPDEST PUSH2 0x1B28 DUP7 DUP4 PUSH2 0x1AE3 JUMP JUMPDEST SWAP6 POP DUP1 NOT DUP5 AND SWAP4 POP DUP1 DUP7 AND DUP5 OR SWAP3 POP POP POP SWAP4 SWAP3 POP POP POP JUMP JUMPDEST PUSH0 DUP2 SWAP1 POP SWAP2 SWAP1 POP JUMP JUMPDEST PUSH0 PUSH2 0x1B63 PUSH2 0x1B5E PUSH2 0x1B59 DUP5 PUSH2 0xF2A JUMP JUMPDEST PUSH2 0x1B40 JUMP JUMPDEST PUSH2 0xF2A JUMP JUMPDEST SWAP1 POP SWAP2 SWAP1 POP JUMP JUMPDEST PUSH0 DUP2 SWAP1 POP SWAP2 SWAP1 POP JUMP JUMPDEST PUSH2 0x1B7C DUP4 PUSH2 0x1B49 JUMP JUMPDEST PUSH2 0x1B90 PUSH2 0x1B88 DUP3 PUSH2 0x1B6A JUMP JUMPDEST DUP5 DUP5 SLOAD PUSH2 0x1AEF JUMP JUMPDEST DUP3 SSTORE POP POP POP POP JUMP JUMPDEST PUSH0 SWAP1 JUMP JUMPDEST PUSH2 0x1BA4 PUSH2 0x1B98 JUMP JUMPDEST PUSH2 0x1BAF DUP2 DUP5 DUP5 PUSH2 0x1B73 JUMP JUMPDEST POP POP POP JUMP JUMPDEST JUMPDEST DUP2 DUP2 LT ISZERO PUSH2 0x1BD2 JUMPI PUSH2 0x1BC7 PUSH0 DUP3 PUSH2 0x1B9C JUMP JUMPDEST PUSH1 0x1 DUP2 ADD SWAP1 POP PUSH2 0x1BB5 JUMP JUMPDEST POP POP JUMP JUMPDEST PUSH1 0x1F DUP3 GT ISZERO PUSH2 0x1C17 JUMPI PUSH2 0x1BE8 DUP2 PUSH2 0x1AC2 JUMP JUMPDEST PUSH2 0x1BF1 DUP5 PUSH2 0x1AD4 JUMP JUMPDEST DUP2 ADD PUSH1 0x20 DUP6 LT ISZERO PUSH2 0x1C00 JUMPI DUP2 SWAP1 POP JUMPDEST PUSH2 0x1C14 PUSH2 0x1C0C DUP6 PUSH2 0x1AD4 JUMP JUMPDEST DUP4 ADD DUP3 PUSH2 0x1BB4 JUMP JUMPDEST POP POP JUMPDEST POP POP POP JUMP JUMPDEST PUSH0 DUP3 DUP3 SHR SWAP1 POP SWAP3 SWAP2 POP POP JUMP JUMPDEST PUSH0 PUSH2 0x1C37 PUSH0 NOT DUP5 PUSH1 0x8 MUL PUSH2 0x1C1C JUMP JUMPDEST NOT DUP1 DUP4 AND SWAP2 POP POP SWAP3 SWAP2 POP POP JUMP JUMPDEST PUSH0 PUSH2 0x1C4F DUP4 DUP4 PUSH2 0x1C28 JUMP JUMPDEST SWAP2 POP DUP3 PUSH1 0x2 MUL DUP3 OR SWAP1 POP SWAP3 SWAP2 POP POP JUMP JUMPDEST PUSH2 0x1C68 DUP3 PUSH2 0x1157 JUMP JUMPDEST PUSH8 0xFFFFFFFFFFFFFFFF DUP2 GT ISZERO PUSH2 0x1C81 JUMPI PUSH2 0x1C80 PUSH2 0xFAE JUMP JUMPDEST JUMPDEST PUSH2 0x1C8B DUP3 SLOAD PUSH2 0x1A92 JUMP JUMPDEST PUSH2 0x1C96 DUP3 DUP3 DUP6 PUSH2 0x1BD6 JUMP JUMPDEST PUSH0 PUSH1 0x20 SWAP1 POP PUSH1 0x1F DUP4 GT PUSH1 0x1 DUP2 EQ PUSH2 0x1CC7 JUMPI PUSH0 DUP5 ISZERO PUSH2 0x1CB5 JUMPI DUP3 DUP8 ADD MLOAD SWAP1 POP JUMPDEST PUSH2 0x1CBF DUP6 DUP3 PUSH2 0x1C44 JUMP JUMPDEST DUP7 SSTORE POP PUSH2 0x1D26 JUMP JUMPDEST PUSH1 0x1F NOT DUP5 AND PUSH2 0x1CD5 DUP7 PUSH2 0x1AC2 JUMP JUMPDEST PUSH0 JUMPDEST DUP3 DUP2 LT ISZERO PUSH2 0x1CFC JUMPI DUP5 DUP10 ADD MLOAD DUP3 SSTORE PUSH1 0x1 DUP3 ADD SWAP2 POP PUSH1 0x20 DUP6 ADD SWAP5 POP PUSH1 0x20 DUP2 ADD SWAP1 POP PUSH2 0x1CD7 JUMP JUMPDEST DUP7 DUP4 LT ISZERO PUSH2 0x1D19 JUMPI DUP5 DUP10 ADD MLOAD PUSH2 0x1D15 PUSH1 0x1F DUP10 AND DUP3 PUSH2 0x1C28 JUMP JUMPDEST DUP4 SSTORE POP JUMPDEST PUSH1 0x1 PUSH1 0x2 DUP9 MUL ADD DUP9 SSTORE POP POP POP JUMPDEST POP POP POP POP POP POP JUMP JUMPDEST PUSH32 0x4E487B7100000000000000000000000000000000000000000000000000000000 PUSH0 MSTORE PUSH1 0x11 PUSH1 0x4 MSTORE PUSH1 0x24 PUSH0 REVERT JUMPDEST PUSH0 PUSH2 0x1D65 DUP3 PUSH2 0xF2A JUMP JUMPDEST SWAP2 POP PUSH2 0x1D70 DUP4 PUSH2 0xF2A JUMP JUMPDEST SWAP3 POP DUP3 DUP3 SUB SWAP1 POP DUP2 DUP2 GT ISZERO PUSH2 0x1D88 JUMPI PUSH2 0x1D87 PUSH2 0x1D2E JUMP JUMPDEST JUMPDEST SWAP3 SWAP2 POP POP JUMP JUMPDEST PUSH0 PUSH1 0x60 DUP3 ADD SWAP1 POP PUSH2 0x1DA1 PUSH0 DUP4 ADD DUP7 PUSH2 0xF33 JUMP JUMPDEST DUP2 DUP2 SUB PUSH1 0x20 DUP4 ADD MSTORE PUSH2 0x1DB3 DUP2 DUP6 PUSH2 0x117F JUMP JUMPDEST SWAP1 POP PUSH2 0x1DC2 PUSH1 0x40 DUP4 ADD DUP5 PUSH2 0x11E7 JUMP JUMPDEST SWAP5 SWAP4 POP POP POP POP JUMP JUMPDEST PUSH32 0x506F6C6C206973206E6F74206163746976650000000000000000000000000000 PUSH0 DUP3 ADD MSTORE POP JUMP JUMPDEST PUSH0 PUSH2 0x1DFE PUSH1 0x12 DUP4 PUSH2 0x1161 JUMP JUMPDEST SWAP2 POP PUSH2 0x1E09 DUP3 PUSH2 0x1DCA JUMP JUMPDEST PUSH1 0x20 DUP3 ADD SWAP1 POP SWAP2 SWAP1 POP JUMP JUMPDEST PUSH0 PUSH1 0x20 DUP3 ADD SWAP1 POP DUP2 DUP2 SUB PUSH0 DUP4 ADD MSTORE PUSH2 0x1E2B DUP2 PUSH2 0x1DF2 JUMP JUMPDEST SWAP1 POP SWAP2 SWAP1 POP JUMP JUMPDEST PUSH32 0x596F75206861766520616C726561647920766F74656400000000000000000000 PUSH0 DUP3 ADD MSTORE POP JUMP JUMPDEST PUSH0 PUSH2 0x1E66 PUSH1 0x16 DUP4 PUSH2 0x1161 JUMP JUMPDEST SWAP2 POP PUSH2 0x1E71 DUP3 PUSH2 0x1E32 JUMP JUMPDEST PUSH1 0x20 DUP3 ADD SWAP1 POP SWAP2 SWAP1 POP JUMP JUMPDEST PUSH0 PUSH1 0x20 DUP3 ADD SWAP1 POP DUP2 DUP2 SUB PUSH0 DUP4 ADD MSTORE PUSH2 0x1E93 DUP2 PUSH2 0x1E5A JUMP JUMPDEST SWAP1 POP SWAP2 SWAP1 POP JUMP JUMPDEST PUSH32 0x496E76616C69642063616E64696461746520696E646578000000000000000000 PUSH0 DUP3 ADD MSTORE POP JUMP JUMPDEST PUSH0 PUSH2 0x1ECE PUSH1 0x17 DUP4 PUSH2 0x1161 JUMP JUMPDEST SWAP2 POP PUSH2 0x1ED9 DUP3 PUSH2 0x1E9A JUMP JUMPDEST PUSH1 0x20 DUP3 ADD SWAP1 POP SWAP2 SWAP1 POP JUMP JUMPDEST PUSH0 PUSH1 0x20 DUP3 ADD SWAP1 POP DUP2 DUP2 SUB PUSH0 DUP4 ADD MSTORE PUSH2 0x1EFB DUP2 PUSH2 0x1EC2 JUMP JUMPDEST SWAP1 POP SWAP2 SWAP1 POP JUMP JUMPDEST PUSH0 PUSH2 0x1F0C DUP3 PUSH2 0xF2A JUMP JUMPDEST SWAP2 POP PUSH32 0xFFFFFFFFFFFFFFFFFFFFFFFFFFFFFFFFFFFFFFFFFFFFFFFFFFFFFFFFFFFFFFFF DUP3 SUB PUSH2 0x1F3E JUMPI PUSH2 0x1F3D PUSH2 0x1D2E JUMP JUMPDEST JUMPDEST PUSH1 0x1 DUP3 ADD SWAP1 POP SWAP2 SWAP1 POP JUMP INVALID LOG2 PUSH5 0x6970667358 0x22 SLT KECCAK256 EXTCODECOPY 0xD4 SWAP14 DUP15 PUSH30 0xF7DFA9B82EAF0FA7187F21F40D1CC74022ED737A44C728D5F086B64736F PUSH13 0x634300081A0033000000000000 "
				},
				"gasEstimates": {
					"creation": {
						"codeDepositCost": "1612600",
						"executionCost": "1685",
						"totalCost": "1614285"
					},
					"external": {
						"addCandidate(uint256,string)": "infinite",
						"createPoll(string)": "infinite",
						"deletePoll(uint256)": "26969",
						"getAllPoll()": "infinite",
						"getPollCount()": "2441",
						"getPollResults(uint256)": "infinite",
						"polls(uint256)": "infinite",
						"vote(uint256,uint256)": "infinite"
					}
				},
				"methodIdentifiers": {
					"addCandidate(uint256,string)": "1750a3d0",
					"createPoll(string)": "74a9ced9",
					"deletePoll(uint256)": "1f35b51d",
					"getAllPoll()": "9844f215",
					"getPollCount()": "11a52746",
					"getPollResults(uint256)": "33b4097b",
					"polls(uint256)": "ac2f0074",
					"vote(uint256,uint256)": "b384abef"
				}
			},
			"storageLayout": {
				"storage": [
					{
						"astId": 32,
						"contract": "blockchain/practice/vote-app.sol:Vote",
						"label": "polls",
						"offset": 0,
						"slot": "0",
						"type": "t_array(t_struct(Poll)28_storage)dyn_storage"
					}
				],
				"types": {
					"t_address": {
						"encoding": "inplace",
						"label": "address",
						"numberOfBytes": "20"
					},
					"t_array(t_address)dyn_storage": {
						"base": "t_address",
						"encoding": "dynamic_array",
						"label": "address[]",
						"numberOfBytes": "32"
					},
					"t_array(t_struct(Candidate)6_storage)dyn_storage": {
						"base": "t_struct(Candidate)6_storage",
						"encoding": "dynamic_array",
						"label": "struct Vote.Candidate[]",
						"numberOfBytes": "32"
					},
					"t_array(t_struct(Poll)28_storage)dyn_storage": {
						"base": "t_struct(Poll)28_storage",
						"encoding": "dynamic_array",
						"label": "struct Vote.Poll[]",
						"numberOfBytes": "32"
					},
					"t_bool": {
						"encoding": "inplace",
						"label": "bool",
						"numberOfBytes": "1"
					},
					"t_mapping(t_address,t_struct(Voter)9_storage)": {
						"encoding": "mapping",
						"key": "t_address",
						"label": "mapping(address => struct Vote.Voter)",
						"numberOfBytes": "32",
						"value": "t_struct(Voter)9_storage"
					},
					"t_string_storage": {
						"encoding": "bytes",
						"label": "string",
						"numberOfBytes": "32"
					},
					"t_struct(Candidate)6_storage": {
						"encoding": "inplace",
						"label": "struct Vote.Candidate",
						"members": [
							{
								"astId": 3,
								"contract": "blockchain/practice/vote-app.sol:Vote",
								"label": "name",
								"offset": 0,
								"slot": "0",
								"type": "t_string_storage"
							},
							{
								"astId": 5,
								"contract": "blockchain/practice/vote-app.sol:Vote",
								"label": "upVote",
								"offset": 0,
								"slot": "1",
								"type": "t_uint256"
							}
						],
						"numberOfBytes": "64"
					},
					"t_struct(Poll)28_storage": {
						"encoding": "inplace",
						"label": "struct Vote.Poll",
						"members": [
							{
								"astId": 11,
								"contract": "blockchain/practice/vote-app.sol:Vote",
								"label": "question",
								"offset": 0,
								"slot": "0",
								"type": "t_string_storage"
							},
							{
								"astId": 15,
								"contract": "blockchain/practice/vote-app.sol:Vote",
								"label": "candidates",
								"offset": 0,
								"slot": "1",
								"type": "t_array(t_struct(Candidate)6_storage)dyn_storage"
							},
							{
								"astId": 20,
								"contract": "blockchain/practice/vote-app.sol:Vote",
								"label": "voters",
								"offset": 0,
								"slot": "2",
								"type": "t_mapping(t_address,t_struct(Voter)9_storage)"
							},
							{
								"astId": 22,
								"contract": "blockchain/practice/vote-app.sol:Vote",
								"label": "owner",
								"offset": 0,
								"slot": "3",
								"type": "t_address"
							},
							{
								"astId": 24,
								"contract": "blockchain/practice/vote-app.sol:Vote",
								"label": "isActive",
								"offset": 20,
								"slot": "3",
								"type": "t_bool"
							},
							{
								"astId": 27,
								"contract": "blockchain/practice/vote-app.sol:Vote",
								"label": "voterAddresses",
								"offset": 0,
								"slot": "4",
								"type": "t_array(t_address)dyn_storage"
							}
						],
						"numberOfBytes": "160"
					},
					"t_struct(Voter)9_storage": {
						"encoding": "inplace",
						"label": "struct Vote.Voter",
						"members": [
							{
								"astId": 8,
								"contract": "blockchain/practice/vote-app.sol:Vote",
								"label": "isVoted",
								"offset": 0,
								"slot": "0",
								"type": "t_bool"
							}
						],
						"numberOfBytes": "32"
					},
					"t_uint256": {
						"encoding": "inplace",
						"label": "uint256",
						"numberOfBytes": "32"
					}
				}
			},
			"userdoc": {
				"kind": "user",
				"methods": {},
				"version": 1
			}
		}
	}
}