{
	"blockchain/practice/vote-app.sol": {
		"Vote": {
			"abi": [
				{
					"inputs": [],
					"stateMutability": "nonpayable",
					"type": "constructor"
				},
				{
					"anonymous": false,
					"inputs": [
						{
							"indexed": false,
							"internalType": "string",
							"name": "name",
							"type": "string"
						}
					],
					"name": "AddCandidate",
					"type": "event"
				},
				{
					"anonymous": false,
					"inputs": [
						{
							"indexed": false,
							"internalType": "uint256",
							"name": "index",
							"type": "uint256"
						}
					],
					"name": "DeleteCandidate",
					"type": "event"
				},
				{
					"anonymous": false,
					"inputs": [
						{
							"indexed": false,
							"internalType": "bool",
							"name": "live",
							"type": "bool"
						}
					],
					"name": "FinishVote",
					"type": "event"
				},
				{
					"anonymous": false,
					"inputs": [
						{
							"indexed": false,
							"internalType": "string",
							"name": "candidate",
							"type": "string"
						},
						{
							"indexed": false,
							"internalType": "uint256",
							"name": "upVote",
							"type": "uint256"
						}
					],
					"name": "UpVote",
					"type": "event"
				},
				{
					"anonymous": false,
					"inputs": [
						{
							"indexed": false,
							"internalType": "address",
							"name": "owner",
							"type": "address"
						}
					],
					"name": "Voting",
					"type": "event"
				},
				{
					"inputs": [
						{
							"internalType": "string",
							"name": "_name",
							"type": "string"
						}
					],
					"name": "addCandidate",
					"outputs": [],
					"stateMutability": "nonpayable",
					"type": "function"
				},
				{
					"inputs": [
						{
							"internalType": "uint256",
							"name": "",
							"type": "uint256"
						}
					],
					"name": "candidateList",
					"outputs": [
						{
							"internalType": "string",
							"name": "name",
							"type": "string"
						},
						{
							"internalType": "uint256",
							"name": "upVote",
							"type": "uint256"
						}
					],
					"stateMutability": "view",
					"type": "function"
				},
				{
					"inputs": [
						{
							"internalType": "uint256",
							"name": "_index",
							"type": "uint256"
						}
					],
					"name": "deleteCandidate",
					"outputs": [],
					"stateMutability": "nonpayable",
					"type": "function"
				},
				{
					"inputs": [],
					"name": "finishVote",
					"outputs": [],
					"stateMutability": "nonpayable",
					"type": "function"
				},
				{
					"inputs": [],
					"name": "getAllCandidates",
					"outputs": [
						{
							"components": [
								{
									"internalType": "string",
									"name": "name",
									"type": "string"
								},
								{
									"internalType": "uint256",
									"name": "upVote",
									"type": "uint256"
								}
							],
							"internalType": "struct Vote.candidate[]",
							"name": "",
							"type": "tuple[]"
						}
					],
					"stateMutability": "view",
					"type": "function"
				},
				{
					"inputs": [],
					"name": "getTotalVotes",
					"outputs": [
						{
							"internalType": "uint256",
							"name": "",
							"type": "uint256"
						}
					],
					"stateMutability": "view",
					"type": "function"
				},
				{
					"inputs": [],
					"name": "getUserVote",
					"outputs": [
						{
							"internalType": "string",
							"name": "",
							"type": "string"
						}
					],
					"stateMutability": "view",
					"type": "function"
				},
				{
					"inputs": [],
					"name": "isOwner",
					"outputs": [
						{
							"internalType": "bool",
							"name": "",
							"type": "bool"
						}
					],
					"stateMutability": "view",
					"type": "function"
				},
				{
					"inputs": [],
					"name": "live",
					"outputs": [
						{
							"internalType": "bool",
							"name": "",
							"type": "bool"
						}
					],
					"stateMutability": "view",
					"type": "function"
				},
				{
					"inputs": [],
					"name": "owner",
					"outputs": [
						{
							"internalType": "address",
							"name": "",
							"type": "address"
						}
					],
					"stateMutability": "view",
					"type": "function"
				},
				{
					"inputs": [
						{
							"internalType": "uint256",
							"name": "_index",
							"type": "uint256"
						}
					],
					"name": "upVote",
					"outputs": [],
					"stateMutability": "nonpayable",
					"type": "function"
				},
				{
					"inputs": [
						{
							"internalType": "address",
							"name": "",
							"type": "address"
						}
					],
					"name": "voters",
					"outputs": [
						{
							"internalType": "bool",
							"name": "isVoted",
							"type": "bool"
						},
						{
							"internalType": "uint256",
							"name": "votedCandidateIndex",
							"type": "uint256"
						}
					],
					"stateMutability": "view",
					"type": "function"
				}
			],
			"devdoc": {
				"kind": "dev",
				"methods": {},
				"version": 1
			},
			"evm": {
				"assembly": "    /* \"blockchain/practice/vote-app.sol\":72:3508  contract Vote {... */\n  mstore(0x40, 0x80)\n    /* \"blockchain/practice/vote-app.sol\":921:1020  constructor() {... */\n  callvalue\n  dup1\n  iszero\n  tag_1\n  jumpi\n  0x00\n  dup1\n  revert\ntag_1:\n  pop\n    /* \"blockchain/practice/vote-app.sol\":953:963  msg.sender */\n  caller\n    /* \"blockchain/practice/vote-app.sol\":945:950  owner */\n  0x00\n  0x01\n    /* \"blockchain/practice/vote-app.sol\":945:963  owner = msg.sender */\n  0x0100\n  exp\n  dup2\n  sload\n  dup2\n  0xffffffffffffffffffffffffffffffffffffffff\n  mul\n  not\n  and\n  swap1\n  dup4\n  0xffffffffffffffffffffffffffffffffffffffff\n  and\n  mul\n  or\n  swap1\n  sstore\n  pop\n    /* \"blockchain/practice/vote-app.sol\":980:984  true */\n  0x01\n    /* \"blockchain/practice/vote-app.sol\":973:977  live */\n  0x00\n  dup1\n    /* \"blockchain/practice/vote-app.sol\":973:984  live = true */\n  0x0100\n  exp\n  dup2\n  sload\n  dup2\n  0xff\n  mul\n  not\n  and\n  swap1\n  dup4\n  iszero\n  iszero\n  mul\n  or\n  swap1\n  sstore\n  pop\n    /* \"blockchain/practice/vote-app.sol\":1000:1013  Voting(owner) */\n  0x6d41258e44d7ee79f697248fbce67e06508f6c2a56396009d98f28c105d43e95\n    /* \"blockchain/practice/vote-app.sol\":1007:1012  owner */\n  0x00\n  0x01\n  swap1\n  sload\n  swap1\n  0x0100\n  exp\n  swap1\n  div\n  0xffffffffffffffffffffffffffffffffffffffff\n  and\n    /* \"blockchain/practice/vote-app.sol\":1000:1013  Voting(owner) */\n  mload(0x40)\n  tag_4\n  swap2\n  swap1\n  tag_5\n  jump\t// in\ntag_4:\n  mload(0x40)\n  dup1\n  swap2\n  sub\n  swap1\n  log1\n    /* \"blockchain/practice/vote-app.sol\":72:3508  contract Vote {... */\n  jump(tag_6)\n    /* \"#utility.yul\":7:133   */\ntag_7:\n    /* \"#utility.yul\":44:51   */\n  0x00\n    /* \"#utility.yul\":84:126   */\n  0xffffffffffffffffffffffffffffffffffffffff\n    /* \"#utility.yul\":77:82   */\n  dup3\n    /* \"#utility.yul\":73:127   */\n  and\n    /* \"#utility.yul\":62:127   */\n  swap1\n  pop\n    /* \"#utility.yul\":7:133   */\n  swap2\n  swap1\n  pop\n  jump\t// out\n    /* \"#utility.yul\":139:235   */\ntag_8:\n    /* \"#utility.yul\":176:183   */\n  0x00\n    /* \"#utility.yul\":205:229   */\n  tag_13\n    /* \"#utility.yul\":223:228   */\n  dup3\n    /* \"#utility.yul\":205:229   */\n  tag_7\n  jump\t// in\ntag_13:\n    /* \"#utility.yul\":194:229   */\n  swap1\n  pop\n    /* \"#utility.yul\":139:235   */\n  swap2\n  swap1\n  pop\n  jump\t// out\n    /* \"#utility.yul\":241:359   */\ntag_9:\n    /* \"#utility.yul\":328:352   */\n  tag_15\n    /* \"#utility.yul\":346:351   */\n  dup2\n    /* \"#utility.yul\":328:352   */\n  tag_8\n  jump\t// in\ntag_15:\n    /* \"#utility.yul\":323:326   */\n  dup3\n    /* \"#utility.yul\":316:353   */\n  mstore\n    /* \"#utility.yul\":241:359   */\n  pop\n  pop\n  jump\t// out\n    /* \"#utility.yul\":365:587   */\ntag_5:\n    /* \"#utility.yul\":458:462   */\n  0x00\n    /* \"#utility.yul\":496:498   */\n  0x20\n    /* \"#utility.yul\":485:494   */\n  dup3\n    /* \"#utility.yul\":481:499   */\n  add\n    /* \"#utility.yul\":473:499   */\n  swap1\n  pop\n    /* \"#utility.yul\":509:580   */\n  tag_17\n    /* \"#utility.yul\":577:578   */\n  0x00\n    /* \"#utility.yul\":566:575   */\n  dup4\n    /* \"#utility.yul\":562:579   */\n  add\n    /* \"#utility.yul\":553:559   */\n  dup5\n    /* \"#utility.yul\":509:580   */\n  tag_9\n  jump\t// in\ntag_17:\n    /* \"#utility.yul\":365:587   */\n  swap3\n  swap2\n  pop\n  pop\n  jump\t// out\n    /* \"blockchain/practice/vote-app.sol\":72:3508  contract Vote {... */\ntag_6:\n  dataSize(sub_0)\n  dup1\n  dataOffset(sub_0)\n  0x00\n  codecopy\n  0x00\n  return\nstop\n\nsub_0: assembly {\n        /* \"blockchain/practice/vote-app.sol\":72:3508  contract Vote {... */\n      mstore(0x40, 0x80)\n      callvalue\n      dup1\n      iszero\n      tag_1\n      jumpi\n      0x00\n      dup1\n      revert\n    tag_1:\n      pop\n      jumpi(tag_2, lt(calldatasize, 0x04))\n      shr(0xe0, calldataload(0x00))\n      dup1\n      0x8f32d59b\n      gt\n      tag_15\n      jumpi\n      dup1\n      0x8f32d59b\n      eq\n      tag_9\n      jumpi\n      dup1\n      0x957aa58c\n      eq\n      tag_10\n      jumpi\n      dup1\n      0x9a0e7d66\n      eq\n      tag_11\n      jumpi\n      dup1\n      0xa3ec138d\n      eq\n      tag_12\n      jumpi\n      dup1\n      0xb13c744b\n      eq\n      tag_13\n      jumpi\n      dup1\n      0xec859db5\n      eq\n      tag_14\n      jumpi\n      jump(tag_2)\n    tag_15:\n      dup1\n      0x1e620cd4\n      eq\n      tag_3\n      jumpi\n      dup1\n      0x2aebcbb6\n      eq\n      tag_4\n      jumpi\n      dup1\n      0x2e6997fe\n      eq\n      tag_5\n      jumpi\n      dup1\n      0x462e91ec\n      eq\n      tag_6\n      jumpi\n      dup1\n      0x4f301d47\n      eq\n      tag_7\n      jumpi\n      dup1\n      0x8da5cb5b\n      eq\n      tag_8\n      jumpi\n    tag_2:\n      0x00\n      dup1\n      revert\n        /* \"blockchain/practice/vote-app.sol\":1635:2035  function deleteCandidate(uint _index) public onlyOwner {... */\n    tag_3:\n      tag_16\n      0x04\n      dup1\n      calldatasize\n      sub\n      dup2\n      add\n      swap1\n      tag_17\n      swap2\n      swap1\n      tag_18\n      jump\t// in\n    tag_17:\n      tag_19\n      jump\t// in\n    tag_16:\n      stop\n        /* \"blockchain/practice/vote-app.sol\":3351:3505  function finishVote() public {... */\n    tag_4:\n      tag_20\n      tag_21\n      jump\t// in\n    tag_20:\n      stop\n        /* \"blockchain/practice/vote-app.sol\":2805:2944  function getAllCandidates() public view returns (candidate[] memory) {... */\n    tag_5:\n      tag_22\n      tag_23\n      jump\t// in\n    tag_22:\n      mload(0x40)\n      tag_24\n      swap2\n      swap1\n      tag_25\n      jump\t// in\n    tag_24:\n      mload(0x40)\n      dup1\n      swap2\n      sub\n      swap1\n      return\n        /* \"blockchain/practice/vote-app.sol\":1122:1625  function addCandidate(string memory _name) public onlyOwner{... */\n    tag_6:\n      tag_26\n      0x04\n      dup1\n      calldatasize\n      sub\n      dup2\n      add\n      swap1\n      tag_27\n      swap2\n      swap1\n      tag_28\n      jump\t// in\n    tag_27:\n      tag_29\n      jump\t// in\n    tag_26:\n      stop\n        /* \"blockchain/practice/vote-app.sol\":2458:2731  function getUserVote() public view returns (string memory) {... */\n    tag_7:\n      tag_30\n      tag_31\n      jump\t// in\n    tag_30:\n      mload(0x40)\n      tag_32\n      swap2\n      swap1\n      tag_33\n      jump\t// in\n    tag_32:\n      mload(0x40)\n      dup1\n      swap2\n      sub\n      swap1\n      return\n        /* \"blockchain/practice/vote-app.sol\":337:357  address public owner */\n    tag_8:\n      tag_34\n      tag_35\n      jump\t// in\n    tag_34:\n      mload(0x40)\n      tag_36\n      swap2\n      swap1\n      tag_37\n      jump\t// in\n    tag_36:\n      mload(0x40)\n      dup1\n      swap2\n      sub\n      swap1\n      return\n        /* \"blockchain/practice/vote-app.sol\":1026:1116  function isOwner() public view returns (bool) {... */\n    tag_9:\n      tag_38\n      tag_39\n      jump\t// in\n    tag_38:\n      mload(0x40)\n      tag_40\n      swap2\n      swap1\n      tag_41\n      jump\t// in\n    tag_40:\n      mload(0x40)\n      dup1\n      swap2\n      sub\n      swap1\n      return\n        /* \"blockchain/practice/vote-app.sol\":314:330  bool public live */\n    tag_10:\n      tag_42\n      tag_43\n      jump\t// in\n    tag_42:\n      mload(0x40)\n      tag_44\n      swap2\n      swap1\n      tag_41\n      jump\t// in\n    tag_44:\n      mload(0x40)\n      dup1\n      swap2\n      sub\n      swap1\n      return\n        /* \"blockchain/practice/vote-app.sol\":2999:3318  function getTotalVotes() public view returns (uint256) {... */\n    tag_11:\n      tag_45\n      tag_46\n      jump\t// in\n    tag_45:\n      mload(0x40)\n      tag_47\n      swap2\n      swap1\n      tag_48\n      jump\t// in\n    tag_47:\n      mload(0x40)\n      dup1\n      swap2\n      sub\n      swap1\n      return\n        /* \"blockchain/practice/vote-app.sol\":479:519  mapping (address => voter) public voters */\n    tag_12:\n      tag_49\n      0x04\n      dup1\n      calldatasize\n      sub\n      dup2\n      add\n      swap1\n      tag_50\n      swap2\n      swap1\n      tag_51\n      jump\t// in\n    tag_50:\n      tag_52\n      jump\t// in\n    tag_49:\n      mload(0x40)\n      tag_53\n      swap3\n      swap2\n      swap1\n      tag_54\n      jump\t// in\n    tag_53:\n      mload(0x40)\n      dup1\n      swap2\n      sub\n      swap1\n      return\n        /* \"blockchain/practice/vote-app.sol\":363:395  candidate[] public candidateList */\n    tag_13:\n      tag_55\n      0x04\n      dup1\n      calldatasize\n      sub\n      dup2\n      add\n      swap1\n      tag_56\n      swap2\n      swap1\n      tag_18\n      jump\t// in\n    tag_56:\n      tag_57\n      jump\t// in\n    tag_55:\n      mload(0x40)\n      tag_58\n      swap3\n      swap2\n      swap1\n      tag_59\n      jump\t// in\n    tag_58:\n      mload(0x40)\n      dup1\n      swap2\n      sub\n      swap1\n      return\n        /* \"blockchain/practice/vote-app.sol\":2055:2452  function upVote(uint _index) public {... */\n    tag_14:\n      tag_60\n      0x04\n      dup1\n      calldatasize\n      sub\n      dup2\n      add\n      swap1\n      tag_61\n      swap2\n      swap1\n      tag_18\n      jump\t// in\n    tag_61:\n      tag_62\n      jump\t// in\n    tag_60:\n      stop\n        /* \"blockchain/practice/vote-app.sol\":1635:2035  function deleteCandidate(uint _index) public onlyOwner {... */\n    tag_19:\n        /* \"blockchain/practice/vote-app.sol\":872:877  owner */\n      0x00\n      0x01\n      swap1\n      sload\n      swap1\n      0x0100\n      exp\n      swap1\n      div\n      0xffffffffffffffffffffffffffffffffffffffff\n      and\n        /* \"blockchain/practice/vote-app.sol\":858:877  msg.sender == owner */\n      0xffffffffffffffffffffffffffffffffffffffff\n      and\n        /* \"blockchain/practice/vote-app.sol\":858:868  msg.sender */\n      caller\n        /* \"blockchain/practice/vote-app.sol\":858:877  msg.sender == owner */\n      0xffffffffffffffffffffffffffffffffffffffff\n      and\n      eq\n        /* \"blockchain/practice/vote-app.sol\":850:878  require(msg.sender == owner) */\n      tag_64\n      jumpi\n      0x00\n      dup1\n      revert\n    tag_64:\n        /* \"blockchain/practice/vote-app.sol\":1716:1720  true */\n      0x01\n        /* \"blockchain/practice/vote-app.sol\":1708:1720  live == true */\n      iszero\n      iszero\n        /* \"blockchain/practice/vote-app.sol\":1708:1712  live */\n      0x00\n      dup1\n      sload\n      swap1\n      0x0100\n      exp\n      swap1\n      div\n      0xff\n      and\n        /* \"blockchain/practice/vote-app.sol\":1708:1720  live == true */\n      iszero\n      iszero\n      eq\n        /* \"blockchain/practice/vote-app.sol\":1700:1721  require(live == true) */\n      tag_66\n      jumpi\n      0x00\n      dup1\n      revert\n    tag_66:\n        /* \"blockchain/practice/vote-app.sol\":1748:1761  candidateList */\n      0x01\n        /* \"blockchain/practice/vote-app.sol\":1748:1768  candidateList.length */\n      dup1\n      sload\n      swap1\n      pop\n        /* \"blockchain/practice/vote-app.sol\":1739:1745  _index */\n      dup2\n        /* \"blockchain/practice/vote-app.sol\":1739:1768  _index < candidateList.length */\n      lt\n        /* \"blockchain/practice/vote-app.sol\":1731:1769  require(_index < candidateList.length) */\n      tag_67\n      jumpi\n      0x00\n      dup1\n      revert\n    tag_67:\n        /* \"blockchain/practice/vote-app.sol\":1848:1861  candidateList */\n      0x01\n        /* \"blockchain/practice/vote-app.sol\":1885:1886  1 */\n      dup1\n        /* \"blockchain/practice/vote-app.sol\":1862:1875  candidateList */\n      dup1\n        /* \"blockchain/practice/vote-app.sol\":1862:1882  candidateList.length */\n      dup1\n      sload\n      swap1\n      pop\n        /* \"blockchain/practice/vote-app.sol\":1862:1886  candidateList.length - 1 */\n      tag_68\n      swap2\n      swap1\n      tag_69\n      jump\t// in\n    tag_68:\n        /* \"blockchain/practice/vote-app.sol\":1848:1887  candidateList[candidateList.length - 1] */\n      dup2\n      sload\n      dup2\n      lt\n      tag_70\n      jumpi\n      tag_71\n      tag_72\n      jump\t// in\n    tag_71:\n    tag_70:\n      swap1\n      0x00\n      mstore\n      keccak256(0x00, 0x20)\n      swap1\n      0x02\n      mul\n      add\n        /* \"blockchain/practice/vote-app.sol\":1824:1837  candidateList */\n      0x01\n        /* \"blockchain/practice/vote-app.sol\":1838:1844  _index */\n      dup3\n        /* \"blockchain/practice/vote-app.sol\":1824:1845  candidateList[_index] */\n      dup2\n      sload\n      dup2\n      lt\n      tag_74\n      jumpi\n      tag_75\n      tag_72\n      jump\t// in\n    tag_75:\n    tag_74:\n      swap1\n      0x00\n      mstore\n      keccak256(0x00, 0x20)\n      swap1\n      0x02\n      mul\n      add\n        /* \"blockchain/practice/vote-app.sol\":1824:1887  candidateList[_index] = candidateList[candidateList.length - 1] */\n      0x00\n      dup3\n      add\n      dup2\n      0x00\n      add\n      swap1\n      dup2\n      tag_77\n      swap2\n      swap1\n      tag_78\n      jump\t// in\n    tag_77:\n      pop\n      0x01\n      dup3\n      add\n      sload\n      dup2\n      0x01\n      add\n      sstore\n      swap1\n      pop\n      pop\n        /* \"blockchain/practice/vote-app.sol\":1897:1910  candidateList */\n      0x01\n        /* \"blockchain/practice/vote-app.sol\":1897:1916  candidateList.pop() */\n      dup1\n      sload\n      dup1\n      tag_79\n      jumpi\n      tag_80\n      tag_81\n      jump\t// in\n    tag_80:\n    tag_79:\n      0x01\n      swap1\n      sub\n      dup2\n      dup2\n      swap1\n      0x00\n      mstore\n      keccak256(0x00, 0x20)\n      swap1\n      0x02\n      mul\n      add\n      0x00\n      dup1\n      dup3\n      add\n      0x00\n      tag_83\n      swap2\n      swap1\n      tag_84\n      jump\t// in\n    tag_83:\n      0x01\n      dup3\n      add\n      0x00\n      swap1\n      sstore\n      pop\n      pop\n      swap1\n      sstore\n        /* \"blockchain/practice/vote-app.sol\":1959:1982  DeleteCandidate(_index) */\n      0x29ab6fac06eb32ebcc3a011f02383a9d57c946d0676bf8ccaed3f20e88410d45\n        /* \"blockchain/practice/vote-app.sol\":1975:1981  _index */\n      dup2\n        /* \"blockchain/practice/vote-app.sol\":1959:1982  DeleteCandidate(_index) */\n      mload(0x40)\n      tag_85\n      swap2\n      swap1\n      tag_48\n      jump\t// in\n    tag_85:\n      mload(0x40)\n      dup1\n      swap2\n      sub\n      swap1\n      log1\n        /* \"blockchain/practice/vote-app.sol\":1635:2035  function deleteCandidate(uint _index) public onlyOwner {... */\n      pop\n      jump\t// out\n        /* \"blockchain/practice/vote-app.sol\":3351:3505  function finishVote() public {... */\n    tag_21:\n        /* \"blockchain/practice/vote-app.sol\":3408:3412  true */\n      0x01\n        /* \"blockchain/practice/vote-app.sol\":3399:3412  live  == true */\n      iszero\n      iszero\n        /* \"blockchain/practice/vote-app.sol\":3399:3403  live */\n      0x00\n      dup1\n      sload\n      swap1\n      0x0100\n      exp\n      swap1\n      div\n      0xff\n      and\n        /* \"blockchain/practice/vote-app.sol\":3399:3412  live  == true */\n      iszero\n      iszero\n      eq\n        /* \"blockchain/practice/vote-app.sol\":3390:3414  require (live  == true ) */\n      tag_87\n      jumpi\n      0x00\n      dup1\n      revert\n    tag_87:\n        /* \"blockchain/practice/vote-app.sol\":3461:3466  false */\n      0x00\n        /* \"blockchain/practice/vote-app.sol\":3454:3458  live */\n      dup1\n      0x00\n        /* \"blockchain/practice/vote-app.sol\":3454:3466  live = false */\n      0x0100\n      exp\n      dup2\n      sload\n      dup2\n      0xff\n      mul\n      not\n      and\n      swap1\n      dup4\n      iszero\n      iszero\n      mul\n      or\n      swap1\n      sstore\n      pop\n        /* \"blockchain/practice/vote-app.sol\":3482:3498  FinishVote(live) */\n      0x52a1f86df561bcdc915e07aafb957e1253d4464fc7fae3d6700815e71f063ffc\n        /* \"blockchain/practice/vote-app.sol\":3493:3497  live */\n      0x00\n      dup1\n      sload\n      swap1\n      0x0100\n      exp\n      swap1\n      div\n      0xff\n      and\n        /* \"blockchain/practice/vote-app.sol\":3482:3498  FinishVote(live) */\n      mload(0x40)\n      tag_88\n      swap2\n      swap1\n      tag_41\n      jump\t// in\n    tag_88:\n      mload(0x40)\n      dup1\n      swap2\n      sub\n      swap1\n      log1\n        /* \"blockchain/practice/vote-app.sol\":3351:3505  function finishVote() public {... */\n      jump\t// out\n        /* \"blockchain/practice/vote-app.sol\":2805:2944  function getAllCandidates() public view returns (candidate[] memory) {... */\n    tag_23:\n        /* \"blockchain/practice/vote-app.sol\":2854:2872  candidate[] memory */\n      0x60\n        /* \"blockchain/practice/vote-app.sol\":2891:2904  candidateList */\n      0x01\n        /* \"blockchain/practice/vote-app.sol\":2884:2904  return candidateList */\n      dup1\n      sload\n      dup1\n      0x20\n      mul\n      0x20\n      add\n      mload(0x40)\n      swap1\n      dup2\n      add\n      0x40\n      mstore\n      dup1\n      swap3\n      swap2\n      swap1\n      dup2\n      dup2\n      mstore\n      0x20\n      add\n      0x00\n      swap1\n    tag_90:\n      dup3\n      dup3\n      lt\n      iszero\n      tag_91\n      jumpi\n      dup4\n      dup3\n      swap1\n      0x00\n      mstore\n      keccak256(0x00, 0x20)\n      swap1\n      0x02\n      mul\n      add\n      mload(0x40)\n      dup1\n      0x40\n      add\n      0x40\n      mstore\n      swap1\n      dup2\n      0x00\n      dup3\n      add\n      dup1\n      sload\n      tag_93\n      swap1\n      tag_94\n      jump\t// in\n    tag_93:\n      dup1\n      0x1f\n      add\n      0x20\n      dup1\n      swap2\n      div\n      mul\n      0x20\n      add\n      mload(0x40)\n      swap1\n      dup2\n      add\n      0x40\n      mstore\n      dup1\n      swap3\n      swap2\n      swap1\n      dup2\n      dup2\n      mstore\n      0x20\n      add\n      dup3\n      dup1\n      sload\n      tag_95\n      swap1\n      tag_94\n      jump\t// in\n    tag_95:\n      dup1\n      iszero\n      tag_96\n      jumpi\n      dup1\n      0x1f\n      lt\n      tag_97\n      jumpi\n      0x0100\n      dup1\n      dup4\n      sload\n      div\n      mul\n      dup4\n      mstore\n      swap2\n      0x20\n      add\n      swap2\n      jump(tag_96)\n    tag_97:\n      dup3\n      add\n      swap2\n      swap1\n      0x00\n      mstore\n      keccak256(0x00, 0x20)\n      swap1\n    tag_98:\n      dup2\n      sload\n      dup2\n      mstore\n      swap1\n      0x01\n      add\n      swap1\n      0x20\n      add\n      dup1\n      dup4\n      gt\n      tag_98\n      jumpi\n      dup3\n      swap1\n      sub\n      0x1f\n      and\n      dup3\n      add\n      swap2\n    tag_96:\n      pop\n      pop\n      pop\n      pop\n      pop\n      dup2\n      mstore\n      0x20\n      add\n      0x01\n      dup3\n      add\n      sload\n      dup2\n      mstore\n      pop\n      pop\n      dup2\n      mstore\n      0x20\n      add\n      swap1\n      0x01\n      add\n      swap1\n      jump(tag_90)\n    tag_91:\n      pop\n      pop\n      pop\n      pop\n      swap1\n      pop\n        /* \"blockchain/practice/vote-app.sol\":2805:2944  function getAllCandidates() public view returns (candidate[] memory) {... */\n      swap1\n      jump\t// out\n        /* \"blockchain/practice/vote-app.sol\":1122:1625  function addCandidate(string memory _name) public onlyOwner{... */\n    tag_29:\n        /* \"blockchain/practice/vote-app.sol\":872:877  owner */\n      0x00\n      0x01\n      swap1\n      sload\n      swap1\n      0x0100\n      exp\n      swap1\n      div\n      0xffffffffffffffffffffffffffffffffffffffff\n      and\n        /* \"blockchain/practice/vote-app.sol\":858:877  msg.sender == owner */\n      0xffffffffffffffffffffffffffffffffffffffff\n      and\n        /* \"blockchain/practice/vote-app.sol\":858:868  msg.sender */\n      caller\n        /* \"blockchain/practice/vote-app.sol\":858:877  msg.sender == owner */\n      0xffffffffffffffffffffffffffffffffffffffff\n      and\n      eq\n        /* \"blockchain/practice/vote-app.sol\":850:878  require(msg.sender == owner) */\n      tag_100\n      jumpi\n      0x00\n      dup1\n      revert\n    tag_100:\n        /* \"blockchain/practice/vote-app.sol\":1209:1213  true */\n      0x01\n        /* \"blockchain/practice/vote-app.sol\":1200:1213  live  == true */\n      iszero\n      iszero\n        /* \"blockchain/practice/vote-app.sol\":1200:1204  live */\n      0x00\n      dup1\n      sload\n      swap1\n      0x0100\n      exp\n      swap1\n      div\n      0xff\n      and\n        /* \"blockchain/practice/vote-app.sol\":1200:1213  live  == true */\n      iszero\n      iszero\n      eq\n        /* \"blockchain/practice/vote-app.sol\":1191:1215  require (live  == true ) */\n      tag_102\n      jumpi\n      0x00\n      dup1\n      revert\n    tag_102:\n        /* \"blockchain/practice/vote-app.sol\":1297:1298  5 */\n      0x05\n        /* \"blockchain/practice/vote-app.sol\":1274:1287  candidateList */\n      0x01\n        /* \"blockchain/practice/vote-app.sol\":1274:1294  candidateList.length */\n      dup1\n      sload\n      swap1\n      pop\n        /* \"blockchain/practice/vote-app.sol\":1274:1298  candidateList.length < 5 */\n      lt\n        /* \"blockchain/practice/vote-app.sol\":1265:1299  require (candidateList.length < 5) */\n      tag_103\n      jumpi\n      0x00\n      dup1\n      revert\n    tag_103:\n        /* \"blockchain/practice/vote-app.sol\":1353:1366  candidateList */\n      0x01\n        /* \"blockchain/practice/vote-app.sol\":1372:1391  candidate(_name, 0) */\n      mload(0x40)\n      dup1\n      0x40\n      add\n      0x40\n      mstore\n      dup1\n        /* \"blockchain/practice/vote-app.sol\":1382:1387  _name */\n      dup4\n        /* \"blockchain/practice/vote-app.sol\":1372:1391  candidate(_name, 0) */\n      dup2\n      mstore\n      0x20\n      add\n        /* \"blockchain/practice/vote-app.sol\":1389:1390  0 */\n      0x00\n        /* \"blockchain/practice/vote-app.sol\":1372:1391  candidate(_name, 0) */\n      dup2\n      mstore\n      pop\n        /* \"blockchain/practice/vote-app.sol\":1353:1392  candidateList.push(candidate(_name, 0)) */\n      swap1\n      dup1\n      0x01\n      dup2\n      sload\n      add\n      dup1\n      dup3\n      sstore\n      dup1\n      swap2\n      pop\n      pop\n      0x01\n      swap1\n      sub\n      swap1\n      0x00\n      mstore\n      keccak256(0x00, 0x20)\n      swap1\n      0x02\n      mul\n      add\n      0x00\n      swap1\n      swap2\n      swap1\n      swap2\n      swap1\n      swap2\n      pop\n      0x00\n      dup3\n      add\n      mload\n      dup2\n      0x00\n      add\n      swap1\n      dup2\n      tag_105\n      swap2\n      swap1\n      tag_106\n      jump\t// in\n    tag_105:\n      pop\n      0x20\n      dup3\n      add\n      mload\n      dup2\n      0x01\n      add\n      sstore\n      pop\n      pop\n        /* \"blockchain/practice/vote-app.sol\":1553:1572  AddCandidate(_name) */\n      0x7e54b8e26d30b775858f75176d98873186bb2078a39aec1f769f4de0aeb43b1a\n        /* \"blockchain/practice/vote-app.sol\":1566:1571  _name */\n      dup2\n        /* \"blockchain/practice/vote-app.sol\":1553:1572  AddCandidate(_name) */\n      mload(0x40)\n      tag_107\n      swap2\n      swap1\n      tag_33\n      jump\t// in\n    tag_107:\n      mload(0x40)\n      dup1\n      swap2\n      sub\n      swap1\n      log1\n        /* \"blockchain/practice/vote-app.sol\":1122:1625  function addCandidate(string memory _name) public onlyOwner{... */\n      pop\n      jump\t// out\n        /* \"blockchain/practice/vote-app.sol\":2458:2731  function getUserVote() public view returns (string memory) {... */\n    tag_31:\n        /* \"blockchain/practice/vote-app.sol\":2502:2515  string memory */\n      0x60\n        /* \"blockchain/practice/vote-app.sol\":2535:2541  voters */\n      0x03\n        /* \"blockchain/practice/vote-app.sol\":2535:2553  voters[msg.sender] */\n      0x00\n        /* \"blockchain/practice/vote-app.sol\":2542:2552  msg.sender */\n      caller\n        /* \"blockchain/practice/vote-app.sol\":2535:2553  voters[msg.sender] */\n      0xffffffffffffffffffffffffffffffffffffffff\n      and\n      0xffffffffffffffffffffffffffffffffffffffff\n      and\n      dup2\n      mstore\n      0x20\n      add\n      swap1\n      dup2\n      mstore\n      0x20\n      add\n      0x00\n      keccak256\n        /* \"blockchain/practice/vote-app.sol\":2535:2561  voters[msg.sender].isVoted */\n      0x00\n      add\n      0x00\n      swap1\n      sload\n      swap1\n      0x0100\n      exp\n      swap1\n      div\n      0xff\n      and\n        /* \"blockchain/practice/vote-app.sol\":2527:2562  require(voters[msg.sender].isVoted) */\n      tag_109\n      jumpi\n      0x00\n      dup1\n      revert\n    tag_109:\n        /* \"blockchain/practice/vote-app.sol\":2573:2595  uint256 candidateIndex */\n      0x00\n        /* \"blockchain/practice/vote-app.sol\":2598:2604  voters */\n      0x03\n        /* \"blockchain/practice/vote-app.sol\":2598:2616  voters[msg.sender] */\n      0x00\n        /* \"blockchain/practice/vote-app.sol\":2605:2615  msg.sender */\n      caller\n        /* \"blockchain/practice/vote-app.sol\":2598:2616  voters[msg.sender] */\n      0xffffffffffffffffffffffffffffffffffffffff\n      and\n      0xffffffffffffffffffffffffffffffffffffffff\n      and\n      dup2\n      mstore\n      0x20\n      add\n      swap1\n      dup2\n      mstore\n      0x20\n      add\n      0x00\n      keccak256\n        /* \"blockchain/practice/vote-app.sol\":2598:2636  voters[msg.sender].votedCandidateIndex */\n      0x01\n      add\n      sload\n        /* \"blockchain/practice/vote-app.sol\":2573:2636  uint256 candidateIndex = voters[msg.sender].votedCandidateIndex */\n      swap1\n      pop\n        /* \"blockchain/practice/vote-app.sol\":2653:2666  candidateList */\n      0x01\n        /* \"blockchain/practice/vote-app.sol\":2667:2681  candidateIndex */\n      dup2\n        /* \"blockchain/practice/vote-app.sol\":2653:2682  candidateList[candidateIndex] */\n      dup2\n      sload\n      dup2\n      lt\n      tag_110\n      jumpi\n      tag_111\n      tag_72\n      jump\t// in\n    tag_111:\n    tag_110:\n      swap1\n      0x00\n      mstore\n      keccak256(0x00, 0x20)\n      swap1\n      0x02\n      mul\n      add\n        /* \"blockchain/practice/vote-app.sol\":2653:2687  candidateList[candidateIndex].name */\n      0x00\n      add\n        /* \"blockchain/practice/vote-app.sol\":2646:2687  return candidateList[candidateIndex].name */\n      dup1\n      sload\n      tag_113\n      swap1\n      tag_94\n      jump\t// in\n    tag_113:\n      dup1\n      0x1f\n      add\n      0x20\n      dup1\n      swap2\n      div\n      mul\n      0x20\n      add\n      mload(0x40)\n      swap1\n      dup2\n      add\n      0x40\n      mstore\n      dup1\n      swap3\n      swap2\n      swap1\n      dup2\n      dup2\n      mstore\n      0x20\n      add\n      dup3\n      dup1\n      sload\n      tag_114\n      swap1\n      tag_94\n      jump\t// in\n    tag_114:\n      dup1\n      iszero\n      tag_115\n      jumpi\n      dup1\n      0x1f\n      lt\n      tag_116\n      jumpi\n      0x0100\n      dup1\n      dup4\n      sload\n      div\n      mul\n      dup4\n      mstore\n      swap2\n      0x20\n      add\n      swap2\n      jump(tag_115)\n    tag_116:\n      dup3\n      add\n      swap2\n      swap1\n      0x00\n      mstore\n      keccak256(0x00, 0x20)\n      swap1\n    tag_117:\n      dup2\n      sload\n      dup2\n      mstore\n      swap1\n      0x01\n      add\n      swap1\n      0x20\n      add\n      dup1\n      dup4\n      gt\n      tag_117\n      jumpi\n      dup3\n      swap1\n      sub\n      0x1f\n      and\n      dup3\n      add\n      swap2\n    tag_115:\n      pop\n      pop\n      pop\n      pop\n      pop\n      swap2\n      pop\n      pop\n        /* \"blockchain/practice/vote-app.sol\":2458:2731  function getUserVote() public view returns (string memory) {... */\n      swap1\n      jump\t// out\n        /* \"blockchain/practice/vote-app.sol\":337:357  address public owner */\n    tag_35:\n      0x00\n      0x01\n      swap1\n      sload\n      swap1\n      0x0100\n      exp\n      swap1\n      div\n      0xffffffffffffffffffffffffffffffffffffffff\n      and\n      dup2\n      jump\t// out\n        /* \"blockchain/practice/vote-app.sol\":1026:1116  function isOwner() public view returns (bool) {... */\n    tag_39:\n        /* \"blockchain/practice/vote-app.sol\":1066:1070  bool */\n      0x00\n        /* \"blockchain/practice/vote-app.sol\":1103:1108  owner */\n      dup1\n      0x01\n      swap1\n      sload\n      swap1\n      0x0100\n      exp\n      swap1\n      div\n      0xffffffffffffffffffffffffffffffffffffffff\n      and\n        /* \"blockchain/practice/vote-app.sol\":1089:1108  msg.sender == owner */\n      0xffffffffffffffffffffffffffffffffffffffff\n      and\n        /* \"blockchain/practice/vote-app.sol\":1089:1099  msg.sender */\n      caller\n        /* \"blockchain/practice/vote-app.sol\":1089:1108  msg.sender == owner */\n      0xffffffffffffffffffffffffffffffffffffffff\n      and\n      eq\n        /* \"blockchain/practice/vote-app.sol\":1082:1108  return msg.sender == owner */\n      swap1\n      pop\n        /* \"blockchain/practice/vote-app.sol\":1026:1116  function isOwner() public view returns (bool) {... */\n      swap1\n      jump\t// out\n        /* \"blockchain/practice/vote-app.sol\":314:330  bool public live */\n    tag_43:\n      0x00\n      dup1\n      sload\n      swap1\n      0x0100\n      exp\n      swap1\n      div\n      0xff\n      and\n      dup2\n      jump\t// out\n        /* \"blockchain/practice/vote-app.sol\":2999:3318  function getTotalVotes() public view returns (uint256) {... */\n    tag_46:\n        /* \"blockchain/practice/vote-app.sol\":3045:3052  uint256 */\n      0x00\n        /* \"blockchain/practice/vote-app.sol\":3064:3082  uint256 totalVotes */\n      dup1\n        /* \"blockchain/practice/vote-app.sol\":3085:3086  0 */\n      0x00\n        /* \"blockchain/practice/vote-app.sol\":3064:3086  uint256 totalVotes = 0 */\n      swap1\n      pop\n        /* \"blockchain/practice/vote-app.sol\":3151:3160  uint256 i */\n      0x00\n        /* \"blockchain/practice/vote-app.sol\":3146:3259  for (uint256 i = 0; i < candidateList.length; i++) {... */\n    tag_120:\n        /* \"blockchain/practice/vote-app.sol\":3170:3183  candidateList */\n      0x01\n        /* \"blockchain/practice/vote-app.sol\":3170:3190  candidateList.length */\n      dup1\n      sload\n      swap1\n      pop\n        /* \"blockchain/practice/vote-app.sol\":3166:3167  i */\n      dup2\n        /* \"blockchain/practice/vote-app.sol\":3166:3190  i < candidateList.length */\n      lt\n        /* \"blockchain/practice/vote-app.sol\":3146:3259  for (uint256 i = 0; i < candidateList.length; i++) {... */\n      iszero\n      tag_121\n      jumpi\n        /* \"blockchain/practice/vote-app.sol\":3225:3238  candidateList */\n      0x01\n        /* \"blockchain/practice/vote-app.sol\":3239:3240  i */\n      dup2\n        /* \"blockchain/practice/vote-app.sol\":3225:3241  candidateList[i] */\n      dup2\n      sload\n      dup2\n      lt\n      tag_123\n      jumpi\n      tag_124\n      tag_72\n      jump\t// in\n    tag_124:\n    tag_123:\n      swap1\n      0x00\n      mstore\n      keccak256(0x00, 0x20)\n      swap1\n      0x02\n      mul\n      add\n        /* \"blockchain/practice/vote-app.sol\":3225:3248  candidateList[i].upVote */\n      0x01\n      add\n      sload\n        /* \"blockchain/practice/vote-app.sol\":3211:3248  totalVotes += candidateList[i].upVote */\n      dup3\n      tag_126\n      swap2\n      swap1\n      tag_127\n      jump\t// in\n    tag_126:\n      swap2\n      pop\n        /* \"blockchain/practice/vote-app.sol\":3192:3195  i++ */\n      dup1\n      dup1\n      0x01\n      add\n      swap2\n      pop\n      pop\n        /* \"blockchain/practice/vote-app.sol\":3146:3259  for (uint256 i = 0; i < candidateList.length; i++) {... */\n      jump(tag_120)\n    tag_121:\n      pop\n        /* \"blockchain/practice/vote-app.sol\":3276:3286  totalVotes */\n      dup1\n        /* \"blockchain/practice/vote-app.sol\":3269:3286  return totalVotes */\n      swap2\n      pop\n      pop\n        /* \"blockchain/practice/vote-app.sol\":2999:3318  function getTotalVotes() public view returns (uint256) {... */\n      swap1\n      jump\t// out\n        /* \"blockchain/practice/vote-app.sol\":479:519  mapping (address => voter) public voters */\n    tag_52:\n      mstore(0x20, 0x03)\n      dup1\n      0x00\n      mstore\n      keccak256(0x00, 0x40)\n      0x00\n      swap2\n      pop\n      swap1\n      pop\n      dup1\n      0x00\n      add\n      0x00\n      swap1\n      sload\n      swap1\n      0x0100\n      exp\n      swap1\n      div\n      0xff\n      and\n      swap1\n      dup1\n      0x01\n      add\n      sload\n      swap1\n      pop\n      dup3\n      jump\t// out\n        /* \"blockchain/practice/vote-app.sol\":363:395  candidate[] public candidateList */\n    tag_57:\n      0x01\n      dup2\n      dup2\n      sload\n      dup2\n      lt\n      tag_128\n      jumpi\n      0x00\n      dup1\n      revert\n    tag_128:\n      swap1\n      0x00\n      mstore\n      keccak256(0x00, 0x20)\n      swap1\n      0x02\n      mul\n      add\n      0x00\n      swap2\n      pop\n      swap1\n      pop\n      dup1\n      0x00\n      add\n      dup1\n      sload\n      tag_130\n      swap1\n      tag_94\n      jump\t// in\n    tag_130:\n      dup1\n      0x1f\n      add\n      0x20\n      dup1\n      swap2\n      div\n      mul\n      0x20\n      add\n      mload(0x40)\n      swap1\n      dup2\n      add\n      0x40\n      mstore\n      dup1\n      swap3\n      swap2\n      swap1\n      dup2\n      dup2\n      mstore\n      0x20\n      add\n      dup3\n      dup1\n      sload\n      tag_131\n      swap1\n      tag_94\n      jump\t// in\n    tag_131:\n      dup1\n      iszero\n      tag_132\n      jumpi\n      dup1\n      0x1f\n      lt\n      tag_133\n      jumpi\n      0x0100\n      dup1\n      dup4\n      sload\n      div\n      mul\n      dup4\n      mstore\n      swap2\n      0x20\n      add\n      swap2\n      jump(tag_132)\n    tag_133:\n      dup3\n      add\n      swap2\n      swap1\n      0x00\n      mstore\n      keccak256(0x00, 0x20)\n      swap1\n    tag_134:\n      dup2\n      sload\n      dup2\n      mstore\n      swap1\n      0x01\n      add\n      swap1\n      0x20\n      add\n      dup1\n      dup4\n      gt\n      tag_134\n      jumpi\n      dup3\n      swap1\n      sub\n      0x1f\n      and\n      dup3\n      add\n      swap2\n    tag_132:\n      pop\n      pop\n      pop\n      pop\n      pop\n      swap1\n      dup1\n      0x01\n      add\n      sload\n      swap1\n      pop\n      dup3\n      jump\t// out\n        /* \"blockchain/practice/vote-app.sol\":2055:2452  function upVote(uint _index) public {... */\n    tag_62:\n        /* \"blockchain/practice/vote-app.sol\":2117:2121  true */\n      0x01\n        /* \"blockchain/practice/vote-app.sol\":2109:2121  live == true */\n      iszero\n      iszero\n        /* \"blockchain/practice/vote-app.sol\":2109:2113  live */\n      0x00\n      dup1\n      sload\n      swap1\n      0x0100\n      exp\n      swap1\n      div\n      0xff\n      and\n        /* \"blockchain/practice/vote-app.sol\":2109:2121  live == true */\n      iszero\n      iszero\n      eq\n        /* \"blockchain/practice/vote-app.sol\":2101:2122  require(live == true) */\n      tag_136\n      jumpi\n      0x00\n      dup1\n      revert\n    tag_136:\n        /* \"blockchain/practice/vote-app.sol\":2149:2162  candidateList */\n      0x01\n        /* \"blockchain/practice/vote-app.sol\":2149:2169  candidateList.length */\n      dup1\n      sload\n      swap1\n      pop\n        /* \"blockchain/practice/vote-app.sol\":2140:2146  _index */\n      dup2\n        /* \"blockchain/practice/vote-app.sol\":2140:2169  _index < candidateList.length */\n      lt\n        /* \"blockchain/practice/vote-app.sol\":2132:2170  require(_index < candidateList.length) */\n      tag_137\n      jumpi\n      0x00\n      dup1\n      revert\n    tag_137:\n        /* \"blockchain/practice/vote-app.sol\":2189:2195  voters */\n      0x03\n        /* \"blockchain/practice/vote-app.sol\":2189:2207  voters[msg.sender] */\n      0x00\n        /* \"blockchain/practice/vote-app.sol\":2196:2206  msg.sender */\n      caller\n        /* \"blockchain/practice/vote-app.sol\":2189:2207  voters[msg.sender] */\n      0xffffffffffffffffffffffffffffffffffffffff\n      and\n      0xffffffffffffffffffffffffffffffffffffffff\n      and\n      dup2\n      mstore\n      0x20\n      add\n      swap1\n      dup2\n      mstore\n      0x20\n      add\n      0x00\n      keccak256\n        /* \"blockchain/practice/vote-app.sol\":2189:2215  voters[msg.sender].isVoted */\n      0x00\n      add\n      0x00\n      swap1\n      sload\n      swap1\n      0x0100\n      exp\n      swap1\n      div\n      0xff\n      and\n        /* \"blockchain/practice/vote-app.sol\":2188:2215  !voters[msg.sender].isVoted */\n      iszero\n        /* \"blockchain/practice/vote-app.sol\":2180:2216  require(!voters[msg.sender].isVoted) */\n      tag_138\n      jumpi\n      0x00\n      dup1\n      revert\n    tag_138:\n        /* \"blockchain/practice/vote-app.sol\":2256:2260  true */\n      0x01\n        /* \"blockchain/practice/vote-app.sol\":2227:2233  voters */\n      0x03\n        /* \"blockchain/practice/vote-app.sol\":2227:2245  voters[msg.sender] */\n      0x00\n        /* \"blockchain/practice/vote-app.sol\":2234:2244  msg.sender */\n      caller\n        /* \"blockchain/practice/vote-app.sol\":2227:2245  voters[msg.sender] */\n      0xffffffffffffffffffffffffffffffffffffffff\n      and\n      0xffffffffffffffffffffffffffffffffffffffff\n      and\n      dup2\n      mstore\n      0x20\n      add\n      swap1\n      dup2\n      mstore\n      0x20\n      add\n      0x00\n      keccak256\n        /* \"blockchain/practice/vote-app.sol\":2227:2253  voters[msg.sender].isVoted */\n      0x00\n      add\n      0x00\n        /* \"blockchain/practice/vote-app.sol\":2227:2260  voters[msg.sender].isVoted = true */\n      0x0100\n      exp\n      dup2\n      sload\n      dup2\n      0xff\n      mul\n      not\n      and\n      swap1\n      dup4\n      iszero\n      iszero\n      mul\n      or\n      swap1\n      sstore\n      pop\n        /* \"blockchain/practice/vote-app.sol\":2311:2317  _index */\n      dup1\n        /* \"blockchain/practice/vote-app.sol\":2270:2276  voters */\n      0x03\n        /* \"blockchain/practice/vote-app.sol\":2270:2288  voters[msg.sender] */\n      0x00\n        /* \"blockchain/practice/vote-app.sol\":2277:2287  msg.sender */\n      caller\n        /* \"blockchain/practice/vote-app.sol\":2270:2288  voters[msg.sender] */\n      0xffffffffffffffffffffffffffffffffffffffff\n      and\n      0xffffffffffffffffffffffffffffffffffffffff\n      and\n      dup2\n      mstore\n      0x20\n      add\n      swap1\n      dup2\n      mstore\n      0x20\n      add\n      0x00\n      keccak256\n        /* \"blockchain/practice/vote-app.sol\":2270:2308  voters[msg.sender].votedCandidateIndex */\n      0x01\n      add\n        /* \"blockchain/practice/vote-app.sol\":2270:2317  voters[msg.sender].votedCandidateIndex = _index */\n      dup2\n      swap1\n      sstore\n      pop\n        /* \"blockchain/practice/vote-app.sol\":2327:2340  candidateList */\n      0x01\n        /* \"blockchain/practice/vote-app.sol\":2341:2347  _index */\n      dup2\n        /* \"blockchain/practice/vote-app.sol\":2327:2348  candidateList[_index] */\n      dup2\n      sload\n      dup2\n      lt\n      tag_139\n      jumpi\n      tag_140\n      tag_72\n      jump\t// in\n    tag_140:\n    tag_139:\n      swap1\n      0x00\n      mstore\n      keccak256(0x00, 0x20)\n      swap1\n      0x02\n      mul\n      add\n        /* \"blockchain/practice/vote-app.sol\":2327:2355  candidateList[_index].upVote */\n      0x01\n      add\n      0x00\n        /* \"blockchain/practice/vote-app.sol\":2327:2357  candidateList[_index].upVote++ */\n      dup2\n      sload\n      dup1\n      swap3\n      swap2\n      swap1\n      tag_142\n      swap1\n      tag_143\n      jump\t// in\n    tag_142:\n      swap2\n      swap1\n      pop\n      sstore\n      pop\n        /* \"blockchain/practice/vote-app.sol\":2381:2445  UpVote(candidateList[_index].name, candidateList[_index].upVote) */\n      0x8e3b27e09daa83ef4d239b211c458358c74c8ab4a844aa4ce24f2a4e211eeb\n        /* \"blockchain/practice/vote-app.sol\":2388:2401  candidateList */\n      0x01\n        /* \"blockchain/practice/vote-app.sol\":2402:2408  _index */\n      dup3\n        /* \"blockchain/practice/vote-app.sol\":2388:2409  candidateList[_index] */\n      dup2\n      sload\n      dup2\n      lt\n      tag_144\n      jumpi\n      tag_145\n      tag_72\n      jump\t// in\n    tag_145:\n    tag_144:\n      swap1\n      0x00\n      mstore\n      keccak256(0x00, 0x20)\n      swap1\n      0x02\n      mul\n      add\n        /* \"blockchain/practice/vote-app.sol\":2388:2414  candidateList[_index].name */\n      0x00\n      add\n        /* \"blockchain/practice/vote-app.sol\":2416:2429  candidateList */\n      0x01\n        /* \"blockchain/practice/vote-app.sol\":2430:2436  _index */\n      dup4\n        /* \"blockchain/practice/vote-app.sol\":2416:2437  candidateList[_index] */\n      dup2\n      sload\n      dup2\n      lt\n      tag_147\n      jumpi\n      tag_148\n      tag_72\n      jump\t// in\n    tag_148:\n    tag_147:\n      swap1\n      0x00\n      mstore\n      keccak256(0x00, 0x20)\n      swap1\n      0x02\n      mul\n      add\n        /* \"blockchain/practice/vote-app.sol\":2416:2444  candidateList[_index].upVote */\n      0x01\n      add\n      sload\n        /* \"blockchain/practice/vote-app.sol\":2381:2445  UpVote(candidateList[_index].name, candidateList[_index].upVote) */\n      mload(0x40)\n      tag_150\n      swap3\n      swap2\n      swap1\n      tag_151\n      jump\t// in\n    tag_150:\n      mload(0x40)\n      dup1\n      swap2\n      sub\n      swap1\n      log1\n        /* \"blockchain/practice/vote-app.sol\":2055:2452  function upVote(uint _index) public {... */\n      pop\n      jump\t// out\n    tag_84:\n      pop\n      dup1\n      sload\n      tag_152\n      swap1\n      tag_94\n      jump\t// in\n    tag_152:\n      0x00\n      dup3\n      sstore\n      dup1\n      0x1f\n      lt\n      tag_154\n      jumpi\n      pop\n      jump(tag_153)\n    tag_154:\n      0x1f\n      add\n      0x20\n      swap1\n      div\n      swap1\n      0x00\n      mstore\n      keccak256(0x00, 0x20)\n      swap1\n      dup2\n      add\n      swap1\n      tag_155\n      swap2\n      swap1\n      tag_156\n      jump\t// in\n    tag_155:\n    tag_153:\n      pop\n      jump\t// out\n    tag_156:\n    tag_157:\n      dup1\n      dup3\n      gt\n      iszero\n      tag_158\n      jumpi\n      0x00\n      dup2\n      0x00\n      swap1\n      sstore\n      pop\n      0x01\n      add\n      jump(tag_157)\n    tag_158:\n      pop\n      swap1\n      jump\t// out\n        /* \"#utility.yul\":7:82   */\n    tag_159:\n        /* \"#utility.yul\":40:46   */\n      0x00\n        /* \"#utility.yul\":73:75   */\n      0x40\n        /* \"#utility.yul\":67:76   */\n      mload\n        /* \"#utility.yul\":57:76   */\n      swap1\n      pop\n        /* \"#utility.yul\":7:82   */\n      swap1\n      jump\t// out\n        /* \"#utility.yul\":88:205   */\n    tag_160:\n        /* \"#utility.yul\":197:198   */\n      0x00\n        /* \"#utility.yul\":194:195   */\n      dup1\n        /* \"#utility.yul\":187:199   */\n      revert\n        /* \"#utility.yul\":211:328   */\n    tag_161:\n        /* \"#utility.yul\":320:321   */\n      0x00\n        /* \"#utility.yul\":317:318   */\n      dup1\n        /* \"#utility.yul\":310:322   */\n      revert\n        /* \"#utility.yul\":334:411   */\n    tag_162:\n        /* \"#utility.yul\":371:378   */\n      0x00\n        /* \"#utility.yul\":400:405   */\n      dup2\n        /* \"#utility.yul\":389:405   */\n      swap1\n      pop\n        /* \"#utility.yul\":334:411   */\n      swap2\n      swap1\n      pop\n      jump\t// out\n        /* \"#utility.yul\":417:539   */\n    tag_163:\n        /* \"#utility.yul\":490:514   */\n      tag_222\n        /* \"#utility.yul\":508:513   */\n      dup2\n        /* \"#utility.yul\":490:514   */\n      tag_162\n      jump\t// in\n    tag_222:\n        /* \"#utility.yul\":483:488   */\n      dup2\n        /* \"#utility.yul\":480:515   */\n      eq\n        /* \"#utility.yul\":470:533   */\n      tag_223\n      jumpi\n        /* \"#utility.yul\":529:530   */\n      0x00\n        /* \"#utility.yul\":526:527   */\n      dup1\n        /* \"#utility.yul\":519:531   */\n      revert\n        /* \"#utility.yul\":470:533   */\n    tag_223:\n        /* \"#utility.yul\":417:539   */\n      pop\n      jump\t// out\n        /* \"#utility.yul\":545:684   */\n    tag_164:\n        /* \"#utility.yul\":591:596   */\n      0x00\n        /* \"#utility.yul\":629:635   */\n      dup2\n        /* \"#utility.yul\":616:636   */\n      calldataload\n        /* \"#utility.yul\":607:636   */\n      swap1\n      pop\n        /* \"#utility.yul\":645:678   */\n      tag_225\n        /* \"#utility.yul\":672:677   */\n      dup2\n        /* \"#utility.yul\":645:678   */\n      tag_163\n      jump\t// in\n    tag_225:\n        /* \"#utility.yul\":545:684   */\n      swap3\n      swap2\n      pop\n      pop\n      jump\t// out\n        /* \"#utility.yul\":690:1019   */\n    tag_18:\n        /* \"#utility.yul\":749:755   */\n      0x00\n        /* \"#utility.yul\":798:800   */\n      0x20\n        /* \"#utility.yul\":786:795   */\n      dup3\n        /* \"#utility.yul\":777:784   */\n      dup5\n        /* \"#utility.yul\":773:796   */\n      sub\n        /* \"#utility.yul\":769:801   */\n      slt\n        /* \"#utility.yul\":766:885   */\n      iszero\n      tag_227\n      jumpi\n        /* \"#utility.yul\":804:883   */\n      tag_228\n      tag_160\n      jump\t// in\n    tag_228:\n        /* \"#utility.yul\":766:885   */\n    tag_227:\n        /* \"#utility.yul\":924:925   */\n      0x00\n        /* \"#utility.yul\":949:1002   */\n      tag_229\n        /* \"#utility.yul\":994:1001   */\n      dup5\n        /* \"#utility.yul\":985:991   */\n      dup3\n        /* \"#utility.yul\":974:983   */\n      dup6\n        /* \"#utility.yul\":970:992   */\n      add\n        /* \"#utility.yul\":949:1002   */\n      tag_164\n      jump\t// in\n    tag_229:\n        /* \"#utility.yul\":939:1002   */\n      swap2\n      pop\n        /* \"#utility.yul\":895:1012   */\n      pop\n        /* \"#utility.yul\":690:1019   */\n      swap3\n      swap2\n      pop\n      pop\n      jump\t// out\n        /* \"#utility.yul\":1025:1163   */\n    tag_165:\n        /* \"#utility.yul\":1116:1122   */\n      0x00\n        /* \"#utility.yul\":1150:1155   */\n      dup2\n        /* \"#utility.yul\":1144:1156   */\n      mload\n        /* \"#utility.yul\":1134:1156   */\n      swap1\n      pop\n        /* \"#utility.yul\":1025:1163   */\n      swap2\n      swap1\n      pop\n      jump\t// out\n        /* \"#utility.yul\":1169:1377   */\n    tag_166:\n        /* \"#utility.yul\":1292:1303   */\n      0x00\n        /* \"#utility.yul\":1326:1332   */\n      dup3\n        /* \"#utility.yul\":1321:1324   */\n      dup3\n        /* \"#utility.yul\":1314:1333   */\n      mstore\n        /* \"#utility.yul\":1366:1370   */\n      0x20\n        /* \"#utility.yul\":1361:1364   */\n      dup3\n        /* \"#utility.yul\":1357:1371   */\n      add\n        /* \"#utility.yul\":1342:1371   */\n      swap1\n      pop\n        /* \"#utility.yul\":1169:1377   */\n      swap3\n      swap2\n      pop\n      pop\n      jump\t// out\n        /* \"#utility.yul\":1383:1539   */\n    tag_167:\n        /* \"#utility.yul\":1474:1478   */\n      0x00\n        /* \"#utility.yul\":1497:1500   */\n      dup2\n        /* \"#utility.yul\":1489:1500   */\n      swap1\n      pop\n        /* \"#utility.yul\":1527:1531   */\n      0x20\n        /* \"#utility.yul\":1522:1525   */\n      dup3\n        /* \"#utility.yul\":1518:1532   */\n      add\n        /* \"#utility.yul\":1510:1532   */\n      swap1\n      pop\n        /* \"#utility.yul\":1383:1539   */\n      swap2\n      swap1\n      pop\n      jump\t// out\n        /* \"#utility.yul\":1545:1644   */\n    tag_168:\n        /* \"#utility.yul\":1597:1603   */\n      0x00\n        /* \"#utility.yul\":1631:1636   */\n      dup2\n        /* \"#utility.yul\":1625:1637   */\n      mload\n        /* \"#utility.yul\":1615:1637   */\n      swap1\n      pop\n        /* \"#utility.yul\":1545:1644   */\n      swap2\n      swap1\n      pop\n      jump\t// out\n        /* \"#utility.yul\":1650:1809   */\n    tag_169:\n        /* \"#utility.yul\":1724:1735   */\n      0x00\n        /* \"#utility.yul\":1758:1764   */\n      dup3\n        /* \"#utility.yul\":1753:1756   */\n      dup3\n        /* \"#utility.yul\":1746:1765   */\n      mstore\n        /* \"#utility.yul\":1798:1802   */\n      0x20\n        /* \"#utility.yul\":1793:1796   */\n      dup3\n        /* \"#utility.yul\":1789:1803   */\n      add\n        /* \"#utility.yul\":1774:1803   */\n      swap1\n      pop\n        /* \"#utility.yul\":1650:1809   */\n      swap3\n      swap2\n      pop\n      pop\n      jump\t// out\n        /* \"#utility.yul\":1815:1954   */\n    tag_170:\n        /* \"#utility.yul\":1904:1910   */\n      dup3\n        /* \"#utility.yul\":1899:1902   */\n      dup2\n        /* \"#utility.yul\":1894:1897   */\n      dup4\n        /* \"#utility.yul\":1888:1911   */\n      mcopy\n        /* \"#utility.yul\":1945:1946   */\n      0x00\n        /* \"#utility.yul\":1936:1942   */\n      dup4\n        /* \"#utility.yul\":1931:1934   */\n      dup4\n        /* \"#utility.yul\":1927:1943   */\n      add\n        /* \"#utility.yul\":1920:1947   */\n      mstore\n        /* \"#utility.yul\":1815:1954   */\n      pop\n      pop\n      pop\n      jump\t// out\n        /* \"#utility.yul\":1960:2062   */\n    tag_171:\n        /* \"#utility.yul\":2001:2007   */\n      0x00\n        /* \"#utility.yul\":2052:2054   */\n      0x1f\n        /* \"#utility.yul\":2048:2055   */\n      not\n        /* \"#utility.yul\":2043:2045   */\n      0x1f\n        /* \"#utility.yul\":2036:2041   */\n      dup4\n        /* \"#utility.yul\":2032:2046   */\n      add\n        /* \"#utility.yul\":2028:2056   */\n      and\n        /* \"#utility.yul\":2018:2056   */\n      swap1\n      pop\n        /* \"#utility.yul\":1960:2062   */\n      swap2\n      swap1\n      pop\n      jump\t// out\n        /* \"#utility.yul\":2068:2425   */\n    tag_172:\n        /* \"#utility.yul\":2146:2149   */\n      0x00\n        /* \"#utility.yul\":2174:2213   */\n      tag_238\n        /* \"#utility.yul\":2207:2212   */\n      dup3\n        /* \"#utility.yul\":2174:2213   */\n      tag_168\n      jump\t// in\n    tag_238:\n        /* \"#utility.yul\":2229:2290   */\n      tag_239\n        /* \"#utility.yul\":2283:2289   */\n      dup2\n        /* \"#utility.yul\":2278:2281   */\n      dup6\n        /* \"#utility.yul\":2229:2290   */\n      tag_169\n      jump\t// in\n    tag_239:\n        /* \"#utility.yul\":2222:2290   */\n      swap4\n      pop\n        /* \"#utility.yul\":2299:2364   */\n      tag_240\n        /* \"#utility.yul\":2357:2363   */\n      dup2\n        /* \"#utility.yul\":2352:2355   */\n      dup6\n        /* \"#utility.yul\":2345:2349   */\n      0x20\n        /* \"#utility.yul\":2338:2343   */\n      dup7\n        /* \"#utility.yul\":2334:2350   */\n      add\n        /* \"#utility.yul\":2299:2364   */\n      tag_170\n      jump\t// in\n    tag_240:\n        /* \"#utility.yul\":2389:2418   */\n      tag_241\n        /* \"#utility.yul\":2411:2417   */\n      dup2\n        /* \"#utility.yul\":2389:2418   */\n      tag_171\n      jump\t// in\n    tag_241:\n        /* \"#utility.yul\":2384:2387   */\n      dup5\n        /* \"#utility.yul\":2380:2419   */\n      add\n        /* \"#utility.yul\":2373:2419   */\n      swap2\n      pop\n        /* \"#utility.yul\":2150:2425   */\n      pop\n        /* \"#utility.yul\":2068:2425   */\n      swap3\n      swap2\n      pop\n      pop\n      jump\t// out\n        /* \"#utility.yul\":2431:2539   */\n    tag_173:\n        /* \"#utility.yul\":2508:2532   */\n      tag_243\n        /* \"#utility.yul\":2526:2531   */\n      dup2\n        /* \"#utility.yul\":2508:2532   */\n      tag_162\n      jump\t// in\n    tag_243:\n        /* \"#utility.yul\":2503:2506   */\n      dup3\n        /* \"#utility.yul\":2496:2533   */\n      mstore\n        /* \"#utility.yul\":2431:2539   */\n      pop\n      pop\n      jump\t// out\n        /* \"#utility.yul\":2599:3195   */\n    tag_174:\n        /* \"#utility.yul\":2706:2709   */\n      0x00\n        /* \"#utility.yul\":2742:2746   */\n      0x40\n        /* \"#utility.yul\":2737:2740   */\n      dup4\n        /* \"#utility.yul\":2733:2747   */\n      add\n        /* \"#utility.yul\":2829:2833   */\n      0x00\n        /* \"#utility.yul\":2822:2827   */\n      dup4\n        /* \"#utility.yul\":2818:2834   */\n      add\n        /* \"#utility.yul\":2812:2835   */\n      mload\n        /* \"#utility.yul\":2882:2885   */\n      dup5\n        /* \"#utility.yul\":2876:2880   */\n      dup3\n        /* \"#utility.yul\":2872:2886   */\n      sub\n        /* \"#utility.yul\":2865:2869   */\n      0x00\n        /* \"#utility.yul\":2860:2863   */\n      dup7\n        /* \"#utility.yul\":2856:2870   */\n      add\n        /* \"#utility.yul\":2849:2887   */\n      mstore\n        /* \"#utility.yul\":2908:2981   */\n      tag_245\n        /* \"#utility.yul\":2976:2980   */\n      dup3\n        /* \"#utility.yul\":2962:2974   */\n      dup3\n        /* \"#utility.yul\":2908:2981   */\n      tag_172\n      jump\t// in\n    tag_245:\n        /* \"#utility.yul\":2900:2981   */\n      swap2\n      pop\n        /* \"#utility.yul\":2757:2992   */\n      pop\n        /* \"#utility.yul\":3076:3080   */\n      0x20\n        /* \"#utility.yul\":3069:3074   */\n      dup4\n        /* \"#utility.yul\":3065:3081   */\n      add\n        /* \"#utility.yul\":3059:3082   */\n      mload\n        /* \"#utility.yul\":3095:3158   */\n      tag_246\n        /* \"#utility.yul\":3152:3156   */\n      0x20\n        /* \"#utility.yul\":3147:3150   */\n      dup7\n        /* \"#utility.yul\":3143:3157   */\n      add\n        /* \"#utility.yul\":3129:3141   */\n      dup3\n        /* \"#utility.yul\":3095:3158   */\n      tag_173\n      jump\t// in\n    tag_246:\n        /* \"#utility.yul\":3002:3168   */\n      pop\n        /* \"#utility.yul\":3185:3189   */\n      dup1\n        /* \"#utility.yul\":3178:3189   */\n      swap2\n      pop\n        /* \"#utility.yul\":2711:3195   */\n      pop\n        /* \"#utility.yul\":2599:3195   */\n      swap3\n      swap2\n      pop\n      pop\n      jump\t// out\n        /* \"#utility.yul\":3201:3453   */\n    tag_175:\n        /* \"#utility.yul\":3318:3328   */\n      0x00\n        /* \"#utility.yul\":3353:3447   */\n      tag_248\n        /* \"#utility.yul\":3443:3446   */\n      dup4\n        /* \"#utility.yul\":3435:3441   */\n      dup4\n        /* \"#utility.yul\":3353:3447   */\n      tag_174\n      jump\t// in\n    tag_248:\n        /* \"#utility.yul\":3339:3447   */\n      swap1\n      pop\n        /* \"#utility.yul\":3201:3453   */\n      swap3\n      swap2\n      pop\n      pop\n      jump\t// out\n        /* \"#utility.yul\":3459:3596   */\n    tag_176:\n        /* \"#utility.yul\":3553:3557   */\n      0x00\n        /* \"#utility.yul\":3585:3589   */\n      0x20\n        /* \"#utility.yul\":3580:3583   */\n      dup3\n        /* \"#utility.yul\":3576:3590   */\n      add\n        /* \"#utility.yul\":3568:3590   */\n      swap1\n      pop\n        /* \"#utility.yul\":3459:3596   */\n      swap2\n      swap1\n      pop\n      jump\t// out\n        /* \"#utility.yul\":3660:4763   */\n    tag_177:\n        /* \"#utility.yul\":3827:3830   */\n      0x00\n        /* \"#utility.yul\":3856:3934   */\n      tag_251\n        /* \"#utility.yul\":3928:3933   */\n      dup3\n        /* \"#utility.yul\":3856:3934   */\n      tag_165\n      jump\t// in\n    tag_251:\n        /* \"#utility.yul\":3950:4060   */\n      tag_252\n        /* \"#utility.yul\":4053:4059   */\n      dup2\n        /* \"#utility.yul\":4048:4051   */\n      dup6\n        /* \"#utility.yul\":3950:4060   */\n      tag_166\n      jump\t// in\n    tag_252:\n        /* \"#utility.yul\":3943:4060   */\n      swap4\n      pop\n        /* \"#utility.yul\":4086:4089   */\n      dup4\n        /* \"#utility.yul\":4131:4135   */\n      0x20\n        /* \"#utility.yul\":4123:4129   */\n      dup3\n        /* \"#utility.yul\":4119:4136   */\n      mul\n        /* \"#utility.yul\":4114:4117   */\n      dup6\n        /* \"#utility.yul\":4110:4137   */\n      add\n        /* \"#utility.yul\":4161:4241   */\n      tag_253\n        /* \"#utility.yul\":4235:4240   */\n      dup6\n        /* \"#utility.yul\":4161:4241   */\n      tag_167\n      jump\t// in\n    tag_253:\n        /* \"#utility.yul\":4264:4271   */\n      dup1\n        /* \"#utility.yul\":4295:4296   */\n      0x00\n        /* \"#utility.yul\":4280:4718   */\n    tag_254:\n        /* \"#utility.yul\":4305:4311   */\n      dup6\n        /* \"#utility.yul\":4302:4303   */\n      dup2\n        /* \"#utility.yul\":4299:4312   */\n      lt\n        /* \"#utility.yul\":4280:4718   */\n      iszero\n      tag_256\n      jumpi\n        /* \"#utility.yul\":4376:4385   */\n      dup5\n        /* \"#utility.yul\":4370:4374   */\n      dup5\n        /* \"#utility.yul\":4366:4386   */\n      sub\n        /* \"#utility.yul\":4361:4364   */\n      dup10\n        /* \"#utility.yul\":4354:4387   */\n      mstore\n        /* \"#utility.yul\":4427:4433   */\n      dup2\n        /* \"#utility.yul\":4421:4434   */\n      mload\n        /* \"#utility.yul\":4455:4567   */\n      tag_257\n        /* \"#utility.yul\":4562:4566   */\n      dup6\n        /* \"#utility.yul\":4547:4560   */\n      dup3\n        /* \"#utility.yul\":4455:4567   */\n      tag_175\n      jump\t// in\n    tag_257:\n        /* \"#utility.yul\":4447:4567   */\n      swap5\n      pop\n        /* \"#utility.yul\":4590:4674   */\n      tag_258\n        /* \"#utility.yul\":4667:4673   */\n      dup4\n        /* \"#utility.yul\":4590:4674   */\n      tag_176\n      jump\t// in\n    tag_258:\n        /* \"#utility.yul\":4580:4674   */\n      swap3\n      pop\n        /* \"#utility.yul\":4703:4707   */\n      0x20\n        /* \"#utility.yul\":4698:4701   */\n      dup11\n        /* \"#utility.yul\":4694:4708   */\n      add\n        /* \"#utility.yul\":4687:4708   */\n      swap10\n      pop\n        /* \"#utility.yul\":4340:4718   */\n      pop\n        /* \"#utility.yul\":4327:4328   */\n      0x01\n        /* \"#utility.yul\":4324:4325   */\n      dup2\n        /* \"#utility.yul\":4320:4329   */\n      add\n        /* \"#utility.yul\":4315:4329   */\n      swap1\n      pop\n        /* \"#utility.yul\":4280:4718   */\n      jump(tag_254)\n    tag_256:\n        /* \"#utility.yul\":4284:4298   */\n      pop\n        /* \"#utility.yul\":4734:4738   */\n      dup3\n        /* \"#utility.yul\":4727:4738   */\n      swap8\n      pop\n        /* \"#utility.yul\":4754:4757   */\n      dup8\n        /* \"#utility.yul\":4747:4757   */\n      swap6\n      pop\n        /* \"#utility.yul\":3832:4763   */\n      pop\n      pop\n      pop\n      pop\n      pop\n        /* \"#utility.yul\":3660:4763   */\n      swap3\n      swap2\n      pop\n      pop\n      jump\t// out\n        /* \"#utility.yul\":4769:5238   */\n    tag_25:\n        /* \"#utility.yul\":4960:4964   */\n      0x00\n        /* \"#utility.yul\":4998:5000   */\n      0x20\n        /* \"#utility.yul\":4987:4996   */\n      dup3\n        /* \"#utility.yul\":4983:5001   */\n      add\n        /* \"#utility.yul\":4975:5001   */\n      swap1\n      pop\n        /* \"#utility.yul\":5047:5056   */\n      dup2\n        /* \"#utility.yul\":5041:5045   */\n      dup2\n        /* \"#utility.yul\":5037:5057   */\n      sub\n        /* \"#utility.yul\":5033:5034   */\n      0x00\n        /* \"#utility.yul\":5022:5031   */\n      dup4\n        /* \"#utility.yul\":5018:5035   */\n      add\n        /* \"#utility.yul\":5011:5058   */\n      mstore\n        /* \"#utility.yul\":5075:5231   */\n      tag_260\n        /* \"#utility.yul\":5226:5230   */\n      dup2\n        /* \"#utility.yul\":5217:5223   */\n      dup5\n        /* \"#utility.yul\":5075:5231   */\n      tag_177\n      jump\t// in\n    tag_260:\n        /* \"#utility.yul\":5067:5231   */\n      swap1\n      pop\n        /* \"#utility.yul\":4769:5238   */\n      swap3\n      swap2\n      pop\n      pop\n      jump\t// out\n        /* \"#utility.yul\":5244:5361   */\n    tag_178:\n        /* \"#utility.yul\":5353:5354   */\n      0x00\n        /* \"#utility.yul\":5350:5351   */\n      dup1\n        /* \"#utility.yul\":5343:5355   */\n      revert\n        /* \"#utility.yul\":5367:5484   */\n    tag_179:\n        /* \"#utility.yul\":5476:5477   */\n      0x00\n        /* \"#utility.yul\":5473:5474   */\n      dup1\n        /* \"#utility.yul\":5466:5478   */\n      revert\n        /* \"#utility.yul\":5490:5670   */\n    tag_180:\n        /* \"#utility.yul\":5538:5615   */\n      0x4e487b7100000000000000000000000000000000000000000000000000000000\n        /* \"#utility.yul\":5535:5536   */\n      0x00\n        /* \"#utility.yul\":5528:5616   */\n      mstore\n        /* \"#utility.yul\":5635:5639   */\n      0x41\n        /* \"#utility.yul\":5632:5633   */\n      0x04\n        /* \"#utility.yul\":5625:5640   */\n      mstore\n        /* \"#utility.yul\":5659:5663   */\n      0x24\n        /* \"#utility.yul\":5656:5657   */\n      0x00\n        /* \"#utility.yul\":5649:5664   */\n      revert\n        /* \"#utility.yul\":5676:5957   */\n    tag_181:\n        /* \"#utility.yul\":5759:5786   */\n      tag_265\n        /* \"#utility.yul\":5781:5785   */\n      dup3\n        /* \"#utility.yul\":5759:5786   */\n      tag_171\n      jump\t// in\n    tag_265:\n        /* \"#utility.yul\":5751:5757   */\n      dup2\n        /* \"#utility.yul\":5747:5787   */\n      add\n        /* \"#utility.yul\":5889:5895   */\n      dup2\n        /* \"#utility.yul\":5877:5887   */\n      dup2\n        /* \"#utility.yul\":5874:5896   */\n      lt\n        /* \"#utility.yul\":5853:5871   */\n      0xffffffffffffffff\n        /* \"#utility.yul\":5841:5851   */\n      dup3\n        /* \"#utility.yul\":5838:5872   */\n      gt\n        /* \"#utility.yul\":5835:5897   */\n      or\n        /* \"#utility.yul\":5832:5920   */\n      iszero\n      tag_266\n      jumpi\n        /* \"#utility.yul\":5900:5918   */\n      tag_267\n      tag_180\n      jump\t// in\n    tag_267:\n        /* \"#utility.yul\":5832:5920   */\n    tag_266:\n        /* \"#utility.yul\":5940:5950   */\n      dup1\n        /* \"#utility.yul\":5936:5938   */\n      0x40\n        /* \"#utility.yul\":5929:5951   */\n      mstore\n        /* \"#utility.yul\":5719:5957   */\n      pop\n        /* \"#utility.yul\":5676:5957   */\n      pop\n      pop\n      jump\t// out\n        /* \"#utility.yul\":5963:6092   */\n    tag_182:\n        /* \"#utility.yul\":5997:6003   */\n      0x00\n        /* \"#utility.yul\":6024:6044   */\n      tag_269\n      tag_159\n      jump\t// in\n    tag_269:\n        /* \"#utility.yul\":6014:6044   */\n      swap1\n      pop\n        /* \"#utility.yul\":6053:6086   */\n      tag_270\n        /* \"#utility.yul\":6081:6085   */\n      dup3\n        /* \"#utility.yul\":6073:6079   */\n      dup3\n        /* \"#utility.yul\":6053:6086   */\n      tag_181\n      jump\t// in\n    tag_270:\n        /* \"#utility.yul\":5963:6092   */\n      swap2\n      swap1\n      pop\n      jump\t// out\n        /* \"#utility.yul\":6098:6406   */\n    tag_183:\n        /* \"#utility.yul\":6160:6164   */\n      0x00\n        /* \"#utility.yul\":6250:6268   */\n      0xffffffffffffffff\n        /* \"#utility.yul\":6242:6248   */\n      dup3\n        /* \"#utility.yul\":6239:6269   */\n      gt\n        /* \"#utility.yul\":6236:6292   */\n      iszero\n      tag_272\n      jumpi\n        /* \"#utility.yul\":6272:6290   */\n      tag_273\n      tag_180\n      jump\t// in\n    tag_273:\n        /* \"#utility.yul\":6236:6292   */\n    tag_272:\n        /* \"#utility.yul\":6310:6339   */\n      tag_274\n        /* \"#utility.yul\":6332:6338   */\n      dup3\n        /* \"#utility.yul\":6310:6339   */\n      tag_171\n      jump\t// in\n    tag_274:\n        /* \"#utility.yul\":6302:6339   */\n      swap1\n      pop\n        /* \"#utility.yul\":6394:6398   */\n      0x20\n        /* \"#utility.yul\":6388:6392   */\n      dup2\n        /* \"#utility.yul\":6384:6399   */\n      add\n        /* \"#utility.yul\":6376:6399   */\n      swap1\n      pop\n        /* \"#utility.yul\":6098:6406   */\n      swap2\n      swap1\n      pop\n      jump\t// out\n        /* \"#utility.yul\":6412:6560   */\n    tag_184:\n        /* \"#utility.yul\":6510:6516   */\n      dup3\n        /* \"#utility.yul\":6505:6508   */\n      dup2\n        /* \"#utility.yul\":6500:6503   */\n      dup4\n        /* \"#utility.yul\":6487:6517   */\n      calldatacopy\n        /* \"#utility.yul\":6551:6552   */\n      0x00\n        /* \"#utility.yul\":6542:6548   */\n      dup4\n        /* \"#utility.yul\":6537:6540   */\n      dup4\n        /* \"#utility.yul\":6533:6549   */\n      add\n        /* \"#utility.yul\":6526:6553   */\n      mstore\n        /* \"#utility.yul\":6412:6560   */\n      pop\n      pop\n      pop\n      jump\t// out\n        /* \"#utility.yul\":6566:6991   */\n    tag_185:\n        /* \"#utility.yul\":6644:6649   */\n      0x00\n        /* \"#utility.yul\":6669:6735   */\n      tag_277\n        /* \"#utility.yul\":6685:6734   */\n      tag_278\n        /* \"#utility.yul\":6727:6733   */\n      dup5\n        /* \"#utility.yul\":6685:6734   */\n      tag_183\n      jump\t// in\n    tag_278:\n        /* \"#utility.yul\":6669:6735   */\n      tag_182\n      jump\t// in\n    tag_277:\n        /* \"#utility.yul\":6660:6735   */\n      swap1\n      pop\n        /* \"#utility.yul\":6758:6764   */\n      dup3\n        /* \"#utility.yul\":6751:6756   */\n      dup2\n        /* \"#utility.yul\":6744:6765   */\n      mstore\n        /* \"#utility.yul\":6796:6800   */\n      0x20\n        /* \"#utility.yul\":6789:6794   */\n      dup2\n        /* \"#utility.yul\":6785:6801   */\n      add\n        /* \"#utility.yul\":6834:6837   */\n      dup5\n        /* \"#utility.yul\":6825:6831   */\n      dup5\n        /* \"#utility.yul\":6820:6823   */\n      dup5\n        /* \"#utility.yul\":6816:6832   */\n      add\n        /* \"#utility.yul\":6813:6838   */\n      gt\n        /* \"#utility.yul\":6810:6922   */\n      iszero\n      tag_279\n      jumpi\n        /* \"#utility.yul\":6841:6920   */\n      tag_280\n      tag_179\n      jump\t// in\n    tag_280:\n        /* \"#utility.yul\":6810:6922   */\n    tag_279:\n        /* \"#utility.yul\":6931:6985   */\n      tag_281\n        /* \"#utility.yul\":6978:6984   */\n      dup5\n        /* \"#utility.yul\":6973:6976   */\n      dup3\n        /* \"#utility.yul\":6968:6971   */\n      dup6\n        /* \"#utility.yul\":6931:6985   */\n      tag_184\n      jump\t// in\n    tag_281:\n        /* \"#utility.yul\":6650:6991   */\n      pop\n        /* \"#utility.yul\":6566:6991   */\n      swap4\n      swap3\n      pop\n      pop\n      pop\n      jump\t// out\n        /* \"#utility.yul\":7011:7351   */\n    tag_186:\n        /* \"#utility.yul\":7067:7072   */\n      0x00\n        /* \"#utility.yul\":7116:7119   */\n      dup3\n        /* \"#utility.yul\":7109:7113   */\n      0x1f\n        /* \"#utility.yul\":7101:7107   */\n      dup4\n        /* \"#utility.yul\":7097:7114   */\n      add\n        /* \"#utility.yul\":7093:7120   */\n      slt\n        /* \"#utility.yul\":7083:7205   */\n      tag_283\n      jumpi\n        /* \"#utility.yul\":7124:7203   */\n      tag_284\n      tag_178\n      jump\t// in\n    tag_284:\n        /* \"#utility.yul\":7083:7205   */\n    tag_283:\n        /* \"#utility.yul\":7241:7247   */\n      dup2\n        /* \"#utility.yul\":7228:7248   */\n      calldataload\n        /* \"#utility.yul\":7266:7345   */\n      tag_285\n        /* \"#utility.yul\":7341:7344   */\n      dup5\n        /* \"#utility.yul\":7333:7339   */\n      dup3\n        /* \"#utility.yul\":7326:7330   */\n      0x20\n        /* \"#utility.yul\":7318:7324   */\n      dup7\n        /* \"#utility.yul\":7314:7331   */\n      add\n        /* \"#utility.yul\":7266:7345   */\n      tag_185\n      jump\t// in\n    tag_285:\n        /* \"#utility.yul\":7257:7345   */\n      swap2\n      pop\n        /* \"#utility.yul\":7073:7351   */\n      pop\n        /* \"#utility.yul\":7011:7351   */\n      swap3\n      swap2\n      pop\n      pop\n      jump\t// out\n        /* \"#utility.yul\":7357:7866   */\n    tag_28:\n        /* \"#utility.yul\":7426:7432   */\n      0x00\n        /* \"#utility.yul\":7475:7477   */\n      0x20\n        /* \"#utility.yul\":7463:7472   */\n      dup3\n        /* \"#utility.yul\":7454:7461   */\n      dup5\n        /* \"#utility.yul\":7450:7473   */\n      sub\n        /* \"#utility.yul\":7446:7478   */\n      slt\n        /* \"#utility.yul\":7443:7562   */\n      iszero\n      tag_287\n      jumpi\n        /* \"#utility.yul\":7481:7560   */\n      tag_288\n      tag_160\n      jump\t// in\n    tag_288:\n        /* \"#utility.yul\":7443:7562   */\n    tag_287:\n        /* \"#utility.yul\":7629:7630   */\n      0x00\n        /* \"#utility.yul\":7618:7627   */\n      dup3\n        /* \"#utility.yul\":7614:7631   */\n      add\n        /* \"#utility.yul\":7601:7632   */\n      calldataload\n        /* \"#utility.yul\":7659:7677   */\n      0xffffffffffffffff\n        /* \"#utility.yul\":7651:7657   */\n      dup2\n        /* \"#utility.yul\":7648:7678   */\n      gt\n        /* \"#utility.yul\":7645:7762   */\n      iszero\n      tag_289\n      jumpi\n        /* \"#utility.yul\":7681:7760   */\n      tag_290\n      tag_161\n      jump\t// in\n    tag_290:\n        /* \"#utility.yul\":7645:7762   */\n    tag_289:\n        /* \"#utility.yul\":7786:7849   */\n      tag_291\n        /* \"#utility.yul\":7841:7848   */\n      dup5\n        /* \"#utility.yul\":7832:7838   */\n      dup3\n        /* \"#utility.yul\":7821:7830   */\n      dup6\n        /* \"#utility.yul\":7817:7839   */\n      add\n        /* \"#utility.yul\":7786:7849   */\n      tag_186\n      jump\t// in\n    tag_291:\n        /* \"#utility.yul\":7776:7849   */\n      swap2\n      pop\n        /* \"#utility.yul\":7572:7859   */\n      pop\n        /* \"#utility.yul\":7357:7866   */\n      swap3\n      swap2\n      pop\n      pop\n      jump\t// out\n        /* \"#utility.yul\":7872:8041   */\n    tag_187:\n        /* \"#utility.yul\":7956:7967   */\n      0x00\n        /* \"#utility.yul\":7990:7996   */\n      dup3\n        /* \"#utility.yul\":7985:7988   */\n      dup3\n        /* \"#utility.yul\":7978:7997   */\n      mstore\n        /* \"#utility.yul\":8030:8034   */\n      0x20\n        /* \"#utility.yul\":8025:8028   */\n      dup3\n        /* \"#utility.yul\":8021:8035   */\n      add\n        /* \"#utility.yul\":8006:8035   */\n      swap1\n      pop\n        /* \"#utility.yul\":7872:8041   */\n      swap3\n      swap2\n      pop\n      pop\n      jump\t// out\n        /* \"#utility.yul\":8047:8424   */\n    tag_188:\n        /* \"#utility.yul\":8135:8138   */\n      0x00\n        /* \"#utility.yul\":8163:8202   */\n      tag_294\n        /* \"#utility.yul\":8196:8201   */\n      dup3\n        /* \"#utility.yul\":8163:8202   */\n      tag_168\n      jump\t// in\n    tag_294:\n        /* \"#utility.yul\":8218:8289   */\n      tag_295\n        /* \"#utility.yul\":8282:8288   */\n      dup2\n        /* \"#utility.yul\":8277:8280   */\n      dup6\n        /* \"#utility.yul\":8218:8289   */\n      tag_187\n      jump\t// in\n    tag_295:\n        /* \"#utility.yul\":8211:8289   */\n      swap4\n      pop\n        /* \"#utility.yul\":8298:8363   */\n      tag_296\n        /* \"#utility.yul\":8356:8362   */\n      dup2\n        /* \"#utility.yul\":8351:8354   */\n      dup6\n        /* \"#utility.yul\":8344:8348   */\n      0x20\n        /* \"#utility.yul\":8337:8342   */\n      dup7\n        /* \"#utility.yul\":8333:8349   */\n      add\n        /* \"#utility.yul\":8298:8363   */\n      tag_170\n      jump\t// in\n    tag_296:\n        /* \"#utility.yul\":8388:8417   */\n      tag_297\n        /* \"#utility.yul\":8410:8416   */\n      dup2\n        /* \"#utility.yul\":8388:8417   */\n      tag_171\n      jump\t// in\n    tag_297:\n        /* \"#utility.yul\":8383:8386   */\n      dup5\n        /* \"#utility.yul\":8379:8418   */\n      add\n        /* \"#utility.yul\":8372:8418   */\n      swap2\n      pop\n        /* \"#utility.yul\":8139:8424   */\n      pop\n        /* \"#utility.yul\":8047:8424   */\n      swap3\n      swap2\n      pop\n      pop\n      jump\t// out\n        /* \"#utility.yul\":8430:8743   */\n    tag_33:\n        /* \"#utility.yul\":8543:8547   */\n      0x00\n        /* \"#utility.yul\":8581:8583   */\n      0x20\n        /* \"#utility.yul\":8570:8579   */\n      dup3\n        /* \"#utility.yul\":8566:8584   */\n      add\n        /* \"#utility.yul\":8558:8584   */\n      swap1\n      pop\n        /* \"#utility.yul\":8630:8639   */\n      dup2\n        /* \"#utility.yul\":8624:8628   */\n      dup2\n        /* \"#utility.yul\":8620:8640   */\n      sub\n        /* \"#utility.yul\":8616:8617   */\n      0x00\n        /* \"#utility.yul\":8605:8614   */\n      dup4\n        /* \"#utility.yul\":8601:8618   */\n      add\n        /* \"#utility.yul\":8594:8641   */\n      mstore\n        /* \"#utility.yul\":8658:8736   */\n      tag_299\n        /* \"#utility.yul\":8731:8735   */\n      dup2\n        /* \"#utility.yul\":8722:8728   */\n      dup5\n        /* \"#utility.yul\":8658:8736   */\n      tag_188\n      jump\t// in\n    tag_299:\n        /* \"#utility.yul\":8650:8736   */\n      swap1\n      pop\n        /* \"#utility.yul\":8430:8743   */\n      swap3\n      swap2\n      pop\n      pop\n      jump\t// out\n        /* \"#utility.yul\":8749:8875   */\n    tag_189:\n        /* \"#utility.yul\":8786:8793   */\n      0x00\n        /* \"#utility.yul\":8826:8868   */\n      0xffffffffffffffffffffffffffffffffffffffff\n        /* \"#utility.yul\":8819:8824   */\n      dup3\n        /* \"#utility.yul\":8815:8869   */\n      and\n        /* \"#utility.yul\":8804:8869   */\n      swap1\n      pop\n        /* \"#utility.yul\":8749:8875   */\n      swap2\n      swap1\n      pop\n      jump\t// out\n        /* \"#utility.yul\":8881:8977   */\n    tag_190:\n        /* \"#utility.yul\":8918:8925   */\n      0x00\n        /* \"#utility.yul\":8947:8971   */\n      tag_302\n        /* \"#utility.yul\":8965:8970   */\n      dup3\n        /* \"#utility.yul\":8947:8971   */\n      tag_189\n      jump\t// in\n    tag_302:\n        /* \"#utility.yul\":8936:8971   */\n      swap1\n      pop\n        /* \"#utility.yul\":8881:8977   */\n      swap2\n      swap1\n      pop\n      jump\t// out\n        /* \"#utility.yul\":8983:9101   */\n    tag_191:\n        /* \"#utility.yul\":9070:9094   */\n      tag_304\n        /* \"#utility.yul\":9088:9093   */\n      dup2\n        /* \"#utility.yul\":9070:9094   */\n      tag_190\n      jump\t// in\n    tag_304:\n        /* \"#utility.yul\":9065:9068   */\n      dup3\n        /* \"#utility.yul\":9058:9095   */\n      mstore\n        /* \"#utility.yul\":8983:9101   */\n      pop\n      pop\n      jump\t// out\n        /* \"#utility.yul\":9107:9329   */\n    tag_37:\n        /* \"#utility.yul\":9200:9204   */\n      0x00\n        /* \"#utility.yul\":9238:9240   */\n      0x20\n        /* \"#utility.yul\":9227:9236   */\n      dup3\n        /* \"#utility.yul\":9223:9241   */\n      add\n        /* \"#utility.yul\":9215:9241   */\n      swap1\n      pop\n        /* \"#utility.yul\":9251:9322   */\n      tag_306\n        /* \"#utility.yul\":9319:9320   */\n      0x00\n        /* \"#utility.yul\":9308:9317   */\n      dup4\n        /* \"#utility.yul\":9304:9321   */\n      add\n        /* \"#utility.yul\":9295:9301   */\n      dup5\n        /* \"#utility.yul\":9251:9322   */\n      tag_191\n      jump\t// in\n    tag_306:\n        /* \"#utility.yul\":9107:9329   */\n      swap3\n      swap2\n      pop\n      pop\n      jump\t// out\n        /* \"#utility.yul\":9335:9425   */\n    tag_192:\n        /* \"#utility.yul\":9369:9376   */\n      0x00\n        /* \"#utility.yul\":9412:9417   */\n      dup2\n        /* \"#utility.yul\":9405:9418   */\n      iszero\n        /* \"#utility.yul\":9398:9419   */\n      iszero\n        /* \"#utility.yul\":9387:9419   */\n      swap1\n      pop\n        /* \"#utility.yul\":9335:9425   */\n      swap2\n      swap1\n      pop\n      jump\t// out\n        /* \"#utility.yul\":9431:9540   */\n    tag_193:\n        /* \"#utility.yul\":9512:9533   */\n      tag_309\n        /* \"#utility.yul\":9527:9532   */\n      dup2\n        /* \"#utility.yul\":9512:9533   */\n      tag_192\n      jump\t// in\n    tag_309:\n        /* \"#utility.yul\":9507:9510   */\n      dup3\n        /* \"#utility.yul\":9500:9534   */\n      mstore\n        /* \"#utility.yul\":9431:9540   */\n      pop\n      pop\n      jump\t// out\n        /* \"#utility.yul\":9546:9756   */\n    tag_41:\n        /* \"#utility.yul\":9633:9637   */\n      0x00\n        /* \"#utility.yul\":9671:9673   */\n      0x20\n        /* \"#utility.yul\":9660:9669   */\n      dup3\n        /* \"#utility.yul\":9656:9674   */\n      add\n        /* \"#utility.yul\":9648:9674   */\n      swap1\n      pop\n        /* \"#utility.yul\":9684:9749   */\n      tag_311\n        /* \"#utility.yul\":9746:9747   */\n      0x00\n        /* \"#utility.yul\":9735:9744   */\n      dup4\n        /* \"#utility.yul\":9731:9748   */\n      add\n        /* \"#utility.yul\":9722:9728   */\n      dup5\n        /* \"#utility.yul\":9684:9749   */\n      tag_193\n      jump\t// in\n    tag_311:\n        /* \"#utility.yul\":9546:9756   */\n      swap3\n      swap2\n      pop\n      pop\n      jump\t// out\n        /* \"#utility.yul\":9762:9880   */\n    tag_194:\n        /* \"#utility.yul\":9849:9873   */\n      tag_313\n        /* \"#utility.yul\":9867:9872   */\n      dup2\n        /* \"#utility.yul\":9849:9873   */\n      tag_162\n      jump\t// in\n    tag_313:\n        /* \"#utility.yul\":9844:9847   */\n      dup3\n        /* \"#utility.yul\":9837:9874   */\n      mstore\n        /* \"#utility.yul\":9762:9880   */\n      pop\n      pop\n      jump\t// out\n        /* \"#utility.yul\":9886:10108   */\n    tag_48:\n        /* \"#utility.yul\":9979:9983   */\n      0x00\n        /* \"#utility.yul\":10017:10019   */\n      0x20\n        /* \"#utility.yul\":10006:10015   */\n      dup3\n        /* \"#utility.yul\":10002:10020   */\n      add\n        /* \"#utility.yul\":9994:10020   */\n      swap1\n      pop\n        /* \"#utility.yul\":10030:10101   */\n      tag_315\n        /* \"#utility.yul\":10098:10099   */\n      0x00\n        /* \"#utility.yul\":10087:10096   */\n      dup4\n        /* \"#utility.yul\":10083:10100   */\n      add\n        /* \"#utility.yul\":10074:10080   */\n      dup5\n        /* \"#utility.yul\":10030:10101   */\n      tag_194\n      jump\t// in\n    tag_315:\n        /* \"#utility.yul\":9886:10108   */\n      swap3\n      swap2\n      pop\n      pop\n      jump\t// out\n        /* \"#utility.yul\":10114:10236   */\n    tag_195:\n        /* \"#utility.yul\":10187:10211   */\n      tag_317\n        /* \"#utility.yul\":10205:10210   */\n      dup2\n        /* \"#utility.yul\":10187:10211   */\n      tag_190\n      jump\t// in\n    tag_317:\n        /* \"#utility.yul\":10180:10185   */\n      dup2\n        /* \"#utility.yul\":10177:10212   */\n      eq\n        /* \"#utility.yul\":10167:10230   */\n      tag_318\n      jumpi\n        /* \"#utility.yul\":10226:10227   */\n      0x00\n        /* \"#utility.yul\":10223:10224   */\n      dup1\n        /* \"#utility.yul\":10216:10228   */\n      revert\n        /* \"#utility.yul\":10167:10230   */\n    tag_318:\n        /* \"#utility.yul\":10114:10236   */\n      pop\n      jump\t// out\n        /* \"#utility.yul\":10242:10381   */\n    tag_196:\n        /* \"#utility.yul\":10288:10293   */\n      0x00\n        /* \"#utility.yul\":10326:10332   */\n      dup2\n        /* \"#utility.yul\":10313:10333   */\n      calldataload\n        /* \"#utility.yul\":10304:10333   */\n      swap1\n      pop\n        /* \"#utility.yul\":10342:10375   */\n      tag_320\n        /* \"#utility.yul\":10369:10374   */\n      dup2\n        /* \"#utility.yul\":10342:10375   */\n      tag_195\n      jump\t// in\n    tag_320:\n        /* \"#utility.yul\":10242:10381   */\n      swap3\n      swap2\n      pop\n      pop\n      jump\t// out\n        /* \"#utility.yul\":10387:10716   */\n    tag_51:\n        /* \"#utility.yul\":10446:10452   */\n      0x00\n        /* \"#utility.yul\":10495:10497   */\n      0x20\n        /* \"#utility.yul\":10483:10492   */\n      dup3\n        /* \"#utility.yul\":10474:10481   */\n      dup5\n        /* \"#utility.yul\":10470:10493   */\n      sub\n        /* \"#utility.yul\":10466:10498   */\n      slt\n        /* \"#utility.yul\":10463:10582   */\n      iszero\n      tag_322\n      jumpi\n        /* \"#utility.yul\":10501:10580   */\n      tag_323\n      tag_160\n      jump\t// in\n    tag_323:\n        /* \"#utility.yul\":10463:10582   */\n    tag_322:\n        /* \"#utility.yul\":10621:10622   */\n      0x00\n        /* \"#utility.yul\":10646:10699   */\n      tag_324\n        /* \"#utility.yul\":10691:10698   */\n      dup5\n        /* \"#utility.yul\":10682:10688   */\n      dup3\n        /* \"#utility.yul\":10671:10680   */\n      dup6\n        /* \"#utility.yul\":10667:10689   */\n      add\n        /* \"#utility.yul\":10646:10699   */\n      tag_196\n      jump\t// in\n    tag_324:\n        /* \"#utility.yul\":10636:10699   */\n      swap2\n      pop\n        /* \"#utility.yul\":10592:10709   */\n      pop\n        /* \"#utility.yul\":10387:10716   */\n      swap3\n      swap2\n      pop\n      pop\n      jump\t// out\n        /* \"#utility.yul\":10722:11042   */\n    tag_54:\n        /* \"#utility.yul\":10837:10841   */\n      0x00\n        /* \"#utility.yul\":10875:10877   */\n      0x40\n        /* \"#utility.yul\":10864:10873   */\n      dup3\n        /* \"#utility.yul\":10860:10878   */\n      add\n        /* \"#utility.yul\":10852:10878   */\n      swap1\n      pop\n        /* \"#utility.yul\":10888:10953   */\n      tag_326\n        /* \"#utility.yul\":10950:10951   */\n      0x00\n        /* \"#utility.yul\":10939:10948   */\n      dup4\n        /* \"#utility.yul\":10935:10952   */\n      add\n        /* \"#utility.yul\":10926:10932   */\n      dup6\n        /* \"#utility.yul\":10888:10953   */\n      tag_193\n      jump\t// in\n    tag_326:\n        /* \"#utility.yul\":10963:11035   */\n      tag_327\n        /* \"#utility.yul\":11031:11033   */\n      0x20\n        /* \"#utility.yul\":11020:11029   */\n      dup4\n        /* \"#utility.yul\":11016:11034   */\n      add\n        /* \"#utility.yul\":11007:11013   */\n      dup5\n        /* \"#utility.yul\":10963:11035   */\n      tag_194\n      jump\t// in\n    tag_327:\n        /* \"#utility.yul\":10722:11042   */\n      swap4\n      swap3\n      pop\n      pop\n      pop\n      jump\t// out\n        /* \"#utility.yul\":11048:11471   */\n    tag_59:\n        /* \"#utility.yul\":11189:11193   */\n      0x00\n        /* \"#utility.yul\":11227:11229   */\n      0x40\n        /* \"#utility.yul\":11216:11225   */\n      dup3\n        /* \"#utility.yul\":11212:11230   */\n      add\n        /* \"#utility.yul\":11204:11230   */\n      swap1\n      pop\n        /* \"#utility.yul\":11276:11285   */\n      dup2\n        /* \"#utility.yul\":11270:11274   */\n      dup2\n        /* \"#utility.yul\":11266:11286   */\n      sub\n        /* \"#utility.yul\":11262:11263   */\n      0x00\n        /* \"#utility.yul\":11251:11260   */\n      dup4\n        /* \"#utility.yul\":11247:11264   */\n      add\n        /* \"#utility.yul\":11240:11287   */\n      mstore\n        /* \"#utility.yul\":11304:11382   */\n      tag_329\n        /* \"#utility.yul\":11377:11381   */\n      dup2\n        /* \"#utility.yul\":11368:11374   */\n      dup6\n        /* \"#utility.yul\":11304:11382   */\n      tag_188\n      jump\t// in\n    tag_329:\n        /* \"#utility.yul\":11296:11382   */\n      swap1\n      pop\n        /* \"#utility.yul\":11392:11464   */\n      tag_330\n        /* \"#utility.yul\":11460:11462   */\n      0x20\n        /* \"#utility.yul\":11449:11458   */\n      dup4\n        /* \"#utility.yul\":11445:11463   */\n      add\n        /* \"#utility.yul\":11436:11442   */\n      dup5\n        /* \"#utility.yul\":11392:11464   */\n      tag_194\n      jump\t// in\n    tag_330:\n        /* \"#utility.yul\":11048:11471   */\n      swap4\n      swap3\n      pop\n      pop\n      pop\n      jump\t// out\n        /* \"#utility.yul\":11477:11657   */\n    tag_197:\n        /* \"#utility.yul\":11525:11602   */\n      0x4e487b7100000000000000000000000000000000000000000000000000000000\n        /* \"#utility.yul\":11522:11523   */\n      0x00\n        /* \"#utility.yul\":11515:11603   */\n      mstore\n        /* \"#utility.yul\":11622:11626   */\n      0x11\n        /* \"#utility.yul\":11619:11620   */\n      0x04\n        /* \"#utility.yul\":11612:11627   */\n      mstore\n        /* \"#utility.yul\":11646:11650   */\n      0x24\n        /* \"#utility.yul\":11643:11644   */\n      0x00\n        /* \"#utility.yul\":11636:11651   */\n      revert\n        /* \"#utility.yul\":11663:11857   */\n    tag_69:\n        /* \"#utility.yul\":11703:11707   */\n      0x00\n        /* \"#utility.yul\":11723:11743   */\n      tag_333\n        /* \"#utility.yul\":11741:11742   */\n      dup3\n        /* \"#utility.yul\":11723:11743   */\n      tag_162\n      jump\t// in\n    tag_333:\n        /* \"#utility.yul\":11718:11743   */\n      swap2\n      pop\n        /* \"#utility.yul\":11757:11777   */\n      tag_334\n        /* \"#utility.yul\":11775:11776   */\n      dup4\n        /* \"#utility.yul\":11757:11777   */\n      tag_162\n      jump\t// in\n    tag_334:\n        /* \"#utility.yul\":11752:11777   */\n      swap3\n      pop\n        /* \"#utility.yul\":11801:11802   */\n      dup3\n        /* \"#utility.yul\":11798:11799   */\n      dup3\n        /* \"#utility.yul\":11794:11803   */\n      sub\n        /* \"#utility.yul\":11786:11803   */\n      swap1\n      pop\n        /* \"#utility.yul\":11825:11826   */\n      dup2\n        /* \"#utility.yul\":11819:11823   */\n      dup2\n        /* \"#utility.yul\":11816:11827   */\n      gt\n        /* \"#utility.yul\":11813:11850   */\n      iszero\n      tag_335\n      jumpi\n        /* \"#utility.yul\":11830:11848   */\n      tag_336\n      tag_197\n      jump\t// in\n    tag_336:\n        /* \"#utility.yul\":11813:11850   */\n    tag_335:\n        /* \"#utility.yul\":11663:11857   */\n      swap3\n      swap2\n      pop\n      pop\n      jump\t// out\n        /* \"#utility.yul\":11863:12043   */\n    tag_72:\n        /* \"#utility.yul\":11911:11988   */\n      0x4e487b7100000000000000000000000000000000000000000000000000000000\n        /* \"#utility.yul\":11908:11909   */\n      0x00\n        /* \"#utility.yul\":11901:11989   */\n      mstore\n        /* \"#utility.yul\":12008:12012   */\n      0x32\n        /* \"#utility.yul\":12005:12006   */\n      0x04\n        /* \"#utility.yul\":11998:12013   */\n      mstore\n        /* \"#utility.yul\":12032:12036   */\n      0x24\n        /* \"#utility.yul\":12029:12030   */\n      0x00\n        /* \"#utility.yul\":12022:12037   */\n      revert\n        /* \"#utility.yul\":12049:12229   */\n    tag_198:\n        /* \"#utility.yul\":12097:12174   */\n      0x4e487b7100000000000000000000000000000000000000000000000000000000\n        /* \"#utility.yul\":12094:12095   */\n      0x00\n        /* \"#utility.yul\":12087:12175   */\n      mstore\n        /* \"#utility.yul\":12194:12198   */\n      0x22\n        /* \"#utility.yul\":12191:12192   */\n      0x04\n        /* \"#utility.yul\":12184:12199   */\n      mstore\n        /* \"#utility.yul\":12218:12222   */\n      0x24\n        /* \"#utility.yul\":12215:12216   */\n      0x00\n        /* \"#utility.yul\":12208:12223   */\n      revert\n        /* \"#utility.yul\":12235:12555   */\n    tag_94:\n        /* \"#utility.yul\":12279:12285   */\n      0x00\n        /* \"#utility.yul\":12316:12317   */\n      0x02\n        /* \"#utility.yul\":12310:12314   */\n      dup3\n        /* \"#utility.yul\":12306:12318   */\n      div\n        /* \"#utility.yul\":12296:12318   */\n      swap1\n      pop\n        /* \"#utility.yul\":12363:12364   */\n      0x01\n        /* \"#utility.yul\":12357:12361   */\n      dup3\n        /* \"#utility.yul\":12353:12365   */\n      and\n        /* \"#utility.yul\":12384:12402   */\n      dup1\n        /* \"#utility.yul\":12374:12455   */\n      tag_340\n      jumpi\n        /* \"#utility.yul\":12440:12444   */\n      0x7f\n        /* \"#utility.yul\":12432:12438   */\n      dup3\n        /* \"#utility.yul\":12428:12445   */\n      and\n        /* \"#utility.yul\":12418:12445   */\n      swap2\n      pop\n        /* \"#utility.yul\":12374:12455   */\n    tag_340:\n        /* \"#utility.yul\":12502:12504   */\n      0x20\n        /* \"#utility.yul\":12494:12500   */\n      dup3\n        /* \"#utility.yul\":12491:12505   */\n      lt\n        /* \"#utility.yul\":12471:12489   */\n      dup2\n        /* \"#utility.yul\":12468:12506   */\n      sub\n        /* \"#utility.yul\":12465:12549   */\n      tag_341\n      jumpi\n        /* \"#utility.yul\":12521:12539   */\n      tag_342\n      tag_198\n      jump\t// in\n    tag_342:\n        /* \"#utility.yul\":12465:12549   */\n    tag_341:\n        /* \"#utility.yul\":12286:12555   */\n      pop\n        /* \"#utility.yul\":12235:12555   */\n      swap2\n      swap1\n      pop\n      jump\t// out\n        /* \"#utility.yul\":12561:12710   */\n    tag_199:\n        /* \"#utility.yul\":12610:12616   */\n      0x00\n        /* \"#utility.yul\":12644:12649   */\n      dup2\n        /* \"#utility.yul\":12638:12650   */\n      sload\n        /* \"#utility.yul\":12628:12650   */\n      swap1\n      pop\n        /* \"#utility.yul\":12670:12703   */\n      tag_344\n        /* \"#utility.yul\":12696:12702   */\n      dup2\n        /* \"#utility.yul\":12670:12703   */\n      tag_94\n      jump\t// in\n    tag_344:\n        /* \"#utility.yul\":12660:12703   */\n      swap1\n      pop\n        /* \"#utility.yul\":12561:12710   */\n      swap2\n      swap1\n      pop\n      jump\t// out\n        /* \"#utility.yul\":12716:12857   */\n    tag_200:\n        /* \"#utility.yul\":12765:12769   */\n      0x00\n        /* \"#utility.yul\":12788:12791   */\n      dup2\n        /* \"#utility.yul\":12780:12791   */\n      swap1\n      pop\n        /* \"#utility.yul\":12811:12814   */\n      dup2\n        /* \"#utility.yul\":12808:12809   */\n      0x00\n        /* \"#utility.yul\":12801:12815   */\n      mstore\n        /* \"#utility.yul\":12845:12849   */\n      0x20\n        /* \"#utility.yul\":12842:12843   */\n      0x00\n        /* \"#utility.yul\":12832:12850   */\n      keccak256\n        /* \"#utility.yul\":12824:12850   */\n      swap1\n      pop\n        /* \"#utility.yul\":12716:12857   */\n      swap2\n      swap1\n      pop\n      jump\t// out\n        /* \"#utility.yul\":12863:12956   */\n    tag_201:\n        /* \"#utility.yul\":12900:12906   */\n      0x00\n        /* \"#utility.yul\":12947:12949   */\n      0x20\n        /* \"#utility.yul\":12942:12944   */\n      0x1f\n        /* \"#utility.yul\":12935:12940   */\n      dup4\n        /* \"#utility.yul\":12931:12945   */\n      add\n        /* \"#utility.yul\":12927:12950   */\n      div\n        /* \"#utility.yul\":12917:12950   */\n      swap1\n      pop\n        /* \"#utility.yul\":12863:12956   */\n      swap2\n      swap1\n      pop\n      jump\t// out\n        /* \"#utility.yul\":12962:13069   */\n    tag_202:\n        /* \"#utility.yul\":13006:13014   */\n      0x00\n        /* \"#utility.yul\":13056:13061   */\n      dup3\n        /* \"#utility.yul\":13050:13054   */\n      dup3\n        /* \"#utility.yul\":13046:13062   */\n      shl\n        /* \"#utility.yul\":13025:13062   */\n      swap1\n      pop\n        /* \"#utility.yul\":12962:13069   */\n      swap3\n      swap2\n      pop\n      pop\n      jump\t// out\n        /* \"#utility.yul\":13075:13468   */\n    tag_203:\n        /* \"#utility.yul\":13144:13150   */\n      0x00\n        /* \"#utility.yul\":13194:13195   */\n      0x08\n        /* \"#utility.yul\":13182:13192   */\n      dup4\n        /* \"#utility.yul\":13178:13196   */\n      mul\n        /* \"#utility.yul\":13217:13314   */\n      tag_349\n        /* \"#utility.yul\":13247:13313   */\n      0xffffffffffffffffffffffffffffffffffffffffffffffffffffffffffffffff\n        /* \"#utility.yul\":13236:13245   */\n      dup3\n        /* \"#utility.yul\":13217:13314   */\n      tag_202\n      jump\t// in\n    tag_349:\n        /* \"#utility.yul\":13335:13374   */\n      tag_350\n        /* \"#utility.yul\":13365:13373   */\n      dup7\n        /* \"#utility.yul\":13354:13363   */\n      dup4\n        /* \"#utility.yul\":13335:13374   */\n      tag_202\n      jump\t// in\n    tag_350:\n        /* \"#utility.yul\":13323:13374   */\n      swap6\n      pop\n        /* \"#utility.yul\":13407:13411   */\n      dup1\n        /* \"#utility.yul\":13403:13412   */\n      not\n        /* \"#utility.yul\":13396:13401   */\n      dup5\n        /* \"#utility.yul\":13392:13413   */\n      and\n        /* \"#utility.yul\":13383:13413   */\n      swap4\n      pop\n        /* \"#utility.yul\":13456:13460   */\n      dup1\n        /* \"#utility.yul\":13446:13454   */\n      dup7\n        /* \"#utility.yul\":13442:13461   */\n      and\n        /* \"#utility.yul\":13435:13440   */\n      dup5\n        /* \"#utility.yul\":13432:13462   */\n      or\n        /* \"#utility.yul\":13422:13462   */\n      swap3\n      pop\n        /* \"#utility.yul\":13151:13468   */\n      pop\n      pop\n        /* \"#utility.yul\":13075:13468   */\n      swap4\n      swap3\n      pop\n      pop\n      pop\n      jump\t// out\n        /* \"#utility.yul\":13474:13534   */\n    tag_204:\n        /* \"#utility.yul\":13502:13505   */\n      0x00\n        /* \"#utility.yul\":13523:13528   */\n      dup2\n        /* \"#utility.yul\":13516:13528   */\n      swap1\n      pop\n        /* \"#utility.yul\":13474:13534   */\n      swap2\n      swap1\n      pop\n      jump\t// out\n        /* \"#utility.yul\":13540:13682   */\n    tag_205:\n        /* \"#utility.yul\":13590:13599   */\n      0x00\n        /* \"#utility.yul\":13623:13676   */\n      tag_353\n        /* \"#utility.yul\":13641:13675   */\n      tag_354\n        /* \"#utility.yul\":13650:13674   */\n      tag_355\n        /* \"#utility.yul\":13668:13673   */\n      dup5\n        /* \"#utility.yul\":13650:13674   */\n      tag_162\n      jump\t// in\n    tag_355:\n        /* \"#utility.yul\":13641:13675   */\n      tag_204\n      jump\t// in\n    tag_354:\n        /* \"#utility.yul\":13623:13676   */\n      tag_162\n      jump\t// in\n    tag_353:\n        /* \"#utility.yul\":13610:13676   */\n      swap1\n      pop\n        /* \"#utility.yul\":13540:13682   */\n      swap2\n      swap1\n      pop\n      jump\t// out\n        /* \"#utility.yul\":13688:13763   */\n    tag_206:\n        /* \"#utility.yul\":13731:13734   */\n      0x00\n        /* \"#utility.yul\":13752:13757   */\n      dup2\n        /* \"#utility.yul\":13745:13757   */\n      swap1\n      pop\n        /* \"#utility.yul\":13688:13763   */\n      swap2\n      swap1\n      pop\n      jump\t// out\n        /* \"#utility.yul\":13769:14038   */\n    tag_207:\n        /* \"#utility.yul\":13879:13918   */\n      tag_358\n        /* \"#utility.yul\":13910:13917   */\n      dup4\n        /* \"#utility.yul\":13879:13918   */\n      tag_205\n      jump\t// in\n    tag_358:\n        /* \"#utility.yul\":13940:14031   */\n      tag_359\n        /* \"#utility.yul\":13989:14030   */\n      tag_360\n        /* \"#utility.yul\":14013:14029   */\n      dup3\n        /* \"#utility.yul\":13989:14030   */\n      tag_206\n      jump\t// in\n    tag_360:\n        /* \"#utility.yul\":13981:13987   */\n      dup5\n        /* \"#utility.yul\":13974:13978   */\n      dup5\n        /* \"#utility.yul\":13968:13979   */\n      sload\n        /* \"#utility.yul\":13940:14031   */\n      tag_203\n      jump\t// in\n    tag_359:\n        /* \"#utility.yul\":13934:13938   */\n      dup3\n        /* \"#utility.yul\":13927:14032   */\n      sstore\n        /* \"#utility.yul\":13845:14038   */\n      pop\n        /* \"#utility.yul\":13769:14038   */\n      pop\n      pop\n      pop\n      jump\t// out\n        /* \"#utility.yul\":14044:14117   */\n    tag_208:\n        /* \"#utility.yul\":14089:14092   */\n      0x00\n        /* \"#utility.yul\":14044:14117   */\n      swap1\n      jump\t// out\n        /* \"#utility.yul\":14123:14312   */\n    tag_209:\n        /* \"#utility.yul\":14200:14232   */\n      tag_363\n      tag_208\n      jump\t// in\n    tag_363:\n        /* \"#utility.yul\":14241:14306   */\n      tag_364\n        /* \"#utility.yul\":14299:14305   */\n      dup2\n        /* \"#utility.yul\":14291:14297   */\n      dup5\n        /* \"#utility.yul\":14285:14289   */\n      dup5\n        /* \"#utility.yul\":14241:14306   */\n      tag_207\n      jump\t// in\n    tag_364:\n        /* \"#utility.yul\":14176:14312   */\n      pop\n        /* \"#utility.yul\":14123:14312   */\n      pop\n      pop\n      jump\t// out\n        /* \"#utility.yul\":14318:14504   */\n    tag_210:\n        /* \"#utility.yul\":14378:14498   */\n    tag_366:\n        /* \"#utility.yul\":14395:14398   */\n      dup2\n        /* \"#utility.yul\":14388:14393   */\n      dup2\n        /* \"#utility.yul\":14385:14399   */\n      lt\n        /* \"#utility.yul\":14378:14498   */\n      iszero\n      tag_368\n      jumpi\n        /* \"#utility.yul\":14449:14488   */\n      tag_369\n        /* \"#utility.yul\":14486:14487   */\n      0x00\n        /* \"#utility.yul\":14479:14484   */\n      dup3\n        /* \"#utility.yul\":14449:14488   */\n      tag_209\n      jump\t// in\n    tag_369:\n        /* \"#utility.yul\":14422:14423   */\n      0x01\n        /* \"#utility.yul\":14415:14420   */\n      dup2\n        /* \"#utility.yul\":14411:14424   */\n      add\n        /* \"#utility.yul\":14402:14424   */\n      swap1\n      pop\n        /* \"#utility.yul\":14378:14498   */\n      jump(tag_366)\n    tag_368:\n        /* \"#utility.yul\":14318:14504   */\n      pop\n      pop\n      jump\t// out\n        /* \"#utility.yul\":14510:15053   */\n    tag_211:\n        /* \"#utility.yul\":14611:14613   */\n      0x1f\n        /* \"#utility.yul\":14606:14609   */\n      dup3\n        /* \"#utility.yul\":14603:14614   */\n      gt\n        /* \"#utility.yul\":14600:15046   */\n      iszero\n      tag_371\n      jumpi\n        /* \"#utility.yul\":14645:14683   */\n      tag_372\n        /* \"#utility.yul\":14677:14682   */\n      dup2\n        /* \"#utility.yul\":14645:14683   */\n      tag_200\n      jump\t// in\n    tag_372:\n        /* \"#utility.yul\":14729:14758   */\n      tag_373\n        /* \"#utility.yul\":14747:14757   */\n      dup5\n        /* \"#utility.yul\":14729:14758   */\n      tag_201\n      jump\t// in\n    tag_373:\n        /* \"#utility.yul\":14719:14727   */\n      dup2\n        /* \"#utility.yul\":14715:14759   */\n      add\n        /* \"#utility.yul\":14912:14914   */\n      0x20\n        /* \"#utility.yul\":14900:14910   */\n      dup6\n        /* \"#utility.yul\":14897:14915   */\n      lt\n        /* \"#utility.yul\":14894:14943   */\n      iszero\n      tag_374\n      jumpi\n        /* \"#utility.yul\":14933:14941   */\n      dup2\n        /* \"#utility.yul\":14918:14941   */\n      swap1\n      pop\n        /* \"#utility.yul\":14894:14943   */\n    tag_374:\n        /* \"#utility.yul\":14956:15036   */\n      tag_375\n        /* \"#utility.yul\":15012:15034   */\n      tag_376\n        /* \"#utility.yul\":15030:15033   */\n      dup6\n        /* \"#utility.yul\":15012:15034   */\n      tag_201\n      jump\t// in\n    tag_376:\n        /* \"#utility.yul\":15002:15010   */\n      dup4\n        /* \"#utility.yul\":14998:15035   */\n      add\n        /* \"#utility.yul\":14985:14996   */\n      dup3\n        /* \"#utility.yul\":14956:15036   */\n      tag_210\n      jump\t// in\n    tag_375:\n        /* \"#utility.yul\":14615:15046   */\n      pop\n      pop\n        /* \"#utility.yul\":14600:15046   */\n    tag_371:\n        /* \"#utility.yul\":14510:15053   */\n      pop\n      pop\n      pop\n      jump\t// out\n        /* \"#utility.yul\":15059:15176   */\n    tag_212:\n        /* \"#utility.yul\":15113:15121   */\n      0x00\n        /* \"#utility.yul\":15163:15168   */\n      dup3\n        /* \"#utility.yul\":15157:15161   */\n      dup3\n        /* \"#utility.yul\":15153:15169   */\n      shr\n        /* \"#utility.yul\":15132:15169   */\n      swap1\n      pop\n        /* \"#utility.yul\":15059:15176   */\n      swap3\n      swap2\n      pop\n      pop\n      jump\t// out\n        /* \"#utility.yul\":15182:15351   */\n    tag_213:\n        /* \"#utility.yul\":15226:15232   */\n      0x00\n        /* \"#utility.yul\":15259:15310   */\n      tag_379\n        /* \"#utility.yul\":15307:15308   */\n      0x00\n        /* \"#utility.yul\":15303:15309   */\n      not\n        /* \"#utility.yul\":15295:15300   */\n      dup5\n        /* \"#utility.yul\":15292:15293   */\n      0x08\n        /* \"#utility.yul\":15288:15301   */\n      mul\n        /* \"#utility.yul\":15259:15310   */\n      tag_212\n      jump\t// in\n    tag_379:\n        /* \"#utility.yul\":15255:15311   */\n      not\n        /* \"#utility.yul\":15340:15344   */\n      dup1\n        /* \"#utility.yul\":15334:15338   */\n      dup4\n        /* \"#utility.yul\":15330:15345   */\n      and\n        /* \"#utility.yul\":15320:15345   */\n      swap2\n      pop\n        /* \"#utility.yul\":15233:15351   */\n      pop\n        /* \"#utility.yul\":15182:15351   */\n      swap3\n      swap2\n      pop\n      pop\n      jump\t// out\n        /* \"#utility.yul\":15356:15651   */\n    tag_214:\n        /* \"#utility.yul\":15432:15436   */\n      0x00\n        /* \"#utility.yul\":15578:15607   */\n      tag_381\n        /* \"#utility.yul\":15603:15606   */\n      dup4\n        /* \"#utility.yul\":15597:15601   */\n      dup4\n        /* \"#utility.yul\":15578:15607   */\n      tag_213\n      jump\t// in\n    tag_381:\n        /* \"#utility.yul\":15570:15607   */\n      swap2\n      pop\n        /* \"#utility.yul\":15640:15643   */\n      dup3\n        /* \"#utility.yul\":15637:15638   */\n      0x02\n        /* \"#utility.yul\":15633:15644   */\n      mul\n        /* \"#utility.yul\":15627:15631   */\n      dup3\n        /* \"#utility.yul\":15624:15645   */\n      or\n        /* \"#utility.yul\":15616:15645   */\n      swap1\n      pop\n        /* \"#utility.yul\":15356:15651   */\n      swap3\n      swap2\n      pop\n      pop\n      jump\t// out\n        /* \"#utility.yul\":15656:17107   */\n    tag_78:\n        /* \"#utility.yul\":15767:15770   */\n      dup2\n        /* \"#utility.yul\":15761:15765   */\n      dup2\n        /* \"#utility.yul\":15758:15771   */\n      sub\n        /* \"#utility.yul\":15755:15781   */\n      tag_383\n      jumpi\n        /* \"#utility.yul\":15774:15779   */\n      pop\n      pop\n      jump(tag_382)\n        /* \"#utility.yul\":15755:15781   */\n    tag_383:\n        /* \"#utility.yul\":15805:15839   */\n      tag_384\n        /* \"#utility.yul\":15835:15838   */\n      dup3\n        /* \"#utility.yul\":15805:15839   */\n      tag_199\n      jump\t// in\n    tag_384:\n        /* \"#utility.yul\":15904:15922   */\n      0xffffffffffffffff\n        /* \"#utility.yul\":15896:15902   */\n      dup2\n        /* \"#utility.yul\":15893:15923   */\n      gt\n        /* \"#utility.yul\":15890:15946   */\n      iszero\n      tag_385\n      jumpi\n        /* \"#utility.yul\":15926:15944   */\n      tag_386\n      tag_180\n      jump\t// in\n    tag_386:\n        /* \"#utility.yul\":15890:15946   */\n    tag_385:\n        /* \"#utility.yul\":15970:16008   */\n      tag_387\n        /* \"#utility.yul\":16002:16006   */\n      dup3\n        /* \"#utility.yul\":15996:16007   */\n      sload\n        /* \"#utility.yul\":15970:16008   */\n      tag_94\n      jump\t// in\n    tag_387:\n        /* \"#utility.yul\":16055:16122   */\n      tag_388\n        /* \"#utility.yul\":16115:16121   */\n      dup3\n        /* \"#utility.yul\":16107:16113   */\n      dup3\n        /* \"#utility.yul\":16101:16105   */\n      dup6\n        /* \"#utility.yul\":16055:16122   */\n      tag_211\n      jump\t// in\n    tag_388:\n        /* \"#utility.yul\":16149:16150   */\n      0x00\n        /* \"#utility.yul\":16178:16180   */\n      0x1f\n        /* \"#utility.yul\":16170:16176   */\n      dup4\n        /* \"#utility.yul\":16167:16181   */\n      gt\n        /* \"#utility.yul\":16195:16196   */\n      0x01\n        /* \"#utility.yul\":16190:16862   */\n      dup2\n      eq\n      tag_390\n      jumpi\n        /* \"#utility.yul\":16906:16907   */\n      0x00\n        /* \"#utility.yul\":16923:16929   */\n      dup5\n        /* \"#utility.yul\":16920:16997   */\n      iszero\n      tag_391\n      jumpi\n        /* \"#utility.yul\":16972:16981   */\n      dup3\n        /* \"#utility.yul\":16967:16970   */\n      dup8\n        /* \"#utility.yul\":16963:16982   */\n      add\n        /* \"#utility.yul\":16957:16983   */\n      sload\n        /* \"#utility.yul\":16948:16983   */\n      swap1\n      pop\n        /* \"#utility.yul\":16920:16997   */\n    tag_391:\n        /* \"#utility.yul\":17023:17090   */\n      tag_392\n        /* \"#utility.yul\":17083:17089   */\n      dup6\n        /* \"#utility.yul\":17076:17081   */\n      dup3\n        /* \"#utility.yul\":17023:17090   */\n      tag_214\n      jump\t// in\n    tag_392:\n        /* \"#utility.yul\":17017:17021   */\n      dup7\n        /* \"#utility.yul\":17010:17091   */\n      sstore\n        /* \"#utility.yul\":16879:17101   */\n      pop\n        /* \"#utility.yul\":16160:17101   */\n      jump(tag_389)\n        /* \"#utility.yul\":16190:16862   */\n    tag_390:\n        /* \"#utility.yul\":16242:16246   */\n      0x1f\n        /* \"#utility.yul\":16238:16247   */\n      not\n        /* \"#utility.yul\":16230:16236   */\n      dup5\n        /* \"#utility.yul\":16226:16248   */\n      and\n        /* \"#utility.yul\":16268:16304   */\n      tag_393\n        /* \"#utility.yul\":16300:16303   */\n      dup8\n        /* \"#utility.yul\":16268:16304   */\n      tag_200\n      jump\t// in\n    tag_393:\n        /* \"#utility.yul\":16261:16304   */\n      swap7\n      pop\n        /* \"#utility.yul\":16331:16368   */\n      tag_394\n        /* \"#utility.yul\":16363:16367   */\n      dup7\n        /* \"#utility.yul\":16331:16368   */\n      tag_200\n      jump\t// in\n    tag_394:\n        /* \"#utility.yul\":16390:16391   */\n      0x00\n        /* \"#utility.yul\":16404:16611   */\n    tag_395:\n        /* \"#utility.yul\":16418:16425   */\n      dup3\n        /* \"#utility.yul\":16415:16416   */\n      dup2\n        /* \"#utility.yul\":16412:16426   */\n      lt\n        /* \"#utility.yul\":16404:16611   */\n      iszero\n      tag_397\n      jumpi\n        /* \"#utility.yul\":16497:16506   */\n      dup5\n        /* \"#utility.yul\":16492:16495   */\n      dup10\n        /* \"#utility.yul\":16488:16507   */\n      add\n        /* \"#utility.yul\":16482:16508   */\n      sload\n        /* \"#utility.yul\":16474:16480   */\n      dup3\n        /* \"#utility.yul\":16467:16509   */\n      sstore\n        /* \"#utility.yul\":16548:16549   */\n      0x01\n        /* \"#utility.yul\":16540:16546   */\n      dup3\n        /* \"#utility.yul\":16536:16550   */\n      add\n        /* \"#utility.yul\":16526:16550   */\n      swap2\n      pop\n        /* \"#utility.yul\":16595:16596   */\n      0x01\n        /* \"#utility.yul\":16584:16593   */\n      dup6\n        /* \"#utility.yul\":16580:16597   */\n      add\n        /* \"#utility.yul\":16567:16597   */\n      swap5\n      pop\n        /* \"#utility.yul\":16441:16445   */\n      0x20\n        /* \"#utility.yul\":16438:16439   */\n      dup2\n        /* \"#utility.yul\":16434:16446   */\n      add\n        /* \"#utility.yul\":16429:16446   */\n      swap1\n      pop\n        /* \"#utility.yul\":16404:16611   */\n      jump(tag_395)\n    tag_397:\n        /* \"#utility.yul\":16639:16645   */\n      dup7\n        /* \"#utility.yul\":16630:16637   */\n      dup4\n        /* \"#utility.yul\":16627:16646   */\n      lt\n        /* \"#utility.yul\":16624:16803   */\n      iszero\n      tag_398\n      jumpi\n        /* \"#utility.yul\":16697:16706   */\n      dup5\n        /* \"#utility.yul\":16692:16695   */\n      dup10\n        /* \"#utility.yul\":16688:16707   */\n      add\n        /* \"#utility.yul\":16682:16708   */\n      sload\n        /* \"#utility.yul\":16740:16788   */\n      tag_399\n        /* \"#utility.yul\":16782:16786   */\n      0x1f\n        /* \"#utility.yul\":16774:16780   */\n      dup10\n        /* \"#utility.yul\":16770:16787   */\n      and\n        /* \"#utility.yul\":16759:16768   */\n      dup3\n        /* \"#utility.yul\":16740:16788   */\n      tag_213\n      jump\t// in\n    tag_399:\n        /* \"#utility.yul\":16732:16738   */\n      dup4\n        /* \"#utility.yul\":16725:16789   */\n      sstore\n        /* \"#utility.yul\":16647:16803   */\n      pop\n        /* \"#utility.yul\":16624:16803   */\n    tag_398:\n        /* \"#utility.yul\":16849:16850   */\n      0x01\n        /* \"#utility.yul\":16845:16846   */\n      0x02\n        /* \"#utility.yul\":16837:16843   */\n      dup9\n        /* \"#utility.yul\":16833:16847   */\n      mul\n        /* \"#utility.yul\":16829:16851   */\n      add\n        /* \"#utility.yul\":16823:16827   */\n      dup9\n        /* \"#utility.yul\":16816:16852   */\n      sstore\n        /* \"#utility.yul\":16197:16862   */\n      pop\n      pop\n      pop\n        /* \"#utility.yul\":16160:17101   */\n    tag_389:\n      pop\n        /* \"#utility.yul\":15745:17107   */\n      pop\n      pop\n      pop\n        /* \"#utility.yul\":15656:17107   */\n      pop\n      pop\n    tag_382:\n      jump\t// out\n        /* \"#utility.yul\":17113:17293   */\n    tag_81:\n        /* \"#utility.yul\":17161:17238   */\n      0x4e487b7100000000000000000000000000000000000000000000000000000000\n        /* \"#utility.yul\":17158:17159   */\n      0x00\n        /* \"#utility.yul\":17151:17239   */\n      mstore\n        /* \"#utility.yul\":17258:17262   */\n      0x31\n        /* \"#utility.yul\":17255:17256   */\n      0x04\n        /* \"#utility.yul\":17248:17263   */\n      mstore\n        /* \"#utility.yul\":17282:17286   */\n      0x24\n        /* \"#utility.yul\":17279:17280   */\n      0x00\n        /* \"#utility.yul\":17272:17287   */\n      revert\n        /* \"#utility.yul\":17299:18694   */\n    tag_106:\n        /* \"#utility.yul\":17416:17453   */\n      tag_402\n        /* \"#utility.yul\":17449:17452   */\n      dup3\n        /* \"#utility.yul\":17416:17453   */\n      tag_168\n      jump\t// in\n    tag_402:\n        /* \"#utility.yul\":17518:17536   */\n      0xffffffffffffffff\n        /* \"#utility.yul\":17510:17516   */\n      dup2\n        /* \"#utility.yul\":17507:17537   */\n      gt\n        /* \"#utility.yul\":17504:17560   */\n      iszero\n      tag_403\n      jumpi\n        /* \"#utility.yul\":17540:17558   */\n      tag_404\n      tag_180\n      jump\t// in\n    tag_404:\n        /* \"#utility.yul\":17504:17560   */\n    tag_403:\n        /* \"#utility.yul\":17584:17622   */\n      tag_405\n        /* \"#utility.yul\":17616:17620   */\n      dup3\n        /* \"#utility.yul\":17610:17621   */\n      sload\n        /* \"#utility.yul\":17584:17622   */\n      tag_94\n      jump\t// in\n    tag_405:\n        /* \"#utility.yul\":17669:17736   */\n      tag_406\n        /* \"#utility.yul\":17729:17735   */\n      dup3\n        /* \"#utility.yul\":17721:17727   */\n      dup3\n        /* \"#utility.yul\":17715:17719   */\n      dup6\n        /* \"#utility.yul\":17669:17736   */\n      tag_211\n      jump\t// in\n    tag_406:\n        /* \"#utility.yul\":17763:17764   */\n      0x00\n        /* \"#utility.yul\":17787:17791   */\n      0x20\n        /* \"#utility.yul\":17774:17791   */\n      swap1\n      pop\n        /* \"#utility.yul\":17819:17821   */\n      0x1f\n        /* \"#utility.yul\":17811:17817   */\n      dup4\n        /* \"#utility.yul\":17808:17822   */\n      gt\n        /* \"#utility.yul\":17836:17837   */\n      0x01\n        /* \"#utility.yul\":17831:18449   */\n      dup2\n      eq\n      tag_408\n      jumpi\n        /* \"#utility.yul\":18493:18494   */\n      0x00\n        /* \"#utility.yul\":18510:18516   */\n      dup5\n        /* \"#utility.yul\":18507:18584   */\n      iszero\n      tag_409\n      jumpi\n        /* \"#utility.yul\":18559:18568   */\n      dup3\n        /* \"#utility.yul\":18554:18557   */\n      dup8\n        /* \"#utility.yul\":18550:18569   */\n      add\n        /* \"#utility.yul\":18544:18570   */\n      mload\n        /* \"#utility.yul\":18535:18570   */\n      swap1\n      pop\n        /* \"#utility.yul\":18507:18584   */\n    tag_409:\n        /* \"#utility.yul\":18610:18677   */\n      tag_410\n        /* \"#utility.yul\":18670:18676   */\n      dup6\n        /* \"#utility.yul\":18663:18668   */\n      dup3\n        /* \"#utility.yul\":18610:18677   */\n      tag_214\n      jump\t// in\n    tag_410:\n        /* \"#utility.yul\":18604:18608   */\n      dup7\n        /* \"#utility.yul\":18597:18678   */\n      sstore\n        /* \"#utility.yul\":18466:18688   */\n      pop\n        /* \"#utility.yul\":17801:18688   */\n      jump(tag_407)\n        /* \"#utility.yul\":17831:18449   */\n    tag_408:\n        /* \"#utility.yul\":17883:17887   */\n      0x1f\n        /* \"#utility.yul\":17879:17888   */\n      not\n        /* \"#utility.yul\":17871:17877   */\n      dup5\n        /* \"#utility.yul\":17867:17889   */\n      and\n        /* \"#utility.yul\":17917:17954   */\n      tag_411\n        /* \"#utility.yul\":17949:17953   */\n      dup7\n        /* \"#utility.yul\":17917:17954   */\n      tag_200\n      jump\t// in\n    tag_411:\n        /* \"#utility.yul\":17976:17977   */\n      0x00\n        /* \"#utility.yul\":17990:18198   */\n    tag_412:\n        /* \"#utility.yul\":18004:18011   */\n      dup3\n        /* \"#utility.yul\":18001:18002   */\n      dup2\n        /* \"#utility.yul\":17998:18012   */\n      lt\n        /* \"#utility.yul\":17990:18198   */\n      iszero\n      tag_414\n      jumpi\n        /* \"#utility.yul\":18083:18092   */\n      dup5\n        /* \"#utility.yul\":18078:18081   */\n      dup10\n        /* \"#utility.yul\":18074:18093   */\n      add\n        /* \"#utility.yul\":18068:18094   */\n      mload\n        /* \"#utility.yul\":18060:18066   */\n      dup3\n        /* \"#utility.yul\":18053:18095   */\n      sstore\n        /* \"#utility.yul\":18134:18135   */\n      0x01\n        /* \"#utility.yul\":18126:18132   */\n      dup3\n        /* \"#utility.yul\":18122:18136   */\n      add\n        /* \"#utility.yul\":18112:18136   */\n      swap2\n      pop\n        /* \"#utility.yul\":18181:18183   */\n      0x20\n        /* \"#utility.yul\":18170:18179   */\n      dup6\n        /* \"#utility.yul\":18166:18184   */\n      add\n        /* \"#utility.yul\":18153:18184   */\n      swap5\n      pop\n        /* \"#utility.yul\":18027:18031   */\n      0x20\n        /* \"#utility.yul\":18024:18025   */\n      dup2\n        /* \"#utility.yul\":18020:18032   */\n      add\n        /* \"#utility.yul\":18015:18032   */\n      swap1\n      pop\n        /* \"#utility.yul\":17990:18198   */\n      jump(tag_412)\n    tag_414:\n        /* \"#utility.yul\":18226:18232   */\n      dup7\n        /* \"#utility.yul\":18217:18224   */\n      dup4\n        /* \"#utility.yul\":18214:18233   */\n      lt\n        /* \"#utility.yul\":18211:18390   */\n      iszero\n      tag_415\n      jumpi\n        /* \"#utility.yul\":18284:18293   */\n      dup5\n        /* \"#utility.yul\":18279:18282   */\n      dup10\n        /* \"#utility.yul\":18275:18294   */\n      add\n        /* \"#utility.yul\":18269:18295   */\n      mload\n        /* \"#utility.yul\":18327:18375   */\n      tag_416\n        /* \"#utility.yul\":18369:18373   */\n      0x1f\n        /* \"#utility.yul\":18361:18367   */\n      dup10\n        /* \"#utility.yul\":18357:18374   */\n      and\n        /* \"#utility.yul\":18346:18355   */\n      dup3\n        /* \"#utility.yul\":18327:18375   */\n      tag_213\n      jump\t// in\n    tag_416:\n        /* \"#utility.yul\":18319:18325   */\n      dup4\n        /* \"#utility.yul\":18312:18376   */\n      sstore\n        /* \"#utility.yul\":18234:18390   */\n      pop\n        /* \"#utility.yul\":18211:18390   */\n    tag_415:\n        /* \"#utility.yul\":18436:18437   */\n      0x01\n        /* \"#utility.yul\":18432:18433   */\n      0x02\n        /* \"#utility.yul\":18424:18430   */\n      dup9\n        /* \"#utility.yul\":18420:18434   */\n      mul\n        /* \"#utility.yul\":18416:18438   */\n      add\n        /* \"#utility.yul\":18410:18414   */\n      dup9\n        /* \"#utility.yul\":18403:18439   */\n      sstore\n        /* \"#utility.yul\":17838:18449   */\n      pop\n      pop\n      pop\n        /* \"#utility.yul\":17801:18688   */\n    tag_407:\n      pop\n        /* \"#utility.yul\":17391:18694   */\n      pop\n      pop\n      pop\n        /* \"#utility.yul\":17299:18694   */\n      pop\n      pop\n      jump\t// out\n        /* \"#utility.yul\":18700:18891   */\n    tag_127:\n        /* \"#utility.yul\":18740:18743   */\n      0x00\n        /* \"#utility.yul\":18759:18779   */\n      tag_418\n        /* \"#utility.yul\":18777:18778   */\n      dup3\n        /* \"#utility.yul\":18759:18779   */\n      tag_162\n      jump\t// in\n    tag_418:\n        /* \"#utility.yul\":18754:18779   */\n      swap2\n      pop\n        /* \"#utility.yul\":18793:18813   */\n      tag_419\n        /* \"#utility.yul\":18811:18812   */\n      dup4\n        /* \"#utility.yul\":18793:18813   */\n      tag_162\n      jump\t// in\n    tag_419:\n        /* \"#utility.yul\":18788:18813   */\n      swap3\n      pop\n        /* \"#utility.yul\":18836:18837   */\n      dup3\n        /* \"#utility.yul\":18833:18834   */\n      dup3\n        /* \"#utility.yul\":18829:18838   */\n      add\n        /* \"#utility.yul\":18822:18838   */\n      swap1\n      pop\n        /* \"#utility.yul\":18857:18860   */\n      dup1\n        /* \"#utility.yul\":18854:18855   */\n      dup3\n        /* \"#utility.yul\":18851:18861   */\n      gt\n        /* \"#utility.yul\":18848:18884   */\n      iszero\n      tag_420\n      jumpi\n        /* \"#utility.yul\":18864:18882   */\n      tag_421\n      tag_197\n      jump\t// in\n    tag_421:\n        /* \"#utility.yul\":18848:18884   */\n    tag_420:\n        /* \"#utility.yul\":18700:18891   */\n      swap3\n      swap2\n      pop\n      pop\n      jump\t// out\n        /* \"#utility.yul\":18897:19130   */\n    tag_143:\n        /* \"#utility.yul\":18936:18939   */\n      0x00\n        /* \"#utility.yul\":18959:18983   */\n      tag_423\n        /* \"#utility.yul\":18977:18982   */\n      dup3\n        /* \"#utility.yul\":18959:18983   */\n      tag_162\n      jump\t// in\n    tag_423:\n        /* \"#utility.yul\":18950:18983   */\n      swap2\n      pop\n        /* \"#utility.yul\":19005:19071   */\n      0xffffffffffffffffffffffffffffffffffffffffffffffffffffffffffffffff\n        /* \"#utility.yul\":18998:19003   */\n      dup3\n        /* \"#utility.yul\":18995:19072   */\n      sub\n        /* \"#utility.yul\":18992:19095   */\n      tag_424\n      jumpi\n        /* \"#utility.yul\":19075:19093   */\n      tag_425\n      tag_197\n      jump\t// in\n    tag_425:\n        /* \"#utility.yul\":18992:19095   */\n    tag_424:\n        /* \"#utility.yul\":19122:19123   */\n      0x01\n        /* \"#utility.yul\":19115:19120   */\n      dup3\n        /* \"#utility.yul\":19111:19124   */\n      add\n        /* \"#utility.yul\":19104:19124   */\n      swap1\n      pop\n        /* \"#utility.yul\":18897:19130   */\n      swap2\n      swap1\n      pop\n      jump\t// out\n        /* \"#utility.yul\":19160:19991   */\n    tag_215:\n        /* \"#utility.yul\":19245:19248   */\n      0x00\n        /* \"#utility.yul\":19282:19287   */\n      dup2\n        /* \"#utility.yul\":19276:19288   */\n      sload\n        /* \"#utility.yul\":19311:19347   */\n      tag_427\n        /* \"#utility.yul\":19337:19346   */\n      dup2\n        /* \"#utility.yul\":19311:19347   */\n      tag_94\n      jump\t// in\n    tag_427:\n        /* \"#utility.yul\":19363:19434   */\n      tag_428\n        /* \"#utility.yul\":19427:19433   */\n      dup2\n        /* \"#utility.yul\":19422:19425   */\n      dup7\n        /* \"#utility.yul\":19363:19434   */\n      tag_187\n      jump\t// in\n    tag_428:\n        /* \"#utility.yul\":19356:19434   */\n      swap5\n      pop\n        /* \"#utility.yul\":19465:19466   */\n      0x01\n        /* \"#utility.yul\":19454:19463   */\n      dup3\n        /* \"#utility.yul\":19450:19467   */\n      and\n        /* \"#utility.yul\":19481:19482   */\n      0x00\n        /* \"#utility.yul\":19476:19640   */\n      dup2\n      eq\n      tag_430\n      jumpi\n        /* \"#utility.yul\":19654:19655   */\n      0x01\n        /* \"#utility.yul\":19649:19985   */\n      dup2\n      eq\n      tag_431\n      jumpi\n        /* \"#utility.yul\":19443:19985   */\n      jump(tag_429)\n        /* \"#utility.yul\":19476:19640   */\n    tag_430:\n        /* \"#utility.yul\":19560:19564   */\n      0xff\n        /* \"#utility.yul\":19556:19565   */\n      not\n        /* \"#utility.yul\":19545:19554   */\n      dup4\n        /* \"#utility.yul\":19541:19566   */\n      and\n        /* \"#utility.yul\":19536:19539   */\n      dup7\n        /* \"#utility.yul\":19529:19567   */\n      mstore\n        /* \"#utility.yul\":19620:19626   */\n      dup2\n        /* \"#utility.yul\":19613:19627   */\n      iszero\n        /* \"#utility.yul\":19606:19628   */\n      iszero\n        /* \"#utility.yul\":19600:19604   */\n      0x20\n        /* \"#utility.yul\":19596:19629   */\n      mul\n        /* \"#utility.yul\":19591:19594   */\n      dup7\n        /* \"#utility.yul\":19587:19630   */\n      add\n        /* \"#utility.yul\":19580:19630   */\n      swap4\n      pop\n        /* \"#utility.yul\":19476:19640   */\n      jump(tag_429)\n        /* \"#utility.yul\":19649:19985   */\n    tag_431:\n        /* \"#utility.yul\":19716:19754   */\n      tag_432\n        /* \"#utility.yul\":19748:19753   */\n      dup6\n        /* \"#utility.yul\":19716:19754   */\n      tag_200\n      jump\t// in\n    tag_432:\n        /* \"#utility.yul\":19776:19777   */\n      0x00\n        /* \"#utility.yul\":19790:19944   */\n    tag_433:\n        /* \"#utility.yul\":19804:19810   */\n      dup4\n        /* \"#utility.yul\":19801:19802   */\n      dup2\n        /* \"#utility.yul\":19798:19811   */\n      lt\n        /* \"#utility.yul\":19790:19944   */\n      iszero\n      tag_435\n      jumpi\n        /* \"#utility.yul\":19878:19885   */\n      dup2\n        /* \"#utility.yul\":19872:19886   */\n      sload\n        /* \"#utility.yul\":19868:19869   */\n      dup2\n        /* \"#utility.yul\":19863:19866   */\n      dup10\n        /* \"#utility.yul\":19859:19870   */\n      add\n        /* \"#utility.yul\":19852:19887   */\n      mstore\n        /* \"#utility.yul\":19928:19929   */\n      0x01\n        /* \"#utility.yul\":19919:19926   */\n      dup3\n        /* \"#utility.yul\":19915:19930   */\n      add\n        /* \"#utility.yul\":19904:19930   */\n      swap2\n      pop\n        /* \"#utility.yul\":19826:19830   */\n      0x20\n        /* \"#utility.yul\":19823:19824   */\n      dup2\n        /* \"#utility.yul\":19819:19831   */\n      add\n        /* \"#utility.yul\":19814:19831   */\n      swap1\n      pop\n        /* \"#utility.yul\":19790:19944   */\n      jump(tag_433)\n    tag_435:\n        /* \"#utility.yul\":19973:19974   */\n      dup1\n        /* \"#utility.yul\":19968:19971   */\n      dup9\n        /* \"#utility.yul\":19964:19975   */\n      add\n        /* \"#utility.yul\":19957:19975   */\n      swap6\n      pop\n        /* \"#utility.yul\":19656:19985   */\n      pop\n      pop\n        /* \"#utility.yul\":19443:19985   */\n    tag_429:\n      pop\n        /* \"#utility.yul\":19249:19991   */\n      pop\n      pop\n        /* \"#utility.yul\":19160:19991   */\n      swap3\n      swap2\n      pop\n      pop\n      jump\t// out\n        /* \"#utility.yul\":19997:20414   */\n    tag_151:\n        /* \"#utility.yul\":20135:20139   */\n      0x00\n        /* \"#utility.yul\":20173:20175   */\n      0x40\n        /* \"#utility.yul\":20162:20171   */\n      dup3\n        /* \"#utility.yul\":20158:20176   */\n      add\n        /* \"#utility.yul\":20150:20176   */\n      swap1\n      pop\n        /* \"#utility.yul\":20222:20231   */\n      dup2\n        /* \"#utility.yul\":20216:20220   */\n      dup2\n        /* \"#utility.yul\":20212:20232   */\n      sub\n        /* \"#utility.yul\":20208:20209   */\n      0x00\n        /* \"#utility.yul\":20197:20206   */\n      dup4\n        /* \"#utility.yul\":20193:20210   */\n      add\n        /* \"#utility.yul\":20186:20233   */\n      mstore\n        /* \"#utility.yul\":20250:20325   */\n      tag_437\n        /* \"#utility.yul\":20320:20324   */\n      dup2\n        /* \"#utility.yul\":20311:20317   */\n      dup6\n        /* \"#utility.yul\":20250:20325   */\n      tag_215\n      jump\t// in\n    tag_437:\n        /* \"#utility.yul\":20242:20325   */\n      swap1\n      pop\n        /* \"#utility.yul\":20335:20407   */\n      tag_438\n        /* \"#utility.yul\":20403:20405   */\n      0x20\n        /* \"#utility.yul\":20392:20401   */\n      dup4\n        /* \"#utility.yul\":20388:20406   */\n      add\n        /* \"#utility.yul\":20379:20385   */\n      dup5\n        /* \"#utility.yul\":20335:20407   */\n      tag_194\n      jump\t// in\n    tag_438:\n        /* \"#utility.yul\":19997:20414   */\n      swap4\n      swap3\n      pop\n      pop\n      pop\n      jump\t// out\n\n    auxdata: 0xa2646970667358221220c7f51b090c54b6b2ad819d4ae6093602eccf65a8790f9881aee173b767a9d52264736f6c634300081a0033\n}\n",
				"bytecode": {
					"linkReferences": {},
					"object": "608060405234801561000f575f80fd5b50335f60016101000a81548173ffffffffffffffffffffffffffffffffffffffff021916908373ffffffffffffffffffffffffffffffffffffffff16021790555060015f806101000a81548160ff0219169083151502179055507f6d41258e44d7ee79f697248fbce67e06508f6c2a56396009d98f28c105d43e955f60019054906101000a900473ffffffffffffffffffffffffffffffffffffffff166040516100b99190610105565b60405180910390a161011e565b5f73ffffffffffffffffffffffffffffffffffffffff82169050919050565b5f6100ef826100c6565b9050919050565b6100ff816100e5565b82525050565b5f6020820190506101185f8301846100f6565b92915050565b6116718061012b5f395ff3fe608060405234801561000f575f80fd5b50600436106100b2575f3560e01c80638f32d59b1161006f5780638f32d59b14610152578063957aa58c146101705780639a0e7d661461018e578063a3ec138d146101ac578063b13c744b146101dd578063ec859db51461020e576100b2565b80631e620cd4146100b65780632aebcbb6146100d25780632e6997fe146100dc578063462e91ec146100fa5780634f301d47146101165780638da5cb5b14610134575b5f80fd5b6100d060048036038101906100cb9190610b9e565b61022a565b005b6100da610395565b005b6100e461040e565b6040516100f19190610d3d565b60405180910390f35b610114600480360381019061010f9190610e89565b610503565b005b61011e61061f565b60405161012b9190610f18565b60405180910390f35b61013c610768565b6040516101499190610f77565b60405180910390f35b61015a61078d565b6040516101679190610faa565b60405180910390f35b6101786107e3565b6040516101859190610faa565b60405180910390f35b6101966107f3565b6040516101a39190610fd2565b60405180910390f35b6101c660048036038101906101c19190611015565b61084d565b6040516101d4929190611040565b60405180910390f35b6101f760048036038101906101f29190610b9e565b610879565b604051610205929190611067565b60405180910390f35b61022860048036038101906102239190610b9e565b61092e565b005b5f60019054906101000a900473ffffffffffffffffffffffffffffffffffffffff1673ffffffffffffffffffffffffffffffffffffffff163373ffffffffffffffffffffffffffffffffffffffff1614610282575f80fd5b600115155f8054906101000a900460ff1615151461029e575f80fd5b60018054905081106102ae575f80fd5b60018080805490506102c091906110c2565b815481106102d1576102d06110f5565b5b905f5260205f209060020201600182815481106102f1576102f06110f5565b5b905f5260205f2090600202015f8201815f01908161030f9190611331565b5060018201548160010155905050600180548061032f5761032e611416565b5b600190038181905f5260205f2090600202015f8082015f6103509190610b02565b600182015f9055505090557f29ab6fac06eb32ebcc3a011f02383a9d57c946d0676bf8ccaed3f20e88410d458160405161038a9190610fd2565b60405180910390a150565b600115155f8054906101000a900460ff161515146103b1575f80fd5b5f805f6101000a81548160ff0219169083151502179055507f52a1f86df561bcdc915e07aafb957e1253d4464fc7fae3d6700815e71f063ffc5f8054906101000a900460ff166040516104049190610faa565b60405180910390a1565b60606001805480602002602001604051908101604052809291908181526020015f905b828210156104fa578382905f5260205f2090600202016040518060400160405290815f820180546104619061114f565b80601f016020809104026020016040519081016040528092919081815260200182805461048d9061114f565b80156104d85780601f106104af576101008083540402835291602001916104d8565b820191905f5260205f20905b8154815290600101906020018083116104bb57829003601f168201915b5050505050815260200160018201548152505081526020019060010190610431565b50505050905090565b5f60019054906101000a900473ffffffffffffffffffffffffffffffffffffffff1673ffffffffffffffffffffffffffffffffffffffff163373ffffffffffffffffffffffffffffffffffffffff161461055b575f80fd5b600115155f8054906101000a900460ff16151514610577575f80fd5b600560018054905010610588575f80fd5b600160405180604001604052808381526020015f815250908060018154018082558091505060019003905f5260205f2090600202015f909190919091505f820151815f0190816105d89190611443565b506020820151816001015550507f7e54b8e26d30b775858f75176d98873186bb2078a39aec1f769f4de0aeb43b1a816040516106149190610f18565b60405180910390a150565b606060035f3373ffffffffffffffffffffffffffffffffffffffff1673ffffffffffffffffffffffffffffffffffffffff1681526020019081526020015f205f015f9054906101000a900460ff16610675575f80fd5b5f60035f3373ffffffffffffffffffffffffffffffffffffffff1673ffffffffffffffffffffffffffffffffffffffff1681526020019081526020015f20600101549050600181815481106106cd576106cc6110f5565b5b905f5260205f2090600202015f0180546106e69061114f565b80601f01602080910402602001604051908101604052809291908181526020018280546107129061114f565b801561075d5780601f106107345761010080835404028352916020019161075d565b820191905f5260205f20905b81548152906001019060200180831161074057829003601f168201915b505050505091505090565b5f60019054906101000a900473ffffffffffffffffffffffffffffffffffffffff1681565b5f8060019054906101000a900473ffffffffffffffffffffffffffffffffffffffff1673ffffffffffffffffffffffffffffffffffffffff163373ffffffffffffffffffffffffffffffffffffffff1614905090565b5f8054906101000a900460ff1681565b5f805f90505f5b600180549050811015610845576001818154811061081b5761081a6110f5565b5b905f5260205f20906002020160010154826108369190611512565b915080806001019150506107fa565b508091505090565b6003602052805f5260405f205f91509050805f015f9054906101000a900460ff16908060010154905082565b60018181548110610888575f80fd5b905f5260205f2090600202015f91509050805f0180546108a79061114f565b80601f01602080910402602001604051908101604052809291908181526020018280546108d39061114f565b801561091e5780601f106108f55761010080835404028352916020019161091e565b820191905f5260205f20905b81548152906001019060200180831161090157829003601f168201915b5050505050908060010154905082565b600115155f8054906101000a900460ff1615151461094a575f80fd5b600180549050811061095a575f80fd5b60035f3373ffffffffffffffffffffffffffffffffffffffff1673ffffffffffffffffffffffffffffffffffffffff1681526020019081526020015f205f015f9054906101000a900460ff16156109af575f80fd5b600160035f3373ffffffffffffffffffffffffffffffffffffffff1673ffffffffffffffffffffffffffffffffffffffff1681526020019081526020015f205f015f6101000a81548160ff0219169083151502179055508060035f3373ffffffffffffffffffffffffffffffffffffffff1673ffffffffffffffffffffffffffffffffffffffff1681526020019081526020015f206001018190555060018181548110610a5f57610a5e6110f5565b5b905f5260205f2090600202016001015f815480929190610a7e90611545565b91905055507e8e3b27e09daa83ef4d239b211c458358c74c8ab4a844aa4ce24f2a4e211eeb60018281548110610ab757610ab66110f5565b5b905f5260205f2090600202015f0160018381548110610ad957610ad86110f5565b5b905f5260205f20906002020160010154604051610af792919061160d565b60405180910390a150565b508054610b0e9061114f565b5f825580601f10610b1f5750610b3c565b601f0160209004905f5260205f2090810190610b3b9190610b3f565b5b50565b5b80821115610b56575f815f905550600101610b40565b5090565b5f604051905090565b5f80fd5b5f80fd5b5f819050919050565b610b7d81610b6b565b8114610b87575f80fd5b50565b5f81359050610b9881610b74565b92915050565b5f60208284031215610bb357610bb2610b63565b5b5f610bc084828501610b8a565b91505092915050565b5f81519050919050565b5f82825260208201905092915050565b5f819050602082019050919050565b5f81519050919050565b5f82825260208201905092915050565b8281835e5f83830152505050565b5f601f19601f8301169050919050565b5f610c3482610bf2565b610c3e8185610bfc565b9350610c4e818560208601610c0c565b610c5781610c1a565b840191505092915050565b610c6b81610b6b565b82525050565b5f604083015f8301518482035f860152610c8b8282610c2a565b9150506020830151610ca06020860182610c62565b508091505092915050565b5f610cb68383610c71565b905092915050565b5f602082019050919050565b5f610cd482610bc9565b610cde8185610bd3565b935083602082028501610cf085610be3565b805f5b85811015610d2b5784840389528151610d0c8582610cab565b9450610d1783610cbe565b925060208a01995050600181019050610cf3565b50829750879550505050505092915050565b5f6020820190508181035f830152610d558184610cca565b905092915050565b5f80fd5b5f80fd5b7f4e487b71000000000000000000000000000000000000000000000000000000005f52604160045260245ffd5b610d9b82610c1a565b810181811067ffffffffffffffff82111715610dba57610db9610d65565b5b80604052505050565b5f610dcc610b5a565b9050610dd88282610d92565b919050565b5f67ffffffffffffffff821115610df757610df6610d65565b5b610e0082610c1a565b9050602081019050919050565b828183375f83830152505050565b5f610e2d610e2884610ddd565b610dc3565b905082815260208101848484011115610e4957610e48610d61565b5b610e54848285610e0d565b509392505050565b5f82601f830112610e7057610e6f610d5d565b5b8135610e80848260208601610e1b565b91505092915050565b5f60208284031215610e9e57610e9d610b63565b5b5f82013567ffffffffffffffff811115610ebb57610eba610b67565b5b610ec784828501610e5c565b91505092915050565b5f82825260208201905092915050565b5f610eea82610bf2565b610ef48185610ed0565b9350610f04818560208601610c0c565b610f0d81610c1a565b840191505092915050565b5f6020820190508181035f830152610f308184610ee0565b905092915050565b5f73ffffffffffffffffffffffffffffffffffffffff82169050919050565b5f610f6182610f38565b9050919050565b610f7181610f57565b82525050565b5f602082019050610f8a5f830184610f68565b92915050565b5f8115159050919050565b610fa481610f90565b82525050565b5f602082019050610fbd5f830184610f9b565b92915050565b610fcc81610b6b565b82525050565b5f602082019050610fe55f830184610fc3565b92915050565b610ff481610f57565b8114610ffe575f80fd5b50565b5f8135905061100f81610feb565b92915050565b5f6020828403121561102a57611029610b63565b5b5f61103784828501611001565b91505092915050565b5f6040820190506110535f830185610f9b565b6110606020830184610fc3565b9392505050565b5f6040820190508181035f83015261107f8185610ee0565b905061108e6020830184610fc3565b9392505050565b7f4e487b71000000000000000000000000000000000000000000000000000000005f52601160045260245ffd5b5f6110cc82610b6b565b91506110d783610b6b565b92508282039050818111156110ef576110ee611095565b5b92915050565b7f4e487b71000000000000000000000000000000000000000000000000000000005f52603260045260245ffd5b7f4e487b71000000000000000000000000000000000000000000000000000000005f52602260045260245ffd5b5f600282049050600182168061116657607f821691505b60208210810361117957611178611122565b5b50919050565b5f8154905061118d8161114f565b9050919050565b5f819050815f5260205f209050919050565b5f6020601f8301049050919050565b5f82821b905092915050565b5f600883026111f07fffffffffffffffffffffffffffffffffffffffffffffffffffffffffffffffff826111b5565b6111fa86836111b5565b95508019841693508086168417925050509392505050565b5f819050919050565b5f61123561123061122b84610b6b565b611212565b610b6b565b9050919050565b5f819050919050565b61124e8361121b565b61126261125a8261123c565b8484546111c1565b825550505050565b5f90565b61127661126a565b611281818484611245565b505050565b5b818110156112a4576112995f8261126e565b600181019050611287565b5050565b601f8211156112e9576112ba81611194565b6112c3846111a6565b810160208510156112d2578190505b6112e66112de856111a6565b830182611286565b50505b505050565b5f82821c905092915050565b5f6113095f19846008026112ee565b1980831691505092915050565b5f61132183836112fa565b9150826002028217905092915050565b81810361133f575050611414565b6113488261117f565b67ffffffffffffffff81111561136157611360610d65565b5b61136b825461114f565b6113768282856112a8565b5f601f8311600181146113a3575f8415611391578287015490505b61139b8582611316565b86555061140d565b601f1984166113b187611194565b96506113bc86611194565b5f5b828110156113e3578489015482556001820191506001850194506020810190506113be565b8683101561140057848901546113fc601f8916826112fa565b8355505b6001600288020188555050505b5050505050505b565b7f4e487b71000000000000000000000000000000000000000000000000000000005f52603160045260245ffd5b61144c82610bf2565b67ffffffffffffffff81111561146557611464610d65565b5b61146f825461114f565b61147a8282856112a8565b5f60209050601f8311600181146114ab575f8415611499578287015190505b6114a38582611316565b86555061150a565b601f1984166114b986611194565b5f5b828110156114e0578489015182556001820191506020850194506020810190506114bb565b868310156114fd57848901516114f9601f8916826112fa565b8355505b6001600288020188555050505b505050505050565b5f61151c82610b6b565b915061152783610b6b565b925082820190508082111561153f5761153e611095565b5b92915050565b5f61154f82610b6b565b91507fffffffffffffffffffffffffffffffffffffffffffffffffffffffffffffffff820361158157611580611095565b5b600182019050919050565b5f81546115988161114f565b6115a28186610ed0565b9450600182165f81146115bc57600181146115d257611604565b60ff198316865281151560200286019350611604565b6115db85611194565b5f5b838110156115fc578154818901526001820191506020810190506115dd565b808801955050505b50505092915050565b5f6040820190508181035f830152611625818561158c565b90506116346020830184610fc3565b939250505056fea2646970667358221220c7f51b090c54b6b2ad819d4ae6093602eccf65a8790f9881aee173b767a9d52264736f6c634300081a0033",
					"opcodes": "PUSH1 0x80 PUSH1 0x40 MSTORE CALLVALUE DUP1 ISZERO PUSH2 0xF JUMPI PUSH0 DUP1 REVERT JUMPDEST POP CALLER PUSH0 PUSH1 0x1 PUSH2 0x100 EXP DUP2 SLOAD DUP2 PUSH20 0xFFFFFFFFFFFFFFFFFFFFFFFFFFFFFFFFFFFFFFFF MUL NOT AND SWAP1 DUP4 PUSH20 0xFFFFFFFFFFFFFFFFFFFFFFFFFFFFFFFFFFFFFFFF AND MUL OR SWAP1 SSTORE POP PUSH1 0x1 PUSH0 DUP1 PUSH2 0x100 EXP DUP2 SLOAD DUP2 PUSH1 0xFF MUL NOT AND SWAP1 DUP4 ISZERO ISZERO MUL OR SWAP1 SSTORE POP PUSH32 0x6D41258E44D7EE79F697248FBCE67E06508F6C2A56396009D98F28C105D43E95 PUSH0 PUSH1 0x1 SWAP1 SLOAD SWAP1 PUSH2 0x100 EXP SWAP1 DIV PUSH20 0xFFFFFFFFFFFFFFFFFFFFFFFFFFFFFFFFFFFFFFFF AND PUSH1 0x40 MLOAD PUSH2 0xB9 SWAP2 SWAP1 PUSH2 0x105 JUMP JUMPDEST PUSH1 0x40 MLOAD DUP1 SWAP2 SUB SWAP1 LOG1 PUSH2 0x11E JUMP JUMPDEST PUSH0 PUSH20 0xFFFFFFFFFFFFFFFFFFFFFFFFFFFFFFFFFFFFFFFF DUP3 AND SWAP1 POP SWAP2 SWAP1 POP JUMP JUMPDEST PUSH0 PUSH2 0xEF DUP3 PUSH2 0xC6 JUMP JUMPDEST SWAP1 POP SWAP2 SWAP1 POP JUMP JUMPDEST PUSH2 0xFF DUP2 PUSH2 0xE5 JUMP JUMPDEST DUP3 MSTORE POP POP JUMP JUMPDEST PUSH0 PUSH1 0x20 DUP3 ADD SWAP1 POP PUSH2 0x118 PUSH0 DUP4 ADD DUP5 PUSH2 0xF6 JUMP JUMPDEST SWAP3 SWAP2 POP POP JUMP JUMPDEST PUSH2 0x1671 DUP1 PUSH2 0x12B PUSH0 CODECOPY PUSH0 RETURN INVALID PUSH1 0x80 PUSH1 0x40 MSTORE CALLVALUE DUP1 ISZERO PUSH2 0xF JUMPI PUSH0 DUP1 REVERT JUMPDEST POP PUSH1 0x4 CALLDATASIZE LT PUSH2 0xB2 JUMPI PUSH0 CALLDATALOAD PUSH1 0xE0 SHR DUP1 PUSH4 0x8F32D59B GT PUSH2 0x6F JUMPI DUP1 PUSH4 0x8F32D59B EQ PUSH2 0x152 JUMPI DUP1 PUSH4 0x957AA58C EQ PUSH2 0x170 JUMPI DUP1 PUSH4 0x9A0E7D66 EQ PUSH2 0x18E JUMPI DUP1 PUSH4 0xA3EC138D EQ PUSH2 0x1AC JUMPI DUP1 PUSH4 0xB13C744B EQ PUSH2 0x1DD JUMPI DUP1 PUSH4 0xEC859DB5 EQ PUSH2 0x20E JUMPI PUSH2 0xB2 JUMP JUMPDEST DUP1 PUSH4 0x1E620CD4 EQ PUSH2 0xB6 JUMPI DUP1 PUSH4 0x2AEBCBB6 EQ PUSH2 0xD2 JUMPI DUP1 PUSH4 0x2E6997FE EQ PUSH2 0xDC JUMPI DUP1 PUSH4 0x462E91EC EQ PUSH2 0xFA JUMPI DUP1 PUSH4 0x4F301D47 EQ PUSH2 0x116 JUMPI DUP1 PUSH4 0x8DA5CB5B EQ PUSH2 0x134 JUMPI JUMPDEST PUSH0 DUP1 REVERT JUMPDEST PUSH2 0xD0 PUSH1 0x4 DUP1 CALLDATASIZE SUB DUP2 ADD SWAP1 PUSH2 0xCB SWAP2 SWAP1 PUSH2 0xB9E JUMP JUMPDEST PUSH2 0x22A JUMP JUMPDEST STOP JUMPDEST PUSH2 0xDA PUSH2 0x395 JUMP JUMPDEST STOP JUMPDEST PUSH2 0xE4 PUSH2 0x40E JUMP JUMPDEST PUSH1 0x40 MLOAD PUSH2 0xF1 SWAP2 SWAP1 PUSH2 0xD3D JUMP JUMPDEST PUSH1 0x40 MLOAD DUP1 SWAP2 SUB SWAP1 RETURN JUMPDEST PUSH2 0x114 PUSH1 0x4 DUP1 CALLDATASIZE SUB DUP2 ADD SWAP1 PUSH2 0x10F SWAP2 SWAP1 PUSH2 0xE89 JUMP JUMPDEST PUSH2 0x503 JUMP JUMPDEST STOP JUMPDEST PUSH2 0x11E PUSH2 0x61F JUMP JUMPDEST PUSH1 0x40 MLOAD PUSH2 0x12B SWAP2 SWAP1 PUSH2 0xF18 JUMP JUMPDEST PUSH1 0x40 MLOAD DUP1 SWAP2 SUB SWAP1 RETURN JUMPDEST PUSH2 0x13C PUSH2 0x768 JUMP JUMPDEST PUSH1 0x40 MLOAD PUSH2 0x149 SWAP2 SWAP1 PUSH2 0xF77 JUMP JUMPDEST PUSH1 0x40 MLOAD DUP1 SWAP2 SUB SWAP1 RETURN JUMPDEST PUSH2 0x15A PUSH2 0x78D JUMP JUMPDEST PUSH1 0x40 MLOAD PUSH2 0x167 SWAP2 SWAP1 PUSH2 0xFAA JUMP JUMPDEST PUSH1 0x40 MLOAD DUP1 SWAP2 SUB SWAP1 RETURN JUMPDEST PUSH2 0x178 PUSH2 0x7E3 JUMP JUMPDEST PUSH1 0x40 MLOAD PUSH2 0x185 SWAP2 SWAP1 PUSH2 0xFAA JUMP JUMPDEST PUSH1 0x40 MLOAD DUP1 SWAP2 SUB SWAP1 RETURN JUMPDEST PUSH2 0x196 PUSH2 0x7F3 JUMP JUMPDEST PUSH1 0x40 MLOAD PUSH2 0x1A3 SWAP2 SWAP1 PUSH2 0xFD2 JUMP JUMPDEST PUSH1 0x40 MLOAD DUP1 SWAP2 SUB SWAP1 RETURN JUMPDEST PUSH2 0x1C6 PUSH1 0x4 DUP1 CALLDATASIZE SUB DUP2 ADD SWAP1 PUSH2 0x1C1 SWAP2 SWAP1 PUSH2 0x1015 JUMP JUMPDEST PUSH2 0x84D JUMP JUMPDEST PUSH1 0x40 MLOAD PUSH2 0x1D4 SWAP3 SWAP2 SWAP1 PUSH2 0x1040 JUMP JUMPDEST PUSH1 0x40 MLOAD DUP1 SWAP2 SUB SWAP1 RETURN JUMPDEST PUSH2 0x1F7 PUSH1 0x4 DUP1 CALLDATASIZE SUB DUP2 ADD SWAP1 PUSH2 0x1F2 SWAP2 SWAP1 PUSH2 0xB9E JUMP JUMPDEST PUSH2 0x879 JUMP JUMPDEST PUSH1 0x40 MLOAD PUSH2 0x205 SWAP3 SWAP2 SWAP1 PUSH2 0x1067 JUMP JUMPDEST PUSH1 0x40 MLOAD DUP1 SWAP2 SUB SWAP1 RETURN JUMPDEST PUSH2 0x228 PUSH1 0x4 DUP1 CALLDATASIZE SUB DUP2 ADD SWAP1 PUSH2 0x223 SWAP2 SWAP1 PUSH2 0xB9E JUMP JUMPDEST PUSH2 0x92E JUMP JUMPDEST STOP JUMPDEST PUSH0 PUSH1 0x1 SWAP1 SLOAD SWAP1 PUSH2 0x100 EXP SWAP1 DIV PUSH20 0xFFFFFFFFFFFFFFFFFFFFFFFFFFFFFFFFFFFFFFFF AND PUSH20 0xFFFFFFFFFFFFFFFFFFFFFFFFFFFFFFFFFFFFFFFF AND CALLER PUSH20 0xFFFFFFFFFFFFFFFFFFFFFFFFFFFFFFFFFFFFFFFF AND EQ PUSH2 0x282 JUMPI PUSH0 DUP1 REVERT JUMPDEST PUSH1 0x1 ISZERO ISZERO PUSH0 DUP1 SLOAD SWAP1 PUSH2 0x100 EXP SWAP1 DIV PUSH1 0xFF AND ISZERO ISZERO EQ PUSH2 0x29E JUMPI PUSH0 DUP1 REVERT JUMPDEST PUSH1 0x1 DUP1 SLOAD SWAP1 POP DUP2 LT PUSH2 0x2AE JUMPI PUSH0 DUP1 REVERT JUMPDEST PUSH1 0x1 DUP1 DUP1 DUP1 SLOAD SWAP1 POP PUSH2 0x2C0 SWAP2 SWAP1 PUSH2 0x10C2 JUMP JUMPDEST DUP2 SLOAD DUP2 LT PUSH2 0x2D1 JUMPI PUSH2 0x2D0 PUSH2 0x10F5 JUMP JUMPDEST JUMPDEST SWAP1 PUSH0 MSTORE PUSH1 0x20 PUSH0 KECCAK256 SWAP1 PUSH1 0x2 MUL ADD PUSH1 0x1 DUP3 DUP2 SLOAD DUP2 LT PUSH2 0x2F1 JUMPI PUSH2 0x2F0 PUSH2 0x10F5 JUMP JUMPDEST JUMPDEST SWAP1 PUSH0 MSTORE PUSH1 0x20 PUSH0 KECCAK256 SWAP1 PUSH1 0x2 MUL ADD PUSH0 DUP3 ADD DUP2 PUSH0 ADD SWAP1 DUP2 PUSH2 0x30F SWAP2 SWAP1 PUSH2 0x1331 JUMP JUMPDEST POP PUSH1 0x1 DUP3 ADD SLOAD DUP2 PUSH1 0x1 ADD SSTORE SWAP1 POP POP PUSH1 0x1 DUP1 SLOAD DUP1 PUSH2 0x32F JUMPI PUSH2 0x32E PUSH2 0x1416 JUMP JUMPDEST JUMPDEST PUSH1 0x1 SWAP1 SUB DUP2 DUP2 SWAP1 PUSH0 MSTORE PUSH1 0x20 PUSH0 KECCAK256 SWAP1 PUSH1 0x2 MUL ADD PUSH0 DUP1 DUP3 ADD PUSH0 PUSH2 0x350 SWAP2 SWAP1 PUSH2 0xB02 JUMP JUMPDEST PUSH1 0x1 DUP3 ADD PUSH0 SWAP1 SSTORE POP POP SWAP1 SSTORE PUSH32 0x29AB6FAC06EB32EBCC3A011F02383A9D57C946D0676BF8CCAED3F20E88410D45 DUP2 PUSH1 0x40 MLOAD PUSH2 0x38A SWAP2 SWAP1 PUSH2 0xFD2 JUMP JUMPDEST PUSH1 0x40 MLOAD DUP1 SWAP2 SUB SWAP1 LOG1 POP JUMP JUMPDEST PUSH1 0x1 ISZERO ISZERO PUSH0 DUP1 SLOAD SWAP1 PUSH2 0x100 EXP SWAP1 DIV PUSH1 0xFF AND ISZERO ISZERO EQ PUSH2 0x3B1 JUMPI PUSH0 DUP1 REVERT JUMPDEST PUSH0 DUP1 PUSH0 PUSH2 0x100 EXP DUP2 SLOAD DUP2 PUSH1 0xFF MUL NOT AND SWAP1 DUP4 ISZERO ISZERO MUL OR SWAP1 SSTORE POP PUSH32 0x52A1F86DF561BCDC915E07AAFB957E1253D4464FC7FAE3D6700815E71F063FFC PUSH0 DUP1 SLOAD SWAP1 PUSH2 0x100 EXP SWAP1 DIV PUSH1 0xFF AND PUSH1 0x40 MLOAD PUSH2 0x404 SWAP2 SWAP1 PUSH2 0xFAA JUMP JUMPDEST PUSH1 0x40 MLOAD DUP1 SWAP2 SUB SWAP1 LOG1 JUMP JUMPDEST PUSH1 0x60 PUSH1 0x1 DUP1 SLOAD DUP1 PUSH1 0x20 MUL PUSH1 0x20 ADD PUSH1 0x40 MLOAD SWAP1 DUP2 ADD PUSH1 0x40 MSTORE DUP1 SWAP3 SWAP2 SWAP1 DUP2 DUP2 MSTORE PUSH1 0x20 ADD PUSH0 SWAP1 JUMPDEST DUP3 DUP3 LT ISZERO PUSH2 0x4FA JUMPI DUP4 DUP3 SWAP1 PUSH0 MSTORE PUSH1 0x20 PUSH0 KECCAK256 SWAP1 PUSH1 0x2 MUL ADD PUSH1 0x40 MLOAD DUP1 PUSH1 0x40 ADD PUSH1 0x40 MSTORE SWAP1 DUP2 PUSH0 DUP3 ADD DUP1 SLOAD PUSH2 0x461 SWAP1 PUSH2 0x114F JUMP JUMPDEST DUP1 PUSH1 0x1F ADD PUSH1 0x20 DUP1 SWAP2 DIV MUL PUSH1 0x20 ADD PUSH1 0x40 MLOAD SWAP1 DUP2 ADD PUSH1 0x40 MSTORE DUP1 SWAP3 SWAP2 SWAP1 DUP2 DUP2 MSTORE PUSH1 0x20 ADD DUP3 DUP1 SLOAD PUSH2 0x48D SWAP1 PUSH2 0x114F JUMP JUMPDEST DUP1 ISZERO PUSH2 0x4D8 JUMPI DUP1 PUSH1 0x1F LT PUSH2 0x4AF JUMPI PUSH2 0x100 DUP1 DUP4 SLOAD DIV MUL DUP4 MSTORE SWAP2 PUSH1 0x20 ADD SWAP2 PUSH2 0x4D8 JUMP JUMPDEST DUP3 ADD SWAP2 SWAP1 PUSH0 MSTORE PUSH1 0x20 PUSH0 KECCAK256 SWAP1 JUMPDEST DUP2 SLOAD DUP2 MSTORE SWAP1 PUSH1 0x1 ADD SWAP1 PUSH1 0x20 ADD DUP1 DUP4 GT PUSH2 0x4BB JUMPI DUP3 SWAP1 SUB PUSH1 0x1F AND DUP3 ADD SWAP2 JUMPDEST POP POP POP POP POP DUP2 MSTORE PUSH1 0x20 ADD PUSH1 0x1 DUP3 ADD SLOAD DUP2 MSTORE POP POP DUP2 MSTORE PUSH1 0x20 ADD SWAP1 PUSH1 0x1 ADD SWAP1 PUSH2 0x431 JUMP JUMPDEST POP POP POP POP SWAP1 POP SWAP1 JUMP JUMPDEST PUSH0 PUSH1 0x1 SWAP1 SLOAD SWAP1 PUSH2 0x100 EXP SWAP1 DIV PUSH20 0xFFFFFFFFFFFFFFFFFFFFFFFFFFFFFFFFFFFFFFFF AND PUSH20 0xFFFFFFFFFFFFFFFFFFFFFFFFFFFFFFFFFFFFFFFF AND CALLER PUSH20 0xFFFFFFFFFFFFFFFFFFFFFFFFFFFFFFFFFFFFFFFF AND EQ PUSH2 0x55B JUMPI PUSH0 DUP1 REVERT JUMPDEST PUSH1 0x1 ISZERO ISZERO PUSH0 DUP1 SLOAD SWAP1 PUSH2 0x100 EXP SWAP1 DIV PUSH1 0xFF AND ISZERO ISZERO EQ PUSH2 0x577 JUMPI PUSH0 DUP1 REVERT JUMPDEST PUSH1 0x5 PUSH1 0x1 DUP1 SLOAD SWAP1 POP LT PUSH2 0x588 JUMPI PUSH0 DUP1 REVERT JUMPDEST PUSH1 0x1 PUSH1 0x40 MLOAD DUP1 PUSH1 0x40 ADD PUSH1 0x40 MSTORE DUP1 DUP4 DUP2 MSTORE PUSH1 0x20 ADD PUSH0 DUP2 MSTORE POP SWAP1 DUP1 PUSH1 0x1 DUP2 SLOAD ADD DUP1 DUP3 SSTORE DUP1 SWAP2 POP POP PUSH1 0x1 SWAP1 SUB SWAP1 PUSH0 MSTORE PUSH1 0x20 PUSH0 KECCAK256 SWAP1 PUSH1 0x2 MUL ADD PUSH0 SWAP1 SWAP2 SWAP1 SWAP2 SWAP1 SWAP2 POP PUSH0 DUP3 ADD MLOAD DUP2 PUSH0 ADD SWAP1 DUP2 PUSH2 0x5D8 SWAP2 SWAP1 PUSH2 0x1443 JUMP JUMPDEST POP PUSH1 0x20 DUP3 ADD MLOAD DUP2 PUSH1 0x1 ADD SSTORE POP POP PUSH32 0x7E54B8E26D30B775858F75176D98873186BB2078A39AEC1F769F4DE0AEB43B1A DUP2 PUSH1 0x40 MLOAD PUSH2 0x614 SWAP2 SWAP1 PUSH2 0xF18 JUMP JUMPDEST PUSH1 0x40 MLOAD DUP1 SWAP2 SUB SWAP1 LOG1 POP JUMP JUMPDEST PUSH1 0x60 PUSH1 0x3 PUSH0 CALLER PUSH20 0xFFFFFFFFFFFFFFFFFFFFFFFFFFFFFFFFFFFFFFFF AND PUSH20 0xFFFFFFFFFFFFFFFFFFFFFFFFFFFFFFFFFFFFFFFF AND DUP2 MSTORE PUSH1 0x20 ADD SWAP1 DUP2 MSTORE PUSH1 0x20 ADD PUSH0 KECCAK256 PUSH0 ADD PUSH0 SWAP1 SLOAD SWAP1 PUSH2 0x100 EXP SWAP1 DIV PUSH1 0xFF AND PUSH2 0x675 JUMPI PUSH0 DUP1 REVERT JUMPDEST PUSH0 PUSH1 0x3 PUSH0 CALLER PUSH20 0xFFFFFFFFFFFFFFFFFFFFFFFFFFFFFFFFFFFFFFFF AND PUSH20 0xFFFFFFFFFFFFFFFFFFFFFFFFFFFFFFFFFFFFFFFF AND DUP2 MSTORE PUSH1 0x20 ADD SWAP1 DUP2 MSTORE PUSH1 0x20 ADD PUSH0 KECCAK256 PUSH1 0x1 ADD SLOAD SWAP1 POP PUSH1 0x1 DUP2 DUP2 SLOAD DUP2 LT PUSH2 0x6CD JUMPI PUSH2 0x6CC PUSH2 0x10F5 JUMP JUMPDEST JUMPDEST SWAP1 PUSH0 MSTORE PUSH1 0x20 PUSH0 KECCAK256 SWAP1 PUSH1 0x2 MUL ADD PUSH0 ADD DUP1 SLOAD PUSH2 0x6E6 SWAP1 PUSH2 0x114F JUMP JUMPDEST DUP1 PUSH1 0x1F ADD PUSH1 0x20 DUP1 SWAP2 DIV MUL PUSH1 0x20 ADD PUSH1 0x40 MLOAD SWAP1 DUP2 ADD PUSH1 0x40 MSTORE DUP1 SWAP3 SWAP2 SWAP1 DUP2 DUP2 MSTORE PUSH1 0x20 ADD DUP3 DUP1 SLOAD PUSH2 0x712 SWAP1 PUSH2 0x114F JUMP JUMPDEST DUP1 ISZERO PUSH2 0x75D JUMPI DUP1 PUSH1 0x1F LT PUSH2 0x734 JUMPI PUSH2 0x100 DUP1 DUP4 SLOAD DIV MUL DUP4 MSTORE SWAP2 PUSH1 0x20 ADD SWAP2 PUSH2 0x75D JUMP JUMPDEST DUP3 ADD SWAP2 SWAP1 PUSH0 MSTORE PUSH1 0x20 PUSH0 KECCAK256 SWAP1 JUMPDEST DUP2 SLOAD DUP2 MSTORE SWAP1 PUSH1 0x1 ADD SWAP1 PUSH1 0x20 ADD DUP1 DUP4 GT PUSH2 0x740 JUMPI DUP3 SWAP1 SUB PUSH1 0x1F AND DUP3 ADD SWAP2 JUMPDEST POP POP POP POP POP SWAP2 POP POP SWAP1 JUMP JUMPDEST PUSH0 PUSH1 0x1 SWAP1 SLOAD SWAP1 PUSH2 0x100 EXP SWAP1 DIV PUSH20 0xFFFFFFFFFFFFFFFFFFFFFFFFFFFFFFFFFFFFFFFF AND DUP2 JUMP JUMPDEST PUSH0 DUP1 PUSH1 0x1 SWAP1 SLOAD SWAP1 PUSH2 0x100 EXP SWAP1 DIV PUSH20 0xFFFFFFFFFFFFFFFFFFFFFFFFFFFFFFFFFFFFFFFF AND PUSH20 0xFFFFFFFFFFFFFFFFFFFFFFFFFFFFFFFFFFFFFFFF AND CALLER PUSH20 0xFFFFFFFFFFFFFFFFFFFFFFFFFFFFFFFFFFFFFFFF AND EQ SWAP1 POP SWAP1 JUMP JUMPDEST PUSH0 DUP1 SLOAD SWAP1 PUSH2 0x100 EXP SWAP1 DIV PUSH1 0xFF AND DUP2 JUMP JUMPDEST PUSH0 DUP1 PUSH0 SWAP1 POP PUSH0 JUMPDEST PUSH1 0x1 DUP1 SLOAD SWAP1 POP DUP2 LT ISZERO PUSH2 0x845 JUMPI PUSH1 0x1 DUP2 DUP2 SLOAD DUP2 LT PUSH2 0x81B JUMPI PUSH2 0x81A PUSH2 0x10F5 JUMP JUMPDEST JUMPDEST SWAP1 PUSH0 MSTORE PUSH1 0x20 PUSH0 KECCAK256 SWAP1 PUSH1 0x2 MUL ADD PUSH1 0x1 ADD SLOAD DUP3 PUSH2 0x836 SWAP2 SWAP1 PUSH2 0x1512 JUMP JUMPDEST SWAP2 POP DUP1 DUP1 PUSH1 0x1 ADD SWAP2 POP POP PUSH2 0x7FA JUMP JUMPDEST POP DUP1 SWAP2 POP POP SWAP1 JUMP JUMPDEST PUSH1 0x3 PUSH1 0x20 MSTORE DUP1 PUSH0 MSTORE PUSH1 0x40 PUSH0 KECCAK256 PUSH0 SWAP2 POP SWAP1 POP DUP1 PUSH0 ADD PUSH0 SWAP1 SLOAD SWAP1 PUSH2 0x100 EXP SWAP1 DIV PUSH1 0xFF AND SWAP1 DUP1 PUSH1 0x1 ADD SLOAD SWAP1 POP DUP3 JUMP JUMPDEST PUSH1 0x1 DUP2 DUP2 SLOAD DUP2 LT PUSH2 0x888 JUMPI PUSH0 DUP1 REVERT JUMPDEST SWAP1 PUSH0 MSTORE PUSH1 0x20 PUSH0 KECCAK256 SWAP1 PUSH1 0x2 MUL ADD PUSH0 SWAP2 POP SWAP1 POP DUP1 PUSH0 ADD DUP1 SLOAD PUSH2 0x8A7 SWAP1 PUSH2 0x114F JUMP JUMPDEST DUP1 PUSH1 0x1F ADD PUSH1 0x20 DUP1 SWAP2 DIV MUL PUSH1 0x20 ADD PUSH1 0x40 MLOAD SWAP1 DUP2 ADD PUSH1 0x40 MSTORE DUP1 SWAP3 SWAP2 SWAP1 DUP2 DUP2 MSTORE PUSH1 0x20 ADD DUP3 DUP1 SLOAD PUSH2 0x8D3 SWAP1 PUSH2 0x114F JUMP JUMPDEST DUP1 ISZERO PUSH2 0x91E JUMPI DUP1 PUSH1 0x1F LT PUSH2 0x8F5 JUMPI PUSH2 0x100 DUP1 DUP4 SLOAD DIV MUL DUP4 MSTORE SWAP2 PUSH1 0x20 ADD SWAP2 PUSH2 0x91E JUMP JUMPDEST DUP3 ADD SWAP2 SWAP1 PUSH0 MSTORE PUSH1 0x20 PUSH0 KECCAK256 SWAP1 JUMPDEST DUP2 SLOAD DUP2 MSTORE SWAP1 PUSH1 0x1 ADD SWAP1 PUSH1 0x20 ADD DUP1 DUP4 GT PUSH2 0x901 JUMPI DUP3 SWAP1 SUB PUSH1 0x1F AND DUP3 ADD SWAP2 JUMPDEST POP POP POP POP POP SWAP1 DUP1 PUSH1 0x1 ADD SLOAD SWAP1 POP DUP3 JUMP JUMPDEST PUSH1 0x1 ISZERO ISZERO PUSH0 DUP1 SLOAD SWAP1 PUSH2 0x100 EXP SWAP1 DIV PUSH1 0xFF AND ISZERO ISZERO EQ PUSH2 0x94A JUMPI PUSH0 DUP1 REVERT JUMPDEST PUSH1 0x1 DUP1 SLOAD SWAP1 POP DUP2 LT PUSH2 0x95A JUMPI PUSH0 DUP1 REVERT JUMPDEST PUSH1 0x3 PUSH0 CALLER PUSH20 0xFFFFFFFFFFFFFFFFFFFFFFFFFFFFFFFFFFFFFFFF AND PUSH20 0xFFFFFFFFFFFFFFFFFFFFFFFFFFFFFFFFFFFFFFFF AND DUP2 MSTORE PUSH1 0x20 ADD SWAP1 DUP2 MSTORE PUSH1 0x20 ADD PUSH0 KECCAK256 PUSH0 ADD PUSH0 SWAP1 SLOAD SWAP1 PUSH2 0x100 EXP SWAP1 DIV PUSH1 0xFF AND ISZERO PUSH2 0x9AF JUMPI PUSH0 DUP1 REVERT JUMPDEST PUSH1 0x1 PUSH1 0x3 PUSH0 CALLER PUSH20 0xFFFFFFFFFFFFFFFFFFFFFFFFFFFFFFFFFFFFFFFF AND PUSH20 0xFFFFFFFFFFFFFFFFFFFFFFFFFFFFFFFFFFFFFFFF AND DUP2 MSTORE PUSH1 0x20 ADD SWAP1 DUP2 MSTORE PUSH1 0x20 ADD PUSH0 KECCAK256 PUSH0 ADD PUSH0 PUSH2 0x100 EXP DUP2 SLOAD DUP2 PUSH1 0xFF MUL NOT AND SWAP1 DUP4 ISZERO ISZERO MUL OR SWAP1 SSTORE POP DUP1 PUSH1 0x3 PUSH0 CALLER PUSH20 0xFFFFFFFFFFFFFFFFFFFFFFFFFFFFFFFFFFFFFFFF AND PUSH20 0xFFFFFFFFFFFFFFFFFFFFFFFFFFFFFFFFFFFFFFFF AND DUP2 MSTORE PUSH1 0x20 ADD SWAP1 DUP2 MSTORE PUSH1 0x20 ADD PUSH0 KECCAK256 PUSH1 0x1 ADD DUP2 SWAP1 SSTORE POP PUSH1 0x1 DUP2 DUP2 SLOAD DUP2 LT PUSH2 0xA5F JUMPI PUSH2 0xA5E PUSH2 0x10F5 JUMP JUMPDEST JUMPDEST SWAP1 PUSH0 MSTORE PUSH1 0x20 PUSH0 KECCAK256 SWAP1 PUSH1 0x2 MUL ADD PUSH1 0x1 ADD PUSH0 DUP2 SLOAD DUP1 SWAP3 SWAP2 SWAP1 PUSH2 0xA7E SWAP1 PUSH2 0x1545 JUMP JUMPDEST SWAP2 SWAP1 POP SSTORE POP PUSH31 0x8E3B27E09DAA83EF4D239B211C458358C74C8AB4A844AA4CE24F2A4E211EEB PUSH1 0x1 DUP3 DUP2 SLOAD DUP2 LT PUSH2 0xAB7 JUMPI PUSH2 0xAB6 PUSH2 0x10F5 JUMP JUMPDEST JUMPDEST SWAP1 PUSH0 MSTORE PUSH1 0x20 PUSH0 KECCAK256 SWAP1 PUSH1 0x2 MUL ADD PUSH0 ADD PUSH1 0x1 DUP4 DUP2 SLOAD DUP2 LT PUSH2 0xAD9 JUMPI PUSH2 0xAD8 PUSH2 0x10F5 JUMP JUMPDEST JUMPDEST SWAP1 PUSH0 MSTORE PUSH1 0x20 PUSH0 KECCAK256 SWAP1 PUSH1 0x2 MUL ADD PUSH1 0x1 ADD SLOAD PUSH1 0x40 MLOAD PUSH2 0xAF7 SWAP3 SWAP2 SWAP1 PUSH2 0x160D JUMP JUMPDEST PUSH1 0x40 MLOAD DUP1 SWAP2 SUB SWAP1 LOG1 POP JUMP JUMPDEST POP DUP1 SLOAD PUSH2 0xB0E SWAP1 PUSH2 0x114F JUMP JUMPDEST PUSH0 DUP3 SSTORE DUP1 PUSH1 0x1F LT PUSH2 0xB1F JUMPI POP PUSH2 0xB3C JUMP JUMPDEST PUSH1 0x1F ADD PUSH1 0x20 SWAP1 DIV SWAP1 PUSH0 MSTORE PUSH1 0x20 PUSH0 KECCAK256 SWAP1 DUP2 ADD SWAP1 PUSH2 0xB3B SWAP2 SWAP1 PUSH2 0xB3F JUMP JUMPDEST JUMPDEST POP JUMP JUMPDEST JUMPDEST DUP1 DUP3 GT ISZERO PUSH2 0xB56 JUMPI PUSH0 DUP2 PUSH0 SWAP1 SSTORE POP PUSH1 0x1 ADD PUSH2 0xB40 JUMP JUMPDEST POP SWAP1 JUMP JUMPDEST PUSH0 PUSH1 0x40 MLOAD SWAP1 POP SWAP1 JUMP JUMPDEST PUSH0 DUP1 REVERT JUMPDEST PUSH0 DUP1 REVERT JUMPDEST PUSH0 DUP2 SWAP1 POP SWAP2 SWAP1 POP JUMP JUMPDEST PUSH2 0xB7D DUP2 PUSH2 0xB6B JUMP JUMPDEST DUP2 EQ PUSH2 0xB87 JUMPI PUSH0 DUP1 REVERT JUMPDEST POP JUMP JUMPDEST PUSH0 DUP2 CALLDATALOAD SWAP1 POP PUSH2 0xB98 DUP2 PUSH2 0xB74 JUMP JUMPDEST SWAP3 SWAP2 POP POP JUMP JUMPDEST PUSH0 PUSH1 0x20 DUP3 DUP5 SUB SLT ISZERO PUSH2 0xBB3 JUMPI PUSH2 0xBB2 PUSH2 0xB63 JUMP JUMPDEST JUMPDEST PUSH0 PUSH2 0xBC0 DUP5 DUP3 DUP6 ADD PUSH2 0xB8A JUMP JUMPDEST SWAP2 POP POP SWAP3 SWAP2 POP POP JUMP JUMPDEST PUSH0 DUP2 MLOAD SWAP1 POP SWAP2 SWAP1 POP JUMP JUMPDEST PUSH0 DUP3 DUP3 MSTORE PUSH1 0x20 DUP3 ADD SWAP1 POP SWAP3 SWAP2 POP POP JUMP JUMPDEST PUSH0 DUP2 SWAP1 POP PUSH1 0x20 DUP3 ADD SWAP1 POP SWAP2 SWAP1 POP JUMP JUMPDEST PUSH0 DUP2 MLOAD SWAP1 POP SWAP2 SWAP1 POP JUMP JUMPDEST PUSH0 DUP3 DUP3 MSTORE PUSH1 0x20 DUP3 ADD SWAP1 POP SWAP3 SWAP2 POP POP JUMP JUMPDEST DUP3 DUP2 DUP4 MCOPY PUSH0 DUP4 DUP4 ADD MSTORE POP POP POP JUMP JUMPDEST PUSH0 PUSH1 0x1F NOT PUSH1 0x1F DUP4 ADD AND SWAP1 POP SWAP2 SWAP1 POP JUMP JUMPDEST PUSH0 PUSH2 0xC34 DUP3 PUSH2 0xBF2 JUMP JUMPDEST PUSH2 0xC3E DUP2 DUP6 PUSH2 0xBFC JUMP JUMPDEST SWAP4 POP PUSH2 0xC4E DUP2 DUP6 PUSH1 0x20 DUP7 ADD PUSH2 0xC0C JUMP JUMPDEST PUSH2 0xC57 DUP2 PUSH2 0xC1A JUMP JUMPDEST DUP5 ADD SWAP2 POP POP SWAP3 SWAP2 POP POP JUMP JUMPDEST PUSH2 0xC6B DUP2 PUSH2 0xB6B JUMP JUMPDEST DUP3 MSTORE POP POP JUMP JUMPDEST PUSH0 PUSH1 0x40 DUP4 ADD PUSH0 DUP4 ADD MLOAD DUP5 DUP3 SUB PUSH0 DUP7 ADD MSTORE PUSH2 0xC8B DUP3 DUP3 PUSH2 0xC2A JUMP JUMPDEST SWAP2 POP POP PUSH1 0x20 DUP4 ADD MLOAD PUSH2 0xCA0 PUSH1 0x20 DUP7 ADD DUP3 PUSH2 0xC62 JUMP JUMPDEST POP DUP1 SWAP2 POP POP SWAP3 SWAP2 POP POP JUMP JUMPDEST PUSH0 PUSH2 0xCB6 DUP4 DUP4 PUSH2 0xC71 JUMP JUMPDEST SWAP1 POP SWAP3 SWAP2 POP POP JUMP JUMPDEST PUSH0 PUSH1 0x20 DUP3 ADD SWAP1 POP SWAP2 SWAP1 POP JUMP JUMPDEST PUSH0 PUSH2 0xCD4 DUP3 PUSH2 0xBC9 JUMP JUMPDEST PUSH2 0xCDE DUP2 DUP6 PUSH2 0xBD3 JUMP JUMPDEST SWAP4 POP DUP4 PUSH1 0x20 DUP3 MUL DUP6 ADD PUSH2 0xCF0 DUP6 PUSH2 0xBE3 JUMP JUMPDEST DUP1 PUSH0 JUMPDEST DUP6 DUP2 LT ISZERO PUSH2 0xD2B JUMPI DUP5 DUP5 SUB DUP10 MSTORE DUP2 MLOAD PUSH2 0xD0C DUP6 DUP3 PUSH2 0xCAB JUMP JUMPDEST SWAP5 POP PUSH2 0xD17 DUP4 PUSH2 0xCBE JUMP JUMPDEST SWAP3 POP PUSH1 0x20 DUP11 ADD SWAP10 POP POP PUSH1 0x1 DUP2 ADD SWAP1 POP PUSH2 0xCF3 JUMP JUMPDEST POP DUP3 SWAP8 POP DUP8 SWAP6 POP POP POP POP POP POP SWAP3 SWAP2 POP POP JUMP JUMPDEST PUSH0 PUSH1 0x20 DUP3 ADD SWAP1 POP DUP2 DUP2 SUB PUSH0 DUP4 ADD MSTORE PUSH2 0xD55 DUP2 DUP5 PUSH2 0xCCA JUMP JUMPDEST SWAP1 POP SWAP3 SWAP2 POP POP JUMP JUMPDEST PUSH0 DUP1 REVERT JUMPDEST PUSH0 DUP1 REVERT JUMPDEST PUSH32 0x4E487B7100000000000000000000000000000000000000000000000000000000 PUSH0 MSTORE PUSH1 0x41 PUSH1 0x4 MSTORE PUSH1 0x24 PUSH0 REVERT JUMPDEST PUSH2 0xD9B DUP3 PUSH2 0xC1A JUMP JUMPDEST DUP2 ADD DUP2 DUP2 LT PUSH8 0xFFFFFFFFFFFFFFFF DUP3 GT OR ISZERO PUSH2 0xDBA JUMPI PUSH2 0xDB9 PUSH2 0xD65 JUMP JUMPDEST JUMPDEST DUP1 PUSH1 0x40 MSTORE POP POP POP JUMP JUMPDEST PUSH0 PUSH2 0xDCC PUSH2 0xB5A JUMP JUMPDEST SWAP1 POP PUSH2 0xDD8 DUP3 DUP3 PUSH2 0xD92 JUMP JUMPDEST SWAP2 SWAP1 POP JUMP JUMPDEST PUSH0 PUSH8 0xFFFFFFFFFFFFFFFF DUP3 GT ISZERO PUSH2 0xDF7 JUMPI PUSH2 0xDF6 PUSH2 0xD65 JUMP JUMPDEST JUMPDEST PUSH2 0xE00 DUP3 PUSH2 0xC1A JUMP JUMPDEST SWAP1 POP PUSH1 0x20 DUP2 ADD SWAP1 POP SWAP2 SWAP1 POP JUMP JUMPDEST DUP3 DUP2 DUP4 CALLDATACOPY PUSH0 DUP4 DUP4 ADD MSTORE POP POP POP JUMP JUMPDEST PUSH0 PUSH2 0xE2D PUSH2 0xE28 DUP5 PUSH2 0xDDD JUMP JUMPDEST PUSH2 0xDC3 JUMP JUMPDEST SWAP1 POP DUP3 DUP2 MSTORE PUSH1 0x20 DUP2 ADD DUP5 DUP5 DUP5 ADD GT ISZERO PUSH2 0xE49 JUMPI PUSH2 0xE48 PUSH2 0xD61 JUMP JUMPDEST JUMPDEST PUSH2 0xE54 DUP5 DUP3 DUP6 PUSH2 0xE0D JUMP JUMPDEST POP SWAP4 SWAP3 POP POP POP JUMP JUMPDEST PUSH0 DUP3 PUSH1 0x1F DUP4 ADD SLT PUSH2 0xE70 JUMPI PUSH2 0xE6F PUSH2 0xD5D JUMP JUMPDEST JUMPDEST DUP2 CALLDATALOAD PUSH2 0xE80 DUP5 DUP3 PUSH1 0x20 DUP7 ADD PUSH2 0xE1B JUMP JUMPDEST SWAP2 POP POP SWAP3 SWAP2 POP POP JUMP JUMPDEST PUSH0 PUSH1 0x20 DUP3 DUP5 SUB SLT ISZERO PUSH2 0xE9E JUMPI PUSH2 0xE9D PUSH2 0xB63 JUMP JUMPDEST JUMPDEST PUSH0 DUP3 ADD CALLDATALOAD PUSH8 0xFFFFFFFFFFFFFFFF DUP2 GT ISZERO PUSH2 0xEBB JUMPI PUSH2 0xEBA PUSH2 0xB67 JUMP JUMPDEST JUMPDEST PUSH2 0xEC7 DUP5 DUP3 DUP6 ADD PUSH2 0xE5C JUMP JUMPDEST SWAP2 POP POP SWAP3 SWAP2 POP POP JUMP JUMPDEST PUSH0 DUP3 DUP3 MSTORE PUSH1 0x20 DUP3 ADD SWAP1 POP SWAP3 SWAP2 POP POP JUMP JUMPDEST PUSH0 PUSH2 0xEEA DUP3 PUSH2 0xBF2 JUMP JUMPDEST PUSH2 0xEF4 DUP2 DUP6 PUSH2 0xED0 JUMP JUMPDEST SWAP4 POP PUSH2 0xF04 DUP2 DUP6 PUSH1 0x20 DUP7 ADD PUSH2 0xC0C JUMP JUMPDEST PUSH2 0xF0D DUP2 PUSH2 0xC1A JUMP JUMPDEST DUP5 ADD SWAP2 POP POP SWAP3 SWAP2 POP POP JUMP JUMPDEST PUSH0 PUSH1 0x20 DUP3 ADD SWAP1 POP DUP2 DUP2 SUB PUSH0 DUP4 ADD MSTORE PUSH2 0xF30 DUP2 DUP5 PUSH2 0xEE0 JUMP JUMPDEST SWAP1 POP SWAP3 SWAP2 POP POP JUMP JUMPDEST PUSH0 PUSH20 0xFFFFFFFFFFFFFFFFFFFFFFFFFFFFFFFFFFFFFFFF DUP3 AND SWAP1 POP SWAP2 SWAP1 POP JUMP JUMPDEST PUSH0 PUSH2 0xF61 DUP3 PUSH2 0xF38 JUMP JUMPDEST SWAP1 POP SWAP2 SWAP1 POP JUMP JUMPDEST PUSH2 0xF71 DUP2 PUSH2 0xF57 JUMP JUMPDEST DUP3 MSTORE POP POP JUMP JUMPDEST PUSH0 PUSH1 0x20 DUP3 ADD SWAP1 POP PUSH2 0xF8A PUSH0 DUP4 ADD DUP5 PUSH2 0xF68 JUMP JUMPDEST SWAP3 SWAP2 POP POP JUMP JUMPDEST PUSH0 DUP2 ISZERO ISZERO SWAP1 POP SWAP2 SWAP1 POP JUMP JUMPDEST PUSH2 0xFA4 DUP2 PUSH2 0xF90 JUMP JUMPDEST DUP3 MSTORE POP POP JUMP JUMPDEST PUSH0 PUSH1 0x20 DUP3 ADD SWAP1 POP PUSH2 0xFBD PUSH0 DUP4 ADD DUP5 PUSH2 0xF9B JUMP JUMPDEST SWAP3 SWAP2 POP POP JUMP JUMPDEST PUSH2 0xFCC DUP2 PUSH2 0xB6B JUMP JUMPDEST DUP3 MSTORE POP POP JUMP JUMPDEST PUSH0 PUSH1 0x20 DUP3 ADD SWAP1 POP PUSH2 0xFE5 PUSH0 DUP4 ADD DUP5 PUSH2 0xFC3 JUMP JUMPDEST SWAP3 SWAP2 POP POP JUMP JUMPDEST PUSH2 0xFF4 DUP2 PUSH2 0xF57 JUMP JUMPDEST DUP2 EQ PUSH2 0xFFE JUMPI PUSH0 DUP1 REVERT JUMPDEST POP JUMP JUMPDEST PUSH0 DUP2 CALLDATALOAD SWAP1 POP PUSH2 0x100F DUP2 PUSH2 0xFEB JUMP JUMPDEST SWAP3 SWAP2 POP POP JUMP JUMPDEST PUSH0 PUSH1 0x20 DUP3 DUP5 SUB SLT ISZERO PUSH2 0x102A JUMPI PUSH2 0x1029 PUSH2 0xB63 JUMP JUMPDEST JUMPDEST PUSH0 PUSH2 0x1037 DUP5 DUP3 DUP6 ADD PUSH2 0x1001 JUMP JUMPDEST SWAP2 POP POP SWAP3 SWAP2 POP POP JUMP JUMPDEST PUSH0 PUSH1 0x40 DUP3 ADD SWAP1 POP PUSH2 0x1053 PUSH0 DUP4 ADD DUP6 PUSH2 0xF9B JUMP JUMPDEST PUSH2 0x1060 PUSH1 0x20 DUP4 ADD DUP5 PUSH2 0xFC3 JUMP JUMPDEST SWAP4 SWAP3 POP POP POP JUMP JUMPDEST PUSH0 PUSH1 0x40 DUP3 ADD SWAP1 POP DUP2 DUP2 SUB PUSH0 DUP4 ADD MSTORE PUSH2 0x107F DUP2 DUP6 PUSH2 0xEE0 JUMP JUMPDEST SWAP1 POP PUSH2 0x108E PUSH1 0x20 DUP4 ADD DUP5 PUSH2 0xFC3 JUMP JUMPDEST SWAP4 SWAP3 POP POP POP JUMP JUMPDEST PUSH32 0x4E487B7100000000000000000000000000000000000000000000000000000000 PUSH0 MSTORE PUSH1 0x11 PUSH1 0x4 MSTORE PUSH1 0x24 PUSH0 REVERT JUMPDEST PUSH0 PUSH2 0x10CC DUP3 PUSH2 0xB6B JUMP JUMPDEST SWAP2 POP PUSH2 0x10D7 DUP4 PUSH2 0xB6B JUMP JUMPDEST SWAP3 POP DUP3 DUP3 SUB SWAP1 POP DUP2 DUP2 GT ISZERO PUSH2 0x10EF JUMPI PUSH2 0x10EE PUSH2 0x1095 JUMP JUMPDEST JUMPDEST SWAP3 SWAP2 POP POP JUMP JUMPDEST PUSH32 0x4E487B7100000000000000000000000000000000000000000000000000000000 PUSH0 MSTORE PUSH1 0x32 PUSH1 0x4 MSTORE PUSH1 0x24 PUSH0 REVERT JUMPDEST PUSH32 0x4E487B7100000000000000000000000000000000000000000000000000000000 PUSH0 MSTORE PUSH1 0x22 PUSH1 0x4 MSTORE PUSH1 0x24 PUSH0 REVERT JUMPDEST PUSH0 PUSH1 0x2 DUP3 DIV SWAP1 POP PUSH1 0x1 DUP3 AND DUP1 PUSH2 0x1166 JUMPI PUSH1 0x7F DUP3 AND SWAP2 POP JUMPDEST PUSH1 0x20 DUP3 LT DUP2 SUB PUSH2 0x1179 JUMPI PUSH2 0x1178 PUSH2 0x1122 JUMP JUMPDEST JUMPDEST POP SWAP2 SWAP1 POP JUMP JUMPDEST PUSH0 DUP2 SLOAD SWAP1 POP PUSH2 0x118D DUP2 PUSH2 0x114F JUMP JUMPDEST SWAP1 POP SWAP2 SWAP1 POP JUMP JUMPDEST PUSH0 DUP2 SWAP1 POP DUP2 PUSH0 MSTORE PUSH1 0x20 PUSH0 KECCAK256 SWAP1 POP SWAP2 SWAP1 POP JUMP JUMPDEST PUSH0 PUSH1 0x20 PUSH1 0x1F DUP4 ADD DIV SWAP1 POP SWAP2 SWAP1 POP JUMP JUMPDEST PUSH0 DUP3 DUP3 SHL SWAP1 POP SWAP3 SWAP2 POP POP JUMP JUMPDEST PUSH0 PUSH1 0x8 DUP4 MUL PUSH2 0x11F0 PUSH32 0xFFFFFFFFFFFFFFFFFFFFFFFFFFFFFFFFFFFFFFFFFFFFFFFFFFFFFFFFFFFFFFFF DUP3 PUSH2 0x11B5 JUMP JUMPDEST PUSH2 0x11FA DUP7 DUP4 PUSH2 0x11B5 JUMP JUMPDEST SWAP6 POP DUP1 NOT DUP5 AND SWAP4 POP DUP1 DUP7 AND DUP5 OR SWAP3 POP POP POP SWAP4 SWAP3 POP POP POP JUMP JUMPDEST PUSH0 DUP2 SWAP1 POP SWAP2 SWAP1 POP JUMP JUMPDEST PUSH0 PUSH2 0x1235 PUSH2 0x1230 PUSH2 0x122B DUP5 PUSH2 0xB6B JUMP JUMPDEST PUSH2 0x1212 JUMP JUMPDEST PUSH2 0xB6B JUMP JUMPDEST SWAP1 POP SWAP2 SWAP1 POP JUMP JUMPDEST PUSH0 DUP2 SWAP1 POP SWAP2 SWAP1 POP JUMP JUMPDEST PUSH2 0x124E DUP4 PUSH2 0x121B JUMP JUMPDEST PUSH2 0x1262 PUSH2 0x125A DUP3 PUSH2 0x123C JUMP JUMPDEST DUP5 DUP5 SLOAD PUSH2 0x11C1 JUMP JUMPDEST DUP3 SSTORE POP POP POP POP JUMP JUMPDEST PUSH0 SWAP1 JUMP JUMPDEST PUSH2 0x1276 PUSH2 0x126A JUMP JUMPDEST PUSH2 0x1281 DUP2 DUP5 DUP5 PUSH2 0x1245 JUMP JUMPDEST POP POP POP JUMP JUMPDEST JUMPDEST DUP2 DUP2 LT ISZERO PUSH2 0x12A4 JUMPI PUSH2 0x1299 PUSH0 DUP3 PUSH2 0x126E JUMP JUMPDEST PUSH1 0x1 DUP2 ADD SWAP1 POP PUSH2 0x1287 JUMP JUMPDEST POP POP JUMP JUMPDEST PUSH1 0x1F DUP3 GT ISZERO PUSH2 0x12E9 JUMPI PUSH2 0x12BA DUP2 PUSH2 0x1194 JUMP JUMPDEST PUSH2 0x12C3 DUP5 PUSH2 0x11A6 JUMP JUMPDEST DUP2 ADD PUSH1 0x20 DUP6 LT ISZERO PUSH2 0x12D2 JUMPI DUP2 SWAP1 POP JUMPDEST PUSH2 0x12E6 PUSH2 0x12DE DUP6 PUSH2 0x11A6 JUMP JUMPDEST DUP4 ADD DUP3 PUSH2 0x1286 JUMP JUMPDEST POP POP JUMPDEST POP POP POP JUMP JUMPDEST PUSH0 DUP3 DUP3 SHR SWAP1 POP SWAP3 SWAP2 POP POP JUMP JUMPDEST PUSH0 PUSH2 0x1309 PUSH0 NOT DUP5 PUSH1 0x8 MUL PUSH2 0x12EE JUMP JUMPDEST NOT DUP1 DUP4 AND SWAP2 POP POP SWAP3 SWAP2 POP POP JUMP JUMPDEST PUSH0 PUSH2 0x1321 DUP4 DUP4 PUSH2 0x12FA JUMP JUMPDEST SWAP2 POP DUP3 PUSH1 0x2 MUL DUP3 OR SWAP1 POP SWAP3 SWAP2 POP POP JUMP JUMPDEST DUP2 DUP2 SUB PUSH2 0x133F JUMPI POP POP PUSH2 0x1414 JUMP JUMPDEST PUSH2 0x1348 DUP3 PUSH2 0x117F JUMP JUMPDEST PUSH8 0xFFFFFFFFFFFFFFFF DUP2 GT ISZERO PUSH2 0x1361 JUMPI PUSH2 0x1360 PUSH2 0xD65 JUMP JUMPDEST JUMPDEST PUSH2 0x136B DUP3 SLOAD PUSH2 0x114F JUMP JUMPDEST PUSH2 0x1376 DUP3 DUP3 DUP6 PUSH2 0x12A8 JUMP JUMPDEST PUSH0 PUSH1 0x1F DUP4 GT PUSH1 0x1 DUP2 EQ PUSH2 0x13A3 JUMPI PUSH0 DUP5 ISZERO PUSH2 0x1391 JUMPI DUP3 DUP8 ADD SLOAD SWAP1 POP JUMPDEST PUSH2 0x139B DUP6 DUP3 PUSH2 0x1316 JUMP JUMPDEST DUP7 SSTORE POP PUSH2 0x140D JUMP JUMPDEST PUSH1 0x1F NOT DUP5 AND PUSH2 0x13B1 DUP8 PUSH2 0x1194 JUMP JUMPDEST SWAP7 POP PUSH2 0x13BC DUP7 PUSH2 0x1194 JUMP JUMPDEST PUSH0 JUMPDEST DUP3 DUP2 LT ISZERO PUSH2 0x13E3 JUMPI DUP5 DUP10 ADD SLOAD DUP3 SSTORE PUSH1 0x1 DUP3 ADD SWAP2 POP PUSH1 0x1 DUP6 ADD SWAP5 POP PUSH1 0x20 DUP2 ADD SWAP1 POP PUSH2 0x13BE JUMP JUMPDEST DUP7 DUP4 LT ISZERO PUSH2 0x1400 JUMPI DUP5 DUP10 ADD SLOAD PUSH2 0x13FC PUSH1 0x1F DUP10 AND DUP3 PUSH2 0x12FA JUMP JUMPDEST DUP4 SSTORE POP JUMPDEST PUSH1 0x1 PUSH1 0x2 DUP9 MUL ADD DUP9 SSTORE POP POP POP JUMPDEST POP POP POP POP POP POP JUMPDEST JUMP JUMPDEST PUSH32 0x4E487B7100000000000000000000000000000000000000000000000000000000 PUSH0 MSTORE PUSH1 0x31 PUSH1 0x4 MSTORE PUSH1 0x24 PUSH0 REVERT JUMPDEST PUSH2 0x144C DUP3 PUSH2 0xBF2 JUMP JUMPDEST PUSH8 0xFFFFFFFFFFFFFFFF DUP2 GT ISZERO PUSH2 0x1465 JUMPI PUSH2 0x1464 PUSH2 0xD65 JUMP JUMPDEST JUMPDEST PUSH2 0x146F DUP3 SLOAD PUSH2 0x114F JUMP JUMPDEST PUSH2 0x147A DUP3 DUP3 DUP6 PUSH2 0x12A8 JUMP JUMPDEST PUSH0 PUSH1 0x20 SWAP1 POP PUSH1 0x1F DUP4 GT PUSH1 0x1 DUP2 EQ PUSH2 0x14AB JUMPI PUSH0 DUP5 ISZERO PUSH2 0x1499 JUMPI DUP3 DUP8 ADD MLOAD SWAP1 POP JUMPDEST PUSH2 0x14A3 DUP6 DUP3 PUSH2 0x1316 JUMP JUMPDEST DUP7 SSTORE POP PUSH2 0x150A JUMP JUMPDEST PUSH1 0x1F NOT DUP5 AND PUSH2 0x14B9 DUP7 PUSH2 0x1194 JUMP JUMPDEST PUSH0 JUMPDEST DUP3 DUP2 LT ISZERO PUSH2 0x14E0 JUMPI DUP5 DUP10 ADD MLOAD DUP3 SSTORE PUSH1 0x1 DUP3 ADD SWAP2 POP PUSH1 0x20 DUP6 ADD SWAP5 POP PUSH1 0x20 DUP2 ADD SWAP1 POP PUSH2 0x14BB JUMP JUMPDEST DUP7 DUP4 LT ISZERO PUSH2 0x14FD JUMPI DUP5 DUP10 ADD MLOAD PUSH2 0x14F9 PUSH1 0x1F DUP10 AND DUP3 PUSH2 0x12FA JUMP JUMPDEST DUP4 SSTORE POP JUMPDEST PUSH1 0x1 PUSH1 0x2 DUP9 MUL ADD DUP9 SSTORE POP POP POP JUMPDEST POP POP POP POP POP POP JUMP JUMPDEST PUSH0 PUSH2 0x151C DUP3 PUSH2 0xB6B JUMP JUMPDEST SWAP2 POP PUSH2 0x1527 DUP4 PUSH2 0xB6B JUMP JUMPDEST SWAP3 POP DUP3 DUP3 ADD SWAP1 POP DUP1 DUP3 GT ISZERO PUSH2 0x153F JUMPI PUSH2 0x153E PUSH2 0x1095 JUMP JUMPDEST JUMPDEST SWAP3 SWAP2 POP POP JUMP JUMPDEST PUSH0 PUSH2 0x154F DUP3 PUSH2 0xB6B JUMP JUMPDEST SWAP2 POP PUSH32 0xFFFFFFFFFFFFFFFFFFFFFFFFFFFFFFFFFFFFFFFFFFFFFFFFFFFFFFFFFFFFFFFF DUP3 SUB PUSH2 0x1581 JUMPI PUSH2 0x1580 PUSH2 0x1095 JUMP JUMPDEST JUMPDEST PUSH1 0x1 DUP3 ADD SWAP1 POP SWAP2 SWAP1 POP JUMP JUMPDEST PUSH0 DUP2 SLOAD PUSH2 0x1598 DUP2 PUSH2 0x114F JUMP JUMPDEST PUSH2 0x15A2 DUP2 DUP7 PUSH2 0xED0 JUMP JUMPDEST SWAP5 POP PUSH1 0x1 DUP3 AND PUSH0 DUP2 EQ PUSH2 0x15BC JUMPI PUSH1 0x1 DUP2 EQ PUSH2 0x15D2 JUMPI PUSH2 0x1604 JUMP JUMPDEST PUSH1 0xFF NOT DUP4 AND DUP7 MSTORE DUP2 ISZERO ISZERO PUSH1 0x20 MUL DUP7 ADD SWAP4 POP PUSH2 0x1604 JUMP JUMPDEST PUSH2 0x15DB DUP6 PUSH2 0x1194 JUMP JUMPDEST PUSH0 JUMPDEST DUP4 DUP2 LT ISZERO PUSH2 0x15FC JUMPI DUP2 SLOAD DUP2 DUP10 ADD MSTORE PUSH1 0x1 DUP3 ADD SWAP2 POP PUSH1 0x20 DUP2 ADD SWAP1 POP PUSH2 0x15DD JUMP JUMPDEST DUP1 DUP9 ADD SWAP6 POP POP POP JUMPDEST POP POP POP SWAP3 SWAP2 POP POP JUMP JUMPDEST PUSH0 PUSH1 0x40 DUP3 ADD SWAP1 POP DUP2 DUP2 SUB PUSH0 DUP4 ADD MSTORE PUSH2 0x1625 DUP2 DUP6 PUSH2 0x158C JUMP JUMPDEST SWAP1 POP PUSH2 0x1634 PUSH1 0x20 DUP4 ADD DUP5 PUSH2 0xFC3 JUMP JUMPDEST SWAP4 SWAP3 POP POP POP JUMP INVALID LOG2 PUSH5 0x6970667358 0x22 SLT KECCAK256 0xC7 CREATE2 SHL MULMOD 0xC SLOAD 0xB6 0xB2 0xAD DUP2 SWAP14 BLOBBASEFEE 0xE6 MULMOD CALLDATASIZE MUL 0xEC 0xCF PUSH6 0xA8790F9881AE 0xE1 PUSH20 0xB767A9D52264736F6C634300081A003300000000 "
				},
				"gasEstimates": {
					"creation": {
						"codeDepositCost": "1149000",
						"executionCost": "53200",
						"totalCost": "1202200"
					},
					"external": {
						"addCandidate(string)": "infinite",
						"candidateList(uint256)": "infinite",
						"deleteCandidate(uint256)": "infinite",
						"finishVote()": "29924",
						"getAllCandidates()": "infinite",
						"getTotalVotes()": "infinite",
						"getUserVote()": "infinite",
						"isOwner()": "2541",
						"live()": "2485",
						"owner()": "2669",
						"upVote(uint256)": "infinite",
						"voters(address)": "5133"
					}
				},
				"methodIdentifiers": {
					"addCandidate(string)": "462e91ec",
					"candidateList(uint256)": "b13c744b",
					"deleteCandidate(uint256)": "1e620cd4",
					"finishVote()": "2aebcbb6",
					"getAllCandidates()": "2e6997fe",
					"getTotalVotes()": "9a0e7d66",
					"getUserVote()": "4f301d47",
					"isOwner()": "8f32d59b",
					"live()": "957aa58c",
					"owner()": "8da5cb5b",
					"upVote(uint256)": "ec859db5",
					"voters(address)": "a3ec138d"
				}
			},
			"storageLayout": {
				"storage": [
					{
						"astId": 13,
						"contract": "blockchain/practice/vote-app.sol:Vote",
						"label": "live",
						"offset": 0,
						"slot": "0",
						"type": "t_bool"
					},
					{
						"astId": 15,
						"contract": "blockchain/practice/vote-app.sol:Vote",
						"label": "owner",
						"offset": 1,
						"slot": "0",
						"type": "t_address"
					},
					{
						"astId": 19,
						"contract": "blockchain/practice/vote-app.sol:Vote",
						"label": "candidateList",
						"offset": 0,
						"slot": "1",
						"type": "t_array(t_struct(candidate)6_storage)dyn_storage"
					},
					{
						"astId": 23,
						"contract": "blockchain/practice/vote-app.sol:Vote",
						"label": "Voted",
						"offset": 0,
						"slot": "2",
						"type": "t_mapping(t_address,t_bool)"
					},
					{
						"astId": 28,
						"contract": "blockchain/practice/vote-app.sol:Vote",
						"label": "voters",
						"offset": 0,
						"slot": "3",
						"type": "t_mapping(t_address,t_struct(voter)11_storage)"
					}
				],
				"types": {
					"t_address": {
						"encoding": "inplace",
						"label": "address",
						"numberOfBytes": "20"
					},
					"t_array(t_struct(candidate)6_storage)dyn_storage": {
						"base": "t_struct(candidate)6_storage",
						"encoding": "dynamic_array",
						"label": "struct Vote.candidate[]",
						"numberOfBytes": "32"
					},
					"t_bool": {
						"encoding": "inplace",
						"label": "bool",
						"numberOfBytes": "1"
					},
					"t_mapping(t_address,t_bool)": {
						"encoding": "mapping",
						"key": "t_address",
						"label": "mapping(address => bool)",
						"numberOfBytes": "32",
						"value": "t_bool"
					},
					"t_mapping(t_address,t_struct(voter)11_storage)": {
						"encoding": "mapping",
						"key": "t_address",
						"label": "mapping(address => struct Vote.voter)",
						"numberOfBytes": "32",
						"value": "t_struct(voter)11_storage"
					},
					"t_string_storage": {
						"encoding": "bytes",
						"label": "string",
						"numberOfBytes": "32"
					},
					"t_struct(candidate)6_storage": {
						"encoding": "inplace",
						"label": "struct Vote.candidate",
						"members": [
							{
								"astId": 3,
								"contract": "blockchain/practice/vote-app.sol:Vote",
								"label": "name",
								"offset": 0,
								"slot": "0",
								"type": "t_string_storage"
							},
							{
								"astId": 5,
								"contract": "blockchain/practice/vote-app.sol:Vote",
								"label": "upVote",
								"offset": 0,
								"slot": "1",
								"type": "t_uint256"
							}
						],
						"numberOfBytes": "64"
					},
					"t_struct(voter)11_storage": {
						"encoding": "inplace",
						"label": "struct Vote.voter",
						"members": [
							{
								"astId": 8,
								"contract": "blockchain/practice/vote-app.sol:Vote",
								"label": "isVoted",
								"offset": 0,
								"slot": "0",
								"type": "t_bool"
							},
							{
								"astId": 10,
								"contract": "blockchain/practice/vote-app.sol:Vote",
								"label": "votedCandidateIndex",
								"offset": 0,
								"slot": "1",
								"type": "t_uint256"
							}
						],
						"numberOfBytes": "64"
					},
					"t_uint256": {
						"encoding": "inplace",
						"label": "uint256",
						"numberOfBytes": "32"
					}
				}
			},
			"userdoc": {
				"kind": "user",
				"methods": {},
				"version": 1
			}
		}
	}
}