{
	"blockchain/practice/vote-app.sol": {
		"Vote": {
			"abi": [
				{
					"anonymous": false,
					"inputs": [
						{
							"indexed": false,
							"internalType": "uint256",
							"name": "pollId",
							"type": "uint256"
						},
						{
							"indexed": false,
							"internalType": "string",
							"name": "question",
							"type": "string"
						},
						{
							"indexed": false,
							"internalType": "address",
							"name": "owner",
							"type": "address"
						}
					],
					"name": "CreatePoll",
					"type": "event"
				},
				{
					"inputs": [
						{
							"internalType": "uint256",
							"name": "_pollId",
							"type": "uint256"
						},
						{
							"internalType": "string",
							"name": "_name",
							"type": "string"
						}
					],
					"name": "addCandidate",
					"outputs": [],
					"stateMutability": "nonpayable",
					"type": "function"
				},
				{
					"inputs": [
						{
							"internalType": "string",
							"name": "_question",
							"type": "string"
						}
					],
					"name": "createPoll",
					"outputs": [],
					"stateMutability": "nonpayable",
					"type": "function"
				},
				{
					"inputs": [],
					"name": "getAllPoll",
					"outputs": [
						{
							"internalType": "string[]",
							"name": "questions",
							"type": "string[]"
						},
						{
							"internalType": "address[]",
							"name": "owners",
							"type": "address[]"
						},
						{
							"internalType": "bool[]",
							"name": "isActive",
							"type": "bool[]"
						},
						{
							"components": [
								{
									"internalType": "string",
									"name": "name",
									"type": "string"
								},
								{
									"internalType": "uint256",
									"name": "upVote",
									"type": "uint256"
								}
							],
							"internalType": "struct Vote.Candidate[][]",
							"name": "candidates",
							"type": "tuple[][]"
						}
					],
					"stateMutability": "view",
					"type": "function"
				},
				{
					"inputs": [
						{
							"internalType": "uint256",
							"name": "_pollId",
							"type": "uint256"
						}
					],
					"name": "getHasVoted",
					"outputs": [
						{
							"internalType": "bool",
							"name": "",
							"type": "bool"
						}
					],
					"stateMutability": "view",
					"type": "function"
				},
				{
					"inputs": [],
					"name": "getPollCount",
					"outputs": [
						{
							"internalType": "uint256",
							"name": "",
							"type": "uint256"
						}
					],
					"stateMutability": "view",
					"type": "function"
				},
				{
					"inputs": [
						{
							"internalType": "uint256",
							"name": "_pollId",
							"type": "uint256"
						}
					],
					"name": "getPollResults",
					"outputs": [
						{
							"internalType": "string[]",
							"name": "names",
							"type": "string[]"
						},
						{
							"internalType": "uint256[]",
							"name": "votes",
							"type": "uint256[]"
						}
					],
					"stateMutability": "view",
					"type": "function"
				},
				{
					"inputs": [
						{
							"internalType": "uint256",
							"name": "",
							"type": "uint256"
						}
					],
					"name": "polls",
					"outputs": [
						{
							"internalType": "string",
							"name": "question",
							"type": "string"
						},
						{
							"internalType": "address",
							"name": "owner",
							"type": "address"
						},
						{
							"internalType": "bool",
							"name": "isActive",
							"type": "bool"
						}
					],
					"stateMutability": "view",
					"type": "function"
				},
				{
					"inputs": [
						{
							"internalType": "uint256",
							"name": "_pollId",
							"type": "uint256"
						},
						{
							"internalType": "uint256",
							"name": "_candidateIndex",
							"type": "uint256"
						}
					],
					"name": "vote",
					"outputs": [],
					"stateMutability": "nonpayable",
					"type": "function"
				}
			],
			"devdoc": {
				"kind": "dev",
				"methods": {},
				"version": 1
			},
			"evm": {
				"assembly": "    /* \"blockchain/practice/vote-app.sol\":72:3227  contract Vote {... */\n  mstore(0x40, 0x80)\n  callvalue\n  dup1\n  iszero\n  tag_1\n  jumpi\n  0x00\n  dup1\n  revert\ntag_1:\n  pop\n  dataSize(sub_0)\n  dup1\n  dataOffset(sub_0)\n  0x00\n  codecopy\n  0x00\n  return\nstop\n\nsub_0: assembly {\n        /* \"blockchain/practice/vote-app.sol\":72:3227  contract Vote {... */\n      mstore(0x40, 0x80)\n      callvalue\n      dup1\n      iszero\n      tag_1\n      jumpi\n      0x00\n      dup1\n      revert\n    tag_1:\n      pop\n      jumpi(tag_2, lt(calldatasize, 0x04))\n      shr(0xe0, calldataload(0x00))\n      dup1\n      0x7b70e360\n      gt\n      tag_11\n      jumpi\n      dup1\n      0x7b70e360\n      eq\n      tag_7\n      jumpi\n      dup1\n      0x9844f215\n      eq\n      tag_8\n      jumpi\n      dup1\n      0xac2f0074\n      eq\n      tag_9\n      jumpi\n      dup1\n      0xb384abef\n      eq\n      tag_10\n      jumpi\n      jump(tag_2)\n    tag_11:\n      dup1\n      0x11a52746\n      eq\n      tag_3\n      jumpi\n      dup1\n      0x1750a3d0\n      eq\n      tag_4\n      jumpi\n      dup1\n      0x33b4097b\n      eq\n      tag_5\n      jumpi\n      dup1\n      0x74a9ced9\n      eq\n      tag_6\n      jumpi\n    tag_2:\n      0x00\n      dup1\n      revert\n        /* \"blockchain/practice/vote-app.sol\":3138:3225  function getPollCount() public view returns (uint) {... */\n    tag_3:\n      tag_12\n      tag_13\n      jump\t// in\n    tag_12:\n      mload(0x40)\n      tag_14\n      swap2\n      swap1\n      tag_15\n      jump\t// in\n    tag_14:\n      mload(0x40)\n      dup1\n      swap2\n      sub\n      swap1\n      return\n        /* \"blockchain/practice/vote-app.sol\":898:1145  function addCandidate(uint _pollId, string memory _name) public {... */\n    tag_4:\n      tag_16\n      0x04\n      dup1\n      calldatasize\n      sub\n      dup2\n      add\n      swap1\n      tag_17\n      swap2\n      swap1\n      tag_18\n      jump\t// in\n    tag_17:\n      tag_19\n      jump\t// in\n    tag_16:\n      stop\n        /* \"blockchain/practice/vote-app.sol\":2397:2857  function getPollResults(uint _pollId) public view returns (string[] memory names, uint[] memory votes) {... */\n    tag_5:\n      tag_20\n      0x04\n      dup1\n      calldatasize\n      sub\n      dup2\n      add\n      swap1\n      tag_21\n      swap2\n      swap1\n      tag_22\n      jump\t// in\n    tag_21:\n      tag_23\n      jump\t// in\n    tag_20:\n      mload(0x40)\n      tag_24\n      swap3\n      swap2\n      swap1\n      tag_25\n      jump\t// in\n    tag_24:\n      mload(0x40)\n      dup1\n      swap2\n      sub\n      swap1\n      return\n        /* \"blockchain/practice/vote-app.sol\":589:867  function createPoll(string memory _question) public {... */\n    tag_6:\n      tag_26\n      0x04\n      dup1\n      calldatasize\n      sub\n      dup2\n      add\n      swap1\n      tag_27\n      swap2\n      swap1\n      tag_28\n      jump\t// in\n    tag_27:\n      tag_29\n      jump\t// in\n    tag_26:\n      stop\n        /* \"blockchain/practice/vote-app.sol\":2898:3096  function getHasVoted(uint _pollId) public view returns (bool) {... */\n    tag_7:\n      tag_30\n      0x04\n      dup1\n      calldatasize\n      sub\n      dup2\n      add\n      swap1\n      tag_31\n      swap2\n      swap1\n      tag_22\n      jump\t// in\n    tag_31:\n      tag_32\n      jump\t// in\n    tag_30:\n      mload(0x40)\n      tag_33\n      swap2\n      swap1\n      tag_34\n      jump\t// in\n    tag_33:\n      mload(0x40)\n      dup1\n      swap2\n      sub\n      swap1\n      return\n        /* \"blockchain/practice/vote-app.sol\":1674:2363  function getAllPoll() public view returns (string[] memory questions, address[] memory owners, bool[] memory isActive, Candidate[][] memory candidates) {... */\n    tag_8:\n      tag_35\n      tag_36\n      jump\t// in\n    tag_35:\n      mload(0x40)\n      tag_37\n      swap5\n      swap4\n      swap3\n      swap2\n      swap1\n      tag_38\n      jump\t// in\n    tag_37:\n      mload(0x40)\n      dup1\n      swap2\n      sub\n      swap1\n      return\n        /* \"blockchain/practice/vote-app.sol\":440:459  Poll[] public polls */\n    tag_9:\n      tag_39\n      0x04\n      dup1\n      calldatasize\n      sub\n      dup2\n      add\n      swap1\n      tag_40\n      swap2\n      swap1\n      tag_22\n      jump\t// in\n    tag_40:\n      tag_41\n      jump\t// in\n    tag_39:\n      mload(0x40)\n      tag_42\n      swap4\n      swap3\n      swap2\n      swap1\n      tag_43\n      jump\t// in\n    tag_42:\n      mload(0x40)\n      dup1\n      swap2\n      sub\n      swap1\n      return\n        /* \"blockchain/practice/vote-app.sol\":1179:1669  function vote(uint _pollId, uint _candidateIndex) public {... */\n    tag_10:\n      tag_44\n      0x04\n      dup1\n      calldatasize\n      sub\n      dup2\n      add\n      swap1\n      tag_45\n      swap2\n      swap1\n      tag_46\n      jump\t// in\n    tag_45:\n      tag_47\n      jump\t// in\n    tag_44:\n      stop\n        /* \"blockchain/practice/vote-app.sol\":3138:3225  function getPollCount() public view returns (uint) {... */\n    tag_13:\n        /* \"blockchain/practice/vote-app.sol\":3183:3187  uint */\n      0x00\n        /* \"blockchain/practice/vote-app.sol\":3206:3211  polls */\n      dup1\n        /* \"blockchain/practice/vote-app.sol\":3206:3218  polls.length */\n      dup1\n      sload\n      swap1\n      pop\n        /* \"blockchain/practice/vote-app.sol\":3199:3218  return polls.length */\n      swap1\n      pop\n        /* \"blockchain/practice/vote-app.sol\":3138:3225  function getPollCount() public view returns (uint) {... */\n      swap1\n      jump\t// out\n        /* \"blockchain/practice/vote-app.sol\":898:1145  function addCandidate(uint _pollId, string memory _name) public {... */\n    tag_19:\n        /* \"blockchain/practice/vote-app.sol\":972:989  Poll storage poll */\n      0x00\n        /* \"blockchain/practice/vote-app.sol\":992:997  polls */\n      dup1\n        /* \"blockchain/practice/vote-app.sol\":998:1005  _pollId */\n      dup4\n        /* \"blockchain/practice/vote-app.sol\":992:1006  polls[_pollId] */\n      dup2\n      sload\n      dup2\n      lt\n      tag_50\n      jumpi\n      tag_51\n      tag_52\n      jump\t// in\n    tag_51:\n    tag_50:\n      swap1\n      0x00\n      mstore\n      keccak256(0x00, 0x20)\n      swap1\n      0x04\n      mul\n      add\n        /* \"blockchain/practice/vote-app.sol\":972:1006  Poll storage poll = polls[_pollId] */\n      swap1\n      pop\n        /* \"blockchain/practice/vote-app.sol\":1038:1042  poll */\n      dup1\n        /* \"blockchain/practice/vote-app.sol\":1038:1048  poll.owner */\n      0x03\n      add\n      0x00\n      swap1\n      sload\n      swap1\n      0x0100\n      exp\n      swap1\n      div\n      0xffffffffffffffffffffffffffffffffffffffff\n      and\n        /* \"blockchain/practice/vote-app.sol\":1024:1048  msg.sender == poll.owner */\n      0xffffffffffffffffffffffffffffffffffffffff\n      and\n        /* \"blockchain/practice/vote-app.sol\":1024:1034  msg.sender */\n      caller\n        /* \"blockchain/practice/vote-app.sol\":1024:1048  msg.sender == poll.owner */\n      0xffffffffffffffffffffffffffffffffffffffff\n      and\n      eq\n        /* \"blockchain/practice/vote-app.sol\":1016:1086  require(msg.sender == poll.owner, \"Only the owner can add candidates\") */\n      tag_54\n      jumpi\n      mload(0x40)\n      0x08c379a000000000000000000000000000000000000000000000000000000000\n      dup2\n      mstore\n      0x04\n      add\n      tag_55\n      swap1\n      tag_56\n      jump\t// in\n    tag_55:\n      mload(0x40)\n      dup1\n      swap2\n      sub\n      swap1\n      revert\n    tag_54:\n        /* \"blockchain/practice/vote-app.sol\":1096:1100  poll */\n      dup1\n        /* \"blockchain/practice/vote-app.sol\":1096:1111  poll.candidates */\n      0x01\n      add\n        /* \"blockchain/practice/vote-app.sol\":1117:1136  Candidate(_name, 0) */\n      mload(0x40)\n      dup1\n      0x40\n      add\n      0x40\n      mstore\n      dup1\n        /* \"blockchain/practice/vote-app.sol\":1127:1132  _name */\n      dup5\n        /* \"blockchain/practice/vote-app.sol\":1117:1136  Candidate(_name, 0) */\n      dup2\n      mstore\n      0x20\n      add\n        /* \"blockchain/practice/vote-app.sol\":1134:1135  0 */\n      0x00\n        /* \"blockchain/practice/vote-app.sol\":1117:1136  Candidate(_name, 0) */\n      dup2\n      mstore\n      pop\n        /* \"blockchain/practice/vote-app.sol\":1096:1137  poll.candidates.push(Candidate(_name, 0)) */\n      swap1\n      dup1\n      0x01\n      dup2\n      sload\n      add\n      dup1\n      dup3\n      sstore\n      dup1\n      swap2\n      pop\n      pop\n      0x01\n      swap1\n      sub\n      swap1\n      0x00\n      mstore\n      keccak256(0x00, 0x20)\n      swap1\n      0x02\n      mul\n      add\n      0x00\n      swap1\n      swap2\n      swap1\n      swap2\n      swap1\n      swap2\n      pop\n      0x00\n      dup3\n      add\n      mload\n      dup2\n      0x00\n      add\n      swap1\n      dup2\n      tag_58\n      swap2\n      swap1\n      tag_59\n      jump\t// in\n    tag_58:\n      pop\n      0x20\n      dup3\n      add\n      mload\n      dup2\n      0x01\n      add\n      sstore\n      pop\n      pop\n        /* \"blockchain/practice/vote-app.sol\":962:1145  {... */\n      pop\n        /* \"blockchain/practice/vote-app.sol\":898:1145  function addCandidate(uint _pollId, string memory _name) public {... */\n      pop\n      pop\n      jump\t// out\n        /* \"blockchain/practice/vote-app.sol\":2397:2857  function getPollResults(uint _pollId) public view returns (string[] memory names, uint[] memory votes) {... */\n    tag_23:\n        /* \"blockchain/practice/vote-app.sol\":2456:2477  string[] memory names */\n      0x60\n        /* \"blockchain/practice/vote-app.sol\":2479:2498  uint[] memory votes */\n      dup1\n        /* \"blockchain/practice/vote-app.sol\":2510:2527  Poll storage poll */\n      0x00\n        /* \"blockchain/practice/vote-app.sol\":2530:2535  polls */\n      dup1\n        /* \"blockchain/practice/vote-app.sol\":2536:2543  _pollId */\n      dup5\n        /* \"blockchain/practice/vote-app.sol\":2530:2544  polls[_pollId] */\n      dup2\n      sload\n      dup2\n      lt\n      tag_61\n      jumpi\n      tag_62\n      tag_52\n      jump\t// in\n    tag_62:\n    tag_61:\n      swap1\n      0x00\n      mstore\n      keccak256(0x00, 0x20)\n      swap1\n      0x04\n      mul\n      add\n        /* \"blockchain/practice/vote-app.sol\":2510:2544  Poll storage poll = polls[_pollId] */\n      swap1\n      pop\n        /* \"blockchain/practice/vote-app.sol\":2575:2579  poll */\n      dup1\n        /* \"blockchain/practice/vote-app.sol\":2575:2590  poll.candidates */\n      0x01\n      add\n        /* \"blockchain/practice/vote-app.sol\":2575:2597  poll.candidates.length */\n      dup1\n      sload\n      swap1\n      pop\n        /* \"blockchain/practice/vote-app.sol\":2562:2598  new string[](poll.candidates.length) */\n      0xffffffffffffffff\n      dup2\n      gt\n      iszero\n      tag_64\n      jumpi\n      tag_65\n      tag_66\n      jump\t// in\n    tag_65:\n    tag_64:\n      mload(0x40)\n      swap1\n      dup1\n      dup3\n      mstore\n      dup1\n      0x20\n      mul\n      0x20\n      add\n      dup3\n      add\n      0x40\n      mstore\n      dup1\n      iszero\n      tag_67\n      jumpi\n      dup2\n      0x20\n      add\n    tag_68:\n      0x60\n      dup2\n      mstore\n      0x20\n      add\n      swap1\n      0x01\n      swap1\n      sub\n      swap1\n      dup2\n      tag_68\n      jumpi\n      swap1\n      pop\n    tag_67:\n      pop\n        /* \"blockchain/practice/vote-app.sol\":2554:2598  names = new string[](poll.candidates.length) */\n      swap3\n      pop\n        /* \"blockchain/practice/vote-app.sol\":2627:2631  poll */\n      dup1\n        /* \"blockchain/practice/vote-app.sol\":2627:2642  poll.candidates */\n      0x01\n      add\n        /* \"blockchain/practice/vote-app.sol\":2627:2649  poll.candidates.length */\n      dup1\n      sload\n      swap1\n      pop\n        /* \"blockchain/practice/vote-app.sol\":2616:2650  new uint[](poll.candidates.length) */\n      0xffffffffffffffff\n      dup2\n      gt\n      iszero\n      tag_69\n      jumpi\n      tag_70\n      tag_66\n      jump\t// in\n    tag_70:\n    tag_69:\n      mload(0x40)\n      swap1\n      dup1\n      dup3\n      mstore\n      dup1\n      0x20\n      mul\n      0x20\n      add\n      dup3\n      add\n      0x40\n      mstore\n      dup1\n      iszero\n      tag_71\n      jumpi\n      dup2\n      0x20\n      add\n      0x20\n      dup3\n      mul\n      dup1\n      calldatasize\n      dup4\n      calldatacopy\n      dup1\n      dup3\n      add\n      swap2\n      pop\n      pop\n      swap1\n      pop\n    tag_71:\n      pop\n        /* \"blockchain/practice/vote-app.sol\":2608:2650  votes = new uint[](poll.candidates.length) */\n      swap2\n      pop\n        /* \"blockchain/practice/vote-app.sol\":2666:2672  uint i */\n      0x00\n        /* \"blockchain/practice/vote-app.sol\":2661:2820  for (uint i = 0; i < poll.candidates.length; i++) {... */\n    tag_72:\n        /* \"blockchain/practice/vote-app.sol\":2682:2686  poll */\n      dup2\n        /* \"blockchain/practice/vote-app.sol\":2682:2697  poll.candidates */\n      0x01\n      add\n        /* \"blockchain/practice/vote-app.sol\":2682:2704  poll.candidates.length */\n      dup1\n      sload\n      swap1\n      pop\n        /* \"blockchain/practice/vote-app.sol\":2678:2679  i */\n      dup2\n        /* \"blockchain/practice/vote-app.sol\":2678:2704  i < poll.candidates.length */\n      lt\n        /* \"blockchain/practice/vote-app.sol\":2661:2820  for (uint i = 0; i < poll.candidates.length; i++) {... */\n      iszero\n      tag_73\n      jumpi\n        /* \"blockchain/practice/vote-app.sol\":2736:2740  poll */\n      dup2\n        /* \"blockchain/practice/vote-app.sol\":2736:2751  poll.candidates */\n      0x01\n      add\n        /* \"blockchain/practice/vote-app.sol\":2752:2753  i */\n      dup2\n        /* \"blockchain/practice/vote-app.sol\":2736:2754  poll.candidates[i] */\n      dup2\n      sload\n      dup2\n      lt\n      tag_75\n      jumpi\n      tag_76\n      tag_52\n      jump\t// in\n    tag_76:\n    tag_75:\n      swap1\n      0x00\n      mstore\n      keccak256(0x00, 0x20)\n      swap1\n      0x02\n      mul\n      add\n        /* \"blockchain/practice/vote-app.sol\":2736:2759  poll.candidates[i].name */\n      0x00\n      add\n        /* \"blockchain/practice/vote-app.sol\":2725:2759  names[i] = poll.candidates[i].name */\n      dup1\n      sload\n      tag_78\n      swap1\n      tag_79\n      jump\t// in\n    tag_78:\n      dup1\n      0x1f\n      add\n      0x20\n      dup1\n      swap2\n      div\n      mul\n      0x20\n      add\n      mload(0x40)\n      swap1\n      dup2\n      add\n      0x40\n      mstore\n      dup1\n      swap3\n      swap2\n      swap1\n      dup2\n      dup2\n      mstore\n      0x20\n      add\n      dup3\n      dup1\n      sload\n      tag_80\n      swap1\n      tag_79\n      jump\t// in\n    tag_80:\n      dup1\n      iszero\n      tag_81\n      jumpi\n      dup1\n      0x1f\n      lt\n      tag_82\n      jumpi\n      0x0100\n      dup1\n      dup4\n      sload\n      div\n      mul\n      dup4\n      mstore\n      swap2\n      0x20\n      add\n      swap2\n      jump(tag_81)\n    tag_82:\n      dup3\n      add\n      swap2\n      swap1\n      0x00\n      mstore\n      keccak256(0x00, 0x20)\n      swap1\n    tag_83:\n      dup2\n      sload\n      dup2\n      mstore\n      swap1\n      0x01\n      add\n      swap1\n      0x20\n      add\n      dup1\n      dup4\n      gt\n      tag_83\n      jumpi\n      dup3\n      swap1\n      sub\n      0x1f\n      and\n      dup3\n      add\n      swap2\n    tag_81:\n      pop\n      pop\n      pop\n      pop\n      pop\n        /* \"blockchain/practice/vote-app.sol\":2725:2730  names */\n      dup5\n        /* \"blockchain/practice/vote-app.sol\":2731:2732  i */\n      dup3\n        /* \"blockchain/practice/vote-app.sol\":2725:2733  names[i] */\n      dup2\n      mload\n      dup2\n      lt\n      tag_84\n      jumpi\n      tag_85\n      tag_52\n      jump\t// in\n    tag_85:\n    tag_84:\n      0x20\n      mul\n      0x20\n      add\n      add\n        /* \"blockchain/practice/vote-app.sol\":2725:2759  names[i] = poll.candidates[i].name */\n      dup2\n      swap1\n      mstore\n      pop\n        /* \"blockchain/practice/vote-app.sol\":2784:2788  poll */\n      dup2\n        /* \"blockchain/practice/vote-app.sol\":2784:2799  poll.candidates */\n      0x01\n      add\n        /* \"blockchain/practice/vote-app.sol\":2800:2801  i */\n      dup2\n        /* \"blockchain/practice/vote-app.sol\":2784:2802  poll.candidates[i] */\n      dup2\n      sload\n      dup2\n      lt\n      tag_86\n      jumpi\n      tag_87\n      tag_52\n      jump\t// in\n    tag_87:\n    tag_86:\n      swap1\n      0x00\n      mstore\n      keccak256(0x00, 0x20)\n      swap1\n      0x02\n      mul\n      add\n        /* \"blockchain/practice/vote-app.sol\":2784:2809  poll.candidates[i].upVote */\n      0x01\n      add\n      sload\n        /* \"blockchain/practice/vote-app.sol\":2773:2778  votes */\n      dup4\n        /* \"blockchain/practice/vote-app.sol\":2779:2780  i */\n      dup3\n        /* \"blockchain/practice/vote-app.sol\":2773:2781  votes[i] */\n      dup2\n      mload\n      dup2\n      lt\n      tag_89\n      jumpi\n      tag_90\n      tag_52\n      jump\t// in\n    tag_90:\n    tag_89:\n      0x20\n      mul\n      0x20\n      add\n      add\n        /* \"blockchain/practice/vote-app.sol\":2773:2809  votes[i] = poll.candidates[i].upVote */\n      dup2\n      dup2\n      mstore\n      pop\n      pop\n        /* \"blockchain/practice/vote-app.sol\":2706:2709  i++ */\n      dup1\n      dup1\n      0x01\n      add\n      swap2\n      pop\n      pop\n        /* \"blockchain/practice/vote-app.sol\":2661:2820  for (uint i = 0; i < poll.candidates.length; i++) {... */\n      jump(tag_72)\n    tag_73:\n      pop\n        /* \"blockchain/practice/vote-app.sol\":2830:2850  return (names,votes) */\n      pop\n        /* \"blockchain/practice/vote-app.sol\":2397:2857  function getPollResults(uint _pollId) public view returns (string[] memory names, uint[] memory votes) {... */\n      swap2\n      pop\n      swap2\n      jump\t// out\n        /* \"blockchain/practice/vote-app.sol\":589:867  function createPoll(string memory _question) public {... */\n    tag_29:\n        /* \"blockchain/practice/vote-app.sol\":651:671  Poll storage newPoll */\n      0x00\n        /* \"blockchain/practice/vote-app.sol\":674:679  polls */\n      dup1\n        /* \"blockchain/practice/vote-app.sol\":674:686  polls.push() */\n      0x01\n      dup2\n      0x01\n      dup2\n      sload\n      add\n      dup1\n      dup3\n      sstore\n      dup1\n      swap2\n      pop\n      pop\n      sub\n      swap1\n      0x00\n      mstore\n      keccak256(0x00, 0x20)\n      swap1\n      0x04\n      mul\n      add\n        /* \"blockchain/practice/vote-app.sol\":651:686  Poll storage newPoll = polls.push() */\n      swap1\n      pop\n        /* \"blockchain/practice/vote-app.sol\":715:724  _question */\n      dup2\n        /* \"blockchain/practice/vote-app.sol\":696:703  newPoll */\n      dup2\n        /* \"blockchain/practice/vote-app.sol\":696:712  newPoll.question */\n      0x00\n      add\n        /* \"blockchain/practice/vote-app.sol\":696:724  newPoll.question = _question */\n      swap1\n      dup2\n      tag_93\n      swap2\n      swap1\n      tag_59\n      jump\t// in\n    tag_93:\n      pop\n        /* \"blockchain/practice/vote-app.sol\":750:760  msg.sender */\n      caller\n        /* \"blockchain/practice/vote-app.sol\":734:741  newPoll */\n      dup2\n        /* \"blockchain/practice/vote-app.sol\":734:747  newPoll.owner */\n      0x03\n      add\n      0x00\n        /* \"blockchain/practice/vote-app.sol\":734:760  newPoll.owner = msg.sender */\n      0x0100\n      exp\n      dup2\n      sload\n      dup2\n      0xffffffffffffffffffffffffffffffffffffffff\n      mul\n      not\n      and\n      swap1\n      dup4\n      0xffffffffffffffffffffffffffffffffffffffff\n      and\n      mul\n      or\n      swap1\n      sstore\n      pop\n        /* \"blockchain/practice/vote-app.sol\":789:793  true */\n      0x01\n        /* \"blockchain/practice/vote-app.sol\":770:777  newPoll */\n      dup2\n        /* \"blockchain/practice/vote-app.sol\":770:786  newPoll.isActive */\n      0x03\n      add\n      0x14\n        /* \"blockchain/practice/vote-app.sol\":770:793  newPoll.isActive = true */\n      0x0100\n      exp\n      dup2\n      sload\n      dup2\n      0xff\n      mul\n      not\n      and\n      swap1\n      dup4\n      iszero\n      iszero\n      mul\n      or\n      swap1\n      sstore\n      pop\n        /* \"blockchain/practice/vote-app.sol\":809:860  CreatePoll(polls.length - 1, _question, msg.sender) */\n      0xdcf7bcca1f330627a2b8cf6826aa79cefcda862ee183dabacd90516b6cd18443\n        /* \"blockchain/practice/vote-app.sol\":835:836  1 */\n      0x01\n        /* \"blockchain/practice/vote-app.sol\":820:825  polls */\n      0x00\n        /* \"blockchain/practice/vote-app.sol\":820:832  polls.length */\n      dup1\n      sload\n      swap1\n      pop\n        /* \"blockchain/practice/vote-app.sol\":820:836  polls.length - 1 */\n      tag_94\n      swap2\n      swap1\n      tag_95\n      jump\t// in\n    tag_94:\n        /* \"blockchain/practice/vote-app.sol\":838:847  _question */\n      dup4\n        /* \"blockchain/practice/vote-app.sol\":849:859  msg.sender */\n      caller\n        /* \"blockchain/practice/vote-app.sol\":809:860  CreatePoll(polls.length - 1, _question, msg.sender) */\n      mload(0x40)\n      tag_96\n      swap4\n      swap3\n      swap2\n      swap1\n      tag_97\n      jump\t// in\n    tag_96:\n      mload(0x40)\n      dup1\n      swap2\n      sub\n      swap1\n      log1\n        /* \"blockchain/practice/vote-app.sol\":641:867  {... */\n      pop\n        /* \"blockchain/practice/vote-app.sol\":589:867  function createPoll(string memory _question) public {... */\n      pop\n      jump\t// out\n        /* \"blockchain/practice/vote-app.sol\":2898:3096  function getHasVoted(uint _pollId) public view returns (bool) {... */\n    tag_32:\n        /* \"blockchain/practice/vote-app.sol\":2954:2958  bool */\n      0x00\n        /* \"blockchain/practice/vote-app.sol\":2970:2987  Poll storage poll */\n      dup1\n        /* \"blockchain/practice/vote-app.sol\":2990:2995  polls */\n      0x00\n        /* \"blockchain/practice/vote-app.sol\":2996:3003  _pollId */\n      dup4\n        /* \"blockchain/practice/vote-app.sol\":2990:3004  polls[_pollId] */\n      dup2\n      sload\n      dup2\n      lt\n      tag_99\n      jumpi\n      tag_100\n      tag_52\n      jump\t// in\n    tag_100:\n    tag_99:\n      swap1\n      0x00\n      mstore\n      keccak256(0x00, 0x20)\n      swap1\n      0x04\n      mul\n      add\n        /* \"blockchain/practice/vote-app.sol\":2970:3004  Poll storage poll = polls[_pollId] */\n      swap1\n      pop\n        /* \"blockchain/practice/vote-app.sol\":3021:3025  poll */\n      dup1\n        /* \"blockchain/practice/vote-app.sol\":3021:3032  poll.voters */\n      0x02\n      add\n        /* \"blockchain/practice/vote-app.sol\":3021:3044  poll.voters[msg.sender] */\n      0x00\n        /* \"blockchain/practice/vote-app.sol\":3033:3043  msg.sender */\n      caller\n        /* \"blockchain/practice/vote-app.sol\":3021:3044  poll.voters[msg.sender] */\n      0xffffffffffffffffffffffffffffffffffffffff\n      and\n      0xffffffffffffffffffffffffffffffffffffffff\n      and\n      dup2\n      mstore\n      0x20\n      add\n      swap1\n      dup2\n      mstore\n      0x20\n      add\n      0x00\n      keccak256\n        /* \"blockchain/practice/vote-app.sol\":3021:3052  poll.voters[msg.sender].isVoted */\n      0x00\n      add\n      0x00\n      swap1\n      sload\n      swap1\n      0x0100\n      exp\n      swap1\n      div\n      0xff\n      and\n        /* \"blockchain/practice/vote-app.sol\":3014:3052  return poll.voters[msg.sender].isVoted */\n      swap2\n      pop\n      pop\n        /* \"blockchain/practice/vote-app.sol\":2898:3096  function getHasVoted(uint _pollId) public view returns (bool) {... */\n      swap2\n      swap1\n      pop\n      jump\t// out\n        /* \"blockchain/practice/vote-app.sol\":1674:2363  function getAllPoll() public view returns (string[] memory questions, address[] memory owners, bool[] memory isActive, Candidate[][] memory candidates) {... */\n    tag_36:\n        /* \"blockchain/practice/vote-app.sol\":1717:1742  string[] memory questions */\n      0x60\n        /* \"blockchain/practice/vote-app.sol\":1744:1767  address[] memory owners */\n      dup1\n        /* \"blockchain/practice/vote-app.sol\":1769:1791  bool[] memory isActive */\n      0x60\n        /* \"blockchain/practice/vote-app.sol\":1793:1824  Candidate[][] memory candidates */\n      dup1\n        /* \"blockchain/practice/vote-app.sol\":1836:1853  uint256 pollCount */\n      0x00\n        /* \"blockchain/practice/vote-app.sol\":1856:1861  polls */\n      dup1\n        /* \"blockchain/practice/vote-app.sol\":1856:1868  polls.length */\n      dup1\n      sload\n      swap1\n      pop\n        /* \"blockchain/practice/vote-app.sol\":1836:1868  uint256 pollCount = polls.length */\n      swap1\n      pop\n        /* \"blockchain/practice/vote-app.sol\":1903:1912  pollCount */\n      dup1\n        /* \"blockchain/practice/vote-app.sol\":1890:1913  new string[](pollCount) */\n      0xffffffffffffffff\n      dup2\n      gt\n      iszero\n      tag_103\n      jumpi\n      tag_104\n      tag_66\n      jump\t// in\n    tag_104:\n    tag_103:\n      mload(0x40)\n      swap1\n      dup1\n      dup3\n      mstore\n      dup1\n      0x20\n      mul\n      0x20\n      add\n      dup3\n      add\n      0x40\n      mstore\n      dup1\n      iszero\n      tag_105\n      jumpi\n      dup2\n      0x20\n      add\n    tag_106:\n      0x60\n      dup2\n      mstore\n      0x20\n      add\n      swap1\n      0x01\n      swap1\n      sub\n      swap1\n      dup2\n      tag_106\n      jumpi\n      swap1\n      pop\n    tag_105:\n      pop\n        /* \"blockchain/practice/vote-app.sol\":1878:1913  questions = new string[](pollCount) */\n      swap5\n      pop\n        /* \"blockchain/practice/vote-app.sol\":1946:1955  pollCount */\n      dup1\n        /* \"blockchain/practice/vote-app.sol\":1932:1956  new address[](pollCount) */\n      0xffffffffffffffff\n      dup2\n      gt\n      iszero\n      tag_107\n      jumpi\n      tag_108\n      tag_66\n      jump\t// in\n    tag_108:\n    tag_107:\n      mload(0x40)\n      swap1\n      dup1\n      dup3\n      mstore\n      dup1\n      0x20\n      mul\n      0x20\n      add\n      dup3\n      add\n      0x40\n      mstore\n      dup1\n      iszero\n      tag_109\n      jumpi\n      dup2\n      0x20\n      add\n      0x20\n      dup3\n      mul\n      dup1\n      calldatasize\n      dup4\n      calldatacopy\n      dup1\n      dup3\n      add\n      swap2\n      pop\n      pop\n      swap1\n      pop\n    tag_109:\n      pop\n        /* \"blockchain/practice/vote-app.sol\":1923:1956  owners = new address[](pollCount) */\n      swap4\n      pop\n        /* \"blockchain/practice/vote-app.sol\":1988:1997  pollCount */\n      dup1\n        /* \"blockchain/practice/vote-app.sol\":1977:1998  new bool[](pollCount) */\n      0xffffffffffffffff\n      dup2\n      gt\n      iszero\n      tag_110\n      jumpi\n      tag_111\n      tag_66\n      jump\t// in\n    tag_111:\n    tag_110:\n      mload(0x40)\n      swap1\n      dup1\n      dup3\n      mstore\n      dup1\n      0x20\n      mul\n      0x20\n      add\n      dup3\n      add\n      0x40\n      mstore\n      dup1\n      iszero\n      tag_112\n      jumpi\n      dup2\n      0x20\n      add\n      0x20\n      dup3\n      mul\n      dup1\n      calldatasize\n      dup4\n      calldatacopy\n      dup1\n      dup3\n      add\n      swap2\n      pop\n      pop\n      swap1\n      pop\n    tag_112:\n      pop\n        /* \"blockchain/practice/vote-app.sol\":1966:1998  isActive = new bool[](pollCount) */\n      swap3\n      pop\n        /* \"blockchain/practice/vote-app.sol\":2039:2048  pollCount */\n      dup1\n        /* \"blockchain/practice/vote-app.sol\":2021:2049  new Candidate[][](pollCount) */\n      0xffffffffffffffff\n      dup2\n      gt\n      iszero\n      tag_113\n      jumpi\n      tag_114\n      tag_66\n      jump\t// in\n    tag_114:\n    tag_113:\n      mload(0x40)\n      swap1\n      dup1\n      dup3\n      mstore\n      dup1\n      0x20\n      mul\n      0x20\n      add\n      dup3\n      add\n      0x40\n      mstore\n      dup1\n      iszero\n      tag_115\n      jumpi\n      dup2\n      0x20\n      add\n    tag_116:\n      0x60\n      dup2\n      mstore\n      0x20\n      add\n      swap1\n      0x01\n      swap1\n      sub\n      swap1\n      dup2\n      tag_116\n      jumpi\n      swap1\n      pop\n    tag_115:\n      pop\n        /* \"blockchain/practice/vote-app.sol\":2008:2049  candidates = new Candidate[][](pollCount) */\n      swap2\n      pop\n        /* \"blockchain/practice/vote-app.sol\":2072:2081  uint256 i */\n      0x00\n        /* \"blockchain/practice/vote-app.sol\":2067:2300  for (uint256 i = 0; i < pollCount; i++) {... */\n    tag_117:\n        /* \"blockchain/practice/vote-app.sol\":2091:2100  pollCount */\n      dup2\n        /* \"blockchain/practice/vote-app.sol\":2087:2088  i */\n      dup2\n        /* \"blockchain/practice/vote-app.sol\":2087:2100  i < pollCount */\n      lt\n        /* \"blockchain/practice/vote-app.sol\":2067:2300  for (uint256 i = 0; i < pollCount; i++) {... */\n      iszero\n      tag_118\n      jumpi\n        /* \"blockchain/practice/vote-app.sol\":2136:2141  polls */\n      0x00\n        /* \"blockchain/practice/vote-app.sol\":2142:2143  i */\n      dup2\n        /* \"blockchain/practice/vote-app.sol\":2136:2144  polls[i] */\n      dup2\n      sload\n      dup2\n      lt\n      tag_120\n      jumpi\n      tag_121\n      tag_52\n      jump\t// in\n    tag_121:\n    tag_120:\n      swap1\n      0x00\n      mstore\n      keccak256(0x00, 0x20)\n      swap1\n      0x04\n      mul\n      add\n        /* \"blockchain/practice/vote-app.sol\":2136:2153  polls[i].question */\n      0x00\n      add\n        /* \"blockchain/practice/vote-app.sol\":2121:2153  questions[i] = polls[i].question */\n      dup1\n      sload\n      tag_123\n      swap1\n      tag_79\n      jump\t// in\n    tag_123:\n      dup1\n      0x1f\n      add\n      0x20\n      dup1\n      swap2\n      div\n      mul\n      0x20\n      add\n      mload(0x40)\n      swap1\n      dup2\n      add\n      0x40\n      mstore\n      dup1\n      swap3\n      swap2\n      swap1\n      dup2\n      dup2\n      mstore\n      0x20\n      add\n      dup3\n      dup1\n      sload\n      tag_124\n      swap1\n      tag_79\n      jump\t// in\n    tag_124:\n      dup1\n      iszero\n      tag_125\n      jumpi\n      dup1\n      0x1f\n      lt\n      tag_126\n      jumpi\n      0x0100\n      dup1\n      dup4\n      sload\n      div\n      mul\n      dup4\n      mstore\n      swap2\n      0x20\n      add\n      swap2\n      jump(tag_125)\n    tag_126:\n      dup3\n      add\n      swap2\n      swap1\n      0x00\n      mstore\n      keccak256(0x00, 0x20)\n      swap1\n    tag_127:\n      dup2\n      sload\n      dup2\n      mstore\n      swap1\n      0x01\n      add\n      swap1\n      0x20\n      add\n      dup1\n      dup4\n      gt\n      tag_127\n      jumpi\n      dup3\n      swap1\n      sub\n      0x1f\n      and\n      dup3\n      add\n      swap2\n    tag_125:\n      pop\n      pop\n      pop\n      pop\n      pop\n        /* \"blockchain/practice/vote-app.sol\":2121:2130  questions */\n      dup7\n        /* \"blockchain/practice/vote-app.sol\":2131:2132  i */\n      dup3\n        /* \"blockchain/practice/vote-app.sol\":2121:2133  questions[i] */\n      dup2\n      mload\n      dup2\n      lt\n      tag_128\n      jumpi\n      tag_129\n      tag_52\n      jump\t// in\n    tag_129:\n    tag_128:\n      0x20\n      mul\n      0x20\n      add\n      add\n        /* \"blockchain/practice/vote-app.sol\":2121:2153  questions[i] = polls[i].question */\n      dup2\n      swap1\n      mstore\n      pop\n        /* \"blockchain/practice/vote-app.sol\":2180:2185  polls */\n      0x00\n        /* \"blockchain/practice/vote-app.sol\":2186:2187  i */\n      dup2\n        /* \"blockchain/practice/vote-app.sol\":2180:2188  polls[i] */\n      dup2\n      sload\n      dup2\n      lt\n      tag_130\n      jumpi\n      tag_131\n      tag_52\n      jump\t// in\n    tag_131:\n    tag_130:\n      swap1\n      0x00\n      mstore\n      keccak256(0x00, 0x20)\n      swap1\n      0x04\n      mul\n      add\n        /* \"blockchain/practice/vote-app.sol\":2180:2194  polls[i].owner */\n      0x03\n      add\n      0x00\n      swap1\n      sload\n      swap1\n      0x0100\n      exp\n      swap1\n      div\n      0xffffffffffffffffffffffffffffffffffffffff\n      and\n        /* \"blockchain/practice/vote-app.sol\":2168:2174  owners */\n      dup6\n        /* \"blockchain/practice/vote-app.sol\":2175:2176  i */\n      dup3\n        /* \"blockchain/practice/vote-app.sol\":2168:2177  owners[i] */\n      dup2\n      mload\n      dup2\n      lt\n      tag_133\n      jumpi\n      tag_134\n      tag_52\n      jump\t// in\n    tag_134:\n    tag_133:\n      0x20\n      mul\n      0x20\n      add\n      add\n        /* \"blockchain/practice/vote-app.sol\":2168:2194  owners[i] = polls[i].owner */\n      swap1\n      0xffffffffffffffffffffffffffffffffffffffff\n      and\n      swap1\n      dup2\n      0xffffffffffffffffffffffffffffffffffffffff\n      and\n      dup2\n      mstore\n      pop\n      pop\n        /* \"blockchain/practice/vote-app.sol\":2223:2228  polls */\n      0x00\n        /* \"blockchain/practice/vote-app.sol\":2229:2230  i */\n      dup2\n        /* \"blockchain/practice/vote-app.sol\":2223:2231  polls[i] */\n      dup2\n      sload\n      dup2\n      lt\n      tag_135\n      jumpi\n      tag_136\n      tag_52\n      jump\t// in\n    tag_136:\n    tag_135:\n      swap1\n      0x00\n      mstore\n      keccak256(0x00, 0x20)\n      swap1\n      0x04\n      mul\n      add\n        /* \"blockchain/practice/vote-app.sol\":2223:2240  polls[i].isActive */\n      0x03\n      add\n      0x14\n      swap1\n      sload\n      swap1\n      0x0100\n      exp\n      swap1\n      div\n      0xff\n      and\n        /* \"blockchain/practice/vote-app.sol\":2209:2217  isActive */\n      dup5\n        /* \"blockchain/practice/vote-app.sol\":2218:2219  i */\n      dup3\n        /* \"blockchain/practice/vote-app.sol\":2209:2220  isActive[i] */\n      dup2\n      mload\n      dup2\n      lt\n      tag_138\n      jumpi\n      tag_139\n      tag_52\n      jump\t// in\n    tag_139:\n    tag_138:\n      0x20\n      mul\n      0x20\n      add\n      add\n        /* \"blockchain/practice/vote-app.sol\":2209:2240  isActive[i] = polls[i].isActive */\n      swap1\n      iszero\n      iszero\n      swap1\n      dup2\n      iszero\n      iszero\n      dup2\n      mstore\n      pop\n      pop\n        /* \"blockchain/practice/vote-app.sol\":2270:2275  polls */\n      0x00\n        /* \"blockchain/practice/vote-app.sol\":2276:2277  i */\n      dup2\n        /* \"blockchain/practice/vote-app.sol\":2270:2278  polls[i] */\n      dup2\n      sload\n      dup2\n      lt\n      tag_140\n      jumpi\n      tag_141\n      tag_52\n      jump\t// in\n    tag_141:\n    tag_140:\n      swap1\n      0x00\n      mstore\n      keccak256(0x00, 0x20)\n      swap1\n      0x04\n      mul\n      add\n        /* \"blockchain/practice/vote-app.sol\":2270:2289  polls[i].candidates */\n      0x01\n      add\n        /* \"blockchain/practice/vote-app.sol\":2254:2289  candidates[i] = polls[i].candidates */\n      dup1\n      sload\n      dup1\n      0x20\n      mul\n      0x20\n      add\n      mload(0x40)\n      swap1\n      dup2\n      add\n      0x40\n      mstore\n      dup1\n      swap3\n      swap2\n      swap1\n      dup2\n      dup2\n      mstore\n      0x20\n      add\n      0x00\n      swap1\n    tag_143:\n      dup3\n      dup3\n      lt\n      iszero\n      tag_144\n      jumpi\n      dup4\n      dup3\n      swap1\n      0x00\n      mstore\n      keccak256(0x00, 0x20)\n      swap1\n      0x02\n      mul\n      add\n      mload(0x40)\n      dup1\n      0x40\n      add\n      0x40\n      mstore\n      swap1\n      dup2\n      0x00\n      dup3\n      add\n      dup1\n      sload\n      tag_146\n      swap1\n      tag_79\n      jump\t// in\n    tag_146:\n      dup1\n      0x1f\n      add\n      0x20\n      dup1\n      swap2\n      div\n      mul\n      0x20\n      add\n      mload(0x40)\n      swap1\n      dup2\n      add\n      0x40\n      mstore\n      dup1\n      swap3\n      swap2\n      swap1\n      dup2\n      dup2\n      mstore\n      0x20\n      add\n      dup3\n      dup1\n      sload\n      tag_147\n      swap1\n      tag_79\n      jump\t// in\n    tag_147:\n      dup1\n      iszero\n      tag_148\n      jumpi\n      dup1\n      0x1f\n      lt\n      tag_149\n      jumpi\n      0x0100\n      dup1\n      dup4\n      sload\n      div\n      mul\n      dup4\n      mstore\n      swap2\n      0x20\n      add\n      swap2\n      jump(tag_148)\n    tag_149:\n      dup3\n      add\n      swap2\n      swap1\n      0x00\n      mstore\n      keccak256(0x00, 0x20)\n      swap1\n    tag_150:\n      dup2\n      sload\n      dup2\n      mstore\n      swap1\n      0x01\n      add\n      swap1\n      0x20\n      add\n      dup1\n      dup4\n      gt\n      tag_150\n      jumpi\n      dup3\n      swap1\n      sub\n      0x1f\n      and\n      dup3\n      add\n      swap2\n    tag_148:\n      pop\n      pop\n      pop\n      pop\n      pop\n      dup2\n      mstore\n      0x20\n      add\n      0x01\n      dup3\n      add\n      sload\n      dup2\n      mstore\n      pop\n      pop\n      dup2\n      mstore\n      0x20\n      add\n      swap1\n      0x01\n      add\n      swap1\n      jump(tag_143)\n    tag_144:\n      pop\n      pop\n      pop\n      pop\n        /* \"blockchain/practice/vote-app.sol\":2254:2264  candidates */\n      dup4\n        /* \"blockchain/practice/vote-app.sol\":2265:2266  i */\n      dup3\n        /* \"blockchain/practice/vote-app.sol\":2254:2267  candidates[i] */\n      dup2\n      mload\n      dup2\n      lt\n      tag_151\n      jumpi\n      tag_152\n      tag_52\n      jump\t// in\n    tag_152:\n    tag_151:\n      0x20\n      mul\n      0x20\n      add\n      add\n        /* \"blockchain/practice/vote-app.sol\":2254:2289  candidates[i] = polls[i].candidates */\n      dup2\n      swap1\n      mstore\n      pop\n        /* \"blockchain/practice/vote-app.sol\":2102:2105  i++ */\n      dup1\n      dup1\n      0x01\n      add\n      swap2\n      pop\n      pop\n        /* \"blockchain/practice/vote-app.sol\":2067:2300  for (uint256 i = 0; i < pollCount; i++) {... */\n      jump(tag_117)\n    tag_118:\n      pop\n        /* \"blockchain/practice/vote-app.sol\":2311:2359  return (questions, owners, isActive, candidates) */\n      pop\n        /* \"blockchain/practice/vote-app.sol\":1674:2363  function getAllPoll() public view returns (string[] memory questions, address[] memory owners, bool[] memory isActive, Candidate[][] memory candidates) {... */\n      swap1\n      swap2\n      swap3\n      swap4\n      jump\t// out\n        /* \"blockchain/practice/vote-app.sol\":440:459  Poll[] public polls */\n    tag_41:\n      0x00\n      dup2\n      dup2\n      sload\n      dup2\n      lt\n      tag_153\n      jumpi\n      0x00\n      dup1\n      revert\n    tag_153:\n      swap1\n      0x00\n      mstore\n      keccak256(0x00, 0x20)\n      swap1\n      0x04\n      mul\n      add\n      0x00\n      swap2\n      pop\n      swap1\n      pop\n      dup1\n      0x00\n      add\n      dup1\n      sload\n      tag_155\n      swap1\n      tag_79\n      jump\t// in\n    tag_155:\n      dup1\n      0x1f\n      add\n      0x20\n      dup1\n      swap2\n      div\n      mul\n      0x20\n      add\n      mload(0x40)\n      swap1\n      dup2\n      add\n      0x40\n      mstore\n      dup1\n      swap3\n      swap2\n      swap1\n      dup2\n      dup2\n      mstore\n      0x20\n      add\n      dup3\n      dup1\n      sload\n      tag_156\n      swap1\n      tag_79\n      jump\t// in\n    tag_156:\n      dup1\n      iszero\n      tag_157\n      jumpi\n      dup1\n      0x1f\n      lt\n      tag_158\n      jumpi\n      0x0100\n      dup1\n      dup4\n      sload\n      div\n      mul\n      dup4\n      mstore\n      swap2\n      0x20\n      add\n      swap2\n      jump(tag_157)\n    tag_158:\n      dup3\n      add\n      swap2\n      swap1\n      0x00\n      mstore\n      keccak256(0x00, 0x20)\n      swap1\n    tag_159:\n      dup2\n      sload\n      dup2\n      mstore\n      swap1\n      0x01\n      add\n      swap1\n      0x20\n      add\n      dup1\n      dup4\n      gt\n      tag_159\n      jumpi\n      dup3\n      swap1\n      sub\n      0x1f\n      and\n      dup3\n      add\n      swap2\n    tag_157:\n      pop\n      pop\n      pop\n      pop\n      pop\n      swap1\n      dup1\n      0x03\n      add\n      0x00\n      swap1\n      sload\n      swap1\n      0x0100\n      exp\n      swap1\n      div\n      0xffffffffffffffffffffffffffffffffffffffff\n      and\n      swap1\n      dup1\n      0x03\n      add\n      0x14\n      swap1\n      sload\n      swap1\n      0x0100\n      exp\n      swap1\n      div\n      0xff\n      and\n      swap1\n      pop\n      dup4\n      jump\t// out\n        /* \"blockchain/practice/vote-app.sol\":1179:1669  function vote(uint _pollId, uint _candidateIndex) public {... */\n    tag_47:\n        /* \"blockchain/practice/vote-app.sol\":1246:1263  Poll storage poll */\n      0x00\n        /* \"blockchain/practice/vote-app.sol\":1266:1271  polls */\n      dup1\n        /* \"blockchain/practice/vote-app.sol\":1272:1279  _pollId */\n      dup4\n        /* \"blockchain/practice/vote-app.sol\":1266:1280  polls[_pollId] */\n      dup2\n      sload\n      dup2\n      lt\n      tag_161\n      jumpi\n      tag_162\n      tag_52\n      jump\t// in\n    tag_162:\n    tag_161:\n      swap1\n      0x00\n      mstore\n      keccak256(0x00, 0x20)\n      swap1\n      0x04\n      mul\n      add\n        /* \"blockchain/practice/vote-app.sol\":1246:1280  Poll storage poll = polls[_pollId] */\n      swap1\n      pop\n        /* \"blockchain/practice/vote-app.sol\":1298:1302  poll */\n      dup1\n        /* \"blockchain/practice/vote-app.sol\":1298:1311  poll.isActive */\n      0x03\n      add\n      0x14\n      swap1\n      sload\n      swap1\n      0x0100\n      exp\n      swap1\n      div\n      0xff\n      and\n        /* \"blockchain/practice/vote-app.sol\":1290:1334  require(poll.isActive, \"Poll is not active\") */\n      tag_164\n      jumpi\n      mload(0x40)\n      0x08c379a000000000000000000000000000000000000000000000000000000000\n      dup2\n      mstore\n      0x04\n      add\n      tag_165\n      swap1\n      tag_166\n      jump\t// in\n    tag_165:\n      mload(0x40)\n      dup1\n      swap2\n      sub\n      swap1\n      revert\n    tag_164:\n        /* \"blockchain/practice/vote-app.sol\":1353:1357  poll */\n      dup1\n        /* \"blockchain/practice/vote-app.sol\":1353:1364  poll.voters */\n      0x02\n      add\n        /* \"blockchain/practice/vote-app.sol\":1353:1376  poll.voters[msg.sender] */\n      0x00\n        /* \"blockchain/practice/vote-app.sol\":1365:1375  msg.sender */\n      caller\n        /* \"blockchain/practice/vote-app.sol\":1353:1376  poll.voters[msg.sender] */\n      0xffffffffffffffffffffffffffffffffffffffff\n      and\n      0xffffffffffffffffffffffffffffffffffffffff\n      and\n      dup2\n      mstore\n      0x20\n      add\n      swap1\n      dup2\n      mstore\n      0x20\n      add\n      0x00\n      keccak256\n        /* \"blockchain/practice/vote-app.sol\":1353:1384  poll.voters[msg.sender].isVoted */\n      0x00\n      add\n      0x00\n      swap1\n      sload\n      swap1\n      0x0100\n      exp\n      swap1\n      div\n      0xff\n      and\n        /* \"blockchain/practice/vote-app.sol\":1352:1384  !poll.voters[msg.sender].isVoted */\n      iszero\n        /* \"blockchain/practice/vote-app.sol\":1344:1411  require(!poll.voters[msg.sender].isVoted, \"You have already voted\") */\n      tag_167\n      jumpi\n      mload(0x40)\n      0x08c379a000000000000000000000000000000000000000000000000000000000\n      dup2\n      mstore\n      0x04\n      add\n      tag_168\n      swap1\n      tag_169\n      jump\t// in\n    tag_168:\n      mload(0x40)\n      dup1\n      swap2\n      sub\n      swap1\n      revert\n    tag_167:\n        /* \"blockchain/practice/vote-app.sol\":1447:1451  poll */\n      dup1\n        /* \"blockchain/practice/vote-app.sol\":1447:1462  poll.candidates */\n      0x01\n      add\n        /* \"blockchain/practice/vote-app.sol\":1447:1469  poll.candidates.length */\n      dup1\n      sload\n      swap1\n      pop\n        /* \"blockchain/practice/vote-app.sol\":1429:1444  _candidateIndex */\n      dup3\n        /* \"blockchain/practice/vote-app.sol\":1429:1469  _candidateIndex < poll.candidates.length */\n      lt\n        /* \"blockchain/practice/vote-app.sol\":1421:1497  require(_candidateIndex < poll.candidates.length, \"Invalid candidate index\") */\n      tag_170\n      jumpi\n      mload(0x40)\n      0x08c379a000000000000000000000000000000000000000000000000000000000\n      dup2\n      mstore\n      0x04\n      add\n      tag_171\n      swap1\n      tag_172\n      jump\t// in\n    tag_171:\n      mload(0x40)\n      dup1\n      swap2\n      sub\n      swap1\n      revert\n    tag_170:\n        /* \"blockchain/practice/vote-app.sol\":1542:1546  true */\n      0x01\n        /* \"blockchain/practice/vote-app.sol\":1508:1512  poll */\n      dup2\n        /* \"blockchain/practice/vote-app.sol\":1508:1519  poll.voters */\n      0x02\n      add\n        /* \"blockchain/practice/vote-app.sol\":1508:1531  poll.voters[msg.sender] */\n      0x00\n        /* \"blockchain/practice/vote-app.sol\":1520:1530  msg.sender */\n      caller\n        /* \"blockchain/practice/vote-app.sol\":1508:1531  poll.voters[msg.sender] */\n      0xffffffffffffffffffffffffffffffffffffffff\n      and\n      0xffffffffffffffffffffffffffffffffffffffff\n      and\n      dup2\n      mstore\n      0x20\n      add\n      swap1\n      dup2\n      mstore\n      0x20\n      add\n      0x00\n      keccak256\n        /* \"blockchain/practice/vote-app.sol\":1508:1539  poll.voters[msg.sender].isVoted */\n      0x00\n      add\n      0x00\n        /* \"blockchain/practice/vote-app.sol\":1508:1546  poll.voters[msg.sender].isVoted = true */\n      0x0100\n      exp\n      dup2\n      sload\n      dup2\n      0xff\n      mul\n      not\n      and\n      swap1\n      dup4\n      iszero\n      iszero\n      mul\n      or\n      swap1\n      sstore\n      pop\n        /* \"blockchain/practice/vote-app.sol\":1580:1584  poll */\n      dup1\n        /* \"blockchain/practice/vote-app.sol\":1580:1595  poll.candidates */\n      0x01\n      add\n        /* \"blockchain/practice/vote-app.sol\":1596:1611  _candidateIndex */\n      dup3\n        /* \"blockchain/practice/vote-app.sol\":1580:1612  poll.candidates[_candidateIndex] */\n      dup2\n      sload\n      dup2\n      lt\n      tag_173\n      jumpi\n      tag_174\n      tag_52\n      jump\t// in\n    tag_174:\n    tag_173:\n      swap1\n      0x00\n      mstore\n      keccak256(0x00, 0x20)\n      swap1\n      0x02\n      mul\n      add\n        /* \"blockchain/practice/vote-app.sol\":1580:1619  poll.candidates[_candidateIndex].upVote */\n      0x01\n      add\n      0x00\n        /* \"blockchain/practice/vote-app.sol\":1580:1621  poll.candidates[_candidateIndex].upVote++ */\n      dup2\n      sload\n      dup1\n      swap3\n      swap2\n      swap1\n      tag_176\n      swap1\n      tag_177\n      jump\t// in\n    tag_176:\n      swap2\n      swap1\n      pop\n      sstore\n      pop\n        /* \"blockchain/practice/vote-app.sol\":1236:1669  {... */\n      pop\n        /* \"blockchain/practice/vote-app.sol\":1179:1669  function vote(uint _pollId, uint _candidateIndex) public {... */\n      pop\n      pop\n      jump\t// out\n        /* \"#utility.yul\":7:84   */\n    tag_178:\n        /* \"#utility.yul\":44:51   */\n      0x00\n        /* \"#utility.yul\":73:78   */\n      dup2\n        /* \"#utility.yul\":62:78   */\n      swap1\n      pop\n        /* \"#utility.yul\":7:84   */\n      swap2\n      swap1\n      pop\n      jump\t// out\n        /* \"#utility.yul\":90:208   */\n    tag_179:\n        /* \"#utility.yul\":177:201   */\n      tag_273\n        /* \"#utility.yul\":195:200   */\n      dup2\n        /* \"#utility.yul\":177:201   */\n      tag_178\n      jump\t// in\n    tag_273:\n        /* \"#utility.yul\":172:175   */\n      dup3\n        /* \"#utility.yul\":165:202   */\n      mstore\n        /* \"#utility.yul\":90:208   */\n      pop\n      pop\n      jump\t// out\n        /* \"#utility.yul\":214:436   */\n    tag_15:\n        /* \"#utility.yul\":307:311   */\n      0x00\n        /* \"#utility.yul\":345:347   */\n      0x20\n        /* \"#utility.yul\":334:343   */\n      dup3\n        /* \"#utility.yul\":330:348   */\n      add\n        /* \"#utility.yul\":322:348   */\n      swap1\n      pop\n        /* \"#utility.yul\":358:429   */\n      tag_275\n        /* \"#utility.yul\":426:427   */\n      0x00\n        /* \"#utility.yul\":415:424   */\n      dup4\n        /* \"#utility.yul\":411:428   */\n      add\n        /* \"#utility.yul\":402:408   */\n      dup5\n        /* \"#utility.yul\":358:429   */\n      tag_179\n      jump\t// in\n    tag_275:\n        /* \"#utility.yul\":214:436   */\n      swap3\n      swap2\n      pop\n      pop\n      jump\t// out\n        /* \"#utility.yul\":442:517   */\n    tag_180:\n        /* \"#utility.yul\":475:481   */\n      0x00\n        /* \"#utility.yul\":508:510   */\n      0x40\n        /* \"#utility.yul\":502:511   */\n      mload\n        /* \"#utility.yul\":492:511   */\n      swap1\n      pop\n        /* \"#utility.yul\":442:517   */\n      swap1\n      jump\t// out\n        /* \"#utility.yul\":523:640   */\n    tag_181:\n        /* \"#utility.yul\":632:633   */\n      0x00\n        /* \"#utility.yul\":629:630   */\n      dup1\n        /* \"#utility.yul\":622:634   */\n      revert\n        /* \"#utility.yul\":646:763   */\n    tag_182:\n        /* \"#utility.yul\":755:756   */\n      0x00\n        /* \"#utility.yul\":752:753   */\n      dup1\n        /* \"#utility.yul\":745:757   */\n      revert\n        /* \"#utility.yul\":769:891   */\n    tag_183:\n        /* \"#utility.yul\":842:866   */\n      tag_280\n        /* \"#utility.yul\":860:865   */\n      dup2\n        /* \"#utility.yul\":842:866   */\n      tag_178\n      jump\t// in\n    tag_280:\n        /* \"#utility.yul\":835:840   */\n      dup2\n        /* \"#utility.yul\":832:867   */\n      eq\n        /* \"#utility.yul\":822:885   */\n      tag_281\n      jumpi\n        /* \"#utility.yul\":881:882   */\n      0x00\n        /* \"#utility.yul\":878:879   */\n      dup1\n        /* \"#utility.yul\":871:883   */\n      revert\n        /* \"#utility.yul\":822:885   */\n    tag_281:\n        /* \"#utility.yul\":769:891   */\n      pop\n      jump\t// out\n        /* \"#utility.yul\":897:1036   */\n    tag_184:\n        /* \"#utility.yul\":943:948   */\n      0x00\n        /* \"#utility.yul\":981:987   */\n      dup2\n        /* \"#utility.yul\":968:988   */\n      calldataload\n        /* \"#utility.yul\":959:988   */\n      swap1\n      pop\n        /* \"#utility.yul\":997:1030   */\n      tag_283\n        /* \"#utility.yul\":1024:1029   */\n      dup2\n        /* \"#utility.yul\":997:1030   */\n      tag_183\n      jump\t// in\n    tag_283:\n        /* \"#utility.yul\":897:1036   */\n      swap3\n      swap2\n      pop\n      pop\n      jump\t// out\n        /* \"#utility.yul\":1042:1159   */\n    tag_185:\n        /* \"#utility.yul\":1151:1152   */\n      0x00\n        /* \"#utility.yul\":1148:1149   */\n      dup1\n        /* \"#utility.yul\":1141:1153   */\n      revert\n        /* \"#utility.yul\":1165:1282   */\n    tag_186:\n        /* \"#utility.yul\":1274:1275   */\n      0x00\n        /* \"#utility.yul\":1271:1272   */\n      dup1\n        /* \"#utility.yul\":1264:1276   */\n      revert\n        /* \"#utility.yul\":1288:1390   */\n    tag_187:\n        /* \"#utility.yul\":1329:1335   */\n      0x00\n        /* \"#utility.yul\":1380:1382   */\n      0x1f\n        /* \"#utility.yul\":1376:1383   */\n      not\n        /* \"#utility.yul\":1371:1373   */\n      0x1f\n        /* \"#utility.yul\":1364:1369   */\n      dup4\n        /* \"#utility.yul\":1360:1374   */\n      add\n        /* \"#utility.yul\":1356:1384   */\n      and\n        /* \"#utility.yul\":1346:1384   */\n      swap1\n      pop\n        /* \"#utility.yul\":1288:1390   */\n      swap2\n      swap1\n      pop\n      jump\t// out\n        /* \"#utility.yul\":1396:1576   */\n    tag_66:\n        /* \"#utility.yul\":1444:1521   */\n      0x4e487b7100000000000000000000000000000000000000000000000000000000\n        /* \"#utility.yul\":1441:1442   */\n      0x00\n        /* \"#utility.yul\":1434:1522   */\n      mstore\n        /* \"#utility.yul\":1541:1545   */\n      0x41\n        /* \"#utility.yul\":1538:1539   */\n      0x04\n        /* \"#utility.yul\":1531:1546   */\n      mstore\n        /* \"#utility.yul\":1565:1569   */\n      0x24\n        /* \"#utility.yul\":1562:1563   */\n      0x00\n        /* \"#utility.yul\":1555:1570   */\n      revert\n        /* \"#utility.yul\":1582:1863   */\n    tag_188:\n        /* \"#utility.yul\":1665:1692   */\n      tag_289\n        /* \"#utility.yul\":1687:1691   */\n      dup3\n        /* \"#utility.yul\":1665:1692   */\n      tag_187\n      jump\t// in\n    tag_289:\n        /* \"#utility.yul\":1657:1663   */\n      dup2\n        /* \"#utility.yul\":1653:1693   */\n      add\n        /* \"#utility.yul\":1795:1801   */\n      dup2\n        /* \"#utility.yul\":1783:1793   */\n      dup2\n        /* \"#utility.yul\":1780:1802   */\n      lt\n        /* \"#utility.yul\":1759:1777   */\n      0xffffffffffffffff\n        /* \"#utility.yul\":1747:1757   */\n      dup3\n        /* \"#utility.yul\":1744:1778   */\n      gt\n        /* \"#utility.yul\":1741:1803   */\n      or\n        /* \"#utility.yul\":1738:1826   */\n      iszero\n      tag_290\n      jumpi\n        /* \"#utility.yul\":1806:1824   */\n      tag_291\n      tag_66\n      jump\t// in\n    tag_291:\n        /* \"#utility.yul\":1738:1826   */\n    tag_290:\n        /* \"#utility.yul\":1846:1856   */\n      dup1\n        /* \"#utility.yul\":1842:1844   */\n      0x40\n        /* \"#utility.yul\":1835:1857   */\n      mstore\n        /* \"#utility.yul\":1625:1863   */\n      pop\n        /* \"#utility.yul\":1582:1863   */\n      pop\n      pop\n      jump\t// out\n        /* \"#utility.yul\":1869:1998   */\n    tag_189:\n        /* \"#utility.yul\":1903:1909   */\n      0x00\n        /* \"#utility.yul\":1930:1950   */\n      tag_293\n      tag_180\n      jump\t// in\n    tag_293:\n        /* \"#utility.yul\":1920:1950   */\n      swap1\n      pop\n        /* \"#utility.yul\":1959:1992   */\n      tag_294\n        /* \"#utility.yul\":1987:1991   */\n      dup3\n        /* \"#utility.yul\":1979:1985   */\n      dup3\n        /* \"#utility.yul\":1959:1992   */\n      tag_188\n      jump\t// in\n    tag_294:\n        /* \"#utility.yul\":1869:1998   */\n      swap2\n      swap1\n      pop\n      jump\t// out\n        /* \"#utility.yul\":2004:2312   */\n    tag_190:\n        /* \"#utility.yul\":2066:2070   */\n      0x00\n        /* \"#utility.yul\":2156:2174   */\n      0xffffffffffffffff\n        /* \"#utility.yul\":2148:2154   */\n      dup3\n        /* \"#utility.yul\":2145:2175   */\n      gt\n        /* \"#utility.yul\":2142:2198   */\n      iszero\n      tag_296\n      jumpi\n        /* \"#utility.yul\":2178:2196   */\n      tag_297\n      tag_66\n      jump\t// in\n    tag_297:\n        /* \"#utility.yul\":2142:2198   */\n    tag_296:\n        /* \"#utility.yul\":2216:2245   */\n      tag_298\n        /* \"#utility.yul\":2238:2244   */\n      dup3\n        /* \"#utility.yul\":2216:2245   */\n      tag_187\n      jump\t// in\n    tag_298:\n        /* \"#utility.yul\":2208:2245   */\n      swap1\n      pop\n        /* \"#utility.yul\":2300:2304   */\n      0x20\n        /* \"#utility.yul\":2294:2298   */\n      dup2\n        /* \"#utility.yul\":2290:2305   */\n      add\n        /* \"#utility.yul\":2282:2305   */\n      swap1\n      pop\n        /* \"#utility.yul\":2004:2312   */\n      swap2\n      swap1\n      pop\n      jump\t// out\n        /* \"#utility.yul\":2318:2466   */\n    tag_191:\n        /* \"#utility.yul\":2416:2422   */\n      dup3\n        /* \"#utility.yul\":2411:2414   */\n      dup2\n        /* \"#utility.yul\":2406:2409   */\n      dup4\n        /* \"#utility.yul\":2393:2423   */\n      calldatacopy\n        /* \"#utility.yul\":2457:2458   */\n      0x00\n        /* \"#utility.yul\":2448:2454   */\n      dup4\n        /* \"#utility.yul\":2443:2446   */\n      dup4\n        /* \"#utility.yul\":2439:2455   */\n      add\n        /* \"#utility.yul\":2432:2459   */\n      mstore\n        /* \"#utility.yul\":2318:2466   */\n      pop\n      pop\n      pop\n      jump\t// out\n        /* \"#utility.yul\":2472:2897   */\n    tag_192:\n        /* \"#utility.yul\":2550:2555   */\n      0x00\n        /* \"#utility.yul\":2575:2641   */\n      tag_301\n        /* \"#utility.yul\":2591:2640   */\n      tag_302\n        /* \"#utility.yul\":2633:2639   */\n      dup5\n        /* \"#utility.yul\":2591:2640   */\n      tag_190\n      jump\t// in\n    tag_302:\n        /* \"#utility.yul\":2575:2641   */\n      tag_189\n      jump\t// in\n    tag_301:\n        /* \"#utility.yul\":2566:2641   */\n      swap1\n      pop\n        /* \"#utility.yul\":2664:2670   */\n      dup3\n        /* \"#utility.yul\":2657:2662   */\n      dup2\n        /* \"#utility.yul\":2650:2671   */\n      mstore\n        /* \"#utility.yul\":2702:2706   */\n      0x20\n        /* \"#utility.yul\":2695:2700   */\n      dup2\n        /* \"#utility.yul\":2691:2707   */\n      add\n        /* \"#utility.yul\":2740:2743   */\n      dup5\n        /* \"#utility.yul\":2731:2737   */\n      dup5\n        /* \"#utility.yul\":2726:2729   */\n      dup5\n        /* \"#utility.yul\":2722:2738   */\n      add\n        /* \"#utility.yul\":2719:2744   */\n      gt\n        /* \"#utility.yul\":2716:2828   */\n      iszero\n      tag_303\n      jumpi\n        /* \"#utility.yul\":2747:2826   */\n      tag_304\n      tag_186\n      jump\t// in\n    tag_304:\n        /* \"#utility.yul\":2716:2828   */\n    tag_303:\n        /* \"#utility.yul\":2837:2891   */\n      tag_305\n        /* \"#utility.yul\":2884:2890   */\n      dup5\n        /* \"#utility.yul\":2879:2882   */\n      dup3\n        /* \"#utility.yul\":2874:2877   */\n      dup6\n        /* \"#utility.yul\":2837:2891   */\n      tag_191\n      jump\t// in\n    tag_305:\n        /* \"#utility.yul\":2556:2897   */\n      pop\n        /* \"#utility.yul\":2472:2897   */\n      swap4\n      swap3\n      pop\n      pop\n      pop\n      jump\t// out\n        /* \"#utility.yul\":2917:3257   */\n    tag_193:\n        /* \"#utility.yul\":2973:2978   */\n      0x00\n        /* \"#utility.yul\":3022:3025   */\n      dup3\n        /* \"#utility.yul\":3015:3019   */\n      0x1f\n        /* \"#utility.yul\":3007:3013   */\n      dup4\n        /* \"#utility.yul\":3003:3020   */\n      add\n        /* \"#utility.yul\":2999:3026   */\n      slt\n        /* \"#utility.yul\":2989:3111   */\n      tag_307\n      jumpi\n        /* \"#utility.yul\":3030:3109   */\n      tag_308\n      tag_185\n      jump\t// in\n    tag_308:\n        /* \"#utility.yul\":2989:3111   */\n    tag_307:\n        /* \"#utility.yul\":3147:3153   */\n      dup2\n        /* \"#utility.yul\":3134:3154   */\n      calldataload\n        /* \"#utility.yul\":3172:3251   */\n      tag_309\n        /* \"#utility.yul\":3247:3250   */\n      dup5\n        /* \"#utility.yul\":3239:3245   */\n      dup3\n        /* \"#utility.yul\":3232:3236   */\n      0x20\n        /* \"#utility.yul\":3224:3230   */\n      dup7\n        /* \"#utility.yul\":3220:3237   */\n      add\n        /* \"#utility.yul\":3172:3251   */\n      tag_192\n      jump\t// in\n    tag_309:\n        /* \"#utility.yul\":3163:3251   */\n      swap2\n      pop\n        /* \"#utility.yul\":2979:3257   */\n      pop\n        /* \"#utility.yul\":2917:3257   */\n      swap3\n      swap2\n      pop\n      pop\n      jump\t// out\n        /* \"#utility.yul\":3263:3917   */\n    tag_18:\n        /* \"#utility.yul\":3341:3347   */\n      0x00\n        /* \"#utility.yul\":3349:3355   */\n      dup1\n        /* \"#utility.yul\":3398:3400   */\n      0x40\n        /* \"#utility.yul\":3386:3395   */\n      dup4\n        /* \"#utility.yul\":3377:3384   */\n      dup6\n        /* \"#utility.yul\":3373:3396   */\n      sub\n        /* \"#utility.yul\":3369:3401   */\n      slt\n        /* \"#utility.yul\":3366:3485   */\n      iszero\n      tag_311\n      jumpi\n        /* \"#utility.yul\":3404:3483   */\n      tag_312\n      tag_181\n      jump\t// in\n    tag_312:\n        /* \"#utility.yul\":3366:3485   */\n    tag_311:\n        /* \"#utility.yul\":3524:3525   */\n      0x00\n        /* \"#utility.yul\":3549:3602   */\n      tag_313\n        /* \"#utility.yul\":3594:3601   */\n      dup6\n        /* \"#utility.yul\":3585:3591   */\n      dup3\n        /* \"#utility.yul\":3574:3583   */\n      dup7\n        /* \"#utility.yul\":3570:3592   */\n      add\n        /* \"#utility.yul\":3549:3602   */\n      tag_184\n      jump\t// in\n    tag_313:\n        /* \"#utility.yul\":3539:3602   */\n      swap3\n      pop\n        /* \"#utility.yul\":3495:3612   */\n      pop\n        /* \"#utility.yul\":3679:3681   */\n      0x20\n        /* \"#utility.yul\":3668:3677   */\n      dup4\n        /* \"#utility.yul\":3664:3682   */\n      add\n        /* \"#utility.yul\":3651:3683   */\n      calldataload\n        /* \"#utility.yul\":3710:3728   */\n      0xffffffffffffffff\n        /* \"#utility.yul\":3702:3708   */\n      dup2\n        /* \"#utility.yul\":3699:3729   */\n      gt\n        /* \"#utility.yul\":3696:3813   */\n      iszero\n      tag_314\n      jumpi\n        /* \"#utility.yul\":3732:3811   */\n      tag_315\n      tag_182\n      jump\t// in\n    tag_315:\n        /* \"#utility.yul\":3696:3813   */\n    tag_314:\n        /* \"#utility.yul\":3837:3900   */\n      tag_316\n        /* \"#utility.yul\":3892:3899   */\n      dup6\n        /* \"#utility.yul\":3883:3889   */\n      dup3\n        /* \"#utility.yul\":3872:3881   */\n      dup7\n        /* \"#utility.yul\":3868:3890   */\n      add\n        /* \"#utility.yul\":3837:3900   */\n      tag_193\n      jump\t// in\n    tag_316:\n        /* \"#utility.yul\":3827:3900   */\n      swap2\n      pop\n        /* \"#utility.yul\":3622:3910   */\n      pop\n        /* \"#utility.yul\":3263:3917   */\n      swap3\n      pop\n      swap3\n      swap1\n      pop\n      jump\t// out\n        /* \"#utility.yul\":3923:4252   */\n    tag_22:\n        /* \"#utility.yul\":3982:3988   */\n      0x00\n        /* \"#utility.yul\":4031:4033   */\n      0x20\n        /* \"#utility.yul\":4019:4028   */\n      dup3\n        /* \"#utility.yul\":4010:4017   */\n      dup5\n        /* \"#utility.yul\":4006:4029   */\n      sub\n        /* \"#utility.yul\":4002:4034   */\n      slt\n        /* \"#utility.yul\":3999:4118   */\n      iszero\n      tag_318\n      jumpi\n        /* \"#utility.yul\":4037:4116   */\n      tag_319\n      tag_181\n      jump\t// in\n    tag_319:\n        /* \"#utility.yul\":3999:4118   */\n    tag_318:\n        /* \"#utility.yul\":4157:4158   */\n      0x00\n        /* \"#utility.yul\":4182:4235   */\n      tag_320\n        /* \"#utility.yul\":4227:4234   */\n      dup5\n        /* \"#utility.yul\":4218:4224   */\n      dup3\n        /* \"#utility.yul\":4207:4216   */\n      dup6\n        /* \"#utility.yul\":4203:4225   */\n      add\n        /* \"#utility.yul\":4182:4235   */\n      tag_184\n      jump\t// in\n    tag_320:\n        /* \"#utility.yul\":4172:4235   */\n      swap2\n      pop\n        /* \"#utility.yul\":4128:4245   */\n      pop\n        /* \"#utility.yul\":3923:4252   */\n      swap3\n      swap2\n      pop\n      pop\n      jump\t// out\n        /* \"#utility.yul\":4258:4382   */\n    tag_194:\n        /* \"#utility.yul\":4335:4341   */\n      0x00\n        /* \"#utility.yul\":4369:4374   */\n      dup2\n        /* \"#utility.yul\":4363:4375   */\n      mload\n        /* \"#utility.yul\":4353:4375   */\n      swap1\n      pop\n        /* \"#utility.yul\":4258:4382   */\n      swap2\n      swap1\n      pop\n      jump\t// out\n        /* \"#utility.yul\":4388:4582   */\n    tag_195:\n        /* \"#utility.yul\":4497:4508   */\n      0x00\n        /* \"#utility.yul\":4531:4537   */\n      dup3\n        /* \"#utility.yul\":4526:4529   */\n      dup3\n        /* \"#utility.yul\":4519:4538   */\n      mstore\n        /* \"#utility.yul\":4571:4575   */\n      0x20\n        /* \"#utility.yul\":4566:4569   */\n      dup3\n        /* \"#utility.yul\":4562:4576   */\n      add\n        /* \"#utility.yul\":4547:4576   */\n      swap1\n      pop\n        /* \"#utility.yul\":4388:4582   */\n      swap3\n      swap2\n      pop\n      pop\n      jump\t// out\n        /* \"#utility.yul\":4588:4730   */\n    tag_196:\n        /* \"#utility.yul\":4665:4669   */\n      0x00\n        /* \"#utility.yul\":4688:4691   */\n      dup2\n        /* \"#utility.yul\":4680:4691   */\n      swap1\n      pop\n        /* \"#utility.yul\":4718:4722   */\n      0x20\n        /* \"#utility.yul\":4713:4716   */\n      dup3\n        /* \"#utility.yul\":4709:4723   */\n      add\n        /* \"#utility.yul\":4701:4723   */\n      swap1\n      pop\n        /* \"#utility.yul\":4588:4730   */\n      swap2\n      swap1\n      pop\n      jump\t// out\n        /* \"#utility.yul\":4736:4835   */\n    tag_197:\n        /* \"#utility.yul\":4788:4794   */\n      0x00\n        /* \"#utility.yul\":4822:4827   */\n      dup2\n        /* \"#utility.yul\":4816:4828   */\n      mload\n        /* \"#utility.yul\":4806:4828   */\n      swap1\n      pop\n        /* \"#utility.yul\":4736:4835   */\n      swap2\n      swap1\n      pop\n      jump\t// out\n        /* \"#utility.yul\":4841:5000   */\n    tag_198:\n        /* \"#utility.yul\":4915:4926   */\n      0x00\n        /* \"#utility.yul\":4949:4955   */\n      dup3\n        /* \"#utility.yul\":4944:4947   */\n      dup3\n        /* \"#utility.yul\":4937:4956   */\n      mstore\n        /* \"#utility.yul\":4989:4993   */\n      0x20\n        /* \"#utility.yul\":4984:4987   */\n      dup3\n        /* \"#utility.yul\":4980:4994   */\n      add\n        /* \"#utility.yul\":4965:4994   */\n      swap1\n      pop\n        /* \"#utility.yul\":4841:5000   */\n      swap3\n      swap2\n      pop\n      pop\n      jump\t// out\n        /* \"#utility.yul\":5006:5145   */\n    tag_199:\n        /* \"#utility.yul\":5095:5101   */\n      dup3\n        /* \"#utility.yul\":5090:5093   */\n      dup2\n        /* \"#utility.yul\":5085:5088   */\n      dup4\n        /* \"#utility.yul\":5079:5102   */\n      mcopy\n        /* \"#utility.yul\":5136:5137   */\n      0x00\n        /* \"#utility.yul\":5127:5133   */\n      dup4\n        /* \"#utility.yul\":5122:5125   */\n      dup4\n        /* \"#utility.yul\":5118:5134   */\n      add\n        /* \"#utility.yul\":5111:5138   */\n      mstore\n        /* \"#utility.yul\":5006:5145   */\n      pop\n      pop\n      pop\n      jump\t// out\n        /* \"#utility.yul\":5151:5508   */\n    tag_200:\n        /* \"#utility.yul\":5229:5232   */\n      0x00\n        /* \"#utility.yul\":5257:5296   */\n      tag_328\n        /* \"#utility.yul\":5290:5295   */\n      dup3\n        /* \"#utility.yul\":5257:5296   */\n      tag_197\n      jump\t// in\n    tag_328:\n        /* \"#utility.yul\":5312:5373   */\n      tag_329\n        /* \"#utility.yul\":5366:5372   */\n      dup2\n        /* \"#utility.yul\":5361:5364   */\n      dup6\n        /* \"#utility.yul\":5312:5373   */\n      tag_198\n      jump\t// in\n    tag_329:\n        /* \"#utility.yul\":5305:5373   */\n      swap4\n      pop\n        /* \"#utility.yul\":5382:5447   */\n      tag_330\n        /* \"#utility.yul\":5440:5446   */\n      dup2\n        /* \"#utility.yul\":5435:5438   */\n      dup6\n        /* \"#utility.yul\":5428:5432   */\n      0x20\n        /* \"#utility.yul\":5421:5426   */\n      dup7\n        /* \"#utility.yul\":5417:5433   */\n      add\n        /* \"#utility.yul\":5382:5447   */\n      tag_199\n      jump\t// in\n    tag_330:\n        /* \"#utility.yul\":5472:5501   */\n      tag_331\n        /* \"#utility.yul\":5494:5500   */\n      dup2\n        /* \"#utility.yul\":5472:5501   */\n      tag_187\n      jump\t// in\n    tag_331:\n        /* \"#utility.yul\":5467:5470   */\n      dup5\n        /* \"#utility.yul\":5463:5502   */\n      add\n        /* \"#utility.yul\":5456:5502   */\n      swap2\n      pop\n        /* \"#utility.yul\":5233:5508   */\n      pop\n        /* \"#utility.yul\":5151:5508   */\n      swap3\n      swap2\n      pop\n      pop\n      jump\t// out\n        /* \"#utility.yul\":5514:5710   */\n    tag_201:\n        /* \"#utility.yul\":5603:5613   */\n      0x00\n        /* \"#utility.yul\":5638:5704   */\n      tag_333\n        /* \"#utility.yul\":5700:5703   */\n      dup4\n        /* \"#utility.yul\":5692:5698   */\n      dup4\n        /* \"#utility.yul\":5638:5704   */\n      tag_200\n      jump\t// in\n    tag_333:\n        /* \"#utility.yul\":5624:5704   */\n      swap1\n      pop\n        /* \"#utility.yul\":5514:5710   */\n      swap3\n      swap2\n      pop\n      pop\n      jump\t// out\n        /* \"#utility.yul\":5716:5839   */\n    tag_202:\n        /* \"#utility.yul\":5796:5800   */\n      0x00\n        /* \"#utility.yul\":5828:5832   */\n      0x20\n        /* \"#utility.yul\":5823:5826   */\n      dup3\n        /* \"#utility.yul\":5819:5833   */\n      add\n        /* \"#utility.yul\":5811:5833   */\n      swap1\n      pop\n        /* \"#utility.yul\":5716:5839   */\n      swap2\n      swap1\n      pop\n      jump\t// out\n        /* \"#utility.yul\":5873:6864   */\n    tag_203:\n        /* \"#utility.yul\":6012:6015   */\n      0x00\n        /* \"#utility.yul\":6041:6105   */\n      tag_336\n        /* \"#utility.yul\":6099:6104   */\n      dup3\n        /* \"#utility.yul\":6041:6105   */\n      tag_194\n      jump\t// in\n    tag_336:\n        /* \"#utility.yul\":6121:6217   */\n      tag_337\n        /* \"#utility.yul\":6210:6216   */\n      dup2\n        /* \"#utility.yul\":6205:6208   */\n      dup6\n        /* \"#utility.yul\":6121:6217   */\n      tag_195\n      jump\t// in\n    tag_337:\n        /* \"#utility.yul\":6114:6217   */\n      swap4\n      pop\n        /* \"#utility.yul\":6243:6246   */\n      dup4\n        /* \"#utility.yul\":6288:6292   */\n      0x20\n        /* \"#utility.yul\":6280:6286   */\n      dup3\n        /* \"#utility.yul\":6276:6293   */\n      mul\n        /* \"#utility.yul\":6271:6274   */\n      dup6\n        /* \"#utility.yul\":6267:6294   */\n      add\n        /* \"#utility.yul\":6318:6384   */\n      tag_338\n        /* \"#utility.yul\":6378:6383   */\n      dup6\n        /* \"#utility.yul\":6318:6384   */\n      tag_196\n      jump\t// in\n    tag_338:\n        /* \"#utility.yul\":6407:6414   */\n      dup1\n        /* \"#utility.yul\":6438:6439   */\n      0x00\n        /* \"#utility.yul\":6423:6819   */\n    tag_339:\n        /* \"#utility.yul\":6448:6454   */\n      dup6\n        /* \"#utility.yul\":6445:6446   */\n      dup2\n        /* \"#utility.yul\":6442:6455   */\n      lt\n        /* \"#utility.yul\":6423:6819   */\n      iszero\n      tag_341\n      jumpi\n        /* \"#utility.yul\":6519:6528   */\n      dup5\n        /* \"#utility.yul\":6513:6517   */\n      dup5\n        /* \"#utility.yul\":6509:6529   */\n      sub\n        /* \"#utility.yul\":6504:6507   */\n      dup10\n        /* \"#utility.yul\":6497:6530   */\n      mstore\n        /* \"#utility.yul\":6570:6576   */\n      dup2\n        /* \"#utility.yul\":6564:6577   */\n      mload\n        /* \"#utility.yul\":6598:6682   */\n      tag_342\n        /* \"#utility.yul\":6677:6681   */\n      dup6\n        /* \"#utility.yul\":6662:6675   */\n      dup3\n        /* \"#utility.yul\":6598:6682   */\n      tag_201\n      jump\t// in\n    tag_342:\n        /* \"#utility.yul\":6590:6682   */\n      swap5\n      pop\n        /* \"#utility.yul\":6705:6775   */\n      tag_343\n        /* \"#utility.yul\":6768:6774   */\n      dup4\n        /* \"#utility.yul\":6705:6775   */\n      tag_202\n      jump\t// in\n    tag_343:\n        /* \"#utility.yul\":6695:6775   */\n      swap3\n      pop\n        /* \"#utility.yul\":6804:6808   */\n      0x20\n        /* \"#utility.yul\":6799:6802   */\n      dup11\n        /* \"#utility.yul\":6795:6809   */\n      add\n        /* \"#utility.yul\":6788:6809   */\n      swap10\n      pop\n        /* \"#utility.yul\":6483:6819   */\n      pop\n        /* \"#utility.yul\":6470:6471   */\n      0x01\n        /* \"#utility.yul\":6467:6468   */\n      dup2\n        /* \"#utility.yul\":6463:6472   */\n      add\n        /* \"#utility.yul\":6458:6472   */\n      swap1\n      pop\n        /* \"#utility.yul\":6423:6819   */\n      jump(tag_339)\n    tag_341:\n        /* \"#utility.yul\":6427:6441   */\n      pop\n        /* \"#utility.yul\":6835:6839   */\n      dup3\n        /* \"#utility.yul\":6828:6839   */\n      swap8\n      pop\n        /* \"#utility.yul\":6855:6858   */\n      dup8\n        /* \"#utility.yul\":6848:6858   */\n      swap6\n      pop\n        /* \"#utility.yul\":6017:6864   */\n      pop\n      pop\n      pop\n      pop\n      pop\n        /* \"#utility.yul\":5873:6864   */\n      swap3\n      swap2\n      pop\n      pop\n      jump\t// out\n        /* \"#utility.yul\":6870:6984   */\n    tag_204:\n        /* \"#utility.yul\":6937:6943   */\n      0x00\n        /* \"#utility.yul\":6971:6976   */\n      dup2\n        /* \"#utility.yul\":6965:6977   */\n      mload\n        /* \"#utility.yul\":6955:6977   */\n      swap1\n      pop\n        /* \"#utility.yul\":6870:6984   */\n      swap2\n      swap1\n      pop\n      jump\t// out\n        /* \"#utility.yul\":6990:7174   */\n    tag_205:\n        /* \"#utility.yul\":7089:7100   */\n      0x00\n        /* \"#utility.yul\":7123:7129   */\n      dup3\n        /* \"#utility.yul\":7118:7121   */\n      dup3\n        /* \"#utility.yul\":7111:7130   */\n      mstore\n        /* \"#utility.yul\":7163:7167   */\n      0x20\n        /* \"#utility.yul\":7158:7161   */\n      dup3\n        /* \"#utility.yul\":7154:7168   */\n      add\n        /* \"#utility.yul\":7139:7168   */\n      swap1\n      pop\n        /* \"#utility.yul\":6990:7174   */\n      swap3\n      swap2\n      pop\n      pop\n      jump\t// out\n        /* \"#utility.yul\":7180:7312   */\n    tag_206:\n        /* \"#utility.yul\":7247:7251   */\n      0x00\n        /* \"#utility.yul\":7270:7273   */\n      dup2\n        /* \"#utility.yul\":7262:7273   */\n      swap1\n      pop\n        /* \"#utility.yul\":7300:7304   */\n      0x20\n        /* \"#utility.yul\":7295:7298   */\n      dup3\n        /* \"#utility.yul\":7291:7305   */\n      add\n        /* \"#utility.yul\":7283:7305   */\n      swap1\n      pop\n        /* \"#utility.yul\":7180:7312   */\n      swap2\n      swap1\n      pop\n      jump\t// out\n        /* \"#utility.yul\":7318:7426   */\n    tag_207:\n        /* \"#utility.yul\":7395:7419   */\n      tag_348\n        /* \"#utility.yul\":7413:7418   */\n      dup2\n        /* \"#utility.yul\":7395:7419   */\n      tag_178\n      jump\t// in\n    tag_348:\n        /* \"#utility.yul\":7390:7393   */\n      dup3\n        /* \"#utility.yul\":7383:7420   */\n      mstore\n        /* \"#utility.yul\":7318:7426   */\n      pop\n      pop\n      jump\t// out\n        /* \"#utility.yul\":7432:7611   */\n    tag_208:\n        /* \"#utility.yul\":7501:7511   */\n      0x00\n        /* \"#utility.yul\":7522:7568   */\n      tag_350\n        /* \"#utility.yul\":7564:7567   */\n      dup4\n        /* \"#utility.yul\":7556:7562   */\n      dup4\n        /* \"#utility.yul\":7522:7568   */\n      tag_207\n      jump\t// in\n    tag_350:\n        /* \"#utility.yul\":7600:7604   */\n      0x20\n        /* \"#utility.yul\":7595:7598   */\n      dup4\n        /* \"#utility.yul\":7591:7605   */\n      add\n        /* \"#utility.yul\":7577:7605   */\n      swap1\n      pop\n        /* \"#utility.yul\":7432:7611   */\n      swap3\n      swap2\n      pop\n      pop\n      jump\t// out\n        /* \"#utility.yul\":7617:7730   */\n    tag_209:\n        /* \"#utility.yul\":7687:7691   */\n      0x00\n        /* \"#utility.yul\":7719:7723   */\n      0x20\n        /* \"#utility.yul\":7714:7717   */\n      dup3\n        /* \"#utility.yul\":7710:7724   */\n      add\n        /* \"#utility.yul\":7702:7724   */\n      swap1\n      pop\n        /* \"#utility.yul\":7617:7730   */\n      swap2\n      swap1\n      pop\n      jump\t// out\n        /* \"#utility.yul\":7766:8498   */\n    tag_210:\n        /* \"#utility.yul\":7885:7888   */\n      0x00\n        /* \"#utility.yul\":7914:7968   */\n      tag_353\n        /* \"#utility.yul\":7962:7967   */\n      dup3\n        /* \"#utility.yul\":7914:7968   */\n      tag_204\n      jump\t// in\n    tag_353:\n        /* \"#utility.yul\":7984:8070   */\n      tag_354\n        /* \"#utility.yul\":8063:8069   */\n      dup2\n        /* \"#utility.yul\":8058:8061   */\n      dup6\n        /* \"#utility.yul\":7984:8070   */\n      tag_205\n      jump\t// in\n    tag_354:\n        /* \"#utility.yul\":7977:8070   */\n      swap4\n      pop\n        /* \"#utility.yul\":8094:8150   */\n      tag_355\n        /* \"#utility.yul\":8144:8149   */\n      dup4\n        /* \"#utility.yul\":8094:8150   */\n      tag_206\n      jump\t// in\n    tag_355:\n        /* \"#utility.yul\":8173:8180   */\n      dup1\n        /* \"#utility.yul\":8204:8205   */\n      0x00\n        /* \"#utility.yul\":8189:8473   */\n    tag_356:\n        /* \"#utility.yul\":8214:8220   */\n      dup4\n        /* \"#utility.yul\":8211:8212   */\n      dup2\n        /* \"#utility.yul\":8208:8221   */\n      lt\n        /* \"#utility.yul\":8189:8473   */\n      iszero\n      tag_358\n      jumpi\n        /* \"#utility.yul\":8290:8296   */\n      dup2\n        /* \"#utility.yul\":8284:8297   */\n      mload\n        /* \"#utility.yul\":8317:8380   */\n      tag_359\n        /* \"#utility.yul\":8376:8379   */\n      dup9\n        /* \"#utility.yul\":8361:8374   */\n      dup3\n        /* \"#utility.yul\":8317:8380   */\n      tag_208\n      jump\t// in\n    tag_359:\n        /* \"#utility.yul\":8310:8380   */\n      swap8\n      pop\n        /* \"#utility.yul\":8403:8463   */\n      tag_360\n        /* \"#utility.yul\":8456:8462   */\n      dup4\n        /* \"#utility.yul\":8403:8463   */\n      tag_209\n      jump\t// in\n    tag_360:\n        /* \"#utility.yul\":8393:8463   */\n      swap3\n      pop\n        /* \"#utility.yul\":8249:8473   */\n      pop\n        /* \"#utility.yul\":8236:8237   */\n      0x01\n        /* \"#utility.yul\":8233:8234   */\n      dup2\n        /* \"#utility.yul\":8229:8238   */\n      add\n        /* \"#utility.yul\":8224:8238   */\n      swap1\n      pop\n        /* \"#utility.yul\":8189:8473   */\n      jump(tag_356)\n    tag_358:\n        /* \"#utility.yul\":8193:8207   */\n      pop\n        /* \"#utility.yul\":8489:8492   */\n      dup6\n        /* \"#utility.yul\":8482:8492   */\n      swap4\n      pop\n        /* \"#utility.yul\":7890:8498   */\n      pop\n      pop\n      pop\n        /* \"#utility.yul\":7766:8498   */\n      swap3\n      swap2\n      pop\n      pop\n      jump\t// out\n        /* \"#utility.yul\":8504:9178   */\n    tag_25:\n        /* \"#utility.yul\":8745:8749   */\n      0x00\n        /* \"#utility.yul\":8783:8785   */\n      0x40\n        /* \"#utility.yul\":8772:8781   */\n      dup3\n        /* \"#utility.yul\":8768:8786   */\n      add\n        /* \"#utility.yul\":8760:8786   */\n      swap1\n      pop\n        /* \"#utility.yul\":8832:8841   */\n      dup2\n        /* \"#utility.yul\":8826:8830   */\n      dup2\n        /* \"#utility.yul\":8822:8842   */\n      sub\n        /* \"#utility.yul\":8818:8819   */\n      0x00\n        /* \"#utility.yul\":8807:8816   */\n      dup4\n        /* \"#utility.yul\":8803:8820   */\n      add\n        /* \"#utility.yul\":8796:8843   */\n      mstore\n        /* \"#utility.yul\":8860:8988   */\n      tag_362\n        /* \"#utility.yul\":8983:8987   */\n      dup2\n        /* \"#utility.yul\":8974:8980   */\n      dup6\n        /* \"#utility.yul\":8860:8988   */\n      tag_203\n      jump\t// in\n    tag_362:\n        /* \"#utility.yul\":8852:8988   */\n      swap1\n      pop\n        /* \"#utility.yul\":9035:9044   */\n      dup2\n        /* \"#utility.yul\":9029:9033   */\n      dup2\n        /* \"#utility.yul\":9025:9045   */\n      sub\n        /* \"#utility.yul\":9020:9022   */\n      0x20\n        /* \"#utility.yul\":9009:9018   */\n      dup4\n        /* \"#utility.yul\":9005:9023   */\n      add\n        /* \"#utility.yul\":8998:9046   */\n      mstore\n        /* \"#utility.yul\":9063:9171   */\n      tag_363\n        /* \"#utility.yul\":9166:9170   */\n      dup2\n        /* \"#utility.yul\":9157:9163   */\n      dup5\n        /* \"#utility.yul\":9063:9171   */\n      tag_210\n      jump\t// in\n    tag_363:\n        /* \"#utility.yul\":9055:9171   */\n      swap1\n      pop\n        /* \"#utility.yul\":8504:9178   */\n      swap4\n      swap3\n      pop\n      pop\n      pop\n      jump\t// out\n        /* \"#utility.yul\":9184:9693   */\n    tag_28:\n        /* \"#utility.yul\":9253:9259   */\n      0x00\n        /* \"#utility.yul\":9302:9304   */\n      0x20\n        /* \"#utility.yul\":9290:9299   */\n      dup3\n        /* \"#utility.yul\":9281:9288   */\n      dup5\n        /* \"#utility.yul\":9277:9300   */\n      sub\n        /* \"#utility.yul\":9273:9305   */\n      slt\n        /* \"#utility.yul\":9270:9389   */\n      iszero\n      tag_365\n      jumpi\n        /* \"#utility.yul\":9308:9387   */\n      tag_366\n      tag_181\n      jump\t// in\n    tag_366:\n        /* \"#utility.yul\":9270:9389   */\n    tag_365:\n        /* \"#utility.yul\":9456:9457   */\n      0x00\n        /* \"#utility.yul\":9445:9454   */\n      dup3\n        /* \"#utility.yul\":9441:9458   */\n      add\n        /* \"#utility.yul\":9428:9459   */\n      calldataload\n        /* \"#utility.yul\":9486:9504   */\n      0xffffffffffffffff\n        /* \"#utility.yul\":9478:9484   */\n      dup2\n        /* \"#utility.yul\":9475:9505   */\n      gt\n        /* \"#utility.yul\":9472:9589   */\n      iszero\n      tag_367\n      jumpi\n        /* \"#utility.yul\":9508:9587   */\n      tag_368\n      tag_182\n      jump\t// in\n    tag_368:\n        /* \"#utility.yul\":9472:9589   */\n    tag_367:\n        /* \"#utility.yul\":9613:9676   */\n      tag_369\n        /* \"#utility.yul\":9668:9675   */\n      dup5\n        /* \"#utility.yul\":9659:9665   */\n      dup3\n        /* \"#utility.yul\":9648:9657   */\n      dup6\n        /* \"#utility.yul\":9644:9666   */\n      add\n        /* \"#utility.yul\":9613:9676   */\n      tag_193\n      jump\t// in\n    tag_369:\n        /* \"#utility.yul\":9603:9676   */\n      swap2\n      pop\n        /* \"#utility.yul\":9399:9686   */\n      pop\n        /* \"#utility.yul\":9184:9693   */\n      swap3\n      swap2\n      pop\n      pop\n      jump\t// out\n        /* \"#utility.yul\":9699:9789   */\n    tag_211:\n        /* \"#utility.yul\":9733:9740   */\n      0x00\n        /* \"#utility.yul\":9776:9781   */\n      dup2\n        /* \"#utility.yul\":9769:9782   */\n      iszero\n        /* \"#utility.yul\":9762:9783   */\n      iszero\n        /* \"#utility.yul\":9751:9783   */\n      swap1\n      pop\n        /* \"#utility.yul\":9699:9789   */\n      swap2\n      swap1\n      pop\n      jump\t// out\n        /* \"#utility.yul\":9795:9904   */\n    tag_212:\n        /* \"#utility.yul\":9876:9897   */\n      tag_372\n        /* \"#utility.yul\":9891:9896   */\n      dup2\n        /* \"#utility.yul\":9876:9897   */\n      tag_211\n      jump\t// in\n    tag_372:\n        /* \"#utility.yul\":9871:9874   */\n      dup3\n        /* \"#utility.yul\":9864:9898   */\n      mstore\n        /* \"#utility.yul\":9795:9904   */\n      pop\n      pop\n      jump\t// out\n        /* \"#utility.yul\":9910:10120   */\n    tag_34:\n        /* \"#utility.yul\":9997:10001   */\n      0x00\n        /* \"#utility.yul\":10035:10037   */\n      0x20\n        /* \"#utility.yul\":10024:10033   */\n      dup3\n        /* \"#utility.yul\":10020:10038   */\n      add\n        /* \"#utility.yul\":10012:10038   */\n      swap1\n      pop\n        /* \"#utility.yul\":10048:10113   */\n      tag_374\n        /* \"#utility.yul\":10110:10111   */\n      0x00\n        /* \"#utility.yul\":10099:10108   */\n      dup4\n        /* \"#utility.yul\":10095:10112   */\n      add\n        /* \"#utility.yul\":10086:10092   */\n      dup5\n        /* \"#utility.yul\":10048:10113   */\n      tag_212\n      jump\t// in\n    tag_374:\n        /* \"#utility.yul\":9910:10120   */\n      swap3\n      swap2\n      pop\n      pop\n      jump\t// out\n        /* \"#utility.yul\":10126:10240   */\n    tag_213:\n        /* \"#utility.yul\":10193:10199   */\n      0x00\n        /* \"#utility.yul\":10227:10232   */\n      dup2\n        /* \"#utility.yul\":10221:10233   */\n      mload\n        /* \"#utility.yul\":10211:10233   */\n      swap1\n      pop\n        /* \"#utility.yul\":10126:10240   */\n      swap2\n      swap1\n      pop\n      jump\t// out\n        /* \"#utility.yul\":10246:10430   */\n    tag_214:\n        /* \"#utility.yul\":10345:10356   */\n      0x00\n        /* \"#utility.yul\":10379:10385   */\n      dup3\n        /* \"#utility.yul\":10374:10377   */\n      dup3\n        /* \"#utility.yul\":10367:10386   */\n      mstore\n        /* \"#utility.yul\":10419:10423   */\n      0x20\n        /* \"#utility.yul\":10414:10417   */\n      dup3\n        /* \"#utility.yul\":10410:10424   */\n      add\n        /* \"#utility.yul\":10395:10424   */\n      swap1\n      pop\n        /* \"#utility.yul\":10246:10430   */\n      swap3\n      swap2\n      pop\n      pop\n      jump\t// out\n        /* \"#utility.yul\":10436:10568   */\n    tag_215:\n        /* \"#utility.yul\":10503:10507   */\n      0x00\n        /* \"#utility.yul\":10526:10529   */\n      dup2\n        /* \"#utility.yul\":10518:10529   */\n      swap1\n      pop\n        /* \"#utility.yul\":10556:10560   */\n      0x20\n        /* \"#utility.yul\":10551:10554   */\n      dup3\n        /* \"#utility.yul\":10547:10561   */\n      add\n        /* \"#utility.yul\":10539:10561   */\n      swap1\n      pop\n        /* \"#utility.yul\":10436:10568   */\n      swap2\n      swap1\n      pop\n      jump\t// out\n        /* \"#utility.yul\":10574:10700   */\n    tag_216:\n        /* \"#utility.yul\":10611:10618   */\n      0x00\n        /* \"#utility.yul\":10651:10693   */\n      0xffffffffffffffffffffffffffffffffffffffff\n        /* \"#utility.yul\":10644:10649   */\n      dup3\n        /* \"#utility.yul\":10640:10694   */\n      and\n        /* \"#utility.yul\":10629:10694   */\n      swap1\n      pop\n        /* \"#utility.yul\":10574:10700   */\n      swap2\n      swap1\n      pop\n      jump\t// out\n        /* \"#utility.yul\":10706:10802   */\n    tag_217:\n        /* \"#utility.yul\":10743:10750   */\n      0x00\n        /* \"#utility.yul\":10772:10796   */\n      tag_380\n        /* \"#utility.yul\":10790:10795   */\n      dup3\n        /* \"#utility.yul\":10772:10796   */\n      tag_216\n      jump\t// in\n    tag_380:\n        /* \"#utility.yul\":10761:10796   */\n      swap1\n      pop\n        /* \"#utility.yul\":10706:10802   */\n      swap2\n      swap1\n      pop\n      jump\t// out\n        /* \"#utility.yul\":10808:10916   */\n    tag_218:\n        /* \"#utility.yul\":10885:10909   */\n      tag_382\n        /* \"#utility.yul\":10903:10908   */\n      dup2\n        /* \"#utility.yul\":10885:10909   */\n      tag_217\n      jump\t// in\n    tag_382:\n        /* \"#utility.yul\":10880:10883   */\n      dup3\n        /* \"#utility.yul\":10873:10910   */\n      mstore\n        /* \"#utility.yul\":10808:10916   */\n      pop\n      pop\n      jump\t// out\n        /* \"#utility.yul\":10922:11101   */\n    tag_219:\n        /* \"#utility.yul\":10991:11001   */\n      0x00\n        /* \"#utility.yul\":11012:11058   */\n      tag_384\n        /* \"#utility.yul\":11054:11057   */\n      dup4\n        /* \"#utility.yul\":11046:11052   */\n      dup4\n        /* \"#utility.yul\":11012:11058   */\n      tag_218\n      jump\t// in\n    tag_384:\n        /* \"#utility.yul\":11090:11094   */\n      0x20\n        /* \"#utility.yul\":11085:11088   */\n      dup4\n        /* \"#utility.yul\":11081:11095   */\n      add\n        /* \"#utility.yul\":11067:11095   */\n      swap1\n      pop\n        /* \"#utility.yul\":10922:11101   */\n      swap3\n      swap2\n      pop\n      pop\n      jump\t// out\n        /* \"#utility.yul\":11107:11220   */\n    tag_220:\n        /* \"#utility.yul\":11177:11181   */\n      0x00\n        /* \"#utility.yul\":11209:11213   */\n      0x20\n        /* \"#utility.yul\":11204:11207   */\n      dup3\n        /* \"#utility.yul\":11200:11214   */\n      add\n        /* \"#utility.yul\":11192:11214   */\n      swap1\n      pop\n        /* \"#utility.yul\":11107:11220   */\n      swap2\n      swap1\n      pop\n      jump\t// out\n        /* \"#utility.yul\":11256:11988   */\n    tag_221:\n        /* \"#utility.yul\":11375:11378   */\n      0x00\n        /* \"#utility.yul\":11404:11458   */\n      tag_387\n        /* \"#utility.yul\":11452:11457   */\n      dup3\n        /* \"#utility.yul\":11404:11458   */\n      tag_213\n      jump\t// in\n    tag_387:\n        /* \"#utility.yul\":11474:11560   */\n      tag_388\n        /* \"#utility.yul\":11553:11559   */\n      dup2\n        /* \"#utility.yul\":11548:11551   */\n      dup6\n        /* \"#utility.yul\":11474:11560   */\n      tag_214\n      jump\t// in\n    tag_388:\n        /* \"#utility.yul\":11467:11560   */\n      swap4\n      pop\n        /* \"#utility.yul\":11584:11640   */\n      tag_389\n        /* \"#utility.yul\":11634:11639   */\n      dup4\n        /* \"#utility.yul\":11584:11640   */\n      tag_215\n      jump\t// in\n    tag_389:\n        /* \"#utility.yul\":11663:11670   */\n      dup1\n        /* \"#utility.yul\":11694:11695   */\n      0x00\n        /* \"#utility.yul\":11679:11963   */\n    tag_390:\n        /* \"#utility.yul\":11704:11710   */\n      dup4\n        /* \"#utility.yul\":11701:11702   */\n      dup2\n        /* \"#utility.yul\":11698:11711   */\n      lt\n        /* \"#utility.yul\":11679:11963   */\n      iszero\n      tag_392\n      jumpi\n        /* \"#utility.yul\":11780:11786   */\n      dup2\n        /* \"#utility.yul\":11774:11787   */\n      mload\n        /* \"#utility.yul\":11807:11870   */\n      tag_393\n        /* \"#utility.yul\":11866:11869   */\n      dup9\n        /* \"#utility.yul\":11851:11864   */\n      dup3\n        /* \"#utility.yul\":11807:11870   */\n      tag_219\n      jump\t// in\n    tag_393:\n        /* \"#utility.yul\":11800:11870   */\n      swap8\n      pop\n        /* \"#utility.yul\":11893:11953   */\n      tag_394\n        /* \"#utility.yul\":11946:11952   */\n      dup4\n        /* \"#utility.yul\":11893:11953   */\n      tag_220\n      jump\t// in\n    tag_394:\n        /* \"#utility.yul\":11883:11953   */\n      swap3\n      pop\n        /* \"#utility.yul\":11739:11963   */\n      pop\n        /* \"#utility.yul\":11726:11727   */\n      0x01\n        /* \"#utility.yul\":11723:11724   */\n      dup2\n        /* \"#utility.yul\":11719:11728   */\n      add\n        /* \"#utility.yul\":11714:11728   */\n      swap1\n      pop\n        /* \"#utility.yul\":11679:11963   */\n      jump(tag_390)\n    tag_392:\n        /* \"#utility.yul\":11683:11697   */\n      pop\n        /* \"#utility.yul\":11979:11982   */\n      dup6\n        /* \"#utility.yul\":11972:11982   */\n      swap4\n      pop\n        /* \"#utility.yul\":11380:11988   */\n      pop\n      pop\n      pop\n        /* \"#utility.yul\":11256:11988   */\n      swap3\n      swap2\n      pop\n      pop\n      jump\t// out\n        /* \"#utility.yul\":11994:12105   */\n    tag_222:\n        /* \"#utility.yul\":12058:12064   */\n      0x00\n        /* \"#utility.yul\":12092:12097   */\n      dup2\n        /* \"#utility.yul\":12086:12098   */\n      mload\n        /* \"#utility.yul\":12076:12098   */\n      swap1\n      pop\n        /* \"#utility.yul\":11994:12105   */\n      swap2\n      swap1\n      pop\n      jump\t// out\n        /* \"#utility.yul\":12111:12292   */\n    tag_223:\n        /* \"#utility.yul\":12207:12218   */\n      0x00\n        /* \"#utility.yul\":12241:12247   */\n      dup3\n        /* \"#utility.yul\":12236:12239   */\n      dup3\n        /* \"#utility.yul\":12229:12248   */\n      mstore\n        /* \"#utility.yul\":12281:12285   */\n      0x20\n        /* \"#utility.yul\":12276:12279   */\n      dup3\n        /* \"#utility.yul\":12272:12286   */\n      add\n        /* \"#utility.yul\":12257:12286   */\n      swap1\n      pop\n        /* \"#utility.yul\":12111:12292   */\n      swap3\n      swap2\n      pop\n      pop\n      jump\t// out\n        /* \"#utility.yul\":12298:12427   */\n    tag_224:\n        /* \"#utility.yul\":12362:12366   */\n      0x00\n        /* \"#utility.yul\":12385:12388   */\n      dup2\n        /* \"#utility.yul\":12377:12388   */\n      swap1\n      pop\n        /* \"#utility.yul\":12415:12419   */\n      0x20\n        /* \"#utility.yul\":12410:12413   */\n      dup3\n        /* \"#utility.yul\":12406:12420   */\n      add\n        /* \"#utility.yul\":12398:12420   */\n      swap1\n      pop\n        /* \"#utility.yul\":12298:12427   */\n      swap2\n      swap1\n      pop\n      jump\t// out\n        /* \"#utility.yul\":12433:12532   */\n    tag_225:\n        /* \"#utility.yul\":12504:12525   */\n      tag_399\n        /* \"#utility.yul\":12519:12524   */\n      dup2\n        /* \"#utility.yul\":12504:12525   */\n      tag_211\n      jump\t// in\n    tag_399:\n        /* \"#utility.yul\":12499:12502   */\n      dup3\n        /* \"#utility.yul\":12492:12526   */\n      mstore\n        /* \"#utility.yul\":12433:12532   */\n      pop\n      pop\n      jump\t// out\n        /* \"#utility.yul\":12538:12705   */\n    tag_226:\n        /* \"#utility.yul\":12601:12611   */\n      0x00\n        /* \"#utility.yul\":12622:12662   */\n      tag_401\n        /* \"#utility.yul\":12658:12661   */\n      dup4\n        /* \"#utility.yul\":12650:12656   */\n      dup4\n        /* \"#utility.yul\":12622:12662   */\n      tag_225\n      jump\t// in\n    tag_401:\n        /* \"#utility.yul\":12694:12698   */\n      0x20\n        /* \"#utility.yul\":12689:12692   */\n      dup4\n        /* \"#utility.yul\":12685:12699   */\n      add\n        /* \"#utility.yul\":12671:12699   */\n      swap1\n      pop\n        /* \"#utility.yul\":12538:12705   */\n      swap3\n      swap2\n      pop\n      pop\n      jump\t// out\n        /* \"#utility.yul\":12711:12821   */\n    tag_227:\n        /* \"#utility.yul\":12778:12782   */\n      0x00\n        /* \"#utility.yul\":12810:12814   */\n      0x20\n        /* \"#utility.yul\":12805:12808   */\n      dup3\n        /* \"#utility.yul\":12801:12815   */\n      add\n        /* \"#utility.yul\":12793:12815   */\n      swap1\n      pop\n        /* \"#utility.yul\":12711:12821   */\n      swap2\n      swap1\n      pop\n      jump\t// out\n        /* \"#utility.yul\":12851:13559   */\n    tag_228:\n        /* \"#utility.yul\":12964:12967   */\n      0x00\n        /* \"#utility.yul\":12993:13044   */\n      tag_404\n        /* \"#utility.yul\":13038:13043   */\n      dup3\n        /* \"#utility.yul\":12993:13044   */\n      tag_222\n      jump\t// in\n    tag_404:\n        /* \"#utility.yul\":13060:13143   */\n      tag_405\n        /* \"#utility.yul\":13136:13142   */\n      dup2\n        /* \"#utility.yul\":13131:13134   */\n      dup6\n        /* \"#utility.yul\":13060:13143   */\n      tag_223\n      jump\t// in\n    tag_405:\n        /* \"#utility.yul\":13053:13143   */\n      swap4\n      pop\n        /* \"#utility.yul\":13167:13220   */\n      tag_406\n        /* \"#utility.yul\":13214:13219   */\n      dup4\n        /* \"#utility.yul\":13167:13220   */\n      tag_224\n      jump\t// in\n    tag_406:\n        /* \"#utility.yul\":13243:13250   */\n      dup1\n        /* \"#utility.yul\":13274:13275   */\n      0x00\n        /* \"#utility.yul\":13259:13534   */\n    tag_407:\n        /* \"#utility.yul\":13284:13290   */\n      dup4\n        /* \"#utility.yul\":13281:13282   */\n      dup2\n        /* \"#utility.yul\":13278:13291   */\n      lt\n        /* \"#utility.yul\":13259:13534   */\n      iszero\n      tag_409\n      jumpi\n        /* \"#utility.yul\":13360:13366   */\n      dup2\n        /* \"#utility.yul\":13354:13367   */\n      mload\n        /* \"#utility.yul\":13387:13444   */\n      tag_410\n        /* \"#utility.yul\":13440:13443   */\n      dup9\n        /* \"#utility.yul\":13425:13438   */\n      dup3\n        /* \"#utility.yul\":13387:13444   */\n      tag_226\n      jump\t// in\n    tag_410:\n        /* \"#utility.yul\":13380:13444   */\n      swap8\n      pop\n        /* \"#utility.yul\":13467:13524   */\n      tag_411\n        /* \"#utility.yul\":13517:13523   */\n      dup4\n        /* \"#utility.yul\":13467:13524   */\n      tag_227\n      jump\t// in\n    tag_411:\n        /* \"#utility.yul\":13457:13524   */\n      swap3\n      pop\n        /* \"#utility.yul\":13319:13534   */\n      pop\n        /* \"#utility.yul\":13306:13307   */\n      0x01\n        /* \"#utility.yul\":13303:13304   */\n      dup2\n        /* \"#utility.yul\":13299:13308   */\n      add\n        /* \"#utility.yul\":13294:13308   */\n      swap1\n      pop\n        /* \"#utility.yul\":13259:13534   */\n      jump(tag_407)\n    tag_409:\n        /* \"#utility.yul\":13263:13277   */\n      pop\n        /* \"#utility.yul\":13550:13553   */\n      dup6\n        /* \"#utility.yul\":13543:13553   */\n      swap4\n      pop\n        /* \"#utility.yul\":12969:13559   */\n      pop\n      pop\n      pop\n        /* \"#utility.yul\":12851:13559   */\n      swap3\n      swap2\n      pop\n      pop\n      jump\t// out\n        /* \"#utility.yul\":13565:13728   */\n    tag_229:\n        /* \"#utility.yul\":13681:13687   */\n      0x00\n        /* \"#utility.yul\":13715:13720   */\n      dup2\n        /* \"#utility.yul\":13709:13721   */\n      mload\n        /* \"#utility.yul\":13699:13721   */\n      swap1\n      pop\n        /* \"#utility.yul\":13565:13728   */\n      swap2\n      swap1\n      pop\n      jump\t// out\n        /* \"#utility.yul\":13734:13967   */\n    tag_230:\n        /* \"#utility.yul\":13882:13893   */\n      0x00\n        /* \"#utility.yul\":13916:13922   */\n      dup3\n        /* \"#utility.yul\":13911:13914   */\n      dup3\n        /* \"#utility.yul\":13904:13923   */\n      mstore\n        /* \"#utility.yul\":13956:13960   */\n      0x20\n        /* \"#utility.yul\":13951:13954   */\n      dup3\n        /* \"#utility.yul\":13947:13961   */\n      add\n        /* \"#utility.yul\":13932:13961   */\n      swap1\n      pop\n        /* \"#utility.yul\":13734:13967   */\n      swap3\n      swap2\n      pop\n      pop\n      jump\t// out\n        /* \"#utility.yul\":13973:14154   */\n    tag_231:\n        /* \"#utility.yul\":14089:14093   */\n      0x00\n        /* \"#utility.yul\":14112:14115   */\n      dup2\n        /* \"#utility.yul\":14104:14115   */\n      swap1\n      pop\n        /* \"#utility.yul\":14142:14146   */\n      0x20\n        /* \"#utility.yul\":14137:14140   */\n      dup3\n        /* \"#utility.yul\":14133:14147   */\n      add\n        /* \"#utility.yul\":14125:14147   */\n      swap1\n      pop\n        /* \"#utility.yul\":13973:14154   */\n      swap2\n      swap1\n      pop\n      jump\t// out\n        /* \"#utility.yul\":14160:14298   */\n    tag_232:\n        /* \"#utility.yul\":14251:14257   */\n      0x00\n        /* \"#utility.yul\":14285:14290   */\n      dup2\n        /* \"#utility.yul\":14279:14291   */\n      mload\n        /* \"#utility.yul\":14269:14291   */\n      swap1\n      pop\n        /* \"#utility.yul\":14160:14298   */\n      swap2\n      swap1\n      pop\n      jump\t// out\n        /* \"#utility.yul\":14304:14502   */\n    tag_233:\n        /* \"#utility.yul\":14417:14428   */\n      0x00\n        /* \"#utility.yul\":14451:14457   */\n      dup3\n        /* \"#utility.yul\":14446:14449   */\n      dup3\n        /* \"#utility.yul\":14439:14458   */\n      mstore\n        /* \"#utility.yul\":14491:14495   */\n      0x20\n        /* \"#utility.yul\":14486:14489   */\n      dup3\n        /* \"#utility.yul\":14482:14496   */\n      add\n        /* \"#utility.yul\":14467:14496   */\n      swap1\n      pop\n        /* \"#utility.yul\":14304:14502   */\n      swap3\n      swap2\n      pop\n      pop\n      jump\t// out\n        /* \"#utility.yul\":14508:14664   */\n    tag_234:\n        /* \"#utility.yul\":14599:14603   */\n      0x00\n        /* \"#utility.yul\":14622:14625   */\n      dup2\n        /* \"#utility.yul\":14614:14625   */\n      swap1\n      pop\n        /* \"#utility.yul\":14652:14656   */\n      0x20\n        /* \"#utility.yul\":14647:14650   */\n      dup3\n        /* \"#utility.yul\":14643:14657   */\n      add\n        /* \"#utility.yul\":14635:14657   */\n      swap1\n      pop\n        /* \"#utility.yul\":14508:14664   */\n      swap2\n      swap1\n      pop\n      jump\t// out\n        /* \"#utility.yul\":14724:15320   */\n    tag_235:\n        /* \"#utility.yul\":14831:14834   */\n      0x00\n        /* \"#utility.yul\":14867:14871   */\n      0x40\n        /* \"#utility.yul\":14862:14865   */\n      dup4\n        /* \"#utility.yul\":14858:14872   */\n      add\n        /* \"#utility.yul\":14954:14958   */\n      0x00\n        /* \"#utility.yul\":14947:14952   */\n      dup4\n        /* \"#utility.yul\":14943:14959   */\n      add\n        /* \"#utility.yul\":14937:14960   */\n      mload\n        /* \"#utility.yul\":15007:15010   */\n      dup5\n        /* \"#utility.yul\":15001:15005   */\n      dup3\n        /* \"#utility.yul\":14997:15011   */\n      sub\n        /* \"#utility.yul\":14990:14994   */\n      0x00\n        /* \"#utility.yul\":14985:14988   */\n      dup7\n        /* \"#utility.yul\":14981:14995   */\n      add\n        /* \"#utility.yul\":14974:15012   */\n      mstore\n        /* \"#utility.yul\":15033:15106   */\n      tag_419\n        /* \"#utility.yul\":15101:15105   */\n      dup3\n        /* \"#utility.yul\":15087:15099   */\n      dup3\n        /* \"#utility.yul\":15033:15106   */\n      tag_200\n      jump\t// in\n    tag_419:\n        /* \"#utility.yul\":15025:15106   */\n      swap2\n      pop\n        /* \"#utility.yul\":14882:15117   */\n      pop\n        /* \"#utility.yul\":15201:15205   */\n      0x20\n        /* \"#utility.yul\":15194:15199   */\n      dup4\n        /* \"#utility.yul\":15190:15206   */\n      add\n        /* \"#utility.yul\":15184:15207   */\n      mload\n        /* \"#utility.yul\":15220:15283   */\n      tag_420\n        /* \"#utility.yul\":15277:15281   */\n      0x20\n        /* \"#utility.yul\":15272:15275   */\n      dup7\n        /* \"#utility.yul\":15268:15282   */\n      add\n        /* \"#utility.yul\":15254:15266   */\n      dup3\n        /* \"#utility.yul\":15220:15283   */\n      tag_207\n      jump\t// in\n    tag_420:\n        /* \"#utility.yul\":15127:15293   */\n      pop\n        /* \"#utility.yul\":15310:15314   */\n      dup1\n        /* \"#utility.yul\":15303:15314   */\n      swap2\n      pop\n        /* \"#utility.yul\":14836:15320   */\n      pop\n        /* \"#utility.yul\":14724:15320   */\n      swap3\n      swap2\n      pop\n      pop\n      jump\t// out\n        /* \"#utility.yul\":15326:15578   */\n    tag_236:\n        /* \"#utility.yul\":15443:15453   */\n      0x00\n        /* \"#utility.yul\":15478:15572   */\n      tag_422\n        /* \"#utility.yul\":15568:15571   */\n      dup4\n        /* \"#utility.yul\":15560:15566   */\n      dup4\n        /* \"#utility.yul\":15478:15572   */\n      tag_235\n      jump\t// in\n    tag_422:\n        /* \"#utility.yul\":15464:15572   */\n      swap1\n      pop\n        /* \"#utility.yul\":15326:15578   */\n      swap3\n      swap2\n      pop\n      pop\n      jump\t// out\n        /* \"#utility.yul\":15584:15721   */\n    tag_237:\n        /* \"#utility.yul\":15678:15682   */\n      0x00\n        /* \"#utility.yul\":15710:15714   */\n      0x20\n        /* \"#utility.yul\":15705:15708   */\n      dup3\n        /* \"#utility.yul\":15701:15715   */\n      add\n        /* \"#utility.yul\":15693:15715   */\n      swap1\n      pop\n        /* \"#utility.yul\":15584:15721   */\n      swap2\n      swap1\n      pop\n      jump\t// out\n        /* \"#utility.yul\":15785:16868   */\n    tag_238:\n        /* \"#utility.yul\":15942:15945   */\n      0x00\n        /* \"#utility.yul\":15971:16049   */\n      tag_425\n        /* \"#utility.yul\":16043:16048   */\n      dup3\n        /* \"#utility.yul\":15971:16049   */\n      tag_232\n      jump\t// in\n    tag_425:\n        /* \"#utility.yul\":16065:16165   */\n      tag_426\n        /* \"#utility.yul\":16158:16164   */\n      dup2\n        /* \"#utility.yul\":16153:16156   */\n      dup6\n        /* \"#utility.yul\":16065:16165   */\n      tag_233\n      jump\t// in\n    tag_426:\n        /* \"#utility.yul\":16058:16165   */\n      swap4\n      pop\n        /* \"#utility.yul\":16191:16194   */\n      dup4\n        /* \"#utility.yul\":16236:16240   */\n      0x20\n        /* \"#utility.yul\":16228:16234   */\n      dup3\n        /* \"#utility.yul\":16224:16241   */\n      mul\n        /* \"#utility.yul\":16219:16222   */\n      dup6\n        /* \"#utility.yul\":16215:16242   */\n      add\n        /* \"#utility.yul\":16266:16346   */\n      tag_427\n        /* \"#utility.yul\":16340:16345   */\n      dup6\n        /* \"#utility.yul\":16266:16346   */\n      tag_234\n      jump\t// in\n    tag_427:\n        /* \"#utility.yul\":16369:16376   */\n      dup1\n        /* \"#utility.yul\":16400:16401   */\n      0x00\n        /* \"#utility.yul\":16385:16823   */\n    tag_428:\n        /* \"#utility.yul\":16410:16416   */\n      dup6\n        /* \"#utility.yul\":16407:16408   */\n      dup2\n        /* \"#utility.yul\":16404:16417   */\n      lt\n        /* \"#utility.yul\":16385:16823   */\n      iszero\n      tag_430\n      jumpi\n        /* \"#utility.yul\":16481:16490   */\n      dup5\n        /* \"#utility.yul\":16475:16479   */\n      dup5\n        /* \"#utility.yul\":16471:16491   */\n      sub\n        /* \"#utility.yul\":16466:16469   */\n      dup10\n        /* \"#utility.yul\":16459:16492   */\n      mstore\n        /* \"#utility.yul\":16532:16538   */\n      dup2\n        /* \"#utility.yul\":16526:16539   */\n      mload\n        /* \"#utility.yul\":16560:16672   */\n      tag_431\n        /* \"#utility.yul\":16667:16671   */\n      dup6\n        /* \"#utility.yul\":16652:16665   */\n      dup3\n        /* \"#utility.yul\":16560:16672   */\n      tag_236\n      jump\t// in\n    tag_431:\n        /* \"#utility.yul\":16552:16672   */\n      swap5\n      pop\n        /* \"#utility.yul\":16695:16779   */\n      tag_432\n        /* \"#utility.yul\":16772:16778   */\n      dup4\n        /* \"#utility.yul\":16695:16779   */\n      tag_237\n      jump\t// in\n    tag_432:\n        /* \"#utility.yul\":16685:16779   */\n      swap3\n      pop\n        /* \"#utility.yul\":16808:16812   */\n      0x20\n        /* \"#utility.yul\":16803:16806   */\n      dup11\n        /* \"#utility.yul\":16799:16813   */\n      add\n        /* \"#utility.yul\":16792:16813   */\n      swap10\n      pop\n        /* \"#utility.yul\":16445:16823   */\n      pop\n        /* \"#utility.yul\":16432:16433   */\n      0x01\n        /* \"#utility.yul\":16429:16430   */\n      dup2\n        /* \"#utility.yul\":16425:16434   */\n      add\n        /* \"#utility.yul\":16420:16434   */\n      swap1\n      pop\n        /* \"#utility.yul\":16385:16823   */\n      jump(tag_428)\n    tag_430:\n        /* \"#utility.yul\":16389:16403   */\n      pop\n        /* \"#utility.yul\":16839:16843   */\n      dup3\n        /* \"#utility.yul\":16832:16843   */\n      swap8\n      pop\n        /* \"#utility.yul\":16859:16862   */\n      dup8\n        /* \"#utility.yul\":16852:16862   */\n      swap6\n      pop\n        /* \"#utility.yul\":15947:16868   */\n      pop\n      pop\n      pop\n      pop\n      pop\n        /* \"#utility.yul\":15785:16868   */\n      swap3\n      swap2\n      pop\n      pop\n      jump\t// out\n        /* \"#utility.yul\":16874:17226   */\n    tag_239:\n        /* \"#utility.yul\":17041:17051   */\n      0x00\n        /* \"#utility.yul\":17076:17220   */\n      tag_434\n        /* \"#utility.yul\":17216:17219   */\n      dup4\n        /* \"#utility.yul\":17208:17214   */\n      dup4\n        /* \"#utility.yul\":17076:17220   */\n      tag_238\n      jump\t// in\n    tag_434:\n        /* \"#utility.yul\":17062:17220   */\n      swap1\n      pop\n        /* \"#utility.yul\":16874:17226   */\n      swap3\n      swap2\n      pop\n      pop\n      jump\t// out\n        /* \"#utility.yul\":17232:17394   */\n    tag_240:\n        /* \"#utility.yul\":17351:17355   */\n      0x00\n        /* \"#utility.yul\":17383:17387   */\n      0x20\n        /* \"#utility.yul\":17378:17381   */\n      dup3\n        /* \"#utility.yul\":17374:17388   */\n      add\n        /* \"#utility.yul\":17366:17388   */\n      swap1\n      pop\n        /* \"#utility.yul\":17232:17394   */\n      swap2\n      swap1\n      pop\n      jump\t// out\n        /* \"#utility.yul\":17462:18765   */\n    tag_241:\n        /* \"#utility.yul\":17679:17682   */\n      0x00\n        /* \"#utility.yul\":17708:17811   */\n      tag_437\n        /* \"#utility.yul\":17805:17810   */\n      dup3\n        /* \"#utility.yul\":17708:17811   */\n      tag_229\n      jump\t// in\n    tag_437:\n        /* \"#utility.yul\":17827:17962   */\n      tag_438\n        /* \"#utility.yul\":17955:17961   */\n      dup2\n        /* \"#utility.yul\":17950:17953   */\n      dup6\n        /* \"#utility.yul\":17827:17962   */\n      tag_230\n      jump\t// in\n    tag_438:\n        /* \"#utility.yul\":17820:17962   */\n      swap4\n      pop\n        /* \"#utility.yul\":17988:17991   */\n      dup4\n        /* \"#utility.yul\":18033:18037   */\n      0x20\n        /* \"#utility.yul\":18025:18031   */\n      dup3\n        /* \"#utility.yul\":18021:18038   */\n      mul\n        /* \"#utility.yul\":18016:18019   */\n      dup6\n        /* \"#utility.yul\":18012:18039   */\n      add\n        /* \"#utility.yul\":18063:18168   */\n      tag_439\n        /* \"#utility.yul\":18162:18167   */\n      dup6\n        /* \"#utility.yul\":18063:18168   */\n      tag_231\n      jump\t// in\n    tag_439:\n        /* \"#utility.yul\":18191:18198   */\n      dup1\n        /* \"#utility.yul\":18222:18223   */\n      0x00\n        /* \"#utility.yul\":18207:18720   */\n    tag_440:\n        /* \"#utility.yul\":18232:18238   */\n      dup6\n        /* \"#utility.yul\":18229:18230   */\n      dup2\n        /* \"#utility.yul\":18226:18239   */\n      lt\n        /* \"#utility.yul\":18207:18720   */\n      iszero\n      tag_442\n      jumpi\n        /* \"#utility.yul\":18303:18312   */\n      dup5\n        /* \"#utility.yul\":18297:18301   */\n      dup5\n        /* \"#utility.yul\":18293:18313   */\n      sub\n        /* \"#utility.yul\":18288:18291   */\n      dup10\n        /* \"#utility.yul\":18281:18314   */\n      mstore\n        /* \"#utility.yul\":18354:18360   */\n      dup2\n        /* \"#utility.yul\":18348:18361   */\n      mload\n        /* \"#utility.yul\":18382:18544   */\n      tag_443\n        /* \"#utility.yul\":18539:18543   */\n      dup6\n        /* \"#utility.yul\":18524:18537   */\n      dup3\n        /* \"#utility.yul\":18382:18544   */\n      tag_239\n      jump\t// in\n    tag_443:\n        /* \"#utility.yul\":18374:18544   */\n      swap5\n      pop\n        /* \"#utility.yul\":18567:18676   */\n      tag_444\n        /* \"#utility.yul\":18669:18675   */\n      dup4\n        /* \"#utility.yul\":18567:18676   */\n      tag_240\n      jump\t// in\n    tag_444:\n        /* \"#utility.yul\":18557:18676   */\n      swap3\n      pop\n        /* \"#utility.yul\":18705:18709   */\n      0x20\n        /* \"#utility.yul\":18700:18703   */\n      dup11\n        /* \"#utility.yul\":18696:18710   */\n      add\n        /* \"#utility.yul\":18689:18710   */\n      swap10\n      pop\n        /* \"#utility.yul\":18267:18720   */\n      pop\n        /* \"#utility.yul\":18254:18255   */\n      0x01\n        /* \"#utility.yul\":18251:18252   */\n      dup2\n        /* \"#utility.yul\":18247:18256   */\n      add\n        /* \"#utility.yul\":18242:18256   */\n      swap1\n      pop\n        /* \"#utility.yul\":18207:18720   */\n      jump(tag_440)\n    tag_442:\n        /* \"#utility.yul\":18211:18225   */\n      pop\n        /* \"#utility.yul\":18736:18740   */\n      dup3\n        /* \"#utility.yul\":18729:18740   */\n      swap8\n      pop\n        /* \"#utility.yul\":18756:18759   */\n      dup8\n        /* \"#utility.yul\":18749:18759   */\n      swap6\n      pop\n        /* \"#utility.yul\":17684:18765   */\n      pop\n      pop\n      pop\n      pop\n      pop\n        /* \"#utility.yul\":17462:18765   */\n      swap3\n      swap2\n      pop\n      pop\n      jump\t// out\n        /* \"#utility.yul\":18771:20152   */\n    tag_38:\n        /* \"#utility.yul\":19260:19264   */\n      0x00\n        /* \"#utility.yul\":19298:19301   */\n      0x80\n        /* \"#utility.yul\":19287:19296   */\n      dup3\n        /* \"#utility.yul\":19283:19302   */\n      add\n        /* \"#utility.yul\":19275:19302   */\n      swap1\n      pop\n        /* \"#utility.yul\":19348:19357   */\n      dup2\n        /* \"#utility.yul\":19342:19346   */\n      dup2\n        /* \"#utility.yul\":19338:19358   */\n      sub\n        /* \"#utility.yul\":19334:19335   */\n      0x00\n        /* \"#utility.yul\":19323:19332   */\n      dup4\n        /* \"#utility.yul\":19319:19336   */\n      add\n        /* \"#utility.yul\":19312:19359   */\n      mstore\n        /* \"#utility.yul\":19376:19504   */\n      tag_446\n        /* \"#utility.yul\":19499:19503   */\n      dup2\n        /* \"#utility.yul\":19490:19496   */\n      dup8\n        /* \"#utility.yul\":19376:19504   */\n      tag_203\n      jump\t// in\n    tag_446:\n        /* \"#utility.yul\":19368:19504   */\n      swap1\n      pop\n        /* \"#utility.yul\":19551:19560   */\n      dup2\n        /* \"#utility.yul\":19545:19549   */\n      dup2\n        /* \"#utility.yul\":19541:19561   */\n      sub\n        /* \"#utility.yul\":19536:19538   */\n      0x20\n        /* \"#utility.yul\":19525:19534   */\n      dup4\n        /* \"#utility.yul\":19521:19539   */\n      add\n        /* \"#utility.yul\":19514:19562   */\n      mstore\n        /* \"#utility.yul\":19579:19687   */\n      tag_447\n        /* \"#utility.yul\":19682:19686   */\n      dup2\n        /* \"#utility.yul\":19673:19679   */\n      dup7\n        /* \"#utility.yul\":19579:19687   */\n      tag_221\n      jump\t// in\n    tag_447:\n        /* \"#utility.yul\":19571:19687   */\n      swap1\n      pop\n        /* \"#utility.yul\":19734:19743   */\n      dup2\n        /* \"#utility.yul\":19728:19732   */\n      dup2\n        /* \"#utility.yul\":19724:19744   */\n      sub\n        /* \"#utility.yul\":19719:19721   */\n      0x40\n        /* \"#utility.yul\":19708:19717   */\n      dup4\n        /* \"#utility.yul\":19704:19722   */\n      add\n        /* \"#utility.yul\":19697:19745   */\n      mstore\n        /* \"#utility.yul\":19762:19864   */\n      tag_448\n        /* \"#utility.yul\":19859:19863   */\n      dup2\n        /* \"#utility.yul\":19850:19856   */\n      dup6\n        /* \"#utility.yul\":19762:19864   */\n      tag_228\n      jump\t// in\n    tag_448:\n        /* \"#utility.yul\":19754:19864   */\n      swap1\n      pop\n        /* \"#utility.yul\":19911:19920   */\n      dup2\n        /* \"#utility.yul\":19905:19909   */\n      dup2\n        /* \"#utility.yul\":19901:19921   */\n      sub\n        /* \"#utility.yul\":19896:19898   */\n      0x60\n        /* \"#utility.yul\":19885:19894   */\n      dup4\n        /* \"#utility.yul\":19881:19899   */\n      add\n        /* \"#utility.yul\":19874:19922   */\n      mstore\n        /* \"#utility.yul\":19939:20145   */\n      tag_449\n        /* \"#utility.yul\":20140:20144   */\n      dup2\n        /* \"#utility.yul\":20131:20137   */\n      dup5\n        /* \"#utility.yul\":19939:20145   */\n      tag_241\n      jump\t// in\n    tag_449:\n        /* \"#utility.yul\":19931:20145   */\n      swap1\n      pop\n        /* \"#utility.yul\":18771:20152   */\n      swap6\n      swap5\n      pop\n      pop\n      pop\n      pop\n      pop\n      jump\t// out\n        /* \"#utility.yul\":20158:20327   */\n    tag_242:\n        /* \"#utility.yul\":20242:20253   */\n      0x00\n        /* \"#utility.yul\":20276:20282   */\n      dup3\n        /* \"#utility.yul\":20271:20274   */\n      dup3\n        /* \"#utility.yul\":20264:20283   */\n      mstore\n        /* \"#utility.yul\":20316:20320   */\n      0x20\n        /* \"#utility.yul\":20311:20314   */\n      dup3\n        /* \"#utility.yul\":20307:20321   */\n      add\n        /* \"#utility.yul\":20292:20321   */\n      swap1\n      pop\n        /* \"#utility.yul\":20158:20327   */\n      swap3\n      swap2\n      pop\n      pop\n      jump\t// out\n        /* \"#utility.yul\":20333:20710   */\n    tag_243:\n        /* \"#utility.yul\":20421:20424   */\n      0x00\n        /* \"#utility.yul\":20449:20488   */\n      tag_452\n        /* \"#utility.yul\":20482:20487   */\n      dup3\n        /* \"#utility.yul\":20449:20488   */\n      tag_197\n      jump\t// in\n    tag_452:\n        /* \"#utility.yul\":20504:20575   */\n      tag_453\n        /* \"#utility.yul\":20568:20574   */\n      dup2\n        /* \"#utility.yul\":20563:20566   */\n      dup6\n        /* \"#utility.yul\":20504:20575   */\n      tag_242\n      jump\t// in\n    tag_453:\n        /* \"#utility.yul\":20497:20575   */\n      swap4\n      pop\n        /* \"#utility.yul\":20584:20649   */\n      tag_454\n        /* \"#utility.yul\":20642:20648   */\n      dup2\n        /* \"#utility.yul\":20637:20640   */\n      dup6\n        /* \"#utility.yul\":20630:20634   */\n      0x20\n        /* \"#utility.yul\":20623:20628   */\n      dup7\n        /* \"#utility.yul\":20619:20635   */\n      add\n        /* \"#utility.yul\":20584:20649   */\n      tag_199\n      jump\t// in\n    tag_454:\n        /* \"#utility.yul\":20674:20703   */\n      tag_455\n        /* \"#utility.yul\":20696:20702   */\n      dup2\n        /* \"#utility.yul\":20674:20703   */\n      tag_187\n      jump\t// in\n    tag_455:\n        /* \"#utility.yul\":20669:20672   */\n      dup5\n        /* \"#utility.yul\":20665:20704   */\n      add\n        /* \"#utility.yul\":20658:20704   */\n      swap2\n      pop\n        /* \"#utility.yul\":20425:20710   */\n      pop\n        /* \"#utility.yul\":20333:20710   */\n      swap3\n      swap2\n      pop\n      pop\n      jump\t// out\n        /* \"#utility.yul\":20716:20834   */\n    tag_244:\n        /* \"#utility.yul\":20803:20827   */\n      tag_457\n        /* \"#utility.yul\":20821:20826   */\n      dup2\n        /* \"#utility.yul\":20803:20827   */\n      tag_217\n      jump\t// in\n    tag_457:\n        /* \"#utility.yul\":20798:20801   */\n      dup3\n        /* \"#utility.yul\":20791:20828   */\n      mstore\n        /* \"#utility.yul\":20716:20834   */\n      pop\n      pop\n      jump\t// out\n        /* \"#utility.yul\":20840:21361   */\n    tag_43:\n        /* \"#utility.yul\":21003:21007   */\n      0x00\n        /* \"#utility.yul\":21041:21043   */\n      0x60\n        /* \"#utility.yul\":21030:21039   */\n      dup3\n        /* \"#utility.yul\":21026:21044   */\n      add\n        /* \"#utility.yul\":21018:21044   */\n      swap1\n      pop\n        /* \"#utility.yul\":21090:21099   */\n      dup2\n        /* \"#utility.yul\":21084:21088   */\n      dup2\n        /* \"#utility.yul\":21080:21100   */\n      sub\n        /* \"#utility.yul\":21076:21077   */\n      0x00\n        /* \"#utility.yul\":21065:21074   */\n      dup4\n        /* \"#utility.yul\":21061:21078   */\n      add\n        /* \"#utility.yul\":21054:21101   */\n      mstore\n        /* \"#utility.yul\":21118:21196   */\n      tag_459\n        /* \"#utility.yul\":21191:21195   */\n      dup2\n        /* \"#utility.yul\":21182:21188   */\n      dup7\n        /* \"#utility.yul\":21118:21196   */\n      tag_243\n      jump\t// in\n    tag_459:\n        /* \"#utility.yul\":21110:21196   */\n      swap1\n      pop\n        /* \"#utility.yul\":21206:21278   */\n      tag_460\n        /* \"#utility.yul\":21274:21276   */\n      0x20\n        /* \"#utility.yul\":21263:21272   */\n      dup4\n        /* \"#utility.yul\":21259:21277   */\n      add\n        /* \"#utility.yul\":21250:21256   */\n      dup6\n        /* \"#utility.yul\":21206:21278   */\n      tag_244\n      jump\t// in\n    tag_460:\n        /* \"#utility.yul\":21288:21354   */\n      tag_461\n        /* \"#utility.yul\":21350:21352   */\n      0x40\n        /* \"#utility.yul\":21339:21348   */\n      dup4\n        /* \"#utility.yul\":21335:21353   */\n      add\n        /* \"#utility.yul\":21326:21332   */\n      dup5\n        /* \"#utility.yul\":21288:21354   */\n      tag_212\n      jump\t// in\n    tag_461:\n        /* \"#utility.yul\":20840:21361   */\n      swap5\n      swap4\n      pop\n      pop\n      pop\n      pop\n      jump\t// out\n        /* \"#utility.yul\":21367:21841   */\n    tag_46:\n        /* \"#utility.yul\":21435:21441   */\n      0x00\n        /* \"#utility.yul\":21443:21449   */\n      dup1\n        /* \"#utility.yul\":21492:21494   */\n      0x40\n        /* \"#utility.yul\":21480:21489   */\n      dup4\n        /* \"#utility.yul\":21471:21478   */\n      dup6\n        /* \"#utility.yul\":21467:21490   */\n      sub\n        /* \"#utility.yul\":21463:21495   */\n      slt\n        /* \"#utility.yul\":21460:21579   */\n      iszero\n      tag_463\n      jumpi\n        /* \"#utility.yul\":21498:21577   */\n      tag_464\n      tag_181\n      jump\t// in\n    tag_464:\n        /* \"#utility.yul\":21460:21579   */\n    tag_463:\n        /* \"#utility.yul\":21618:21619   */\n      0x00\n        /* \"#utility.yul\":21643:21696   */\n      tag_465\n        /* \"#utility.yul\":21688:21695   */\n      dup6\n        /* \"#utility.yul\":21679:21685   */\n      dup3\n        /* \"#utility.yul\":21668:21677   */\n      dup7\n        /* \"#utility.yul\":21664:21686   */\n      add\n        /* \"#utility.yul\":21643:21696   */\n      tag_184\n      jump\t// in\n    tag_465:\n        /* \"#utility.yul\":21633:21696   */\n      swap3\n      pop\n        /* \"#utility.yul\":21589:21706   */\n      pop\n        /* \"#utility.yul\":21745:21747   */\n      0x20\n        /* \"#utility.yul\":21771:21824   */\n      tag_466\n        /* \"#utility.yul\":21816:21823   */\n      dup6\n        /* \"#utility.yul\":21807:21813   */\n      dup3\n        /* \"#utility.yul\":21796:21805   */\n      dup7\n        /* \"#utility.yul\":21792:21814   */\n      add\n        /* \"#utility.yul\":21771:21824   */\n      tag_184\n      jump\t// in\n    tag_466:\n        /* \"#utility.yul\":21761:21824   */\n      swap2\n      pop\n        /* \"#utility.yul\":21716:21834   */\n      pop\n        /* \"#utility.yul\":21367:21841   */\n      swap3\n      pop\n      swap3\n      swap1\n      pop\n      jump\t// out\n        /* \"#utility.yul\":21847:22027   */\n    tag_52:\n        /* \"#utility.yul\":21895:21972   */\n      0x4e487b7100000000000000000000000000000000000000000000000000000000\n        /* \"#utility.yul\":21892:21893   */\n      0x00\n        /* \"#utility.yul\":21885:21973   */\n      mstore\n        /* \"#utility.yul\":21992:21996   */\n      0x32\n        /* \"#utility.yul\":21989:21990   */\n      0x04\n        /* \"#utility.yul\":21982:21997   */\n      mstore\n        /* \"#utility.yul\":22016:22020   */\n      0x24\n        /* \"#utility.yul\":22013:22014   */\n      0x00\n        /* \"#utility.yul\":22006:22021   */\n      revert\n        /* \"#utility.yul\":22033:22253   */\n    tag_245:\n        /* \"#utility.yul\":22173:22207   */\n      0x4f6e6c7920746865206f776e65722063616e206164642063616e646964617465\n        /* \"#utility.yul\":22169:22170   */\n      0x00\n        /* \"#utility.yul\":22161:22167   */\n      dup3\n        /* \"#utility.yul\":22157:22171   */\n      add\n        /* \"#utility.yul\":22150:22208   */\n      mstore\n        /* \"#utility.yul\":22242:22245   */\n      0x7300000000000000000000000000000000000000000000000000000000000000\n        /* \"#utility.yul\":22237:22239   */\n      0x20\n        /* \"#utility.yul\":22229:22235   */\n      dup3\n        /* \"#utility.yul\":22225:22240   */\n      add\n        /* \"#utility.yul\":22218:22246   */\n      mstore\n        /* \"#utility.yul\":22033:22253   */\n      pop\n      jump\t// out\n        /* \"#utility.yul\":22259:22625   */\n    tag_246:\n        /* \"#utility.yul\":22401:22404   */\n      0x00\n        /* \"#utility.yul\":22422:22489   */\n      tag_470\n        /* \"#utility.yul\":22486:22488   */\n      0x21\n        /* \"#utility.yul\":22481:22484   */\n      dup4\n        /* \"#utility.yul\":22422:22489   */\n      tag_242\n      jump\t// in\n    tag_470:\n        /* \"#utility.yul\":22415:22489   */\n      swap2\n      pop\n        /* \"#utility.yul\":22498:22591   */\n      tag_471\n        /* \"#utility.yul\":22587:22590   */\n      dup3\n        /* \"#utility.yul\":22498:22591   */\n      tag_245\n      jump\t// in\n    tag_471:\n        /* \"#utility.yul\":22616:22618   */\n      0x40\n        /* \"#utility.yul\":22611:22614   */\n      dup3\n        /* \"#utility.yul\":22607:22619   */\n      add\n        /* \"#utility.yul\":22600:22619   */\n      swap1\n      pop\n        /* \"#utility.yul\":22259:22625   */\n      swap2\n      swap1\n      pop\n      jump\t// out\n        /* \"#utility.yul\":22631:23050   */\n    tag_56:\n        /* \"#utility.yul\":22797:22801   */\n      0x00\n        /* \"#utility.yul\":22835:22837   */\n      0x20\n        /* \"#utility.yul\":22824:22833   */\n      dup3\n        /* \"#utility.yul\":22820:22838   */\n      add\n        /* \"#utility.yul\":22812:22838   */\n      swap1\n      pop\n        /* \"#utility.yul\":22884:22893   */\n      dup2\n        /* \"#utility.yul\":22878:22882   */\n      dup2\n        /* \"#utility.yul\":22874:22894   */\n      sub\n        /* \"#utility.yul\":22870:22871   */\n      0x00\n        /* \"#utility.yul\":22859:22868   */\n      dup4\n        /* \"#utility.yul\":22855:22872   */\n      add\n        /* \"#utility.yul\":22848:22895   */\n      mstore\n        /* \"#utility.yul\":22912:23043   */\n      tag_473\n        /* \"#utility.yul\":23038:23042   */\n      dup2\n        /* \"#utility.yul\":22912:23043   */\n      tag_246\n      jump\t// in\n    tag_473:\n        /* \"#utility.yul\":22904:23043   */\n      swap1\n      pop\n        /* \"#utility.yul\":22631:23050   */\n      swap2\n      swap1\n      pop\n      jump\t// out\n        /* \"#utility.yul\":23056:23236   */\n    tag_247:\n        /* \"#utility.yul\":23104:23181   */\n      0x4e487b7100000000000000000000000000000000000000000000000000000000\n        /* \"#utility.yul\":23101:23102   */\n      0x00\n        /* \"#utility.yul\":23094:23182   */\n      mstore\n        /* \"#utility.yul\":23201:23205   */\n      0x22\n        /* \"#utility.yul\":23198:23199   */\n      0x04\n        /* \"#utility.yul\":23191:23206   */\n      mstore\n        /* \"#utility.yul\":23225:23229   */\n      0x24\n        /* \"#utility.yul\":23222:23223   */\n      0x00\n        /* \"#utility.yul\":23215:23230   */\n      revert\n        /* \"#utility.yul\":23242:23562   */\n    tag_79:\n        /* \"#utility.yul\":23286:23292   */\n      0x00\n        /* \"#utility.yul\":23323:23324   */\n      0x02\n        /* \"#utility.yul\":23317:23321   */\n      dup3\n        /* \"#utility.yul\":23313:23325   */\n      div\n        /* \"#utility.yul\":23303:23325   */\n      swap1\n      pop\n        /* \"#utility.yul\":23370:23371   */\n      0x01\n        /* \"#utility.yul\":23364:23368   */\n      dup3\n        /* \"#utility.yul\":23360:23372   */\n      and\n        /* \"#utility.yul\":23391:23409   */\n      dup1\n        /* \"#utility.yul\":23381:23462   */\n      tag_476\n      jumpi\n        /* \"#utility.yul\":23447:23451   */\n      0x7f\n        /* \"#utility.yul\":23439:23445   */\n      dup3\n        /* \"#utility.yul\":23435:23452   */\n      and\n        /* \"#utility.yul\":23425:23452   */\n      swap2\n      pop\n        /* \"#utility.yul\":23381:23462   */\n    tag_476:\n        /* \"#utility.yul\":23509:23511   */\n      0x20\n        /* \"#utility.yul\":23501:23507   */\n      dup3\n        /* \"#utility.yul\":23498:23512   */\n      lt\n        /* \"#utility.yul\":23478:23496   */\n      dup2\n        /* \"#utility.yul\":23475:23513   */\n      sub\n        /* \"#utility.yul\":23472:23556   */\n      tag_477\n      jumpi\n        /* \"#utility.yul\":23528:23546   */\n      tag_478\n      tag_247\n      jump\t// in\n    tag_478:\n        /* \"#utility.yul\":23472:23556   */\n    tag_477:\n        /* \"#utility.yul\":23293:23562   */\n      pop\n        /* \"#utility.yul\":23242:23562   */\n      swap2\n      swap1\n      pop\n      jump\t// out\n        /* \"#utility.yul\":23568:23709   */\n    tag_248:\n        /* \"#utility.yul\":23617:23621   */\n      0x00\n        /* \"#utility.yul\":23640:23643   */\n      dup2\n        /* \"#utility.yul\":23632:23643   */\n      swap1\n      pop\n        /* \"#utility.yul\":23663:23666   */\n      dup2\n        /* \"#utility.yul\":23660:23661   */\n      0x00\n        /* \"#utility.yul\":23653:23667   */\n      mstore\n        /* \"#utility.yul\":23697:23701   */\n      0x20\n        /* \"#utility.yul\":23694:23695   */\n      0x00\n        /* \"#utility.yul\":23684:23702   */\n      keccak256\n        /* \"#utility.yul\":23676:23702   */\n      swap1\n      pop\n        /* \"#utility.yul\":23568:23709   */\n      swap2\n      swap1\n      pop\n      jump\t// out\n        /* \"#utility.yul\":23715:23808   */\n    tag_249:\n        /* \"#utility.yul\":23752:23758   */\n      0x00\n        /* \"#utility.yul\":23799:23801   */\n      0x20\n        /* \"#utility.yul\":23794:23796   */\n      0x1f\n        /* \"#utility.yul\":23787:23792   */\n      dup4\n        /* \"#utility.yul\":23783:23797   */\n      add\n        /* \"#utility.yul\":23779:23802   */\n      div\n        /* \"#utility.yul\":23769:23802   */\n      swap1\n      pop\n        /* \"#utility.yul\":23715:23808   */\n      swap2\n      swap1\n      pop\n      jump\t// out\n        /* \"#utility.yul\":23814:23921   */\n    tag_250:\n        /* \"#utility.yul\":23858:23866   */\n      0x00\n        /* \"#utility.yul\":23908:23913   */\n      dup3\n        /* \"#utility.yul\":23902:23906   */\n      dup3\n        /* \"#utility.yul\":23898:23914   */\n      shl\n        /* \"#utility.yul\":23877:23914   */\n      swap1\n      pop\n        /* \"#utility.yul\":23814:23921   */\n      swap3\n      swap2\n      pop\n      pop\n      jump\t// out\n        /* \"#utility.yul\":23927:24320   */\n    tag_251:\n        /* \"#utility.yul\":23996:24002   */\n      0x00\n        /* \"#utility.yul\":24046:24047   */\n      0x08\n        /* \"#utility.yul\":24034:24044   */\n      dup4\n        /* \"#utility.yul\":24030:24048   */\n      mul\n        /* \"#utility.yul\":24069:24166   */\n      tag_483\n        /* \"#utility.yul\":24099:24165   */\n      0xffffffffffffffffffffffffffffffffffffffffffffffffffffffffffffffff\n        /* \"#utility.yul\":24088:24097   */\n      dup3\n        /* \"#utility.yul\":24069:24166   */\n      tag_250\n      jump\t// in\n    tag_483:\n        /* \"#utility.yul\":24187:24226   */\n      tag_484\n        /* \"#utility.yul\":24217:24225   */\n      dup7\n        /* \"#utility.yul\":24206:24215   */\n      dup4\n        /* \"#utility.yul\":24187:24226   */\n      tag_250\n      jump\t// in\n    tag_484:\n        /* \"#utility.yul\":24175:24226   */\n      swap6\n      pop\n        /* \"#utility.yul\":24259:24263   */\n      dup1\n        /* \"#utility.yul\":24255:24264   */\n      not\n        /* \"#utility.yul\":24248:24253   */\n      dup5\n        /* \"#utility.yul\":24244:24265   */\n      and\n        /* \"#utility.yul\":24235:24265   */\n      swap4\n      pop\n        /* \"#utility.yul\":24308:24312   */\n      dup1\n        /* \"#utility.yul\":24298:24306   */\n      dup7\n        /* \"#utility.yul\":24294:24313   */\n      and\n        /* \"#utility.yul\":24287:24292   */\n      dup5\n        /* \"#utility.yul\":24284:24314   */\n      or\n        /* \"#utility.yul\":24274:24314   */\n      swap3\n      pop\n        /* \"#utility.yul\":24003:24320   */\n      pop\n      pop\n        /* \"#utility.yul\":23927:24320   */\n      swap4\n      swap3\n      pop\n      pop\n      pop\n      jump\t// out\n        /* \"#utility.yul\":24326:24386   */\n    tag_252:\n        /* \"#utility.yul\":24354:24357   */\n      0x00\n        /* \"#utility.yul\":24375:24380   */\n      dup2\n        /* \"#utility.yul\":24368:24380   */\n      swap1\n      pop\n        /* \"#utility.yul\":24326:24386   */\n      swap2\n      swap1\n      pop\n      jump\t// out\n        /* \"#utility.yul\":24392:24534   */\n    tag_253:\n        /* \"#utility.yul\":24442:24451   */\n      0x00\n        /* \"#utility.yul\":24475:24528   */\n      tag_487\n        /* \"#utility.yul\":24493:24527   */\n      tag_488\n        /* \"#utility.yul\":24502:24526   */\n      tag_489\n        /* \"#utility.yul\":24520:24525   */\n      dup5\n        /* \"#utility.yul\":24502:24526   */\n      tag_178\n      jump\t// in\n    tag_489:\n        /* \"#utility.yul\":24493:24527   */\n      tag_252\n      jump\t// in\n    tag_488:\n        /* \"#utility.yul\":24475:24528   */\n      tag_178\n      jump\t// in\n    tag_487:\n        /* \"#utility.yul\":24462:24528   */\n      swap1\n      pop\n        /* \"#utility.yul\":24392:24534   */\n      swap2\n      swap1\n      pop\n      jump\t// out\n        /* \"#utility.yul\":24540:24615   */\n    tag_254:\n        /* \"#utility.yul\":24583:24586   */\n      0x00\n        /* \"#utility.yul\":24604:24609   */\n      dup2\n        /* \"#utility.yul\":24597:24609   */\n      swap1\n      pop\n        /* \"#utility.yul\":24540:24615   */\n      swap2\n      swap1\n      pop\n      jump\t// out\n        /* \"#utility.yul\":24621:24890   */\n    tag_255:\n        /* \"#utility.yul\":24731:24770   */\n      tag_492\n        /* \"#utility.yul\":24762:24769   */\n      dup4\n        /* \"#utility.yul\":24731:24770   */\n      tag_253\n      jump\t// in\n    tag_492:\n        /* \"#utility.yul\":24792:24883   */\n      tag_493\n        /* \"#utility.yul\":24841:24882   */\n      tag_494\n        /* \"#utility.yul\":24865:24881   */\n      dup3\n        /* \"#utility.yul\":24841:24882   */\n      tag_254\n      jump\t// in\n    tag_494:\n        /* \"#utility.yul\":24833:24839   */\n      dup5\n        /* \"#utility.yul\":24826:24830   */\n      dup5\n        /* \"#utility.yul\":24820:24831   */\n      sload\n        /* \"#utility.yul\":24792:24883   */\n      tag_251\n      jump\t// in\n    tag_493:\n        /* \"#utility.yul\":24786:24790   */\n      dup3\n        /* \"#utility.yul\":24779:24884   */\n      sstore\n        /* \"#utility.yul\":24697:24890   */\n      pop\n        /* \"#utility.yul\":24621:24890   */\n      pop\n      pop\n      pop\n      jump\t// out\n        /* \"#utility.yul\":24896:24969   */\n    tag_256:\n        /* \"#utility.yul\":24941:24944   */\n      0x00\n        /* \"#utility.yul\":24896:24969   */\n      swap1\n      jump\t// out\n        /* \"#utility.yul\":24975:25164   */\n    tag_257:\n        /* \"#utility.yul\":25052:25084   */\n      tag_497\n      tag_256\n      jump\t// in\n    tag_497:\n        /* \"#utility.yul\":25093:25158   */\n      tag_498\n        /* \"#utility.yul\":25151:25157   */\n      dup2\n        /* \"#utility.yul\":25143:25149   */\n      dup5\n        /* \"#utility.yul\":25137:25141   */\n      dup5\n        /* \"#utility.yul\":25093:25158   */\n      tag_255\n      jump\t// in\n    tag_498:\n        /* \"#utility.yul\":25028:25164   */\n      pop\n        /* \"#utility.yul\":24975:25164   */\n      pop\n      pop\n      jump\t// out\n        /* \"#utility.yul\":25170:25356   */\n    tag_258:\n        /* \"#utility.yul\":25230:25350   */\n    tag_500:\n        /* \"#utility.yul\":25247:25250   */\n      dup2\n        /* \"#utility.yul\":25240:25245   */\n      dup2\n        /* \"#utility.yul\":25237:25251   */\n      lt\n        /* \"#utility.yul\":25230:25350   */\n      iszero\n      tag_502\n      jumpi\n        /* \"#utility.yul\":25301:25340   */\n      tag_503\n        /* \"#utility.yul\":25338:25339   */\n      0x00\n        /* \"#utility.yul\":25331:25336   */\n      dup3\n        /* \"#utility.yul\":25301:25340   */\n      tag_257\n      jump\t// in\n    tag_503:\n        /* \"#utility.yul\":25274:25275   */\n      0x01\n        /* \"#utility.yul\":25267:25272   */\n      dup2\n        /* \"#utility.yul\":25263:25276   */\n      add\n        /* \"#utility.yul\":25254:25276   */\n      swap1\n      pop\n        /* \"#utility.yul\":25230:25350   */\n      jump(tag_500)\n    tag_502:\n        /* \"#utility.yul\":25170:25356   */\n      pop\n      pop\n      jump\t// out\n        /* \"#utility.yul\":25362:25905   */\n    tag_259:\n        /* \"#utility.yul\":25463:25465   */\n      0x1f\n        /* \"#utility.yul\":25458:25461   */\n      dup3\n        /* \"#utility.yul\":25455:25466   */\n      gt\n        /* \"#utility.yul\":25452:25898   */\n      iszero\n      tag_505\n      jumpi\n        /* \"#utility.yul\":25497:25535   */\n      tag_506\n        /* \"#utility.yul\":25529:25534   */\n      dup2\n        /* \"#utility.yul\":25497:25535   */\n      tag_248\n      jump\t// in\n    tag_506:\n        /* \"#utility.yul\":25581:25610   */\n      tag_507\n        /* \"#utility.yul\":25599:25609   */\n      dup5\n        /* \"#utility.yul\":25581:25610   */\n      tag_249\n      jump\t// in\n    tag_507:\n        /* \"#utility.yul\":25571:25579   */\n      dup2\n        /* \"#utility.yul\":25567:25611   */\n      add\n        /* \"#utility.yul\":25764:25766   */\n      0x20\n        /* \"#utility.yul\":25752:25762   */\n      dup6\n        /* \"#utility.yul\":25749:25767   */\n      lt\n        /* \"#utility.yul\":25746:25795   */\n      iszero\n      tag_508\n      jumpi\n        /* \"#utility.yul\":25785:25793   */\n      dup2\n        /* \"#utility.yul\":25770:25793   */\n      swap1\n      pop\n        /* \"#utility.yul\":25746:25795   */\n    tag_508:\n        /* \"#utility.yul\":25808:25888   */\n      tag_509\n        /* \"#utility.yul\":25864:25886   */\n      tag_510\n        /* \"#utility.yul\":25882:25885   */\n      dup6\n        /* \"#utility.yul\":25864:25886   */\n      tag_249\n      jump\t// in\n    tag_510:\n        /* \"#utility.yul\":25854:25862   */\n      dup4\n        /* \"#utility.yul\":25850:25887   */\n      add\n        /* \"#utility.yul\":25837:25848   */\n      dup3\n        /* \"#utility.yul\":25808:25888   */\n      tag_258\n      jump\t// in\n    tag_509:\n        /* \"#utility.yul\":25467:25898   */\n      pop\n      pop\n        /* \"#utility.yul\":25452:25898   */\n    tag_505:\n        /* \"#utility.yul\":25362:25905   */\n      pop\n      pop\n      pop\n      jump\t// out\n        /* \"#utility.yul\":25911:26028   */\n    tag_260:\n        /* \"#utility.yul\":25965:25973   */\n      0x00\n        /* \"#utility.yul\":26015:26020   */\n      dup3\n        /* \"#utility.yul\":26009:26013   */\n      dup3\n        /* \"#utility.yul\":26005:26021   */\n      shr\n        /* \"#utility.yul\":25984:26021   */\n      swap1\n      pop\n        /* \"#utility.yul\":25911:26028   */\n      swap3\n      swap2\n      pop\n      pop\n      jump\t// out\n        /* \"#utility.yul\":26034:26203   */\n    tag_261:\n        /* \"#utility.yul\":26078:26084   */\n      0x00\n        /* \"#utility.yul\":26111:26162   */\n      tag_513\n        /* \"#utility.yul\":26159:26160   */\n      0x00\n        /* \"#utility.yul\":26155:26161   */\n      not\n        /* \"#utility.yul\":26147:26152   */\n      dup5\n        /* \"#utility.yul\":26144:26145   */\n      0x08\n        /* \"#utility.yul\":26140:26153   */\n      mul\n        /* \"#utility.yul\":26111:26162   */\n      tag_260\n      jump\t// in\n    tag_513:\n        /* \"#utility.yul\":26107:26163   */\n      not\n        /* \"#utility.yul\":26192:26196   */\n      dup1\n        /* \"#utility.yul\":26186:26190   */\n      dup4\n        /* \"#utility.yul\":26182:26197   */\n      and\n        /* \"#utility.yul\":26172:26197   */\n      swap2\n      pop\n        /* \"#utility.yul\":26085:26203   */\n      pop\n        /* \"#utility.yul\":26034:26203   */\n      swap3\n      swap2\n      pop\n      pop\n      jump\t// out\n        /* \"#utility.yul\":26208:26503   */\n    tag_262:\n        /* \"#utility.yul\":26284:26288   */\n      0x00\n        /* \"#utility.yul\":26430:26459   */\n      tag_515\n        /* \"#utility.yul\":26455:26458   */\n      dup4\n        /* \"#utility.yul\":26449:26453   */\n      dup4\n        /* \"#utility.yul\":26430:26459   */\n      tag_261\n      jump\t// in\n    tag_515:\n        /* \"#utility.yul\":26422:26459   */\n      swap2\n      pop\n        /* \"#utility.yul\":26492:26495   */\n      dup3\n        /* \"#utility.yul\":26489:26490   */\n      0x02\n        /* \"#utility.yul\":26485:26496   */\n      mul\n        /* \"#utility.yul\":26479:26483   */\n      dup3\n        /* \"#utility.yul\":26476:26497   */\n      or\n        /* \"#utility.yul\":26468:26497   */\n      swap1\n      pop\n        /* \"#utility.yul\":26208:26503   */\n      swap3\n      swap2\n      pop\n      pop\n      jump\t// out\n        /* \"#utility.yul\":26508:27903   */\n    tag_59:\n        /* \"#utility.yul\":26625:26662   */\n      tag_517\n        /* \"#utility.yul\":26658:26661   */\n      dup3\n        /* \"#utility.yul\":26625:26662   */\n      tag_197\n      jump\t// in\n    tag_517:\n        /* \"#utility.yul\":26727:26745   */\n      0xffffffffffffffff\n        /* \"#utility.yul\":26719:26725   */\n      dup2\n        /* \"#utility.yul\":26716:26746   */\n      gt\n        /* \"#utility.yul\":26713:26769   */\n      iszero\n      tag_518\n      jumpi\n        /* \"#utility.yul\":26749:26767   */\n      tag_519\n      tag_66\n      jump\t// in\n    tag_519:\n        /* \"#utility.yul\":26713:26769   */\n    tag_518:\n        /* \"#utility.yul\":26793:26831   */\n      tag_520\n        /* \"#utility.yul\":26825:26829   */\n      dup3\n        /* \"#utility.yul\":26819:26830   */\n      sload\n        /* \"#utility.yul\":26793:26831   */\n      tag_79\n      jump\t// in\n    tag_520:\n        /* \"#utility.yul\":26878:26945   */\n      tag_521\n        /* \"#utility.yul\":26938:26944   */\n      dup3\n        /* \"#utility.yul\":26930:26936   */\n      dup3\n        /* \"#utility.yul\":26924:26928   */\n      dup6\n        /* \"#utility.yul\":26878:26945   */\n      tag_259\n      jump\t// in\n    tag_521:\n        /* \"#utility.yul\":26972:26973   */\n      0x00\n        /* \"#utility.yul\":26996:27000   */\n      0x20\n        /* \"#utility.yul\":26983:27000   */\n      swap1\n      pop\n        /* \"#utility.yul\":27028:27030   */\n      0x1f\n        /* \"#utility.yul\":27020:27026   */\n      dup4\n        /* \"#utility.yul\":27017:27031   */\n      gt\n        /* \"#utility.yul\":27045:27046   */\n      0x01\n        /* \"#utility.yul\":27040:27658   */\n      dup2\n      eq\n      tag_523\n      jumpi\n        /* \"#utility.yul\":27702:27703   */\n      0x00\n        /* \"#utility.yul\":27719:27725   */\n      dup5\n        /* \"#utility.yul\":27716:27793   */\n      iszero\n      tag_524\n      jumpi\n        /* \"#utility.yul\":27768:27777   */\n      dup3\n        /* \"#utility.yul\":27763:27766   */\n      dup8\n        /* \"#utility.yul\":27759:27778   */\n      add\n        /* \"#utility.yul\":27753:27779   */\n      mload\n        /* \"#utility.yul\":27744:27779   */\n      swap1\n      pop\n        /* \"#utility.yul\":27716:27793   */\n    tag_524:\n        /* \"#utility.yul\":27819:27886   */\n      tag_525\n        /* \"#utility.yul\":27879:27885   */\n      dup6\n        /* \"#utility.yul\":27872:27877   */\n      dup3\n        /* \"#utility.yul\":27819:27886   */\n      tag_262\n      jump\t// in\n    tag_525:\n        /* \"#utility.yul\":27813:27817   */\n      dup7\n        /* \"#utility.yul\":27806:27887   */\n      sstore\n        /* \"#utility.yul\":27675:27897   */\n      pop\n        /* \"#utility.yul\":27010:27897   */\n      jump(tag_522)\n        /* \"#utility.yul\":27040:27658   */\n    tag_523:\n        /* \"#utility.yul\":27092:27096   */\n      0x1f\n        /* \"#utility.yul\":27088:27097   */\n      not\n        /* \"#utility.yul\":27080:27086   */\n      dup5\n        /* \"#utility.yul\":27076:27098   */\n      and\n        /* \"#utility.yul\":27126:27163   */\n      tag_526\n        /* \"#utility.yul\":27158:27162   */\n      dup7\n        /* \"#utility.yul\":27126:27163   */\n      tag_248\n      jump\t// in\n    tag_526:\n        /* \"#utility.yul\":27185:27186   */\n      0x00\n        /* \"#utility.yul\":27199:27407   */\n    tag_527:\n        /* \"#utility.yul\":27213:27220   */\n      dup3\n        /* \"#utility.yul\":27210:27211   */\n      dup2\n        /* \"#utility.yul\":27207:27221   */\n      lt\n        /* \"#utility.yul\":27199:27407   */\n      iszero\n      tag_529\n      jumpi\n        /* \"#utility.yul\":27292:27301   */\n      dup5\n        /* \"#utility.yul\":27287:27290   */\n      dup10\n        /* \"#utility.yul\":27283:27302   */\n      add\n        /* \"#utility.yul\":27277:27303   */\n      mload\n        /* \"#utility.yul\":27269:27275   */\n      dup3\n        /* \"#utility.yul\":27262:27304   */\n      sstore\n        /* \"#utility.yul\":27343:27344   */\n      0x01\n        /* \"#utility.yul\":27335:27341   */\n      dup3\n        /* \"#utility.yul\":27331:27345   */\n      add\n        /* \"#utility.yul\":27321:27345   */\n      swap2\n      pop\n        /* \"#utility.yul\":27390:27392   */\n      0x20\n        /* \"#utility.yul\":27379:27388   */\n      dup6\n        /* \"#utility.yul\":27375:27393   */\n      add\n        /* \"#utility.yul\":27362:27393   */\n      swap5\n      pop\n        /* \"#utility.yul\":27236:27240   */\n      0x20\n        /* \"#utility.yul\":27233:27234   */\n      dup2\n        /* \"#utility.yul\":27229:27241   */\n      add\n        /* \"#utility.yul\":27224:27241   */\n      swap1\n      pop\n        /* \"#utility.yul\":27199:27407   */\n      jump(tag_527)\n    tag_529:\n        /* \"#utility.yul\":27435:27441   */\n      dup7\n        /* \"#utility.yul\":27426:27433   */\n      dup4\n        /* \"#utility.yul\":27423:27442   */\n      lt\n        /* \"#utility.yul\":27420:27599   */\n      iszero\n      tag_530\n      jumpi\n        /* \"#utility.yul\":27493:27502   */\n      dup5\n        /* \"#utility.yul\":27488:27491   */\n      dup10\n        /* \"#utility.yul\":27484:27503   */\n      add\n        /* \"#utility.yul\":27478:27504   */\n      mload\n        /* \"#utility.yul\":27536:27584   */\n      tag_531\n        /* \"#utility.yul\":27578:27582   */\n      0x1f\n        /* \"#utility.yul\":27570:27576   */\n      dup10\n        /* \"#utility.yul\":27566:27583   */\n      and\n        /* \"#utility.yul\":27555:27564   */\n      dup3\n        /* \"#utility.yul\":27536:27584   */\n      tag_261\n      jump\t// in\n    tag_531:\n        /* \"#utility.yul\":27528:27534   */\n      dup4\n        /* \"#utility.yul\":27521:27585   */\n      sstore\n        /* \"#utility.yul\":27443:27599   */\n      pop\n        /* \"#utility.yul\":27420:27599   */\n    tag_530:\n        /* \"#utility.yul\":27645:27646   */\n      0x01\n        /* \"#utility.yul\":27641:27642   */\n      0x02\n        /* \"#utility.yul\":27633:27639   */\n      dup9\n        /* \"#utility.yul\":27629:27643   */\n      mul\n        /* \"#utility.yul\":27625:27647   */\n      add\n        /* \"#utility.yul\":27619:27623   */\n      dup9\n        /* \"#utility.yul\":27612:27648   */\n      sstore\n        /* \"#utility.yul\":27047:27658   */\n      pop\n      pop\n      pop\n        /* \"#utility.yul\":27010:27897   */\n    tag_522:\n      pop\n        /* \"#utility.yul\":26600:27903   */\n      pop\n      pop\n      pop\n        /* \"#utility.yul\":26508:27903   */\n      pop\n      pop\n      jump\t// out\n        /* \"#utility.yul\":27909:28089   */\n    tag_263:\n        /* \"#utility.yul\":27957:28034   */\n      0x4e487b7100000000000000000000000000000000000000000000000000000000\n        /* \"#utility.yul\":27954:27955   */\n      0x00\n        /* \"#utility.yul\":27947:28035   */\n      mstore\n        /* \"#utility.yul\":28054:28058   */\n      0x11\n        /* \"#utility.yul\":28051:28052   */\n      0x04\n        /* \"#utility.yul\":28044:28059   */\n      mstore\n        /* \"#utility.yul\":28078:28082   */\n      0x24\n        /* \"#utility.yul\":28075:28076   */\n      0x00\n        /* \"#utility.yul\":28068:28083   */\n      revert\n        /* \"#utility.yul\":28095:28289   */\n    tag_95:\n        /* \"#utility.yul\":28135:28139   */\n      0x00\n        /* \"#utility.yul\":28155:28175   */\n      tag_534\n        /* \"#utility.yul\":28173:28174   */\n      dup3\n        /* \"#utility.yul\":28155:28175   */\n      tag_178\n      jump\t// in\n    tag_534:\n        /* \"#utility.yul\":28150:28175   */\n      swap2\n      pop\n        /* \"#utility.yul\":28189:28209   */\n      tag_535\n        /* \"#utility.yul\":28207:28208   */\n      dup4\n        /* \"#utility.yul\":28189:28209   */\n      tag_178\n      jump\t// in\n    tag_535:\n        /* \"#utility.yul\":28184:28209   */\n      swap3\n      pop\n        /* \"#utility.yul\":28233:28234   */\n      dup3\n        /* \"#utility.yul\":28230:28231   */\n      dup3\n        /* \"#utility.yul\":28226:28235   */\n      sub\n        /* \"#utility.yul\":28218:28235   */\n      swap1\n      pop\n        /* \"#utility.yul\":28257:28258   */\n      dup2\n        /* \"#utility.yul\":28251:28255   */\n      dup2\n        /* \"#utility.yul\":28248:28259   */\n      gt\n        /* \"#utility.yul\":28245:28282   */\n      iszero\n      tag_536\n      jumpi\n        /* \"#utility.yul\":28262:28280   */\n      tag_537\n      tag_263\n      jump\t// in\n    tag_537:\n        /* \"#utility.yul\":28245:28282   */\n    tag_536:\n        /* \"#utility.yul\":28095:28289   */\n      swap3\n      swap2\n      pop\n      pop\n      jump\t// out\n        /* \"#utility.yul\":28295:28828   */\n    tag_97:\n        /* \"#utility.yul\":28464:28468   */\n      0x00\n        /* \"#utility.yul\":28502:28504   */\n      0x60\n        /* \"#utility.yul\":28491:28500   */\n      dup3\n        /* \"#utility.yul\":28487:28505   */\n      add\n        /* \"#utility.yul\":28479:28505   */\n      swap1\n      pop\n        /* \"#utility.yul\":28515:28586   */\n      tag_539\n        /* \"#utility.yul\":28583:28584   */\n      0x00\n        /* \"#utility.yul\":28572:28581   */\n      dup4\n        /* \"#utility.yul\":28568:28585   */\n      add\n        /* \"#utility.yul\":28559:28565   */\n      dup7\n        /* \"#utility.yul\":28515:28586   */\n      tag_179\n      jump\t// in\n    tag_539:\n        /* \"#utility.yul\":28633:28642   */\n      dup2\n        /* \"#utility.yul\":28627:28631   */\n      dup2\n        /* \"#utility.yul\":28623:28643   */\n      sub\n        /* \"#utility.yul\":28618:28620   */\n      0x20\n        /* \"#utility.yul\":28607:28616   */\n      dup4\n        /* \"#utility.yul\":28603:28621   */\n      add\n        /* \"#utility.yul\":28596:28644   */\n      mstore\n        /* \"#utility.yul\":28661:28739   */\n      tag_540\n        /* \"#utility.yul\":28734:28738   */\n      dup2\n        /* \"#utility.yul\":28725:28731   */\n      dup6\n        /* \"#utility.yul\":28661:28739   */\n      tag_243\n      jump\t// in\n    tag_540:\n        /* \"#utility.yul\":28653:28739   */\n      swap1\n      pop\n        /* \"#utility.yul\":28749:28821   */\n      tag_541\n        /* \"#utility.yul\":28817:28819   */\n      0x40\n        /* \"#utility.yul\":28806:28815   */\n      dup4\n        /* \"#utility.yul\":28802:28820   */\n      add\n        /* \"#utility.yul\":28793:28799   */\n      dup5\n        /* \"#utility.yul\":28749:28821   */\n      tag_244\n      jump\t// in\n    tag_541:\n        /* \"#utility.yul\":28295:28828   */\n      swap5\n      swap4\n      pop\n      pop\n      pop\n      pop\n      jump\t// out\n        /* \"#utility.yul\":28834:29002   */\n    tag_264:\n        /* \"#utility.yul\":28974:28994   */\n      0x506f6c6c206973206e6f74206163746976650000000000000000000000000000\n        /* \"#utility.yul\":28970:28971   */\n      0x00\n        /* \"#utility.yul\":28962:28968   */\n      dup3\n        /* \"#utility.yul\":28958:28972   */\n      add\n        /* \"#utility.yul\":28951:28995   */\n      mstore\n        /* \"#utility.yul\":28834:29002   */\n      pop\n      jump\t// out\n        /* \"#utility.yul\":29008:29374   */\n    tag_265:\n        /* \"#utility.yul\":29150:29153   */\n      0x00\n        /* \"#utility.yul\":29171:29238   */\n      tag_544\n        /* \"#utility.yul\":29235:29237   */\n      0x12\n        /* \"#utility.yul\":29230:29233   */\n      dup4\n        /* \"#utility.yul\":29171:29238   */\n      tag_242\n      jump\t// in\n    tag_544:\n        /* \"#utility.yul\":29164:29238   */\n      swap2\n      pop\n        /* \"#utility.yul\":29247:29340   */\n      tag_545\n        /* \"#utility.yul\":29336:29339   */\n      dup3\n        /* \"#utility.yul\":29247:29340   */\n      tag_264\n      jump\t// in\n    tag_545:\n        /* \"#utility.yul\":29365:29367   */\n      0x20\n        /* \"#utility.yul\":29360:29363   */\n      dup3\n        /* \"#utility.yul\":29356:29368   */\n      add\n        /* \"#utility.yul\":29349:29368   */\n      swap1\n      pop\n        /* \"#utility.yul\":29008:29374   */\n      swap2\n      swap1\n      pop\n      jump\t// out\n        /* \"#utility.yul\":29380:29799   */\n    tag_166:\n        /* \"#utility.yul\":29546:29550   */\n      0x00\n        /* \"#utility.yul\":29584:29586   */\n      0x20\n        /* \"#utility.yul\":29573:29582   */\n      dup3\n        /* \"#utility.yul\":29569:29587   */\n      add\n        /* \"#utility.yul\":29561:29587   */\n      swap1\n      pop\n        /* \"#utility.yul\":29633:29642   */\n      dup2\n        /* \"#utility.yul\":29627:29631   */\n      dup2\n        /* \"#utility.yul\":29623:29643   */\n      sub\n        /* \"#utility.yul\":29619:29620   */\n      0x00\n        /* \"#utility.yul\":29608:29617   */\n      dup4\n        /* \"#utility.yul\":29604:29621   */\n      add\n        /* \"#utility.yul\":29597:29644   */\n      mstore\n        /* \"#utility.yul\":29661:29792   */\n      tag_547\n        /* \"#utility.yul\":29787:29791   */\n      dup2\n        /* \"#utility.yul\":29661:29792   */\n      tag_265\n      jump\t// in\n    tag_547:\n        /* \"#utility.yul\":29653:29792   */\n      swap1\n      pop\n        /* \"#utility.yul\":29380:29799   */\n      swap2\n      swap1\n      pop\n      jump\t// out\n        /* \"#utility.yul\":29805:29977   */\n    tag_266:\n        /* \"#utility.yul\":29945:29969   */\n      0x596f75206861766520616c726561647920766f74656400000000000000000000\n        /* \"#utility.yul\":29941:29942   */\n      0x00\n        /* \"#utility.yul\":29933:29939   */\n      dup3\n        /* \"#utility.yul\":29929:29943   */\n      add\n        /* \"#utility.yul\":29922:29970   */\n      mstore\n        /* \"#utility.yul\":29805:29977   */\n      pop\n      jump\t// out\n        /* \"#utility.yul\":29983:30349   */\n    tag_267:\n        /* \"#utility.yul\":30125:30128   */\n      0x00\n        /* \"#utility.yul\":30146:30213   */\n      tag_550\n        /* \"#utility.yul\":30210:30212   */\n      0x16\n        /* \"#utility.yul\":30205:30208   */\n      dup4\n        /* \"#utility.yul\":30146:30213   */\n      tag_242\n      jump\t// in\n    tag_550:\n        /* \"#utility.yul\":30139:30213   */\n      swap2\n      pop\n        /* \"#utility.yul\":30222:30315   */\n      tag_551\n        /* \"#utility.yul\":30311:30314   */\n      dup3\n        /* \"#utility.yul\":30222:30315   */\n      tag_266\n      jump\t// in\n    tag_551:\n        /* \"#utility.yul\":30340:30342   */\n      0x20\n        /* \"#utility.yul\":30335:30338   */\n      dup3\n        /* \"#utility.yul\":30331:30343   */\n      add\n        /* \"#utility.yul\":30324:30343   */\n      swap1\n      pop\n        /* \"#utility.yul\":29983:30349   */\n      swap2\n      swap1\n      pop\n      jump\t// out\n        /* \"#utility.yul\":30355:30774   */\n    tag_169:\n        /* \"#utility.yul\":30521:30525   */\n      0x00\n        /* \"#utility.yul\":30559:30561   */\n      0x20\n        /* \"#utility.yul\":30548:30557   */\n      dup3\n        /* \"#utility.yul\":30544:30562   */\n      add\n        /* \"#utility.yul\":30536:30562   */\n      swap1\n      pop\n        /* \"#utility.yul\":30608:30617   */\n      dup2\n        /* \"#utility.yul\":30602:30606   */\n      dup2\n        /* \"#utility.yul\":30598:30618   */\n      sub\n        /* \"#utility.yul\":30594:30595   */\n      0x00\n        /* \"#utility.yul\":30583:30592   */\n      dup4\n        /* \"#utility.yul\":30579:30596   */\n      add\n        /* \"#utility.yul\":30572:30619   */\n      mstore\n        /* \"#utility.yul\":30636:30767   */\n      tag_553\n        /* \"#utility.yul\":30762:30766   */\n      dup2\n        /* \"#utility.yul\":30636:30767   */\n      tag_267\n      jump\t// in\n    tag_553:\n        /* \"#utility.yul\":30628:30767   */\n      swap1\n      pop\n        /* \"#utility.yul\":30355:30774   */\n      swap2\n      swap1\n      pop\n      jump\t// out\n        /* \"#utility.yul\":30780:30953   */\n    tag_268:\n        /* \"#utility.yul\":30920:30945   */\n      0x496e76616c69642063616e64696461746520696e646578000000000000000000\n        /* \"#utility.yul\":30916:30917   */\n      0x00\n        /* \"#utility.yul\":30908:30914   */\n      dup3\n        /* \"#utility.yul\":30904:30918   */\n      add\n        /* \"#utility.yul\":30897:30946   */\n      mstore\n        /* \"#utility.yul\":30780:30953   */\n      pop\n      jump\t// out\n        /* \"#utility.yul\":30959:31325   */\n    tag_269:\n        /* \"#utility.yul\":31101:31104   */\n      0x00\n        /* \"#utility.yul\":31122:31189   */\n      tag_556\n        /* \"#utility.yul\":31186:31188   */\n      0x17\n        /* \"#utility.yul\":31181:31184   */\n      dup4\n        /* \"#utility.yul\":31122:31189   */\n      tag_242\n      jump\t// in\n    tag_556:\n        /* \"#utility.yul\":31115:31189   */\n      swap2\n      pop\n        /* \"#utility.yul\":31198:31291   */\n      tag_557\n        /* \"#utility.yul\":31287:31290   */\n      dup3\n        /* \"#utility.yul\":31198:31291   */\n      tag_268\n      jump\t// in\n    tag_557:\n        /* \"#utility.yul\":31316:31318   */\n      0x20\n        /* \"#utility.yul\":31311:31314   */\n      dup3\n        /* \"#utility.yul\":31307:31319   */\n      add\n        /* \"#utility.yul\":31300:31319   */\n      swap1\n      pop\n        /* \"#utility.yul\":30959:31325   */\n      swap2\n      swap1\n      pop\n      jump\t// out\n        /* \"#utility.yul\":31331:31750   */\n    tag_172:\n        /* \"#utility.yul\":31497:31501   */\n      0x00\n        /* \"#utility.yul\":31535:31537   */\n      0x20\n        /* \"#utility.yul\":31524:31533   */\n      dup3\n        /* \"#utility.yul\":31520:31538   */\n      add\n        /* \"#utility.yul\":31512:31538   */\n      swap1\n      pop\n        /* \"#utility.yul\":31584:31593   */\n      dup2\n        /* \"#utility.yul\":31578:31582   */\n      dup2\n        /* \"#utility.yul\":31574:31594   */\n      sub\n        /* \"#utility.yul\":31570:31571   */\n      0x00\n        /* \"#utility.yul\":31559:31568   */\n      dup4\n        /* \"#utility.yul\":31555:31572   */\n      add\n        /* \"#utility.yul\":31548:31595   */\n      mstore\n        /* \"#utility.yul\":31612:31743   */\n      tag_559\n        /* \"#utility.yul\":31738:31742   */\n      dup2\n        /* \"#utility.yul\":31612:31743   */\n      tag_269\n      jump\t// in\n    tag_559:\n        /* \"#utility.yul\":31604:31743   */\n      swap1\n      pop\n        /* \"#utility.yul\":31331:31750   */\n      swap2\n      swap1\n      pop\n      jump\t// out\n        /* \"#utility.yul\":31756:31989   */\n    tag_177:\n        /* \"#utility.yul\":31795:31798   */\n      0x00\n        /* \"#utility.yul\":31818:31842   */\n      tag_561\n        /* \"#utility.yul\":31836:31841   */\n      dup3\n        /* \"#utility.yul\":31818:31842   */\n      tag_178\n      jump\t// in\n    tag_561:\n        /* \"#utility.yul\":31809:31842   */\n      swap2\n      pop\n        /* \"#utility.yul\":31864:31930   */\n      0xffffffffffffffffffffffffffffffffffffffffffffffffffffffffffffffff\n        /* \"#utility.yul\":31857:31862   */\n      dup3\n        /* \"#utility.yul\":31854:31931   */\n      sub\n        /* \"#utility.yul\":31851:31954   */\n      tag_562\n      jumpi\n        /* \"#utility.yul\":31934:31952   */\n      tag_563\n      tag_263\n      jump\t// in\n    tag_563:\n        /* \"#utility.yul\":31851:31954   */\n    tag_562:\n        /* \"#utility.yul\":31981:31982   */\n      0x01\n        /* \"#utility.yul\":31974:31979   */\n      dup3\n        /* \"#utility.yul\":31970:31983   */\n      add\n        /* \"#utility.yul\":31963:31983   */\n      swap1\n      pop\n        /* \"#utility.yul\":31756:31989   */\n      swap2\n      swap1\n      pop\n      jump\t// out\n\n    auxdata: 0xa26469706673582212201ee1e96b9011d3136dfb592f7fc9f35589d042cab0d81152bd5f5ebea53ccffe64736f6c634300081a0033\n}\n",
				"bytecode": {
					"linkReferences": {},
					"object": "6080604052348015600e575f80fd5b50611c2d8061001c5f395ff3fe608060405234801561000f575f80fd5b5060043610610086575f3560e01c80637b70e360116100595780637b70e360146101115780639844f21514610141578063ac2f007414610162578063b384abef1461019457610086565b806311a527461461008a5780631750a3d0146100a857806333b4097b146100c457806374a9ced9146100f5575b5f80fd5b6100926101b0565b60405161009f9190610d44565b60405180910390f35b6100c260048036038101906100bd9190610ed4565b6101bb565b005b6100de60048036038101906100d99190610f2e565b6102d2565b6040516100ec92919061112b565b60405180910390f35b61010f600480360381019061010a9190611160565b6104d3565b005b61012b60048036038101906101269190610f2e565b6105b2565b60405161013891906111c1565b60405180910390f35b61014961062b565b6040516101599493929190611528565b60405180910390f35b61017c60048036038101906101779190610f2e565b610a64565b60405161018b939291906115de565b60405180910390f35b6101ae60048036038101906101a9919061161a565b610b4a565b005b5f8080549050905090565b5f8083815481106101cf576101ce611658565b5b905f5260205f2090600402019050806003015f9054906101000a900473ffffffffffffffffffffffffffffffffffffffff1673ffffffffffffffffffffffffffffffffffffffff163373ffffffffffffffffffffffffffffffffffffffff161461026e576040517f08c379a0000000000000000000000000000000000000000000000000000000008152600401610265906116f5565b60405180910390fd5b8060010160405180604001604052808481526020015f815250908060018154018082558091505060019003905f5260205f2090600202015f909190919091505f820151815f0190816102c0919061190d565b50602082015181600101555050505050565b6060805f8084815481106102e9576102e8611658565b5b905f5260205f2090600402019050806001018054905067ffffffffffffffff81111561031857610317610db0565b5b60405190808252806020026020018201604052801561034b57816020015b60608152602001906001900390816103365790505b509250806001018054905067ffffffffffffffff81111561036f5761036e610db0565b5b60405190808252806020026020018201604052801561039d5781602001602082028036833780820191505090505b5091505f5b81600101805490508110156104cc578160010181815481106103c7576103c6611658565b5b905f5260205f2090600202015f0180546103e090611740565b80601f016020809104026020016040519081016040528092919081815260200182805461040c90611740565b80156104575780601f1061042e57610100808354040283529160200191610457565b820191905f5260205f20905b81548152906001019060200180831161043a57829003601f168201915b505050505084828151811061046f5761046e611658565b5b60200260200101819052508160010181815481106104905761048f611658565b5b905f5260205f209060020201600101548382815181106104b3576104b2611658565b5b60200260200101818152505080806001019150506103a2565b5050915091565b5f8060018160018154018082558091505003905f5260205f209060040201905081815f019081610503919061190d565b5033816003015f6101000a81548173ffffffffffffffffffffffffffffffffffffffff021916908373ffffffffffffffffffffffffffffffffffffffff16021790555060018160030160146101000a81548160ff0219169083151502179055507fdcf7bcca1f330627a2b8cf6826aa79cefcda862ee183dabacd90516b6cd1844360015f805490506105959190611a09565b83336040516105a693929190611a3c565b60405180910390a15050565b5f805f83815481106105c7576105c6611658565b5b905f5260205f2090600402019050806002015f3373ffffffffffffffffffffffffffffffffffffffff1673ffffffffffffffffffffffffffffffffffffffff1681526020019081526020015f205f015f9054906101000a900460ff16915050919050565b6060806060805f808054905090508067ffffffffffffffff81111561065357610652610db0565b5b60405190808252806020026020018201604052801561068657816020015b60608152602001906001900390816106715790505b5094508067ffffffffffffffff8111156106a3576106a2610db0565b5b6040519080825280602002602001820160405280156106d15781602001602082028036833780820191505090505b5093508067ffffffffffffffff8111156106ee576106ed610db0565b5b60405190808252806020026020018201604052801561071c5781602001602082028036833780820191505090505b5092508067ffffffffffffffff81111561073957610738610db0565b5b60405190808252806020026020018201604052801561076c57816020015b60608152602001906001900390816107575790505b5091505f5b81811015610a5c575f818154811061078c5761078b611658565b5b905f5260205f2090600402015f0180546107a590611740565b80601f01602080910402602001604051908101604052809291908181526020018280546107d190611740565b801561081c5780601f106107f35761010080835404028352916020019161081c565b820191905f5260205f20905b8154815290600101906020018083116107ff57829003601f168201915b505050505086828151811061083457610833611658565b5b60200260200101819052505f818154811061085257610851611658565b5b905f5260205f2090600402016003015f9054906101000a900473ffffffffffffffffffffffffffffffffffffffff1685828151811061089457610893611658565b5b602002602001019073ffffffffffffffffffffffffffffffffffffffff16908173ffffffffffffffffffffffffffffffffffffffff16815250505f81815481106108e1576108e0611658565b5b905f5260205f20906004020160030160149054906101000a900460ff1684828151811061091157610910611658565b5b6020026020010190151590811515815250505f818154811061093657610935611658565b5b905f5260205f209060040201600101805480602002602001604051908101604052809291908181526020015f905b82821015610a2d578382905f5260205f2090600202016040518060400160405290815f8201805461099490611740565b80601f01602080910402602001604051908101604052809291908181526020018280546109c090611740565b8015610a0b5780601f106109e257610100808354040283529160200191610a0b565b820191905f5260205f20905b8154815290600101906020018083116109ee57829003601f168201915b5050505050815260200160018201548152505081526020019060010190610964565b50505050838281518110610a4457610a43611658565b5b60200260200101819052508080600101915050610771565b505090919293565b5f8181548110610a72575f80fd5b905f5260205f2090600402015f91509050805f018054610a9190611740565b80601f0160208091040260200160405190810160405280929190818152602001828054610abd90611740565b8015610b085780601f10610adf57610100808354040283529160200191610b08565b820191905f5260205f20905b815481529060010190602001808311610aeb57829003601f168201915b505050505090806003015f9054906101000a900473ffffffffffffffffffffffffffffffffffffffff16908060030160149054906101000a900460ff16905083565b5f808381548110610b5e57610b5d611658565b5b905f5260205f20906004020190508060030160149054906101000a900460ff16610bbd576040517f08c379a0000000000000000000000000000000000000000000000000000000008152600401610bb490611ac2565b60405180910390fd5b806002015f3373ffffffffffffffffffffffffffffffffffffffff1673ffffffffffffffffffffffffffffffffffffffff1681526020019081526020015f205f015f9054906101000a900460ff1615610c4b576040517f08c379a0000000000000000000000000000000000000000000000000000000008152600401610c4290611b2a565b60405180910390fd5b80600101805490508210610c94576040517f08c379a0000000000000000000000000000000000000000000000000000000008152600401610c8b90611b92565b60405180910390fd5b6001816002015f3373ffffffffffffffffffffffffffffffffffffffff1673ffffffffffffffffffffffffffffffffffffffff1681526020019081526020015f205f015f6101000a81548160ff021916908315150217905550806001018281548110610d0357610d02611658565b5b905f5260205f2090600202016001015f815480929190610d2290611bb0565b9190505550505050565b5f819050919050565b610d3e81610d2c565b82525050565b5f602082019050610d575f830184610d35565b92915050565b5f604051905090565b5f80fd5b5f80fd5b610d7781610d2c565b8114610d81575f80fd5b50565b5f81359050610d9281610d6e565b92915050565b5f80fd5b5f80fd5b5f601f19601f8301169050919050565b7f4e487b71000000000000000000000000000000000000000000000000000000005f52604160045260245ffd5b610de682610da0565b810181811067ffffffffffffffff82111715610e0557610e04610db0565b5b80604052505050565b5f610e17610d5d565b9050610e238282610ddd565b919050565b5f67ffffffffffffffff821115610e4257610e41610db0565b5b610e4b82610da0565b9050602081019050919050565b828183375f83830152505050565b5f610e78610e7384610e28565b610e0e565b905082815260208101848484011115610e9457610e93610d9c565b5b610e9f848285610e58565b509392505050565b5f82601f830112610ebb57610eba610d98565b5b8135610ecb848260208601610e66565b91505092915050565b5f8060408385031215610eea57610ee9610d66565b5b5f610ef785828601610d84565b925050602083013567ffffffffffffffff811115610f1857610f17610d6a565b5b610f2485828601610ea7565b9150509250929050565b5f60208284031215610f4357610f42610d66565b5b5f610f5084828501610d84565b91505092915050565b5f81519050919050565b5f82825260208201905092915050565b5f819050602082019050919050565b5f81519050919050565b5f82825260208201905092915050565b8281835e5f83830152505050565b5f610fb482610f82565b610fbe8185610f8c565b9350610fce818560208601610f9c565b610fd781610da0565b840191505092915050565b5f610fed8383610faa565b905092915050565b5f602082019050919050565b5f61100b82610f59565b6110158185610f63565b93508360208202850161102785610f73565b805f5b8581101561106257848403895281516110438582610fe2565b945061104e83610ff5565b925060208a0199505060018101905061102a565b50829750879550505050505092915050565b5f81519050919050565b5f82825260208201905092915050565b5f819050602082019050919050565b6110a681610d2c565b82525050565b5f6110b7838361109d565b60208301905092915050565b5f602082019050919050565b5f6110d982611074565b6110e3818561107e565b93506110ee8361108e565b805f5b8381101561111e57815161110588826110ac565b9750611110836110c3565b9250506001810190506110f1565b5085935050505092915050565b5f6040820190508181035f8301526111438185611001565b9050818103602083015261115781846110cf565b90509392505050565b5f6020828403121561117557611174610d66565b5b5f82013567ffffffffffffffff81111561119257611191610d6a565b5b61119e84828501610ea7565b91505092915050565b5f8115159050919050565b6111bb816111a7565b82525050565b5f6020820190506111d45f8301846111b2565b92915050565b5f81519050919050565b5f82825260208201905092915050565b5f819050602082019050919050565b5f73ffffffffffffffffffffffffffffffffffffffff82169050919050565b5f61122c82611203565b9050919050565b61123c81611222565b82525050565b5f61124d8383611233565b60208301905092915050565b5f602082019050919050565b5f61126f826111da565b61127981856111e4565b9350611284836111f4565b805f5b838110156112b457815161129b8882611242565b97506112a683611259565b925050600181019050611287565b5085935050505092915050565b5f81519050919050565b5f82825260208201905092915050565b5f819050602082019050919050565b6112f3816111a7565b82525050565b5f61130483836112ea565b60208301905092915050565b5f602082019050919050565b5f611326826112c1565b61133081856112cb565b935061133b836112db565b805f5b8381101561136b57815161135288826112f9565b975061135d83611310565b92505060018101905061133e565b5085935050505092915050565b5f81519050919050565b5f82825260208201905092915050565b5f819050602082019050919050565b5f81519050919050565b5f82825260208201905092915050565b5f819050602082019050919050565b5f604083015f8301518482035f8601526113e48282610faa565b91505060208301516113f9602086018261109d565b508091505092915050565b5f61140f83836113ca565b905092915050565b5f602082019050919050565b5f61142d826113a1565b61143781856113ab565b935083602082028501611449856113bb565b805f5b8581101561148457848403895281516114658582611404565b945061147083611417565b925060208a0199505060018101905061144c565b50829750879550505050505092915050565b5f6114a18383611423565b905092915050565b5f602082019050919050565b5f6114bf82611378565b6114c98185611382565b9350836020820285016114db85611392565b805f5b8581101561151657848403895281516114f78582611496565b9450611502836114a9565b925060208a019950506001810190506114de565b50829750879550505050505092915050565b5f6080820190508181035f8301526115408187611001565b905081810360208301526115548186611265565b90508181036040830152611568818561131c565b9050818103606083015261157c81846114b5565b905095945050505050565b5f82825260208201905092915050565b5f6115a182610f82565b6115ab8185611587565b93506115bb818560208601610f9c565b6115c481610da0565b840191505092915050565b6115d881611222565b82525050565b5f6060820190508181035f8301526115f68186611597565b905061160560208301856115cf565b61161260408301846111b2565b949350505050565b5f80604083850312156116305761162f610d66565b5b5f61163d85828601610d84565b925050602061164e85828601610d84565b9150509250929050565b7f4e487b71000000000000000000000000000000000000000000000000000000005f52603260045260245ffd5b7f4f6e6c7920746865206f776e65722063616e206164642063616e6469646174655f8201527f7300000000000000000000000000000000000000000000000000000000000000602082015250565b5f6116df602183611587565b91506116ea82611685565b604082019050919050565b5f6020820190508181035f83015261170c816116d3565b9050919050565b7f4e487b71000000000000000000000000000000000000000000000000000000005f52602260045260245ffd5b5f600282049050600182168061175757607f821691505b60208210810361176a57611769611713565b5b50919050565b5f819050815f5260205f209050919050565b5f6020601f8301049050919050565b5f82821b905092915050565b5f600883026117cc7fffffffffffffffffffffffffffffffffffffffffffffffffffffffffffffffff82611791565b6117d68683611791565b95508019841693508086168417925050509392505050565b5f819050919050565b5f61181161180c61180784610d2c565b6117ee565b610d2c565b9050919050565b5f819050919050565b61182a836117f7565b61183e61183682611818565b84845461179d565b825550505050565b5f90565b611852611846565b61185d818484611821565b505050565b5b81811015611880576118755f8261184a565b600181019050611863565b5050565b601f8211156118c55761189681611770565b61189f84611782565b810160208510156118ae578190505b6118c26118ba85611782565b830182611862565b50505b505050565b5f82821c905092915050565b5f6118e55f19846008026118ca565b1980831691505092915050565b5f6118fd83836118d6565b9150826002028217905092915050565b61191682610f82565b67ffffffffffffffff81111561192f5761192e610db0565b5b6119398254611740565b611944828285611884565b5f60209050601f831160018114611975575f8415611963578287015190505b61196d85826118f2565b8655506119d4565b601f19841661198386611770565b5f5b828110156119aa57848901518255600182019150602085019450602081019050611985565b868310156119c757848901516119c3601f8916826118d6565b8355505b6001600288020188555050505b505050505050565b7f4e487b71000000000000000000000000000000000000000000000000000000005f52601160045260245ffd5b5f611a1382610d2c565b9150611a1e83610d2c565b9250828203905081811115611a3657611a356119dc565b5b92915050565b5f606082019050611a4f5f830186610d35565b8181036020830152611a618185611597565b9050611a7060408301846115cf565b949350505050565b7f506f6c6c206973206e6f742061637469766500000000000000000000000000005f82015250565b5f611aac601283611587565b9150611ab782611a78565b602082019050919050565b5f6020820190508181035f830152611ad981611aa0565b9050919050565b7f596f75206861766520616c726561647920766f746564000000000000000000005f82015250565b5f611b14601683611587565b9150611b1f82611ae0565b602082019050919050565b5f6020820190508181035f830152611b4181611b08565b9050919050565b7f496e76616c69642063616e64696461746520696e6465780000000000000000005f82015250565b5f611b7c601783611587565b9150611b8782611b48565b602082019050919050565b5f6020820190508181035f830152611ba981611b70565b9050919050565b5f611bba82610d2c565b91507fffffffffffffffffffffffffffffffffffffffffffffffffffffffffffffffff8203611bec57611beb6119dc565b5b60018201905091905056fea26469706673582212201ee1e96b9011d3136dfb592f7fc9f35589d042cab0d81152bd5f5ebea53ccffe64736f6c634300081a0033",
					"opcodes": "PUSH1 0x80 PUSH1 0x40 MSTORE CALLVALUE DUP1 ISZERO PUSH1 0xE JUMPI PUSH0 DUP1 REVERT JUMPDEST POP PUSH2 0x1C2D DUP1 PUSH2 0x1C PUSH0 CODECOPY PUSH0 RETURN INVALID PUSH1 0x80 PUSH1 0x40 MSTORE CALLVALUE DUP1 ISZERO PUSH2 0xF JUMPI PUSH0 DUP1 REVERT JUMPDEST POP PUSH1 0x4 CALLDATASIZE LT PUSH2 0x86 JUMPI PUSH0 CALLDATALOAD PUSH1 0xE0 SHR DUP1 PUSH4 0x7B70E360 GT PUSH2 0x59 JUMPI DUP1 PUSH4 0x7B70E360 EQ PUSH2 0x111 JUMPI DUP1 PUSH4 0x9844F215 EQ PUSH2 0x141 JUMPI DUP1 PUSH4 0xAC2F0074 EQ PUSH2 0x162 JUMPI DUP1 PUSH4 0xB384ABEF EQ PUSH2 0x194 JUMPI PUSH2 0x86 JUMP JUMPDEST DUP1 PUSH4 0x11A52746 EQ PUSH2 0x8A JUMPI DUP1 PUSH4 0x1750A3D0 EQ PUSH2 0xA8 JUMPI DUP1 PUSH4 0x33B4097B EQ PUSH2 0xC4 JUMPI DUP1 PUSH4 0x74A9CED9 EQ PUSH2 0xF5 JUMPI JUMPDEST PUSH0 DUP1 REVERT JUMPDEST PUSH2 0x92 PUSH2 0x1B0 JUMP JUMPDEST PUSH1 0x40 MLOAD PUSH2 0x9F SWAP2 SWAP1 PUSH2 0xD44 JUMP JUMPDEST PUSH1 0x40 MLOAD DUP1 SWAP2 SUB SWAP1 RETURN JUMPDEST PUSH2 0xC2 PUSH1 0x4 DUP1 CALLDATASIZE SUB DUP2 ADD SWAP1 PUSH2 0xBD SWAP2 SWAP1 PUSH2 0xED4 JUMP JUMPDEST PUSH2 0x1BB JUMP JUMPDEST STOP JUMPDEST PUSH2 0xDE PUSH1 0x4 DUP1 CALLDATASIZE SUB DUP2 ADD SWAP1 PUSH2 0xD9 SWAP2 SWAP1 PUSH2 0xF2E JUMP JUMPDEST PUSH2 0x2D2 JUMP JUMPDEST PUSH1 0x40 MLOAD PUSH2 0xEC SWAP3 SWAP2 SWAP1 PUSH2 0x112B JUMP JUMPDEST PUSH1 0x40 MLOAD DUP1 SWAP2 SUB SWAP1 RETURN JUMPDEST PUSH2 0x10F PUSH1 0x4 DUP1 CALLDATASIZE SUB DUP2 ADD SWAP1 PUSH2 0x10A SWAP2 SWAP1 PUSH2 0x1160 JUMP JUMPDEST PUSH2 0x4D3 JUMP JUMPDEST STOP JUMPDEST PUSH2 0x12B PUSH1 0x4 DUP1 CALLDATASIZE SUB DUP2 ADD SWAP1 PUSH2 0x126 SWAP2 SWAP1 PUSH2 0xF2E JUMP JUMPDEST PUSH2 0x5B2 JUMP JUMPDEST PUSH1 0x40 MLOAD PUSH2 0x138 SWAP2 SWAP1 PUSH2 0x11C1 JUMP JUMPDEST PUSH1 0x40 MLOAD DUP1 SWAP2 SUB SWAP1 RETURN JUMPDEST PUSH2 0x149 PUSH2 0x62B JUMP JUMPDEST PUSH1 0x40 MLOAD PUSH2 0x159 SWAP5 SWAP4 SWAP3 SWAP2 SWAP1 PUSH2 0x1528 JUMP JUMPDEST PUSH1 0x40 MLOAD DUP1 SWAP2 SUB SWAP1 RETURN JUMPDEST PUSH2 0x17C PUSH1 0x4 DUP1 CALLDATASIZE SUB DUP2 ADD SWAP1 PUSH2 0x177 SWAP2 SWAP1 PUSH2 0xF2E JUMP JUMPDEST PUSH2 0xA64 JUMP JUMPDEST PUSH1 0x40 MLOAD PUSH2 0x18B SWAP4 SWAP3 SWAP2 SWAP1 PUSH2 0x15DE JUMP JUMPDEST PUSH1 0x40 MLOAD DUP1 SWAP2 SUB SWAP1 RETURN JUMPDEST PUSH2 0x1AE PUSH1 0x4 DUP1 CALLDATASIZE SUB DUP2 ADD SWAP1 PUSH2 0x1A9 SWAP2 SWAP1 PUSH2 0x161A JUMP JUMPDEST PUSH2 0xB4A JUMP JUMPDEST STOP JUMPDEST PUSH0 DUP1 DUP1 SLOAD SWAP1 POP SWAP1 POP SWAP1 JUMP JUMPDEST PUSH0 DUP1 DUP4 DUP2 SLOAD DUP2 LT PUSH2 0x1CF JUMPI PUSH2 0x1CE PUSH2 0x1658 JUMP JUMPDEST JUMPDEST SWAP1 PUSH0 MSTORE PUSH1 0x20 PUSH0 KECCAK256 SWAP1 PUSH1 0x4 MUL ADD SWAP1 POP DUP1 PUSH1 0x3 ADD PUSH0 SWAP1 SLOAD SWAP1 PUSH2 0x100 EXP SWAP1 DIV PUSH20 0xFFFFFFFFFFFFFFFFFFFFFFFFFFFFFFFFFFFFFFFF AND PUSH20 0xFFFFFFFFFFFFFFFFFFFFFFFFFFFFFFFFFFFFFFFF AND CALLER PUSH20 0xFFFFFFFFFFFFFFFFFFFFFFFFFFFFFFFFFFFFFFFF AND EQ PUSH2 0x26E JUMPI PUSH1 0x40 MLOAD PUSH32 0x8C379A000000000000000000000000000000000000000000000000000000000 DUP2 MSTORE PUSH1 0x4 ADD PUSH2 0x265 SWAP1 PUSH2 0x16F5 JUMP JUMPDEST PUSH1 0x40 MLOAD DUP1 SWAP2 SUB SWAP1 REVERT JUMPDEST DUP1 PUSH1 0x1 ADD PUSH1 0x40 MLOAD DUP1 PUSH1 0x40 ADD PUSH1 0x40 MSTORE DUP1 DUP5 DUP2 MSTORE PUSH1 0x20 ADD PUSH0 DUP2 MSTORE POP SWAP1 DUP1 PUSH1 0x1 DUP2 SLOAD ADD DUP1 DUP3 SSTORE DUP1 SWAP2 POP POP PUSH1 0x1 SWAP1 SUB SWAP1 PUSH0 MSTORE PUSH1 0x20 PUSH0 KECCAK256 SWAP1 PUSH1 0x2 MUL ADD PUSH0 SWAP1 SWAP2 SWAP1 SWAP2 SWAP1 SWAP2 POP PUSH0 DUP3 ADD MLOAD DUP2 PUSH0 ADD SWAP1 DUP2 PUSH2 0x2C0 SWAP2 SWAP1 PUSH2 0x190D JUMP JUMPDEST POP PUSH1 0x20 DUP3 ADD MLOAD DUP2 PUSH1 0x1 ADD SSTORE POP POP POP POP POP JUMP JUMPDEST PUSH1 0x60 DUP1 PUSH0 DUP1 DUP5 DUP2 SLOAD DUP2 LT PUSH2 0x2E9 JUMPI PUSH2 0x2E8 PUSH2 0x1658 JUMP JUMPDEST JUMPDEST SWAP1 PUSH0 MSTORE PUSH1 0x20 PUSH0 KECCAK256 SWAP1 PUSH1 0x4 MUL ADD SWAP1 POP DUP1 PUSH1 0x1 ADD DUP1 SLOAD SWAP1 POP PUSH8 0xFFFFFFFFFFFFFFFF DUP2 GT ISZERO PUSH2 0x318 JUMPI PUSH2 0x317 PUSH2 0xDB0 JUMP JUMPDEST JUMPDEST PUSH1 0x40 MLOAD SWAP1 DUP1 DUP3 MSTORE DUP1 PUSH1 0x20 MUL PUSH1 0x20 ADD DUP3 ADD PUSH1 0x40 MSTORE DUP1 ISZERO PUSH2 0x34B JUMPI DUP2 PUSH1 0x20 ADD JUMPDEST PUSH1 0x60 DUP2 MSTORE PUSH1 0x20 ADD SWAP1 PUSH1 0x1 SWAP1 SUB SWAP1 DUP2 PUSH2 0x336 JUMPI SWAP1 POP JUMPDEST POP SWAP3 POP DUP1 PUSH1 0x1 ADD DUP1 SLOAD SWAP1 POP PUSH8 0xFFFFFFFFFFFFFFFF DUP2 GT ISZERO PUSH2 0x36F JUMPI PUSH2 0x36E PUSH2 0xDB0 JUMP JUMPDEST JUMPDEST PUSH1 0x40 MLOAD SWAP1 DUP1 DUP3 MSTORE DUP1 PUSH1 0x20 MUL PUSH1 0x20 ADD DUP3 ADD PUSH1 0x40 MSTORE DUP1 ISZERO PUSH2 0x39D JUMPI DUP2 PUSH1 0x20 ADD PUSH1 0x20 DUP3 MUL DUP1 CALLDATASIZE DUP4 CALLDATACOPY DUP1 DUP3 ADD SWAP2 POP POP SWAP1 POP JUMPDEST POP SWAP2 POP PUSH0 JUMPDEST DUP2 PUSH1 0x1 ADD DUP1 SLOAD SWAP1 POP DUP2 LT ISZERO PUSH2 0x4CC JUMPI DUP2 PUSH1 0x1 ADD DUP2 DUP2 SLOAD DUP2 LT PUSH2 0x3C7 JUMPI PUSH2 0x3C6 PUSH2 0x1658 JUMP JUMPDEST JUMPDEST SWAP1 PUSH0 MSTORE PUSH1 0x20 PUSH0 KECCAK256 SWAP1 PUSH1 0x2 MUL ADD PUSH0 ADD DUP1 SLOAD PUSH2 0x3E0 SWAP1 PUSH2 0x1740 JUMP JUMPDEST DUP1 PUSH1 0x1F ADD PUSH1 0x20 DUP1 SWAP2 DIV MUL PUSH1 0x20 ADD PUSH1 0x40 MLOAD SWAP1 DUP2 ADD PUSH1 0x40 MSTORE DUP1 SWAP3 SWAP2 SWAP1 DUP2 DUP2 MSTORE PUSH1 0x20 ADD DUP3 DUP1 SLOAD PUSH2 0x40C SWAP1 PUSH2 0x1740 JUMP JUMPDEST DUP1 ISZERO PUSH2 0x457 JUMPI DUP1 PUSH1 0x1F LT PUSH2 0x42E JUMPI PUSH2 0x100 DUP1 DUP4 SLOAD DIV MUL DUP4 MSTORE SWAP2 PUSH1 0x20 ADD SWAP2 PUSH2 0x457 JUMP JUMPDEST DUP3 ADD SWAP2 SWAP1 PUSH0 MSTORE PUSH1 0x20 PUSH0 KECCAK256 SWAP1 JUMPDEST DUP2 SLOAD DUP2 MSTORE SWAP1 PUSH1 0x1 ADD SWAP1 PUSH1 0x20 ADD DUP1 DUP4 GT PUSH2 0x43A JUMPI DUP3 SWAP1 SUB PUSH1 0x1F AND DUP3 ADD SWAP2 JUMPDEST POP POP POP POP POP DUP5 DUP3 DUP2 MLOAD DUP2 LT PUSH2 0x46F JUMPI PUSH2 0x46E PUSH2 0x1658 JUMP JUMPDEST JUMPDEST PUSH1 0x20 MUL PUSH1 0x20 ADD ADD DUP2 SWAP1 MSTORE POP DUP2 PUSH1 0x1 ADD DUP2 DUP2 SLOAD DUP2 LT PUSH2 0x490 JUMPI PUSH2 0x48F PUSH2 0x1658 JUMP JUMPDEST JUMPDEST SWAP1 PUSH0 MSTORE PUSH1 0x20 PUSH0 KECCAK256 SWAP1 PUSH1 0x2 MUL ADD PUSH1 0x1 ADD SLOAD DUP4 DUP3 DUP2 MLOAD DUP2 LT PUSH2 0x4B3 JUMPI PUSH2 0x4B2 PUSH2 0x1658 JUMP JUMPDEST JUMPDEST PUSH1 0x20 MUL PUSH1 0x20 ADD ADD DUP2 DUP2 MSTORE POP POP DUP1 DUP1 PUSH1 0x1 ADD SWAP2 POP POP PUSH2 0x3A2 JUMP JUMPDEST POP POP SWAP2 POP SWAP2 JUMP JUMPDEST PUSH0 DUP1 PUSH1 0x1 DUP2 PUSH1 0x1 DUP2 SLOAD ADD DUP1 DUP3 SSTORE DUP1 SWAP2 POP POP SUB SWAP1 PUSH0 MSTORE PUSH1 0x20 PUSH0 KECCAK256 SWAP1 PUSH1 0x4 MUL ADD SWAP1 POP DUP2 DUP2 PUSH0 ADD SWAP1 DUP2 PUSH2 0x503 SWAP2 SWAP1 PUSH2 0x190D JUMP JUMPDEST POP CALLER DUP2 PUSH1 0x3 ADD PUSH0 PUSH2 0x100 EXP DUP2 SLOAD DUP2 PUSH20 0xFFFFFFFFFFFFFFFFFFFFFFFFFFFFFFFFFFFFFFFF MUL NOT AND SWAP1 DUP4 PUSH20 0xFFFFFFFFFFFFFFFFFFFFFFFFFFFFFFFFFFFFFFFF AND MUL OR SWAP1 SSTORE POP PUSH1 0x1 DUP2 PUSH1 0x3 ADD PUSH1 0x14 PUSH2 0x100 EXP DUP2 SLOAD DUP2 PUSH1 0xFF MUL NOT AND SWAP1 DUP4 ISZERO ISZERO MUL OR SWAP1 SSTORE POP PUSH32 0xDCF7BCCA1F330627A2B8CF6826AA79CEFCDA862EE183DABACD90516B6CD18443 PUSH1 0x1 PUSH0 DUP1 SLOAD SWAP1 POP PUSH2 0x595 SWAP2 SWAP1 PUSH2 0x1A09 JUMP JUMPDEST DUP4 CALLER PUSH1 0x40 MLOAD PUSH2 0x5A6 SWAP4 SWAP3 SWAP2 SWAP1 PUSH2 0x1A3C JUMP JUMPDEST PUSH1 0x40 MLOAD DUP1 SWAP2 SUB SWAP1 LOG1 POP POP JUMP JUMPDEST PUSH0 DUP1 PUSH0 DUP4 DUP2 SLOAD DUP2 LT PUSH2 0x5C7 JUMPI PUSH2 0x5C6 PUSH2 0x1658 JUMP JUMPDEST JUMPDEST SWAP1 PUSH0 MSTORE PUSH1 0x20 PUSH0 KECCAK256 SWAP1 PUSH1 0x4 MUL ADD SWAP1 POP DUP1 PUSH1 0x2 ADD PUSH0 CALLER PUSH20 0xFFFFFFFFFFFFFFFFFFFFFFFFFFFFFFFFFFFFFFFF AND PUSH20 0xFFFFFFFFFFFFFFFFFFFFFFFFFFFFFFFFFFFFFFFF AND DUP2 MSTORE PUSH1 0x20 ADD SWAP1 DUP2 MSTORE PUSH1 0x20 ADD PUSH0 KECCAK256 PUSH0 ADD PUSH0 SWAP1 SLOAD SWAP1 PUSH2 0x100 EXP SWAP1 DIV PUSH1 0xFF AND SWAP2 POP POP SWAP2 SWAP1 POP JUMP JUMPDEST PUSH1 0x60 DUP1 PUSH1 0x60 DUP1 PUSH0 DUP1 DUP1 SLOAD SWAP1 POP SWAP1 POP DUP1 PUSH8 0xFFFFFFFFFFFFFFFF DUP2 GT ISZERO PUSH2 0x653 JUMPI PUSH2 0x652 PUSH2 0xDB0 JUMP JUMPDEST JUMPDEST PUSH1 0x40 MLOAD SWAP1 DUP1 DUP3 MSTORE DUP1 PUSH1 0x20 MUL PUSH1 0x20 ADD DUP3 ADD PUSH1 0x40 MSTORE DUP1 ISZERO PUSH2 0x686 JUMPI DUP2 PUSH1 0x20 ADD JUMPDEST PUSH1 0x60 DUP2 MSTORE PUSH1 0x20 ADD SWAP1 PUSH1 0x1 SWAP1 SUB SWAP1 DUP2 PUSH2 0x671 JUMPI SWAP1 POP JUMPDEST POP SWAP5 POP DUP1 PUSH8 0xFFFFFFFFFFFFFFFF DUP2 GT ISZERO PUSH2 0x6A3 JUMPI PUSH2 0x6A2 PUSH2 0xDB0 JUMP JUMPDEST JUMPDEST PUSH1 0x40 MLOAD SWAP1 DUP1 DUP3 MSTORE DUP1 PUSH1 0x20 MUL PUSH1 0x20 ADD DUP3 ADD PUSH1 0x40 MSTORE DUP1 ISZERO PUSH2 0x6D1 JUMPI DUP2 PUSH1 0x20 ADD PUSH1 0x20 DUP3 MUL DUP1 CALLDATASIZE DUP4 CALLDATACOPY DUP1 DUP3 ADD SWAP2 POP POP SWAP1 POP JUMPDEST POP SWAP4 POP DUP1 PUSH8 0xFFFFFFFFFFFFFFFF DUP2 GT ISZERO PUSH2 0x6EE JUMPI PUSH2 0x6ED PUSH2 0xDB0 JUMP JUMPDEST JUMPDEST PUSH1 0x40 MLOAD SWAP1 DUP1 DUP3 MSTORE DUP1 PUSH1 0x20 MUL PUSH1 0x20 ADD DUP3 ADD PUSH1 0x40 MSTORE DUP1 ISZERO PUSH2 0x71C JUMPI DUP2 PUSH1 0x20 ADD PUSH1 0x20 DUP3 MUL DUP1 CALLDATASIZE DUP4 CALLDATACOPY DUP1 DUP3 ADD SWAP2 POP POP SWAP1 POP JUMPDEST POP SWAP3 POP DUP1 PUSH8 0xFFFFFFFFFFFFFFFF DUP2 GT ISZERO PUSH2 0x739 JUMPI PUSH2 0x738 PUSH2 0xDB0 JUMP JUMPDEST JUMPDEST PUSH1 0x40 MLOAD SWAP1 DUP1 DUP3 MSTORE DUP1 PUSH1 0x20 MUL PUSH1 0x20 ADD DUP3 ADD PUSH1 0x40 MSTORE DUP1 ISZERO PUSH2 0x76C JUMPI DUP2 PUSH1 0x20 ADD JUMPDEST PUSH1 0x60 DUP2 MSTORE PUSH1 0x20 ADD SWAP1 PUSH1 0x1 SWAP1 SUB SWAP1 DUP2 PUSH2 0x757 JUMPI SWAP1 POP JUMPDEST POP SWAP2 POP PUSH0 JUMPDEST DUP2 DUP2 LT ISZERO PUSH2 0xA5C JUMPI PUSH0 DUP2 DUP2 SLOAD DUP2 LT PUSH2 0x78C JUMPI PUSH2 0x78B PUSH2 0x1658 JUMP JUMPDEST JUMPDEST SWAP1 PUSH0 MSTORE PUSH1 0x20 PUSH0 KECCAK256 SWAP1 PUSH1 0x4 MUL ADD PUSH0 ADD DUP1 SLOAD PUSH2 0x7A5 SWAP1 PUSH2 0x1740 JUMP JUMPDEST DUP1 PUSH1 0x1F ADD PUSH1 0x20 DUP1 SWAP2 DIV MUL PUSH1 0x20 ADD PUSH1 0x40 MLOAD SWAP1 DUP2 ADD PUSH1 0x40 MSTORE DUP1 SWAP3 SWAP2 SWAP1 DUP2 DUP2 MSTORE PUSH1 0x20 ADD DUP3 DUP1 SLOAD PUSH2 0x7D1 SWAP1 PUSH2 0x1740 JUMP JUMPDEST DUP1 ISZERO PUSH2 0x81C JUMPI DUP1 PUSH1 0x1F LT PUSH2 0x7F3 JUMPI PUSH2 0x100 DUP1 DUP4 SLOAD DIV MUL DUP4 MSTORE SWAP2 PUSH1 0x20 ADD SWAP2 PUSH2 0x81C JUMP JUMPDEST DUP3 ADD SWAP2 SWAP1 PUSH0 MSTORE PUSH1 0x20 PUSH0 KECCAK256 SWAP1 JUMPDEST DUP2 SLOAD DUP2 MSTORE SWAP1 PUSH1 0x1 ADD SWAP1 PUSH1 0x20 ADD DUP1 DUP4 GT PUSH2 0x7FF JUMPI DUP3 SWAP1 SUB PUSH1 0x1F AND DUP3 ADD SWAP2 JUMPDEST POP POP POP POP POP DUP7 DUP3 DUP2 MLOAD DUP2 LT PUSH2 0x834 JUMPI PUSH2 0x833 PUSH2 0x1658 JUMP JUMPDEST JUMPDEST PUSH1 0x20 MUL PUSH1 0x20 ADD ADD DUP2 SWAP1 MSTORE POP PUSH0 DUP2 DUP2 SLOAD DUP2 LT PUSH2 0x852 JUMPI PUSH2 0x851 PUSH2 0x1658 JUMP JUMPDEST JUMPDEST SWAP1 PUSH0 MSTORE PUSH1 0x20 PUSH0 KECCAK256 SWAP1 PUSH1 0x4 MUL ADD PUSH1 0x3 ADD PUSH0 SWAP1 SLOAD SWAP1 PUSH2 0x100 EXP SWAP1 DIV PUSH20 0xFFFFFFFFFFFFFFFFFFFFFFFFFFFFFFFFFFFFFFFF AND DUP6 DUP3 DUP2 MLOAD DUP2 LT PUSH2 0x894 JUMPI PUSH2 0x893 PUSH2 0x1658 JUMP JUMPDEST JUMPDEST PUSH1 0x20 MUL PUSH1 0x20 ADD ADD SWAP1 PUSH20 0xFFFFFFFFFFFFFFFFFFFFFFFFFFFFFFFFFFFFFFFF AND SWAP1 DUP2 PUSH20 0xFFFFFFFFFFFFFFFFFFFFFFFFFFFFFFFFFFFFFFFF AND DUP2 MSTORE POP POP PUSH0 DUP2 DUP2 SLOAD DUP2 LT PUSH2 0x8E1 JUMPI PUSH2 0x8E0 PUSH2 0x1658 JUMP JUMPDEST JUMPDEST SWAP1 PUSH0 MSTORE PUSH1 0x20 PUSH0 KECCAK256 SWAP1 PUSH1 0x4 MUL ADD PUSH1 0x3 ADD PUSH1 0x14 SWAP1 SLOAD SWAP1 PUSH2 0x100 EXP SWAP1 DIV PUSH1 0xFF AND DUP5 DUP3 DUP2 MLOAD DUP2 LT PUSH2 0x911 JUMPI PUSH2 0x910 PUSH2 0x1658 JUMP JUMPDEST JUMPDEST PUSH1 0x20 MUL PUSH1 0x20 ADD ADD SWAP1 ISZERO ISZERO SWAP1 DUP2 ISZERO ISZERO DUP2 MSTORE POP POP PUSH0 DUP2 DUP2 SLOAD DUP2 LT PUSH2 0x936 JUMPI PUSH2 0x935 PUSH2 0x1658 JUMP JUMPDEST JUMPDEST SWAP1 PUSH0 MSTORE PUSH1 0x20 PUSH0 KECCAK256 SWAP1 PUSH1 0x4 MUL ADD PUSH1 0x1 ADD DUP1 SLOAD DUP1 PUSH1 0x20 MUL PUSH1 0x20 ADD PUSH1 0x40 MLOAD SWAP1 DUP2 ADD PUSH1 0x40 MSTORE DUP1 SWAP3 SWAP2 SWAP1 DUP2 DUP2 MSTORE PUSH1 0x20 ADD PUSH0 SWAP1 JUMPDEST DUP3 DUP3 LT ISZERO PUSH2 0xA2D JUMPI DUP4 DUP3 SWAP1 PUSH0 MSTORE PUSH1 0x20 PUSH0 KECCAK256 SWAP1 PUSH1 0x2 MUL ADD PUSH1 0x40 MLOAD DUP1 PUSH1 0x40 ADD PUSH1 0x40 MSTORE SWAP1 DUP2 PUSH0 DUP3 ADD DUP1 SLOAD PUSH2 0x994 SWAP1 PUSH2 0x1740 JUMP JUMPDEST DUP1 PUSH1 0x1F ADD PUSH1 0x20 DUP1 SWAP2 DIV MUL PUSH1 0x20 ADD PUSH1 0x40 MLOAD SWAP1 DUP2 ADD PUSH1 0x40 MSTORE DUP1 SWAP3 SWAP2 SWAP1 DUP2 DUP2 MSTORE PUSH1 0x20 ADD DUP3 DUP1 SLOAD PUSH2 0x9C0 SWAP1 PUSH2 0x1740 JUMP JUMPDEST DUP1 ISZERO PUSH2 0xA0B JUMPI DUP1 PUSH1 0x1F LT PUSH2 0x9E2 JUMPI PUSH2 0x100 DUP1 DUP4 SLOAD DIV MUL DUP4 MSTORE SWAP2 PUSH1 0x20 ADD SWAP2 PUSH2 0xA0B JUMP JUMPDEST DUP3 ADD SWAP2 SWAP1 PUSH0 MSTORE PUSH1 0x20 PUSH0 KECCAK256 SWAP1 JUMPDEST DUP2 SLOAD DUP2 MSTORE SWAP1 PUSH1 0x1 ADD SWAP1 PUSH1 0x20 ADD DUP1 DUP4 GT PUSH2 0x9EE JUMPI DUP3 SWAP1 SUB PUSH1 0x1F AND DUP3 ADD SWAP2 JUMPDEST POP POP POP POP POP DUP2 MSTORE PUSH1 0x20 ADD PUSH1 0x1 DUP3 ADD SLOAD DUP2 MSTORE POP POP DUP2 MSTORE PUSH1 0x20 ADD SWAP1 PUSH1 0x1 ADD SWAP1 PUSH2 0x964 JUMP JUMPDEST POP POP POP POP DUP4 DUP3 DUP2 MLOAD DUP2 LT PUSH2 0xA44 JUMPI PUSH2 0xA43 PUSH2 0x1658 JUMP JUMPDEST JUMPDEST PUSH1 0x20 MUL PUSH1 0x20 ADD ADD DUP2 SWAP1 MSTORE POP DUP1 DUP1 PUSH1 0x1 ADD SWAP2 POP POP PUSH2 0x771 JUMP JUMPDEST POP POP SWAP1 SWAP2 SWAP3 SWAP4 JUMP JUMPDEST PUSH0 DUP2 DUP2 SLOAD DUP2 LT PUSH2 0xA72 JUMPI PUSH0 DUP1 REVERT JUMPDEST SWAP1 PUSH0 MSTORE PUSH1 0x20 PUSH0 KECCAK256 SWAP1 PUSH1 0x4 MUL ADD PUSH0 SWAP2 POP SWAP1 POP DUP1 PUSH0 ADD DUP1 SLOAD PUSH2 0xA91 SWAP1 PUSH2 0x1740 JUMP JUMPDEST DUP1 PUSH1 0x1F ADD PUSH1 0x20 DUP1 SWAP2 DIV MUL PUSH1 0x20 ADD PUSH1 0x40 MLOAD SWAP1 DUP2 ADD PUSH1 0x40 MSTORE DUP1 SWAP3 SWAP2 SWAP1 DUP2 DUP2 MSTORE PUSH1 0x20 ADD DUP3 DUP1 SLOAD PUSH2 0xABD SWAP1 PUSH2 0x1740 JUMP JUMPDEST DUP1 ISZERO PUSH2 0xB08 JUMPI DUP1 PUSH1 0x1F LT PUSH2 0xADF JUMPI PUSH2 0x100 DUP1 DUP4 SLOAD DIV MUL DUP4 MSTORE SWAP2 PUSH1 0x20 ADD SWAP2 PUSH2 0xB08 JUMP JUMPDEST DUP3 ADD SWAP2 SWAP1 PUSH0 MSTORE PUSH1 0x20 PUSH0 KECCAK256 SWAP1 JUMPDEST DUP2 SLOAD DUP2 MSTORE SWAP1 PUSH1 0x1 ADD SWAP1 PUSH1 0x20 ADD DUP1 DUP4 GT PUSH2 0xAEB JUMPI DUP3 SWAP1 SUB PUSH1 0x1F AND DUP3 ADD SWAP2 JUMPDEST POP POP POP POP POP SWAP1 DUP1 PUSH1 0x3 ADD PUSH0 SWAP1 SLOAD SWAP1 PUSH2 0x100 EXP SWAP1 DIV PUSH20 0xFFFFFFFFFFFFFFFFFFFFFFFFFFFFFFFFFFFFFFFF AND SWAP1 DUP1 PUSH1 0x3 ADD PUSH1 0x14 SWAP1 SLOAD SWAP1 PUSH2 0x100 EXP SWAP1 DIV PUSH1 0xFF AND SWAP1 POP DUP4 JUMP JUMPDEST PUSH0 DUP1 DUP4 DUP2 SLOAD DUP2 LT PUSH2 0xB5E JUMPI PUSH2 0xB5D PUSH2 0x1658 JUMP JUMPDEST JUMPDEST SWAP1 PUSH0 MSTORE PUSH1 0x20 PUSH0 KECCAK256 SWAP1 PUSH1 0x4 MUL ADD SWAP1 POP DUP1 PUSH1 0x3 ADD PUSH1 0x14 SWAP1 SLOAD SWAP1 PUSH2 0x100 EXP SWAP1 DIV PUSH1 0xFF AND PUSH2 0xBBD JUMPI PUSH1 0x40 MLOAD PUSH32 0x8C379A000000000000000000000000000000000000000000000000000000000 DUP2 MSTORE PUSH1 0x4 ADD PUSH2 0xBB4 SWAP1 PUSH2 0x1AC2 JUMP JUMPDEST PUSH1 0x40 MLOAD DUP1 SWAP2 SUB SWAP1 REVERT JUMPDEST DUP1 PUSH1 0x2 ADD PUSH0 CALLER PUSH20 0xFFFFFFFFFFFFFFFFFFFFFFFFFFFFFFFFFFFFFFFF AND PUSH20 0xFFFFFFFFFFFFFFFFFFFFFFFFFFFFFFFFFFFFFFFF AND DUP2 MSTORE PUSH1 0x20 ADD SWAP1 DUP2 MSTORE PUSH1 0x20 ADD PUSH0 KECCAK256 PUSH0 ADD PUSH0 SWAP1 SLOAD SWAP1 PUSH2 0x100 EXP SWAP1 DIV PUSH1 0xFF AND ISZERO PUSH2 0xC4B JUMPI PUSH1 0x40 MLOAD PUSH32 0x8C379A000000000000000000000000000000000000000000000000000000000 DUP2 MSTORE PUSH1 0x4 ADD PUSH2 0xC42 SWAP1 PUSH2 0x1B2A JUMP JUMPDEST PUSH1 0x40 MLOAD DUP1 SWAP2 SUB SWAP1 REVERT JUMPDEST DUP1 PUSH1 0x1 ADD DUP1 SLOAD SWAP1 POP DUP3 LT PUSH2 0xC94 JUMPI PUSH1 0x40 MLOAD PUSH32 0x8C379A000000000000000000000000000000000000000000000000000000000 DUP2 MSTORE PUSH1 0x4 ADD PUSH2 0xC8B SWAP1 PUSH2 0x1B92 JUMP JUMPDEST PUSH1 0x40 MLOAD DUP1 SWAP2 SUB SWAP1 REVERT JUMPDEST PUSH1 0x1 DUP2 PUSH1 0x2 ADD PUSH0 CALLER PUSH20 0xFFFFFFFFFFFFFFFFFFFFFFFFFFFFFFFFFFFFFFFF AND PUSH20 0xFFFFFFFFFFFFFFFFFFFFFFFFFFFFFFFFFFFFFFFF AND DUP2 MSTORE PUSH1 0x20 ADD SWAP1 DUP2 MSTORE PUSH1 0x20 ADD PUSH0 KECCAK256 PUSH0 ADD PUSH0 PUSH2 0x100 EXP DUP2 SLOAD DUP2 PUSH1 0xFF MUL NOT AND SWAP1 DUP4 ISZERO ISZERO MUL OR SWAP1 SSTORE POP DUP1 PUSH1 0x1 ADD DUP3 DUP2 SLOAD DUP2 LT PUSH2 0xD03 JUMPI PUSH2 0xD02 PUSH2 0x1658 JUMP JUMPDEST JUMPDEST SWAP1 PUSH0 MSTORE PUSH1 0x20 PUSH0 KECCAK256 SWAP1 PUSH1 0x2 MUL ADD PUSH1 0x1 ADD PUSH0 DUP2 SLOAD DUP1 SWAP3 SWAP2 SWAP1 PUSH2 0xD22 SWAP1 PUSH2 0x1BB0 JUMP JUMPDEST SWAP2 SWAP1 POP SSTORE POP POP POP POP JUMP JUMPDEST PUSH0 DUP2 SWAP1 POP SWAP2 SWAP1 POP JUMP JUMPDEST PUSH2 0xD3E DUP2 PUSH2 0xD2C JUMP JUMPDEST DUP3 MSTORE POP POP JUMP JUMPDEST PUSH0 PUSH1 0x20 DUP3 ADD SWAP1 POP PUSH2 0xD57 PUSH0 DUP4 ADD DUP5 PUSH2 0xD35 JUMP JUMPDEST SWAP3 SWAP2 POP POP JUMP JUMPDEST PUSH0 PUSH1 0x40 MLOAD SWAP1 POP SWAP1 JUMP JUMPDEST PUSH0 DUP1 REVERT JUMPDEST PUSH0 DUP1 REVERT JUMPDEST PUSH2 0xD77 DUP2 PUSH2 0xD2C JUMP JUMPDEST DUP2 EQ PUSH2 0xD81 JUMPI PUSH0 DUP1 REVERT JUMPDEST POP JUMP JUMPDEST PUSH0 DUP2 CALLDATALOAD SWAP1 POP PUSH2 0xD92 DUP2 PUSH2 0xD6E JUMP JUMPDEST SWAP3 SWAP2 POP POP JUMP JUMPDEST PUSH0 DUP1 REVERT JUMPDEST PUSH0 DUP1 REVERT JUMPDEST PUSH0 PUSH1 0x1F NOT PUSH1 0x1F DUP4 ADD AND SWAP1 POP SWAP2 SWAP1 POP JUMP JUMPDEST PUSH32 0x4E487B7100000000000000000000000000000000000000000000000000000000 PUSH0 MSTORE PUSH1 0x41 PUSH1 0x4 MSTORE PUSH1 0x24 PUSH0 REVERT JUMPDEST PUSH2 0xDE6 DUP3 PUSH2 0xDA0 JUMP JUMPDEST DUP2 ADD DUP2 DUP2 LT PUSH8 0xFFFFFFFFFFFFFFFF DUP3 GT OR ISZERO PUSH2 0xE05 JUMPI PUSH2 0xE04 PUSH2 0xDB0 JUMP JUMPDEST JUMPDEST DUP1 PUSH1 0x40 MSTORE POP POP POP JUMP JUMPDEST PUSH0 PUSH2 0xE17 PUSH2 0xD5D JUMP JUMPDEST SWAP1 POP PUSH2 0xE23 DUP3 DUP3 PUSH2 0xDDD JUMP JUMPDEST SWAP2 SWAP1 POP JUMP JUMPDEST PUSH0 PUSH8 0xFFFFFFFFFFFFFFFF DUP3 GT ISZERO PUSH2 0xE42 JUMPI PUSH2 0xE41 PUSH2 0xDB0 JUMP JUMPDEST JUMPDEST PUSH2 0xE4B DUP3 PUSH2 0xDA0 JUMP JUMPDEST SWAP1 POP PUSH1 0x20 DUP2 ADD SWAP1 POP SWAP2 SWAP1 POP JUMP JUMPDEST DUP3 DUP2 DUP4 CALLDATACOPY PUSH0 DUP4 DUP4 ADD MSTORE POP POP POP JUMP JUMPDEST PUSH0 PUSH2 0xE78 PUSH2 0xE73 DUP5 PUSH2 0xE28 JUMP JUMPDEST PUSH2 0xE0E JUMP JUMPDEST SWAP1 POP DUP3 DUP2 MSTORE PUSH1 0x20 DUP2 ADD DUP5 DUP5 DUP5 ADD GT ISZERO PUSH2 0xE94 JUMPI PUSH2 0xE93 PUSH2 0xD9C JUMP JUMPDEST JUMPDEST PUSH2 0xE9F DUP5 DUP3 DUP6 PUSH2 0xE58 JUMP JUMPDEST POP SWAP4 SWAP3 POP POP POP JUMP JUMPDEST PUSH0 DUP3 PUSH1 0x1F DUP4 ADD SLT PUSH2 0xEBB JUMPI PUSH2 0xEBA PUSH2 0xD98 JUMP JUMPDEST JUMPDEST DUP2 CALLDATALOAD PUSH2 0xECB DUP5 DUP3 PUSH1 0x20 DUP7 ADD PUSH2 0xE66 JUMP JUMPDEST SWAP2 POP POP SWAP3 SWAP2 POP POP JUMP JUMPDEST PUSH0 DUP1 PUSH1 0x40 DUP4 DUP6 SUB SLT ISZERO PUSH2 0xEEA JUMPI PUSH2 0xEE9 PUSH2 0xD66 JUMP JUMPDEST JUMPDEST PUSH0 PUSH2 0xEF7 DUP6 DUP3 DUP7 ADD PUSH2 0xD84 JUMP JUMPDEST SWAP3 POP POP PUSH1 0x20 DUP4 ADD CALLDATALOAD PUSH8 0xFFFFFFFFFFFFFFFF DUP2 GT ISZERO PUSH2 0xF18 JUMPI PUSH2 0xF17 PUSH2 0xD6A JUMP JUMPDEST JUMPDEST PUSH2 0xF24 DUP6 DUP3 DUP7 ADD PUSH2 0xEA7 JUMP JUMPDEST SWAP2 POP POP SWAP3 POP SWAP3 SWAP1 POP JUMP JUMPDEST PUSH0 PUSH1 0x20 DUP3 DUP5 SUB SLT ISZERO PUSH2 0xF43 JUMPI PUSH2 0xF42 PUSH2 0xD66 JUMP JUMPDEST JUMPDEST PUSH0 PUSH2 0xF50 DUP5 DUP3 DUP6 ADD PUSH2 0xD84 JUMP JUMPDEST SWAP2 POP POP SWAP3 SWAP2 POP POP JUMP JUMPDEST PUSH0 DUP2 MLOAD SWAP1 POP SWAP2 SWAP1 POP JUMP JUMPDEST PUSH0 DUP3 DUP3 MSTORE PUSH1 0x20 DUP3 ADD SWAP1 POP SWAP3 SWAP2 POP POP JUMP JUMPDEST PUSH0 DUP2 SWAP1 POP PUSH1 0x20 DUP3 ADD SWAP1 POP SWAP2 SWAP1 POP JUMP JUMPDEST PUSH0 DUP2 MLOAD SWAP1 POP SWAP2 SWAP1 POP JUMP JUMPDEST PUSH0 DUP3 DUP3 MSTORE PUSH1 0x20 DUP3 ADD SWAP1 POP SWAP3 SWAP2 POP POP JUMP JUMPDEST DUP3 DUP2 DUP4 MCOPY PUSH0 DUP4 DUP4 ADD MSTORE POP POP POP JUMP JUMPDEST PUSH0 PUSH2 0xFB4 DUP3 PUSH2 0xF82 JUMP JUMPDEST PUSH2 0xFBE DUP2 DUP6 PUSH2 0xF8C JUMP JUMPDEST SWAP4 POP PUSH2 0xFCE DUP2 DUP6 PUSH1 0x20 DUP7 ADD PUSH2 0xF9C JUMP JUMPDEST PUSH2 0xFD7 DUP2 PUSH2 0xDA0 JUMP JUMPDEST DUP5 ADD SWAP2 POP POP SWAP3 SWAP2 POP POP JUMP JUMPDEST PUSH0 PUSH2 0xFED DUP4 DUP4 PUSH2 0xFAA JUMP JUMPDEST SWAP1 POP SWAP3 SWAP2 POP POP JUMP JUMPDEST PUSH0 PUSH1 0x20 DUP3 ADD SWAP1 POP SWAP2 SWAP1 POP JUMP JUMPDEST PUSH0 PUSH2 0x100B DUP3 PUSH2 0xF59 JUMP JUMPDEST PUSH2 0x1015 DUP2 DUP6 PUSH2 0xF63 JUMP JUMPDEST SWAP4 POP DUP4 PUSH1 0x20 DUP3 MUL DUP6 ADD PUSH2 0x1027 DUP6 PUSH2 0xF73 JUMP JUMPDEST DUP1 PUSH0 JUMPDEST DUP6 DUP2 LT ISZERO PUSH2 0x1062 JUMPI DUP5 DUP5 SUB DUP10 MSTORE DUP2 MLOAD PUSH2 0x1043 DUP6 DUP3 PUSH2 0xFE2 JUMP JUMPDEST SWAP5 POP PUSH2 0x104E DUP4 PUSH2 0xFF5 JUMP JUMPDEST SWAP3 POP PUSH1 0x20 DUP11 ADD SWAP10 POP POP PUSH1 0x1 DUP2 ADD SWAP1 POP PUSH2 0x102A JUMP JUMPDEST POP DUP3 SWAP8 POP DUP8 SWAP6 POP POP POP POP POP POP SWAP3 SWAP2 POP POP JUMP JUMPDEST PUSH0 DUP2 MLOAD SWAP1 POP SWAP2 SWAP1 POP JUMP JUMPDEST PUSH0 DUP3 DUP3 MSTORE PUSH1 0x20 DUP3 ADD SWAP1 POP SWAP3 SWAP2 POP POP JUMP JUMPDEST PUSH0 DUP2 SWAP1 POP PUSH1 0x20 DUP3 ADD SWAP1 POP SWAP2 SWAP1 POP JUMP JUMPDEST PUSH2 0x10A6 DUP2 PUSH2 0xD2C JUMP JUMPDEST DUP3 MSTORE POP POP JUMP JUMPDEST PUSH0 PUSH2 0x10B7 DUP4 DUP4 PUSH2 0x109D JUMP JUMPDEST PUSH1 0x20 DUP4 ADD SWAP1 POP SWAP3 SWAP2 POP POP JUMP JUMPDEST PUSH0 PUSH1 0x20 DUP3 ADD SWAP1 POP SWAP2 SWAP1 POP JUMP JUMPDEST PUSH0 PUSH2 0x10D9 DUP3 PUSH2 0x1074 JUMP JUMPDEST PUSH2 0x10E3 DUP2 DUP6 PUSH2 0x107E JUMP JUMPDEST SWAP4 POP PUSH2 0x10EE DUP4 PUSH2 0x108E JUMP JUMPDEST DUP1 PUSH0 JUMPDEST DUP4 DUP2 LT ISZERO PUSH2 0x111E JUMPI DUP2 MLOAD PUSH2 0x1105 DUP9 DUP3 PUSH2 0x10AC JUMP JUMPDEST SWAP8 POP PUSH2 0x1110 DUP4 PUSH2 0x10C3 JUMP JUMPDEST SWAP3 POP POP PUSH1 0x1 DUP2 ADD SWAP1 POP PUSH2 0x10F1 JUMP JUMPDEST POP DUP6 SWAP4 POP POP POP POP SWAP3 SWAP2 POP POP JUMP JUMPDEST PUSH0 PUSH1 0x40 DUP3 ADD SWAP1 POP DUP2 DUP2 SUB PUSH0 DUP4 ADD MSTORE PUSH2 0x1143 DUP2 DUP6 PUSH2 0x1001 JUMP JUMPDEST SWAP1 POP DUP2 DUP2 SUB PUSH1 0x20 DUP4 ADD MSTORE PUSH2 0x1157 DUP2 DUP5 PUSH2 0x10CF JUMP JUMPDEST SWAP1 POP SWAP4 SWAP3 POP POP POP JUMP JUMPDEST PUSH0 PUSH1 0x20 DUP3 DUP5 SUB SLT ISZERO PUSH2 0x1175 JUMPI PUSH2 0x1174 PUSH2 0xD66 JUMP JUMPDEST JUMPDEST PUSH0 DUP3 ADD CALLDATALOAD PUSH8 0xFFFFFFFFFFFFFFFF DUP2 GT ISZERO PUSH2 0x1192 JUMPI PUSH2 0x1191 PUSH2 0xD6A JUMP JUMPDEST JUMPDEST PUSH2 0x119E DUP5 DUP3 DUP6 ADD PUSH2 0xEA7 JUMP JUMPDEST SWAP2 POP POP SWAP3 SWAP2 POP POP JUMP JUMPDEST PUSH0 DUP2 ISZERO ISZERO SWAP1 POP SWAP2 SWAP1 POP JUMP JUMPDEST PUSH2 0x11BB DUP2 PUSH2 0x11A7 JUMP JUMPDEST DUP3 MSTORE POP POP JUMP JUMPDEST PUSH0 PUSH1 0x20 DUP3 ADD SWAP1 POP PUSH2 0x11D4 PUSH0 DUP4 ADD DUP5 PUSH2 0x11B2 JUMP JUMPDEST SWAP3 SWAP2 POP POP JUMP JUMPDEST PUSH0 DUP2 MLOAD SWAP1 POP SWAP2 SWAP1 POP JUMP JUMPDEST PUSH0 DUP3 DUP3 MSTORE PUSH1 0x20 DUP3 ADD SWAP1 POP SWAP3 SWAP2 POP POP JUMP JUMPDEST PUSH0 DUP2 SWAP1 POP PUSH1 0x20 DUP3 ADD SWAP1 POP SWAP2 SWAP1 POP JUMP JUMPDEST PUSH0 PUSH20 0xFFFFFFFFFFFFFFFFFFFFFFFFFFFFFFFFFFFFFFFF DUP3 AND SWAP1 POP SWAP2 SWAP1 POP JUMP JUMPDEST PUSH0 PUSH2 0x122C DUP3 PUSH2 0x1203 JUMP JUMPDEST SWAP1 POP SWAP2 SWAP1 POP JUMP JUMPDEST PUSH2 0x123C DUP2 PUSH2 0x1222 JUMP JUMPDEST DUP3 MSTORE POP POP JUMP JUMPDEST PUSH0 PUSH2 0x124D DUP4 DUP4 PUSH2 0x1233 JUMP JUMPDEST PUSH1 0x20 DUP4 ADD SWAP1 POP SWAP3 SWAP2 POP POP JUMP JUMPDEST PUSH0 PUSH1 0x20 DUP3 ADD SWAP1 POP SWAP2 SWAP1 POP JUMP JUMPDEST PUSH0 PUSH2 0x126F DUP3 PUSH2 0x11DA JUMP JUMPDEST PUSH2 0x1279 DUP2 DUP6 PUSH2 0x11E4 JUMP JUMPDEST SWAP4 POP PUSH2 0x1284 DUP4 PUSH2 0x11F4 JUMP JUMPDEST DUP1 PUSH0 JUMPDEST DUP4 DUP2 LT ISZERO PUSH2 0x12B4 JUMPI DUP2 MLOAD PUSH2 0x129B DUP9 DUP3 PUSH2 0x1242 JUMP JUMPDEST SWAP8 POP PUSH2 0x12A6 DUP4 PUSH2 0x1259 JUMP JUMPDEST SWAP3 POP POP PUSH1 0x1 DUP2 ADD SWAP1 POP PUSH2 0x1287 JUMP JUMPDEST POP DUP6 SWAP4 POP POP POP POP SWAP3 SWAP2 POP POP JUMP JUMPDEST PUSH0 DUP2 MLOAD SWAP1 POP SWAP2 SWAP1 POP JUMP JUMPDEST PUSH0 DUP3 DUP3 MSTORE PUSH1 0x20 DUP3 ADD SWAP1 POP SWAP3 SWAP2 POP POP JUMP JUMPDEST PUSH0 DUP2 SWAP1 POP PUSH1 0x20 DUP3 ADD SWAP1 POP SWAP2 SWAP1 POP JUMP JUMPDEST PUSH2 0x12F3 DUP2 PUSH2 0x11A7 JUMP JUMPDEST DUP3 MSTORE POP POP JUMP JUMPDEST PUSH0 PUSH2 0x1304 DUP4 DUP4 PUSH2 0x12EA JUMP JUMPDEST PUSH1 0x20 DUP4 ADD SWAP1 POP SWAP3 SWAP2 POP POP JUMP JUMPDEST PUSH0 PUSH1 0x20 DUP3 ADD SWAP1 POP SWAP2 SWAP1 POP JUMP JUMPDEST PUSH0 PUSH2 0x1326 DUP3 PUSH2 0x12C1 JUMP JUMPDEST PUSH2 0x1330 DUP2 DUP6 PUSH2 0x12CB JUMP JUMPDEST SWAP4 POP PUSH2 0x133B DUP4 PUSH2 0x12DB JUMP JUMPDEST DUP1 PUSH0 JUMPDEST DUP4 DUP2 LT ISZERO PUSH2 0x136B JUMPI DUP2 MLOAD PUSH2 0x1352 DUP9 DUP3 PUSH2 0x12F9 JUMP JUMPDEST SWAP8 POP PUSH2 0x135D DUP4 PUSH2 0x1310 JUMP JUMPDEST SWAP3 POP POP PUSH1 0x1 DUP2 ADD SWAP1 POP PUSH2 0x133E JUMP JUMPDEST POP DUP6 SWAP4 POP POP POP POP SWAP3 SWAP2 POP POP JUMP JUMPDEST PUSH0 DUP2 MLOAD SWAP1 POP SWAP2 SWAP1 POP JUMP JUMPDEST PUSH0 DUP3 DUP3 MSTORE PUSH1 0x20 DUP3 ADD SWAP1 POP SWAP3 SWAP2 POP POP JUMP JUMPDEST PUSH0 DUP2 SWAP1 POP PUSH1 0x20 DUP3 ADD SWAP1 POP SWAP2 SWAP1 POP JUMP JUMPDEST PUSH0 DUP2 MLOAD SWAP1 POP SWAP2 SWAP1 POP JUMP JUMPDEST PUSH0 DUP3 DUP3 MSTORE PUSH1 0x20 DUP3 ADD SWAP1 POP SWAP3 SWAP2 POP POP JUMP JUMPDEST PUSH0 DUP2 SWAP1 POP PUSH1 0x20 DUP3 ADD SWAP1 POP SWAP2 SWAP1 POP JUMP JUMPDEST PUSH0 PUSH1 0x40 DUP4 ADD PUSH0 DUP4 ADD MLOAD DUP5 DUP3 SUB PUSH0 DUP7 ADD MSTORE PUSH2 0x13E4 DUP3 DUP3 PUSH2 0xFAA JUMP JUMPDEST SWAP2 POP POP PUSH1 0x20 DUP4 ADD MLOAD PUSH2 0x13F9 PUSH1 0x20 DUP7 ADD DUP3 PUSH2 0x109D JUMP JUMPDEST POP DUP1 SWAP2 POP POP SWAP3 SWAP2 POP POP JUMP JUMPDEST PUSH0 PUSH2 0x140F DUP4 DUP4 PUSH2 0x13CA JUMP JUMPDEST SWAP1 POP SWAP3 SWAP2 POP POP JUMP JUMPDEST PUSH0 PUSH1 0x20 DUP3 ADD SWAP1 POP SWAP2 SWAP1 POP JUMP JUMPDEST PUSH0 PUSH2 0x142D DUP3 PUSH2 0x13A1 JUMP JUMPDEST PUSH2 0x1437 DUP2 DUP6 PUSH2 0x13AB JUMP JUMPDEST SWAP4 POP DUP4 PUSH1 0x20 DUP3 MUL DUP6 ADD PUSH2 0x1449 DUP6 PUSH2 0x13BB JUMP JUMPDEST DUP1 PUSH0 JUMPDEST DUP6 DUP2 LT ISZERO PUSH2 0x1484 JUMPI DUP5 DUP5 SUB DUP10 MSTORE DUP2 MLOAD PUSH2 0x1465 DUP6 DUP3 PUSH2 0x1404 JUMP JUMPDEST SWAP5 POP PUSH2 0x1470 DUP4 PUSH2 0x1417 JUMP JUMPDEST SWAP3 POP PUSH1 0x20 DUP11 ADD SWAP10 POP POP PUSH1 0x1 DUP2 ADD SWAP1 POP PUSH2 0x144C JUMP JUMPDEST POP DUP3 SWAP8 POP DUP8 SWAP6 POP POP POP POP POP POP SWAP3 SWAP2 POP POP JUMP JUMPDEST PUSH0 PUSH2 0x14A1 DUP4 DUP4 PUSH2 0x1423 JUMP JUMPDEST SWAP1 POP SWAP3 SWAP2 POP POP JUMP JUMPDEST PUSH0 PUSH1 0x20 DUP3 ADD SWAP1 POP SWAP2 SWAP1 POP JUMP JUMPDEST PUSH0 PUSH2 0x14BF DUP3 PUSH2 0x1378 JUMP JUMPDEST PUSH2 0x14C9 DUP2 DUP6 PUSH2 0x1382 JUMP JUMPDEST SWAP4 POP DUP4 PUSH1 0x20 DUP3 MUL DUP6 ADD PUSH2 0x14DB DUP6 PUSH2 0x1392 JUMP JUMPDEST DUP1 PUSH0 JUMPDEST DUP6 DUP2 LT ISZERO PUSH2 0x1516 JUMPI DUP5 DUP5 SUB DUP10 MSTORE DUP2 MLOAD PUSH2 0x14F7 DUP6 DUP3 PUSH2 0x1496 JUMP JUMPDEST SWAP5 POP PUSH2 0x1502 DUP4 PUSH2 0x14A9 JUMP JUMPDEST SWAP3 POP PUSH1 0x20 DUP11 ADD SWAP10 POP POP PUSH1 0x1 DUP2 ADD SWAP1 POP PUSH2 0x14DE JUMP JUMPDEST POP DUP3 SWAP8 POP DUP8 SWAP6 POP POP POP POP POP POP SWAP3 SWAP2 POP POP JUMP JUMPDEST PUSH0 PUSH1 0x80 DUP3 ADD SWAP1 POP DUP2 DUP2 SUB PUSH0 DUP4 ADD MSTORE PUSH2 0x1540 DUP2 DUP8 PUSH2 0x1001 JUMP JUMPDEST SWAP1 POP DUP2 DUP2 SUB PUSH1 0x20 DUP4 ADD MSTORE PUSH2 0x1554 DUP2 DUP7 PUSH2 0x1265 JUMP JUMPDEST SWAP1 POP DUP2 DUP2 SUB PUSH1 0x40 DUP4 ADD MSTORE PUSH2 0x1568 DUP2 DUP6 PUSH2 0x131C JUMP JUMPDEST SWAP1 POP DUP2 DUP2 SUB PUSH1 0x60 DUP4 ADD MSTORE PUSH2 0x157C DUP2 DUP5 PUSH2 0x14B5 JUMP JUMPDEST SWAP1 POP SWAP6 SWAP5 POP POP POP POP POP JUMP JUMPDEST PUSH0 DUP3 DUP3 MSTORE PUSH1 0x20 DUP3 ADD SWAP1 POP SWAP3 SWAP2 POP POP JUMP JUMPDEST PUSH0 PUSH2 0x15A1 DUP3 PUSH2 0xF82 JUMP JUMPDEST PUSH2 0x15AB DUP2 DUP6 PUSH2 0x1587 JUMP JUMPDEST SWAP4 POP PUSH2 0x15BB DUP2 DUP6 PUSH1 0x20 DUP7 ADD PUSH2 0xF9C JUMP JUMPDEST PUSH2 0x15C4 DUP2 PUSH2 0xDA0 JUMP JUMPDEST DUP5 ADD SWAP2 POP POP SWAP3 SWAP2 POP POP JUMP JUMPDEST PUSH2 0x15D8 DUP2 PUSH2 0x1222 JUMP JUMPDEST DUP3 MSTORE POP POP JUMP JUMPDEST PUSH0 PUSH1 0x60 DUP3 ADD SWAP1 POP DUP2 DUP2 SUB PUSH0 DUP4 ADD MSTORE PUSH2 0x15F6 DUP2 DUP7 PUSH2 0x1597 JUMP JUMPDEST SWAP1 POP PUSH2 0x1605 PUSH1 0x20 DUP4 ADD DUP6 PUSH2 0x15CF JUMP JUMPDEST PUSH2 0x1612 PUSH1 0x40 DUP4 ADD DUP5 PUSH2 0x11B2 JUMP JUMPDEST SWAP5 SWAP4 POP POP POP POP JUMP JUMPDEST PUSH0 DUP1 PUSH1 0x40 DUP4 DUP6 SUB SLT ISZERO PUSH2 0x1630 JUMPI PUSH2 0x162F PUSH2 0xD66 JUMP JUMPDEST JUMPDEST PUSH0 PUSH2 0x163D DUP6 DUP3 DUP7 ADD PUSH2 0xD84 JUMP JUMPDEST SWAP3 POP POP PUSH1 0x20 PUSH2 0x164E DUP6 DUP3 DUP7 ADD PUSH2 0xD84 JUMP JUMPDEST SWAP2 POP POP SWAP3 POP SWAP3 SWAP1 POP JUMP JUMPDEST PUSH32 0x4E487B7100000000000000000000000000000000000000000000000000000000 PUSH0 MSTORE PUSH1 0x32 PUSH1 0x4 MSTORE PUSH1 0x24 PUSH0 REVERT JUMPDEST PUSH32 0x4F6E6C7920746865206F776E65722063616E206164642063616E646964617465 PUSH0 DUP3 ADD MSTORE PUSH32 0x7300000000000000000000000000000000000000000000000000000000000000 PUSH1 0x20 DUP3 ADD MSTORE POP JUMP JUMPDEST PUSH0 PUSH2 0x16DF PUSH1 0x21 DUP4 PUSH2 0x1587 JUMP JUMPDEST SWAP2 POP PUSH2 0x16EA DUP3 PUSH2 0x1685 JUMP JUMPDEST PUSH1 0x40 DUP3 ADD SWAP1 POP SWAP2 SWAP1 POP JUMP JUMPDEST PUSH0 PUSH1 0x20 DUP3 ADD SWAP1 POP DUP2 DUP2 SUB PUSH0 DUP4 ADD MSTORE PUSH2 0x170C DUP2 PUSH2 0x16D3 JUMP JUMPDEST SWAP1 POP SWAP2 SWAP1 POP JUMP JUMPDEST PUSH32 0x4E487B7100000000000000000000000000000000000000000000000000000000 PUSH0 MSTORE PUSH1 0x22 PUSH1 0x4 MSTORE PUSH1 0x24 PUSH0 REVERT JUMPDEST PUSH0 PUSH1 0x2 DUP3 DIV SWAP1 POP PUSH1 0x1 DUP3 AND DUP1 PUSH2 0x1757 JUMPI PUSH1 0x7F DUP3 AND SWAP2 POP JUMPDEST PUSH1 0x20 DUP3 LT DUP2 SUB PUSH2 0x176A JUMPI PUSH2 0x1769 PUSH2 0x1713 JUMP JUMPDEST JUMPDEST POP SWAP2 SWAP1 POP JUMP JUMPDEST PUSH0 DUP2 SWAP1 POP DUP2 PUSH0 MSTORE PUSH1 0x20 PUSH0 KECCAK256 SWAP1 POP SWAP2 SWAP1 POP JUMP JUMPDEST PUSH0 PUSH1 0x20 PUSH1 0x1F DUP4 ADD DIV SWAP1 POP SWAP2 SWAP1 POP JUMP JUMPDEST PUSH0 DUP3 DUP3 SHL SWAP1 POP SWAP3 SWAP2 POP POP JUMP JUMPDEST PUSH0 PUSH1 0x8 DUP4 MUL PUSH2 0x17CC PUSH32 0xFFFFFFFFFFFFFFFFFFFFFFFFFFFFFFFFFFFFFFFFFFFFFFFFFFFFFFFFFFFFFFFF DUP3 PUSH2 0x1791 JUMP JUMPDEST PUSH2 0x17D6 DUP7 DUP4 PUSH2 0x1791 JUMP JUMPDEST SWAP6 POP DUP1 NOT DUP5 AND SWAP4 POP DUP1 DUP7 AND DUP5 OR SWAP3 POP POP POP SWAP4 SWAP3 POP POP POP JUMP JUMPDEST PUSH0 DUP2 SWAP1 POP SWAP2 SWAP1 POP JUMP JUMPDEST PUSH0 PUSH2 0x1811 PUSH2 0x180C PUSH2 0x1807 DUP5 PUSH2 0xD2C JUMP JUMPDEST PUSH2 0x17EE JUMP JUMPDEST PUSH2 0xD2C JUMP JUMPDEST SWAP1 POP SWAP2 SWAP1 POP JUMP JUMPDEST PUSH0 DUP2 SWAP1 POP SWAP2 SWAP1 POP JUMP JUMPDEST PUSH2 0x182A DUP4 PUSH2 0x17F7 JUMP JUMPDEST PUSH2 0x183E PUSH2 0x1836 DUP3 PUSH2 0x1818 JUMP JUMPDEST DUP5 DUP5 SLOAD PUSH2 0x179D JUMP JUMPDEST DUP3 SSTORE POP POP POP POP JUMP JUMPDEST PUSH0 SWAP1 JUMP JUMPDEST PUSH2 0x1852 PUSH2 0x1846 JUMP JUMPDEST PUSH2 0x185D DUP2 DUP5 DUP5 PUSH2 0x1821 JUMP JUMPDEST POP POP POP JUMP JUMPDEST JUMPDEST DUP2 DUP2 LT ISZERO PUSH2 0x1880 JUMPI PUSH2 0x1875 PUSH0 DUP3 PUSH2 0x184A JUMP JUMPDEST PUSH1 0x1 DUP2 ADD SWAP1 POP PUSH2 0x1863 JUMP JUMPDEST POP POP JUMP JUMPDEST PUSH1 0x1F DUP3 GT ISZERO PUSH2 0x18C5 JUMPI PUSH2 0x1896 DUP2 PUSH2 0x1770 JUMP JUMPDEST PUSH2 0x189F DUP5 PUSH2 0x1782 JUMP JUMPDEST DUP2 ADD PUSH1 0x20 DUP6 LT ISZERO PUSH2 0x18AE JUMPI DUP2 SWAP1 POP JUMPDEST PUSH2 0x18C2 PUSH2 0x18BA DUP6 PUSH2 0x1782 JUMP JUMPDEST DUP4 ADD DUP3 PUSH2 0x1862 JUMP JUMPDEST POP POP JUMPDEST POP POP POP JUMP JUMPDEST PUSH0 DUP3 DUP3 SHR SWAP1 POP SWAP3 SWAP2 POP POP JUMP JUMPDEST PUSH0 PUSH2 0x18E5 PUSH0 NOT DUP5 PUSH1 0x8 MUL PUSH2 0x18CA JUMP JUMPDEST NOT DUP1 DUP4 AND SWAP2 POP POP SWAP3 SWAP2 POP POP JUMP JUMPDEST PUSH0 PUSH2 0x18FD DUP4 DUP4 PUSH2 0x18D6 JUMP JUMPDEST SWAP2 POP DUP3 PUSH1 0x2 MUL DUP3 OR SWAP1 POP SWAP3 SWAP2 POP POP JUMP JUMPDEST PUSH2 0x1916 DUP3 PUSH2 0xF82 JUMP JUMPDEST PUSH8 0xFFFFFFFFFFFFFFFF DUP2 GT ISZERO PUSH2 0x192F JUMPI PUSH2 0x192E PUSH2 0xDB0 JUMP JUMPDEST JUMPDEST PUSH2 0x1939 DUP3 SLOAD PUSH2 0x1740 JUMP JUMPDEST PUSH2 0x1944 DUP3 DUP3 DUP6 PUSH2 0x1884 JUMP JUMPDEST PUSH0 PUSH1 0x20 SWAP1 POP PUSH1 0x1F DUP4 GT PUSH1 0x1 DUP2 EQ PUSH2 0x1975 JUMPI PUSH0 DUP5 ISZERO PUSH2 0x1963 JUMPI DUP3 DUP8 ADD MLOAD SWAP1 POP JUMPDEST PUSH2 0x196D DUP6 DUP3 PUSH2 0x18F2 JUMP JUMPDEST DUP7 SSTORE POP PUSH2 0x19D4 JUMP JUMPDEST PUSH1 0x1F NOT DUP5 AND PUSH2 0x1983 DUP7 PUSH2 0x1770 JUMP JUMPDEST PUSH0 JUMPDEST DUP3 DUP2 LT ISZERO PUSH2 0x19AA JUMPI DUP5 DUP10 ADD MLOAD DUP3 SSTORE PUSH1 0x1 DUP3 ADD SWAP2 POP PUSH1 0x20 DUP6 ADD SWAP5 POP PUSH1 0x20 DUP2 ADD SWAP1 POP PUSH2 0x1985 JUMP JUMPDEST DUP7 DUP4 LT ISZERO PUSH2 0x19C7 JUMPI DUP5 DUP10 ADD MLOAD PUSH2 0x19C3 PUSH1 0x1F DUP10 AND DUP3 PUSH2 0x18D6 JUMP JUMPDEST DUP4 SSTORE POP JUMPDEST PUSH1 0x1 PUSH1 0x2 DUP9 MUL ADD DUP9 SSTORE POP POP POP JUMPDEST POP POP POP POP POP POP JUMP JUMPDEST PUSH32 0x4E487B7100000000000000000000000000000000000000000000000000000000 PUSH0 MSTORE PUSH1 0x11 PUSH1 0x4 MSTORE PUSH1 0x24 PUSH0 REVERT JUMPDEST PUSH0 PUSH2 0x1A13 DUP3 PUSH2 0xD2C JUMP JUMPDEST SWAP2 POP PUSH2 0x1A1E DUP4 PUSH2 0xD2C JUMP JUMPDEST SWAP3 POP DUP3 DUP3 SUB SWAP1 POP DUP2 DUP2 GT ISZERO PUSH2 0x1A36 JUMPI PUSH2 0x1A35 PUSH2 0x19DC JUMP JUMPDEST JUMPDEST SWAP3 SWAP2 POP POP JUMP JUMPDEST PUSH0 PUSH1 0x60 DUP3 ADD SWAP1 POP PUSH2 0x1A4F PUSH0 DUP4 ADD DUP7 PUSH2 0xD35 JUMP JUMPDEST DUP2 DUP2 SUB PUSH1 0x20 DUP4 ADD MSTORE PUSH2 0x1A61 DUP2 DUP6 PUSH2 0x1597 JUMP JUMPDEST SWAP1 POP PUSH2 0x1A70 PUSH1 0x40 DUP4 ADD DUP5 PUSH2 0x15CF JUMP JUMPDEST SWAP5 SWAP4 POP POP POP POP JUMP JUMPDEST PUSH32 0x506F6C6C206973206E6F74206163746976650000000000000000000000000000 PUSH0 DUP3 ADD MSTORE POP JUMP JUMPDEST PUSH0 PUSH2 0x1AAC PUSH1 0x12 DUP4 PUSH2 0x1587 JUMP JUMPDEST SWAP2 POP PUSH2 0x1AB7 DUP3 PUSH2 0x1A78 JUMP JUMPDEST PUSH1 0x20 DUP3 ADD SWAP1 POP SWAP2 SWAP1 POP JUMP JUMPDEST PUSH0 PUSH1 0x20 DUP3 ADD SWAP1 POP DUP2 DUP2 SUB PUSH0 DUP4 ADD MSTORE PUSH2 0x1AD9 DUP2 PUSH2 0x1AA0 JUMP JUMPDEST SWAP1 POP SWAP2 SWAP1 POP JUMP JUMPDEST PUSH32 0x596F75206861766520616C726561647920766F74656400000000000000000000 PUSH0 DUP3 ADD MSTORE POP JUMP JUMPDEST PUSH0 PUSH2 0x1B14 PUSH1 0x16 DUP4 PUSH2 0x1587 JUMP JUMPDEST SWAP2 POP PUSH2 0x1B1F DUP3 PUSH2 0x1AE0 JUMP JUMPDEST PUSH1 0x20 DUP3 ADD SWAP1 POP SWAP2 SWAP1 POP JUMP JUMPDEST PUSH0 PUSH1 0x20 DUP3 ADD SWAP1 POP DUP2 DUP2 SUB PUSH0 DUP4 ADD MSTORE PUSH2 0x1B41 DUP2 PUSH2 0x1B08 JUMP JUMPDEST SWAP1 POP SWAP2 SWAP1 POP JUMP JUMPDEST PUSH32 0x496E76616C69642063616E64696461746520696E646578000000000000000000 PUSH0 DUP3 ADD MSTORE POP JUMP JUMPDEST PUSH0 PUSH2 0x1B7C PUSH1 0x17 DUP4 PUSH2 0x1587 JUMP JUMPDEST SWAP2 POP PUSH2 0x1B87 DUP3 PUSH2 0x1B48 JUMP JUMPDEST PUSH1 0x20 DUP3 ADD SWAP1 POP SWAP2 SWAP1 POP JUMP JUMPDEST PUSH0 PUSH1 0x20 DUP3 ADD SWAP1 POP DUP2 DUP2 SUB PUSH0 DUP4 ADD MSTORE PUSH2 0x1BA9 DUP2 PUSH2 0x1B70 JUMP JUMPDEST SWAP1 POP SWAP2 SWAP1 POP JUMP JUMPDEST PUSH0 PUSH2 0x1BBA DUP3 PUSH2 0xD2C JUMP JUMPDEST SWAP2 POP PUSH32 0xFFFFFFFFFFFFFFFFFFFFFFFFFFFFFFFFFFFFFFFFFFFFFFFFFFFFFFFFFFFFFFFF DUP3 SUB PUSH2 0x1BEC JUMPI PUSH2 0x1BEB PUSH2 0x19DC JUMP JUMPDEST JUMPDEST PUSH1 0x1 DUP3 ADD SWAP1 POP SWAP2 SWAP1 POP JUMP INVALID LOG2 PUSH5 0x6970667358 0x22 SLT KECCAK256 0x1E 0xE1 0xE9 PUSH12 0x9011D3136DFB592F7FC9F355 DUP10 0xD0 TIMESTAMP 0xCA 0xB0 0xD8 GT MSTORE 0xBD PUSH0 MCOPY 0xBE 0xA5 EXTCODECOPY 0xCF INVALID PUSH5 0x736F6C6343 STOP ADDMOD BYTE STOP CALLER "
				},
				"gasEstimates": {
					"creation": {
						"codeDepositCost": "1442600",
						"executionCost": "1504",
						"totalCost": "1444104"
					},
					"external": {
						"addCandidate(uint256,string)": "infinite",
						"createPoll(string)": "infinite",
						"getAllPoll()": "infinite",
						"getHasVoted(uint256)": "5033",
						"getPollCount()": "2441",
						"getPollResults(uint256)": "infinite",
						"polls(uint256)": "infinite",
						"vote(uint256,uint256)": "infinite"
					}
				},
				"methodIdentifiers": {
					"addCandidate(uint256,string)": "1750a3d0",
					"createPoll(string)": "74a9ced9",
					"getAllPoll()": "9844f215",
					"getHasVoted(uint256)": "7b70e360",
					"getPollCount()": "11a52746",
					"getPollResults(uint256)": "33b4097b",
					"polls(uint256)": "ac2f0074",
					"vote(uint256,uint256)": "b384abef"
				}
			},
			"storageLayout": {
				"storage": [
					{
						"astId": 29,
						"contract": "blockchain/practice/vote-app.sol:Vote",
						"label": "polls",
						"offset": 0,
						"slot": "0",
						"type": "t_array(t_struct(Poll)25_storage)dyn_storage"
					}
				],
				"types": {
					"t_address": {
						"encoding": "inplace",
						"label": "address",
						"numberOfBytes": "20"
					},
					"t_array(t_struct(Candidate)6_storage)dyn_storage": {
						"base": "t_struct(Candidate)6_storage",
						"encoding": "dynamic_array",
						"label": "struct Vote.Candidate[]",
						"numberOfBytes": "32"
					},
					"t_array(t_struct(Poll)25_storage)dyn_storage": {
						"base": "t_struct(Poll)25_storage",
						"encoding": "dynamic_array",
						"label": "struct Vote.Poll[]",
						"numberOfBytes": "32"
					},
					"t_bool": {
						"encoding": "inplace",
						"label": "bool",
						"numberOfBytes": "1"
					},
					"t_mapping(t_address,t_struct(Voter)9_storage)": {
						"encoding": "mapping",
						"key": "t_address",
						"label": "mapping(address => struct Vote.Voter)",
						"numberOfBytes": "32",
						"value": "t_struct(Voter)9_storage"
					},
					"t_string_storage": {
						"encoding": "bytes",
						"label": "string",
						"numberOfBytes": "32"
					},
					"t_struct(Candidate)6_storage": {
						"encoding": "inplace",
						"label": "struct Vote.Candidate",
						"members": [
							{
								"astId": 3,
								"contract": "blockchain/practice/vote-app.sol:Vote",
								"label": "name",
								"offset": 0,
								"slot": "0",
								"type": "t_string_storage"
							},
							{
								"astId": 5,
								"contract": "blockchain/practice/vote-app.sol:Vote",
								"label": "upVote",
								"offset": 0,
								"slot": "1",
								"type": "t_uint256"
							}
						],
						"numberOfBytes": "64"
					},
					"t_struct(Poll)25_storage": {
						"encoding": "inplace",
						"label": "struct Vote.Poll",
						"members": [
							{
								"astId": 11,
								"contract": "blockchain/practice/vote-app.sol:Vote",
								"label": "question",
								"offset": 0,
								"slot": "0",
								"type": "t_string_storage"
							},
							{
								"astId": 15,
								"contract": "blockchain/practice/vote-app.sol:Vote",
								"label": "candidates",
								"offset": 0,
								"slot": "1",
								"type": "t_array(t_struct(Candidate)6_storage)dyn_storage"
							},
							{
								"astId": 20,
								"contract": "blockchain/practice/vote-app.sol:Vote",
								"label": "voters",
								"offset": 0,
								"slot": "2",
								"type": "t_mapping(t_address,t_struct(Voter)9_storage)"
							},
							{
								"astId": 22,
								"contract": "blockchain/practice/vote-app.sol:Vote",
								"label": "owner",
								"offset": 0,
								"slot": "3",
								"type": "t_address"
							},
							{
								"astId": 24,
								"contract": "blockchain/practice/vote-app.sol:Vote",
								"label": "isActive",
								"offset": 20,
								"slot": "3",
								"type": "t_bool"
							}
						],
						"numberOfBytes": "128"
					},
					"t_struct(Voter)9_storage": {
						"encoding": "inplace",
						"label": "struct Vote.Voter",
						"members": [
							{
								"astId": 8,
								"contract": "blockchain/practice/vote-app.sol:Vote",
								"label": "isVoted",
								"offset": 0,
								"slot": "0",
								"type": "t_bool"
							}
						],
						"numberOfBytes": "32"
					},
					"t_uint256": {
						"encoding": "inplace",
						"label": "uint256",
						"numberOfBytes": "32"
					}
				}
			},
			"userdoc": {
				"kind": "user",
				"methods": {},
				"version": 1
			}
		}
	}
}